{"abi":[{"type":"constructor","inputs":[{"name":"_owner","type":"address","internalType":"address"}],"stateMutability":"nonpayable"},{"type":"function","name":"afterBalanceUpdate","inputs":[{"name":"","type":"uint256","internalType":"uint256"},{"name":"","type":"uint256","internalType":"uint256"},{"name":"","type":"uint256","internalType":"uint256"}],"outputs":[],"stateMutability":"view"},{"type":"function","name":"authority","inputs":[],"outputs":[{"name":"","type":"address","internalType":"contract Authority"}],"stateMutability":"view"},{"type":"function","name":"beforeBalanceUpdate","inputs":[{"name":"currentPPS","type":"uint256","internalType":"uint256"},{"name":"totalSupply","type":"uint256","internalType":"uint256"},{"name":"idleAssets","type":"uint256","internalType":"uint256"},{"name":"newAggregatedBalance","type":"uint256","internalType":"uint256"}],"outputs":[{"name":"shouldContinue","type":"bool","internalType":"bool"},{"name":"newPPS","type":"uint256","internalType":"uint256"}],"stateMutability":"view"},{"type":"function","name":"maxPercentageChange","inputs":[],"outputs":[{"name":"","type":"uint256","internalType":"uint256"}],"stateMutability":"view"},{"type":"function","name":"owner","inputs":[],"outputs":[{"name":"","type":"address","internalType":"address"}],"stateMutability":"view"},{"type":"function","name":"setAuthority","inputs":[{"name":"newAuthority","type":"address","internalType":"contract Authority"}],"outputs":[],"stateMutability":"nonpayable"},{"type":"function","name":"transferOwnership","inputs":[{"name":"newOwner","type":"address","internalType":"address"}],"outputs":[],"stateMutability":"nonpayable"},{"type":"event","name":"AuthorityUpdated","inputs":[{"name":"user","type":"address","indexed":true,"internalType":"address"},{"name":"newAuthority","type":"address","indexed":true,"internalType":"contract Authority"}],"anonymous":false},{"type":"event","name":"MaxPercentageUpdated","inputs":[{"name":"oldMax","type":"uint256","indexed":false,"internalType":"uint256"},{"name":"newMax","type":"uint256","indexed":false,"internalType":"uint256"}],"anonymous":false},{"type":"event","name":"OwnershipTransferred","inputs":[{"name":"user","type":"address","indexed":true,"internalType":"address"},{"name":"newOwner","type":"address","indexed":true,"internalType":"address"}],"anonymous":false}],"bytecode":{"object":"0x60803460d157601f61068e38819003918201601f19168301916001600160401b0383118484101760d55780849260209460405283398101031260d157516001600160a01b0381169081900360d1575f80546001600160a01b031990811683178255600180549091169055604051919033907f8be0079c531659141344cd1fd0a4f28419497f9722a3daafe3b4186f6b6457e09080a35f337fa3396fd7f6e0a21b50e5089d2da70d5ac0a3bbbd1f617a93f134b763899801988280a3662386f26fc100006002556105a490816100ea8239f35b5f80fd5b634e487b7160e01b5f52604160045260245ffdfe60806040526004361015610011575f80fd5b5f358060e01c9081631faab223146103a15781637a9e5e4b146102885781638da5cb5b14610263578163bf7e214f1461023d578163cfa40aed14610220578163f2fde38b14610080575063fcbde38914610069575f80fd5b3461007c57606036600319011261007c57005b5f80fd5b3461007c57602036600319011261007c57600435906001600160a01b03821680920361007c576001600160a01b0360015416801515918261017f575b5050801561016c575b1561010e578073ffffffffffffffffffffffffffffffffffffffff195f5416175f55337f8be0079c531659141344cd1fd0a4f28419497f9722a3daafe3b4186f6b6457e05f80a3005b60646040517f08c379a000000000000000000000000000000000000000000000000000000000815260206004820152600c60248201527f554e415554484f52495a454400000000000000000000000000000000000000006044820152fd5b506001600160a01b035f541633146100c5565b60405163b700961360e01b81523360048201523060248201527fffffffff000000000000000000000000000000000000000000000000000000009190911660448201529150602090829060649082905afa908115610215575f916101e6575b5082806100bc565b610208915060203d60201161020e575b6102008183610435565b81019061046b565b826101de565b503d6101f6565b6040513d5f823e3d90fd5b3461007c575f36600319011261007c576020600254604051908152f35b3461007c575f36600319011261007c5760206001600160a01b0360015416604051908152f35b3461007c575f36600319011261007c5760206001600160a01b035f5416604051908152f35b3461007c57602036600319011261007c57600435906001600160a01b03821680920361007c576001600160a01b035f5416331490811561030f575b501561007c578073ffffffffffffffffffffffffffffffffffffffff196001541617600155337fa3396fd7f6e0a21b50e5089d2da70d5ac0a3bbbd1f617a93f134b763899801985f80a3005b60015460405163b700961360e01b81523360048201523060248201527fffffffff00000000000000000000000000000000000000000000000000000000929092166044830152909150602090829060649082906001600160a01b03165afa908115610215575f91610382575b50826102c3565b61039b915060203d60201161020e576102008183610435565b8261037b565b3461007c57608036600319011261007c576024356103c3606435604435610428565b90806103e85750506040670de0b6b3a76400006001905b825191151582526020820152f35b670de0b6b3a76400006103fa926104e5565b60409061040981600435610490565b6002541015906103da565b634e487b7160e01b5f52601160045260245ffd5b9190820180921161041457565b90601f8019910116810190811067ffffffffffffffff82111761045757604052565b634e487b7160e01b5f52604160045260245ffd5b9081602091031261007c5751801515810361007c5790565b9190820391821161041457565b80156104df576104cc9181808211156104cf576104ac91610483565b905b670de0b6b3a76400006104c28282856104e5565b9209151590610428565b90565b906104d991610483565b906104ae565b50505f90565b91818302915f1981850993838086109503948086039514610575578483111561055d5790829109815f0382168092046002816003021880820260020302808202600203028082026002030280820260020302808202600203028091026002030293600183805f03040190848311900302920304170290565b82634e487b715f52156003026011186020526024601cfd5b505080925015610583570490565b634e487b7160e01b5f52601260045260245ffdfea164736f6c634300081c000a","linkReferences":{}},"methodIdentifiers":{"afterBalanceUpdate(uint256,uint256,uint256)":"fcbde389","authority()":"bf7e214f","beforeBalanceUpdate(uint256,uint256,uint256,uint256)":"1faab223","maxPercentageChange()":"cfa40aed","owner()":"8da5cb5b","setAuthority(address)":"7a9e5e4b","transferOwnership(address)":"f2fde38b"},"storageLayout":{"storage":[{"astId":49162,"contract":"src/hooks/ManualBalanceUpdateHook.sol:ManualBalanceUpdateHook","label":"owner","offset":0,"slot":"0","type":"t_address"},{"astId":49165,"contract":"src/hooks/ManualBalanceUpdateHook.sol:ManualBalanceUpdateHook","label":"authority","offset":0,"slot":"1","type":"t_contract(Authority)49316"},{"astId":52756,"contract":"src/hooks/ManualBalanceUpdateHook.sol:ManualBalanceUpdateHook","label":"maxPercentageChange","offset":0,"slot":"2","type":"t_uint256"}],"types":{"t_address":{"encoding":"inplace","label":"address","numberOfBytes":"20"},"t_contract(Authority)49316":{"encoding":"inplace","label":"contract Authority","numberOfBytes":"20"},"t_uint256":{"encoding":"inplace","label":"uint256","numberOfBytes":"32"}}},"id":93}