{"abi":[{"type":"constructor","inputs":[{"name":"_owner","type":"address","internalType":"address"}],"stateMutability":"nonpayable"},{"type":"function","name":"afterBalanceUpdate","inputs":[{"name":"","type":"uint256","internalType":"uint256"},{"name":"","type":"uint256","internalType":"uint256"},{"name":"","type":"uint256","internalType":"uint256"}],"outputs":[],"stateMutability":"view"},{"type":"function","name":"authority","inputs":[],"outputs":[{"name":"","type":"address","internalType":"contract Authority"}],"stateMutability":"view"},{"type":"function","name":"beforeBalanceUpdate","inputs":[{"name":"currentPPS","type":"uint256","internalType":"uint256"},{"name":"totalSupply","type":"uint256","internalType":"uint256"},{"name":"idleAssets","type":"uint256","internalType":"uint256"},{"name":"newAggregatedBalance","type":"uint256","internalType":"uint256"}],"outputs":[{"name":"shouldContinue","type":"bool","internalType":"bool"},{"name":"newPPS","type":"uint256","internalType":"uint256"}],"stateMutability":"view"},{"type":"function","name":"maxPercentageChange","inputs":[],"outputs":[{"name":"","type":"uint256","internalType":"uint256"}],"stateMutability":"view"},{"type":"function","name":"owner","inputs":[],"outputs":[{"name":"","type":"address","internalType":"address"}],"stateMutability":"view"},{"type":"function","name":"setAuthority","inputs":[{"name":"newAuthority","type":"address","internalType":"contract Authority"}],"outputs":[],"stateMutability":"nonpayable"},{"type":"function","name":"transferOwnership","inputs":[{"name":"newOwner","type":"address","internalType":"address"}],"outputs":[],"stateMutability":"nonpayable"},{"type":"function","name":"updateMaxPercentageChange","inputs":[{"name":"newThreshold","type":"uint256","internalType":"uint256"}],"outputs":[],"stateMutability":"nonpayable"},{"type":"event","name":"AuthorityUpdated","inputs":[{"name":"user","type":"address","indexed":true,"internalType":"address"},{"name":"newAuthority","type":"address","indexed":true,"internalType":"contract Authority"}],"anonymous":false},{"type":"event","name":"MaxPercentageUpdated","inputs":[{"name":"oldMax","type":"uint256","indexed":false,"internalType":"uint256"},{"name":"newMax","type":"uint256","indexed":false,"internalType":"uint256"}],"anonymous":false},{"type":"event","name":"OwnershipTransferred","inputs":[{"name":"user","type":"address","indexed":true,"internalType":"address"},{"name":"newOwner","type":"address","indexed":true,"internalType":"address"}],"anonymous":false},{"type":"error","name":"InvalidMaxPercentage","inputs":[]}],"bytecode":{"object":"0x60803460d157601f61073238819003918201601f19168301916001600160401b0383118484101760d55780849260209460405283398101031260d157516001600160a01b0381169081900360d1575f80546001600160a01b031990811683178255600180549091169055604051919033907f8be0079c531659141344cd1fd0a4f28419497f9722a3daafe3b4186f6b6457e09080a35f337fa3396fd7f6e0a21b50e5089d2da70d5ac0a3bbbd1f617a93f134b763899801988280a3662386f26fc1000060025561064890816100ea8239f35b5f80fd5b634e487b7160e01b5f52604160045260245ffdfe60806040526004361015610011575f80fd5b5f358060e01c9081631faab2231461032f5781637a9e5e4b146102135781638da5cb5b146101ee57816395c5eaf514610154578163bf7e214f1461012e578163cfa40aed14610111578163f2fde38b1461008b575063fcbde38914610074575f80fd5b3461008757606036600319011261008757005b5f80fd5b3461008757602036600319011261008757600435906001600160a01b038216809203610087576100c86001600160e01b03196100cd9216336104d8565b610411565b8073ffffffffffffffffffffffffffffffffffffffff195f5416175f55337f8be0079c531659141344cd1fd0a4f28419497f9722a3daafe3b4186f6b6457e05f80a3005b34610087575f366003190112610087576020600254604051908152f35b34610087575f3660031901126100875760206001600160a01b0360015416604051908152f35b346100875760203660031901126100875761017f6100c86001600160e01b03196004359316336104d8565b67016345785d8a00008110156101c6577f5b1f8430a1675242d4a0bdb976ee1c8740d114671db54660aba42fb46293e5dd60406002548151908152836020820152a1600255005b7f5aede91d000000000000000000000000000000000000000000000000000000005f5260045ffd5b34610087575f3660031901126100875760206001600160a01b035f5416604051908152f35b3461008757602036600319011261008757600435906001600160a01b038216809203610087576001600160a01b035f5416331490811561029a575b5015610087578073ffffffffffffffffffffffffffffffffffffffff196001541617600155337fa3396fd7f6e0a21b50e5089d2da70d5ac0a3bbbd1f617a93f134b763899801985f80a3005b60015460405163b700961360e01b81523360048201523060248201526001600160e01b0319929092166044830152909150602090829060649082906001600160a01b03165afa908115610324575f916102f5575b508261024e565b610317915060203d60201161031d575b61030f81836103c3565b8101906103f9565b826102ee565b503d610305565b6040513d5f823e3d90fd5b34610087576080366003190112610087576024356103516064356044356103b6565b90806103765750506040670de0b6b3a76400006001905b825191151582526020820152f35b670de0b6b3a764000061038892610589565b60409061039781600435610483565b600254101590610368565b634e487b7160e01b5f52601160045260245ffd5b919082018092116103a257565b90601f8019910116810190811067ffffffffffffffff8211176103e557604052565b634e487b7160e01b5f52604160045260245ffd5b90816020910312610087575180151581036100875790565b1561041857565b60646040517f08c379a000000000000000000000000000000000000000000000000000000000815260206004820152600c60248201527f554e415554484f52495a454400000000000000000000000000000000000000006044820152fd5b919082039182116103a257565b80156104d2576104bf9181808211156104c25761049f91610476565b905b670de0b6b3a76400006104b5828285610589565b92091515906103b6565b90565b906104cc91610476565b906104a1565b50505f90565b6001600160a01b036001541691821515928361050f575b505081156104fb575090565b90506001600160a01b03805f541691161490565b60405163b700961360e01b81526001600160a01b03841660048201523060248201526001600160e01b031992909216604483015291925090602090829060649082905afa908115610324575f9161056a575b50905f806104ef565b610583915060203d60201161031d5761030f81836103c3565b5f610561565b91818302915f198185099383808610950394808603951461061957848311156106015790829109815f0382168092046002816003021880820260020302808202600203028082026002030280820260020302808202600203028091026002030293600183805f03040190848311900302920304170290565b82634e487b715f52156003026011186020526024601cfd5b505080925015610627570490565b634e487b7160e01b5f52601260045260245ffdfea164736f6c634300081c000a","linkReferences":{}},"methodIdentifiers":{"afterBalanceUpdate(uint256,uint256,uint256)":"fcbde389","authority()":"bf7e214f","beforeBalanceUpdate(uint256,uint256,uint256,uint256)":"1faab223","maxPercentageChange()":"cfa40aed","owner()":"8da5cb5b","setAuthority(address)":"7a9e5e4b","transferOwnership(address)":"f2fde38b","updateMaxPercentageChange(uint256)":"95c5eaf5"},"storageLayout":{"storage":[{"astId":46963,"contract":"src/hooks/ManualBalanceUpdateHook.sol:ManualBalanceUpdateHook","label":"owner","offset":0,"slot":"0","type":"t_address"},{"astId":46966,"contract":"src/hooks/ManualBalanceUpdateHook.sol:ManualBalanceUpdateHook","label":"authority","offset":0,"slot":"1","type":"t_contract(Authority)47117"},{"astId":50899,"contract":"src/hooks/ManualBalanceUpdateHook.sol:ManualBalanceUpdateHook","label":"maxPercentageChange","offset":0,"slot":"2","type":"t_uint256"}],"types":{"t_address":{"encoding":"inplace","label":"address","numberOfBytes":"20"},"t_contract(Authority)47117":{"encoding":"inplace","label":"contract Authority","numberOfBytes":"20"},"t_uint256":{"encoding":"inplace","label":"uint256","numberOfBytes":"32"}}},"id":79}