{"abi":[{"type":"constructor","inputs":[{"name":"_owner","type":"address","internalType":"address"}],"stateMutability":"nonpayable"},{"type":"function","name":"afterBalanceUpdate","inputs":[{"name":"","type":"uint256","internalType":"uint256"},{"name":"","type":"uint256","internalType":"uint256"},{"name":"","type":"uint256","internalType":"uint256"}],"outputs":[],"stateMutability":"view"},{"type":"function","name":"authority","inputs":[],"outputs":[{"name":"","type":"address","internalType":"contract Authority"}],"stateMutability":"view"},{"type":"function","name":"beforeBalanceUpdate","inputs":[{"name":"currentPPS","type":"uint256","internalType":"uint256"},{"name":"totalSupply","type":"uint256","internalType":"uint256"},{"name":"idleAssets","type":"uint256","internalType":"uint256"},{"name":"newAggregatedBalance","type":"uint256","internalType":"uint256"}],"outputs":[{"name":"shouldContinue","type":"bool","internalType":"bool"},{"name":"newPPS","type":"uint256","internalType":"uint256"}],"stateMutability":"view"},{"type":"function","name":"maxPercentageChange","inputs":[],"outputs":[{"name":"","type":"uint256","internalType":"uint256"}],"stateMutability":"view"},{"type":"function","name":"owner","inputs":[],"outputs":[{"name":"","type":"address","internalType":"address"}],"stateMutability":"view"},{"type":"function","name":"setAuthority","inputs":[{"name":"newAuthority","type":"address","internalType":"contract Authority"}],"outputs":[],"stateMutability":"nonpayable"},{"type":"function","name":"transferOwnership","inputs":[{"name":"newOwner","type":"address","internalType":"address"}],"outputs":[],"stateMutability":"nonpayable"},{"type":"function","name":"updateMaxPercentageChange","inputs":[{"name":"newThreshold","type":"uint256","internalType":"uint256"}],"outputs":[],"stateMutability":"nonpayable"},{"type":"event","name":"AuthorityUpdated","inputs":[{"name":"user","type":"address","indexed":true,"internalType":"address"},{"name":"newAuthority","type":"address","indexed":true,"internalType":"contract Authority"}],"anonymous":false},{"type":"event","name":"MaxPercentageUpdated","inputs":[{"name":"oldMax","type":"uint256","indexed":false,"internalType":"uint256"},{"name":"newMax","type":"uint256","indexed":false,"internalType":"uint256"}],"anonymous":false},{"type":"event","name":"OwnershipTransferred","inputs":[{"name":"user","type":"address","indexed":true,"internalType":"address"},{"name":"newOwner","type":"address","indexed":true,"internalType":"address"}],"anonymous":false},{"type":"error","name":"InvalidMaxPercentage","inputs":[]}],"bytecode":{"object":"0x608060405234801561000f575f5ffd5b506040516108d03803806108d083398101604081905261002e916100cb565b5f80546001600160a01b0383166001600160a01b031991821681178355600180549092169091556040518392919033907f8be0079c531659141344cd1fd0a4f28419497f9722a3daafe3b4186f6b6457e0908490a36040516001600160a01b0382169033907fa3396fd7f6e0a21b50e5089d2da70d5ac0a3bbbd1f617a93f134b76389980198905f90a35050662386f26fc10000600255506100f8565b5f602082840312156100db575f5ffd5b81516001600160a01b03811681146100f1575f5ffd5b9392505050565b6107cb806101055f395ff3fe608060405234801561000f575f5ffd5b5060043610610085575f3560e01c8063bf7e214f11610058578063bf7e214f1461010a578063cfa40aed1461011d578063f2fde38b14610134578063fcbde38914610147575f5ffd5b80631faab223146100895780637a9e5e4b146100b85780638da5cb5b146100cd57806395c5eaf5146100f7575b5f5ffd5b61009c61009736600461066f565b61015a565b6040805192151583526020830191909152015b60405180910390f35b6100cb6100c63660046106b5565b6101b8565b005b5f546100df906001600160a01b031681565b6040516001600160a01b0390911681526020016100af565b6100cb6101053660046106d0565b6102ac565b6001546100df906001600160a01b031681565b61012660025481565b6040519081526020016100af565b6100cb6101423660046106b5565b610383565b6100cb6101553660046106e7565b505050565b5f80806101678486610724565b9050855f0361018457670de0b6b3a76400009150600192506101ae565b61019881670de0b6b3a7640000885f61042a565b91505f6101a58884610475565b60025410159350505b5094509492505050565b5f546001600160a01b031633148061024c575060015460405163b700961360e01b81523360048201523060248201525f356001600160e01b03191660448201526001600160a01b039091169063b700961390606401602060405180830381865afa158015610228573d5f5f3e3d5ffd5b505050506040513d601f19601f8201168201806040525081019061024c9190610737565b610254575f5ffd5b6001805473ffffffffffffffffffffffffffffffffffffffff19166001600160a01b03831690811790915560405133907fa3396fd7f6e0a21b50e5089d2da70d5ac0a3bbbd1f617a93f134b76389980198905f90a350565b6102c1335f356001600160e01b0319166104c6565b6103015760405162461bcd60e51b815260206004820152600c60248201526b15539055551213d49256915160a21b60448201526064015b60405180910390fd5b67016345785d8a00008110610342576040517f5aede91d00000000000000000000000000000000000000000000000000000000815260040160405180910390fd5b60025460408051918252602082018390527f5b1f8430a1675242d4a0bdb976ee1c8740d114671db54660aba42fb46293e5dd910160405180910390a1600255565b610398335f356001600160e01b0319166104c6565b6103d35760405162461bcd60e51b815260206004820152600c60248201526b15539055551213d49256915160a21b60448201526064016102f8565b5f805473ffffffffffffffffffffffffffffffffffffffff19166001600160a01b0383169081178255604051909133917f8be0079c531659141344cd1fd0a4f28419497f9722a3daafe3b4186f6b6457e09190a350565b5f6104576104378361057b565b801561045257505f848061044d5761044d610756565b868809115b151590565b6104628686866105a7565b61046c9190610724565b95945050505050565b5f825f0361048457505f6104c0565b5f83831161049b57610496838561076a565b6104a5565b6104a5848461076a565b90506104bc81670de0b6b3a764000086600161042a565b9150505b92915050565b6001545f906001600160a01b0316801580159061055c575060405163b700961360e01b81526001600160a01b0385811660048301523060248301526001600160e01b03198516604483015282169063b700961390606401602060405180830381865afa158015610538573d5f5f3e3d5ffd5b505050506040513d601f19601f8201168201806040525081019061055c9190610737565b806104bc57505f546001600160a01b0385811691161491505092915050565b5f60028260038111156105905761059061077d565b61059a9190610791565b60ff166001149050919050565b5f838302815f1985870982811083820303915050805f036105db578382816105d1576105d1610756565b0492505050610657565b8084116105f2576105f2600385150260111861065e565b5f848688095f868103871696879004966002600389028118808a02820302808a02820302808a02820302808a02820302808a02820302808a02909103029181900381900460010186841190950394909402919094039290920491909117919091029150505b9392505050565b634e487b715f52806020526024601cfd5b5f5f5f5f60808587031215610682575f5ffd5b5050823594602084013594506040840135936060013592509050565b6001600160a01b03811681146106b2575f5ffd5b50565b5f602082840312156106c5575f5ffd5b81356106578161069e565b5f602082840312156106e0575f5ffd5b5035919050565b5f5f5f606084860312156106f9575f5ffd5b505081359360208301359350604090920135919050565b634e487b7160e01b5f52601160045260245ffd5b808201808211156104c0576104c0610710565b5f60208284031215610747575f5ffd5b81518015158114610657575f5ffd5b634e487b7160e01b5f52601260045260245ffd5b818103818111156104c0576104c0610710565b634e487b7160e01b5f52602160045260245ffd5b5f60ff8316806107af57634e487b7160e01b5f52601260045260245ffd5b8060ff8416069150509291505056fea164736f6c634300081c000a","linkReferences":{}},"methodIdentifiers":{"afterBalanceUpdate(uint256,uint256,uint256)":"fcbde389","authority()":"bf7e214f","beforeBalanceUpdate(uint256,uint256,uint256,uint256)":"1faab223","maxPercentageChange()":"cfa40aed","owner()":"8da5cb5b","setAuthority(address)":"7a9e5e4b","transferOwnership(address)":"f2fde38b","updateMaxPercentageChange(uint256)":"95c5eaf5"},"storageLayout":{"storage":[{"astId":48359,"contract":"src/hooks/ManualBalanceUpdateHook.sol:ManualBalanceUpdateHook","label":"owner","offset":0,"slot":"0","type":"t_address"},{"astId":48362,"contract":"src/hooks/ManualBalanceUpdateHook.sol:ManualBalanceUpdateHook","label":"authority","offset":0,"slot":"1","type":"t_contract(Authority)48513"},{"astId":51921,"contract":"src/hooks/ManualBalanceUpdateHook.sol:ManualBalanceUpdateHook","label":"maxPercentageChange","offset":0,"slot":"2","type":"t_uint256"}],"types":{"t_address":{"encoding":"inplace","label":"address","numberOfBytes":"20"},"t_contract(Authority)48513":{"encoding":"inplace","label":"contract Authority","numberOfBytes":"20"},"t_uint256":{"encoding":"inplace","label":"uint256","numberOfBytes":"32"}}},"id":66}