{"abi":[{"type":"function","name":"afterRedeem","inputs":[{"name":"","type":"address","internalType":"address"},{"name":"","type":"uint256","internalType":"uint256"},{"name":"","type":"uint256","internalType":"uint256"},{"name":"","type":"bool","internalType":"bool"}],"outputs":[],"stateMutability":"nonpayable"},{"type":"function","name":"beforeRedeem","inputs":[{"name":"vault","type":"address","internalType":"contract IElitraVault"},{"name":"","type":"uint256","internalType":"uint256"},{"name":"assets","type":"uint256","internalType":"uint256"},{"name":"","type":"address","internalType":"address"},{"name":"receiver","type":"address","internalType":"address"}],"outputs":[{"name":"mode","type":"uint8","internalType":"enum RedemptionMode"},{"name":"actualAssets","type":"uint256","internalType":"uint256"}],"stateMutability":"nonpayable"},{"type":"event","name":"RedemptionProcessed","inputs":[{"name":"vault","type":"address","indexed":true,"internalType":"address"},{"name":"receiver","type":"address","indexed":true,"internalType":"address"},{"name":"mode","type":"uint8","indexed":false,"internalType":"enum RedemptionMode"},{"name":"assets","type":"uint256","indexed":false,"internalType":"uint256"}],"anonymous":false}],"bytecode":{"object":"0x6080604052348015600e575f5ffd5b506102c28061001c5f395ff3fe608060405234801561000f575f5ffd5b5060043610610034575f3560e01c806351eda43e1461003857806390c70bf514610062575b5f5ffd5b61004b6100463660046101b5565b610078565b604051610059929190610210565b60405180910390f35b610076610070366004610253565b50505050565b005b5f5f5f876001600160a01b031663809dab6a6040518163ffffffff1660e01b8152600401602060405180830381865afa1580156100b7573d5f5f3e3d5ffd5b505050506040513d601f19601f820116820180604052508101906100db919061029e565b905085811061013d57836001600160a01b0316886001600160a01b03167f6aa103898b1b0777b6e755a0900055be94448f510cb61f3f5ad168806f45a5015f89604051610129929190610210565b60405180910390a35f869250925050610194565b836001600160a01b0316886001600160a01b03167f6aa103898b1b0777b6e755a0900055be94448f510cb61f3f5ad168806f45a501600189604051610183929190610210565b60405180910390a360018692509250505b9550959350505050565b6001600160a01b03811681146101b2575f5ffd5b50565b5f5f5f5f5f60a086880312156101c9575f5ffd5b85356101d48161019e565b9450602086013593506040860135925060608601356101f28161019e565b915060808601356102028161019e565b809150509295509295909350565b6040810160028410610249577f4e487b71000000000000000000000000000000000000000000000000000000005f52602160045260245ffd5b9281526020015290565b5f5f5f5f60808587031215610266575f5ffd5b84356102718161019e565b9350602085013592506040850135915060608501358015158114610293575f5ffd5b939692955090935050565b5f602082840312156102ae575f5ffd5b505191905056fea164736f6c634300081c000a","linkReferences":{}},"methodIdentifiers":{"afterRedeem(address,uint256,uint256,bool)":"90c70bf5","beforeRedeem(address,uint256,uint256,address,address)":"51eda43e"},"storageLayout":{"storage":[],"types":{}},"id":44}