{"abi":[{"type":"function","name":"afterRedeem","inputs":[{"name":"","type":"address","internalType":"address"},{"name":"","type":"uint256","internalType":"uint256"},{"name":"","type":"uint256","internalType":"uint256"},{"name":"","type":"bool","internalType":"bool"}],"outputs":[],"stateMutability":"nonpayable"},{"type":"function","name":"beforeRedeem","inputs":[{"name":"vault","type":"address","internalType":"contract IElitraVault"},{"name":"","type":"uint256","internalType":"uint256"},{"name":"assets","type":"uint256","internalType":"uint256"},{"name":"","type":"address","internalType":"address"},{"name":"receiver","type":"address","internalType":"address"}],"outputs":[{"name":"mode","type":"uint8","internalType":"enum RedemptionMode"},{"name":"actualAssets","type":"uint256","internalType":"uint256"}],"stateMutability":"nonpayable"},{"type":"event","name":"RedemptionProcessed","inputs":[{"name":"vault","type":"address","indexed":true,"internalType":"address"},{"name":"receiver","type":"address","indexed":true,"internalType":"address"},{"name":"mode","type":"uint8","indexed":false,"internalType":"enum RedemptionMode"},{"name":"assets","type":"uint256","indexed":false,"internalType":"uint256"}],"anonymous":false}],"bytecode":{"object":"0x60808060405234601557610249908161001a8239f35b5f80fdfe60806040526004361015610011575f80fd5b5f3560e01c806351eda43e1461005a576390c70bf51461002f575f80fd5b34610056576080366003190112610056576100486100ea565b506064358015150361005657005b5f80fd5b346100565760a0366003190112610056576004356001600160a01b0381168103610056576100866100d4565b506084356001600160a01b0381168103610056576100a79160443590610100565b6040519060028310156100c05760409282526020820152f35b634e487b7160e01b5f52602160045260245ffd5b606435906001600160a01b038216820361005657565b600435906001600160a01b038216820361005657565b6001600160a01b039093929193166040517f809dab6a000000000000000000000000000000000000000000000000000000008152602081600481855afa80156102315785915f916101d2575b5010610191577f6aa103898b1b0777b6e755a0900055be94448f510cb61f3f5ad168806f45a50160406001600160a01b038151945f86528760208701521693a35f9190565b7f6aa103898b1b0777b6e755a0900055be94448f510cb61f3f5ad168806f45a50160406001600160a01b03815194600186528760208701521693a360019190565b91505060203d60201161022a575b601f8101601f1916820167ffffffffffffffff81118382101761021657602091839160405281010312610056578490515f61014c565b634e487b7160e01b5f52604160045260245ffd5b503d6101e0565b6040513d5f823e3d90fdfea164736f6c634300081c000a","linkReferences":{}},"methodIdentifiers":{"afterRedeem(address,uint256,uint256,bool)":"90c70bf5","beforeRedeem(address,uint256,uint256,address,address)":"51eda43e"},"storageLayout":{"storage":[],"types":{}},"id":93}