{"abi":[{"type":"constructor","inputs":[{"name":"_endpoint","type":"address","internalType":"address"}],"stateMutability":"nonpayable"},{"type":"receive","stateMutability":"payable"},{"type":"function","name":"DEFAULT_ADMIN_ROLE","inputs":[],"outputs":[{"name":"","type":"bytes32","internalType":"bytes32"}],"stateMutability":"view"},{"type":"function","name":"OPERATOR_ROLE","inputs":[],"outputs":[{"name":"","type":"bytes32","internalType":"bytes32"}],"stateMutability":"view"},{"type":"function","name":"UPGRADE_INTERFACE_VERSION","inputs":[],"outputs":[{"name":"","type":"string","internalType":"string"}],"stateMutability":"view"},{"type":"function","name":"allowInitializePath","inputs":[{"name":"origin","type":"tuple","internalType":"struct Origin","components":[{"name":"srcEid","type":"uint32","internalType":"uint32"},{"name":"sender","type":"bytes32","internalType":"bytes32"},{"name":"nonce","type":"uint64","internalType":"uint64"}]}],"outputs":[{"name":"","type":"bool","internalType":"bool"}],"stateMutability":"view"},{"type":"function","name":"batchManualRefund","inputs":[{"name":"depositIds","type":"uint256[]","internalType":"uint256[]"}],"outputs":[],"stateMutability":"nonpayable"},{"type":"function","name":"combineOptions","inputs":[{"name":"_eid","type":"uint32","internalType":"uint32"},{"name":"_msgType","type":"uint16","internalType":"uint16"},{"name":"_extraOptions","type":"bytes","internalType":"bytes"}],"outputs":[{"name":"","type":"bytes","internalType":"bytes"}],"stateMutability":"view"},{"type":"function","name":"depositRecords","inputs":[{"name":"","type":"uint256","internalType":"uint256"}],"outputs":[{"name":"user","type":"address","internalType":"address"},{"name":"srcEid","type":"uint32","internalType":"uint32"},{"name":"tokenIn","type":"address","internalType":"address"},{"name":"amountIn","type":"uint256","internalType":"uint256"},{"name":"vault","type":"address","internalType":"address"},{"name":"sharesReceived","type":"uint256","internalType":"uint256"},{"name":"timestamp","type":"uint256","internalType":"uint256"},{"name":"status","type":"uint8","internalType":"enum ICrosschainDepositAdapter.DepositStatus"},{"name":"guid","type":"bytes32","internalType":"bytes32"},{"name":"failureReason","type":"bytes","internalType":"bytes"}],"stateMutability":"view"},{"type":"function","name":"depositRefundGas","inputs":[],"outputs":[],"stateMutability":"payable"},{"type":"function","name":"depositToVault","inputs":[{"name":"vault","type":"address","internalType":"address"},{"name":"receiver","type":"address","internalType":"address"},{"name":"amount","type":"uint256","internalType":"uint256"}],"outputs":[{"name":"shares","type":"uint256","internalType":"uint256"}],"stateMutability":"nonpayable"},{"type":"function","name":"emergencyRecover","inputs":[{"name":"token","type":"address","internalType":"address"},{"name":"to","type":"address","internalType":"address"},{"name":"amount","type":"uint256","internalType":"uint256"}],"outputs":[],"stateMutability":"nonpayable"},{"type":"function","name":"endpoint","inputs":[],"outputs":[{"name":"","type":"address","internalType":"contract ILayerZeroEndpointV2"}],"stateMutability":"view"},{"type":"function","name":"enforcedOptions","inputs":[{"name":"_eid","type":"uint32","internalType":"uint32"},{"name":"_msgType","type":"uint16","internalType":"uint16"}],"outputs":[{"name":"","type":"bytes","internalType":"bytes"}],"stateMutability":"view"},{"type":"function","name":"getDepositRecord","inputs":[{"name":"depositId","type":"uint256","internalType":"uint256"}],"outputs":[{"name":"","type":"tuple","internalType":"struct ICrosschainDepositAdapter.DepositRecord","components":[{"name":"user","type":"address","internalType":"address"},{"name":"srcEid","type":"uint32","internalType":"uint32"},{"name":"tokenIn","type":"address","internalType":"address"},{"name":"amountIn","type":"uint256","internalType":"uint256"},{"name":"vault","type":"address","internalType":"address"},{"name":"sharesReceived","type":"uint256","internalType":"uint256"},{"name":"timestamp","type":"uint256","internalType":"uint256"},{"name":"status","type":"uint8","internalType":"enum ICrosschainDepositAdapter.DepositStatus"},{"name":"guid","type":"bytes32","internalType":"bytes32"},{"name":"failureReason","type":"bytes","internalType":"bytes"}]}],"stateMutability":"view"},{"type":"function","name":"getFailedDeposits","inputs":[{"name":"startId","type":"uint256","internalType":"uint256"},{"name":"limit","type":"uint256","internalType":"uint256"}],"outputs":[{"name":"depositIds","type":"uint256[]","internalType":"uint256[]"}],"stateMutability":"view"},{"type":"function","name":"getRoleAdmin","inputs":[{"name":"role","type":"bytes32","internalType":"bytes32"}],"outputs":[{"name":"","type":"bytes32","internalType":"bytes32"}],"stateMutability":"view"},{"type":"function","name":"getUserDepositIds","inputs":[{"name":"user","type":"address","internalType":"address"}],"outputs":[{"name":"","type":"uint256[]","internalType":"uint256[]"}],"stateMutability":"view"},{"type":"function","name":"grantRole","inputs":[{"name":"role","type":"bytes32","internalType":"bytes32"},{"name":"account","type":"address","internalType":"address"}],"outputs":[],"stateMutability":"nonpayable"},{"type":"function","name":"hasRole","inputs":[{"name":"role","type":"bytes32","internalType":"bytes32"},{"name":"account","type":"address","internalType":"address"}],"outputs":[{"name":"","type":"bool","internalType":"bool"}],"stateMutability":"view"},{"type":"function","name":"initialize","inputs":[{"name":"_owner","type":"address","internalType":"address"}],"outputs":[],"stateMutability":"nonpayable"},{"type":"function","name":"isComposeMsgSender","inputs":[{"name":"","type":"tuple","internalType":"struct Origin","components":[{"name":"srcEid","type":"uint32","internalType":"uint32"},{"name":"sender","type":"bytes32","internalType":"bytes32"},{"name":"nonce","type":"uint64","internalType":"uint64"}]},{"name":"","type":"bytes","internalType":"bytes"},{"name":"_sender","type":"address","internalType":"address"}],"outputs":[{"name":"","type":"bool","internalType":"bool"}],"stateMutability":"view"},{"type":"function","name":"isVaultSupported","inputs":[{"name":"vault","type":"address","internalType":"address"}],"outputs":[{"name":"","type":"bool","internalType":"bool"}],"stateMutability":"view"},{"type":"function","name":"lzCompose","inputs":[{"name":"_from","type":"address","internalType":"address"},{"name":"_guid","type":"bytes32","internalType":"bytes32"},{"name":"_message","type":"bytes","internalType":"bytes"},{"name":"","type":"address","internalType":"address"},{"name":"","type":"bytes","internalType":"bytes"}],"outputs":[],"stateMutability":"payable"},{"type":"function","name":"lzReceive","inputs":[{"name":"_origin","type":"tuple","internalType":"struct Origin","components":[{"name":"srcEid","type":"uint32","internalType":"uint32"},{"name":"sender","type":"bytes32","internalType":"bytes32"},{"name":"nonce","type":"uint64","internalType":"uint64"}]},{"name":"_guid","type":"bytes32","internalType":"bytes32"},{"name":"_message","type":"bytes","internalType":"bytes"},{"name":"_executor","type":"address","internalType":"address"},{"name":"_extraData","type":"bytes","internalType":"bytes"}],"outputs":[],"stateMutability":"payable"},{"type":"function","name":"manageBatch","inputs":[{"name":"calls","type":"tuple[]","internalType":"struct Call[]","components":[{"name":"target","type":"address","internalType":"address"},{"name":"data","type":"bytes","internalType":"bytes"},{"name":"value","type":"uint256","internalType":"uint256"}]}],"outputs":[],"stateMutability":"nonpayable"},{"type":"function","name":"manualRefund","inputs":[{"name":"depositId","type":"uint256","internalType":"uint256"}],"outputs":[],"stateMutability":"nonpayable"},{"type":"function","name":"nextNonce","inputs":[{"name":"","type":"uint32","internalType":"uint32"},{"name":"","type":"bytes32","internalType":"bytes32"}],"outputs":[{"name":"nonce","type":"uint64","internalType":"uint64"}],"stateMutability":"view"},{"type":"function","name":"oAppVersion","inputs":[],"outputs":[{"name":"senderVersion","type":"uint64","internalType":"uint64"},{"name":"receiverVersion","type":"uint64","internalType":"uint64"}],"stateMutability":"pure"},{"type":"function","name":"owner","inputs":[],"outputs":[{"name":"","type":"address","internalType":"address"}],"stateMutability":"view"},{"type":"function","name":"pause","inputs":[],"outputs":[],"stateMutability":"nonpayable"},{"type":"function","name":"paused","inputs":[],"outputs":[{"name":"","type":"bool","internalType":"bool"}],"stateMutability":"view"},{"type":"function","name":"peers","inputs":[{"name":"_eid","type":"uint32","internalType":"uint32"}],"outputs":[{"name":"","type":"bytes32","internalType":"bytes32"}],"stateMutability":"view"},{"type":"function","name":"processDeposit","inputs":[{"name":"depositId","type":"uint256","internalType":"uint256"},{"name":"vault","type":"address","internalType":"address"},{"name":"receiver","type":"address","internalType":"address"},{"name":"token","type":"address","internalType":"address"},{"name":"amount","type":"uint256","internalType":"uint256"},{"name":"zapCalls","type":"tuple[]","internalType":"struct Call[]","components":[{"name":"target","type":"address","internalType":"address"},{"name":"data","type":"bytes","internalType":"bytes"},{"name":"value","type":"uint256","internalType":"uint256"}]}],"outputs":[{"name":"shares","type":"uint256","internalType":"uint256"}],"stateMutability":"nonpayable"},{"type":"function","name":"proxiableUUID","inputs":[],"outputs":[{"name":"","type":"bytes32","internalType":"bytes32"}],"stateMutability":"view"},{"type":"function","name":"quoteRefundFee","inputs":[{"name":"depositId","type":"uint256","internalType":"uint256"}],"outputs":[{"name":"nativeFee","type":"uint256","internalType":"uint256"}],"stateMutability":"view"},{"type":"function","name":"removeOperator","inputs":[{"name":"operator","type":"address","internalType":"address"}],"outputs":[],"stateMutability":"nonpayable"},{"type":"function","name":"renounceOwnership","inputs":[],"outputs":[],"stateMutability":"nonpayable"},{"type":"function","name":"renounceRole","inputs":[{"name":"role","type":"bytes32","internalType":"bytes32"},{"name":"callerConfirmation","type":"address","internalType":"address"}],"outputs":[],"stateMutability":"nonpayable"},{"type":"function","name":"revokeRole","inputs":[{"name":"role","type":"bytes32","internalType":"bytes32"},{"name":"account","type":"address","internalType":"address"}],"outputs":[],"stateMutability":"nonpayable"},{"type":"function","name":"safeAttemptRefund","inputs":[{"name":"depositId","type":"uint256","internalType":"uint256"}],"outputs":[],"stateMutability":"nonpayable"},{"type":"function","name":"setDelegate","inputs":[{"name":"_delegate","type":"address","internalType":"address"}],"outputs":[],"stateMutability":"nonpayable"},{"type":"function","name":"setEnforcedOptions","inputs":[{"name":"_enforcedOptions","type":"tuple[]","internalType":"struct EnforcedOptionParam[]","components":[{"name":"eid","type":"uint32","internalType":"uint32"},{"name":"msgType","type":"uint16","internalType":"uint16"},{"name":"options","type":"bytes","internalType":"bytes"}]}],"outputs":[],"stateMutability":"nonpayable"},{"type":"function","name":"setOperator","inputs":[{"name":"operator","type":"address","internalType":"address"}],"outputs":[],"stateMutability":"nonpayable"},{"type":"function","name":"setPeer","inputs":[{"name":"_eid","type":"uint32","internalType":"uint32"},{"name":"_peer","type":"bytes32","internalType":"bytes32"}],"outputs":[],"stateMutability":"nonpayable"},{"type":"function","name":"setSupportedOFT","inputs":[{"name":"token","type":"address","internalType":"address"},{"name":"oft","type":"address","internalType":"address"},{"name":"isActive","type":"bool","internalType":"bool"}],"outputs":[],"stateMutability":"nonpayable"},{"type":"function","name":"setSupportedVault","inputs":[{"name":"vault","type":"address","internalType":"address"},{"name":"isActive","type":"bool","internalType":"bool"}],"outputs":[],"stateMutability":"nonpayable"},{"type":"function","name":"supportedOFTs","inputs":[{"name":"","type":"address","internalType":"address"}],"outputs":[{"name":"","type":"bool","internalType":"bool"}],"stateMutability":"view"},{"type":"function","name":"supportedVaults","inputs":[{"name":"","type":"address","internalType":"address"}],"outputs":[{"name":"","type":"bool","internalType":"bool"}],"stateMutability":"view"},{"type":"function","name":"supportsInterface","inputs":[{"name":"interfaceId","type":"bytes4","internalType":"bytes4"}],"outputs":[{"name":"","type":"bool","internalType":"bool"}],"stateMutability":"view"},{"type":"function","name":"tokenToOFT","inputs":[{"name":"","type":"address","internalType":"address"}],"outputs":[{"name":"","type":"address","internalType":"address"}],"stateMutability":"view"},{"type":"function","name":"totalDeposits","inputs":[],"outputs":[{"name":"","type":"uint256","internalType":"uint256"}],"stateMutability":"view"},{"type":"function","name":"transferOwnership","inputs":[{"name":"newOwner","type":"address","internalType":"address"}],"outputs":[],"stateMutability":"nonpayable"},{"type":"function","name":"unpause","inputs":[],"outputs":[],"stateMutability":"nonpayable"},{"type":"function","name":"upgradeToAndCall","inputs":[{"name":"newImplementation","type":"address","internalType":"address"},{"name":"data","type":"bytes","internalType":"bytes"}],"outputs":[],"stateMutability":"payable"},{"type":"function","name":"userDepositIds","inputs":[{"name":"","type":"address","internalType":"address"},{"name":"","type":"uint256","internalType":"uint256"}],"outputs":[{"name":"","type":"uint256","internalType":"uint256"}],"stateMutability":"view"},{"type":"event","name":"DepositFailed","inputs":[{"name":"depositId","type":"uint256","indexed":true,"internalType":"uint256"},{"name":"user","type":"address","indexed":true,"internalType":"address"},{"name":"reason","type":"bytes","indexed":false,"internalType":"bytes"}],"anonymous":false},{"type":"event","name":"DepositRecorded","inputs":[{"name":"depositId","type":"uint256","indexed":true,"internalType":"uint256"},{"name":"user","type":"address","indexed":true,"internalType":"address"},{"name":"vault","type":"address","indexed":true,"internalType":"address"},{"name":"amountIn","type":"uint256","indexed":false,"internalType":"uint256"},{"name":"srcEid","type":"uint32","indexed":false,"internalType":"uint32"}],"anonymous":false},{"type":"event","name":"DepositStatusUpdated","inputs":[{"name":"depositId","type":"uint256","indexed":true,"internalType":"uint256"},{"name":"oldStatus","type":"uint8","indexed":false,"internalType":"enum ICrosschainDepositAdapter.DepositStatus"},{"name":"newStatus","type":"uint8","indexed":false,"internalType":"enum ICrosschainDepositAdapter.DepositStatus"}],"anonymous":false},{"type":"event","name":"DepositSuccess","inputs":[{"name":"depositId","type":"uint256","indexed":true,"internalType":"uint256"},{"name":"user","type":"address","indexed":true,"internalType":"address"},{"name":"vault","type":"address","indexed":true,"internalType":"address"},{"name":"sharesReceived","type":"uint256","indexed":false,"internalType":"uint256"}],"anonymous":false},{"type":"event","name":"EmergencyRecovery","inputs":[{"name":"token","type":"address","indexed":true,"internalType":"address"},{"name":"to","type":"address","indexed":true,"internalType":"address"},{"name":"amount","type":"uint256","indexed":false,"internalType":"uint256"}],"anonymous":false},{"type":"event","name":"EnforcedOptionSet","inputs":[{"name":"_enforcedOptions","type":"tuple[]","indexed":false,"internalType":"struct EnforcedOptionParam[]","components":[{"name":"eid","type":"uint32","internalType":"uint32"},{"name":"msgType","type":"uint16","internalType":"uint16"},{"name":"options","type":"bytes","internalType":"bytes"}]}],"anonymous":false},{"type":"event","name":"Initialized","inputs":[{"name":"version","type":"uint64","indexed":false,"internalType":"uint64"}],"anonymous":false},{"type":"event","name":"OwnershipTransferred","inputs":[{"name":"previousOwner","type":"address","indexed":true,"internalType":"address"},{"name":"newOwner","type":"address","indexed":true,"internalType":"address"}],"anonymous":false},{"type":"event","name":"Paused","inputs":[{"name":"account","type":"address","indexed":false,"internalType":"address"}],"anonymous":false},{"type":"event","name":"PeerSet","inputs":[{"name":"eid","type":"uint32","indexed":false,"internalType":"uint32"},{"name":"peer","type":"bytes32","indexed":false,"internalType":"bytes32"}],"anonymous":false},{"type":"event","name":"RefundSent","inputs":[{"name":"depositId","type":"uint256","indexed":true,"internalType":"uint256"},{"name":"user","type":"address","indexed":true,"internalType":"address"},{"name":"amount","type":"uint256","indexed":false,"internalType":"uint256"},{"name":"dstEid","type":"uint32","indexed":false,"internalType":"uint32"}],"anonymous":false},{"type":"event","name":"RoleAdminChanged","inputs":[{"name":"role","type":"bytes32","indexed":true,"internalType":"bytes32"},{"name":"previousAdminRole","type":"bytes32","indexed":true,"internalType":"bytes32"},{"name":"newAdminRole","type":"bytes32","indexed":true,"internalType":"bytes32"}],"anonymous":false},{"type":"event","name":"RoleGranted","inputs":[{"name":"role","type":"bytes32","indexed":true,"internalType":"bytes32"},{"name":"account","type":"address","indexed":true,"internalType":"address"},{"name":"sender","type":"address","indexed":true,"internalType":"address"}],"anonymous":false},{"type":"event","name":"RoleRevoked","inputs":[{"name":"role","type":"bytes32","indexed":true,"internalType":"bytes32"},{"name":"account","type":"address","indexed":true,"internalType":"address"},{"name":"sender","type":"address","indexed":true,"internalType":"address"}],"anonymous":false},{"type":"event","name":"Unpaused","inputs":[{"name":"account","type":"address","indexed":false,"internalType":"address"}],"anonymous":false},{"type":"event","name":"Upgraded","inputs":[{"name":"implementation","type":"address","indexed":true,"internalType":"address"}],"anonymous":false},{"type":"event","name":"ZapExecuted","inputs":[{"name":"depositId","type":"uint256","indexed":true,"internalType":"uint256"},{"name":"numCalls","type":"uint256","indexed":false,"internalType":"uint256"},{"name":"amountOut","type":"uint256","indexed":false,"internalType":"uint256"}],"anonymous":false},{"type":"error","name":"AccessControlBadConfirmation","inputs":[]},{"type":"error","name":"AccessControlUnauthorizedAccount","inputs":[{"name":"account","type":"address","internalType":"address"},{"name":"neededRole","type":"bytes32","internalType":"bytes32"}]},{"type":"error","name":"AddressEmptyCode","inputs":[{"name":"target","type":"address","internalType":"address"}]},{"type":"error","name":"ERC1967InvalidImplementation","inputs":[{"name":"implementation","type":"address","internalType":"address"}]},{"type":"error","name":"ERC1967NonPayable","inputs":[]},{"type":"error","name":"EnforcedPause","inputs":[]},{"type":"error","name":"ExpectedPause","inputs":[]},{"type":"error","name":"FailedCall","inputs":[]},{"type":"error","name":"InsufficientBalance","inputs":[{"name":"balance","type":"uint256","internalType":"uint256"},{"name":"needed","type":"uint256","internalType":"uint256"}]},{"type":"error","name":"InvalidDelegate","inputs":[]},{"type":"error","name":"InvalidEndpointCall","inputs":[]},{"type":"error","name":"InvalidInitialization","inputs":[]},{"type":"error","name":"InvalidOptions","inputs":[{"name":"options","type":"bytes","internalType":"bytes"}]},{"type":"error","name":"LzTokenUnavailable","inputs":[]},{"type":"error","name":"NoPeer","inputs":[{"name":"eid","type":"uint32","internalType":"uint32"}]},{"type":"error","name":"NotEnoughNative","inputs":[{"name":"msgValue","type":"uint256","internalType":"uint256"}]},{"type":"error","name":"NotInitializing","inputs":[]},{"type":"error","name":"OnlyEndpoint","inputs":[{"name":"addr","type":"address","internalType":"address"}]},{"type":"error","name":"OnlyPeer","inputs":[{"name":"eid","type":"uint32","internalType":"uint32"},{"name":"sender","type":"bytes32","internalType":"bytes32"}]},{"type":"error","name":"OwnableInvalidOwner","inputs":[{"name":"owner","type":"address","internalType":"address"}]},{"type":"error","name":"OwnableUnauthorizedAccount","inputs":[{"name":"account","type":"address","internalType":"address"}]},{"type":"error","name":"ReentrancyGuardReentrantCall","inputs":[]},{"type":"error","name":"SafeERC20FailedOperation","inputs":[{"name":"token","type":"address","internalType":"address"}]},{"type":"error","name":"UUPSUnauthorizedCallContext","inputs":[]},{"type":"error","name":"UUPSUnsupportedProxiableUUID","inputs":[{"name":"slot","type":"bytes32","internalType":"bytes32"}]}],"bytecode":{"object":"0x60c03461013457601f6147c438819003918201601f19168301916001600160401b038311848410176101385780849260209460405283398101031261013457516001600160a01b03811690819003610134576080523060a0525f5160206147a45f395f51905f525460ff8160401c16610125576002600160401b03196001600160401b038216016100cf575b604051614657908161014d823960805181818161088501528181610ee80152818161103301528181611fd40152612710015260a0518181816120be01526121740152f35b6001600160401b0319166001600160401b039081175f5160206147a45f395f51905f52556040519081527fc7f505b2f371ae2175ee4913f4499e1f2633a7b5936321eed1cdaeb6115181d290602090a15f61008b565b63f92ee8a960e01b5f5260045ffd5b5f80fd5b634e487b7160e01b5f52604160045260245ffdfe608080604052600436101561001c575b50361561001a575f80fd5b005b5f3560e01c90816301ffc9a714612b0c5750806302d19adb1461297157806312d36fd31461287e57806313137d65146126a457806317442b701461268357806317536c061461265f578063240825cb146117d2578063248a9ca3146126285780632548af6c146125eb5780632f2ff15d146125a15780633400288b1461251957806336568abe146124bc5780633f4ba83a146123a65780634f1ef2861461213657806352d1902d146120a45780635535d461146120395780635c975abb14611ff85780635e280f1114611fb5578063715018a614611f445780637260522814611e775780637d25a05e14611e535780637d88209714611e3757806382413eac14611ddb5780638456cb5914611ceb5780638c75b1c714611ba55780638d916c2214611b7e5780638da5cb5b14611b4c57806391d1485414611af65780639b3fa75914611ad8578063a217fddf14611abe578063ac8a584a14611a36578063ad1329d114611937578063ad3cb1cc146118d8578063b297c99114611897578063b3ab15fb1461180f578063b71b73c3146117d2578063b7ac61921461172f578063b98bd0701461146e578063bb0b6a5314611450578063bc70b354146113eb578063c3667dee146112b9578063c4d66de814610f58578063ca5eb5e114610ebd578063cc69bcb014610e66578063d0a102601461080b578063d4e4487d1461078d578063d547741f1461073e578063d6236628146106e9578063db95e75c14610549578063e5b319a31461045d578063f0ed98001461033f578063f2fde38b14610316578063f5b541a6146102dc5763ff7bd03d1461027a575f61000f565b346102d85760603660031901126102d85760206102cc61029861302e565b63ffffffff165f527f72ab1bc1039b79dc4724ffca13de82c96834302d3c7e0d4252232d4b2dd8f90060205260405f205490565b60405190602435148152f35b5f80fd5b346102d8575f3660031901126102d85760206040517f97667070c54ef182b0f5858b034beac1b6f3089aa2d3188bb1e8929f4fa9b9298152f35b346102d85760203660031901126102d85761001a610332612c1f565b61033a6139b9565b613483565b346102d85760403660031901126102d85760243561035c8161342f565b905f91600435915f54925b83811080610454575b1561040e57805f52600160205260ff600660405f20015416600681101590816103ed5760028114918215610401575b82156103dc575b50506103bb575b6103b690613461565b610367565b936103d481866103ce6103b6948761346f565b52613461565b9490506103ad565b9091506103ed5760051486806103a6565b634e487b7160e01b5f52602160045260245ffd5b506003811491505f61039f565b82856104198161342f565b915f5b82811061043557604051806104318682612ed1565b0390f35b806104426001928461346f565b5161044d828761346f565b520161041c565b50818510610370565b346102d85760603660031901126102d857610476612c1f565b61047e612c35565b906044359081151582036102d8576001600160a01b039061049d6139b9565b1680151580610537575b156104f35761001a926001600160a01b03915f52600460205260405f208282166001600160a01b0319825416179055165f52600560205260405f209060ff801983541691151516179055565b606460405162461bcd60e51b815260206004820152600f60248201527f496e76616c6964206164647265737300000000000000000000000000000000006044820152fd5b506001600160a01b03831615156104a7565b346102d85760203660031901126102d857606061012060405161056b81612cca565b5f81525f60208201525f60408201525f838201525f60808201525f60a08201525f60c08201525f60e08201525f61010082015201526004355f52600160205260405f206040516105ba81612cca565b8154916001600160a01b038316825263ffffffff602083019360a01c1683526001600160a01b0360018201541690604083019182526002810154606084019081526001600160a01b0360038301541660808501908152600483015460a0860190815260058401549160c0870192835260ff6006860154169360e088019460068110156103ed578552600786015495610100890196875260080161065c90612e24565b966101208901978852604051998a9960208b52516001600160a01b031660208b01525163ffffffff1660408a0152516001600160a01b03166060890152516080880152516001600160a01b031660a08701525160c08601525160e08501525161010084016106c991612ec4565b516101208301525161014082016101409052610160820161043191612dc7565b346102d85760403660031901126102d857610702612c1f565b6001600160a01b0360243591165f52600260205260405f2080548210156102d85760209161072f91612f0a565b90549060031b1c604051908152f35b346102d85760403660031901126102d85761001a60043561075d612c35565b90610788610783825f525f51602061462b5f395f51905f52602052600160405f20015490565b613731565b613acf565b346102d85760203660031901126102d8576001600160a01b036107ae612c1f565b165f52600260205260405f206040519081602082549182815201915f5260205f20905f5b8181106107f557610431856107e981870382612d03565b60405191829182612ed1565b82548452602090930192600192830192016107d2565b60a03660031901126102d85761081f612c1f565b60443567ffffffffffffffff81116102d85761083f903690600401612bdb565b91610848612c4b565b5060843567ffffffffffffffff81116102d857610869903690600401612bdb565b5050610873614331565b61087b613518565b6001600160a01b037f0000000000000000000000000000000000000000000000000000000000000000163303610e225782600c116102d857600882013560e01c916004602c85106102d857600c820191602092359580604c116102d8576108eb913691604b190190604c01612d41565b948551860190838201916060888203126102d85761090a85890161341b565b9061091760408a0161341b565b9860608101519067ffffffffffffffff82116102d857019084603f830112156102d8578682015161094781613403565b956109556040519788612d03565b81875288808089019360051b86010101938185116102d85760408101925b858410610d6a575050505050506001600160a01b0316966001600160a01b0316955f54809686604051916109a683612cca565b8a83528183019085825260408401906001600160a01b03168152606084018781528d6080860190815260a08601915f835260c087019342855260e08801955f875261010089019760243589526040519a610a00828d612d03565b5f8c526101208b019b8c525f526001905260405f2098516001600160a01b03166001600160a01b031689546001600160a01b0319161789555188549060a01b77ffffffff000000000000000000000000000000000000000016907fffffffffffffffff00000000ffffffffffffffffffffffffffffffffffffffff16178855516001600160a01b031660018801906001600160a01b031681546001600160a01b031916179055516002870155516001600160a01b031660038601906001600160a01b031681546001600160a01b0319161790555189850155516005840155516006811015610d575790610af98392600660089501614384565b51600782015501905180519067ffffffffffffffff8211610d4457610b2882610b228554612dec565b85613298565b8790601f8311600114610ce157610b5692915f9183610cd6575b50508160011b915f199060031b1c19161790565b90555b865f526002855260405f2080549068010000000000000000821015610cc357877f05788213ec0b692616593828e39171c9debbfbfb5c606963b3750a14fd27cb6e610bf3610bfe979695610bb6868f97968f976001018155612f0a565b81549060031b9086821b915f19901b1916179055610bd45f54613461565b5f556040805188815263ffffffff909216602083015290918291820190565b0390a4868887613fd9565b90835f5260018352818160405f200155835f526001835260ff600660405f2001541690845f5260018452610c396001600660405f2001614384565b610c466040518093612ec4565b5090837f9d93915ed14aa5ee42cdad6a94e043c46a0272ca711f0dd244ffdb742aec166e6040846001877fca0cb2912e0c2e0af51b3ace43d0aace130290bb58b2a7d55f2894acdaf127a798970152a2604051908152a460017f9b779b17422d0df92223018b32b4d1fa46e071723d6817e2486d003becc55f0055005b604186634e487b7160e01b5f525260245ffd5b015190508c80610b42565b90601f19831691845f52895f20925f5b8b828210610d2e575050908460019594939210610d16575b505050811b019055610b59565b01515f1960f88460031b161c191690558b8080610d09565b6001859682939686015181550195019301610cf1565b604187634e487b7160e01b5f525260245ffd5b602188634e487b7160e01b5f525260245ffd5b835167ffffffffffffffff81116102d85782018b019060608287038d01601f1901126102d85760405190610d9d82612cae565b610da88d840161341b565b8252604083015167ffffffffffffffff81116102d8578d908401019185601f840112156102d85782518e9487610ddd83612d25565b96610deb6040519889612d03565b83885283870101116102d8578f95610e0c6060938897888085019101612da6565b8584015201516040820152815201930192610973565b606460405162461bcd60e51b815260206004820152600d60248201527f4f6e6c7920656e64706f696e74000000000000000000000000000000000000006044820152fd5b5f3660031901126102d8573415610e7957005b606460405162461bcd60e51b815260206004820152600d60248201527f4d7573742073656e6420455448000000000000000000000000000000000000006044820152fd5b346102d85760203660031901126102d857610ed6612c1f565b610ede6139b9565b6001600160a01b037f00000000000000000000000000000000000000000000000000000000000000001690813b156102d8576001600160a01b0360245f9283604051958694859363ca5eb5e160e01b85521660048401525af18015610f4d57610f4357005b5f61001a91612d03565b6040513d5f823e3d90fd5b346102d85760203660031901126102d857610f71612c1f565b7ff0c57e16840df040f15088dc2f81fe391c3923bec73e23a9662efc9c229c6a00549060ff8260401c16159167ffffffffffffffff8116801590816112b1575b60011490816112a7575b15908161129e575b506112765767ffffffffffffffff1981166001177ff0c57e16840df040f15088dc2f81fe391c3923bec73e23a9662efc9c229c6a005582611237575b506001600160a01b0381169081156111f3576110196145b3565b6110216145b3565b6110296145b3565b6001600160a01b037f00000000000000000000000000000000000000000000000000000000000000001691823b156102d8575f9260248492604051958693849263ca5eb5e160e01b845260048401525af1918215610f4d5761115f926111e3575b506110936145b3565b61109b6145b3565b6110a36145b3565b6110ab6145b3565b6110b481613483565b6110bc6145b3565b6110c46145b3565b60017f9b779b17422d0df92223018b32b4d1fa46e071723d6817e2486d003becc55f00556110f06145b3565b6110f86145b3565b60ff197fcd5ed15c6e187e77e9aee88184c21f4f2182ab5827cb3b7e07fbedcd63f0330054167fcd5ed15c6e187e77e9aee88184c21f4f2182ab5827cb3b7e07fbedcd63f03300556111486145b3565b6111506145b3565b61115981613868565b50613797565b5061116657005b68ff0000000000000000197ff0c57e16840df040f15088dc2f81fe391c3923bec73e23a9662efc9c229c6a0054167ff0c57e16840df040f15088dc2f81fe391c3923bec73e23a9662efc9c229c6a00557fc7f505b2f371ae2175ee4913f4499e1f2633a7b5936321eed1cdaeb6115181d2602060405160018152a1005b5f6111ed91612d03565b8361108a565b606460405162461bcd60e51b815260206004820152600d60248201527f496e76616c6964206f776e6572000000000000000000000000000000000000006044820152fd5b68ffffffffffffffffff191668010000000000000001177ff0c57e16840df040f15088dc2f81fe391c3923bec73e23a9662efc9c229c6a005582610fff565b7ff92ee8a9000000000000000000000000000000000000000000000000000000005f5260045ffd5b90501584610fc3565b303b159150610fbb565b849150610fb1565b346102d85760c03660031901126102d8576112d2612c35565b604435906001600160a01b03821682036102d8576112ee612c4b565b5060a43567ffffffffffffffff81116102d85761130f903690600401612baa565b61131d939193303314612f8e565b61132681613403565b936113346040519586612d03565b818552602085019160051b8101903682116102d85780925b82841061136e57602061136688608435888a600435613fd9565b604051908152f35b833567ffffffffffffffff81116102d85782016060813603126102d8576040519161139883612cae565b81356001600160a01b03811681036102d857835260208201359267ffffffffffffffff84116102d8576040602094936113d5869536908301612d77565b858401520135604082015281520193019261134c565b346102d85760603660031901126102d857611404612c9b565b61140c612d95565b6044359067ffffffffffffffff82116102d8576104319261143461143c933690600401612bdb565b929091613307565b604051918291602083526020830190612dc7565b346102d85760203660031901126102d8576020611366610298612c9b565b346102d85760203660031901126102d85760043567ffffffffffffffff81116102d85761149f903690600401612baa565b906114a86139b9565b5f5b8281106115a757506040519082602083016020845252604082019260408160051b84010193825f90605e19813603015b848310611509577fbe4864a8e820971c0247f5992e2da559595f7bf076a21cb5928d443d2a13b67487890388a1005b909192939496603f198782030185528735828112156102d8578301803563ffffffff81168091036102d8578252602081013561ffff81168091036102d85760208301526040810135601e19823603018112156102d857016020813591019067ffffffffffffffff81116102d85780360382136102d8576115996020928392606086816040600199015201916132e7565b9901969501930191906114da565b916115c96115c36115b9858486612fd9565b6040810190612ffb565b90613f9c565b6115d76115b9848385612fd9565b6115e5858486979497612fd9565b3563ffffffff8116908181036102d857505f527f8d2bda5d9f6ffb5796910376005392955773acee5548d0fcdb10e7c264ea000060205260405f20602061162d848688612fd9565b013561ffff811681036102d85761ffff165f5260205260405f209067ffffffffffffffff811161171b5761166b816116658454612dec565b84613298565b5f95601f82116001146116b4579080600195969761169d935f926116a95750508160011b915f199060031b1c19161790565b90555b019190916114aa565b013590508880610b42565b601f19821696835f5260205f20975f5b81811061170357509160019697989184889594106116ea575b505050811b0190556116a0565b01355f19600384901b60f8161c191690558780806116dd565b91986020600181928c8701358155019a0192016116c4565b634e487b7160e01b5f52604160045260245ffd5b346102d85760403660031901126102d857611748612c1f565b6024359081151582036102d8576001600160a01b03906117666139b9565b1690811561178e5761001a915f52600360205260405f209060ff801983541691151516179055565b606460405162461bcd60e51b815260206004820152600d60248201527f496e76616c6964207661756c74000000000000000000000000000000000000006044820152fd5b346102d85760203660031901126102d8576001600160a01b036117f3612c1f565b165f526003602052602060ff60405f2054166040519015158152f35b346102d85760203660031901126102d85761001a61182b612c1f565b6118336139b9565b7f97667070c54ef182b0f5858b034beac1b6f3089aa2d3188bb1e8929f4fa9b9295f525f51602061462b5f395f51905f526020527f448256db8f8fb95ee3eaaf89c1051414494e85cebb6057fcf996cc3d0ccfb4575461189290613731565b613797565b346102d85760203660031901126102d8576001600160a01b036118b8612c1f565b165f52600460205260206001600160a01b0360405f205416604051908152f35b346102d8575f3660031901126102d8576104316040516118f9604082612d03565b600581527f352e302e300000000000000000000000000000000000000000000000000000006020820152604051918291602083526020830190612dc7565b346102d85761194536612c61565b61194d6139b9565b6001600160a01b0382169283156119f2576001600160a01b031691826119be57505f818481156119b4575b5f92839283928392f115610f4d5760207f1ac506e936e7f02f4036dbe44708f5e8d72af9ace8745a29fd391481a8fbcb87915b604051908152a3005b6108fc9250611978565b816119ed7f1ac506e936e7f02f4036dbe44708f5e8d72af9ace8745a29fd391481a8fbcb879360209386613f42565b6119ab565b606460405162461bcd60e51b815260206004820152601160248201527f496e76616c696420726563697069656e740000000000000000000000000000006044820152fd5b346102d85760203660031901126102d85761001a611a52612c1f565b611a5a6139b9565b7f97667070c54ef182b0f5858b034beac1b6f3089aa2d3188bb1e8929f4fa9b9295f525f51602061462b5f395f51905f526020527f448256db8f8fb95ee3eaaf89c1051414494e85cebb6057fcf996cc3d0ccfb45754611ab990613731565b613a05565b346102d8575f3660031901126102d85760206040515f8152f35b346102d85760203660031901126102d8576020611366600435613132565b346102d85760403660031901126102d857611b0f612c35565b6004355f525f51602061462b5f395f51905f526020526001600160a01b0360405f2091165f52602052602060ff60405f2054166040519015158152f35b346102d8575f3660031901126102d85760206001600160a01b035f51602061460b5f395f51905f525416604051908152f35b346102d85760203660031901126102d857611b9a303314612f8e565b61001a600435613b6c565b346102d85760203660031901126102d8576004356001600160a01b035f51602061460b5f395f51905f52541633148015611cb4575b611be390612f33565b611beb613518565b805f52600160205260ff600660405f20015416600681101590816103ed5760028114918215611ca7575b8215611c96575b505015611c5257611c2c90613b6c565b60017f9b779b17422d0df92223018b32b4d1fa46e071723d6817e2486d003becc55f0055005b606460405162461bcd60e51b815260206004820152601760248201527f4e6f7420656c696769626c6520666f7220726566756e640000000000000000006044820152fd5b9091506103ed576005148280611c1c565b506003811491505f611c15565b50335f9081527f448256db8f8fb95ee3eaaf89c1051414494e85cebb6057fcf996cc3d0ccfb456602052604090205460ff16611bda565b346102d8575f3660031901126102d8576001600160a01b035f51602061460b5f395f51905f52541633148015611da4575b611d2590612f33565b611d2d614331565b600160ff197fcd5ed15c6e187e77e9aee88184c21f4f2182ab5827cb3b7e07fbedcd63f033005416177fcd5ed15c6e187e77e9aee88184c21f4f2182ab5827cb3b7e07fbedcd63f03300557f62e78cea01bee320cd4e420270b5ea74000d11b0c9f74754ebdbfc544b05a2586020604051338152a1005b50335f9081527f448256db8f8fb95ee3eaaf89c1051414494e85cebb6057fcf996cc3d0ccfb456602052604090205460ff16611d1c565b346102d857366003190160a081126102d8576060136102d85760643567ffffffffffffffff81116102d857611e14903690600401612bdb565b50506084356001600160a01b0381168091036102d8576020906040519030148152f35b346102d8575f3660031901126102d85760205f54604051908152f35b346102d85760403660031901126102d857611e6c612c9b565b5060206040515f8152f35b346102d85760203660031901126102d8576004355f52600160205263ffffffff60405f206104318154916001600160a01b0360018201541690611f2a60028201546001600160a01b03600384015416600484015460058501549160ff60068701541693611eeb600860078901549801612e24565b976040519b8b6001600160a01b038e9d168d5260a01c1660208c015260408b015260608a0152608089015260a088015260c087015260e0860190612ec4565b610100840152610140610120840152610140830190612dc7565b346102d8575f3660031901126102d857611f5c6139b9565b5f6001600160a01b035f51602061460b5f395f51905f52546001600160a01b031981165f51602061460b5f395f51905f5255167f8be0079c531659141344cd1fd0a4f28419497f9722a3daafe3b4186f6b6457e08280a3005b346102d8575f3660031901126102d85760206040516001600160a01b037f0000000000000000000000000000000000000000000000000000000000000000168152f35b346102d8575f3660031901126102d857602060ff7fcd5ed15c6e187e77e9aee88184c21f4f2182ab5827cb3b7e07fbedcd63f0330054166040519015158152f35b346102d85760403660031901126102d857612052612c9b565b63ffffffff61205f612d95565b91165f527f8d2bda5d9f6ffb5796910376005392955773acee5548d0fcdb10e7c264ea000060205261ffff60405f2091165f5260205261043161143c60405f20612e24565b346102d8575f3660031901126102d8576001600160a01b037f000000000000000000000000000000000000000000000000000000000000000016300361210e5760206040517f360894a13ba1a3210667c828492db98dca3e2076cc3735a920a3ca505d382bbc8152f35b7fe07c8dba000000000000000000000000000000000000000000000000000000005f5260045ffd5b60403660031901126102d85761214a612c1f565b60243567ffffffffffffffff81116102d85761216a903690600401612d77565b6001600160a01b037f000000000000000000000000000000000000000000000000000000000000000016803014908115612371575b5061210e576121ac6139b9565b6001600160a01b038216916040517f52d1902d000000000000000000000000000000000000000000000000000000008152602081600481875afa5f918161233d575b506122065783634c9c8ce360e01b5f5260045260245ffd5b807f360894a13ba1a3210667c828492db98dca3e2076cc3735a920a3ca505d382bbc8592036123125750813b1561230057806001600160a01b03197f360894a13ba1a3210667c828492db98dca3e2076cc3735a920a3ca505d382bbc5416177f360894a13ba1a3210667c828492db98dca3e2076cc3735a920a3ca505d382bbc557fbc7cd75a20ee27fd9adebab32041f755214dbc6bffa90cc0225b39da2e5c2d3b5f80a28151156122cf575f8083602061001a95519101845af46122c961358f565b916143f9565b5050346122d857005b7fb398979f000000000000000000000000000000000000000000000000000000005f5260045ffd5b634c9c8ce360e01b5f5260045260245ffd5b7faa1d49a4000000000000000000000000000000000000000000000000000000005f5260045260245ffd5b9091506020813d602011612369575b8161235960209383612d03565b810103126102d8575190856121ee565b3d915061234c565b90506001600160a01b037f360894a13ba1a3210667c828492db98dca3e2076cc3735a920a3ca505d382bbc541614158361219f565b346102d8575f3660031901126102d8576001600160a01b035f51602061460b5f395f51905f52541633148015612485575b6123e090612f33565b7fcd5ed15c6e187e77e9aee88184c21f4f2182ab5827cb3b7e07fbedcd63f033005460ff81161561245d5760ff19167fcd5ed15c6e187e77e9aee88184c21f4f2182ab5827cb3b7e07fbedcd63f03300557f5db9ee0a495bf2e6ff9c91a7834c1ba4fdd244a5e8aa4e537bd38aeae4b073aa6020604051338152a1005b7f8dfc202b000000000000000000000000000000000000000000000000000000005f5260045ffd5b50335f9081527f448256db8f8fb95ee3eaaf89c1051414494e85cebb6057fcf996cc3d0ccfb456602052604090205460ff166123d7565b346102d85760403660031901126102d8576124d5612c35565b336001600160a01b038216036124f15761001a90600435613acf565b7f6697b232000000000000000000000000000000000000000000000000000000005f5260045ffd5b346102d85760403660031901126102d8577f238399d427b947898edb290f5ff0f9109849b1c3ba196a42e35f00c50a54b98b6040612555612c9b565b63ffffffff602435916125666139b9565b1690815f527f72ab1bc1039b79dc4724ffca13de82c96834302d3c7e0d4252232d4b2dd8f90060205280835f205582519182526020820152a1005b346102d85760403660031901126102d85761001a6004356125c0612c35565b906125e6610783825f525f51602061462b5f395f51905f52602052600160405f20015490565b613912565b346102d85760203660031901126102d8576001600160a01b0361260c612c1f565b165f526005602052602060ff60405f2054166040519015158152f35b346102d85760203660031901126102d85760206113666004355f525f51602061462b5f395f51905f52602052600160405f20015490565b346102d857602061136661267236612c61565b9161267e303314612f8e565b6135be565b346102d8575f3660031901126102d857604080516001815260026020820152f35b366003190160e081126102d8576060136102d85760843567ffffffffffffffff81116102d8576126d8903690600401612bdb565b50506126e2612c09565b5060c43567ffffffffffffffff81116102d857612703903690600401612bdb565b5050336001600160a01b037f000000000000000000000000000000000000000000000000000000000000000016036128525763ffffffff61274261302e565b16805f527f72ab1bc1039b79dc4724ffca13de82c96834302d3c7e0d4252232d4b2dd8f90060205260405f205490811561282757506024358091036127eb57608460405162461bcd60e51b815260206004820152602260248201527f446f6573206e6f742072656365697665207374616e64617264206d657373616760448201527f65730000000000000000000000000000000000000000000000000000000000006064820152fd5b63ffffffff6127f861302e565b7fc26bebcc000000000000000000000000000000000000000000000000000000005f521660045260245260445ffd5b7ff6ff4fb7000000000000000000000000000000000000000000000000000000005f5260045260245ffd5b7f91ac5e4f000000000000000000000000000000000000000000000000000000005f523360045260245ffd5b346102d85760203660031901126102d85760043567ffffffffffffffff81116102d8576128af903690600401612baa565b906128bb303314612f8e565b5f5b8281106128c657005b6128d1818484612fd9565b356001600160a01b03811681036102d8576129166128fd6128f3848787612fd9565b6020810190612ffb565b9190604061290c868989612fd9565b0135923691612d41565b9080471061294257915f808360019695602061293b9651920190855af16122c961358f565b50016128bd565b477fcf479181000000000000000000000000000000000000000000000000000000005f5260045260245260445ffd5b346102d85760203660031901126102d85760043567ffffffffffffffff81116102d8576129a2903690600401612baa565b6001600160a01b035f51602061460b5f395f51905f52541633148015612ad5575b6129cc90612f33565b6129d4613518565b5f5b818110612a035760017f9b779b17422d0df92223018b32b4d1fa46e071723d6817e2486d003becc55f0055005b612a0e818385612f7e565b355f52600160205260ff600660405f20015416600681101590816103ed5760028114918215612ac8575b8215612ab7575b5050612a4e575b6001016129d6565b612a59818385612f7e565b3590303b156102d857600191604051907f8d916c2200000000000000000000000000000000000000000000000000000000825260048201525f8160248183305af1612aa7575b509050612a46565b5f612ab191612d03565b84612a9f565b9091506103ed576005148480612a3f565b506003811491505f612a38565b50335f9081527f448256db8f8fb95ee3eaaf89c1051414494e85cebb6057fcf996cc3d0ccfb456602052604090205460ff166129c3565b346102d85760203660031901126102d857600435907fffffffff0000000000000000000000000000000000000000000000000000000082168092036102d857817f7965db0b0000000000000000000000000000000000000000000000000000000060209314908115612b80575b5015158152f35b7f01ffc9a70000000000000000000000000000000000000000000000000000000091501483612b79565b9181601f840112156102d85782359167ffffffffffffffff83116102d8576020808501948460051b0101116102d857565b9181601f840112156102d85782359167ffffffffffffffff83116102d857602083818601950101116102d857565b60a435906001600160a01b03821682036102d857565b600435906001600160a01b03821682036102d857565b602435906001600160a01b03821682036102d857565b606435906001600160a01b03821682036102d857565b60609060031901126102d8576004356001600160a01b03811681036102d857906024356001600160a01b03811681036102d8579060443590565b6004359063ffffffff821682036102d857565b6060810190811067ffffffffffffffff82111761171b57604052565b610140810190811067ffffffffffffffff82111761171b57604052565b60e0810190811067ffffffffffffffff82111761171b57604052565b90601f8019910116810190811067ffffffffffffffff82111761171b57604052565b67ffffffffffffffff811161171b57601f01601f191660200190565b929192612d4d82612d25565b91612d5b6040519384612d03565b8294818452818301116102d8578281602093845f960137010152565b9080601f830112156102d857816020612d9293359101612d41565b90565b6024359061ffff821682036102d857565b5f5b838110612db75750505f910152565b8181015183820152602001612da8565b90602091612de081518092818552858086019101612da6565b601f01601f1916010190565b90600182811c92168015612e1a575b6020831014612e0657565b634e487b7160e01b5f52602260045260245ffd5b91607f1691612dfb565b9060405191825f825492612e3784612dec565b8084529360018116908115612ea25750600114612e5e575b50612e5c92500383612d03565b565b90505f9291925260205f20905f915b818310612e86575050906020612e5c928201015f612e4f565b6020919350806001915483858901015201910190918492612e6d565b905060209250612e5c94915060ff191682840152151560051b8201015f612e4f565b9060068210156103ed5752565b60206040818301928281528451809452019201905f5b818110612ef45750505090565b8251845260209384019390920191600101612ee7565b8054821015612f1f575f5260205f2001905f90565b634e487b7160e01b5f52603260045260245ffd5b15612f3a57565b606460405162461bcd60e51b815260206004820152601560248201527f4e6f74206f776e6572206f72206f70657261746f7200000000000000000000006044820152fd5b9190811015612f1f5760051b0190565b15612f9557565b606460405162461bcd60e51b815260206004820152600960248201527f4f6e6c792073656c6600000000000000000000000000000000000000000000006044820152fd5b9190811015612f1f5760051b81013590605e19813603018212156102d8570190565b903590601e19813603018212156102d8570180359067ffffffffffffffff82116102d8576020019181360383136102d857565b60043563ffffffff811681036102d85790565b1561304857565b606460405162461bcd60e51b815260206004820152600d60248201527f4f4654206e6f7420666f756e64000000000000000000000000000000000000006044820152fd5b91908260409103126102d8576040516040810181811067ffffffffffffffff82111761171b576040526020808294805184520151910152565b612d929163ffffffff825116815260208201516020820152604082015160408201526060820151606082015260c061312161310f608085015160e0608086015260e0850190612dc7565b60a085015184820360a0860152612dc7565b9201519060c0818403910152612dc7565b5f52600160205260405f2080549063ffffffff8260a01c168015613291576001600160a01b036001830154165f52600460205260026001600160a01b0360405f20541692613181841515613041565b0154916126ac8302938385046126ac148415171561327d5761322a946040946001600160a01b03612710938751966131b888612ce7565b87521660208601528585015204606083015282516131d7602082612d03565b5f8152608083015282516131ec602082612d03565b5f815260a08301528251613201602082612d03565b5f815260c083015282518080958194633b6f743b60e01b835286600484015260448301906130c5565b5f602483015203915afa908115610f4d575f9161324657505190565b905060403d604011613276575b61325d8183612d03565b81016040828203126102d8576132729161308c565b5190565b503d613253565b634e487b7160e01b5f52601160045260245ffd5b5050505f90565b601f82116132a557505050565b5f5260205f20906020601f840160051c830193106132dd575b601f0160051c01905b8181106132d2575050565b5f81556001016132c7565b90915081906132be565b908060209392818452848401375f828201840152601f01601f1916010190565b63ffffffff90949294165f527f8d2bda5d9f6ffb5796910376005392955773acee5548d0fcdb10e7c264ea000060205261ffff60405f2091165f5260205261335160405f20612e24565b8051156133f65782156133f057600283101561339157505061338d604051928392639a6d49cd60e01b84526020600485015260248401916132e7565b0390fd5b91909261339e8282613f9c565b816002116102d857612d9291602091604051946133c38151809286808a019101612da6565b8501906001198301906002018483013701015f60011982015282600119910301601f198101835282612d03565b92509050565b5091612d92913691612d41565b67ffffffffffffffff811161171b5760051b60200190565b51906001600160a01b03821682036102d857565b9061343982613403565b6134466040519182612d03565b8281528092613457601f1991613403565b0190602036910137565b5f19811461327d5760010190565b8051821015612f1f5760209160051b010190565b6001600160a01b031680156134ec576001600160a01b035f51602061460b5f395f51905f5254826001600160a01b03198216175f51602061460b5f395f51905f5255167f8be0079c531659141344cd1fd0a4f28419497f9722a3daafe3b4186f6b6457e05f80a3565b7f1e4fbdf7000000000000000000000000000000000000000000000000000000005f525f60045260245ffd5b60027f9b779b17422d0df92223018b32b4d1fa46e071723d6817e2486d003becc55f0054146135675760027f9b779b17422d0df92223018b32b4d1fa46e071723d6817e2486d003becc55f0055565b7f3ee5aeb5000000000000000000000000000000000000000000000000000000005f5260045ffd5b3d156135b9573d906135a082612d25565b916135ae6040519384612d03565b82523d5f602084013e565b606090565b929190926001600160a01b038116906040516338d52e0f60e01b8152602081600481865afa908115610f4d575f916136d6575b50925f6001600160a01b03969361360f836044958a60209916614485565b60405197889586947f6e553f6500000000000000000000000000000000000000000000000000000000865260048601521660248401525af1918215610f4d575f926136a2575b50811561365e57565b606460405162461bcd60e51b815260206004820152601960248201527f4465706f736974206661696c65643a206e6f20736861726573000000000000006044820152fd5b9091506020813d6020116136ce575b816136be60209383612d03565b810103126102d85751905f613655565b3d91506136b1565b95929390506020863d602011613729575b816136f460209383612d03565b810103126102d8575f60209461360f836044956001600160a01b03613719819c61341b565b96505095509650509396506135f1565b3d91506136e7565b805f525f51602061462b5f395f51905f5260205260405f206001600160a01b0333165f5260205260ff60405f205416156137685750565b7fe2517d3f000000000000000000000000000000000000000000000000000000005f523360045260245260445ffd5b6001600160a01b0381165f9081527f448256db8f8fb95ee3eaaf89c1051414494e85cebb6057fcf996cc3d0ccfb456602052604090205460ff16613863576001600160a01b03165f8181527f448256db8f8fb95ee3eaaf89c1051414494e85cebb6057fcf996cc3d0ccfb45660205260408120805460ff191660011790553391907f97667070c54ef182b0f5858b034beac1b6f3089aa2d3188bb1e8929f4fa9b929907f2f8788117e7eff1d82e926ec794901d17c78024a50270940304540a733656f0d9080a4600190565b505f90565b6001600160a01b0381165f9081527fb7db2dd08fcb62d0c9e08c51941cae53c267786a0b75803fb7960902fc8ef97d602052604090205460ff16613863576001600160a01b03165f8181527fb7db2dd08fcb62d0c9e08c51941cae53c267786a0b75803fb7960902fc8ef97d60205260408120805460ff191660011790553391907f2f8788117e7eff1d82e926ec794901d17c78024a50270940304540a733656f0d8180a4600190565b805f525f51602061462b5f395f51905f5260205260405f206001600160a01b0383165f5260205260ff60405f205416155f146139b357805f525f51602061462b5f395f51905f5260205260405f206001600160a01b0383165f5260205260405f20600160ff198254161790556001600160a01b03339216907f2f8788117e7eff1d82e926ec794901d17c78024a50270940304540a733656f0d5f80a4600190565b50505f90565b6001600160a01b035f51602061460b5f395f51905f52541633036139d957565b7f118cdaa7000000000000000000000000000000000000000000000000000000005f523360045260245ffd5b6001600160a01b0381165f9081527f448256db8f8fb95ee3eaaf89c1051414494e85cebb6057fcf996cc3d0ccfb456602052604090205460ff1615613863576001600160a01b03165f8181527f448256db8f8fb95ee3eaaf89c1051414494e85cebb6057fcf996cc3d0ccfb45660205260408120805460ff191690553391907f97667070c54ef182b0f5858b034beac1b6f3089aa2d3188bb1e8929f4fa9b929907ff6391f5c32d9c69d2a47ea670b442974b53935d1edc7fd64eb21e047a839171b9080a4600190565b805f525f51602061462b5f395f51905f5260205260405f206001600160a01b0383165f5260205260ff60405f2054165f146139b357805f525f51602061462b5f395f51905f5260205260405f206001600160a01b0383165f5260205260405f2060ff1981541690556001600160a01b03339216907ff6391f5c32d9c69d2a47ea670b442974b53935d1edc7fd64eb21e047a839171b5f80a4600190565b805f52600160205260405f2063ffffffff815460a01c1615613ede576001600160a01b0360018201541690815f5260046020526001600160a01b0360405f20541690613bb9821515613041565b80549260028201928354946126ac86028681046126ac148715171561327d57612710906001600160a01b0360405193613bf185612ce7565b63ffffffff8160a01c168552166020840152876040840152046060820152602095604051613c1f8882612d03565b5f81526080830152604051613c348882612d03565b5f815260a0830152604051613c498882612d03565b5f815260c083015260405193633b6f743b60e01b85526040600486015260408580613c7760448201876130c5565b5f60248301520381875afa948515610f4d575f95613ea3575b5047855111613e5f578792613cac859360c096613ced94614485565b855190604051968795869485937fc7c7f5b30000000000000000000000000000000000000000000000000000000085526080600486015260848501906130c5565b91805160248501520151604483015230606483015203925af19081613ddf575b50613d79575050815f526001815260ff600660405f2001541690825f5260018152613d3f6005600660405f2001614384565b613d4c6040518093612ec4565b8160056040927f9d93915ed14aa5ee42cdad6a94e043c46a0272ca711f0dd244ffdb742aec166e940152a2565b839250613dda90613dab7f1106cc1287edd0e75f58cce467245b502d6d32a6d3c75965a7e9b89a889fad05939561439c565b5493546040805191825260a086901c63ffffffff1660208301526001600160a01b039095169490918291820190565b0390a3565b60c03d60c011613e58575b613df48183612d03565b810181810360c081126102d8576080136102d85760405191613e1583612cae565b80518352868101519067ffffffffffffffff821682036102d8578360809289613e519601526040613e488582850161308c565b9101520161308c565b505f613d0d565b503d613dea565b6064886040519062461bcd60e51b82526004820152601b60248201527f496e73756666696369656e742045544820666f7220726566756e6400000000006044820152fd5b90945060403d604011613ed7575b613ebb8183612d03565b81016040828203126102d857613ed09161308c565b935f613c90565b503d613eb1565b90613ee88161439c565b7f1106cc1287edd0e75f58cce467245b502d6d32a6d3c75965a7e9b89a889fad0560406001600160a01b038060018601541694613f3082825416966002830197885491613f42565b5416935481519081525f6020820152a3565b6040517fa9059cbb0000000000000000000000000000000000000000000000000000000060208201526001600160a01b03929092166024830152604480830193909352918152612e5c91613f97606483612d03565b614546565b90806002116102d8576003823560f01c03613fb5575050565b61338d604051928392639a6d49cd60e01b84526020600485015260248401916132e7565b84515f94901561432457506040516338d52e0f60e01b81526001600160a01b038316602082600481845afa918215610f4d575f926142df575b5060206001600160a01b03926024604051809581936370a0823160e01b8352306004840152165afa918215610f4d575f926142ab575b50803b156102d8576040517f12d36fd300000000000000000000000000000000000000000000000000000000815260248101602060048301528851809152816044810160448360051b8301019260208c01915f905b8282106142585750505050805f92038183865af18015610f4d57614242575b506020600491604051928380926338d52e0f60e01b82525afa9081156141ee5786916141f9575b5060206001600160a01b03916024604051809481936370a0823160e01b8352306004840152165afa9081156141ee5786916141bc575b50818103958187116141a8575014614164577fba4c6c9488e6d90701664a57f312029534dbfb8d5a53b93cbd44a8d957bad3166040612d9296518151908152866020820152a26135be565b606460405162461bcd60e51b815260206004820152601660248201527f5a61702070726f6475636564206e6f206f7574707574000000000000000000006044820152fd5b80634e487b7160e01b602492526011600452fd5b90506020813d6020116141e6575b816141d760209383612d03565b810103126102d857515f614119565b3d91506141ca565b6040513d88823e3d90fd5b90506020813d60201161423a575b8161421460209383612d03565b8101031261423657602061422f6001600160a01b039261341b565b91506140e3565b8580fd5b3d9150614207565b61424f9196505f90612d03565b5f9460206140bc565b91935091936020806001926043198982030185528751906001600160a01b038251168152604080614296858501516060878601526060850190612dc7565b9301519101529601920192018593919261409d565b9091506020813d6020116142d7575b816142c760209383612d03565b810103126102d85751905f614048565b3d91506142ba565b91506020823d60201161431c575b816142fa60209383612d03565b810103126102d85760206143156001600160a01b039361341b565b9250614012565b3d91506142ed565b935050612d9293506135be565b60ff7fcd5ed15c6e187e77e9aee88184c21f4f2182ab5827cb3b7e07fbedcd63f03300541661435c57565b7fd93c0665000000000000000000000000000000000000000000000000000000005f5260045ffd5b9060068110156103ed5760ff80198354169116179055565b5f818152600160205260409020600601805460ff16906143be90600490614384565b6143cb6040518092612ec4565b604081600460207f9d93915ed14aa5ee42cdad6a94e043c46a0272ca711f0dd244ffdb742aec166e940152a2565b90614436575080511561440e57805190602001fd5b7fd6bda275000000000000000000000000000000000000000000000000000000005f5260045ffd5b8151158061447c575b614447575090565b6001600160a01b03907f9996b315000000000000000000000000000000000000000000000000000000005f521660045260245ffd5b50803b1561443f565b60405163095ea7b360e01b60208083019182526001600160a01b0385166024840152604480840196909652948252929390925f906144c4606486612d03565b84519082855af15f513d82614521575b5050156144e057505050565b613f97612e5c936001600160a01b036040519163095ea7b360e01b60208401521660248201525f60448201526044815261451b606482612d03565b82614546565b90915061453e57506001600160a01b0381163b15155b5f806144d4565b600114614537565b905f602091828151910182855af115610f4d575f513d6145aa57506001600160a01b0381163b155b6145755750565b6001600160a01b03907f5274afe7000000000000000000000000000000000000000000000000000000005f521660045260245ffd5b6001141561456e565b60ff7ff0c57e16840df040f15088dc2f81fe391c3923bec73e23a9662efc9c229c6a005460401c16156145e257565b7fd7e6bcf8000000000000000000000000000000000000000000000000000000005f5260045ffdfe9016d09d72d40fdae2fd8ceac6b6234c7706214fd39c1cd1e609a0528c19930002dd7bc7dec4dceedda775e58dd541e08a116c6c53815c0bd028192f7b626800a164736f6c634300081c000af0c57e16840df040f15088dc2f81fe391c3923bec73e23a9662efc9c229c6a00","linkReferences":{}},"methodIdentifiers":{"DEFAULT_ADMIN_ROLE()":"a217fddf","OPERATOR_ROLE()":"f5b541a6","UPGRADE_INTERFACE_VERSION()":"ad3cb1cc","allowInitializePath((uint32,bytes32,uint64))":"ff7bd03d","batchManualRefund(uint256[])":"02d19adb","combineOptions(uint32,uint16,bytes)":"bc70b354","depositRecords(uint256)":"72605228","depositRefundGas()":"cc69bcb0","depositToVault(address,address,uint256)":"17536c06","emergencyRecover(address,address,uint256)":"ad1329d1","endpoint()":"5e280f11","enforcedOptions(uint32,uint16)":"5535d461","getDepositRecord(uint256)":"db95e75c","getFailedDeposits(uint256,uint256)":"f0ed9800","getRoleAdmin(bytes32)":"248a9ca3","getUserDepositIds(address)":"d4e4487d","grantRole(bytes32,address)":"2f2ff15d","hasRole(bytes32,address)":"91d14854","initialize(address)":"c4d66de8","isComposeMsgSender((uint32,bytes32,uint64),bytes,address)":"82413eac","isVaultSupported(address)":"240825cb","lzCompose(address,bytes32,bytes,address,bytes)":"d0a10260","lzReceive((uint32,bytes32,uint64),bytes32,bytes,address,bytes)":"13137d65","manageBatch((address,bytes,uint256)[])":"12d36fd3","manualRefund(uint256)":"8c75b1c7","nextNonce(uint32,bytes32)":"7d25a05e","oAppVersion()":"17442b70","owner()":"8da5cb5b","pause()":"8456cb59","paused()":"5c975abb","peers(uint32)":"bb0b6a53","processDeposit(uint256,address,address,address,uint256,(address,bytes,uint256)[])":"c3667dee","proxiableUUID()":"52d1902d","quoteRefundFee(uint256)":"9b3fa759","removeOperator(address)":"ac8a584a","renounceOwnership()":"715018a6","renounceRole(bytes32,address)":"36568abe","revokeRole(bytes32,address)":"d547741f","safeAttemptRefund(uint256)":"8d916c22","setDelegate(address)":"ca5eb5e1","setEnforcedOptions((uint32,uint16,bytes)[])":"b98bd070","setOperator(address)":"b3ab15fb","setPeer(uint32,bytes32)":"3400288b","setSupportedOFT(address,address,bool)":"e5b319a3","setSupportedVault(address,bool)":"b7ac6192","supportedOFTs(address)":"2548af6c","supportedVaults(address)":"b71b73c3","supportsInterface(bytes4)":"01ffc9a7","tokenToOFT(address)":"b297c991","totalDeposits()":"7d882097","transferOwnership(address)":"f2fde38b","unpause()":"3f4ba83a","upgradeToAndCall(address,bytes)":"4f1ef286","userDepositIds(address,uint256)":"d6236628"},"storageLayout":{"storage":[{"astId":59177,"contract":"src/adapters/layerzero/CrosschainDepositAdapter.sol:CrosschainDepositAdapter","label":"totalDeposits","offset":0,"slot":"0","type":"t_uint256"},{"astId":59182,"contract":"src/adapters/layerzero/CrosschainDepositAdapter.sol:CrosschainDepositAdapter","label":"depositRecords","offset":0,"slot":"1","type":"t_mapping(t_uint256,t_struct(DepositRecord)61509_storage)"},{"astId":59187,"contract":"src/adapters/layerzero/CrosschainDepositAdapter.sol:CrosschainDepositAdapter","label":"userDepositIds","offset":0,"slot":"2","type":"t_mapping(t_address,t_array(t_uint256)dyn_storage)"},{"astId":59191,"contract":"src/adapters/layerzero/CrosschainDepositAdapter.sol:CrosschainDepositAdapter","label":"supportedVaults","offset":0,"slot":"3","type":"t_mapping(t_address,t_bool)"},{"astId":59195,"contract":"src/adapters/layerzero/CrosschainDepositAdapter.sol:CrosschainDepositAdapter","label":"tokenToOFT","offset":0,"slot":"4","type":"t_mapping(t_address,t_address)"},{"astId":59199,"contract":"src/adapters/layerzero/CrosschainDepositAdapter.sol:CrosschainDepositAdapter","label":"supportedOFTs","offset":0,"slot":"5","type":"t_mapping(t_address,t_bool)"},{"astId":60536,"contract":"src/adapters/layerzero/CrosschainDepositAdapter.sol:CrosschainDepositAdapter","label":"__gap","offset":0,"slot":"6","type":"t_array(t_uint256)50_storage"}],"types":{"t_address":{"encoding":"inplace","label":"address","numberOfBytes":"20"},"t_array(t_uint256)50_storage":{"encoding":"inplace","label":"uint256[50]","numberOfBytes":"1600","base":"t_uint256"},"t_array(t_uint256)dyn_storage":{"encoding":"dynamic_array","label":"uint256[]","numberOfBytes":"32","base":"t_uint256"},"t_bool":{"encoding":"inplace","label":"bool","numberOfBytes":"1"},"t_bytes32":{"encoding":"inplace","label":"bytes32","numberOfBytes":"32"},"t_bytes_storage":{"encoding":"bytes","label":"bytes","numberOfBytes":"32"},"t_enum(DepositStatus)61486":{"encoding":"inplace","label":"enum ICrosschainDepositAdapter.DepositStatus","numberOfBytes":"1"},"t_mapping(t_address,t_address)":{"encoding":"mapping","key":"t_address","label":"mapping(address => address)","numberOfBytes":"32","value":"t_address"},"t_mapping(t_address,t_array(t_uint256)dyn_storage)":{"encoding":"mapping","key":"t_address","label":"mapping(address => uint256[])","numberOfBytes":"32","value":"t_array(t_uint256)dyn_storage"},"t_mapping(t_address,t_bool)":{"encoding":"mapping","key":"t_address","label":"mapping(address => bool)","numberOfBytes":"32","value":"t_bool"},"t_mapping(t_uint256,t_struct(DepositRecord)61509_storage)":{"encoding":"mapping","key":"t_uint256","label":"mapping(uint256 => struct ICrosschainDepositAdapter.DepositRecord)","numberOfBytes":"32","value":"t_struct(DepositRecord)61509_storage"},"t_struct(DepositRecord)61509_storage":{"encoding":"inplace","label":"struct ICrosschainDepositAdapter.DepositRecord","numberOfBytes":"288","members":[{"astId":61489,"contract":"src/adapters/layerzero/CrosschainDepositAdapter.sol:CrosschainDepositAdapter","label":"user","offset":0,"slot":"0","type":"t_address"},{"astId":61491,"contract":"src/adapters/layerzero/CrosschainDepositAdapter.sol:CrosschainDepositAdapter","label":"srcEid","offset":20,"slot":"0","type":"t_uint32"},{"astId":61493,"contract":"src/adapters/layerzero/CrosschainDepositAdapter.sol:CrosschainDepositAdapter","label":"tokenIn","offset":0,"slot":"1","type":"t_address"},{"astId":61495,"contract":"src/adapters/layerzero/CrosschainDepositAdapter.sol:CrosschainDepositAdapter","label":"amountIn","offset":0,"slot":"2","type":"t_uint256"},{"astId":61497,"contract":"src/adapters/layerzero/CrosschainDepositAdapter.sol:CrosschainDepositAdapter","label":"vault","offset":0,"slot":"3","type":"t_address"},{"astId":61499,"contract":"src/adapters/layerzero/CrosschainDepositAdapter.sol:CrosschainDepositAdapter","label":"sharesReceived","offset":0,"slot":"4","type":"t_uint256"},{"astId":61501,"contract":"src/adapters/layerzero/CrosschainDepositAdapter.sol:CrosschainDepositAdapter","label":"timestamp","offset":0,"slot":"5","type":"t_uint256"},{"astId":61504,"contract":"src/adapters/layerzero/CrosschainDepositAdapter.sol:CrosschainDepositAdapter","label":"status","offset":0,"slot":"6","type":"t_enum(DepositStatus)61486"},{"astId":61506,"contract":"src/adapters/layerzero/CrosschainDepositAdapter.sol:CrosschainDepositAdapter","label":"guid","offset":0,"slot":"7","type":"t_bytes32"},{"astId":61508,"contract":"src/adapters/layerzero/CrosschainDepositAdapter.sol:CrosschainDepositAdapter","label":"failureReason","offset":0,"slot":"8","type":"t_bytes_storage"}]},"t_uint256":{"encoding":"inplace","label":"uint256","numberOfBytes":"32"},"t_uint32":{"encoding":"inplace","label":"uint32","numberOfBytes":"4"}}},"id":112}