{"abi":[{"type":"constructor","inputs":[{"name":"_endpoint","type":"address","internalType":"address"}],"stateMutability":"nonpayable"},{"type":"receive","stateMutability":"payable"},{"type":"function","name":"DEFAULT_ADMIN_ROLE","inputs":[],"outputs":[{"name":"","type":"bytes32","internalType":"bytes32"}],"stateMutability":"view"},{"type":"function","name":"OPERATOR_ROLE","inputs":[],"outputs":[{"name":"","type":"bytes32","internalType":"bytes32"}],"stateMutability":"view"},{"type":"function","name":"UPGRADE_INTERFACE_VERSION","inputs":[],"outputs":[{"name":"","type":"string","internalType":"string"}],"stateMutability":"view"},{"type":"function","name":"allowInitializePath","inputs":[{"name":"origin","type":"tuple","internalType":"struct Origin","components":[{"name":"srcEid","type":"uint32","internalType":"uint32"},{"name":"sender","type":"bytes32","internalType":"bytes32"},{"name":"nonce","type":"uint64","internalType":"uint64"}]}],"outputs":[{"name":"","type":"bool","internalType":"bool"}],"stateMutability":"view"},{"type":"function","name":"batchManualRefund","inputs":[{"name":"depositIds","type":"uint256[]","internalType":"uint256[]"}],"outputs":[],"stateMutability":"nonpayable"},{"type":"function","name":"combineOptions","inputs":[{"name":"_eid","type":"uint32","internalType":"uint32"},{"name":"_msgType","type":"uint16","internalType":"uint16"},{"name":"_extraOptions","type":"bytes","internalType":"bytes"}],"outputs":[{"name":"","type":"bytes","internalType":"bytes"}],"stateMutability":"view"},{"type":"function","name":"depositRecords","inputs":[{"name":"","type":"uint256","internalType":"uint256"}],"outputs":[{"name":"user","type":"address","internalType":"address"},{"name":"srcEid","type":"uint32","internalType":"uint32"},{"name":"tokenIn","type":"address","internalType":"address"},{"name":"amountIn","type":"uint256","internalType":"uint256"},{"name":"vault","type":"address","internalType":"address"},{"name":"sharesReceived","type":"uint256","internalType":"uint256"},{"name":"timestamp","type":"uint256","internalType":"uint256"},{"name":"status","type":"uint8","internalType":"enum ICrosschainDepositAdapter.DepositStatus"},{"name":"guid","type":"bytes32","internalType":"bytes32"},{"name":"failureReason","type":"bytes","internalType":"bytes"}],"stateMutability":"view"},{"type":"function","name":"depositRefundGas","inputs":[],"outputs":[],"stateMutability":"payable"},{"type":"function","name":"depositToVault","inputs":[{"name":"vault","type":"address","internalType":"address"},{"name":"receiver","type":"address","internalType":"address"},{"name":"amount","type":"uint256","internalType":"uint256"}],"outputs":[{"name":"shares","type":"uint256","internalType":"uint256"}],"stateMutability":"nonpayable"},{"type":"function","name":"emergencyRecover","inputs":[{"name":"token","type":"address","internalType":"address"},{"name":"to","type":"address","internalType":"address"},{"name":"amount","type":"uint256","internalType":"uint256"}],"outputs":[],"stateMutability":"nonpayable"},{"type":"function","name":"endpoint","inputs":[],"outputs":[{"name":"","type":"address","internalType":"contract ILayerZeroEndpointV2"}],"stateMutability":"view"},{"type":"function","name":"enforcedOptions","inputs":[{"name":"_eid","type":"uint32","internalType":"uint32"},{"name":"_msgType","type":"uint16","internalType":"uint16"}],"outputs":[{"name":"","type":"bytes","internalType":"bytes"}],"stateMutability":"view"},{"type":"function","name":"getDepositRecord","inputs":[{"name":"depositId","type":"uint256","internalType":"uint256"}],"outputs":[{"name":"","type":"tuple","internalType":"struct ICrosschainDepositAdapter.DepositRecord","components":[{"name":"user","type":"address","internalType":"address"},{"name":"srcEid","type":"uint32","internalType":"uint32"},{"name":"tokenIn","type":"address","internalType":"address"},{"name":"amountIn","type":"uint256","internalType":"uint256"},{"name":"vault","type":"address","internalType":"address"},{"name":"sharesReceived","type":"uint256","internalType":"uint256"},{"name":"timestamp","type":"uint256","internalType":"uint256"},{"name":"status","type":"uint8","internalType":"enum ICrosschainDepositAdapter.DepositStatus"},{"name":"guid","type":"bytes32","internalType":"bytes32"},{"name":"failureReason","type":"bytes","internalType":"bytes"}]}],"stateMutability":"view"},{"type":"function","name":"getFailedDeposits","inputs":[{"name":"startId","type":"uint256","internalType":"uint256"},{"name":"limit","type":"uint256","internalType":"uint256"}],"outputs":[{"name":"depositIds","type":"uint256[]","internalType":"uint256[]"}],"stateMutability":"view"},{"type":"function","name":"getRoleAdmin","inputs":[{"name":"role","type":"bytes32","internalType":"bytes32"}],"outputs":[{"name":"","type":"bytes32","internalType":"bytes32"}],"stateMutability":"view"},{"type":"function","name":"getUserDepositIds","inputs":[{"name":"user","type":"address","internalType":"address"}],"outputs":[{"name":"","type":"uint256[]","internalType":"uint256[]"}],"stateMutability":"view"},{"type":"function","name":"grantRole","inputs":[{"name":"role","type":"bytes32","internalType":"bytes32"},{"name":"account","type":"address","internalType":"address"}],"outputs":[],"stateMutability":"nonpayable"},{"type":"function","name":"hasRole","inputs":[{"name":"role","type":"bytes32","internalType":"bytes32"},{"name":"account","type":"address","internalType":"address"}],"outputs":[{"name":"","type":"bool","internalType":"bool"}],"stateMutability":"view"},{"type":"function","name":"initialize","inputs":[{"name":"_owner","type":"address","internalType":"address"}],"outputs":[],"stateMutability":"nonpayable"},{"type":"function","name":"isComposeMsgSender","inputs":[{"name":"","type":"tuple","internalType":"struct Origin","components":[{"name":"srcEid","type":"uint32","internalType":"uint32"},{"name":"sender","type":"bytes32","internalType":"bytes32"},{"name":"nonce","type":"uint64","internalType":"uint64"}]},{"name":"","type":"bytes","internalType":"bytes"},{"name":"_sender","type":"address","internalType":"address"}],"outputs":[{"name":"","type":"bool","internalType":"bool"}],"stateMutability":"view"},{"type":"function","name":"isVaultSupported","inputs":[{"name":"vault","type":"address","internalType":"address"}],"outputs":[{"name":"","type":"bool","internalType":"bool"}],"stateMutability":"view"},{"type":"function","name":"lzCompose","inputs":[{"name":"_from","type":"address","internalType":"address"},{"name":"_guid","type":"bytes32","internalType":"bytes32"},{"name":"_message","type":"bytes","internalType":"bytes"},{"name":"","type":"address","internalType":"address"},{"name":"","type":"bytes","internalType":"bytes"}],"outputs":[],"stateMutability":"payable"},{"type":"function","name":"lzReceive","inputs":[{"name":"_origin","type":"tuple","internalType":"struct Origin","components":[{"name":"srcEid","type":"uint32","internalType":"uint32"},{"name":"sender","type":"bytes32","internalType":"bytes32"},{"name":"nonce","type":"uint64","internalType":"uint64"}]},{"name":"_guid","type":"bytes32","internalType":"bytes32"},{"name":"_message","type":"bytes","internalType":"bytes"},{"name":"_executor","type":"address","internalType":"address"},{"name":"_extraData","type":"bytes","internalType":"bytes"}],"outputs":[],"stateMutability":"payable"},{"type":"function","name":"manageBatch","inputs":[{"name":"calls","type":"tuple[]","internalType":"struct Call[]","components":[{"name":"target","type":"address","internalType":"address"},{"name":"data","type":"bytes","internalType":"bytes"},{"name":"value","type":"uint256","internalType":"uint256"}]}],"outputs":[],"stateMutability":"nonpayable"},{"type":"function","name":"manualRefund","inputs":[{"name":"depositId","type":"uint256","internalType":"uint256"}],"outputs":[],"stateMutability":"nonpayable"},{"type":"function","name":"nextNonce","inputs":[{"name":"","type":"uint32","internalType":"uint32"},{"name":"","type":"bytes32","internalType":"bytes32"}],"outputs":[{"name":"nonce","type":"uint64","internalType":"uint64"}],"stateMutability":"view"},{"type":"function","name":"oAppVersion","inputs":[],"outputs":[{"name":"senderVersion","type":"uint64","internalType":"uint64"},{"name":"receiverVersion","type":"uint64","internalType":"uint64"}],"stateMutability":"pure"},{"type":"function","name":"owner","inputs":[],"outputs":[{"name":"","type":"address","internalType":"address"}],"stateMutability":"view"},{"type":"function","name":"pause","inputs":[],"outputs":[],"stateMutability":"nonpayable"},{"type":"function","name":"paused","inputs":[],"outputs":[{"name":"","type":"bool","internalType":"bool"}],"stateMutability":"view"},{"type":"function","name":"peers","inputs":[{"name":"_eid","type":"uint32","internalType":"uint32"}],"outputs":[{"name":"","type":"bytes32","internalType":"bytes32"}],"stateMutability":"view"},{"type":"function","name":"processDeposit","inputs":[{"name":"depositId","type":"uint256","internalType":"uint256"},{"name":"vault","type":"address","internalType":"address"},{"name":"receiver","type":"address","internalType":"address"},{"name":"token","type":"address","internalType":"address"},{"name":"amount","type":"uint256","internalType":"uint256"},{"name":"zapCalls","type":"tuple[]","internalType":"struct Call[]","components":[{"name":"target","type":"address","internalType":"address"},{"name":"data","type":"bytes","internalType":"bytes"},{"name":"value","type":"uint256","internalType":"uint256"}]}],"outputs":[{"name":"shares","type":"uint256","internalType":"uint256"}],"stateMutability":"nonpayable"},{"type":"function","name":"proxiableUUID","inputs":[],"outputs":[{"name":"","type":"bytes32","internalType":"bytes32"}],"stateMutability":"view"},{"type":"function","name":"quoteRefundFee","inputs":[{"name":"depositId","type":"uint256","internalType":"uint256"}],"outputs":[{"name":"nativeFee","type":"uint256","internalType":"uint256"}],"stateMutability":"view"},{"type":"function","name":"removeOperator","inputs":[{"name":"operator","type":"address","internalType":"address"}],"outputs":[],"stateMutability":"nonpayable"},{"type":"function","name":"renounceOwnership","inputs":[],"outputs":[],"stateMutability":"nonpayable"},{"type":"function","name":"renounceRole","inputs":[{"name":"role","type":"bytes32","internalType":"bytes32"},{"name":"callerConfirmation","type":"address","internalType":"address"}],"outputs":[],"stateMutability":"nonpayable"},{"type":"function","name":"revokeRole","inputs":[{"name":"role","type":"bytes32","internalType":"bytes32"},{"name":"account","type":"address","internalType":"address"}],"outputs":[],"stateMutability":"nonpayable"},{"type":"function","name":"safeAttemptRefund","inputs":[{"name":"depositId","type":"uint256","internalType":"uint256"}],"outputs":[],"stateMutability":"nonpayable"},{"type":"function","name":"setDelegate","inputs":[{"name":"_delegate","type":"address","internalType":"address"}],"outputs":[],"stateMutability":"nonpayable"},{"type":"function","name":"setEnforcedOptions","inputs":[{"name":"_enforcedOptions","type":"tuple[]","internalType":"struct EnforcedOptionParam[]","components":[{"name":"eid","type":"uint32","internalType":"uint32"},{"name":"msgType","type":"uint16","internalType":"uint16"},{"name":"options","type":"bytes","internalType":"bytes"}]}],"outputs":[],"stateMutability":"nonpayable"},{"type":"function","name":"setOperator","inputs":[{"name":"operator","type":"address","internalType":"address"}],"outputs":[],"stateMutability":"nonpayable"},{"type":"function","name":"setPeer","inputs":[{"name":"_eid","type":"uint32","internalType":"uint32"},{"name":"_peer","type":"bytes32","internalType":"bytes32"}],"outputs":[],"stateMutability":"nonpayable"},{"type":"function","name":"setSupportedOFT","inputs":[{"name":"token","type":"address","internalType":"address"},{"name":"oft","type":"address","internalType":"address"},{"name":"isActive","type":"bool","internalType":"bool"}],"outputs":[],"stateMutability":"nonpayable"},{"type":"function","name":"setSupportedVault","inputs":[{"name":"vault","type":"address","internalType":"address"},{"name":"isActive","type":"bool","internalType":"bool"}],"outputs":[],"stateMutability":"nonpayable"},{"type":"function","name":"supportedOFTs","inputs":[{"name":"","type":"address","internalType":"address"}],"outputs":[{"name":"","type":"bool","internalType":"bool"}],"stateMutability":"view"},{"type":"function","name":"supportedVaults","inputs":[{"name":"","type":"address","internalType":"address"}],"outputs":[{"name":"","type":"bool","internalType":"bool"}],"stateMutability":"view"},{"type":"function","name":"supportsInterface","inputs":[{"name":"interfaceId","type":"bytes4","internalType":"bytes4"}],"outputs":[{"name":"","type":"bool","internalType":"bool"}],"stateMutability":"view"},{"type":"function","name":"tokenToOFT","inputs":[{"name":"","type":"address","internalType":"address"}],"outputs":[{"name":"","type":"address","internalType":"address"}],"stateMutability":"view"},{"type":"function","name":"totalDeposits","inputs":[],"outputs":[{"name":"","type":"uint256","internalType":"uint256"}],"stateMutability":"view"},{"type":"function","name":"transferOwnership","inputs":[{"name":"newOwner","type":"address","internalType":"address"}],"outputs":[],"stateMutability":"nonpayable"},{"type":"function","name":"unpause","inputs":[],"outputs":[],"stateMutability":"nonpayable"},{"type":"function","name":"upgradeToAndCall","inputs":[{"name":"newImplementation","type":"address","internalType":"address"},{"name":"data","type":"bytes","internalType":"bytes"}],"outputs":[],"stateMutability":"payable"},{"type":"function","name":"userDepositIds","inputs":[{"name":"","type":"address","internalType":"address"},{"name":"","type":"uint256","internalType":"uint256"}],"outputs":[{"name":"","type":"uint256","internalType":"uint256"}],"stateMutability":"view"},{"type":"event","name":"DepositFailed","inputs":[{"name":"depositId","type":"uint256","indexed":true,"internalType":"uint256"},{"name":"user","type":"address","indexed":true,"internalType":"address"},{"name":"reason","type":"bytes","indexed":false,"internalType":"bytes"}],"anonymous":false},{"type":"event","name":"DepositRecorded","inputs":[{"name":"depositId","type":"uint256","indexed":true,"internalType":"uint256"},{"name":"user","type":"address","indexed":true,"internalType":"address"},{"name":"vault","type":"address","indexed":true,"internalType":"address"},{"name":"amountIn","type":"uint256","indexed":false,"internalType":"uint256"},{"name":"srcEid","type":"uint32","indexed":false,"internalType":"uint32"}],"anonymous":false},{"type":"event","name":"DepositStatusUpdated","inputs":[{"name":"depositId","type":"uint256","indexed":true,"internalType":"uint256"},{"name":"oldStatus","type":"uint8","indexed":false,"internalType":"enum ICrosschainDepositAdapter.DepositStatus"},{"name":"newStatus","type":"uint8","indexed":false,"internalType":"enum ICrosschainDepositAdapter.DepositStatus"}],"anonymous":false},{"type":"event","name":"DepositSuccess","inputs":[{"name":"depositId","type":"uint256","indexed":true,"internalType":"uint256"},{"name":"user","type":"address","indexed":true,"internalType":"address"},{"name":"vault","type":"address","indexed":true,"internalType":"address"},{"name":"sharesReceived","type":"uint256","indexed":false,"internalType":"uint256"}],"anonymous":false},{"type":"event","name":"EmergencyRecovery","inputs":[{"name":"token","type":"address","indexed":true,"internalType":"address"},{"name":"to","type":"address","indexed":true,"internalType":"address"},{"name":"amount","type":"uint256","indexed":false,"internalType":"uint256"}],"anonymous":false},{"type":"event","name":"EnforcedOptionSet","inputs":[{"name":"_enforcedOptions","type":"tuple[]","indexed":false,"internalType":"struct EnforcedOptionParam[]","components":[{"name":"eid","type":"uint32","internalType":"uint32"},{"name":"msgType","type":"uint16","internalType":"uint16"},{"name":"options","type":"bytes","internalType":"bytes"}]}],"anonymous":false},{"type":"event","name":"Initialized","inputs":[{"name":"version","type":"uint64","indexed":false,"internalType":"uint64"}],"anonymous":false},{"type":"event","name":"OwnershipTransferred","inputs":[{"name":"previousOwner","type":"address","indexed":true,"internalType":"address"},{"name":"newOwner","type":"address","indexed":true,"internalType":"address"}],"anonymous":false},{"type":"event","name":"Paused","inputs":[{"name":"account","type":"address","indexed":false,"internalType":"address"}],"anonymous":false},{"type":"event","name":"PeerSet","inputs":[{"name":"eid","type":"uint32","indexed":false,"internalType":"uint32"},{"name":"peer","type":"bytes32","indexed":false,"internalType":"bytes32"}],"anonymous":false},{"type":"event","name":"RefundSent","inputs":[{"name":"depositId","type":"uint256","indexed":true,"internalType":"uint256"},{"name":"user","type":"address","indexed":true,"internalType":"address"},{"name":"amount","type":"uint256","indexed":false,"internalType":"uint256"},{"name":"dstEid","type":"uint32","indexed":false,"internalType":"uint32"}],"anonymous":false},{"type":"event","name":"RoleAdminChanged","inputs":[{"name":"role","type":"bytes32","indexed":true,"internalType":"bytes32"},{"name":"previousAdminRole","type":"bytes32","indexed":true,"internalType":"bytes32"},{"name":"newAdminRole","type":"bytes32","indexed":true,"internalType":"bytes32"}],"anonymous":false},{"type":"event","name":"RoleGranted","inputs":[{"name":"role","type":"bytes32","indexed":true,"internalType":"bytes32"},{"name":"account","type":"address","indexed":true,"internalType":"address"},{"name":"sender","type":"address","indexed":true,"internalType":"address"}],"anonymous":false},{"type":"event","name":"RoleRevoked","inputs":[{"name":"role","type":"bytes32","indexed":true,"internalType":"bytes32"},{"name":"account","type":"address","indexed":true,"internalType":"address"},{"name":"sender","type":"address","indexed":true,"internalType":"address"}],"anonymous":false},{"type":"event","name":"Unpaused","inputs":[{"name":"account","type":"address","indexed":false,"internalType":"address"}],"anonymous":false},{"type":"event","name":"Upgraded","inputs":[{"name":"implementation","type":"address","indexed":true,"internalType":"address"}],"anonymous":false},{"type":"event","name":"ZapExecuted","inputs":[{"name":"depositId","type":"uint256","indexed":true,"internalType":"uint256"},{"name":"numCalls","type":"uint256","indexed":false,"internalType":"uint256"},{"name":"amountOut","type":"uint256","indexed":false,"internalType":"uint256"}],"anonymous":false},{"type":"error","name":"AccessControlBadConfirmation","inputs":[]},{"type":"error","name":"AccessControlUnauthorizedAccount","inputs":[{"name":"account","type":"address","internalType":"address"},{"name":"neededRole","type":"bytes32","internalType":"bytes32"}]},{"type":"error","name":"AddressEmptyCode","inputs":[{"name":"target","type":"address","internalType":"address"}]},{"type":"error","name":"ERC1967InvalidImplementation","inputs":[{"name":"implementation","type":"address","internalType":"address"}]},{"type":"error","name":"ERC1967NonPayable","inputs":[]},{"type":"error","name":"EnforcedPause","inputs":[]},{"type":"error","name":"ExpectedPause","inputs":[]},{"type":"error","name":"FailedCall","inputs":[]},{"type":"error","name":"InsufficientBalance","inputs":[{"name":"balance","type":"uint256","internalType":"uint256"},{"name":"needed","type":"uint256","internalType":"uint256"}]},{"type":"error","name":"InvalidDelegate","inputs":[]},{"type":"error","name":"InvalidEndpointCall","inputs":[]},{"type":"error","name":"InvalidInitialization","inputs":[]},{"type":"error","name":"InvalidOptions","inputs":[{"name":"options","type":"bytes","internalType":"bytes"}]},{"type":"error","name":"LzTokenUnavailable","inputs":[]},{"type":"error","name":"NoPeer","inputs":[{"name":"eid","type":"uint32","internalType":"uint32"}]},{"type":"error","name":"NotEnoughNative","inputs":[{"name":"msgValue","type":"uint256","internalType":"uint256"}]},{"type":"error","name":"NotInitializing","inputs":[]},{"type":"error","name":"OnlyEndpoint","inputs":[{"name":"addr","type":"address","internalType":"address"}]},{"type":"error","name":"OnlyPeer","inputs":[{"name":"eid","type":"uint32","internalType":"uint32"},{"name":"sender","type":"bytes32","internalType":"bytes32"}]},{"type":"error","name":"OwnableInvalidOwner","inputs":[{"name":"owner","type":"address","internalType":"address"}]},{"type":"error","name":"OwnableUnauthorizedAccount","inputs":[{"name":"account","type":"address","internalType":"address"}]},{"type":"error","name":"ReentrancyGuardReentrantCall","inputs":[]},{"type":"error","name":"SafeERC20FailedOperation","inputs":[{"name":"token","type":"address","internalType":"address"}]},{"type":"error","name":"UUPSUnauthorizedCallContext","inputs":[]},{"type":"error","name":"UUPSUnsupportedProxiableUUID","inputs":[{"name":"slot","type":"bytes32","internalType":"bytes32"}]}],"bytecode":{"object":"0x60c03461013457601f61479d38819003918201601f19168301916001600160401b038311848410176101385780849260209460405283398101031261013457516001600160a01b03811690819003610134576080523060a0525f51602061477d5f395f51905f525460ff8160401c16610125576002600160401b03196001600160401b038216016100cf575b604051614630908161014d823960805181818161088501528181610ee60152818161103101528181611fd2015261270e015260a0518181816120bc01526121720152f35b6001600160401b0319166001600160401b039081175f51602061477d5f395f51905f52556040519081527fc7f505b2f371ae2175ee4913f4499e1f2633a7b5936321eed1cdaeb6115181d290602090a15f61008b565b63f92ee8a960e01b5f5260045ffd5b5f80fd5b634e487b7160e01b5f52604160045260245ffdfe608080604052600436101561001c575b50361561001a575f80fd5b005b5f3560e01c90816301ffc9a714612b0a5750806302d19adb1461296f57806312d36fd31461287c57806313137d65146126a257806317442b701461268157806317536c061461265d578063240825cb146117d0578063248a9ca3146126265780632548af6c146125e95780632f2ff15d1461259f5780633400288b1461251757806336568abe146124ba5780633f4ba83a146123a45780634f1ef2861461213457806352d1902d146120a25780635535d461146120375780635c975abb14611ff65780635e280f1114611fb3578063715018a614611f425780637260522814611e755780637d25a05e14611e515780637d88209714611e3557806382413eac14611dd95780638456cb5914611ce95780638c75b1c714611ba35780638d916c2214611b7c5780638da5cb5b14611b4a57806391d1485414611af45780639b3fa75914611ad6578063a217fddf14611abc578063ac8a584a14611a34578063ad1329d114611935578063ad3cb1cc146118d6578063b297c99114611895578063b3ab15fb1461180d578063b71b73c3146117d0578063b7ac61921461172d578063b98bd0701461146c578063bb0b6a531461144e578063bc70b354146113e9578063c3667dee146112b7578063c4d66de814610f56578063ca5eb5e114610ebb578063cc69bcb014610e64578063d0a102601461080b578063d4e4487d1461078d578063d547741f1461073e578063d6236628146106e9578063db95e75c14610549578063e5b319a31461045d578063f0ed98001461033f578063f2fde38b14610316578063f5b541a6146102dc5763ff7bd03d1461027a575f61000f565b346102d85760603660031901126102d85760206102cc61029861300a565b63ffffffff165f527f72ab1bc1039b79dc4724ffca13de82c96834302d3c7e0d4252232d4b2dd8f90060205260405f205490565b60405190602435148152f35b5f80fd5b346102d8575f3660031901126102d85760206040517f97667070c54ef182b0f5858b034beac1b6f3089aa2d3188bb1e8929f4fa9b9298152f35b346102d85760203660031901126102d85761001a610332612c1d565b61033a613992565b61345c565b346102d85760403660031901126102d85760243561035c81613408565b905f91600435915f54925b83811080610454575b1561040e57805f52600160205260ff600660405f20015416600681101590816103ed5760028114918215610401575b82156103dc575b50506103bb575b6103b69061343a565b610367565b936103d481866103ce6103b69487613448565b5261343a565b9490506103ad565b9091506103ed5760051486806103a6565b634e487b7160e01b5f52602160045260245ffd5b506003811491505f61039f565b828561041981613408565b915f5b82811061043557604051806104318682612ead565b0390f35b8061044260019284613448565b5161044d8287613448565b520161041c565b50818510610370565b346102d85760603660031901126102d857610476612c1d565b61047e612c33565b906044359081151582036102d8576001600160a01b039061049d613992565b1680151580610537575b156104f35761001a926001600160a01b03915f52600460205260405f208282166001600160a01b0319825416179055165f52600560205260405f209060ff801983541691151516179055565b606460405162461bcd60e51b815260206004820152600f60248201527f496e76616c6964206164647265737300000000000000000000000000000000006044820152fd5b506001600160a01b03831615156104a7565b346102d85760203660031901126102d857606061012060405161056b81612cc8565b5f81525f60208201525f60408201525f838201525f60808201525f60a08201525f60c08201525f60e08201525f61010082015201526004355f52600160205260405f206040516105ba81612cc8565b8154916001600160a01b038316825263ffffffff602083019360a01c1683526001600160a01b0360018201541690604083019182526002810154606084019081526001600160a01b0360038301541660808501908152600483015460a0860190815260058401549160c0870192835260ff6006860154169360e088019460068110156103ed578552600786015495610100890196875260080161065c90612e00565b966101208901978852604051998a9960208b52516001600160a01b031660208b01525163ffffffff1660408a0152516001600160a01b03166060890152516080880152516001600160a01b031660a08701525160c08601525160e08501525161010084016106c991612ea0565b516101208301525161014082016101409052610160820161043191612da4565b346102d85760403660031901126102d857610702612c1d565b6001600160a01b0360243591165f52600260205260405f2080548210156102d85760209161072f91612ee6565b90549060031b1c604051908152f35b346102d85760403660031901126102d85761001a60043561075d612c33565b90610788610783825f525f5160206146045f395f51905f52602052600160405f20015490565b61370a565b613aa8565b346102d85760203660031901126102d8576001600160a01b036107ae612c1d565b165f52600260205260405f206040519081602082549182815201915f5260205f20905f5b8181106107f557610431856107e981870382612d01565b60405191829182612ead565b82548452602090930192600192830192016107d2565b60a03660031901126102d85761081f612c1d565b60443567ffffffffffffffff81116102d85761083f903690600401612bd9565b91610848612c49565b5060843567ffffffffffffffff81116102d857610869903690600401612bd9565b505061087361430a565b61087b6134f1565b6001600160a01b037f0000000000000000000000000000000000000000000000000000000000000000163303610e205782600c116102d857600882013560e01c916004602c85106102d857600c820191602092359580604c116102d8576108eb913691604b190190604c01612d3f565b9485518601908382016060888403126102d8576109098589016133f4565b9061091660408a016133f4565b9860608101519067ffffffffffffffff82116102d857019080603f830112156102d85786820151610946816133dc565b956109546040519788612d01565b81875288808089019360051b86010101938385116102d85760408101925b858410610d69575050505050506001600160a01b0316966001600160a01b0316955f54809686604051916109a583612cc8565b8a83528183019085825260408401906001600160a01b03168152606084018781528d6080860190815260a08601915f835260c087019342855260e08801955f875261010089019760243589526040519a6109ff828d612d01565b5f8c526101208b019b8c525f526001905260405f2098516001600160a01b03166001600160a01b031689546001600160a01b0319161789555188549060a01b77ffffffff000000000000000000000000000000000000000016907fffffffffffffffff00000000ffffffffffffffffffffffffffffffffffffffff16178855516001600160a01b031660018801906001600160a01b031681546001600160a01b031916179055516002870155516001600160a01b031660038601906001600160a01b031681546001600160a01b0319161790555189850155516005840155516006811015610d565790610af8839260066008950161435d565b51600782015501905180519067ffffffffffffffff8211610d4357610b2782610b218554612dc8565b85613274565b8790601f8311600114610ce057610b5592915f9183610cd5575b50508160011b915f199060031b1c19161790565b90555b865f526002855260405f2080549068010000000000000000821015610cc257877f05788213ec0b692616593828e39171c9debbfbfb5c606963b3750a14fd27cb6e610bf2610bfd979695610bb5868f97968f976001018155612ee6565b81549060031b9086821b915f19901b1916179055610bd35f5461343a565b5f556040805188815263ffffffff909216602083015290918291820190565b0390a4868887613fb2565b90835f5260018352818160405f200155835f526001835260ff600660405f2001541690845f5260018452610c386001600660405f200161435d565b610c456040518093612ea0565b5090837f9d93915ed14aa5ee42cdad6a94e043c46a0272ca711f0dd244ffdb742aec166e6040846001877fca0cb2912e0c2e0af51b3ace43d0aace130290bb58b2a7d55f2894acdaf127a798970152a2604051908152a460017f9b779b17422d0df92223018b32b4d1fa46e071723d6817e2486d003becc55f0055005b604186634e487b7160e01b5f525260245ffd5b015190508c80610b41565b90601f19831691845f52895f20925f5b8b828210610d2d575050908460019594939210610d15575b505050811b019055610b58565b01515f1960f88460031b161c191690558b8080610d08565b6001859682939686015181550195019301610cf0565b604187634e487b7160e01b5f525260245ffd5b602188634e487b7160e01b5f525260245ffd5b835167ffffffffffffffff81116102d85782018b0160608185038d01601f1901126102d85760405191610d9b83612cac565b610da68d83016133f4565b8352604082015167ffffffffffffffff81116102d8578d908301019287601f850112156102d857838e94519389610ddc86612d23565b96610dea6040519889612d01565b86885286840101116102d8578f955f8787819882606097018386015e830101528584015201516040820152815201930192610972565b606460405162461bcd60e51b815260206004820152600d60248201527f4f6e6c7920656e64706f696e74000000000000000000000000000000000000006044820152fd5b5f3660031901126102d8573415610e7757005b606460405162461bcd60e51b815260206004820152600d60248201527f4d7573742073656e6420455448000000000000000000000000000000000000006044820152fd5b346102d85760203660031901126102d857610ed4612c1d565b610edc613992565b6001600160a01b037f00000000000000000000000000000000000000000000000000000000000000001690813b156102d8576001600160a01b0360245f9283604051958694859363ca5eb5e160e01b85521660048401525af18015610f4b57610f4157005b5f61001a91612d01565b6040513d5f823e3d90fd5b346102d85760203660031901126102d857610f6f612c1d565b7ff0c57e16840df040f15088dc2f81fe391c3923bec73e23a9662efc9c229c6a00549060ff8260401c16159167ffffffffffffffff8116801590816112af575b60011490816112a5575b15908161129c575b506112745767ffffffffffffffff1981166001177ff0c57e16840df040f15088dc2f81fe391c3923bec73e23a9662efc9c229c6a005582611235575b506001600160a01b0381169081156111f15761101761458c565b61101f61458c565b61102761458c565b6001600160a01b037f00000000000000000000000000000000000000000000000000000000000000001691823b156102d8575f9260248492604051958693849263ca5eb5e160e01b845260048401525af1918215610f4b5761115d926111e1575b5061109161458c565b61109961458c565b6110a161458c565b6110a961458c565b6110b28161345c565b6110ba61458c565b6110c261458c565b60017f9b779b17422d0df92223018b32b4d1fa46e071723d6817e2486d003becc55f00556110ee61458c565b6110f661458c565b60ff197fcd5ed15c6e187e77e9aee88184c21f4f2182ab5827cb3b7e07fbedcd63f0330054167fcd5ed15c6e187e77e9aee88184c21f4f2182ab5827cb3b7e07fbedcd63f033005561114661458c565b61114e61458c565b61115781613841565b50613770565b5061116457005b68ff0000000000000000197ff0c57e16840df040f15088dc2f81fe391c3923bec73e23a9662efc9c229c6a0054167ff0c57e16840df040f15088dc2f81fe391c3923bec73e23a9662efc9c229c6a00557fc7f505b2f371ae2175ee4913f4499e1f2633a7b5936321eed1cdaeb6115181d2602060405160018152a1005b5f6111eb91612d01565b83611088565b606460405162461bcd60e51b815260206004820152600d60248201527f496e76616c6964206f776e6572000000000000000000000000000000000000006044820152fd5b68ffffffffffffffffff191668010000000000000001177ff0c57e16840df040f15088dc2f81fe391c3923bec73e23a9662efc9c229c6a005582610ffd565b7ff92ee8a9000000000000000000000000000000000000000000000000000000005f5260045ffd5b90501584610fc1565b303b159150610fb9565b849150610faf565b346102d85760c03660031901126102d8576112d0612c33565b604435906001600160a01b03821682036102d8576112ec612c49565b5060a43567ffffffffffffffff81116102d85761130d903690600401612ba8565b61131b939193303314612f6a565b611324816133dc565b936113326040519586612d01565b818552602085019160051b8101903682116102d85780925b82841061136c57602061136488608435888a600435613fb2565b604051908152f35b833567ffffffffffffffff81116102d85782016060813603126102d8576040519161139683612cac565b81356001600160a01b03811681036102d857835260208201359267ffffffffffffffff84116102d8576040602094936113d3869536908301612d75565b858401520135604082015281520193019261134a565b346102d85760603660031901126102d857611402612c99565b61140a612d93565b6044359067ffffffffffffffff82116102d8576104319261143261143a933690600401612bd9565b9290916132e3565b604051918291602083526020830190612da4565b346102d85760203660031901126102d8576020611364610298612c99565b346102d85760203660031901126102d85760043567ffffffffffffffff81116102d85761149d903690600401612ba8565b906114a6613992565b5f5b8281106115a557506040519082602083016020845252604082019260408160051b84010193825f90605e19813603015b848310611507577fbe4864a8e820971c0247f5992e2da559595f7bf076a21cb5928d443d2a13b67487890388a1005b909192939496603f198782030185528735828112156102d8578301803563ffffffff81168091036102d8578252602081013561ffff81168091036102d85760208301526040810135601e19823603018112156102d857016020813591019067ffffffffffffffff81116102d85780360382136102d8576115976020928392606086816040600199015201916132c3565b9901969501930191906114d8565b916115c76115c16115b7858486612fb5565b6040810190612fd7565b90613f75565b6115d56115b7848385612fb5565b6115e3858486979497612fb5565b3563ffffffff8116908181036102d857505f527f8d2bda5d9f6ffb5796910376005392955773acee5548d0fcdb10e7c264ea000060205260405f20602061162b848688612fb5565b013561ffff811681036102d85761ffff165f5260205260405f209067ffffffffffffffff811161171957611669816116638454612dc8565b84613274565b5f95601f82116001146116b2579080600195969761169b935f926116a75750508160011b915f199060031b1c19161790565b90555b019190916114a8565b013590508880610b41565b601f19821696835f5260205f20975f5b81811061170157509160019697989184889594106116e8575b505050811b01905561169e565b01355f19600384901b60f8161c191690558780806116db565b91986020600181928c8701358155019a0192016116c2565b634e487b7160e01b5f52604160045260245ffd5b346102d85760403660031901126102d857611746612c1d565b6024359081151582036102d8576001600160a01b0390611764613992565b1690811561178c5761001a915f52600360205260405f209060ff801983541691151516179055565b606460405162461bcd60e51b815260206004820152600d60248201527f496e76616c6964207661756c74000000000000000000000000000000000000006044820152fd5b346102d85760203660031901126102d8576001600160a01b036117f1612c1d565b165f526003602052602060ff60405f2054166040519015158152f35b346102d85760203660031901126102d85761001a611829612c1d565b611831613992565b7f97667070c54ef182b0f5858b034beac1b6f3089aa2d3188bb1e8929f4fa9b9295f525f5160206146045f395f51905f526020527f448256db8f8fb95ee3eaaf89c1051414494e85cebb6057fcf996cc3d0ccfb457546118909061370a565b613770565b346102d85760203660031901126102d8576001600160a01b036118b6612c1d565b165f52600460205260206001600160a01b0360405f205416604051908152f35b346102d8575f3660031901126102d8576104316040516118f7604082612d01565b600581527f352e302e300000000000000000000000000000000000000000000000000000006020820152604051918291602083526020830190612da4565b346102d85761194336612c5f565b61194b613992565b6001600160a01b0382169283156119f0576001600160a01b031691826119bc57505f818481156119b2575b5f92839283928392f115610f4b5760207f1ac506e936e7f02f4036dbe44708f5e8d72af9ace8745a29fd391481a8fbcb87915b604051908152a3005b6108fc9250611976565b816119eb7f1ac506e936e7f02f4036dbe44708f5e8d72af9ace8745a29fd391481a8fbcb879360209386613f1b565b6119a9565b606460405162461bcd60e51b815260206004820152601160248201527f496e76616c696420726563697069656e740000000000000000000000000000006044820152fd5b346102d85760203660031901126102d85761001a611a50612c1d565b611a58613992565b7f97667070c54ef182b0f5858b034beac1b6f3089aa2d3188bb1e8929f4fa9b9295f525f5160206146045f395f51905f526020527f448256db8f8fb95ee3eaaf89c1051414494e85cebb6057fcf996cc3d0ccfb45754611ab79061370a565b6139de565b346102d8575f3660031901126102d85760206040515f8152f35b346102d85760203660031901126102d857602061136460043561310e565b346102d85760403660031901126102d857611b0d612c33565b6004355f525f5160206146045f395f51905f526020526001600160a01b0360405f2091165f52602052602060ff60405f2054166040519015158152f35b346102d8575f3660031901126102d85760206001600160a01b035f5160206145e45f395f51905f525416604051908152f35b346102d85760203660031901126102d857611b98303314612f6a565b61001a600435613b45565b346102d85760203660031901126102d8576004356001600160a01b035f5160206145e45f395f51905f52541633148015611cb2575b611be190612f0f565b611be96134f1565b805f52600160205260ff600660405f20015416600681101590816103ed5760028114918215611ca5575b8215611c94575b505015611c5057611c2a90613b45565b60017f9b779b17422d0df92223018b32b4d1fa46e071723d6817e2486d003becc55f0055005b606460405162461bcd60e51b815260206004820152601760248201527f4e6f7420656c696769626c6520666f7220726566756e640000000000000000006044820152fd5b9091506103ed576005148280611c1a565b506003811491505f611c13565b50335f9081527f448256db8f8fb95ee3eaaf89c1051414494e85cebb6057fcf996cc3d0ccfb456602052604090205460ff16611bd8565b346102d8575f3660031901126102d8576001600160a01b035f5160206145e45f395f51905f52541633148015611da2575b611d2390612f0f565b611d2b61430a565b600160ff197fcd5ed15c6e187e77e9aee88184c21f4f2182ab5827cb3b7e07fbedcd63f033005416177fcd5ed15c6e187e77e9aee88184c21f4f2182ab5827cb3b7e07fbedcd63f03300557f62e78cea01bee320cd4e420270b5ea74000d11b0c9f74754ebdbfc544b05a2586020604051338152a1005b50335f9081527f448256db8f8fb95ee3eaaf89c1051414494e85cebb6057fcf996cc3d0ccfb456602052604090205460ff16611d1a565b346102d857366003190160a081126102d8576060136102d85760643567ffffffffffffffff81116102d857611e12903690600401612bd9565b50506084356001600160a01b0381168091036102d8576020906040519030148152f35b346102d8575f3660031901126102d85760205f54604051908152f35b346102d85760403660031901126102d857611e6a612c99565b5060206040515f8152f35b346102d85760203660031901126102d8576004355f52600160205263ffffffff60405f206104318154916001600160a01b0360018201541690611f2860028201546001600160a01b03600384015416600484015460058501549160ff60068701541693611ee9600860078901549801612e00565b976040519b8b6001600160a01b038e9d168d5260a01c1660208c015260408b015260608a0152608089015260a088015260c087015260e0860190612ea0565b610100840152610140610120840152610140830190612da4565b346102d8575f3660031901126102d857611f5a613992565b5f6001600160a01b035f5160206145e45f395f51905f52546001600160a01b031981165f5160206145e45f395f51905f5255167f8be0079c531659141344cd1fd0a4f28419497f9722a3daafe3b4186f6b6457e08280a3005b346102d8575f3660031901126102d85760206040516001600160a01b037f0000000000000000000000000000000000000000000000000000000000000000168152f35b346102d8575f3660031901126102d857602060ff7fcd5ed15c6e187e77e9aee88184c21f4f2182ab5827cb3b7e07fbedcd63f0330054166040519015158152f35b346102d85760403660031901126102d857612050612c99565b63ffffffff61205d612d93565b91165f527f8d2bda5d9f6ffb5796910376005392955773acee5548d0fcdb10e7c264ea000060205261ffff60405f2091165f5260205261043161143a60405f20612e00565b346102d8575f3660031901126102d8576001600160a01b037f000000000000000000000000000000000000000000000000000000000000000016300361210c5760206040517f360894a13ba1a3210667c828492db98dca3e2076cc3735a920a3ca505d382bbc8152f35b7fe07c8dba000000000000000000000000000000000000000000000000000000005f5260045ffd5b60403660031901126102d857612148612c1d565b60243567ffffffffffffffff81116102d857612168903690600401612d75565b6001600160a01b037f00000000000000000000000000000000000000000000000000000000000000001680301490811561236f575b5061210c576121aa613992565b6001600160a01b038216916040517f52d1902d000000000000000000000000000000000000000000000000000000008152602081600481875afa5f918161233b575b506122045783634c9c8ce360e01b5f5260045260245ffd5b807f360894a13ba1a3210667c828492db98dca3e2076cc3735a920a3ca505d382bbc8592036123105750813b156122fe57806001600160a01b03197f360894a13ba1a3210667c828492db98dca3e2076cc3735a920a3ca505d382bbc5416177f360894a13ba1a3210667c828492db98dca3e2076cc3735a920a3ca505d382bbc557fbc7cd75a20ee27fd9adebab32041f755214dbc6bffa90cc0225b39da2e5c2d3b5f80a28151156122cd575f8083602061001a95519101845af46122c7613568565b916143d2565b5050346122d657005b7fb398979f000000000000000000000000000000000000000000000000000000005f5260045ffd5b634c9c8ce360e01b5f5260045260245ffd5b7faa1d49a4000000000000000000000000000000000000000000000000000000005f5260045260245ffd5b9091506020813d602011612367575b8161235760209383612d01565b810103126102d8575190856121ec565b3d915061234a565b90506001600160a01b037f360894a13ba1a3210667c828492db98dca3e2076cc3735a920a3ca505d382bbc541614158361219d565b346102d8575f3660031901126102d8576001600160a01b035f5160206145e45f395f51905f52541633148015612483575b6123de90612f0f565b7fcd5ed15c6e187e77e9aee88184c21f4f2182ab5827cb3b7e07fbedcd63f033005460ff81161561245b5760ff19167fcd5ed15c6e187e77e9aee88184c21f4f2182ab5827cb3b7e07fbedcd63f03300557f5db9ee0a495bf2e6ff9c91a7834c1ba4fdd244a5e8aa4e537bd38aeae4b073aa6020604051338152a1005b7f8dfc202b000000000000000000000000000000000000000000000000000000005f5260045ffd5b50335f9081527f448256db8f8fb95ee3eaaf89c1051414494e85cebb6057fcf996cc3d0ccfb456602052604090205460ff166123d5565b346102d85760403660031901126102d8576124d3612c33565b336001600160a01b038216036124ef5761001a90600435613aa8565b7f6697b232000000000000000000000000000000000000000000000000000000005f5260045ffd5b346102d85760403660031901126102d8577f238399d427b947898edb290f5ff0f9109849b1c3ba196a42e35f00c50a54b98b6040612553612c99565b63ffffffff60243591612564613992565b1690815f527f72ab1bc1039b79dc4724ffca13de82c96834302d3c7e0d4252232d4b2dd8f90060205280835f205582519182526020820152a1005b346102d85760403660031901126102d85761001a6004356125be612c33565b906125e4610783825f525f5160206146045f395f51905f52602052600160405f20015490565b6138eb565b346102d85760203660031901126102d8576001600160a01b0361260a612c1d565b165f526005602052602060ff60405f2054166040519015158152f35b346102d85760203660031901126102d85760206113646004355f525f5160206146045f395f51905f52602052600160405f20015490565b346102d857602061136461267036612c5f565b9161267c303314612f6a565b613597565b346102d8575f3660031901126102d857604080516001815260026020820152f35b366003190160e081126102d8576060136102d85760843567ffffffffffffffff81116102d8576126d6903690600401612bd9565b50506126e0612c07565b5060c43567ffffffffffffffff81116102d857612701903690600401612bd9565b5050336001600160a01b037f000000000000000000000000000000000000000000000000000000000000000016036128505763ffffffff61274061300a565b16805f527f72ab1bc1039b79dc4724ffca13de82c96834302d3c7e0d4252232d4b2dd8f90060205260405f205490811561282557506024358091036127e957608460405162461bcd60e51b815260206004820152602260248201527f446f6573206e6f742072656365697665207374616e64617264206d657373616760448201527f65730000000000000000000000000000000000000000000000000000000000006064820152fd5b63ffffffff6127f661300a565b7fc26bebcc000000000000000000000000000000000000000000000000000000005f521660045260245260445ffd5b7ff6ff4fb7000000000000000000000000000000000000000000000000000000005f5260045260245ffd5b7f91ac5e4f000000000000000000000000000000000000000000000000000000005f523360045260245ffd5b346102d85760203660031901126102d85760043567ffffffffffffffff81116102d8576128ad903690600401612ba8565b906128b9303314612f6a565b5f5b8281106128c457005b6128cf818484612fb5565b356001600160a01b03811681036102d8576129146128fb6128f1848787612fb5565b6020810190612fd7565b9190604061290a868989612fb5565b0135923691612d3f565b9080471061294057915f80836001969560206129399651920190855af16122c7613568565b50016128bb565b477fcf479181000000000000000000000000000000000000000000000000000000005f5260045260245260445ffd5b346102d85760203660031901126102d85760043567ffffffffffffffff81116102d8576129a0903690600401612ba8565b6001600160a01b035f5160206145e45f395f51905f52541633148015612ad3575b6129ca90612f0f565b6129d26134f1565b5f5b818110612a015760017f9b779b17422d0df92223018b32b4d1fa46e071723d6817e2486d003becc55f0055005b612a0c818385612f5a565b355f52600160205260ff600660405f20015416600681101590816103ed5760028114918215612ac6575b8215612ab5575b5050612a4c575b6001016129d4565b612a57818385612f5a565b3590303b156102d857600191604051907f8d916c2200000000000000000000000000000000000000000000000000000000825260048201525f8160248183305af1612aa5575b509050612a44565b5f612aaf91612d01565b84612a9d565b9091506103ed576005148480612a3d565b506003811491505f612a36565b50335f9081527f448256db8f8fb95ee3eaaf89c1051414494e85cebb6057fcf996cc3d0ccfb456602052604090205460ff166129c1565b346102d85760203660031901126102d857600435907fffffffff0000000000000000000000000000000000000000000000000000000082168092036102d857817f7965db0b0000000000000000000000000000000000000000000000000000000060209314908115612b7e575b5015158152f35b7f01ffc9a70000000000000000000000000000000000000000000000000000000091501483612b77565b9181601f840112156102d85782359167ffffffffffffffff83116102d8576020808501948460051b0101116102d857565b9181601f840112156102d85782359167ffffffffffffffff83116102d857602083818601950101116102d857565b60a435906001600160a01b03821682036102d857565b600435906001600160a01b03821682036102d857565b602435906001600160a01b03821682036102d857565b606435906001600160a01b03821682036102d857565b60609060031901126102d8576004356001600160a01b03811681036102d857906024356001600160a01b03811681036102d8579060443590565b6004359063ffffffff821682036102d857565b6060810190811067ffffffffffffffff82111761171957604052565b610140810190811067ffffffffffffffff82111761171957604052565b60e0810190811067ffffffffffffffff82111761171957604052565b90601f8019910116810190811067ffffffffffffffff82111761171957604052565b67ffffffffffffffff811161171957601f01601f191660200190565b929192612d4b82612d23565b91612d596040519384612d01565b8294818452818301116102d8578281602093845f960137010152565b9080601f830112156102d857816020612d9093359101612d3f565b90565b6024359061ffff821682036102d857565b805180835260209291819084018484015e5f828201840152601f01601f1916010190565b90600182811c92168015612df6575b6020831014612de257565b634e487b7160e01b5f52602260045260245ffd5b91607f1691612dd7565b9060405191825f825492612e1384612dc8565b8084529360018116908115612e7e5750600114612e3a575b50612e3892500383612d01565b565b90505f9291925260205f20905f915b818310612e62575050906020612e38928201015f612e2b565b6020919350806001915483858901015201910190918492612e49565b905060209250612e3894915060ff191682840152151560051b8201015f612e2b565b9060068210156103ed5752565b60206040818301928281528451809452019201905f5b818110612ed05750505090565b8251845260209384019390920191600101612ec3565b8054821015612efb575f5260205f2001905f90565b634e487b7160e01b5f52603260045260245ffd5b15612f1657565b606460405162461bcd60e51b815260206004820152601560248201527f4e6f74206f776e6572206f72206f70657261746f7200000000000000000000006044820152fd5b9190811015612efb5760051b0190565b15612f7157565b606460405162461bcd60e51b815260206004820152600960248201527f4f6e6c792073656c6600000000000000000000000000000000000000000000006044820152fd5b9190811015612efb5760051b81013590605e19813603018212156102d8570190565b903590601e19813603018212156102d8570180359067ffffffffffffffff82116102d8576020019181360383136102d857565b60043563ffffffff811681036102d85790565b1561302457565b606460405162461bcd60e51b815260206004820152600d60248201527f4f4654206e6f7420666f756e64000000000000000000000000000000000000006044820152fd5b91908260409103126102d8576040516040810181811067ffffffffffffffff821117611719576040526020808294805184520151910152565b612d909163ffffffff825116815260208201516020820152604082015160408201526060820151606082015260c06130fd6130eb608085015160e0608086015260e0850190612da4565b60a085015184820360a0860152612da4565b9201519060c0818403910152612da4565b5f52600160205260405f2080549063ffffffff8260a01c16801561326d576001600160a01b036001830154165f52600460205260026001600160a01b0360405f2054169261315d84151561301d565b0154916126ac8302938385046126ac148415171561325957613206946040946001600160a01b036127109387519661319488612ce5565b87521660208601528585015204606083015282516131b3602082612d01565b5f8152608083015282516131c8602082612d01565b5f815260a083015282516131dd602082612d01565b5f815260c083015282518080958194633b6f743b60e01b835286600484015260448301906130a1565b5f602483015203915afa908115610f4b575f9161322257505190565b905060403d604011613252575b6132398183612d01565b81016040828203126102d85761324e91613068565b5190565b503d61322f565b634e487b7160e01b5f52601160045260245ffd5b5050505f90565b601f821161328157505050565b5f5260205f20906020601f840160051c830193106132b9575b601f0160051c01905b8181106132ae575050565b5f81556001016132a3565b909150819061329a565b908060209392818452848401375f828201840152601f01601f1916010190565b63ffffffff90949294165f527f8d2bda5d9f6ffb5796910376005392955773acee5548d0fcdb10e7c264ea000060205261ffff60405f2091165f5260205261332d60405f20612e00565b8051156133cf5782156133c957600283101561336d575050613369604051928392639a6d49cd60e01b84526020600485015260248401916132c3565b0390fd5b91909261337a8282613f75565b816002116102d857612d909160209182604051958051918291018588015e8501908382015f8152600260011985019201903701015f60011982015282600119910301601f198101835282612d01565b92509050565b5091612d90913691612d3f565b67ffffffffffffffff81116117195760051b60200190565b51906001600160a01b03821682036102d857565b90613412826133dc565b61341f6040519182612d01565b8281528092613430601f19916133dc565b0190602036910137565b5f1981146132595760010190565b8051821015612efb5760209160051b010190565b6001600160a01b031680156134c5576001600160a01b035f5160206145e45f395f51905f5254826001600160a01b03198216175f5160206145e45f395f51905f5255167f8be0079c531659141344cd1fd0a4f28419497f9722a3daafe3b4186f6b6457e05f80a3565b7f1e4fbdf7000000000000000000000000000000000000000000000000000000005f525f60045260245ffd5b60027f9b779b17422d0df92223018b32b4d1fa46e071723d6817e2486d003becc55f0054146135405760027f9b779b17422d0df92223018b32b4d1fa46e071723d6817e2486d003becc55f0055565b7f3ee5aeb5000000000000000000000000000000000000000000000000000000005f5260045ffd5b3d15613592573d9061357982612d23565b916135876040519384612d01565b82523d5f602084013e565b606090565b929190926001600160a01b038116906040516338d52e0f60e01b8152602081600481865afa908115610f4b575f916136af575b50925f6001600160a01b0396936135e8836044958a6020991661445e565b60405197889586947f6e553f6500000000000000000000000000000000000000000000000000000000865260048601521660248401525af1918215610f4b575f9261367b575b50811561363757565b606460405162461bcd60e51b815260206004820152601960248201527f4465706f736974206661696c65643a206e6f20736861726573000000000000006044820152fd5b9091506020813d6020116136a7575b8161369760209383612d01565b810103126102d85751905f61362e565b3d915061368a565b95929390506020863d602011613702575b816136cd60209383612d01565b810103126102d8575f6020946135e8836044956001600160a01b036136f2819c6133f4565b96505095509650509396506135ca565b3d91506136c0565b805f525f5160206146045f395f51905f5260205260405f206001600160a01b0333165f5260205260ff60405f205416156137415750565b7fe2517d3f000000000000000000000000000000000000000000000000000000005f523360045260245260445ffd5b6001600160a01b0381165f9081527f448256db8f8fb95ee3eaaf89c1051414494e85cebb6057fcf996cc3d0ccfb456602052604090205460ff1661383c576001600160a01b03165f8181527f448256db8f8fb95ee3eaaf89c1051414494e85cebb6057fcf996cc3d0ccfb45660205260408120805460ff191660011790553391907f97667070c54ef182b0f5858b034beac1b6f3089aa2d3188bb1e8929f4fa9b929907f2f8788117e7eff1d82e926ec794901d17c78024a50270940304540a733656f0d9080a4600190565b505f90565b6001600160a01b0381165f9081527fb7db2dd08fcb62d0c9e08c51941cae53c267786a0b75803fb7960902fc8ef97d602052604090205460ff1661383c576001600160a01b03165f8181527fb7db2dd08fcb62d0c9e08c51941cae53c267786a0b75803fb7960902fc8ef97d60205260408120805460ff191660011790553391907f2f8788117e7eff1d82e926ec794901d17c78024a50270940304540a733656f0d8180a4600190565b805f525f5160206146045f395f51905f5260205260405f206001600160a01b0383165f5260205260ff60405f205416155f1461398c57805f525f5160206146045f395f51905f5260205260405f206001600160a01b0383165f5260205260405f20600160ff198254161790556001600160a01b03339216907f2f8788117e7eff1d82e926ec794901d17c78024a50270940304540a733656f0d5f80a4600190565b50505f90565b6001600160a01b035f5160206145e45f395f51905f52541633036139b257565b7f118cdaa7000000000000000000000000000000000000000000000000000000005f523360045260245ffd5b6001600160a01b0381165f9081527f448256db8f8fb95ee3eaaf89c1051414494e85cebb6057fcf996cc3d0ccfb456602052604090205460ff161561383c576001600160a01b03165f8181527f448256db8f8fb95ee3eaaf89c1051414494e85cebb6057fcf996cc3d0ccfb45660205260408120805460ff191690553391907f97667070c54ef182b0f5858b034beac1b6f3089aa2d3188bb1e8929f4fa9b929907ff6391f5c32d9c69d2a47ea670b442974b53935d1edc7fd64eb21e047a839171b9080a4600190565b805f525f5160206146045f395f51905f5260205260405f206001600160a01b0383165f5260205260ff60405f2054165f1461398c57805f525f5160206146045f395f51905f5260205260405f206001600160a01b0383165f5260205260405f2060ff1981541690556001600160a01b03339216907ff6391f5c32d9c69d2a47ea670b442974b53935d1edc7fd64eb21e047a839171b5f80a4600190565b805f52600160205260405f2063ffffffff815460a01c1615613eb7576001600160a01b0360018201541690815f5260046020526001600160a01b0360405f20541690613b9282151561301d565b80549260028201928354946126ac86028681046126ac148715171561325957612710906001600160a01b0360405193613bca85612ce5565b63ffffffff8160a01c168552166020840152876040840152046060820152602095604051613bf88882612d01565b5f81526080830152604051613c0d8882612d01565b5f815260a0830152604051613c228882612d01565b5f815260c083015260405193633b6f743b60e01b85526040600486015260408580613c5060448201876130a1565b5f60248301520381875afa948515610f4b575f95613e7c575b5047855111613e38578792613c85859360c096613cc69461445e565b855190604051968795869485937fc7c7f5b30000000000000000000000000000000000000000000000000000000085526080600486015260848501906130a1565b91805160248501520151604483015230606483015203925af19081613db8575b50613d52575050815f526001815260ff600660405f2001541690825f5260018152613d186005600660405f200161435d565b613d256040518093612ea0565b8160056040927f9d93915ed14aa5ee42cdad6a94e043c46a0272ca711f0dd244ffdb742aec166e940152a2565b839250613db390613d847f1106cc1287edd0e75f58cce467245b502d6d32a6d3c75965a7e9b89a889fad059395614375565b5493546040805191825260a086901c63ffffffff1660208301526001600160a01b039095169490918291820190565b0390a3565b60c03d60c011613e31575b613dcd8183612d01565b810181810360c081126102d8576080136102d85760405191613dee83612cac565b80518352868101519067ffffffffffffffff821682036102d8578360809289613e2a9601526040613e2185828501613068565b91015201613068565b505f613ce6565b503d613dc3565b6064886040519062461bcd60e51b82526004820152601b60248201527f496e73756666696369656e742045544820666f7220726566756e6400000000006044820152fd5b90945060403d604011613eb0575b613e948183612d01565b81016040828203126102d857613ea991613068565b935f613c69565b503d613e8a565b90613ec181614375565b7f1106cc1287edd0e75f58cce467245b502d6d32a6d3c75965a7e9b89a889fad0560406001600160a01b038060018601541694613f0982825416966002830197885491613f1b565b5416935481519081525f6020820152a3565b6040517fa9059cbb0000000000000000000000000000000000000000000000000000000060208201526001600160a01b03929092166024830152604480830193909352918152612e3891613f70606483612d01565b61451f565b90806002116102d8576003823560f01c03613f8e575050565b613369604051928392639a6d49cd60e01b84526020600485015260248401916132c3565b84515f9490156142fd57506040516338d52e0f60e01b81526001600160a01b038316602082600481845afa918215610f4b575f926142b8575b5060206001600160a01b03926024604051809581936370a0823160e01b8352306004840152165afa918215610f4b575f92614284575b50803b156102d8576040517f12d36fd300000000000000000000000000000000000000000000000000000000815260248101602060048301528851809152816044810160448360051b8301019260208c01915f905b8282106142315750505050805f92038183865af18015610f4b5761421b575b506020600491604051928380926338d52e0f60e01b82525afa9081156141c75786916141d2575b5060206001600160a01b03916024604051809481936370a0823160e01b8352306004840152165afa9081156141c7578691614195575b508181039581871161418157501461413d577fba4c6c9488e6d90701664a57f312029534dbfb8d5a53b93cbd44a8d957bad3166040612d9096518151908152866020820152a2613597565b606460405162461bcd60e51b815260206004820152601660248201527f5a61702070726f6475636564206e6f206f7574707574000000000000000000006044820152fd5b80634e487b7160e01b602492526011600452fd5b90506020813d6020116141bf575b816141b060209383612d01565b810103126102d857515f6140f2565b3d91506141a3565b6040513d88823e3d90fd5b90506020813d602011614213575b816141ed60209383612d01565b8101031261420f5760206142086001600160a01b03926133f4565b91506140bc565b8580fd5b3d91506141e0565b6142289196505f90612d01565b5f946020614095565b91935091936020806001926043198982030185528751906001600160a01b03825116815260408061426f858501516060878601526060850190612da4565b93015191015296019201920185939192614076565b9091506020813d6020116142b0575b816142a060209383612d01565b810103126102d85751905f614021565b3d9150614293565b91506020823d6020116142f5575b816142d360209383612d01565b810103126102d85760206142ee6001600160a01b03936133f4565b9250613feb565b3d91506142c6565b935050612d909350613597565b60ff7fcd5ed15c6e187e77e9aee88184c21f4f2182ab5827cb3b7e07fbedcd63f03300541661433557565b7fd93c0665000000000000000000000000000000000000000000000000000000005f5260045ffd5b9060068110156103ed5760ff80198354169116179055565b5f818152600160205260409020600601805460ff16906143979060049061435d565b6143a46040518092612ea0565b604081600460207f9d93915ed14aa5ee42cdad6a94e043c46a0272ca711f0dd244ffdb742aec166e940152a2565b9061440f57508051156143e757805190602001fd5b7fd6bda275000000000000000000000000000000000000000000000000000000005f5260045ffd5b81511580614455575b614420575090565b6001600160a01b03907f9996b315000000000000000000000000000000000000000000000000000000005f521660045260245ffd5b50803b15614418565b60405163095ea7b360e01b60208083019182526001600160a01b0385166024840152604480840196909652948252929390925f9061449d606486612d01565b84519082855af15f513d826144fa575b5050156144b957505050565b613f70612e38936001600160a01b036040519163095ea7b360e01b60208401521660248201525f6044820152604481526144f4606482612d01565b8261451f565b90915061451757506001600160a01b0381163b15155b5f806144ad565b600114614510565b905f602091828151910182855af115610f4b575f513d61458357506001600160a01b0381163b155b61454e5750565b6001600160a01b03907f5274afe7000000000000000000000000000000000000000000000000000000005f521660045260245ffd5b60011415614547565b60ff7ff0c57e16840df040f15088dc2f81fe391c3923bec73e23a9662efc9c229c6a005460401c16156145bb57565b7fd7e6bcf8000000000000000000000000000000000000000000000000000000005f5260045ffdfe9016d09d72d40fdae2fd8ceac6b6234c7706214fd39c1cd1e609a0528c19930002dd7bc7dec4dceedda775e58dd541e08a116c6c53815c0bd028192f7b626800a164736f6c634300081c000af0c57e16840df040f15088dc2f81fe391c3923bec73e23a9662efc9c229c6a00","linkReferences":{}},"methodIdentifiers":{"DEFAULT_ADMIN_ROLE()":"a217fddf","OPERATOR_ROLE()":"f5b541a6","UPGRADE_INTERFACE_VERSION()":"ad3cb1cc","allowInitializePath((uint32,bytes32,uint64))":"ff7bd03d","batchManualRefund(uint256[])":"02d19adb","combineOptions(uint32,uint16,bytes)":"bc70b354","depositRecords(uint256)":"72605228","depositRefundGas()":"cc69bcb0","depositToVault(address,address,uint256)":"17536c06","emergencyRecover(address,address,uint256)":"ad1329d1","endpoint()":"5e280f11","enforcedOptions(uint32,uint16)":"5535d461","getDepositRecord(uint256)":"db95e75c","getFailedDeposits(uint256,uint256)":"f0ed9800","getRoleAdmin(bytes32)":"248a9ca3","getUserDepositIds(address)":"d4e4487d","grantRole(bytes32,address)":"2f2ff15d","hasRole(bytes32,address)":"91d14854","initialize(address)":"c4d66de8","isComposeMsgSender((uint32,bytes32,uint64),bytes,address)":"82413eac","isVaultSupported(address)":"240825cb","lzCompose(address,bytes32,bytes,address,bytes)":"d0a10260","lzReceive((uint32,bytes32,uint64),bytes32,bytes,address,bytes)":"13137d65","manageBatch((address,bytes,uint256)[])":"12d36fd3","manualRefund(uint256)":"8c75b1c7","nextNonce(uint32,bytes32)":"7d25a05e","oAppVersion()":"17442b70","owner()":"8da5cb5b","pause()":"8456cb59","paused()":"5c975abb","peers(uint32)":"bb0b6a53","processDeposit(uint256,address,address,address,uint256,(address,bytes,uint256)[])":"c3667dee","proxiableUUID()":"52d1902d","quoteRefundFee(uint256)":"9b3fa759","removeOperator(address)":"ac8a584a","renounceOwnership()":"715018a6","renounceRole(bytes32,address)":"36568abe","revokeRole(bytes32,address)":"d547741f","safeAttemptRefund(uint256)":"8d916c22","setDelegate(address)":"ca5eb5e1","setEnforcedOptions((uint32,uint16,bytes)[])":"b98bd070","setOperator(address)":"b3ab15fb","setPeer(uint32,bytes32)":"3400288b","setSupportedOFT(address,address,bool)":"e5b319a3","setSupportedVault(address,bool)":"b7ac6192","supportedOFTs(address)":"2548af6c","supportedVaults(address)":"b71b73c3","supportsInterface(bytes4)":"01ffc9a7","tokenToOFT(address)":"b297c991","totalDeposits()":"7d882097","transferOwnership(address)":"f2fde38b","unpause()":"3f4ba83a","upgradeToAndCall(address,bytes)":"4f1ef286","userDepositIds(address,uint256)":"d6236628"},"storageLayout":{"storage":[{"astId":50938,"contract":"src/adapters/layerzero/CrosschainDepositAdapter.sol:CrosschainDepositAdapter","label":"totalDeposits","offset":0,"slot":"0","type":"t_uint256"},{"astId":50943,"contract":"src/adapters/layerzero/CrosschainDepositAdapter.sol:CrosschainDepositAdapter","label":"depositRecords","offset":0,"slot":"1","type":"t_mapping(t_uint256,t_struct(DepositRecord)53330_storage)"},{"astId":50948,"contract":"src/adapters/layerzero/CrosschainDepositAdapter.sol:CrosschainDepositAdapter","label":"userDepositIds","offset":0,"slot":"2","type":"t_mapping(t_address,t_array(t_uint256)dyn_storage)"},{"astId":50952,"contract":"src/adapters/layerzero/CrosschainDepositAdapter.sol:CrosschainDepositAdapter","label":"supportedVaults","offset":0,"slot":"3","type":"t_mapping(t_address,t_bool)"},{"astId":50956,"contract":"src/adapters/layerzero/CrosschainDepositAdapter.sol:CrosschainDepositAdapter","label":"tokenToOFT","offset":0,"slot":"4","type":"t_mapping(t_address,t_address)"},{"astId":50960,"contract":"src/adapters/layerzero/CrosschainDepositAdapter.sol:CrosschainDepositAdapter","label":"supportedOFTs","offset":0,"slot":"5","type":"t_mapping(t_address,t_bool)"},{"astId":52297,"contract":"src/adapters/layerzero/CrosschainDepositAdapter.sol:CrosschainDepositAdapter","label":"__gap","offset":0,"slot":"6","type":"t_array(t_uint256)50_storage"}],"types":{"t_address":{"encoding":"inplace","label":"address","numberOfBytes":"20"},"t_array(t_uint256)50_storage":{"encoding":"inplace","label":"uint256[50]","numberOfBytes":"1600","base":"t_uint256"},"t_array(t_uint256)dyn_storage":{"encoding":"dynamic_array","label":"uint256[]","numberOfBytes":"32","base":"t_uint256"},"t_bool":{"encoding":"inplace","label":"bool","numberOfBytes":"1"},"t_bytes32":{"encoding":"inplace","label":"bytes32","numberOfBytes":"32"},"t_bytes_storage":{"encoding":"bytes","label":"bytes","numberOfBytes":"32"},"t_enum(DepositStatus)53307":{"encoding":"inplace","label":"enum ICrosschainDepositAdapter.DepositStatus","numberOfBytes":"1"},"t_mapping(t_address,t_address)":{"encoding":"mapping","key":"t_address","label":"mapping(address => address)","numberOfBytes":"32","value":"t_address"},"t_mapping(t_address,t_array(t_uint256)dyn_storage)":{"encoding":"mapping","key":"t_address","label":"mapping(address => uint256[])","numberOfBytes":"32","value":"t_array(t_uint256)dyn_storage"},"t_mapping(t_address,t_bool)":{"encoding":"mapping","key":"t_address","label":"mapping(address => bool)","numberOfBytes":"32","value":"t_bool"},"t_mapping(t_uint256,t_struct(DepositRecord)53330_storage)":{"encoding":"mapping","key":"t_uint256","label":"mapping(uint256 => struct ICrosschainDepositAdapter.DepositRecord)","numberOfBytes":"32","value":"t_struct(DepositRecord)53330_storage"},"t_struct(DepositRecord)53330_storage":{"encoding":"inplace","label":"struct ICrosschainDepositAdapter.DepositRecord","numberOfBytes":"288","members":[{"astId":53310,"contract":"src/adapters/layerzero/CrosschainDepositAdapter.sol:CrosschainDepositAdapter","label":"user","offset":0,"slot":"0","type":"t_address"},{"astId":53312,"contract":"src/adapters/layerzero/CrosschainDepositAdapter.sol:CrosschainDepositAdapter","label":"srcEid","offset":20,"slot":"0","type":"t_uint32"},{"astId":53314,"contract":"src/adapters/layerzero/CrosschainDepositAdapter.sol:CrosschainDepositAdapter","label":"tokenIn","offset":0,"slot":"1","type":"t_address"},{"astId":53316,"contract":"src/adapters/layerzero/CrosschainDepositAdapter.sol:CrosschainDepositAdapter","label":"amountIn","offset":0,"slot":"2","type":"t_uint256"},{"astId":53318,"contract":"src/adapters/layerzero/CrosschainDepositAdapter.sol:CrosschainDepositAdapter","label":"vault","offset":0,"slot":"3","type":"t_address"},{"astId":53320,"contract":"src/adapters/layerzero/CrosschainDepositAdapter.sol:CrosschainDepositAdapter","label":"sharesReceived","offset":0,"slot":"4","type":"t_uint256"},{"astId":53322,"contract":"src/adapters/layerzero/CrosschainDepositAdapter.sol:CrosschainDepositAdapter","label":"timestamp","offset":0,"slot":"5","type":"t_uint256"},{"astId":53325,"contract":"src/adapters/layerzero/CrosschainDepositAdapter.sol:CrosschainDepositAdapter","label":"status","offset":0,"slot":"6","type":"t_enum(DepositStatus)53307"},{"astId":53327,"contract":"src/adapters/layerzero/CrosschainDepositAdapter.sol:CrosschainDepositAdapter","label":"guid","offset":0,"slot":"7","type":"t_bytes32"},{"astId":53329,"contract":"src/adapters/layerzero/CrosschainDepositAdapter.sol:CrosschainDepositAdapter","label":"failureReason","offset":0,"slot":"8","type":"t_bytes_storage"}]},"t_uint256":{"encoding":"inplace","label":"uint256","numberOfBytes":"32"},"t_uint32":{"encoding":"inplace","label":"uint32","numberOfBytes":"4"}}},"id":92}