{"abi":[{"type":"function","name":"DOMAIN_SEPARATOR","inputs":[],"outputs":[{"name":"","type":"bytes32","internalType":"bytes32"}],"stateMutability":"view"},{"type":"function","name":"allowance","inputs":[{"name":"owner","type":"address","internalType":"address"},{"name":"spender","type":"address","internalType":"address"}],"outputs":[{"name":"","type":"uint256","internalType":"uint256"}],"stateMutability":"view"},{"type":"function","name":"approve","inputs":[{"name":"spender","type":"address","internalType":"address"},{"name":"amount","type":"uint256","internalType":"uint256"}],"outputs":[{"name":"","type":"bool","internalType":"bool"}],"stateMutability":"nonpayable"},{"type":"function","name":"balanceOf","inputs":[{"name":"owner","type":"address","internalType":"address"}],"outputs":[{"name":"","type":"uint256","internalType":"uint256"}],"stateMutability":"view"},{"type":"function","name":"decimals","inputs":[],"outputs":[{"name":"","type":"uint8","internalType":"uint8"}],"stateMutability":"view"},{"type":"function","name":"initialize","inputs":[{"name":"name_","type":"string","internalType":"string"},{"name":"symbol_","type":"string","internalType":"string"},{"name":"decimals_","type":"uint8","internalType":"uint8"}],"outputs":[],"stateMutability":"nonpayable"},{"type":"function","name":"name","inputs":[],"outputs":[{"name":"","type":"string","internalType":"string"}],"stateMutability":"view"},{"type":"function","name":"nonces","inputs":[{"name":"","type":"address","internalType":"address"}],"outputs":[{"name":"","type":"uint256","internalType":"uint256"}],"stateMutability":"view"},{"type":"function","name":"permit","inputs":[{"name":"owner","type":"address","internalType":"address"},{"name":"spender","type":"address","internalType":"address"},{"name":"value","type":"uint256","internalType":"uint256"},{"name":"deadline","type":"uint256","internalType":"uint256"},{"name":"v","type":"uint8","internalType":"uint8"},{"name":"r","type":"bytes32","internalType":"bytes32"},{"name":"s","type":"bytes32","internalType":"bytes32"}],"outputs":[],"stateMutability":"nonpayable"},{"type":"function","name":"symbol","inputs":[],"outputs":[{"name":"","type":"string","internalType":"string"}],"stateMutability":"view"},{"type":"function","name":"totalSupply","inputs":[],"outputs":[{"name":"","type":"uint256","internalType":"uint256"}],"stateMutability":"view"},{"type":"function","name":"transfer","inputs":[{"name":"to","type":"address","internalType":"address"},{"name":"amount","type":"uint256","internalType":"uint256"}],"outputs":[{"name":"","type":"bool","internalType":"bool"}],"stateMutability":"nonpayable"},{"type":"function","name":"transferFrom","inputs":[{"name":"from","type":"address","internalType":"address"},{"name":"to","type":"address","internalType":"address"},{"name":"amount","type":"uint256","internalType":"uint256"}],"outputs":[{"name":"","type":"bool","internalType":"bool"}],"stateMutability":"nonpayable"},{"type":"event","name":"Approval","inputs":[{"name":"owner","type":"address","indexed":true,"internalType":"address"},{"name":"spender","type":"address","indexed":true,"internalType":"address"},{"name":"value","type":"uint256","indexed":false,"internalType":"uint256"}],"anonymous":false},{"type":"event","name":"Transfer","inputs":[{"name":"from","type":"address","indexed":true,"internalType":"address"},{"name":"to","type":"address","indexed":true,"internalType":"address"},{"name":"value","type":"uint256","indexed":false,"internalType":"uint256"}],"anonymous":false}],"bytecode":{"object":"0x60808060405234601557610e3f908161001a8239f35b5f80fdfe6080806040526004361015610012575f80fd5b5f3560e01c90816306fdde0314610af257508063095ea7b314610a7a5780631624f6c61461069657806318160ddd1461067957806323b872dd14610586578063313ce567146105665780633644e5151461054457806370a082311461050c5780637ecebe00146104d457806395d89b41146103fa578063a9059cbb14610356578063d505accf146101035763dd62ed3e146100ab575f80fd5b346100ff5760403660031901126100ff576100c4610b61565b6001600160a01b036100d4610b77565b91165f5260056020526001600160a01b0360405f2091165f52602052602060405f2054604051908152f35b5f80fd5b346100ff5760e03660031901126100ff5761011c610b61565b610124610b77565b604435606435916084359260ff84168094036100ff57428110610312576001600160a01b03610151610cda565b951693845f52600860205260405f20908154965f1988146102fe576020945f9460809460018b019055604051906001600160a01b03888301937f6e71edae12b1b97f4d1f60370fef10105fa2faae0126114a169c64845d6126c985528b6040850152169a8b6060840152898784015260a083015260c082015260c081526101d960e082610b8d565b51902060405190868201927f190100000000000000000000000000000000000000000000000000000000000084526022830152604282015260428152610220606282610b8d565b519020906040519182528482015260a435604082015260c435606082015282805260015afa156102f3576001600160a01b035f5116801515806102ea575b156102a6577f8c5be1e5ebec7d5bd14f71427d1e84f3dd0314c0f7b2291e5b200ac8c7c3b925916020915f526005825260405f20855f5282528060405f2055604051908152a3005b606460405162461bcd60e51b815260206004820152600e60248201527f494e56414c49445f5349474e45520000000000000000000000000000000000006044820152fd5b5082811461025e565b6040513d5f823e3d90fd5b634e487b7160e01b5f52601160045260245ffd5b606460405162461bcd60e51b815260206004820152601760248201527f5045524d49545f444541444c494e455f455850495245440000000000000000006044820152fd5b346100ff5760403660031901126100ff5761036f610b61565b6001600160a01b0360243591335f5260046020526103918360405f2054610d82565b335f52600460205260405f20551690815f5260046020526103b68160405f2054610dda565b825f52600460205260405f20556040519081527fddf252ad1be2c89b69c2b068fc378daa952ba7f163c4a11628f55a4df523b3ef60203392a3602060405160018152f35b346100ff575f3660031901126100ff576040515f60015461041a81610c05565b80845290600181169081156104b05750600114610452575b61044e8361044281850382610b8d565b60405191829182610b1a565b0390f35b60015f9081527fb10e2d527612073b26eecdfd717e6a320cf44b4afac2b0732d9fcbe2b7fa0cf6939250905b80821061049657509091508101602001610442610432565b91926001816020925483858801015201910190929161047e565b60ff191660208086019190915291151560051b840190910191506104429050610432565b346100ff5760203660031901126100ff576001600160a01b036104f5610b61565b165f526008602052602060405f2054604051908152f35b346100ff5760203660031901126100ff576001600160a01b0361052d610b61565b165f526004602052602060405f2054604051908152f35b346100ff575f3660031901126100ff57602061055e610cda565b604051908152f35b346100ff575f3660031901126100ff57602060ff60025416604051908152f35b346100ff5760603660031901126100ff5761059f610b61565b6105a7610b77565b7fddf252ad1be2c89b69c2b068fc378daa952ba7f163c4a11628f55a4df523b3ef60206001600160a01b0380604435951693845f526005835260405f208233165f52835260405f2054865f198203610652575b5050845f52600483526106118660405f2054610d82565b855f526004845260405f20551693845f52600482526106348160405f2054610dda565b855f526004835260405f2055604051908152a3602060405160018152f35b61065b91610d82565b855f526005845260405f208333165f52845260405f205586866105fa565b346100ff575f3660031901126100ff576020600354604051908152f35b346100ff5760603660031901126100ff5760043567ffffffffffffffff81116100ff576106c7903690600401610baf565b60243567ffffffffffffffff81116100ff576106e7903690600401610baf565b60443560ff81168091036100ff5760ff60095416610a3657825167ffffffffffffffff81116108f85761071a5f54610c05565b601f8111610996575b506020601f821160011461091757819293945f9261090c575b50508160011b915f199060031b1c1916175f555b815167ffffffffffffffff81116108f85761076c600154610c05565b601f8111610857575b50602092601f82116001146107d857928192935f926107cd575b50508160011b915f199060031b1c1916176001555b60ff196002541617600255466006556107bb610cf4565b6007556009805460ff19166001179055005b01519050838061078f565b601f1982169360015f527fb10e2d527612073b26eecdfd717e6a320cf44b4afac2b0732d9fcbe2b7fa0cf6915f5b86811061083f5750836001959610610827575b505050811b016001556107a4565b01515f1960f88460031b161c19169055838080610819565b91926020600181928685015181550194019201610806565b60015f52601f820160051c7fb10e2d527612073b26eecdfd717e6a320cf44b4afac2b0732d9fcbe2b7fa0cf60190602083106108d0575b601f0160051c7fb10e2d527612073b26eecdfd717e6a320cf44b4afac2b0732d9fcbe2b7fa0cf601905b8181106108c55750610775565b5f81556001016108b8565b7fb10e2d527612073b26eecdfd717e6a320cf44b4afac2b0732d9fcbe2b7fa0cf6915061088e565b634e487b7160e01b5f52604160045260245ffd5b01519050848061073c565b601f198216905f80527f290decd9548b62a8d60345a988386fc84ba6bc95484008f6362f93160ef3e563915f5b81811061097e57509583600195969710610966575b505050811b015f55610750565b01515f1960f88460031b161c19169055848080610959565b9192602060018192868b015181550194019201610944565b5f8052601f820160051c7f290decd9548b62a8d60345a988386fc84ba6bc95484008f6362f93160ef3e563019060208310610a0e575b601f0160051c7f290decd9548b62a8d60345a988386fc84ba6bc95484008f6362f93160ef3e56301905b818110610a035750610723565b5f81556001016109f6565b7f290decd9548b62a8d60345a988386fc84ba6bc95484008f6362f93160ef3e56391506109cc565b606460405162461bcd60e51b815260206004820152601360248201527f414c52454144595f494e495449414c495a4544000000000000000000000000006044820152fd5b346100ff5760403660031901126100ff57610a93610b61565b6001600160a01b0360243591335f52600560205260405f208282165f526020528260405f205560405192835216907f8c5be1e5ebec7d5bd14f71427d1e84f3dd0314c0f7b2291e5b200ac8c7c3b92560203392a3602060405160018152f35b346100ff575f3660031901126100ff578061044281610b1361044e94610c3d565b0382610b8d565b9190916020815282518060208301525f5b818110610b4b575060409293505f838284010152601f8019910116010190565b8060208092870101516040828601015201610b2b565b600435906001600160a01b03821682036100ff57565b602435906001600160a01b03821682036100ff57565b90601f8019910116810190811067ffffffffffffffff8211176108f857604052565b81601f820112156100ff5780359067ffffffffffffffff82116108f85760405192610be4601f8401601f191660200185610b8d565b828452602083830101116100ff57815f926020809301838601378301015290565b90600182811c92168015610c33575b6020831014610c1f57565b634e487b7160e01b5f52602260045260245ffd5b91607f1691610c14565b905f915f5490610c4c82610c05565b8082529160018116908115610cbe5750600114610c67575050565b5f8080529293509091907f290decd9548b62a8d60345a988386fc84ba6bc95484008f6362f93160ef3e5635b838310610ca4575060209250010190565b600181602092949394548385870101520191019190610c93565b9050602093945060ff929192191683830152151560051b010190565b6006544603610ce95760075490565b610cf1610cf4565b90565b604051610d0481610b1381610c3d565b6020815191012060405160208101917f8b73c3c69bb8fe3d512ecc4cf759cc79239f7b179b0ffacaa9a75d522b39400f835260408201527fc89efdaa54c0f20c7adf612882df0950f5a951637e0307cdcb4c672f298b8bc660608201524660808201523060a082015260a08152610d7c60c082610b8d565b51902090565b90808210610d965781039081116102fe5790565b606460405162461bcd60e51b815260206004820152601c60248201527f45524332303a207375627472616374696f6e20756e646572666c6f77000000006044820152fd5b908101908181116102fe578110610dee5790565b606460405162461bcd60e51b815260206004820152601860248201527f45524332303a206164646974696f6e206f766572666c6f7700000000000000006044820152fdfea164736f6c634300081c000a","linkReferences":{}},"methodIdentifiers":{"DOMAIN_SEPARATOR()":"3644e515","allowance(address,address)":"dd62ed3e","approve(address,uint256)":"095ea7b3","balanceOf(address)":"70a08231","decimals()":"313ce567","initialize(string,string,uint8)":"1624f6c6","name()":"06fdde03","nonces(address)":"7ecebe00","permit(address,address,uint256,uint256,uint8,bytes32,bytes32)":"d505accf","symbol()":"95d89b41","totalSupply()":"18160ddd","transfer(address,uint256)":"a9059cbb","transferFrom(address,address,uint256)":"23b872dd"},"storageLayout":{"storage":[{"astId":34092,"contract":"node_modules/forge-std/src/mocks/MockERC20.sol:MockERC20","label":"_name","offset":0,"slot":"0","type":"t_string_storage"},{"astId":34094,"contract":"node_modules/forge-std/src/mocks/MockERC20.sol:MockERC20","label":"_symbol","offset":0,"slot":"1","type":"t_string_storage"},{"astId":34096,"contract":"node_modules/forge-std/src/mocks/MockERC20.sol:MockERC20","label":"_decimals","offset":0,"slot":"2","type":"t_uint8"},{"astId":34125,"contract":"node_modules/forge-std/src/mocks/MockERC20.sol:MockERC20","label":"_totalSupply","offset":0,"slot":"3","type":"t_uint256"},{"astId":34129,"contract":"node_modules/forge-std/src/mocks/MockERC20.sol:MockERC20","label":"_balanceOf","offset":0,"slot":"4","type":"t_mapping(t_address,t_uint256)"},{"astId":34135,"contract":"node_modules/forge-std/src/mocks/MockERC20.sol:MockERC20","label":"_allowance","offset":0,"slot":"5","type":"t_mapping(t_address,t_mapping(t_address,t_uint256))"},{"astId":34176,"contract":"node_modules/forge-std/src/mocks/MockERC20.sol:MockERC20","label":"INITIAL_CHAIN_ID","offset":0,"slot":"6","type":"t_uint256"},{"astId":34178,"contract":"node_modules/forge-std/src/mocks/MockERC20.sol:MockERC20","label":"INITIAL_DOMAIN_SEPARATOR","offset":0,"slot":"7","type":"t_bytes32"},{"astId":34182,"contract":"node_modules/forge-std/src/mocks/MockERC20.sol:MockERC20","label":"nonces","offset":0,"slot":"8","type":"t_mapping(t_address,t_uint256)"},{"astId":34185,"contract":"node_modules/forge-std/src/mocks/MockERC20.sol:MockERC20","label":"initialized","offset":0,"slot":"9","type":"t_bool"}],"types":{"t_address":{"encoding":"inplace","label":"address","numberOfBytes":"20"},"t_bool":{"encoding":"inplace","label":"bool","numberOfBytes":"1"},"t_bytes32":{"encoding":"inplace","label":"bytes32","numberOfBytes":"32"},"t_mapping(t_address,t_mapping(t_address,t_uint256))":{"encoding":"mapping","key":"t_address","label":"mapping(address => mapping(address => uint256))","numberOfBytes":"32","value":"t_mapping(t_address,t_uint256)"},"t_mapping(t_address,t_uint256)":{"encoding":"mapping","key":"t_address","label":"mapping(address => uint256)","numberOfBytes":"32","value":"t_uint256"},"t_string_storage":{"encoding":"bytes","label":"string","numberOfBytes":"32"},"t_uint256":{"encoding":"inplace","label":"uint256","numberOfBytes":"32"},"t_uint8":{"encoding":"inplace","label":"uint8","numberOfBytes":"1"}}},"id":51}