{"abi":[{"type":"constructor","inputs":[],"stateMutability":"nonpayable"},{"type":"receive","stateMutability":"payable"},{"type":"function","name":"aggregatedUnderlyingBalances","inputs":[],"outputs":[{"name":"","type":"uint256","internalType":"uint256"}],"stateMutability":"view"},{"type":"function","name":"allowance","inputs":[{"name":"owner","type":"address","internalType":"address"},{"name":"spender","type":"address","internalType":"address"}],"outputs":[{"name":"","type":"uint256","internalType":"uint256"}],"stateMutability":"view"},{"type":"function","name":"approve","inputs":[{"name":"spender","type":"address","internalType":"address"},{"name":"value","type":"uint256","internalType":"uint256"}],"outputs":[{"name":"","type":"bool","internalType":"bool"}],"stateMutability":"nonpayable"},{"type":"function","name":"asset","inputs":[],"outputs":[{"name":"","type":"address","internalType":"address"}],"stateMutability":"view"},{"type":"function","name":"authority","inputs":[],"outputs":[{"name":"","type":"address","internalType":"contract Authority"}],"stateMutability":"view"},{"type":"function","name":"balanceOf","inputs":[{"name":"account","type":"address","internalType":"address"}],"outputs":[{"name":"","type":"uint256","internalType":"uint256"}],"stateMutability":"view"},{"type":"function","name":"balanceUpdateHook","inputs":[],"outputs":[{"name":"","type":"address","internalType":"contract IBalanceUpdateHook"}],"stateMutability":"view"},{"type":"function","name":"cancelRedeem","inputs":[{"name":"receiver","type":"address","internalType":"address"},{"name":"shares","type":"uint256","internalType":"uint256"},{"name":"assets","type":"uint256","internalType":"uint256"}],"outputs":[],"stateMutability":"nonpayable"},{"type":"function","name":"convertToAssets","inputs":[{"name":"shares","type":"uint256","internalType":"uint256"}],"outputs":[{"name":"","type":"uint256","internalType":"uint256"}],"stateMutability":"view"},{"type":"function","name":"convertToShares","inputs":[{"name":"assets","type":"uint256","internalType":"uint256"}],"outputs":[{"name":"","type":"uint256","internalType":"uint256"}],"stateMutability":"view"},{"type":"function","name":"decimals","inputs":[],"outputs":[{"name":"","type":"uint8","internalType":"uint8"}],"stateMutability":"view"},{"type":"function","name":"deposit","inputs":[{"name":"assets","type":"uint256","internalType":"uint256"},{"name":"receiver","type":"address","internalType":"address"}],"outputs":[{"name":"","type":"uint256","internalType":"uint256"}],"stateMutability":"nonpayable"},{"type":"function","name":"fulfillRedeem","inputs":[{"name":"receiver","type":"address","internalType":"address"},{"name":"shares","type":"uint256","internalType":"uint256"},{"name":"assets","type":"uint256","internalType":"uint256"}],"outputs":[],"stateMutability":"nonpayable"},{"type":"function","name":"getAvailableBalance","inputs":[],"outputs":[{"name":"","type":"uint256","internalType":"uint256"}],"stateMutability":"view"},{"type":"function","name":"initialize","inputs":[{"name":"_asset","type":"address","internalType":"contract IERC20"},{"name":"_owner","type":"address","internalType":"address"},{"name":"_balanceUpdateHook","type":"address","internalType":"contract IBalanceUpdateHook"},{"name":"_redemptionHook","type":"address","internalType":"contract IRedemptionHook"},{"name":"_name","type":"string","internalType":"string"},{"name":"_symbol","type":"string","internalType":"string"}],"outputs":[],"stateMutability":"nonpayable"},{"type":"function","name":"isAuthorized","inputs":[{"name":"user","type":"address","internalType":"address"},{"name":"functionSig","type":"bytes4","internalType":"bytes4"}],"outputs":[{"name":"","type":"bool","internalType":"bool"}],"stateMutability":"view"},{"type":"function","name":"lastBlockUpdated","inputs":[],"outputs":[{"name":"","type":"uint256","internalType":"uint256"}],"stateMutability":"view"},{"type":"function","name":"lastPricePerShare","inputs":[],"outputs":[{"name":"","type":"uint256","internalType":"uint256"}],"stateMutability":"view"},{"type":"function","name":"manage","inputs":[{"name":"target","type":"address","internalType":"address"},{"name":"data","type":"bytes","internalType":"bytes"},{"name":"value","type":"uint256","internalType":"uint256"}],"outputs":[{"name":"result","type":"bytes","internalType":"bytes"}],"stateMutability":"nonpayable"},{"type":"function","name":"maxDeposit","inputs":[{"name":"receiver","type":"address","internalType":"address"}],"outputs":[{"name":"","type":"uint256","internalType":"uint256"}],"stateMutability":"view"},{"type":"function","name":"maxMint","inputs":[{"name":"receiver","type":"address","internalType":"address"}],"outputs":[{"name":"","type":"uint256","internalType":"uint256"}],"stateMutability":"view"},{"type":"function","name":"maxRedeem","inputs":[{"name":"owner","type":"address","internalType":"address"}],"outputs":[{"name":"","type":"uint256","internalType":"uint256"}],"stateMutability":"view"},{"type":"function","name":"maxWithdraw","inputs":[{"name":"owner","type":"address","internalType":"address"}],"outputs":[{"name":"","type":"uint256","internalType":"uint256"}],"stateMutability":"view"},{"type":"function","name":"mint","inputs":[{"name":"shares","type":"uint256","internalType":"uint256"},{"name":"receiver","type":"address","internalType":"address"}],"outputs":[{"name":"","type":"uint256","internalType":"uint256"}],"stateMutability":"nonpayable"},{"type":"function","name":"name","inputs":[],"outputs":[{"name":"","type":"string","internalType":"string"}],"stateMutability":"view"},{"type":"function","name":"onERC1155BatchReceived","inputs":[{"name":"","type":"address","internalType":"address"},{"name":"","type":"address","internalType":"address"},{"name":"","type":"uint256[]","internalType":"uint256[]"},{"name":"","type":"uint256[]","internalType":"uint256[]"},{"name":"","type":"bytes","internalType":"bytes"}],"outputs":[{"name":"","type":"bytes4","internalType":"bytes4"}],"stateMutability":"pure"},{"type":"function","name":"onERC1155Received","inputs":[{"name":"","type":"address","internalType":"address"},{"name":"","type":"address","internalType":"address"},{"name":"","type":"uint256","internalType":"uint256"},{"name":"","type":"uint256","internalType":"uint256"},{"name":"","type":"bytes","internalType":"bytes"}],"outputs":[{"name":"","type":"bytes4","internalType":"bytes4"}],"stateMutability":"pure"},{"type":"function","name":"onERC721Received","inputs":[{"name":"","type":"address","internalType":"address"},{"name":"","type":"address","internalType":"address"},{"name":"","type":"uint256","internalType":"uint256"},{"name":"","type":"bytes","internalType":"bytes"}],"outputs":[{"name":"","type":"bytes4","internalType":"bytes4"}],"stateMutability":"pure"},{"type":"function","name":"owner","inputs":[],"outputs":[{"name":"","type":"address","internalType":"address"}],"stateMutability":"view"},{"type":"function","name":"pause","inputs":[],"outputs":[],"stateMutability":"nonpayable"},{"type":"function","name":"paused","inputs":[],"outputs":[{"name":"","type":"bool","internalType":"bool"}],"stateMutability":"view"},{"type":"function","name":"pendingRedeemRequest","inputs":[{"name":"user","type":"address","internalType":"address"}],"outputs":[{"name":"assets","type":"uint256","internalType":"uint256"},{"name":"pendingShares","type":"uint256","internalType":"uint256"}],"stateMutability":"view"},{"type":"function","name":"previewDeposit","inputs":[{"name":"assets","type":"uint256","internalType":"uint256"}],"outputs":[{"name":"","type":"uint256","internalType":"uint256"}],"stateMutability":"view"},{"type":"function","name":"previewMint","inputs":[{"name":"shares","type":"uint256","internalType":"uint256"}],"outputs":[{"name":"","type":"uint256","internalType":"uint256"}],"stateMutability":"view"},{"type":"function","name":"previewRedeem","inputs":[{"name":"shares","type":"uint256","internalType":"uint256"}],"outputs":[{"name":"","type":"uint256","internalType":"uint256"}],"stateMutability":"view"},{"type":"function","name":"previewWithdraw","inputs":[{"name":"assets","type":"uint256","internalType":"uint256"}],"outputs":[{"name":"","type":"uint256","internalType":"uint256"}],"stateMutability":"view"},{"type":"function","name":"redeem","inputs":[{"name":"shares","type":"uint256","internalType":"uint256"},{"name":"receiver","type":"address","internalType":"address"},{"name":"owner","type":"address","internalType":"address"}],"outputs":[{"name":"","type":"uint256","internalType":"uint256"}],"stateMutability":"nonpayable"},{"type":"function","name":"redemptionHook","inputs":[],"outputs":[{"name":"","type":"address","internalType":"contract IRedemptionHook"}],"stateMutability":"view"},{"type":"function","name":"requestRedeem","inputs":[{"name":"shares","type":"uint256","internalType":"uint256"},{"name":"receiver","type":"address","internalType":"address"},{"name":"owner","type":"address","internalType":"address"}],"outputs":[{"name":"","type":"uint256","internalType":"uint256"}],"stateMutability":"nonpayable"},{"type":"function","name":"setAuthority","inputs":[{"name":"newAuthority","type":"address","internalType":"contract Authority"}],"outputs":[],"stateMutability":"nonpayable"},{"type":"function","name":"setBalanceUpdateHook","inputs":[{"name":"newAdapter","type":"address","internalType":"contract IBalanceUpdateHook"}],"outputs":[],"stateMutability":"nonpayable"},{"type":"function","name":"setRedemptionHook","inputs":[{"name":"newStrategy","type":"address","internalType":"contract IRedemptionHook"}],"outputs":[],"stateMutability":"nonpayable"},{"type":"function","name":"symbol","inputs":[],"outputs":[{"name":"","type":"string","internalType":"string"}],"stateMutability":"view"},{"type":"function","name":"totalAssets","inputs":[],"outputs":[{"name":"","type":"uint256","internalType":"uint256"}],"stateMutability":"view"},{"type":"function","name":"totalPendingAssets","inputs":[],"outputs":[{"name":"","type":"uint256","internalType":"uint256"}],"stateMutability":"view"},{"type":"function","name":"totalSupply","inputs":[],"outputs":[{"name":"","type":"uint256","internalType":"uint256"}],"stateMutability":"view"},{"type":"function","name":"transfer","inputs":[{"name":"to","type":"address","internalType":"address"},{"name":"value","type":"uint256","internalType":"uint256"}],"outputs":[{"name":"","type":"bool","internalType":"bool"}],"stateMutability":"nonpayable"},{"type":"function","name":"transferFrom","inputs":[{"name":"from","type":"address","internalType":"address"},{"name":"to","type":"address","internalType":"address"},{"name":"value","type":"uint256","internalType":"uint256"}],"outputs":[{"name":"","type":"bool","internalType":"bool"}],"stateMutability":"nonpayable"},{"type":"function","name":"transferOwnership","inputs":[{"name":"newOwner","type":"address","internalType":"address"}],"outputs":[],"stateMutability":"nonpayable"},{"type":"function","name":"unpause","inputs":[],"outputs":[],"stateMutability":"nonpayable"},{"type":"function","name":"updateBalance","inputs":[{"name":"newAggregatedBalance","type":"uint256","internalType":"uint256"}],"outputs":[],"stateMutability":"nonpayable"},{"type":"function","name":"withdraw","inputs":[{"name":"","type":"uint256","internalType":"uint256"},{"name":"","type":"address","internalType":"address"},{"name":"","type":"address","internalType":"address"}],"outputs":[{"name":"","type":"uint256","internalType":"uint256"}],"stateMutability":"nonpayable"},{"type":"event","name":"Approval","inputs":[{"name":"owner","type":"address","indexed":true,"internalType":"address"},{"name":"spender","type":"address","indexed":true,"internalType":"address"},{"name":"value","type":"uint256","indexed":false,"internalType":"uint256"}],"anonymous":false},{"type":"event","name":"AuthorityUpdated","inputs":[{"name":"user","type":"address","indexed":true,"internalType":"address"},{"name":"newAuthority","type":"address","indexed":true,"internalType":"contract Authority"}],"anonymous":false},{"type":"event","name":"BalanceUpdateHookUpdated","inputs":[{"name":"oldHook","type":"address","indexed":true,"internalType":"address"},{"name":"newHook","type":"address","indexed":true,"internalType":"address"}],"anonymous":false},{"type":"event","name":"Deposit","inputs":[{"name":"sender","type":"address","indexed":true,"internalType":"address"},{"name":"owner","type":"address","indexed":true,"internalType":"address"},{"name":"assets","type":"uint256","indexed":false,"internalType":"uint256"},{"name":"shares","type":"uint256","indexed":false,"internalType":"uint256"}],"anonymous":false},{"type":"event","name":"Initialized","inputs":[{"name":"version","type":"uint64","indexed":false,"internalType":"uint64"}],"anonymous":false},{"type":"event","name":"OwnershipTransferred","inputs":[{"name":"user","type":"address","indexed":true,"internalType":"address"},{"name":"newOwner","type":"address","indexed":true,"internalType":"address"}],"anonymous":false},{"type":"event","name":"PPSUpdated","inputs":[{"name":"timestamp","type":"uint256","indexed":true,"internalType":"uint256"},{"name":"oldPPS","type":"uint256","indexed":false,"internalType":"uint256"},{"name":"newPPS","type":"uint256","indexed":false,"internalType":"uint256"}],"anonymous":false},{"type":"event","name":"Paused","inputs":[{"name":"account","type":"address","indexed":false,"internalType":"address"}],"anonymous":false},{"type":"event","name":"Received","inputs":[{"name":"sender","type":"address","indexed":false,"internalType":"address"},{"name":"amount","type":"uint256","indexed":false,"internalType":"uint256"}],"anonymous":false},{"type":"event","name":"RedeemRequest","inputs":[{"name":"receiver","type":"address","indexed":true,"internalType":"address"},{"name":"owner","type":"address","indexed":true,"internalType":"address"},{"name":"assets","type":"uint256","indexed":false,"internalType":"uint256"},{"name":"shares","type":"uint256","indexed":false,"internalType":"uint256"},{"name":"instant","type":"bool","indexed":false,"internalType":"bool"}],"anonymous":false},{"type":"event","name":"RedemptionHookUpdated","inputs":[{"name":"oldHook","type":"address","indexed":true,"internalType":"address"},{"name":"newHook","type":"address","indexed":true,"internalType":"address"}],"anonymous":false},{"type":"event","name":"RequestCancelled","inputs":[{"name":"receiver","type":"address","indexed":true,"internalType":"address"},{"name":"shares","type":"uint256","indexed":false,"internalType":"uint256"},{"name":"assets","type":"uint256","indexed":false,"internalType":"uint256"}],"anonymous":false},{"type":"event","name":"RequestFulfilled","inputs":[{"name":"receiver","type":"address","indexed":true,"internalType":"address"},{"name":"shares","type":"uint256","indexed":false,"internalType":"uint256"},{"name":"assets","type":"uint256","indexed":false,"internalType":"uint256"}],"anonymous":false},{"type":"event","name":"Transfer","inputs":[{"name":"from","type":"address","indexed":true,"internalType":"address"},{"name":"to","type":"address","indexed":true,"internalType":"address"},{"name":"value","type":"uint256","indexed":false,"internalType":"uint256"}],"anonymous":false},{"type":"event","name":"UnderlyingBalanceUpdated","inputs":[{"name":"timestamp","type":"uint256","indexed":true,"internalType":"uint256"},{"name":"oldBalance","type":"uint256","indexed":false,"internalType":"uint256"},{"name":"newBalance","type":"uint256","indexed":false,"internalType":"uint256"}],"anonymous":false},{"type":"event","name":"Unpaused","inputs":[{"name":"account","type":"address","indexed":false,"internalType":"address"}],"anonymous":false},{"type":"event","name":"VaultPausedDueToThreshold","inputs":[{"name":"timestamp","type":"uint256","indexed":true,"internalType":"uint256"},{"name":"oldPPS","type":"uint256","indexed":false,"internalType":"uint256"},{"name":"newPPS","type":"uint256","indexed":false,"internalType":"uint256"}],"anonymous":false},{"type":"event","name":"Withdraw","inputs":[{"name":"sender","type":"address","indexed":true,"internalType":"address"},{"name":"receiver","type":"address","indexed":true,"internalType":"address"},{"name":"owner","type":"address","indexed":true,"internalType":"address"},{"name":"assets","type":"uint256","indexed":false,"internalType":"uint256"},{"name":"shares","type":"uint256","indexed":false,"internalType":"uint256"}],"anonymous":false},{"type":"error","name":"AddressEmptyCode","inputs":[{"name":"target","type":"address","internalType":"address"}]},{"type":"error","name":"ERC20InsufficientAllowance","inputs":[{"name":"spender","type":"address","internalType":"address"},{"name":"allowance","type":"uint256","internalType":"uint256"},{"name":"needed","type":"uint256","internalType":"uint256"}]},{"type":"error","name":"ERC20InsufficientBalance","inputs":[{"name":"sender","type":"address","internalType":"address"},{"name":"balance","type":"uint256","internalType":"uint256"},{"name":"needed","type":"uint256","internalType":"uint256"}]},{"type":"error","name":"ERC20InvalidApprover","inputs":[{"name":"approver","type":"address","internalType":"address"}]},{"type":"error","name":"ERC20InvalidReceiver","inputs":[{"name":"receiver","type":"address","internalType":"address"}]},{"type":"error","name":"ERC20InvalidSender","inputs":[{"name":"sender","type":"address","internalType":"address"}]},{"type":"error","name":"ERC20InvalidSpender","inputs":[{"name":"spender","type":"address","internalType":"address"}]},{"type":"error","name":"ERC4626ExceededMaxDeposit","inputs":[{"name":"receiver","type":"address","internalType":"address"},{"name":"assets","type":"uint256","internalType":"uint256"},{"name":"max","type":"uint256","internalType":"uint256"}]},{"type":"error","name":"ERC4626ExceededMaxMint","inputs":[{"name":"receiver","type":"address","internalType":"address"},{"name":"shares","type":"uint256","internalType":"uint256"},{"name":"max","type":"uint256","internalType":"uint256"}]},{"type":"error","name":"ERC4626ExceededMaxRedeem","inputs":[{"name":"owner","type":"address","internalType":"address"},{"name":"shares","type":"uint256","internalType":"uint256"},{"name":"max","type":"uint256","internalType":"uint256"}]},{"type":"error","name":"ERC4626ExceededMaxWithdraw","inputs":[{"name":"owner","type":"address","internalType":"address"},{"name":"assets","type":"uint256","internalType":"uint256"},{"name":"max","type":"uint256","internalType":"uint256"}]},{"type":"error","name":"EnforcedPause","inputs":[]},{"type":"error","name":"ExpectedPause","inputs":[]},{"type":"error","name":"FailedCall","inputs":[]},{"type":"error","name":"InsufficientBalance","inputs":[{"name":"balance","type":"uint256","internalType":"uint256"},{"name":"needed","type":"uint256","internalType":"uint256"}]},{"type":"error","name":"InsufficientShares","inputs":[]},{"type":"error","name":"InvalidAssetsAmount","inputs":[]},{"type":"error","name":"InvalidInitialization","inputs":[]},{"type":"error","name":"InvalidRedemptionMode","inputs":[]},{"type":"error","name":"InvalidSharesAmount","inputs":[]},{"type":"error","name":"NotInitializing","inputs":[]},{"type":"error","name":"NotSharesOwner","inputs":[]},{"type":"error","name":"SafeERC20FailedOperation","inputs":[{"name":"token","type":"address","internalType":"address"}]},{"type":"error","name":"SharesAmountZero","inputs":[]},{"type":"error","name":"TargetMethodNotAuthorized","inputs":[{"name":"target","type":"address","internalType":"address"},{"name":"functionSig","type":"bytes4","internalType":"bytes4"}]},{"type":"error","name":"UpdateAlreadyCompletedInThisBlock","inputs":[]},{"type":"error","name":"UseRequestRedeem","inputs":[]},{"type":"error","name":"ZeroAddress","inputs":[]}],"bytecode":{"object":"0x6080604052348015600e575f5ffd5b5060156019565b60c9565b7ff0c57e16840df040f15088dc2f81fe391c3923bec73e23a9662efc9c229c6a00805468010000000000000000900460ff161560685760405163f92ee8a960e01b815260040160405180910390fd5b80546001600160401b039081161460c65780546001600160401b0319166001600160401b0390811782556040519081527fc7f505b2f371ae2175ee4913f4499e1f2633a7b5936321eed1cdaeb6115181d29060200160405180910390a15b50565b613b19806100d65f395ff3fe608060405260043610610332575f3560e01c8063809dab6a116101a7578063bc197c81116100e7578063d9972b9611610092578063ef8b30f71161006d578063ef8b30f714610980578063f23a6e6114610a7e578063f2fde38b14610ac3578063f6e715d014610ae2575f5ffd5b8063d9972b96146109dd578063dd62ed3e146109fc578063e8ccdf3f14610a5f575f5ffd5b8063c6e6f592116100c2578063c6e6f59214610980578063ce96cb771461099f578063d905777e146109be575f5ffd5b8063bc197c81146108fd578063bf7e214f14610944578063c63d75b6146105bc575f5ffd5b8063a9059cbb11610152578063b3d7f6b91161012d578063b3d7f6b914610881578063b460af94146108a0578063ba087652146108bf578063ba7b37d4146108de575f5ffd5b8063a9059cbb14610838578063ab4f0f0114610857578063ac9dc9e81461086c575f5ffd5b80639317c200116101825780639317c200146107e657806394bf804d1461080557806395d89b4114610824575f5ffd5b8063809dab6a146107825780638456cb59146107965780638da5cb5b146107aa575f5ffd5b80633f4ba83a116102725780636442b2ba1161021d57806373399570116101f85780637339957014610711578063760f5f271461072f5780637a9e5e4b146107445780637d41c86e14610763575f5ffd5b80636442b2ba146106805780636e553f651461069f57806370a08231146106be575f5ffd5b806353dc1dd31161024d57806353dc1dd3146105db578063560b23181461062b5780635c975abb1461064a575f5ffd5b80633f4ba83a146105a8578063402d267d146105bc5780634cdad506146103d2575f5ffd5b8063150b7a02116102dd5780631cd1c8c3116102b85780631cd1c8c31461050657806323b872dd14610527578063313ce5671461054657806338d52e0f1461056c575f5ffd5b8063150b7a021461043f57806316f020d61461049c57806318160ddd146104d3575f5ffd5b806307a2d13a1161030d57806307a2d13a146103d2578063095ea7b3146103f15780630a28a47714610420575f5ffd5b806301e1d1141461037557806303d4113b1461039c57806306fdde03146103b1575f5ffd5b3661037157604080513381523460208201527f88a5966d370b9919b20f3e2c13ff65706f196a4e32cc2c12bf57088f88525874910160405180910390a1005b5f5ffd5b348015610380575f5ffd5b50610389610b01565b6040519081526020015b60405180910390f35b3480156103a7575f5ffd5b5061038960015481565b3480156103bc575f5ffd5b506103c5610bad565b60405161039391906131ca565b3480156103dd575f5ffd5b506103896103ec3660046131dc565b610c80565b3480156103fc575f5ffd5b5061041061040b366004613207565b610c91565b6040519015158152602001610393565b34801561042b575f5ffd5b5061038961043a3660046131dc565b610ca8565b34801561044a575f5ffd5b50610483610459366004613276565b7f150b7a020000000000000000000000000000000000000000000000000000000095945050505050565b6040516001600160e01b03199091168152602001610393565b3480156104a7575f5ffd5b506004546104bb906001600160a01b031681565b6040516001600160a01b039091168152602001610393565b3480156104de575f5ffd5b507f52c63247e1f47db19d5ce0460030c497f067ca4cebf71ba98eeadabe20bace0254610389565b348015610511575f5ffd5b506105256105203660046132e4565b610cb4565b005b348015610532575f5ffd5b50610410610541366004613316565b610e1f565b348015610551575f5ffd5b5061055a610e44565b60405160ff9091168152602001610393565b348015610577575f5ffd5b507f0773e532dfede91f04b12a73d3d2acd361424f41f76b4fb79f090161e36b4e00546001600160a01b03166104bb565b3480156105b3575f5ffd5b50610525610e86565b3480156105c7575f5ffd5b506103896105d6366004613354565b610ee0565b3480156105e6575f5ffd5b506106166105f5366004613354565b6001600160a01b03165f908152600560205260409020600181015490549091565b60408051928352602083019190915201610393565b348015610636575f5ffd5b50610525610645366004613354565b610f1f565b348015610655575f5ffd5b507fcd5ed15c6e187e77e9aee88184c21f4f2182ab5827cb3b7e07fbedcd63f033005460ff16610410565b34801561068b575f5ffd5b5061052561069a3660046132e4565b610fef565b3480156106aa575f5ffd5b506103896106b936600461336f565b611151565b3480156106c9575f5ffd5b506103896106d8366004613354565b6001600160a01b03165f9081527f52c63247e1f47db19d5ce0460030c497f067ca4cebf71ba98eeadabe20bace00602052604090205490565b34801561071c575f5ffd5b505f546104bb906001600160a01b031681565b34801561073a575f5ffd5b5061038960025481565b34801561074f575f5ffd5b5061052561075e366004613354565b611164565b34801561076e575f5ffd5b5061038961077d36600461339d565b611271565b34801561078d575f5ffd5b506103896115b4565b3480156107a1575f5ffd5b5061052561166d565b3480156107b5575f5ffd5b507fdd3fd67aef415aded9493b31ad20a02d2991d4bb2760431cc729821271eaea00546001600160a01b03166104bb565b3480156107f1575f5ffd5b5061052561080036600461347b565b6116c5565b348015610810575f5ffd5b5061038961081f36600461336f565b6118a6565b34801561082f575f5ffd5b506103c56118b9565b348015610843575f5ffd5b50610410610852366004613207565b61190a565b348015610862575f5ffd5b5061038960065481565b348015610877575f5ffd5b5061038960035481565b34801561088c575f5ffd5b5061038961089b3660046131dc565b611917565b3480156108ab575f5ffd5b506103896108ba36600461339d565b611923565b3480156108ca575f5ffd5b506103896108d936600461339d565b61195e565b3480156108e9575f5ffd5b506105256108f83660046131dc565b61197a565b348015610908575f5ffd5b50610483610917366004613568565b7fbc197c810000000000000000000000000000000000000000000000000000000098975050505050505050565b34801561094f575f5ffd5b507fdd3fd67aef415aded9493b31ad20a02d2991d4bb2760431cc729821271eaea01546001600160a01b03166104bb565b34801561098b575f5ffd5b5061038961099a3660046131dc565b611c1f565b3480156109aa575f5ffd5b506103896109b9366004613354565b611c2a565b3480156109c9575f5ffd5b506103896109d8366004613354565b611c6b565b3480156109e8575f5ffd5b506104106109f736600461362b565b611cac565b348015610a07575f5ffd5b50610389610a16366004613663565b6001600160a01b039182165f9081527f52c63247e1f47db19d5ce0460030c497f067ca4cebf71ba98eeadabe20bace016020908152604080832093909416825291909152205490565b348015610a6a575f5ffd5b50610525610a79366004613354565b611da3565b348015610a89575f5ffd5b50610483610a9836600461368f565b7ff23a6e61000000000000000000000000000000000000000000000000000000009695505050505050565b348015610ace575f5ffd5b50610525610add366004613354565b611e75565b348015610aed575f5ffd5b506103c5610afc366004613706565b611f2f565b5f600154610b367f0773e532dfede91f04b12a73d3d2acd361424f41f76b4fb79f090161e36b4e00546001600160a01b031690565b6040516370a0823160e01b81523060048201526001600160a01b0391909116906370a0823190602401602060405180830381865afa158015610b7a573d5f5f3e3d5ffd5b505050506040513d601f19601f82011682018060405250810190610b9e919061375e565b610ba89190613789565b905090565b7f52c63247e1f47db19d5ce0460030c497f067ca4cebf71ba98eeadabe20bace0380546060917f52c63247e1f47db19d5ce0460030c497f067ca4cebf71ba98eeadabe20bace0091610bfe9061379c565b80601f0160208091040260200160405190810160405280929190818152602001828054610c2a9061379c565b8015610c755780601f10610c4c57610100808354040283529160200191610c75565b820191905f5260205f20905b815481529060010190602001808311610c5857829003601f168201915b505050505091505090565b5f610c8b825f6120ea565b92915050565b5f33610c9e818585612141565b5060019392505050565b5f610c8b826001612153565b610cc9335f356001600160e01b031916611cac565b610d095760405162461bcd60e51b815260206004820152600c60248201526b15539055551213d49256915160a21b60448201526064015b60405180910390fd5b6001600160a01b0383165f908152600560205260409020805415801590610d31575080548311155b610d4d5760405162f1a34760e11b815260040160405180910390fd5b600181015415801590610d64575080600101548211155b610d8157604051633b83271360e01b815260040160405180910390fd5b82815f015f828254610d9391906137d4565b9250508190555081816001015f828254610dad91906137d4565b925050819055508160065f828254610dc591906137d4565b909155505060408051848152602081018490526001600160a01b038616917f55ec94ca0f01023d07c5752a75f44048cfbdb0e4cfedf5e7eacecf21fcde3587910160405180910390a2610e193085856121a1565b50505050565b5f33610e2c8582856121fe565b610e378585856121a1565b60019150505b9392505050565b5f807f0773e532dfede91f04b12a73d3d2acd361424f41f76b4fb79f090161e36b4e0090505f8154610e809190600160a01b900460ff166137e7565b91505090565b610e9b335f356001600160e01b031916611cac565b610ed65760405162461bcd60e51b815260206004820152600c60248201526b15539055551213d49256915160a21b6044820152606401610d00565b610ede6122ac565b565b5f610f0c7fcd5ed15c6e187e77e9aee88184c21f4f2182ab5827cb3b7e07fbedcd63f033005460ff1690565b15610f1857505f919050565b5f19610c8b565b610f34335f356001600160e01b031916611cac565b610f6f5760405162461bcd60e51b815260206004820152600c60248201526b15539055551213d49256915160a21b6044820152606401610d00565b6001600160a01b038116610f965760405163d92e233d60e01b815260040160405180910390fd5b5f80546040516001600160a01b03808516939216917fe02404e8ee2b8389e3dd58c236f6b16e91da18f91ef4a5a763a94517394ce96b91a35f80546001600160a01b0319166001600160a01b0392909216919091179055565b611004335f356001600160e01b031916611cac565b61103f5760405162461bcd60e51b815260206004820152600c60248201526b15539055551213d49256915160a21b6044820152606401610d00565b6001600160a01b0383165f908152600560205260409020805415801590611067575080548311155b6110835760405162f1a34760e11b815260040160405180910390fd5b60018101541580159061109a575080600101548211155b6110b757604051633b83271360e01b815260040160405180910390fd5b82815f015f8282546110c991906137d4565b9250508190555081816001015f8282546110e391906137d4565b925050819055508160065f8282546110fb91906137d4565b909155505060408051848152602081018490526001600160a01b038616917f1165aa98d42fbaef9bacc273d7b5cca8edc94909519f8f949ec33562963c87e4910160405180910390a2610e19308530858761231e565b5f61115a6123e5565b610e3d8383612441565b7fdd3fd67aef415aded9493b31ad20a02d2991d4bb2760431cc729821271eaea0080546001600160a01b031633148061121b5750600181015460405163b700961360e01b81523360048201523060248201525f356001600160e01b03191660448201526001600160a01b039091169063b700961390606401602060405180830381865afa1580156111f7573d5f5f3e3d5ffd5b505050506040513d601f19601f8201168201806040525081019061121b9190613814565b611223575f5ffd5b6001810180546001600160a01b0319166001600160a01b03841690811790915560405133907fa3396fd7f6e0a21b50e5089d2da70d5ac0a3bbbd1f617a93f134b76389980198905f90a35050565b5f61127a6123e5565b5f84116112b3576040517f840c364a00000000000000000000000000000000000000000000000000000000815260040160405180910390fd5b6001600160a01b03821633146112f5576040517fe7fe5cf400000000000000000000000000000000000000000000000000000000815260040160405180910390fd5b83611333836001600160a01b03165f9081527f52c63247e1f47db19d5ce0460030c497f067ca4cebf71ba98eeadabe20bace00602052604090205490565b101561136b576040517f3999656700000000000000000000000000000000000000000000000000000000815260040160405180910390fd5b5f61137585610c80565b600480546040517f51eda43e000000000000000000000000000000000000000000000000000000008152309281019290925260248201889052604482018390526001600160a01b03868116606484015287811660848401529293505f9283929116906351eda43e9060a40160408051808303815f875af11580156113fb573d5f5f3e3d5ffd5b505050506040513d601f19601f8201168201806040525081019061141f919061382d565b90925090505f8260018111156114375761143761385c565b036114a357611449858787848b61231e565b604080518281526020810189905260018183015290516001600160a01b0387811692908916917f9a626d8a4952950c7f8b9f5c92a2804e44e147ce4dd0add2f5928f1faea725909181900360600190a39250610e3d915050565b60018260018111156114b7576114b761385c565b03611582576114c78530896121a1565b8060065f8282546114d89190613789565b90915550506001600160a01b0386165f908152600560205260408120805490918991839190611508908490613789565b9250508190555081816001015f8282546115229190613789565b909155505060408051838152602081018a90525f8183015290516001600160a01b0388811692908a16917f9a626d8a4952950c7f8b9f5c92a2804e44e147ce4dd0add2f5928f1faea725909181900360600190a35f945050505050610e3d565b6040517f03e28a1b00000000000000000000000000000000000000000000000000000000815260040160405180910390fd5b5f5f6115e77f0773e532dfede91f04b12a73d3d2acd361424f41f76b4fb79f090161e36b4e00546001600160a01b031690565b6040516370a0823160e01b81523060048201526001600160a01b0391909116906370a0823190602401602060405180830381865afa15801561162b573d5f5f3e3d5ffd5b505050506040513d601f19601f8201168201806040525081019061164f919061375e565b90506006548111611660575f610e80565b600654610e8090826137d4565b611682335f356001600160e01b031916611cac565b6116bd5760405162461bcd60e51b815260206004820152600c60248201526b15539055551213d49256915160a21b6044820152606401610d00565b610ede6124b9565b7ff0c57e16840df040f15088dc2f81fe391c3923bec73e23a9662efc9c229c6a00805468010000000000000000810460ff16159067ffffffffffffffff165f8115801561170f5750825b90505f8267ffffffffffffffff16600114801561172b5750303b155b905081158015611739575080155b15611770576040517ff92ee8a900000000000000000000000000000000000000000000000000000000815260040160405180910390fd5b845467ffffffffffffffff1916600117855583156117a457845468ff00000000000000001916680100000000000000001785555b6117ac612514565b6117b6878761251c565b6117bf8b612532565b6117c98a5f612543565b6117d161261b565b6001600160a01b0389166117f85760405163d92e233d60e01b815260040160405180910390fd5b6001600160a01b03881661181f5760405163d92e233d60e01b815260040160405180910390fd5b5f80546001600160a01b03808c166001600160a01b03199283161790925560048054928b1692909116919091179055831561189957845468ff000000000000000019168555604051600181527fc7f505b2f371ae2175ee4913f4499e1f2633a7b5936321eed1cdaeb6115181d29060200160405180910390a15b5050505050505050505050565b5f6118af6123e5565b610e3d838361262b565b7f52c63247e1f47db19d5ce0460030c497f067ca4cebf71ba98eeadabe20bace0480546060917f52c63247e1f47db19d5ce0460030c497f067ca4cebf71ba98eeadabe20bace0091610bfe9061379c565b5f33610c9e8185856121a1565b5f610c8b8260016120ea565b5f61192c6123e5565b6040517f797f246a00000000000000000000000000000000000000000000000000000000815260040160405180910390fd5b5f6119676123e5565b611972848484611271565b949350505050565b61198f335f356001600160e01b031916611cac565b6119ca5760405162461bcd60e51b815260206004820152600c60248201526b15539055551213d49256915160a21b6044820152606401610d00565b6002544311611a05576040517f95628bbc00000000000000000000000000000000000000000000000000000000815260040160405180910390fd5b5f80546003547f52c63247e1f47db19d5ce0460030c497f067ca4cebf71ba98eeadabe20bace025483926001600160a01b031691631faab223917f0773e532dfede91f04b12a73d3d2acd361424f41f76b4fb79f090161e36b4e00546001600160a01b03166040516370a0823160e01b81523060048201526001600160a01b0391909116906370a0823190602401602060405180830381865afa158015611aae573d5f5f3e3d5ffd5b505050506040513d601f19601f82011682018060405250810190611ad2919061375e565b6040516001600160e01b031960e086901b168152600481019390935260248301919091526044820152606481018690526084016040805180830381865afa158015611b1f573d5f5f3e3d5ffd5b505050506040513d601f19601f82011682018060405250810190611b439190613870565b9150915081611b9857611b546124b9565b600354604080519182526020820183905242917f624f9968f9037cc40b91b22280a8f1a3f1fd95e6d2f00e1d7ae4aa10ff2e59c491015b60405180910390a2505050565b6001839055600381905543600255604080518481526020810185905242917f9b01f304f89acbc3f9ca1425e6ce22d5f57df58c42b9adc0dac4c4a71236f98e910160405180910390a2600354604080519182526020820183905242917f3f22d682a7202099eeac8a14fda6f2bbcadb8b7e2a83b665b69776e8d60615169101611b8b565b50565b5f610c8b825f612153565b5f611c567fcd5ed15c6e187e77e9aee88184c21f4f2182ab5827cb3b7e07fbedcd63f033005460ff1690565b15611c6257505f919050565b610c8b826126a3565b5f611c977fcd5ed15c6e187e77e9aee88184c21f4f2182ab5827cb3b7e07fbedcd63f033005460ff1690565b15611ca357505f919050565b610c8b826126e4565b7fdd3fd67aef415aded9493b31ad20a02d2991d4bb2760431cc729821271eaea01545f907fdd3fd67aef415aded9493b31ad20a02d2991d4bb2760431cc729821271eaea00906001600160a01b03168015801590611d83575060405163b700961360e01b81526001600160a01b0386811660048301523060248301526001600160e01b03198616604483015282169063b700961390606401602060405180830381865afa158015611d5f573d5f5f3e3d5ffd5b505050506040513d601f19601f82011682018060405250810190611d839190613814565b80611d9a575081546001600160a01b038681169116145b95945050505050565b611db8335f356001600160e01b031916611cac565b611df35760405162461bcd60e51b815260206004820152600c60248201526b15539055551213d49256915160a21b6044820152606401610d00565b6001600160a01b038116611e1a5760405163d92e233d60e01b815260040160405180910390fd5b6004546040516001600160a01b038084169216907f71e86d7b6261afe37537fed8f42bf15d2ed9344bd8bd3949ea67fdf36a5e5554905f90a3600480546001600160a01b0319166001600160a01b0392909216919091179055565b611e8a335f356001600160e01b031916611cac565b611ec55760405162461bcd60e51b815260206004820152600c60248201526b15539055551213d49256915160a21b6044820152606401610d00565b7fdd3fd67aef415aded9493b31ad20a02d2991d4bb2760431cc729821271eaea0080546001600160a01b0319166001600160a01b038316908117825560405133907f8be0079c531659141344cd1fd0a4f28419497f9722a3daafe3b4186f6b6457e0905f90a35050565b6060611f46335f356001600160e01b031916611cac565b611f815760405162461bcd60e51b815260206004820152600c60248201526b15539055551213d49256915160a21b6044820152606401610d00565b5f611f8c848661388a565b9050611fbf7fdd3fd67aef415aded9493b31ad20a02d2991d4bb2760431cc729821271eaea01546001600160a01b031690565b60405163b700961360e01b81523360048201526001600160a01b0388811660248301526001600160e01b031984166044830152919091169063b700961390606401602060405180830381865afa15801561201b573d5f5f3e3d5ffd5b505050506040513d601f19601f8201168201806040525081019061203f9190613814565b86829091612094576040517ffb5630260000000000000000000000000000000000000000000000000000000081526001600160a01b0390921660048301526001600160e01b0319166024820152604401610d00565b50506120e085858080601f0160208091040260200160405190810160405280939291908181526020018383808284375f9201919091525050506001600160a01b03891691905085612720565b9695505050505050565b5f610e3d6120f6610b01565b612101906001613789565b61210c5f600a6139a3565b7f52c63247e1f47db19d5ce0460030c497f067ca4cebf71ba98eeadabe20bace02546121389190613789565b859190856127cf565b61214e8383836001612811565b505050565b5f610e3d61216282600a6139a3565b7f52c63247e1f47db19d5ce0460030c497f067ca4cebf71ba98eeadabe20bace025461218e9190613789565b612196610b01565b612138906001613789565b6001600160a01b0383166121ca57604051634b637e8f60e11b81525f6004820152602401610d00565b6001600160a01b0382166121f35760405163ec442f0560e01b81525f6004820152602401610d00565b61214e83838361293a565b6001600160a01b038381165f9081527f52c63247e1f47db19d5ce0460030c497f067ca4cebf71ba98eeadabe20bace0160209081526040808320938616835292905220545f19811015610e19578181101561229e576040517ffb8f41b20000000000000000000000000000000000000000000000000000000081526001600160a01b03841660048201526024810182905260448101839052606401610d00565b610e1984848484035f612811565b6122b461294d565b7fcd5ed15c6e187e77e9aee88184c21f4f2182ab5827cb3b7e07fbedcd63f03300805460ff191681557f5db9ee0a495bf2e6ff9c91a7834c1ba4fdd244a5e8aa4e537bd38aeae4b073aa335b6040516001600160a01b03909116815260200160405180910390a150565b7f0773e532dfede91f04b12a73d3d2acd361424f41f76b4fb79f090161e36b4e006001600160a01b038681169085161461235d5761235d8487846121fe565b61236784836129a8565b805461237d906001600160a01b031686856129dc565b836001600160a01b0316856001600160a01b0316876001600160a01b03167ffbde797d201c681b91056529119e0b02407c7bb96a4a2c75c01fc9667232c8db86866040516123d5929190918252602082015260400190565b60405180910390a4505050505050565b7fcd5ed15c6e187e77e9aee88184c21f4f2182ab5827cb3b7e07fbedcd63f033005460ff1615610ede576040517fd93c066500000000000000000000000000000000000000000000000000000000815260040160405180910390fd5b5f5f61244c83610ee0565b9050808411156124a1576040517f79012fb20000000000000000000000000000000000000000000000000000000081526001600160a01b03841660048201526024810185905260448101829052606401610d00565b5f6124ab85611c1f565b905061197233858784612a50565b6124c16123e5565b7fcd5ed15c6e187e77e9aee88184c21f4f2182ab5827cb3b7e07fbedcd63f03300805460ff191660011781557f62e78cea01bee320cd4e420270b5ea74000d11b0c9f74754ebdbfc544b05a25833612300565b610ede612ae0565b612524612ae0565b61252e8282612b47565b5050565b61253a612ae0565b611c1c81612baa565b61254b612ae0565b7fdd3fd67aef415aded9493b31ad20a02d2991d4bb2760431cc729821271eaea0080546001600160a01b03199081166001600160a01b0385811691821784557fdd3fd67aef415aded9493b31ad20a02d2991d4bb2760431cc729821271eaea0180549093169085161790915560405133907f8be0079c531659141344cd1fd0a4f28419497f9722a3daafe3b4186f6b6457e0905f90a36040516001600160a01b0383169033907fa3396fd7f6e0a21b50e5089d2da70d5ac0a3bbbd1f617a93f134b76389980198905f90a3505050565b612623612ae0565b610ede612c45565b5f5f61263683610ee0565b90508084111561268b576040517f284ff6670000000000000000000000000000000000000000000000000000000081526001600160a01b03841660048201526024810185905260448101829052606401610d00565b5f61269585611917565b905061197233858388612a50565b6001600160a01b0381165f9081527f52c63247e1f47db19d5ce0460030c497f067ca4cebf71ba98eeadabe20bace006020526040812054610c8b905f6120ea565b6001600160a01b0381165f9081527f52c63247e1f47db19d5ce0460030c497f067ca4cebf71ba98eeadabe20bace006020526040812054610c8b565b606081471015612765576040517fcf47918100000000000000000000000000000000000000000000000000000000815247600482015260248101839052604401610d00565b5f5f856001600160a01b0316848660405161278091906139b1565b5f6040518083038185875af1925050503d805f81146127ba576040519150601f19603f3d011682016040523d82523d5f602084013e6127bf565b606091505b50915091506120e0868383612c78565b5f6127fc6127dc83612ced565b80156127f757505f84806127f2576127f26139cc565b868809115b151590565b612807868686612d19565b611d9a9190613789565b7f52c63247e1f47db19d5ce0460030c497f067ca4cebf71ba98eeadabe20bace006001600160a01b038516612874576040517fe602df050000000000000000000000000000000000000000000000000000000081525f6004820152602401610d00565b6001600160a01b0384166128b6576040517f94280d620000000000000000000000000000000000000000000000000000000081525f6004820152602401610d00565b6001600160a01b038086165f9081526001830160209081526040808320938816835292905220839055811561293357836001600160a01b0316856001600160a01b03167f8c5be1e5ebec7d5bd14f71427d1e84f3dd0314c0f7b2291e5b200ac8c7c3b9258560405161292a91815260200190565b60405180910390a35b5050505050565b6129426123e5565b61214e838383612dcf565b7fcd5ed15c6e187e77e9aee88184c21f4f2182ab5827cb3b7e07fbedcd63f033005460ff16610ede576040517f8dfc202b00000000000000000000000000000000000000000000000000000000815260040160405180910390fd5b6001600160a01b0382166129d157604051634b637e8f60e11b81525f6004820152602401610d00565b61252e825f8361293a565b6040516001600160a01b0383811660248301526044820183905261214e91859182169063a9059cbb906064015b604051602081830303815290604052915060e01b6020820180517bffffffffffffffffffffffffffffffffffffffffffffffffffffffff8381831617835250505050612f34565b7f0773e532dfede91f04b12a73d3d2acd361424f41f76b4fb79f090161e36b4e008054612a88906001600160a01b0316863086612fb9565b612a928483612ff2565b836001600160a01b0316856001600160a01b03167fdcbc1c05240f31ff3ad067ef1ee35ce4997762752e3a095284754544f4c709d7858560405161292a929190918252602082015260400190565b7ff0c57e16840df040f15088dc2f81fe391c3923bec73e23a9662efc9c229c6a005468010000000000000000900460ff16610ede576040517fd7e6bcf800000000000000000000000000000000000000000000000000000000815260040160405180910390fd5b612b4f612ae0565b7f52c63247e1f47db19d5ce0460030c497f067ca4cebf71ba98eeadabe20bace007f52c63247e1f47db19d5ce0460030c497f067ca4cebf71ba98eeadabe20bace03612b9b8482613a24565b5060048101610e198382613a24565b612bb2612ae0565b7f0773e532dfede91f04b12a73d3d2acd361424f41f76b4fb79f090161e36b4e005f80612bde84613026565b9150915081612bee576012612bf0565b805b83547fffffffffffffffffffffff00000000000000000000000000000000000000000016600160a01b60ff92909216919091026001600160a01b031916176001600160a01b0394909416939093179091555050565b612c4d612ae0565b7fcd5ed15c6e187e77e9aee88184c21f4f2182ab5827cb3b7e07fbedcd63f03300805460ff19169055565b606082612c8d57612c888261312a565b610e3d565b8151158015612ca457506001600160a01b0384163b155b15612ce6576040517f9996b3150000000000000000000000000000000000000000000000000000000081526001600160a01b0385166004820152602401610d00565b5080610e3d565b5f6002826003811115612d0257612d0261385c565b612d0c9190613adf565b60ff166001149050919050565b5f838302815f1985870982811083820303915050805f03612d4d57838281612d4357612d436139cc565b0492505050610e3d565b808411612d6457612d64600385150260111861316c565b5f848688095f868103871696879004966002600389028118808a02820302808a02820302808a02820302808a02820302808a02820302808a02909103029181900381900460010186841190950394909402919094039290920491909117919091029150509392505050565b7f52c63247e1f47db19d5ce0460030c497f067ca4cebf71ba98eeadabe20bace006001600160a01b038416612e1c5781816002015f828254612e119190613789565b90915550612ea59050565b6001600160a01b0384165f9081526020829052604090205482811015612e87576040517fe450d38c0000000000000000000000000000000000000000000000000000000081526001600160a01b03861660048201526024810182905260448101849052606401610d00565b6001600160a01b0385165f9081526020839052604090209083900390555b6001600160a01b038316612ec3576002810180548390039055612ee1565b6001600160a01b0383165f9081526020829052604090208054830190555b826001600160a01b0316846001600160a01b03167fddf252ad1be2c89b69c2b068fc378daa952ba7f163c4a11628f55a4df523b3ef84604051612f2691815260200190565b60405180910390a350505050565b5f5f60205f8451602086015f885af180612f53576040513d5f823e3d81fd5b50505f513d91508115612f6a578060011415612f77565b6001600160a01b0384163b155b15610e19576040517f5274afe70000000000000000000000000000000000000000000000000000000081526001600160a01b0385166004820152602401610d00565b6040516001600160a01b038481166024830152838116604483015260648201839052610e199186918216906323b872dd90608401612a09565b6001600160a01b03821661301b5760405163ec442f0560e01b81525f6004820152602401610d00565b61252e5f838361293a565b60408051600481526024810182526020810180517bffffffffffffffffffffffffffffffffffffffffffffffffffffffff167f313ce5670000000000000000000000000000000000000000000000000000000017905290515f918291829182916001600160a01b0387169161309a916139b1565b5f60405180830381855afa9150503d805f81146130d2576040519150601f19603f3d011682016040523d82523d5f602084013e6130d7565b606091505b50915091508180156130eb57506020815110155b1561311e575f81806020019051810190613105919061375e565b905060ff811161311c576001969095509350505050565b505b505f9485945092505050565b80511561313a5780518082602001fd5b6040517fd6bda27500000000000000000000000000000000000000000000000000000000815260040160405180910390fd5b634e487b715f52806020526024601cfd5b5f5b8381101561319757818101518382015260200161317f565b50505f910152565b5f81518084526131b681602086016020860161317d565b601f01601f19169290920160200192915050565b602081525f610e3d602083018461319f565b5f602082840312156131ec575f5ffd5b5035919050565b6001600160a01b0381168114611c1c575f5ffd5b5f5f60408385031215613218575f5ffd5b8235613223816131f3565b946020939093013593505050565b5f5f83601f840112613241575f5ffd5b50813567ffffffffffffffff811115613258575f5ffd5b60208301915083602082850101111561326f575f5ffd5b9250929050565b5f5f5f5f5f6080868803121561328a575f5ffd5b8535613295816131f3565b945060208601356132a5816131f3565b935060408601359250606086013567ffffffffffffffff8111156132c7575f5ffd5b6132d388828901613231565b969995985093965092949392505050565b5f5f5f606084860312156132f6575f5ffd5b8335613301816131f3565b95602085013595506040909401359392505050565b5f5f5f60608486031215613328575f5ffd5b8335613333816131f3565b92506020840135613343816131f3565b929592945050506040919091013590565b5f60208284031215613364575f5ffd5b8135610e3d816131f3565b5f5f60408385031215613380575f5ffd5b823591506020830135613392816131f3565b809150509250929050565b5f5f5f606084860312156133af575f5ffd5b8335925060208401356133c1816131f3565b915060408401356133d1816131f3565b809150509250925092565b634e487b7160e01b5f52604160045260245ffd5b5f82601f8301126133ff575f5ffd5b813567ffffffffffffffff811115613419576134196133dc565b604051601f8201601f19908116603f0116810167ffffffffffffffff81118282101715613448576134486133dc565b60405281815283820160200185101561345f575f5ffd5b816020850160208301375f918101602001919091529392505050565b5f5f5f5f5f5f60c08789031215613490575f5ffd5b863561349b816131f3565b955060208701356134ab816131f3565b945060408701356134bb816131f3565b935060608701356134cb816131f3565b9250608087013567ffffffffffffffff8111156134e6575f5ffd5b6134f289828a016133f0565b92505060a087013567ffffffffffffffff81111561350e575f5ffd5b61351a89828a016133f0565b9150509295509295509295565b5f5f83601f840112613537575f5ffd5b50813567ffffffffffffffff81111561354e575f5ffd5b6020830191508360208260051b850101111561326f575f5ffd5b5f5f5f5f5f5f5f5f60a0898b03121561357f575f5ffd5b883561358a816131f3565b9750602089013561359a816131f3565b9650604089013567ffffffffffffffff8111156135b5575f5ffd5b6135c18b828c01613527565b909750955050606089013567ffffffffffffffff8111156135e0575f5ffd5b6135ec8b828c01613527565b909550935050608089013567ffffffffffffffff81111561360b575f5ffd5b6136178b828c01613231565b999c989b5096995094979396929594505050565b5f5f6040838503121561363c575f5ffd5b8235613647816131f3565b915060208301356001600160e01b031981168114613392575f5ffd5b5f5f60408385031215613674575f5ffd5b823561367f816131f3565b91506020830135613392816131f3565b5f5f5f5f5f5f60a087890312156136a4575f5ffd5b86356136af816131f3565b955060208701356136bf816131f3565b94506040870135935060608701359250608087013567ffffffffffffffff8111156136e8575f5ffd5b6136f489828a01613231565b979a9699509497509295939492505050565b5f5f5f5f60608587031215613719575f5ffd5b8435613724816131f3565b9350602085013567ffffffffffffffff81111561373f575f5ffd5b61374b87828801613231565b9598909750949560400135949350505050565b5f6020828403121561376e575f5ffd5b5051919050565b634e487b7160e01b5f52601160045260245ffd5b80820180821115610c8b57610c8b613775565b600181811c908216806137b057607f821691505b6020821081036137ce57634e487b7160e01b5f52602260045260245ffd5b50919050565b81810381811115610c8b57610c8b613775565b60ff8181168382160190811115610c8b57610c8b613775565b8051801515811461380f575f5ffd5b919050565b5f60208284031215613824575f5ffd5b610e3d82613800565b5f5f6040838503121561383e575f5ffd5b82516002811061384c575f5ffd5b6020939093015192949293505050565b634e487b7160e01b5f52602160045260245ffd5b5f5f60408385031215613881575f5ffd5b61384c83613800565b80356001600160e01b031981169060048410156138b9576001600160e01b0319808560040360031b1b82161691505b5092915050565b6001815b60018411156138fb578085048111156138df576138df613775565b60018416156138ed57908102905b60019390931c9280026138c4565b935093915050565b5f8261391157506001610c8b565b8161391d57505f610c8b565b8160018114613933576002811461393d57613959565b6001915050610c8b565b60ff84111561394e5761394e613775565b50506001821b610c8b565b5060208310610133831016604e8410600b841016171561397c575081810a610c8b565b6139885f1984846138c0565b805f190482111561399b5761399b613775565b029392505050565b5f610e3d60ff841683613903565b5f82516139c281846020870161317d565b9190910192915050565b634e487b7160e01b5f52601260045260245ffd5b601f82111561214e57805f5260205f20601f840160051c81016020851015613a055750805b601f840160051c820191505b81811015612933575f8155600101613a11565b815167ffffffffffffffff811115613a3e57613a3e6133dc565b613a5281613a4c845461379c565b846139e0565b6020601f821160018114613a84575f8315613a6d5750848201515b5f19600385901b1c1916600184901b178455612933565b5f84815260208120601f198516915b82811015613ab35787850151825560209485019460019092019101613a93565b5084821015613ad057868401515f19600387901b60f8161c191681555b50505050600190811b01905550565b5f60ff831680613afd57634e487b7160e01b5f52601260045260245ffd5b8060ff8416069150509291505056fea164736f6c634300081c000a","linkReferences":{}},"methodIdentifiers":{"aggregatedUnderlyingBalances()":"03d4113b","allowance(address,address)":"dd62ed3e","approve(address,uint256)":"095ea7b3","asset()":"38d52e0f","authority()":"bf7e214f","balanceOf(address)":"70a08231","balanceUpdateHook()":"73399570","cancelRedeem(address,uint256,uint256)":"1cd1c8c3","convertToAssets(uint256)":"07a2d13a","convertToShares(uint256)":"c6e6f592","decimals()":"313ce567","deposit(uint256,address)":"6e553f65","fulfillRedeem(address,uint256,uint256)":"6442b2ba","getAvailableBalance()":"809dab6a","initialize(address,address,address,address,string,string)":"9317c200","isAuthorized(address,bytes4)":"d9972b96","lastBlockUpdated()":"760f5f27","lastPricePerShare()":"ac9dc9e8","manage(address,bytes,uint256)":"f6e715d0","maxDeposit(address)":"402d267d","maxMint(address)":"c63d75b6","maxRedeem(address)":"d905777e","maxWithdraw(address)":"ce96cb77","mint(uint256,address)":"94bf804d","name()":"06fdde03","onERC1155BatchReceived(address,address,uint256[],uint256[],bytes)":"bc197c81","onERC1155Received(address,address,uint256,uint256,bytes)":"f23a6e61","onERC721Received(address,address,uint256,bytes)":"150b7a02","owner()":"8da5cb5b","pause()":"8456cb59","paused()":"5c975abb","pendingRedeemRequest(address)":"53dc1dd3","previewDeposit(uint256)":"ef8b30f7","previewMint(uint256)":"b3d7f6b9","previewRedeem(uint256)":"4cdad506","previewWithdraw(uint256)":"0a28a477","redeem(uint256,address,address)":"ba087652","redemptionHook()":"16f020d6","requestRedeem(uint256,address,address)":"7d41c86e","setAuthority(address)":"7a9e5e4b","setBalanceUpdateHook(address)":"560b2318","setRedemptionHook(address)":"e8ccdf3f","symbol()":"95d89b41","totalAssets()":"01e1d114","totalPendingAssets()":"ab4f0f01","totalSupply()":"18160ddd","transfer(address,uint256)":"a9059cbb","transferFrom(address,address,uint256)":"23b872dd","transferOwnership(address)":"f2fde38b","unpause()":"3f4ba83a","updateBalance(uint256)":"ba7b37d4","withdraw(uint256,address,address)":"b460af94"},"storageLayout":{"storage":[{"astId":50568,"contract":"src/ElitraVault.sol:ElitraVault","label":"balanceUpdateHook","offset":0,"slot":"0","type":"t_contract(IBalanceUpdateHook)52133"},{"astId":50570,"contract":"src/ElitraVault.sol:ElitraVault","label":"aggregatedUnderlyingBalances","offset":0,"slot":"1","type":"t_uint256"},{"astId":50572,"contract":"src/ElitraVault.sol:ElitraVault","label":"lastBlockUpdated","offset":0,"slot":"2","type":"t_uint256"},{"astId":50574,"contract":"src/ElitraVault.sol:ElitraVault","label":"lastPricePerShare","offset":0,"slot":"3","type":"t_uint256"},{"astId":50577,"contract":"src/ElitraVault.sol:ElitraVault","label":"redemptionHook","offset":0,"slot":"4","type":"t_contract(IRedemptionHook)52361"},{"astId":50582,"contract":"src/ElitraVault.sol:ElitraVault","label":"_pendingRedeem","offset":0,"slot":"5","type":"t_mapping(t_address,t_struct(PendingRedeem)52150_storage)"},{"astId":50584,"contract":"src/ElitraVault.sol:ElitraVault","label":"totalPendingAssets","offset":0,"slot":"6","type":"t_uint256"}],"types":{"t_address":{"encoding":"inplace","label":"address","numberOfBytes":"20"},"t_contract(IBalanceUpdateHook)52133":{"encoding":"inplace","label":"contract IBalanceUpdateHook","numberOfBytes":"20"},"t_contract(IRedemptionHook)52361":{"encoding":"inplace","label":"contract IRedemptionHook","numberOfBytes":"20"},"t_mapping(t_address,t_struct(PendingRedeem)52150_storage)":{"encoding":"mapping","key":"t_address","label":"mapping(address => struct IElitraVault.PendingRedeem)","numberOfBytes":"32","value":"t_struct(PendingRedeem)52150_storage"},"t_struct(PendingRedeem)52150_storage":{"encoding":"inplace","label":"struct IElitraVault.PendingRedeem","numberOfBytes":"64","members":[{"astId":52147,"contract":"src/ElitraVault.sol:ElitraVault","label":"shares","offset":0,"slot":"0","type":"t_uint256"},{"astId":52149,"contract":"src/ElitraVault.sol:ElitraVault","label":"assets","offset":0,"slot":"1","type":"t_uint256"}]},"t_uint256":{"encoding":"inplace","label":"uint256","numberOfBytes":"32"}}},"id":62}