{"abi":[{"type":"constructor","inputs":[],"stateMutability":"nonpayable"},{"type":"receive","stateMutability":"payable"},{"type":"function","name":"aggregatedUnderlyingBalances","inputs":[],"outputs":[{"name":"","type":"uint256","internalType":"uint256"}],"stateMutability":"view"},{"type":"function","name":"allowance","inputs":[{"name":"owner","type":"address","internalType":"address"},{"name":"spender","type":"address","internalType":"address"}],"outputs":[{"name":"","type":"uint256","internalType":"uint256"}],"stateMutability":"view"},{"type":"function","name":"approve","inputs":[{"name":"spender","type":"address","internalType":"address"},{"name":"value","type":"uint256","internalType":"uint256"}],"outputs":[{"name":"","type":"bool","internalType":"bool"}],"stateMutability":"nonpayable"},{"type":"function","name":"asset","inputs":[],"outputs":[{"name":"","type":"address","internalType":"address"}],"stateMutability":"view"},{"type":"function","name":"authority","inputs":[],"outputs":[{"name":"","type":"address","internalType":"contract Authority"}],"stateMutability":"view"},{"type":"function","name":"balanceOf","inputs":[{"name":"account","type":"address","internalType":"address"}],"outputs":[{"name":"","type":"uint256","internalType":"uint256"}],"stateMutability":"view"},{"type":"function","name":"balanceUpdateHook","inputs":[],"outputs":[{"name":"","type":"address","internalType":"contract IBalanceUpdateHook"}],"stateMutability":"view"},{"type":"function","name":"cancelRedeem","inputs":[{"name":"receiver","type":"address","internalType":"address"},{"name":"shares","type":"uint256","internalType":"uint256"},{"name":"assets","type":"uint256","internalType":"uint256"}],"outputs":[],"stateMutability":"nonpayable"},{"type":"function","name":"convertToAssets","inputs":[{"name":"shares","type":"uint256","internalType":"uint256"}],"outputs":[{"name":"","type":"uint256","internalType":"uint256"}],"stateMutability":"view"},{"type":"function","name":"convertToShares","inputs":[{"name":"assets","type":"uint256","internalType":"uint256"}],"outputs":[{"name":"","type":"uint256","internalType":"uint256"}],"stateMutability":"view"},{"type":"function","name":"decimals","inputs":[],"outputs":[{"name":"","type":"uint8","internalType":"uint8"}],"stateMutability":"view"},{"type":"function","name":"deposit","inputs":[{"name":"assets","type":"uint256","internalType":"uint256"},{"name":"receiver","type":"address","internalType":"address"}],"outputs":[{"name":"","type":"uint256","internalType":"uint256"}],"stateMutability":"nonpayable"},{"type":"function","name":"fulfillRedeem","inputs":[{"name":"receiver","type":"address","internalType":"address"},{"name":"shares","type":"uint256","internalType":"uint256"},{"name":"assets","type":"uint256","internalType":"uint256"}],"outputs":[],"stateMutability":"nonpayable"},{"type":"function","name":"getAvailableBalance","inputs":[],"outputs":[{"name":"","type":"uint256","internalType":"uint256"}],"stateMutability":"view"},{"type":"function","name":"guards","inputs":[{"name":"target","type":"address","internalType":"address"}],"outputs":[{"name":"guard","type":"address","internalType":"contract ITransactionGuard"}],"stateMutability":"view"},{"type":"function","name":"initialize","inputs":[{"name":"_asset","type":"address","internalType":"contract IERC20"},{"name":"_owner","type":"address","internalType":"address"},{"name":"_balanceUpdateHook","type":"address","internalType":"contract IBalanceUpdateHook"},{"name":"_redemptionHook","type":"address","internalType":"contract IRedemptionHook"},{"name":"_name","type":"string","internalType":"string"},{"name":"_symbol","type":"string","internalType":"string"}],"outputs":[],"stateMutability":"nonpayable"},{"type":"function","name":"isAuthorized","inputs":[{"name":"user","type":"address","internalType":"address"},{"name":"functionSig","type":"bytes4","internalType":"bytes4"}],"outputs":[{"name":"","type":"bool","internalType":"bool"}],"stateMutability":"view"},{"type":"function","name":"lastBlockUpdated","inputs":[],"outputs":[{"name":"","type":"uint256","internalType":"uint256"}],"stateMutability":"view"},{"type":"function","name":"lastPricePerShare","inputs":[],"outputs":[{"name":"","type":"uint256","internalType":"uint256"}],"stateMutability":"view"},{"type":"function","name":"manageBatch","inputs":[{"name":"calls","type":"tuple[]","internalType":"struct Call[]","components":[{"name":"target","type":"address","internalType":"address"},{"name":"data","type":"bytes","internalType":"bytes"},{"name":"value","type":"uint256","internalType":"uint256"}]}],"outputs":[],"stateMutability":"nonpayable"},{"type":"function","name":"maxDeposit","inputs":[{"name":"receiver","type":"address","internalType":"address"}],"outputs":[{"name":"","type":"uint256","internalType":"uint256"}],"stateMutability":"view"},{"type":"function","name":"maxMint","inputs":[{"name":"receiver","type":"address","internalType":"address"}],"outputs":[{"name":"","type":"uint256","internalType":"uint256"}],"stateMutability":"view"},{"type":"function","name":"maxRedeem","inputs":[{"name":"owner","type":"address","internalType":"address"}],"outputs":[{"name":"","type":"uint256","internalType":"uint256"}],"stateMutability":"view"},{"type":"function","name":"maxWithdraw","inputs":[{"name":"owner","type":"address","internalType":"address"}],"outputs":[{"name":"","type":"uint256","internalType":"uint256"}],"stateMutability":"view"},{"type":"function","name":"mint","inputs":[{"name":"shares","type":"uint256","internalType":"uint256"},{"name":"receiver","type":"address","internalType":"address"}],"outputs":[{"name":"","type":"uint256","internalType":"uint256"}],"stateMutability":"nonpayable"},{"type":"function","name":"name","inputs":[],"outputs":[{"name":"","type":"string","internalType":"string"}],"stateMutability":"view"},{"type":"function","name":"onERC1155BatchReceived","inputs":[{"name":"","type":"address","internalType":"address"},{"name":"","type":"address","internalType":"address"},{"name":"","type":"uint256[]","internalType":"uint256[]"},{"name":"","type":"uint256[]","internalType":"uint256[]"},{"name":"","type":"bytes","internalType":"bytes"}],"outputs":[{"name":"","type":"bytes4","internalType":"bytes4"}],"stateMutability":"pure"},{"type":"function","name":"onERC1155Received","inputs":[{"name":"","type":"address","internalType":"address"},{"name":"","type":"address","internalType":"address"},{"name":"","type":"uint256","internalType":"uint256"},{"name":"","type":"uint256","internalType":"uint256"},{"name":"","type":"bytes","internalType":"bytes"}],"outputs":[{"name":"","type":"bytes4","internalType":"bytes4"}],"stateMutability":"pure"},{"type":"function","name":"onERC721Received","inputs":[{"name":"","type":"address","internalType":"address"},{"name":"","type":"address","internalType":"address"},{"name":"","type":"uint256","internalType":"uint256"},{"name":"","type":"bytes","internalType":"bytes"}],"outputs":[{"name":"","type":"bytes4","internalType":"bytes4"}],"stateMutability":"pure"},{"type":"function","name":"owner","inputs":[],"outputs":[{"name":"","type":"address","internalType":"address"}],"stateMutability":"view"},{"type":"function","name":"pause","inputs":[],"outputs":[],"stateMutability":"nonpayable"},{"type":"function","name":"paused","inputs":[],"outputs":[{"name":"","type":"bool","internalType":"bool"}],"stateMutability":"view"},{"type":"function","name":"pendingRedeemRequest","inputs":[{"name":"user","type":"address","internalType":"address"}],"outputs":[{"name":"assets","type":"uint256","internalType":"uint256"},{"name":"pendingShares","type":"uint256","internalType":"uint256"}],"stateMutability":"view"},{"type":"function","name":"previewDeposit","inputs":[{"name":"assets","type":"uint256","internalType":"uint256"}],"outputs":[{"name":"","type":"uint256","internalType":"uint256"}],"stateMutability":"view"},{"type":"function","name":"previewMint","inputs":[{"name":"shares","type":"uint256","internalType":"uint256"}],"outputs":[{"name":"","type":"uint256","internalType":"uint256"}],"stateMutability":"view"},{"type":"function","name":"previewRedeem","inputs":[{"name":"shares","type":"uint256","internalType":"uint256"}],"outputs":[{"name":"","type":"uint256","internalType":"uint256"}],"stateMutability":"view"},{"type":"function","name":"previewWithdraw","inputs":[{"name":"assets","type":"uint256","internalType":"uint256"}],"outputs":[{"name":"","type":"uint256","internalType":"uint256"}],"stateMutability":"view"},{"type":"function","name":"redeem","inputs":[{"name":"shares","type":"uint256","internalType":"uint256"},{"name":"receiver","type":"address","internalType":"address"},{"name":"owner","type":"address","internalType":"address"}],"outputs":[{"name":"","type":"uint256","internalType":"uint256"}],"stateMutability":"nonpayable"},{"type":"function","name":"redemptionHook","inputs":[],"outputs":[{"name":"","type":"address","internalType":"contract IRedemptionHook"}],"stateMutability":"view"},{"type":"function","name":"removeGuard","inputs":[{"name":"target","type":"address","internalType":"address"}],"outputs":[],"stateMutability":"nonpayable"},{"type":"function","name":"requestRedeem","inputs":[{"name":"shares","type":"uint256","internalType":"uint256"},{"name":"receiver","type":"address","internalType":"address"},{"name":"owner","type":"address","internalType":"address"}],"outputs":[{"name":"","type":"uint256","internalType":"uint256"}],"stateMutability":"nonpayable"},{"type":"function","name":"setAuthority","inputs":[{"name":"newAuthority","type":"address","internalType":"contract Authority"}],"outputs":[],"stateMutability":"nonpayable"},{"type":"function","name":"setBalanceUpdateHook","inputs":[{"name":"newAdapter","type":"address","internalType":"contract IBalanceUpdateHook"}],"outputs":[],"stateMutability":"nonpayable"},{"type":"function","name":"setGuard","inputs":[{"name":"target","type":"address","internalType":"address"},{"name":"guard","type":"address","internalType":"address"}],"outputs":[],"stateMutability":"nonpayable"},{"type":"function","name":"setRedemptionHook","inputs":[{"name":"newStrategy","type":"address","internalType":"contract IRedemptionHook"}],"outputs":[],"stateMutability":"nonpayable"},{"type":"function","name":"symbol","inputs":[],"outputs":[{"name":"","type":"string","internalType":"string"}],"stateMutability":"view"},{"type":"function","name":"totalAssets","inputs":[],"outputs":[{"name":"","type":"uint256","internalType":"uint256"}],"stateMutability":"view"},{"type":"function","name":"totalPendingAssets","inputs":[],"outputs":[{"name":"","type":"uint256","internalType":"uint256"}],"stateMutability":"view"},{"type":"function","name":"totalSupply","inputs":[],"outputs":[{"name":"","type":"uint256","internalType":"uint256"}],"stateMutability":"view"},{"type":"function","name":"transfer","inputs":[{"name":"to","type":"address","internalType":"address"},{"name":"value","type":"uint256","internalType":"uint256"}],"outputs":[{"name":"","type":"bool","internalType":"bool"}],"stateMutability":"nonpayable"},{"type":"function","name":"transferFrom","inputs":[{"name":"from","type":"address","internalType":"address"},{"name":"to","type":"address","internalType":"address"},{"name":"value","type":"uint256","internalType":"uint256"}],"outputs":[{"name":"","type":"bool","internalType":"bool"}],"stateMutability":"nonpayable"},{"type":"function","name":"transferOwnership","inputs":[{"name":"newOwner","type":"address","internalType":"address"}],"outputs":[],"stateMutability":"nonpayable"},{"type":"function","name":"unpause","inputs":[],"outputs":[],"stateMutability":"nonpayable"},{"type":"function","name":"updateBalance","inputs":[{"name":"newAggregatedBalance","type":"uint256","internalType":"uint256"}],"outputs":[],"stateMutability":"nonpayable"},{"type":"function","name":"withdraw","inputs":[{"name":"","type":"uint256","internalType":"uint256"},{"name":"","type":"address","internalType":"address"},{"name":"","type":"address","internalType":"address"}],"outputs":[{"name":"","type":"uint256","internalType":"uint256"}],"stateMutability":"nonpayable"},{"type":"event","name":"Approval","inputs":[{"name":"owner","type":"address","indexed":true,"internalType":"address"},{"name":"spender","type":"address","indexed":true,"internalType":"address"},{"name":"value","type":"uint256","indexed":false,"internalType":"uint256"}],"anonymous":false},{"type":"event","name":"AuthorityUpdated","inputs":[{"name":"user","type":"address","indexed":true,"internalType":"address"},{"name":"newAuthority","type":"address","indexed":true,"internalType":"contract Authority"}],"anonymous":false},{"type":"event","name":"BalanceUpdateHookUpdated","inputs":[{"name":"oldHook","type":"address","indexed":true,"internalType":"address"},{"name":"newHook","type":"address","indexed":true,"internalType":"address"}],"anonymous":false},{"type":"event","name":"Deposit","inputs":[{"name":"sender","type":"address","indexed":true,"internalType":"address"},{"name":"owner","type":"address","indexed":true,"internalType":"address"},{"name":"assets","type":"uint256","indexed":false,"internalType":"uint256"},{"name":"shares","type":"uint256","indexed":false,"internalType":"uint256"}],"anonymous":false},{"type":"event","name":"GuardRemoved","inputs":[{"name":"target","type":"address","indexed":true,"internalType":"address"}],"anonymous":false},{"type":"event","name":"GuardUpdated","inputs":[{"name":"target","type":"address","indexed":true,"internalType":"address"},{"name":"guard","type":"address","indexed":true,"internalType":"address"}],"anonymous":false},{"type":"event","name":"Initialized","inputs":[{"name":"version","type":"uint64","indexed":false,"internalType":"uint64"}],"anonymous":false},{"type":"event","name":"ManageBatchOperation","inputs":[{"name":"index","type":"uint256","indexed":true,"internalType":"uint256"},{"name":"target","type":"address","indexed":true,"internalType":"address"},{"name":"functionSig","type":"bytes4","indexed":false,"internalType":"bytes4"},{"name":"value","type":"uint256","indexed":false,"internalType":"uint256"},{"name":"result","type":"bytes","indexed":false,"internalType":"bytes"}],"anonymous":false},{"type":"event","name":"OwnershipTransferred","inputs":[{"name":"user","type":"address","indexed":true,"internalType":"address"},{"name":"newOwner","type":"address","indexed":true,"internalType":"address"}],"anonymous":false},{"type":"event","name":"PPSUpdated","inputs":[{"name":"timestamp","type":"uint256","indexed":true,"internalType":"uint256"},{"name":"oldPPS","type":"uint256","indexed":false,"internalType":"uint256"},{"name":"newPPS","type":"uint256","indexed":false,"internalType":"uint256"}],"anonymous":false},{"type":"event","name":"Paused","inputs":[{"name":"account","type":"address","indexed":false,"internalType":"address"}],"anonymous":false},{"type":"event","name":"Received","inputs":[{"name":"sender","type":"address","indexed":false,"internalType":"address"},{"name":"amount","type":"uint256","indexed":false,"internalType":"uint256"}],"anonymous":false},{"type":"event","name":"RedeemRequest","inputs":[{"name":"receiver","type":"address","indexed":true,"internalType":"address"},{"name":"owner","type":"address","indexed":true,"internalType":"address"},{"name":"assets","type":"uint256","indexed":false,"internalType":"uint256"},{"name":"shares","type":"uint256","indexed":false,"internalType":"uint256"},{"name":"instant","type":"bool","indexed":false,"internalType":"bool"}],"anonymous":false},{"type":"event","name":"RedemptionHookUpdated","inputs":[{"name":"oldHook","type":"address","indexed":true,"internalType":"address"},{"name":"newHook","type":"address","indexed":true,"internalType":"address"}],"anonymous":false},{"type":"event","name":"RequestCancelled","inputs":[{"name":"receiver","type":"address","indexed":true,"internalType":"address"},{"name":"shares","type":"uint256","indexed":false,"internalType":"uint256"},{"name":"assets","type":"uint256","indexed":false,"internalType":"uint256"}],"anonymous":false},{"type":"event","name":"RequestFulfilled","inputs":[{"name":"receiver","type":"address","indexed":true,"internalType":"address"},{"name":"shares","type":"uint256","indexed":false,"internalType":"uint256"},{"name":"assets","type":"uint256","indexed":false,"internalType":"uint256"}],"anonymous":false},{"type":"event","name":"Transfer","inputs":[{"name":"from","type":"address","indexed":true,"internalType":"address"},{"name":"to","type":"address","indexed":true,"internalType":"address"},{"name":"value","type":"uint256","indexed":false,"internalType":"uint256"}],"anonymous":false},{"type":"event","name":"UnderlyingBalanceUpdated","inputs":[{"name":"timestamp","type":"uint256","indexed":true,"internalType":"uint256"},{"name":"oldBalance","type":"uint256","indexed":false,"internalType":"uint256"},{"name":"newBalance","type":"uint256","indexed":false,"internalType":"uint256"}],"anonymous":false},{"type":"event","name":"Unpaused","inputs":[{"name":"account","type":"address","indexed":false,"internalType":"address"}],"anonymous":false},{"type":"event","name":"VaultPausedDueToThreshold","inputs":[{"name":"timestamp","type":"uint256","indexed":true,"internalType":"uint256"},{"name":"oldPPS","type":"uint256","indexed":false,"internalType":"uint256"},{"name":"newPPS","type":"uint256","indexed":false,"internalType":"uint256"}],"anonymous":false},{"type":"event","name":"Withdraw","inputs":[{"name":"sender","type":"address","indexed":true,"internalType":"address"},{"name":"receiver","type":"address","indexed":true,"internalType":"address"},{"name":"owner","type":"address","indexed":true,"internalType":"address"},{"name":"assets","type":"uint256","indexed":false,"internalType":"uint256"},{"name":"shares","type":"uint256","indexed":false,"internalType":"uint256"}],"anonymous":false},{"type":"error","name":"AddressEmptyCode","inputs":[{"name":"target","type":"address","internalType":"address"}]},{"type":"error","name":"ERC20InsufficientAllowance","inputs":[{"name":"spender","type":"address","internalType":"address"},{"name":"allowance","type":"uint256","internalType":"uint256"},{"name":"needed","type":"uint256","internalType":"uint256"}]},{"type":"error","name":"ERC20InsufficientBalance","inputs":[{"name":"sender","type":"address","internalType":"address"},{"name":"balance","type":"uint256","internalType":"uint256"},{"name":"needed","type":"uint256","internalType":"uint256"}]},{"type":"error","name":"ERC20InvalidApprover","inputs":[{"name":"approver","type":"address","internalType":"address"}]},{"type":"error","name":"ERC20InvalidReceiver","inputs":[{"name":"receiver","type":"address","internalType":"address"}]},{"type":"error","name":"ERC20InvalidSender","inputs":[{"name":"sender","type":"address","internalType":"address"}]},{"type":"error","name":"ERC20InvalidSpender","inputs":[{"name":"spender","type":"address","internalType":"address"}]},{"type":"error","name":"ERC4626ExceededMaxDeposit","inputs":[{"name":"receiver","type":"address","internalType":"address"},{"name":"assets","type":"uint256","internalType":"uint256"},{"name":"max","type":"uint256","internalType":"uint256"}]},{"type":"error","name":"ERC4626ExceededMaxMint","inputs":[{"name":"receiver","type":"address","internalType":"address"},{"name":"shares","type":"uint256","internalType":"uint256"},{"name":"max","type":"uint256","internalType":"uint256"}]},{"type":"error","name":"ERC4626ExceededMaxRedeem","inputs":[{"name":"owner","type":"address","internalType":"address"},{"name":"shares","type":"uint256","internalType":"uint256"},{"name":"max","type":"uint256","internalType":"uint256"}]},{"type":"error","name":"ERC4626ExceededMaxWithdraw","inputs":[{"name":"owner","type":"address","internalType":"address"},{"name":"assets","type":"uint256","internalType":"uint256"},{"name":"max","type":"uint256","internalType":"uint256"}]},{"type":"error","name":"EnforcedPause","inputs":[]},{"type":"error","name":"ExpectedPause","inputs":[]},{"type":"error","name":"FailedCall","inputs":[]},{"type":"error","name":"InsufficientBalance","inputs":[{"name":"balance","type":"uint256","internalType":"uint256"},{"name":"needed","type":"uint256","internalType":"uint256"}]},{"type":"error","name":"InsufficientShares","inputs":[]},{"type":"error","name":"InvalidAssetsAmount","inputs":[]},{"type":"error","name":"InvalidInitialization","inputs":[]},{"type":"error","name":"InvalidRedemptionMode","inputs":[]},{"type":"error","name":"InvalidSharesAmount","inputs":[]},{"type":"error","name":"NotInitializing","inputs":[]},{"type":"error","name":"NotSharesOwner","inputs":[]},{"type":"error","name":"SafeERC20FailedOperation","inputs":[{"name":"token","type":"address","internalType":"address"}]},{"type":"error","name":"SharesAmountZero","inputs":[]},{"type":"error","name":"TransactionValidationFailed","inputs":[{"name":"target","type":"address","internalType":"address"}]},{"type":"error","name":"UpdateAlreadyCompletedInThisBlock","inputs":[]},{"type":"error","name":"UseRequestRedeem","inputs":[]},{"type":"error","name":"ZeroAddress","inputs":[]}],"bytecode":{"object":"0x608060405234602357600e6027565b60146027565b6040516135bb90816100bc8239f35b5f80fd5b5f5160206136775f395f51905f525460ff8160401c1660ac576002600160401b03196001600160401b03821601605a5750565b6001600160401b0319166001600160401b039081175f5160206136775f395f51905f52556040519081527fc7f505b2f371ae2175ee4913f4499e1f2633a7b5936321eed1cdaeb6115181d290602090a1565b63f92ee8a960e01b5f5260045ffdfe6080604052600436101561004b575b3615610018575f80fd5b604080513381523460208201527f88a5966d370b9919b20f3e2c13ff65706f196a4e32cc2c12bf57088f885258749190a1005b5f358060e01c806301e1d1141461217c57806303d4113b1461215f57806306fdde031461207c57806307a2d13a1461189c578063095ea7b314611f815780630a28a47714611f3257806312d36fd314611c37578063150b7a0214611bc857806316f020d614611ba257806318160ddd14611b795780631cd1c8c314611aa3578063227773ee14611a2457806323b872dd146119ec578063313ce5671461198d57806338d52e0f146119485780633f4ba83a146118a1578063402d267d1461058f5780634cdad5061461189c57806353dc1dd314611851578063560b2318146117d65780635c975abb146117a85780636442b2ba146116785780636b462151146116385780636e553f65146115ae57806370a082311461156c5780637339957014611546578063760f5f27146115295780637a9e5e4b1461139c5780637d41c86e14611380578063809dab6a146112ba5780638456cb59146112395780638da5cb5b146111f45780639317c200146109ee57806394bf804d1461096557806395d89b4114610845578063a9059cbb14610814578063ab4f0f01146107f7578063ac9dc9e8146107da578063b3d7f6b9146107bc578063b460af941461077b578063b623501614610709578063ba087652146106e0578063ba7b37d4146106aa578063bc197c81146105f7578063bf7e214f146105b2578063c63d75b61461058f578063c6e6f592146103dc578063ce96cb771461056c578063d905777e14610541578063d9972b96146104fd578063dd62ed3e14610484578063e8ccdf3f146103e1578063ef8b30f7146103dc578063f23a6e611461036d5763f2fde38b146102b3575061000e565b34610369576020366003190112610369576001600160a01b03906102f16102ec6001600160e01b03196102e46121f3565b931633612b04565b61246e565b16806001600160a01b03197fdd3fd67aef415aded9493b31ad20a02d2991d4bb2760431cc729821271eaea005416177fdd3fd67aef415aded9493b31ad20a02d2991d4bb2760431cc729821271eaea0055337f8be0079c531659141344cd1fd0a4f28419497f9722a3daafe3b4186f6b6457e05f80a3005b5f80fd5b346103695760a0366003190112610369576103866121f3565b5061038f612209565b5060843567ffffffffffffffff8111610369576103b0903690600401612250565b505060206040517ff23a6e61000000000000000000000000000000000000000000000000000000008152f35b612374565b5034610369576020366003190112610369576001600160a01b03906104136102ec6001600160e01b03196102e46121f3565b16801561045c576001600160a01b0319600554826001600160a01b0382167f71e86d7b6261afe37537fed8f42bf15d2ed9344bd8bd3949ea67fdf36a5e55545f80a31617600555005b7fd92e233d000000000000000000000000000000000000000000000000000000005f5260045ffd5b346103695760403660031901126103695761049d6121f3565b6001600160a01b036104e76104b0612209565b926001600160a01b03165f527f52c63247e1f47db19d5ce0460030c497f067ca4cebf71ba98eeadabe20bace0160205260405f2090565b91165f52602052602060405f2054604051908152f35b34610369576040366003190112610369576105166121f3565b602435906001600160e01b0319821682036103695760209161053791612b04565b6040519015158152f35b3461036957602036600319011261036957602061056461055f6121f3565b612ac6565b604051908152f35b3461036957602036600319011261036957602061056461058a6121f3565b612a82565b346103695760203660031901126103695760206105646105ad6121f3565b612543565b34610369575f3660031901126103695760206001600160a01b037fdd3fd67aef415aded9493b31ad20a02d2991d4bb2760431cc729821271eaea015416604051908152f35b346103695760a0366003190112610369576106106121f3565b50610619612209565b5060443567ffffffffffffffff81116103695761063a90369060040161221f565b505060643567ffffffffffffffff81116103695761065c90369060040161221f565b505060843567ffffffffffffffff81116103695761067e903690600401612250565b505060206040517fbc197c81000000000000000000000000000000000000000000000000000000008152f35b5034610369576020366003190112610369576102ec6001600160e01b03196106d3921633612b04565b6106de600435612806565b005b346103695760206105646106f3366122a8565b916106fc6130c9565b6107046130c9565b612570565b5034610369576020366003190112610369576001600160a01b039061073b6102ec6001600160e01b03196102e46121f3565b16805f525f60205260405f206001600160a01b031981541690557f59926e0a78d12238b668b31c8e3f6ece235a59a00ede111d883e255b68c4d0485f80a2005b3461036957610789366122a8565b5050506107946130c9565b7f797f246a000000000000000000000000000000000000000000000000000000005f5260045ffd5b34610369576020366003190112610369576020610564600435612c0f565b34610369575f366003190112610369576020600454604051908152f35b34610369575f366003190112610369576020600754604051908152f35b346103695760403660031901126103695761083a6108306121f3565b6024359033612cf8565b602060405160018152f35b34610369575f366003190112610369576040515f7f52c63247e1f47db19d5ce0460030c497f067ca4cebf71ba98eeadabe20bace045461088481612436565b808452906001811690811561094157506001146108c4575b6108c0836108ac818503826122e2565b604051918291602083526020830190612196565b0390f35b7f52c63247e1f47db19d5ce0460030c497f067ca4cebf71ba98eeadabe20bace045f9081527f46a2803e59a4de4e7a4c574b1243f25977ac4c77d5a1a4a609b5394cebb4a2aa939250905b808210610927575090915081016020016108ac61089c565b91926001816020925483858801015201910190929161090f565b60ff191660208086019190915291151560051b840190910191506108ac905061089c565b3461036957604036600319011261036957600435610981612209565b9061098a6130c9565b61099382612543565b8082116109b257602083610564846109aa81612c0f565b809333613196565b916001600160a01b03907f284ff667000000000000000000000000000000000000000000000000000000005f521660045260245260445260645ffd5b346103695760c0366003190112610369576004356001600160a01b03811680820361036957610a1b612209565b604435906001600160a01b03821680920361036957606435926001600160a01b0384168094036103695760843567ffffffffffffffff811161036957610a65903690600401612356565b9460a43567ffffffffffffffff811161036957610a86903690600401612356565b7ff0c57e16840df040f15088dc2f81fe391c3923bec73e23a9662efc9c229c6a00549660ff8860401c16159767ffffffffffffffff8116801590816111ec575b60011490816111e2575b1590816111d9575b506111b15767ffffffffffffffff1981166001177ff0c57e16840df040f15088dc2f81fe391c3923bec73e23a9662efc9c229c6a005588611172575b50610b1d6132c8565b610b256132c8565b610b2d6132c8565b80519067ffffffffffffffff8211611022578190610b6b7f52c63247e1f47db19d5ce0460030c497f067ca4cebf71ba98eeadabe20bace0354612436565b601f81116110e5575b50602090601f8311600114611041575f92611036575b50508160011b915f199060031b1c1916177f52c63247e1f47db19d5ce0460030c497f067ca4cebf71ba98eeadabe20bace03555b80519067ffffffffffffffff821161102257610bfa7f52c63247e1f47db19d5ce0460030c497f067ca4cebf71ba98eeadabe20bace0454612436565b601f8111610fa0575b50602090601f8311600114610eef5791806001600160a01b0396959492610c74945f92610ee4575b50508160011b915f199060031b1c1916177f52c63247e1f47db19d5ce0460030c497f067ca4cebf71ba98eeadabe20bace04555b610c676132c8565b610c6f6132c8565b6134b6565b9015610edc575b7fffffffffffffffffffffff00000000000000000000000000000000000000000074ff00000000000000000000000000000000000000007f0773e532dfede91f04b12a73d3d2acd361424f41f76b4fb79f090161e36b4e00549260a01b16911617177f0773e532dfede91f04b12a73d3d2acd361424f41f76b4fb79f090161e36b4e0055610d076132c8565b610d0f6132c8565b16806001600160a01b03197fdd3fd67aef415aded9493b31ad20a02d2991d4bb2760431cc729821271eaea005416177fdd3fd67aef415aded9493b31ad20a02d2991d4bb2760431cc729821271eaea00556001600160a01b03197fdd3fd67aef415aded9493b31ad20a02d2991d4bb2760431cc729821271eaea0154167fdd3fd67aef415aded9493b31ad20a02d2991d4bb2760431cc729821271eaea0155337f8be0079c531659141344cd1fd0a4f28419497f9722a3daafe3b4186f6b6457e05f80a35f337fa3396fd7f6e0a21b50e5089d2da70d5ac0a3bbbd1f617a93f134b763899801988280a3610e016132c8565b610e096132c8565b60ff195f51602061358f5f395f51905f5254165f51602061358f5f395f51905f5255801561045c57811561045c576001600160a01b031960015416176001556001600160a01b03196005541617600555610e5f57005b68ff0000000000000000197ff0c57e16840df040f15088dc2f81fe391c3923bec73e23a9662efc9c229c6a0054167ff0c57e16840df040f15088dc2f81fe391c3923bec73e23a9662efc9c229c6a00557fc7f505b2f371ae2175ee4913f4499e1f2633a7b5936321eed1cdaeb6115181d2602060405160018152a1005b506012610c7b565b015190508a80610c2b565b90601f198316917f52c63247e1f47db19d5ce0460030c497f067ca4cebf71ba98eeadabe20bace045f52815f20925f5b818110610f885750926001928592610c74966001600160a01b039a99989610610f70575b505050811b017f52c63247e1f47db19d5ce0460030c497f067ca4cebf71ba98eeadabe20bace0455610c5f565b01515f1960f88460031b161c191690558a8080610f43565b92936020600181928786015181550195019301610f1f565b7f52c63247e1f47db19d5ce0460030c497f067ca4cebf71ba98eeadabe20bace045f527f46a2803e59a4de4e7a4c574b1243f25977ac4c77d5a1a4a609b5394cebb4a2aa601f840160051c81019160208510611018575b601f0160051c01905b81811061100d5750610c03565b5f8155600101611000565b9091508190610ff7565b634e487b7160e01b5f52604160045260245ffd5b015190508980610b8a565b7f52c63247e1f47db19d5ce0460030c497f067ca4cebf71ba98eeadabe20bace035f9081528281209350601f198516905b8181106110cd57509084600195949392106110b5575b505050811b017f52c63247e1f47db19d5ce0460030c497f067ca4cebf71ba98eeadabe20bace0355610bbe565b01515f1960f88460031b161c19169055898080611088565b92936020600181928786015181550195019301611072565b7f52c63247e1f47db19d5ce0460030c497f067ca4cebf71ba98eeadabe20bace035f529091507f2ae08a8e29253f69ac5d979a101956ab8f8d9d7ded63fa7a83b16fc47648eab0601f840160051c81019160208510611168575b90601f859493920160051c01905b81811061115a5750610b74565b5f815584935060010161114d565b909150819061113f565b68ffffffffffffffffff191668010000000000000001177ff0c57e16840df040f15088dc2f81fe391c3923bec73e23a9662efc9c229c6a005588610b14565b7ff92ee8a9000000000000000000000000000000000000000000000000000000005f5260045ffd5b9050158a610ad8565b303b159150610ad0565b8a9150610ac6565b34610369575f3660031901126103695760206001600160a01b037fdd3fd67aef415aded9493b31ad20a02d2991d4bb2760431cc729821271eaea005416604051908152f35b5034610369575f366003190112610369576102ec6001600160e01b0319611261921633612b04565b6112696130c9565b600160ff195f51602061358f5f395f51905f525416175f51602061358f5f395f51905f52557f62e78cea01bee320cd4e420270b5ea74000d11b0c9f74754ebdbfc544b05a2586020604051338152a1005b34610369575f36600319011261036957602460206001600160a01b037f0773e532dfede91f04b12a73d3d2acd361424f41f76b4fb79f090161e36b4e005416604051928380926370a0823160e01b82523060048301525afa908115611375575f91611343575b5060075490818111156113395760209161056491612536565b505060205f610564565b90506020813d60201161136d575b8161135e602093836122e2565b81010312610369575181611320565b3d9150611351565b6040513d5f823e3d90fd5b34610369576020610564611393366122a8565b916107046130c9565b503461036957602036600319011261036957600435906001600160a01b038216809203610369576001600160a01b037fdd3fd67aef415aded9493b31ad20a02d2991d4bb2760431cc729821271eaea0054163314908115611475575b501561036957806001600160a01b03197fdd3fd67aef415aded9493b31ad20a02d2991d4bb2760431cc729821271eaea015416177fdd3fd67aef415aded9493b31ad20a02d2991d4bb2760431cc729821271eaea0155337fa3396fd7f6e0a21b50e5089d2da70d5ac0a3bbbd1f617a93f134b763899801985f80a3005b7fdd3fd67aef415aded9493b31ad20a02d2991d4bb2760431cc729821271eaea015460405163b700961360e01b81523360048201523060248201526001600160e01b0319929092166044830152909150602090829060649082906001600160a01b03165afa908115611375575f916114ef575b505f6113f8565b90506020813d602011611521575b8161150a602093836122e2565b810103126103695761151b90612563565b5f6114e8565b3d91506114fd565b34610369575f366003190112610369576020600354604051908152f35b34610369575f3660031901126103695760206001600160a01b0360015416604051908152f35b3461036957602036600319011261036957602061056461158a6121f3565b6001600160a01b03165f525f51602061354f5f395f51905f5260205260405f205490565b34610369576040366003190112610369576004356115ca612209565b906115d36130c9565b6115dc82612543565b8082116115fc57506105646020926115f383612c82565b92839133613196565b916001600160a01b03907f79012fb2000000000000000000000000000000000000000000000000000000005f521660045260245260445260645ffd5b34610369576020366003190112610369576001600160a01b036116596121f3565b165f525f60205260206001600160a01b0360405f205416604051908152f35b5034610369576001600160e01b0319906102ec6116a36116973661227e565b93919590941633612b04565b6001600160a01b03831692835f52600660205260405f20938454948515158061179e575b156117765760018101908154968715158061176c575b15611744576106de976116fc926116f5898994612536565b9055612536565b905561170a83600754612536565b6007557f1165aa98d42fbaef9bacc273d7b5cca8edc94909519f8f949ec33562963c87e460408051868152856020820152a2309030612f32565b7f3b832713000000000000000000000000000000000000000000000000000000005f5260045ffd5b50878611156116dd565b7f01e3468e000000000000000000000000000000000000000000000000000000005f5260045ffd5b50858511156116c7565b34610369575f36600319011261036957602060ff5f51602061358f5f395f51905f5254166040519015158152f35b5034610369576020366003190112610369576001600160a01b03906118086102ec6001600160e01b03196102e46121f3565b16801561045c576001600160a01b0319600154826001600160a01b0382167fe02404e8ee2b8389e3dd58c236f6b16e91da18f91ef4a5a763a94517394ce96b5f80a31617600155005b346103695760203660031901126103695760406001600160a01b036118746121f3565b16805f5260066020526001825f200154905f526006602052815f205482519182526020820152f35b6121d5565b5034610369575f366003190112610369576102ec6001600160e01b03196118c9921633612b04565b5f51602061358f5f395f51905f525460ff8116156119205760ff19165f51602061358f5f395f51905f52557f5db9ee0a495bf2e6ff9c91a7834c1ba4fdd244a5e8aa4e537bd38aeae4b073aa6020604051338152a1005b7f8dfc202b000000000000000000000000000000000000000000000000000000005f5260045ffd5b34610369575f3660031901126103695760206001600160a01b037f0773e532dfede91f04b12a73d3d2acd361424f41f76b4fb79f090161e36b4e005416604051908152f35b34610369575f3660031901126103695760ff7f0773e532dfede91f04b12a73d3d2acd361424f41f76b4fb79f090161e36b4e005460a01c1660ff81116119d857602090604051908152f35b634e487b7160e01b5f52601160045260245ffd5b346103695760603660031901126103695761083a611a086121f3565b611a10612209565b60443591611a1f833383612e16565b612cf8565b5034610369576040366003190112610369576001600160a01b0380611a476121f3565b92611a5f6102ec6001600160e01b03196102e4612209565b169116805f525f60205260405f20826001600160a01b03198254161790557f3cda29cdb79816ebd803e7c42da9b0bd76d5e7874a94abb4fae13ff444e353fb5f80a3005b5034610369576102ec906001600160e01b0319611ace611ac23661227e565b95919390941633612b04565b6001600160a01b038116805f52600660205260405f209384549081151580611b6f575b1561177657600186019081549182151580611b65575b1561174457611b42826040946106de9a6116f58b7f55ec94ca0f01023d07c5752a75f44048cfbdb0e4cfedf5e7eacecf21fcde358799612536565b9055611b5081600754612536565b6007558151908682526020820152a230612cf8565b5082821115611b07565b5081851115611af1565b34610369575f3660031901126103695760205f51602061356f5f395f51905f5254604051908152f35b34610369575f3660031901126103695760206001600160a01b0360055416604051908152f35b3461036957608036600319011261036957611be16121f3565b50611bea612209565b5060643567ffffffffffffffff811161036957611c0b903690600401612250565b505060206040517f150b7a02000000000000000000000000000000000000000000000000000000008152f35b5034610369576020366003190112610369576004359067ffffffffffffffff821161036957611c736001600160e01b031992369060040161221f565b9290911691611c856102ec8433612b04565b8015611eee575f5b818110611c9657005b611ca9611ca48284866124b9565b6124ef565b611cc1611cb78385876124b9565b6020810190612503565b6040611cce8587896124b9565b013591611cde6102ec8933612b04565b6001600160a01b0384165f525f6020526001600160a01b0360405f20541691611d0985841515612cbb565b602060405180947fdb86c42c00000000000000000000000000000000000000000000000000000000825233600483015260606024830152836064830152838560848401375f6084858401015286604483015281608481601f19601f88011681010301915afa80156113755785935f91611eab575b50611d9293611d8b91612cbb565b3691612320565b90804710611e7c57915f8083600196956020611dbd9651920190855af1611db7613167565b916133bd565b817f2f13a569f6d2fba5618730b89cb049a8d430f6bd0aa6eea26e948d8d663d7c766001600160e01b031987611df7611ca4858a846124b9565b8489611e07611cb78383876124b9565b9490358681169560048110611e5e575b5050611e326001600160a01b0393611e5595936040936124b9565b013560405195869516855260208501526060604085015216956060830190612196565b0390a301611c8d565b60040360031b87901b1686169450611e326001600160a01b03611e17565b477fcf479181000000000000000000000000000000000000000000000000000000005f5260045260245260445ffd5b9350506020833d8211611ee6575b81611ec6602093836122e2565b8101031261036957611d8b85611ede611d9295612563565b915093611d7d565b3d9150611eb9565b606460405162461bcd60e51b815260206004820152601160248201527f4e6f2063616c6c732070726f76696465640000000000000000000000000000006044820152fd5b34610369576020366003190112610369575f51602061356f5f395f51905f5254600181018091116119d857611f6561239f565b600181018091116119d857600161056491602093600435613109565b3461036957604036600319011261036957611f9a6121f3565b602435903315612050576001600160a01b031690811561202457335f9081527f52c63247e1f47db19d5ce0460030c497f067ca4cebf71ba98eeadabe20bace0160205260409020825f526020528060405f20556040519081527f8c5be1e5ebec7d5bd14f71427d1e84f3dd0314c0f7b2291e5b200ac8c7c3b92560203392a3602060405160018152f35b7f94280d62000000000000000000000000000000000000000000000000000000005f525f60045260245ffd5b7fe602df05000000000000000000000000000000000000000000000000000000005f525f60045260245ffd5b34610369575f366003190112610369576040515f7f52c63247e1f47db19d5ce0460030c497f067ca4cebf71ba98eeadabe20bace03546120bb81612436565b808452906001811690811561094157506001146120e2576108c0836108ac818503826122e2565b7f52c63247e1f47db19d5ce0460030c497f067ca4cebf71ba98eeadabe20bace035f9081527f2ae08a8e29253f69ac5d979a101956ab8f8d9d7ded63fa7a83b16fc47648eab0939250905b808210612145575090915081016020016108ac61089c565b91926001816020925483858801015201910190929161212d565b34610369575f366003190112610369576020600254604051908152f35b34610369575f36600319011261036957602061056461239f565b91908251928382525f5b8481106121c0575050825f602080949584010152601f8019910116010190565b806020809284010151828286010152016121a0565b34610369576020366003190112610369576020610564600435612c49565b600435906001600160a01b038216820361036957565b602435906001600160a01b038216820361036957565b9181601f840112156103695782359167ffffffffffffffff8311610369576020808501948460051b01011161036957565b9181601f840112156103695782359167ffffffffffffffff8311610369576020838186019501011161036957565b6060906003190112610369576004356001600160a01b038116810361036957906024359060443590565b606090600319011261036957600435906024356001600160a01b038116810361036957906044356001600160a01b03811681036103695790565b90601f8019910116810190811067ffffffffffffffff82111761102257604052565b67ffffffffffffffff811161102257601f01601f191660200190565b92919261232c82612304565b9161233a60405193846122e2565b829481845281830111610369578281602093845f960137010152565b9080601f830112156103695781602061237193359101612320565b90565b34610369576020366003190112610369576020610564600435612c82565b919082018092116119d857565b602460206001600160a01b037f0773e532dfede91f04b12a73d3d2acd361424f41f76b4fb79f090161e36b4e005416604051928380926370a0823160e01b82523060048301525afa8015611375575f90612402575b612371915060025490612392565b506020813d60201161242e575b8161241c602093836122e2565b810103126103695761237190516123f4565b3d915061240f565b90600182811c92168015612464575b602083101461245057565b634e487b7160e01b5f52602260045260245ffd5b91607f1691612445565b1561247557565b606460405162461bcd60e51b815260206004820152600c60248201527f554e415554484f52495a454400000000000000000000000000000000000000006044820152fd5b91908110156124db5760051b81013590605e1981360301821215610369570190565b634e487b7160e01b5f52603260045260245ffd5b356001600160a01b03811681036103695790565b903590601e1981360301821215610369570180359067ffffffffffffffff82116103695760200191813603831361036957565b919082039182116119d857565b5060ff5f51602061358f5f395f51905f52541661255f575f1990565b5f90565b5190811515820361036957565b9081156127de576001600160a01b038316913383036127b657825f525f51602061354f5f395f51905f526020528060405f20541061278e576125b181612c49565b936001600160a01b036005541692604051957f51eda43e000000000000000000000000000000000000000000000000000000008752306004880152836024880152604487015284606487015260408660a4815f6001600160a01b038616988960848401525af1958615611375575f905f9761274b575b506002811015612737578061267f5750916126688187847f9a626d8a4952950c7f8b9f5c92a2804e44e147ce4dd0add2f5928f1faea7259096606096612f32565b60405190868252602082015260016040820152a390565b949593949293919260011415905061270f57826126c17f9a626d8a4952950c7f8b9f5c92a2804e44e147ce4dd0add2f5928f1faea72590946060943090612cf8565b6126cd82600754612392565b600755845f526006602052600160405f206126e9838254612392565b8155016126f7838254612392565b905560405191825260208201525f6040820152a35f90565b7f03e28a1b000000000000000000000000000000000000000000000000000000005f5260045ffd5b634e487b7160e01b5f52602160045260245ffd5b9650506040863d604011612786575b81612767604093836122e2565b810103126103695785519560028710156103695760200151955f612627565b3d915061275a565b7f39996567000000000000000000000000000000000000000000000000000000005f5260045ffd5b7fe7fe5cf4000000000000000000000000000000000000000000000000000000005f5260045ffd5b7f840c364a000000000000000000000000000000000000000000000000000000005f5260045ffd5b600354431115612a5a576001600160a01b03600154169060045460245f51602061356f5f395f51905f525460206001600160a01b037f0773e532dfede91f04b12a73d3d2acd361424f41f76b4fb79f090161e36b4e005416604051938480926370a0823160e01b82523060048301525afa918215611375575f92612a25575b50906084604092835196879384927f1faab223000000000000000000000000000000000000000000000000000000008452876004850152602484015260448301528660648301525afa928315611375575f905f946129e4575b501561295757508060025581600455436003556040519080825260208201527f9b01f304f89acbc3f9ca1425e6ce22d5f57df58c42b9adc0dac4c4a71236f98e60404292a26040519080825260208201527f3f22d682a7202099eeac8a14fda6f2bbcadb8b7e2a83b665b69776e8d606151660404292a2565b9190506129626130c9565b600160ff195f51602061358f5f395f51905f525416175f51602061358f5f395f51905f52557f62e78cea01bee320cd4e420270b5ea74000d11b0c9f74754ebdbfc544b05a2586020604051338152a160405191825260208201527f624f9968f9037cc40b91b22280a8f1a3f1fd95e6d2f00e1d7ae4aa10ff2e59c460404292a2565b9350506040833d604011612a1d575b81612a00604093836122e2565b81010312610369576020612a1384612563565b930151925f6128de565b3d91506129f3565b91506020823d602011612a52575b81612a40602093836122e2565b81010312610369579051906084612885565b3d9150612a33565b7f95628bbc000000000000000000000000000000000000000000000000000000005f5260045ffd5b60ff5f51602061358f5f395f51905f525416612ac1576001600160a01b03165f525f51602061354f5f395f51905f5260205261237160405f2054612c49565b505f90565b60ff5f51602061358f5f395f51905f525416612ac157612371906001600160a01b03165f525f51602061354f5f395f51905f5260205260405f205490565b6001600160a01b037fdd3fd67aef415aded9493b31ad20a02d2991d4bb2760431cc729821271eaea015416918215159283612b7a575b50508115612b46575090565b90506001600160a01b03807fdd3fd67aef415aded9493b31ad20a02d2991d4bb2760431cc729821271eaea00541691161490565b60405163b700961360e01b81526001600160a01b03841660048201523060248201526001600160e01b031992909216604483015291925090602090829060649082905afa908115611375575f91612bd5575b50905f80612b3a565b90506020813d602011612c07575b81612bf0602093836122e2565b8101031261036957612c0190612563565b5f612bcc565b3d9150612be3565b612c1761239f565b90600182018092116119d8575f51602061356f5f395f51905f5254600181018091116119d85761237192600192613109565b612c5161239f565b90600182018092116119d8575f51602061356f5f395f51905f5254600181018091116119d857612371925f92613109565b5f51602061356f5f395f51905f525490600182018092116119d857612ca561239f565b600181018091116119d857612371925f92613109565b15612cc35750565b6001600160a01b03907fe2b9c0ef000000000000000000000000000000000000000000000000000000005f521660045260245ffd5b6001600160a01b0316908115612dea576001600160a01b0316918215612dbe57612d206130c9565b815f525f51602061354f5f395f51905f5260205260405f2054818110612da557817fddf252ad1be2c89b69c2b068fc378daa952ba7f163c4a11628f55a4df523b3ef92602092855f525f51602061354f5f395f51905f5284520360405f2055845f525f51602061354f5f395f51905f52825260405f20818154019055604051908152a3565b8263391434e360e21b5f5260045260245260445260645ffd5b7fec442f05000000000000000000000000000000000000000000000000000000005f525f60045260245ffd5b7f96c6fd1e000000000000000000000000000000000000000000000000000000005f525f60045260245ffd5b9190612e52836001600160a01b03165f527f52c63247e1f47db19d5ce0460030c497f067ca4cebf71ba98eeadabe20bace0160205260405f2090565b6001600160a01b0382165f5260205260405f2054925f198410612e76575b50505050565b828410612ef5576001600160a01b03811615612050576001600160a01b0382161561202457612edd6001600160a01b03916001600160a01b03165f527f52c63247e1f47db19d5ce0460030c497f067ca4cebf71ba98eeadabe20bace0160205260405f2090565b91165f5260205260405f20910390555f808080612e70565b506001600160a01b0383917ffb8f41b2000000000000000000000000000000000000000000000000000000005f521660045260245260445260645ffd5b91936001600160a01b03851694816001600160a01b038516948786036130b8575b5050508415612dea57612f646130c9565b845f525f51602061354f5f395f51905f5260205260405f205481811061309f577ffbde797d201c681b91056529119e0b02407c7bb96a4a2c75c01fc9667232c8db92826040936001600160a01b0393895f525f51602061354f5f395f51905f5260205203845f2055805f51602061356f5f395f51905f5254035f51602061356f5f395f51905f52555f887fddf252ad1be2c89b69c2b068fc378daa952ba7f163c4a11628f55a4df523b3ef60208751858152a37f0773e532dfede91f04b12a73d3d2acd361424f41f76b4fb79f090161e36b4e005484517fa9059cbb0000000000000000000000000000000000000000000000000000000060208201526001600160a01b038416602482015260448082018a9052815261309091851661308b6064836122e2565b613449565b835196875260208701521693a4565b8563391434e360e21b5f5260045260245260445260645ffd5b6130c192612e16565b5f8181612f53565b60ff5f51602061358f5f395f51905f5254166130e157565b7fd93c0665000000000000000000000000000000000000000000000000000000005f5260045ffd5b929161311681838661331f565b92600481101561273757600180911614918261313c575b50506123719250151590612392565b908092501561315357612371930915155f8061312d565b634e487b7160e01b5f52601260045260245ffd5b3d15613191573d9061317882612304565b9161318660405193846122e2565b82523d5f602084013e565b606090565b91906001600160a01b0390613217827f0773e532dfede91f04b12a73d3d2acd361424f41f76b4fb79f090161e36b4e0054169483604051917f23b872dd00000000000000000000000000000000000000000000000000000000602084015216958660248301523060448301528560648301526064825261308b6084836122e2565b16928315612dbe577fdcbc1c05240f31ff3ad067ef1ee35ce4997762752e3a095284754544f4c709d79160409161324c6130c9565b613264815f51602061356f5f395f51905f5254612392565b5f51602061356f5f395f51905f5255855f525f51602061354f5f395f51905f52602052825f20818154019055855f7fddf252ad1be2c89b69c2b068fc378daa952ba7f163c4a11628f55a4df523b3ef60208651858152a382519182526020820152a3565b60ff7ff0c57e16840df040f15088dc2f81fe391c3923bec73e23a9662efc9c229c6a005460401c16156132f757565b7fd7e6bcf8000000000000000000000000000000000000000000000000000000005f5260045ffd5b91818302915f19818509938380861095039480860395146133af57848311156133975790829109815f0382168092046002816003021880820260020302808202600203028082026002030280820260020302808202600203028091026002030293600183805f03040190848311900302920304170290565b82634e487b715f52156003026011186020526024601cfd5b505080925015613153570490565b906133fa57508051156133d257805190602001fd5b7fd6bda275000000000000000000000000000000000000000000000000000000005f5260045ffd5b81511580613440575b61340b575090565b6001600160a01b03907f9996b315000000000000000000000000000000000000000000000000000000005f521660045260245ffd5b50803b15613403565b905f602091828151910182855af115611375575f513d6134ad57506001600160a01b0381163b155b6134785750565b6001600160a01b03907f5274afe7000000000000000000000000000000000000000000000000000000005f521660045260245ffd5b60011415613471565b5f80916040516001600160a01b0360208201917f313ce567000000000000000000000000000000000000000000000000000000008352600481526134fb6024826122e2565b5192165afa613508613167565b9080613542575b61351b575b505f905f90565b60208151918180820193849201010312610369575160ff8111613514579060ff6001921690565b5060208151101561350f56fe52c63247e1f47db19d5ce0460030c497f067ca4cebf71ba98eeadabe20bace0052c63247e1f47db19d5ce0460030c497f067ca4cebf71ba98eeadabe20bace02cd5ed15c6e187e77e9aee88184c21f4f2182ab5827cb3b7e07fbedcd63f03300a164736f6c634300081c000af0c57e16840df040f15088dc2f81fe391c3923bec73e23a9662efc9c229c6a00","linkReferences":{}},"methodIdentifiers":{"aggregatedUnderlyingBalances()":"03d4113b","allowance(address,address)":"dd62ed3e","approve(address,uint256)":"095ea7b3","asset()":"38d52e0f","authority()":"bf7e214f","balanceOf(address)":"70a08231","balanceUpdateHook()":"73399570","cancelRedeem(address,uint256,uint256)":"1cd1c8c3","convertToAssets(uint256)":"07a2d13a","convertToShares(uint256)":"c6e6f592","decimals()":"313ce567","deposit(uint256,address)":"6e553f65","fulfillRedeem(address,uint256,uint256)":"6442b2ba","getAvailableBalance()":"809dab6a","guards(address)":"6b462151","initialize(address,address,address,address,string,string)":"9317c200","isAuthorized(address,bytes4)":"d9972b96","lastBlockUpdated()":"760f5f27","lastPricePerShare()":"ac9dc9e8","manageBatch((address,bytes,uint256)[])":"12d36fd3","maxDeposit(address)":"402d267d","maxMint(address)":"c63d75b6","maxRedeem(address)":"d905777e","maxWithdraw(address)":"ce96cb77","mint(uint256,address)":"94bf804d","name()":"06fdde03","onERC1155BatchReceived(address,address,uint256[],uint256[],bytes)":"bc197c81","onERC1155Received(address,address,uint256,uint256,bytes)":"f23a6e61","onERC721Received(address,address,uint256,bytes)":"150b7a02","owner()":"8da5cb5b","pause()":"8456cb59","paused()":"5c975abb","pendingRedeemRequest(address)":"53dc1dd3","previewDeposit(uint256)":"ef8b30f7","previewMint(uint256)":"b3d7f6b9","previewRedeem(uint256)":"4cdad506","previewWithdraw(uint256)":"0a28a477","redeem(uint256,address,address)":"ba087652","redemptionHook()":"16f020d6","removeGuard(address)":"b6235016","requestRedeem(uint256,address,address)":"7d41c86e","setAuthority(address)":"7a9e5e4b","setBalanceUpdateHook(address)":"560b2318","setGuard(address,address)":"227773ee","setRedemptionHook(address)":"e8ccdf3f","symbol()":"95d89b41","totalAssets()":"01e1d114","totalPendingAssets()":"ab4f0f01","totalSupply()":"18160ddd","transfer(address,uint256)":"a9059cbb","transferFrom(address,address,uint256)":"23b872dd","transferOwnership(address)":"f2fde38b","unpause()":"3f4ba83a","updateBalance(uint256)":"ba7b37d4","withdraw(uint256,address,address)":"b460af94"},"storageLayout":{"storage":[{"astId":52380,"contract":"src/ElitraVault.sol:ElitraVault","label":"guards","offset":0,"slot":"0","type":"t_mapping(t_address,t_contract(ITransactionGuard)53760)"},{"astId":51159,"contract":"src/ElitraVault.sol:ElitraVault","label":"balanceUpdateHook","offset":0,"slot":"1","type":"t_contract(IBalanceUpdateHook)53285"},{"astId":51161,"contract":"src/ElitraVault.sol:ElitraVault","label":"aggregatedUnderlyingBalances","offset":0,"slot":"2","type":"t_uint256"},{"astId":51163,"contract":"src/ElitraVault.sol:ElitraVault","label":"lastBlockUpdated","offset":0,"slot":"3","type":"t_uint256"},{"astId":51165,"contract":"src/ElitraVault.sol:ElitraVault","label":"lastPricePerShare","offset":0,"slot":"4","type":"t_uint256"},{"astId":51168,"contract":"src/ElitraVault.sol:ElitraVault","label":"redemptionHook","offset":0,"slot":"5","type":"t_contract(IRedemptionHook)53725"},{"astId":51173,"contract":"src/ElitraVault.sol:ElitraVault","label":"_pendingRedeem","offset":0,"slot":"6","type":"t_mapping(t_address,t_struct(PendingRedeem)53531_storage)"},{"astId":51175,"contract":"src/ElitraVault.sol:ElitraVault","label":"totalPendingAssets","offset":0,"slot":"7","type":"t_uint256"}],"types":{"t_address":{"encoding":"inplace","label":"address","numberOfBytes":"20"},"t_contract(IBalanceUpdateHook)53285":{"encoding":"inplace","label":"contract IBalanceUpdateHook","numberOfBytes":"20"},"t_contract(IRedemptionHook)53725":{"encoding":"inplace","label":"contract IRedemptionHook","numberOfBytes":"20"},"t_contract(ITransactionGuard)53760":{"encoding":"inplace","label":"contract ITransactionGuard","numberOfBytes":"20"},"t_mapping(t_address,t_contract(ITransactionGuard)53760)":{"encoding":"mapping","key":"t_address","label":"mapping(address => contract ITransactionGuard)","numberOfBytes":"32","value":"t_contract(ITransactionGuard)53760"},"t_mapping(t_address,t_struct(PendingRedeem)53531_storage)":{"encoding":"mapping","key":"t_address","label":"mapping(address => struct IElitraVault.PendingRedeem)","numberOfBytes":"32","value":"t_struct(PendingRedeem)53531_storage"},"t_struct(PendingRedeem)53531_storage":{"encoding":"inplace","label":"struct IElitraVault.PendingRedeem","numberOfBytes":"64","members":[{"astId":53528,"contract":"src/ElitraVault.sol:ElitraVault","label":"shares","offset":0,"slot":"0","type":"t_uint256"},{"astId":53530,"contract":"src/ElitraVault.sol:ElitraVault","label":"assets","offset":0,"slot":"1","type":"t_uint256"}]},"t_uint256":{"encoding":"inplace","label":"uint256","numberOfBytes":"32"}}},"id":63}