{"abi":[{"type":"constructor","inputs":[],"stateMutability":"nonpayable"},{"type":"receive","stateMutability":"payable"},{"type":"function","name":"aggregatedUnderlyingBalances","inputs":[],"outputs":[{"name":"","type":"uint256","internalType":"uint256"}],"stateMutability":"view"},{"type":"function","name":"allowance","inputs":[{"name":"owner","type":"address","internalType":"address"},{"name":"spender","type":"address","internalType":"address"}],"outputs":[{"name":"","type":"uint256","internalType":"uint256"}],"stateMutability":"view"},{"type":"function","name":"approve","inputs":[{"name":"spender","type":"address","internalType":"address"},{"name":"value","type":"uint256","internalType":"uint256"}],"outputs":[{"name":"","type":"bool","internalType":"bool"}],"stateMutability":"nonpayable"},{"type":"function","name":"asset","inputs":[],"outputs":[{"name":"","type":"address","internalType":"address"}],"stateMutability":"view"},{"type":"function","name":"authority","inputs":[],"outputs":[{"name":"","type":"address","internalType":"contract Authority"}],"stateMutability":"view"},{"type":"function","name":"balanceOf","inputs":[{"name":"account","type":"address","internalType":"address"}],"outputs":[{"name":"","type":"uint256","internalType":"uint256"}],"stateMutability":"view"},{"type":"function","name":"balanceUpdateHook","inputs":[],"outputs":[{"name":"","type":"address","internalType":"contract IBalanceUpdateHook"}],"stateMutability":"view"},{"type":"function","name":"cancelRedeem","inputs":[{"name":"receiver","type":"address","internalType":"address"},{"name":"shares","type":"uint256","internalType":"uint256"},{"name":"assets","type":"uint256","internalType":"uint256"}],"outputs":[],"stateMutability":"nonpayable"},{"type":"function","name":"convertToAssets","inputs":[{"name":"shares","type":"uint256","internalType":"uint256"}],"outputs":[{"name":"","type":"uint256","internalType":"uint256"}],"stateMutability":"view"},{"type":"function","name":"convertToShares","inputs":[{"name":"assets","type":"uint256","internalType":"uint256"}],"outputs":[{"name":"","type":"uint256","internalType":"uint256"}],"stateMutability":"view"},{"type":"function","name":"decimals","inputs":[],"outputs":[{"name":"","type":"uint8","internalType":"uint8"}],"stateMutability":"view"},{"type":"function","name":"deposit","inputs":[{"name":"assets","type":"uint256","internalType":"uint256"},{"name":"receiver","type":"address","internalType":"address"}],"outputs":[{"name":"","type":"uint256","internalType":"uint256"}],"stateMutability":"nonpayable"},{"type":"function","name":"fulfillRedeem","inputs":[{"name":"receiver","type":"address","internalType":"address"},{"name":"shares","type":"uint256","internalType":"uint256"},{"name":"assets","type":"uint256","internalType":"uint256"}],"outputs":[],"stateMutability":"nonpayable"},{"type":"function","name":"getAvailableBalance","inputs":[],"outputs":[{"name":"","type":"uint256","internalType":"uint256"}],"stateMutability":"view"},{"type":"function","name":"guards","inputs":[{"name":"target","type":"address","internalType":"address"}],"outputs":[{"name":"guard","type":"address","internalType":"contract ITransactionGuard"}],"stateMutability":"view"},{"type":"function","name":"initialize","inputs":[{"name":"_asset","type":"address","internalType":"contract IERC20"},{"name":"_owner","type":"address","internalType":"address"},{"name":"_balanceUpdateHook","type":"address","internalType":"contract IBalanceUpdateHook"},{"name":"_redemptionHook","type":"address","internalType":"contract IRedemptionHook"},{"name":"_name","type":"string","internalType":"string"},{"name":"_symbol","type":"string","internalType":"string"}],"outputs":[],"stateMutability":"nonpayable"},{"type":"function","name":"isAuthorized","inputs":[{"name":"user","type":"address","internalType":"address"},{"name":"functionSig","type":"bytes4","internalType":"bytes4"}],"outputs":[{"name":"","type":"bool","internalType":"bool"}],"stateMutability":"view"},{"type":"function","name":"lastBlockUpdated","inputs":[],"outputs":[{"name":"","type":"uint256","internalType":"uint256"}],"stateMutability":"view"},{"type":"function","name":"lastPricePerShare","inputs":[],"outputs":[{"name":"","type":"uint256","internalType":"uint256"}],"stateMutability":"view"},{"type":"function","name":"manageBatch","inputs":[{"name":"calls","type":"tuple[]","internalType":"struct Call[]","components":[{"name":"target","type":"address","internalType":"address"},{"name":"data","type":"bytes","internalType":"bytes"},{"name":"value","type":"uint256","internalType":"uint256"}]}],"outputs":[],"stateMutability":"nonpayable"},{"type":"function","name":"maxDeposit","inputs":[{"name":"receiver","type":"address","internalType":"address"}],"outputs":[{"name":"","type":"uint256","internalType":"uint256"}],"stateMutability":"view"},{"type":"function","name":"maxMint","inputs":[{"name":"receiver","type":"address","internalType":"address"}],"outputs":[{"name":"","type":"uint256","internalType":"uint256"}],"stateMutability":"view"},{"type":"function","name":"maxRedeem","inputs":[{"name":"owner","type":"address","internalType":"address"}],"outputs":[{"name":"","type":"uint256","internalType":"uint256"}],"stateMutability":"view"},{"type":"function","name":"maxWithdraw","inputs":[{"name":"owner","type":"address","internalType":"address"}],"outputs":[{"name":"","type":"uint256","internalType":"uint256"}],"stateMutability":"view"},{"type":"function","name":"mint","inputs":[{"name":"shares","type":"uint256","internalType":"uint256"},{"name":"receiver","type":"address","internalType":"address"}],"outputs":[{"name":"","type":"uint256","internalType":"uint256"}],"stateMutability":"nonpayable"},{"type":"function","name":"name","inputs":[],"outputs":[{"name":"","type":"string","internalType":"string"}],"stateMutability":"view"},{"type":"function","name":"onERC1155BatchReceived","inputs":[{"name":"","type":"address","internalType":"address"},{"name":"","type":"address","internalType":"address"},{"name":"","type":"uint256[]","internalType":"uint256[]"},{"name":"","type":"uint256[]","internalType":"uint256[]"},{"name":"","type":"bytes","internalType":"bytes"}],"outputs":[{"name":"","type":"bytes4","internalType":"bytes4"}],"stateMutability":"pure"},{"type":"function","name":"onERC1155Received","inputs":[{"name":"","type":"address","internalType":"address"},{"name":"","type":"address","internalType":"address"},{"name":"","type":"uint256","internalType":"uint256"},{"name":"","type":"uint256","internalType":"uint256"},{"name":"","type":"bytes","internalType":"bytes"}],"outputs":[{"name":"","type":"bytes4","internalType":"bytes4"}],"stateMutability":"pure"},{"type":"function","name":"onERC721Received","inputs":[{"name":"","type":"address","internalType":"address"},{"name":"","type":"address","internalType":"address"},{"name":"","type":"uint256","internalType":"uint256"},{"name":"","type":"bytes","internalType":"bytes"}],"outputs":[{"name":"","type":"bytes4","internalType":"bytes4"}],"stateMutability":"pure"},{"type":"function","name":"owner","inputs":[],"outputs":[{"name":"","type":"address","internalType":"address"}],"stateMutability":"view"},{"type":"function","name":"pause","inputs":[],"outputs":[],"stateMutability":"nonpayable"},{"type":"function","name":"paused","inputs":[],"outputs":[{"name":"","type":"bool","internalType":"bool"}],"stateMutability":"view"},{"type":"function","name":"pendingRedeemRequest","inputs":[{"name":"user","type":"address","internalType":"address"}],"outputs":[{"name":"assets","type":"uint256","internalType":"uint256"},{"name":"pendingShares","type":"uint256","internalType":"uint256"}],"stateMutability":"view"},{"type":"function","name":"previewDeposit","inputs":[{"name":"assets","type":"uint256","internalType":"uint256"}],"outputs":[{"name":"","type":"uint256","internalType":"uint256"}],"stateMutability":"view"},{"type":"function","name":"previewMint","inputs":[{"name":"shares","type":"uint256","internalType":"uint256"}],"outputs":[{"name":"","type":"uint256","internalType":"uint256"}],"stateMutability":"view"},{"type":"function","name":"previewRedeem","inputs":[{"name":"shares","type":"uint256","internalType":"uint256"}],"outputs":[{"name":"","type":"uint256","internalType":"uint256"}],"stateMutability":"view"},{"type":"function","name":"previewWithdraw","inputs":[{"name":"assets","type":"uint256","internalType":"uint256"}],"outputs":[{"name":"","type":"uint256","internalType":"uint256"}],"stateMutability":"view"},{"type":"function","name":"redeem","inputs":[{"name":"shares","type":"uint256","internalType":"uint256"},{"name":"receiver","type":"address","internalType":"address"},{"name":"owner","type":"address","internalType":"address"}],"outputs":[{"name":"","type":"uint256","internalType":"uint256"}],"stateMutability":"nonpayable"},{"type":"function","name":"redemptionHook","inputs":[],"outputs":[{"name":"","type":"address","internalType":"contract IRedemptionHook"}],"stateMutability":"view"},{"type":"function","name":"removeGuard","inputs":[{"name":"target","type":"address","internalType":"address"}],"outputs":[],"stateMutability":"nonpayable"},{"type":"function","name":"requestRedeem","inputs":[{"name":"shares","type":"uint256","internalType":"uint256"},{"name":"receiver","type":"address","internalType":"address"},{"name":"owner","type":"address","internalType":"address"}],"outputs":[{"name":"","type":"uint256","internalType":"uint256"}],"stateMutability":"nonpayable"},{"type":"function","name":"setAuthority","inputs":[{"name":"newAuthority","type":"address","internalType":"contract Authority"}],"outputs":[],"stateMutability":"nonpayable"},{"type":"function","name":"setBalanceUpdateHook","inputs":[{"name":"newAdapter","type":"address","internalType":"contract IBalanceUpdateHook"}],"outputs":[],"stateMutability":"nonpayable"},{"type":"function","name":"setGuard","inputs":[{"name":"target","type":"address","internalType":"address"},{"name":"guard","type":"address","internalType":"address"}],"outputs":[],"stateMutability":"nonpayable"},{"type":"function","name":"setRedemptionHook","inputs":[{"name":"newStrategy","type":"address","internalType":"contract IRedemptionHook"}],"outputs":[],"stateMutability":"nonpayable"},{"type":"function","name":"symbol","inputs":[],"outputs":[{"name":"","type":"string","internalType":"string"}],"stateMutability":"view"},{"type":"function","name":"totalAssets","inputs":[],"outputs":[{"name":"","type":"uint256","internalType":"uint256"}],"stateMutability":"view"},{"type":"function","name":"totalPendingAssets","inputs":[],"outputs":[{"name":"","type":"uint256","internalType":"uint256"}],"stateMutability":"view"},{"type":"function","name":"totalSupply","inputs":[],"outputs":[{"name":"","type":"uint256","internalType":"uint256"}],"stateMutability":"view"},{"type":"function","name":"transfer","inputs":[{"name":"to","type":"address","internalType":"address"},{"name":"value","type":"uint256","internalType":"uint256"}],"outputs":[{"name":"","type":"bool","internalType":"bool"}],"stateMutability":"nonpayable"},{"type":"function","name":"transferFrom","inputs":[{"name":"from","type":"address","internalType":"address"},{"name":"to","type":"address","internalType":"address"},{"name":"value","type":"uint256","internalType":"uint256"}],"outputs":[{"name":"","type":"bool","internalType":"bool"}],"stateMutability":"nonpayable"},{"type":"function","name":"transferOwnership","inputs":[{"name":"newOwner","type":"address","internalType":"address"}],"outputs":[],"stateMutability":"nonpayable"},{"type":"function","name":"unpause","inputs":[],"outputs":[],"stateMutability":"nonpayable"},{"type":"function","name":"updateBalance","inputs":[{"name":"newAggregatedBalance","type":"uint256","internalType":"uint256"}],"outputs":[],"stateMutability":"nonpayable"},{"type":"function","name":"withdraw","inputs":[{"name":"","type":"uint256","internalType":"uint256"},{"name":"","type":"address","internalType":"address"},{"name":"","type":"address","internalType":"address"}],"outputs":[{"name":"","type":"uint256","internalType":"uint256"}],"stateMutability":"nonpayable"},{"type":"event","name":"Approval","inputs":[{"name":"owner","type":"address","indexed":true,"internalType":"address"},{"name":"spender","type":"address","indexed":true,"internalType":"address"},{"name":"value","type":"uint256","indexed":false,"internalType":"uint256"}],"anonymous":false},{"type":"event","name":"AuthorityUpdated","inputs":[{"name":"user","type":"address","indexed":true,"internalType":"address"},{"name":"newAuthority","type":"address","indexed":true,"internalType":"contract Authority"}],"anonymous":false},{"type":"event","name":"BalanceUpdateHookUpdated","inputs":[{"name":"oldHook","type":"address","indexed":true,"internalType":"address"},{"name":"newHook","type":"address","indexed":true,"internalType":"address"}],"anonymous":false},{"type":"event","name":"Deposit","inputs":[{"name":"sender","type":"address","indexed":true,"internalType":"address"},{"name":"owner","type":"address","indexed":true,"internalType":"address"},{"name":"assets","type":"uint256","indexed":false,"internalType":"uint256"},{"name":"shares","type":"uint256","indexed":false,"internalType":"uint256"}],"anonymous":false},{"type":"event","name":"GuardRemoved","inputs":[{"name":"target","type":"address","indexed":true,"internalType":"address"}],"anonymous":false},{"type":"event","name":"GuardUpdated","inputs":[{"name":"target","type":"address","indexed":true,"internalType":"address"},{"name":"guard","type":"address","indexed":true,"internalType":"address"}],"anonymous":false},{"type":"event","name":"Initialized","inputs":[{"name":"version","type":"uint64","indexed":false,"internalType":"uint64"}],"anonymous":false},{"type":"event","name":"ManageBatchOperation","inputs":[{"name":"index","type":"uint256","indexed":true,"internalType":"uint256"},{"name":"target","type":"address","indexed":true,"internalType":"address"},{"name":"functionSig","type":"bytes4","indexed":false,"internalType":"bytes4"},{"name":"value","type":"uint256","indexed":false,"internalType":"uint256"},{"name":"result","type":"bytes","indexed":false,"internalType":"bytes"}],"anonymous":false},{"type":"event","name":"OwnershipTransferred","inputs":[{"name":"user","type":"address","indexed":true,"internalType":"address"},{"name":"newOwner","type":"address","indexed":true,"internalType":"address"}],"anonymous":false},{"type":"event","name":"PPSUpdated","inputs":[{"name":"timestamp","type":"uint256","indexed":true,"internalType":"uint256"},{"name":"oldPPS","type":"uint256","indexed":false,"internalType":"uint256"},{"name":"newPPS","type":"uint256","indexed":false,"internalType":"uint256"}],"anonymous":false},{"type":"event","name":"Paused","inputs":[{"name":"account","type":"address","indexed":false,"internalType":"address"}],"anonymous":false},{"type":"event","name":"Received","inputs":[{"name":"sender","type":"address","indexed":false,"internalType":"address"},{"name":"amount","type":"uint256","indexed":false,"internalType":"uint256"}],"anonymous":false},{"type":"event","name":"RedeemRequest","inputs":[{"name":"receiver","type":"address","indexed":true,"internalType":"address"},{"name":"owner","type":"address","indexed":true,"internalType":"address"},{"name":"assets","type":"uint256","indexed":false,"internalType":"uint256"},{"name":"shares","type":"uint256","indexed":false,"internalType":"uint256"},{"name":"instant","type":"bool","indexed":false,"internalType":"bool"}],"anonymous":false},{"type":"event","name":"RedemptionHookUpdated","inputs":[{"name":"oldHook","type":"address","indexed":true,"internalType":"address"},{"name":"newHook","type":"address","indexed":true,"internalType":"address"}],"anonymous":false},{"type":"event","name":"RequestCancelled","inputs":[{"name":"receiver","type":"address","indexed":true,"internalType":"address"},{"name":"shares","type":"uint256","indexed":false,"internalType":"uint256"},{"name":"assets","type":"uint256","indexed":false,"internalType":"uint256"}],"anonymous":false},{"type":"event","name":"RequestFulfilled","inputs":[{"name":"receiver","type":"address","indexed":true,"internalType":"address"},{"name":"shares","type":"uint256","indexed":false,"internalType":"uint256"},{"name":"assets","type":"uint256","indexed":false,"internalType":"uint256"}],"anonymous":false},{"type":"event","name":"Transfer","inputs":[{"name":"from","type":"address","indexed":true,"internalType":"address"},{"name":"to","type":"address","indexed":true,"internalType":"address"},{"name":"value","type":"uint256","indexed":false,"internalType":"uint256"}],"anonymous":false},{"type":"event","name":"UnderlyingBalanceUpdated","inputs":[{"name":"timestamp","type":"uint256","indexed":true,"internalType":"uint256"},{"name":"oldBalance","type":"uint256","indexed":false,"internalType":"uint256"},{"name":"newBalance","type":"uint256","indexed":false,"internalType":"uint256"}],"anonymous":false},{"type":"event","name":"Unpaused","inputs":[{"name":"account","type":"address","indexed":false,"internalType":"address"}],"anonymous":false},{"type":"event","name":"VaultPausedDueToThreshold","inputs":[{"name":"timestamp","type":"uint256","indexed":true,"internalType":"uint256"},{"name":"oldPPS","type":"uint256","indexed":false,"internalType":"uint256"},{"name":"newPPS","type":"uint256","indexed":false,"internalType":"uint256"}],"anonymous":false},{"type":"event","name":"Withdraw","inputs":[{"name":"sender","type":"address","indexed":true,"internalType":"address"},{"name":"receiver","type":"address","indexed":true,"internalType":"address"},{"name":"owner","type":"address","indexed":true,"internalType":"address"},{"name":"assets","type":"uint256","indexed":false,"internalType":"uint256"},{"name":"shares","type":"uint256","indexed":false,"internalType":"uint256"}],"anonymous":false},{"type":"error","name":"AddressEmptyCode","inputs":[{"name":"target","type":"address","internalType":"address"}]},{"type":"error","name":"ERC20InsufficientAllowance","inputs":[{"name":"spender","type":"address","internalType":"address"},{"name":"allowance","type":"uint256","internalType":"uint256"},{"name":"needed","type":"uint256","internalType":"uint256"}]},{"type":"error","name":"ERC20InsufficientBalance","inputs":[{"name":"sender","type":"address","internalType":"address"},{"name":"balance","type":"uint256","internalType":"uint256"},{"name":"needed","type":"uint256","internalType":"uint256"}]},{"type":"error","name":"ERC20InvalidApprover","inputs":[{"name":"approver","type":"address","internalType":"address"}]},{"type":"error","name":"ERC20InvalidReceiver","inputs":[{"name":"receiver","type":"address","internalType":"address"}]},{"type":"error","name":"ERC20InvalidSender","inputs":[{"name":"sender","type":"address","internalType":"address"}]},{"type":"error","name":"ERC20InvalidSpender","inputs":[{"name":"spender","type":"address","internalType":"address"}]},{"type":"error","name":"ERC4626ExceededMaxDeposit","inputs":[{"name":"receiver","type":"address","internalType":"address"},{"name":"assets","type":"uint256","internalType":"uint256"},{"name":"max","type":"uint256","internalType":"uint256"}]},{"type":"error","name":"ERC4626ExceededMaxMint","inputs":[{"name":"receiver","type":"address","internalType":"address"},{"name":"shares","type":"uint256","internalType":"uint256"},{"name":"max","type":"uint256","internalType":"uint256"}]},{"type":"error","name":"ERC4626ExceededMaxRedeem","inputs":[{"name":"owner","type":"address","internalType":"address"},{"name":"shares","type":"uint256","internalType":"uint256"},{"name":"max","type":"uint256","internalType":"uint256"}]},{"type":"error","name":"ERC4626ExceededMaxWithdraw","inputs":[{"name":"owner","type":"address","internalType":"address"},{"name":"assets","type":"uint256","internalType":"uint256"},{"name":"max","type":"uint256","internalType":"uint256"}]},{"type":"error","name":"EnforcedPause","inputs":[]},{"type":"error","name":"ExpectedPause","inputs":[]},{"type":"error","name":"FailedCall","inputs":[]},{"type":"error","name":"InsufficientBalance","inputs":[{"name":"balance","type":"uint256","internalType":"uint256"},{"name":"needed","type":"uint256","internalType":"uint256"}]},{"type":"error","name":"InsufficientShares","inputs":[]},{"type":"error","name":"InvalidAssetsAmount","inputs":[]},{"type":"error","name":"InvalidInitialization","inputs":[]},{"type":"error","name":"InvalidRedemptionMode","inputs":[]},{"type":"error","name":"InvalidSharesAmount","inputs":[]},{"type":"error","name":"NotInitializing","inputs":[]},{"type":"error","name":"NotSharesOwner","inputs":[]},{"type":"error","name":"SafeERC20FailedOperation","inputs":[{"name":"token","type":"address","internalType":"address"}]},{"type":"error","name":"SharesAmountZero","inputs":[]},{"type":"error","name":"TransactionValidationFailed","inputs":[{"name":"target","type":"address","internalType":"address"}]},{"type":"error","name":"UpdateAlreadyCompletedInThisBlock","inputs":[]},{"type":"error","name":"UseRequestRedeem","inputs":[]},{"type":"error","name":"ZeroAddress","inputs":[]}],"bytecode":{"object":"0x608060405234602357600e6027565b60146027565b60405161367e90816100bc8239f35b5f80fd5b5f51602061373a5f395f51905f525460ff8160401c1660ac576002600160401b03196001600160401b03821601605a5750565b6001600160401b0319166001600160401b039081175f51602061373a5f395f51905f52556040519081527fc7f505b2f371ae2175ee4913f4499e1f2633a7b5936321eed1cdaeb6115181d290602090a1565b63f92ee8a960e01b5f5260045ffdfe6080604052600436101561004b575b3615610018575f80fd5b604080513381523460208201527f88a5966d370b9919b20f3e2c13ff65706f196a4e32cc2c12bf57088f885258749190a1005b5f358060e01c806301e1d1141461226b57806303d4113b1461224e57806306fdde031461216b57806307a2d13a14611863578063095ea7b3146120705780630a28a4771461202157806312d36fd314611bd8578063150b7a0214611b6957806316f020d614611b4357806318160ddd14611b1a5780631cd1c8c314611a44578063227773ee146119c557806323b872dd1461198d578063313ce5671461194157806338d52e0f1461190f5780633f4ba83a14611868578063402d267d1461058f5780634cdad5061461186357806353dc1dd314611818578063560b23181461179d5780635c975abb1461176f5780636442b2ba1461163f5780636b462151146115ff5780636e553f651461157557806370a0823114611533578063733995701461150d578063760f5f27146114f05780637a9e5e4b146113635780637d41c86e14611347578063809dab6a146112945780638456cb59146112135780638da5cb5b146111ce5780639317c200146109ee57806394bf804d1461096557806395d89b4114610845578063a9059cbb14610814578063ab4f0f01146107f7578063ac9dc9e8146107da578063b3d7f6b9146107bc578063b460af941461077b578063b623501614610709578063ba087652146106e0578063ba7b37d4146106aa578063bc197c81146105f7578063bf7e214f146105b2578063c63d75b61461058f578063c6e6f592146103dc578063ce96cb771461056c578063d905777e14610541578063d9972b96146104fd578063dd62ed3e14610484578063e8ccdf3f146103e1578063ef8b30f7146103dc578063f23a6e611461036d5763f2fde38b146102b3575061000e565b34610369576020366003190112610369576001600160a01b03906102f16102ec6001600160e01b03196102e46122e2565b9316336128e7565b61254a565b16806001600160a01b03197fdd3fd67aef415aded9493b31ad20a02d2991d4bb2760431cc729821271eaea005416177fdd3fd67aef415aded9493b31ad20a02d2991d4bb2760431cc729821271eaea0055337f8be0079c531659141344cd1fd0a4f28419497f9722a3daafe3b4186f6b6457e05f80a3005b5f80fd5b346103695760a0366003190112610369576103866122e2565b5061038f6122f8565b5060843567ffffffffffffffff8111610369576103b090369060040161233f565b505060206040517ff23a6e61000000000000000000000000000000000000000000000000000000008152f35b612463565b5034610369576020366003190112610369576001600160a01b03906104136102ec6001600160e01b03196102e46122e2565b16801561045c576001600160a01b0319600554826001600160a01b0382167f71e86d7b6261afe37537fed8f42bf15d2ed9344bd8bd3949ea67fdf36a5e55545f80a31617600555005b7fd92e233d000000000000000000000000000000000000000000000000000000005f5260045ffd5b346103695760403660031901126103695761049d6122e2565b6001600160a01b036104e76104b06122f8565b926001600160a01b03165f527f52c63247e1f47db19d5ce0460030c497f067ca4cebf71ba98eeadabe20bace0160205260405f2090565b91165f52602052602060405f2054604051908152f35b34610369576040366003190112610369576105166122e2565b602435906001600160e01b03198216820361036957602091610537916128e7565b6040519015158152f35b3461036957602036600319011261036957602061056461055f6122e2565b6128a9565b604051908152f35b3461036957602036600319011261036957602061056461058a6122e2565b612865565b346103695760203660031901126103695760206105646105ad6122e2565b6125a2565b34610369575f3660031901126103695760206001600160a01b037fdd3fd67aef415aded9493b31ad20a02d2991d4bb2760431cc729821271eaea015416604051908152f35b346103695760a0366003190112610369576106106122e2565b506106196122f8565b5060443567ffffffffffffffff81116103695761063a90369060040161230e565b505060643567ffffffffffffffff81116103695761065c90369060040161230e565b505060843567ffffffffffffffff81116103695761067e90369060040161233f565b505060206040517fbc197c81000000000000000000000000000000000000000000000000000000008152f35b5034610369576020366003190112610369576102ec6001600160e01b03196106d39216336128e7565b6106de600435612b1b565b005b346103695760206105646106f336612397565b916106fc613142565b610704613142565b6125cf565b5034610369576020366003190112610369576001600160a01b039061073b6102ec6001600160e01b03196102e46122e2565b16805f525f60205260405f206001600160a01b031981541690557f59926e0a78d12238b668b31c8e3f6ece235a59a00ede111d883e255b68c4d0485f80a2005b346103695761078936612397565b505050610794613142565b7f797f246a000000000000000000000000000000000000000000000000000000005f5260045ffd5b346103695760203660031901126103695760206105646004356129f2565b34610369575f366003190112610369576020600454604051908152f35b34610369575f366003190112610369576020600754604051908152f35b346103695760403660031901126103695761083a6108306122e2565b6024359033612d84565b602060405160018152f35b34610369575f366003190112610369576040515f7f52c63247e1f47db19d5ce0460030c497f067ca4cebf71ba98eeadabe20bace045461088481612512565b808452906001811690811561094157506001146108c4575b6108c0836108ac818503826123d1565b604051918291602083526020830190612285565b0390f35b7f52c63247e1f47db19d5ce0460030c497f067ca4cebf71ba98eeadabe20bace045f9081527f46a2803e59a4de4e7a4c574b1243f25977ac4c77d5a1a4a609b5394cebb4a2aa939250905b808210610927575090915081016020016108ac61089c565b91926001816020925483858801015201910190929161090f565b60ff191660208086019190915291151560051b840190910191506108ac905061089c565b34610369576040366003190112610369576004356109816122f8565b9061098a613142565b610993826125a2565b8082116109b257602083610564846109aa816129f2565b80933361321d565b916001600160a01b03907f284ff667000000000000000000000000000000000000000000000000000000005f521660045260245260445260645ffd5b346103695760c0366003190112610369576004356001600160a01b03811680820361036957610a1b6122f8565b604435906001600160a01b03821680920361036957606435926001600160a01b0384168094036103695760843567ffffffffffffffff811161036957610a65903690600401612445565b9460a43567ffffffffffffffff811161036957610a86903690600401612445565b7ff0c57e16840df040f15088dc2f81fe391c3923bec73e23a9662efc9c229c6a00549660ff8860401c16159767ffffffffffffffff8116801590816111c6575b60011490816111bc575b1590816111b3575b5061118b5767ffffffffffffffff1981166001177ff0c57e16840df040f15088dc2f81fe391c3923bec73e23a9662efc9c229c6a00558861114c575b50610b1d61333c565b610b2561333c565b610b2d61333c565b80519067ffffffffffffffff8211610ffc578190610b6b7f52c63247e1f47db19d5ce0460030c497f067ca4cebf71ba98eeadabe20bace0354612512565b601f81116110bf575b50602090601f831160011461101b575f92611010575b50508160011b915f199060031b1c1916177f52c63247e1f47db19d5ce0460030c497f067ca4cebf71ba98eeadabe20bace03555b80519067ffffffffffffffff8211610ffc57610bfa7f52c63247e1f47db19d5ce0460030c497f067ca4cebf71ba98eeadabe20bace0454612512565b601f8111610f7a575b50602090601f8311600114610ec95791806001600160a01b0396959492610c74945f92610ebe575b50508160011b915f199060031b1c1916177f52c63247e1f47db19d5ce0460030c497f067ca4cebf71ba98eeadabe20bace04555b610c6761333c565b610c6f61333c565b6134cd565b9015610eb6575b7fffffffffffffffffffffff00000000000000000000000000000000000000000074ff00000000000000000000000000000000000000005f5160206136325f395f51905f52549260a01b16911617175f5160206136325f395f51905f5255610ce161333c565b610ce961333c565b16806001600160a01b03197fdd3fd67aef415aded9493b31ad20a02d2991d4bb2760431cc729821271eaea005416177fdd3fd67aef415aded9493b31ad20a02d2991d4bb2760431cc729821271eaea00556001600160a01b03197fdd3fd67aef415aded9493b31ad20a02d2991d4bb2760431cc729821271eaea0154167fdd3fd67aef415aded9493b31ad20a02d2991d4bb2760431cc729821271eaea0155337f8be0079c531659141344cd1fd0a4f28419497f9722a3daafe3b4186f6b6457e05f80a35f337fa3396fd7f6e0a21b50e5089d2da70d5ac0a3bbbd1f617a93f134b763899801988280a3610ddb61333c565b610de361333c565b60ff195f5160206136525f395f51905f5254165f5160206136525f395f51905f5255801561045c57811561045c576001600160a01b031960015416176001556001600160a01b03196005541617600555610e3957005b68ff0000000000000000197ff0c57e16840df040f15088dc2f81fe391c3923bec73e23a9662efc9c229c6a0054167ff0c57e16840df040f15088dc2f81fe391c3923bec73e23a9662efc9c229c6a00557fc7f505b2f371ae2175ee4913f4499e1f2633a7b5936321eed1cdaeb6115181d2602060405160018152a1005b506012610c7b565b015190508a80610c2b565b90601f198316917f52c63247e1f47db19d5ce0460030c497f067ca4cebf71ba98eeadabe20bace045f52815f20925f5b818110610f625750926001928592610c74966001600160a01b039a99989610610f4a575b505050811b017f52c63247e1f47db19d5ce0460030c497f067ca4cebf71ba98eeadabe20bace0455610c5f565b01515f1960f88460031b161c191690558a8080610f1d565b92936020600181928786015181550195019301610ef9565b7f52c63247e1f47db19d5ce0460030c497f067ca4cebf71ba98eeadabe20bace045f527f46a2803e59a4de4e7a4c574b1243f25977ac4c77d5a1a4a609b5394cebb4a2aa601f840160051c81019160208510610ff2575b601f0160051c01905b818110610fe75750610c03565b5f8155600101610fda565b9091508190610fd1565b634e487b7160e01b5f52604160045260245ffd5b015190508980610b8a565b7f52c63247e1f47db19d5ce0460030c497f067ca4cebf71ba98eeadabe20bace035f9081528281209350601f198516905b8181106110a7575090846001959493921061108f575b505050811b017f52c63247e1f47db19d5ce0460030c497f067ca4cebf71ba98eeadabe20bace0355610bbe565b01515f1960f88460031b161c19169055898080611062565b9293602060018192878601518155019501930161104c565b7f52c63247e1f47db19d5ce0460030c497f067ca4cebf71ba98eeadabe20bace035f529091507f2ae08a8e29253f69ac5d979a101956ab8f8d9d7ded63fa7a83b16fc47648eab0601f840160051c81019160208510611142575b90601f859493920160051c01905b8181106111345750610b74565b5f8155849350600101611127565b9091508190611119565b68ffffffffffffffffff191668010000000000000001177ff0c57e16840df040f15088dc2f81fe391c3923bec73e23a9662efc9c229c6a005588610b14565b7ff92ee8a9000000000000000000000000000000000000000000000000000000005f5260045ffd5b9050158a610ad8565b303b159150610ad0565b8a9150610ac6565b34610369575f3660031901126103695760206001600160a01b037fdd3fd67aef415aded9493b31ad20a02d2991d4bb2760431cc729821271eaea005416604051908152f35b5034610369575f366003190112610369576102ec6001600160e01b031961123b9216336128e7565b611243613142565b600160ff195f5160206136525f395f51905f525416175f5160206136525f395f51905f52557f62e78cea01bee320cd4e420270b5ea74000d11b0c9f74754ebdbfc544b05a2586020604051338152a1005b34610369575f36600319011261036957602460206001600160a01b035f5160206136325f395f51905f525416604051928380926370a0823160e01b82523060048301525afa90811561133c575f9161130a575b5060075490818111156113005760209161056491612595565b505060205f610564565b90506020813d602011611334575b81611325602093836123d1565b810103126103695751816112e7565b3d9150611318565b6040513d5f823e3d90fd5b3461036957602061056461135a36612397565b91610704613142565b503461036957602036600319011261036957600435906001600160a01b038216809203610369576001600160a01b037fdd3fd67aef415aded9493b31ad20a02d2991d4bb2760431cc729821271eaea005416331490811561143c575b501561036957806001600160a01b03197fdd3fd67aef415aded9493b31ad20a02d2991d4bb2760431cc729821271eaea015416177fdd3fd67aef415aded9493b31ad20a02d2991d4bb2760431cc729821271eaea0155337fa3396fd7f6e0a21b50e5089d2da70d5ac0a3bbbd1f617a93f134b763899801985f80a3005b7fdd3fd67aef415aded9493b31ad20a02d2991d4bb2760431cc729821271eaea015460405163b700961360e01b81523360048201523060248201526001600160e01b0319929092166044830152909150602090829060649082906001600160a01b03165afa90811561133c575f916114b6575b505f6113bf565b90506020813d6020116114e8575b816114d1602093836123d1565b81010312610369576114e2906125c2565b5f6114af565b3d91506114c4565b34610369575f366003190112610369576020600354604051908152f35b34610369575f3660031901126103695760206001600160a01b0360015416604051908152f35b346103695760203660031901126103695760206105646115516122e2565b6001600160a01b03165f525f5160206135f25f395f51905f5260205260405f205490565b34610369576040366003190112610369576004356115916122f8565b9061159a613142565b6115a3826125a2565b8082116115c357506105646020926115ba83612a65565b9283913361321d565b916001600160a01b03907f79012fb2000000000000000000000000000000000000000000000000000000005f521660045260245260445260645ffd5b34610369576020366003190112610369576001600160a01b036116206122e2565b165f525f60205260206001600160a01b0360405f205416604051908152f35b5034610369576001600160e01b0319906102ec61166a61165e3661236d565b939195909416336128e7565b6001600160a01b03831692835f52600660205260405f209384549485151580611765575b1561173d57600181019081549687151580611733575b1561170b576106de976116c3926116bc898994612595565b9055612595565b90556116d183600754612595565b6007557f1165aa98d42fbaef9bacc273d7b5cca8edc94909519f8f949ec33562963c87e460408051868152856020820152a2309030612fbe565b7f3b832713000000000000000000000000000000000000000000000000000000005f5260045ffd5b50878611156116a4565b7f01e3468e000000000000000000000000000000000000000000000000000000005f5260045ffd5b508585111561168e565b34610369575f36600319011261036957602060ff5f5160206136525f395f51905f5254166040519015158152f35b5034610369576020366003190112610369576001600160a01b03906117cf6102ec6001600160e01b03196102e46122e2565b16801561045c576001600160a01b0319600154826001600160a01b0382167fe02404e8ee2b8389e3dd58c236f6b16e91da18f91ef4a5a763a94517394ce96b5f80a31617600155005b346103695760203660031901126103695760406001600160a01b0361183b6122e2565b16805f5260066020526001825f200154905f526006602052815f205482519182526020820152f35b6122c4565b5034610369575f366003190112610369576102ec6001600160e01b03196118909216336128e7565b5f5160206136525f395f51905f525460ff8116156118e75760ff19165f5160206136525f395f51905f52557f5db9ee0a495bf2e6ff9c91a7834c1ba4fdd244a5e8aa4e537bd38aeae4b073aa6020604051338152a1005b7f8dfc202b000000000000000000000000000000000000000000000000000000005f5260045ffd5b34610369575f3660031901126103695760206001600160a01b035f5160206136325f395f51905f525416604051908152f35b34610369575f3660031901126103695760ff5f5160206136325f395f51905f525460a01c1660ff811161197957602090604051908152f35b634e487b7160e01b5f52601160045260245ffd5b346103695760603660031901126103695761083a6119a96122e2565b6119b16122f8565b604435916119c0833383612ea2565b612d84565b5034610369576040366003190112610369576001600160a01b03806119e86122e2565b92611a006102ec6001600160e01b03196102e46122f8565b169116805f525f60205260405f20826001600160a01b03198254161790557f3cda29cdb79816ebd803e7c42da9b0bd76d5e7874a94abb4fae13ff444e353fb5f80a3005b5034610369576102ec906001600160e01b0319611a6f611a633661236d565b959193909416336128e7565b6001600160a01b038116805f52600660205260405f209384549081151580611b10575b1561173d57600186019081549182151580611b06575b1561170b57611ae3826040946106de9a6116bc8b7f55ec94ca0f01023d07c5752a75f44048cfbdb0e4cfedf5e7eacecf21fcde358799612595565b9055611af181600754612595565b6007558151908682526020820152a230612d84565b5082821115611aa8565b5081851115611a92565b34610369575f3660031901126103695760205f5160206136125f395f51905f5254604051908152f35b34610369575f3660031901126103695760206001600160a01b0360055416604051908152f35b3461036957608036600319011261036957611b826122e2565b50611b8b6122f8565b5060643567ffffffffffffffff811161036957611bac90369060040161233f565b505060206040517f150b7a02000000000000000000000000000000000000000000000000000000008152f35b50346103695760203660031901126103695760043567ffffffffffffffff811161036957602491611c166001600160e01b031992369060040161230e565b9290911691611c286102ec84336128e7565b60206001600160a01b035f5160206136325f395f51905f525416604051958680926370a0823160e01b82523060048301525afa93841561133c575f94611fed575b50611c776102ec84336128e7565b8015611fa9575f5b818110611d515784602460206001600160a01b035f5160206136325f395f51905f525416604051928380926370a0823160e01b82523060048301525afa90811561133c575f91611d1f575b50818103611cd457005b6106de91808211918215611d105790611cec91612595565b905b15611d0457611cff90600254612595565b612b1b565b611cff90600254612481565b611d1991612595565b90611cee565b90506020813d602011611d49575b81611d3a602093836123d1565b81010312610369575182611cca565b3d9150611d2d565b611d64611d5f828486612a9e565b612ad4565b611d7c611d72838587612a9e565b6020810190612ae8565b6040611d89858789612a9e565b013591611d996102ec89336128e7565b6001600160a01b0384165f525f6020526001600160a01b0360405f20541691611dc4858415156131e0565b602060405180947fdb86c42c00000000000000000000000000000000000000000000000000000000825233600483015260606024830152836064830152838560848401375f6084858401015286604483015281608481601f19601f88011681010301915afa801561133c5785935f91611f66575b50611e4d93611e46916131e0565b369161240f565b90804710611f3757915f8083600196956020611e789651920190855af1611e72613431565b91613565565b817f2f13a569f6d2fba5618730b89cb049a8d430f6bd0aa6eea26e948d8d663d7c766001600160e01b031987611eb2611d5f858a84612a9e565b8489611ec2611d72838387612a9e565b9490358681169560048110611f19575b5050611eed6001600160a01b0393611f109593604093612a9e565b013560405195869516855260208501526060604085015216956060830190612285565b0390a301611c7f565b60040360031b87901b1686169450611eed6001600160a01b03611ed2565b477fcf479181000000000000000000000000000000000000000000000000000000005f5260045260245260445ffd5b9350506020833d8211611fa1575b81611f81602093836123d1565b8101031261036957611e4685611f99611e4d956125c2565b915093611e38565b3d9150611f74565b606460405162461bcd60e51b815260206004820152601160248201527f4e6f2063616c6c732070726f76696465640000000000000000000000000000006044820152fd5b9093506020813d602011612019575b81612009602093836123d1565b810103126103695751925f611c69565b3d9150611ffc565b34610369576020366003190112610369575f5160206136125f395f51905f5254600181018091116119795761205461248e565b6001810180911161197957600161056491602093600435613182565b34610369576040366003190112610369576120896122e2565b60243590331561213f576001600160a01b031690811561211357335f9081527f52c63247e1f47db19d5ce0460030c497f067ca4cebf71ba98eeadabe20bace0160205260409020825f526020528060405f20556040519081527f8c5be1e5ebec7d5bd14f71427d1e84f3dd0314c0f7b2291e5b200ac8c7c3b92560203392a3602060405160018152f35b7f94280d62000000000000000000000000000000000000000000000000000000005f525f60045260245ffd5b7fe602df05000000000000000000000000000000000000000000000000000000005f525f60045260245ffd5b34610369575f366003190112610369576040515f7f52c63247e1f47db19d5ce0460030c497f067ca4cebf71ba98eeadabe20bace03546121aa81612512565b808452906001811690811561094157506001146121d1576108c0836108ac818503826123d1565b7f52c63247e1f47db19d5ce0460030c497f067ca4cebf71ba98eeadabe20bace035f9081527f2ae08a8e29253f69ac5d979a101956ab8f8d9d7ded63fa7a83b16fc47648eab0939250905b808210612234575090915081016020016108ac61089c565b91926001816020925483858801015201910190929161221c565b34610369575f366003190112610369576020600254604051908152f35b34610369575f36600319011261036957602061056461248e565b91908251928382525f5b8481106122af575050825f602080949584010152601f8019910116010190565b8060208092840101518282860101520161228f565b34610369576020366003190112610369576020610564600435612a2c565b600435906001600160a01b038216820361036957565b602435906001600160a01b038216820361036957565b9181601f840112156103695782359167ffffffffffffffff8311610369576020808501948460051b01011161036957565b9181601f840112156103695782359167ffffffffffffffff8311610369576020838186019501011161036957565b6060906003190112610369576004356001600160a01b038116810361036957906024359060443590565b606090600319011261036957600435906024356001600160a01b038116810361036957906044356001600160a01b03811681036103695790565b90601f8019910116810190811067ffffffffffffffff821117610ffc57604052565b67ffffffffffffffff8111610ffc57601f01601f191660200190565b92919261241b826123f3565b9161242960405193846123d1565b829481845281830111610369578281602093845f960137010152565b9080601f83011215610369578160206124609335910161240f565b90565b34610369576020366003190112610369576020610564600435612a65565b9190820180921161197957565b602460206001600160a01b035f5160206136325f395f51905f525416604051928380926370a0823160e01b82523060048301525afa801561133c575f906124de575b612460915060025490612481565b506020813d60201161250a575b816124f8602093836123d1565b810103126103695761246090516124d0565b3d91506124eb565b90600182811c92168015612540575b602083101461252c57565b634e487b7160e01b5f52602260045260245ffd5b91607f1691612521565b1561255157565b606460405162461bcd60e51b815260206004820152600c60248201527f554e415554484f52495a454400000000000000000000000000000000000000006044820152fd5b9190820391821161197957565b5060ff5f5160206136525f395f51905f5254166125be575f1990565b5f90565b5190811515820361036957565b90811561283d576001600160a01b0383169133830361281557825f525f5160206135f25f395f51905f526020528060405f2054106127ed5761261081612a2c565b936001600160a01b036005541692604051957f51eda43e000000000000000000000000000000000000000000000000000000008752306004880152836024880152604487015284606487015260408660a4815f6001600160a01b038616988960848401525af195861561133c575f905f976127aa575b50600281101561279657806126de5750916126c78187847f9a626d8a4952950c7f8b9f5c92a2804e44e147ce4dd0add2f5928f1faea7259096606096612fbe565b60405190868252602082015260016040820152a390565b949593949293919260011415905061276e57826127207f9a626d8a4952950c7f8b9f5c92a2804e44e147ce4dd0add2f5928f1faea72590946060943090612d84565b61272c82600754612481565b600755845f526006602052600160405f20612748838254612481565b815501612756838254612481565b905560405191825260208201525f6040820152a35f90565b7f03e28a1b000000000000000000000000000000000000000000000000000000005f5260045ffd5b634e487b7160e01b5f52602160045260245ffd5b9650506040863d6040116127e5575b816127c6604093836123d1565b810103126103695785519560028710156103695760200151955f612686565b3d91506127b9565b7f39996567000000000000000000000000000000000000000000000000000000005f5260045ffd5b7fe7fe5cf4000000000000000000000000000000000000000000000000000000005f5260045ffd5b7f840c364a000000000000000000000000000000000000000000000000000000005f5260045ffd5b60ff5f5160206136525f395f51905f5254166128a4576001600160a01b03165f525f5160206135f25f395f51905f5260205261246060405f2054612a2c565b505f90565b60ff5f5160206136525f395f51905f5254166128a457612460906001600160a01b03165f525f5160206135f25f395f51905f5260205260405f205490565b6001600160a01b037fdd3fd67aef415aded9493b31ad20a02d2991d4bb2760431cc729821271eaea01541691821515928361295d575b50508115612929575090565b90506001600160a01b03807fdd3fd67aef415aded9493b31ad20a02d2991d4bb2760431cc729821271eaea00541691161490565b60405163b700961360e01b81526001600160a01b03841660048201523060248201526001600160e01b031992909216604483015291925090602090829060649082905afa90811561133c575f916129b8575b50905f8061291d565b90506020813d6020116129ea575b816129d3602093836123d1565b81010312610369576129e4906125c2565b5f6129af565b3d91506129c6565b6129fa61248e565b9060018201809211611979575f5160206136125f395f51905f5254600181018091116119795761246092600192613182565b612a3461248e565b9060018201809211611979575f5160206136125f395f51905f52546001810180911161197957612460925f92613182565b5f5160206136125f395f51905f5254906001820180921161197957612a8861248e565b6001810180911161197957612460925f92613182565b9190811015612ac05760051b81013590605e1981360301821215610369570190565b634e487b7160e01b5f52603260045260245ffd5b356001600160a01b03811681036103695790565b903590601e1981360301821215610369570180359067ffffffffffffffff82116103695760200191813603831361036957565b600354431115612d5c576001600160a01b03600154169060045460245f5160206136125f395f51905f525460206001600160a01b035f5160206136325f395f51905f525416604051938480926370a0823160e01b82523060048301525afa91821561133c575f92612d27575b50906084604092835196879384927f1faab223000000000000000000000000000000000000000000000000000000008452876004850152602484015260448301528660648301525afa92831561133c575f905f94612ce6575b5015612c5957508060025581600455436003556040519080825260208201527f9b01f304f89acbc3f9ca1425e6ce22d5f57df58c42b9adc0dac4c4a71236f98e60404292a26040519080825260208201527f3f22d682a7202099eeac8a14fda6f2bbcadb8b7e2a83b665b69776e8d606151660404292a2565b919050612c64613142565b600160ff195f5160206136525f395f51905f525416175f5160206136525f395f51905f52557f62e78cea01bee320cd4e420270b5ea74000d11b0c9f74754ebdbfc544b05a2586020604051338152a160405191825260208201527f624f9968f9037cc40b91b22280a8f1a3f1fd95e6d2f00e1d7ae4aa10ff2e59c460404292a2565b9350506040833d604011612d1f575b81612d02604093836123d1565b81010312610369576020612d15846125c2565b930151925f612be0565b3d9150612cf5565b91506020823d602011612d54575b81612d42602093836123d1565b81010312610369579051906084612b87565b3d9150612d35565b7f95628bbc000000000000000000000000000000000000000000000000000000005f5260045ffd5b6001600160a01b0316908115612e76576001600160a01b0316918215612e4a57612dac613142565b815f525f5160206135f25f395f51905f5260205260405f2054818110612e3157817fddf252ad1be2c89b69c2b068fc378daa952ba7f163c4a11628f55a4df523b3ef92602092855f525f5160206135f25f395f51905f5284520360405f2055845f525f5160206135f25f395f51905f52825260405f20818154019055604051908152a3565b8263391434e360e21b5f5260045260245260445260645ffd5b7fec442f05000000000000000000000000000000000000000000000000000000005f525f60045260245ffd5b7f96c6fd1e000000000000000000000000000000000000000000000000000000005f525f60045260245ffd5b9190612ede836001600160a01b03165f527f52c63247e1f47db19d5ce0460030c497f067ca4cebf71ba98eeadabe20bace0160205260405f2090565b6001600160a01b0382165f5260205260405f2054925f198410612f02575b50505050565b828410612f81576001600160a01b0381161561213f576001600160a01b0382161561211357612f696001600160a01b03916001600160a01b03165f527f52c63247e1f47db19d5ce0460030c497f067ca4cebf71ba98eeadabe20bace0160205260405f2090565b91165f5260205260405f20910390555f808080612efc565b506001600160a01b0383917ffb8f41b2000000000000000000000000000000000000000000000000000000005f521660045260245260445260645ffd5b91936001600160a01b03851694816001600160a01b03851694878603613131575b5050508415612e7657612ff0613142565b845f525f5160206135f25f395f51905f5260205260405f2054818110613118577ffbde797d201c681b91056529119e0b02407c7bb96a4a2c75c01fc9667232c8db92826040936001600160a01b0393895f525f5160206135f25f395f51905f5260205203845f2055805f5160206136125f395f51905f5254035f5160206136125f395f51905f52555f887fddf252ad1be2c89b69c2b068fc378daa952ba7f163c4a11628f55a4df523b3ef60208751858152a35f5160206136325f395f51905f525484517fa9059cbb0000000000000000000000000000000000000000000000000000000060208201526001600160a01b038416602482015260448082018a905281526131099185166131046064836123d1565b613460565b835196875260208701521693a4565b8563391434e360e21b5f5260045260245260445260645ffd5b61313a92612ea2565b5f8181612fdf565b60ff5f5160206136525f395f51905f52541661315a57565b7fd93c0665000000000000000000000000000000000000000000000000000000005f5260045ffd5b929161318f818386613393565b9260048110156127965760018091161491826131b5575b50506124609250151590612481565b90809250156131cc57612460930915155f806131a6565b634e487b7160e01b5f52601260045260245ffd5b156131e85750565b6001600160a01b03907fe2b9c0ef000000000000000000000000000000000000000000000000000000005f521660045260245ffd5b91906001600160a01b039061328b825f5160206136325f395f51905f5254169483604051917f23b872dd0000000000000000000000000000000000000000000000000000000060208401521695866024830152306044830152856064830152606482526131046084836123d1565b16928315612e4a577fdcbc1c05240f31ff3ad067ef1ee35ce4997762752e3a095284754544f4c709d7916040916132c0613142565b6132d8815f5160206136125f395f51905f5254612481565b5f5160206136125f395f51905f5255855f525f5160206135f25f395f51905f52602052825f20818154019055855f7fddf252ad1be2c89b69c2b068fc378daa952ba7f163c4a11628f55a4df523b3ef60208651858152a382519182526020820152a3565b60ff7ff0c57e16840df040f15088dc2f81fe391c3923bec73e23a9662efc9c229c6a005460401c161561336b57565b7fd7e6bcf8000000000000000000000000000000000000000000000000000000005f5260045ffd5b91818302915f1981850993838086109503948086039514613423578483111561340b5790829109815f0382168092046002816003021880820260020302808202600203028082026002030280820260020302808202600203028091026002030293600183805f03040190848311900302920304170290565b82634e487b715f52156003026011186020526024601cfd5b5050809250156131cc570490565b3d1561345b573d90613442826123f3565b9161345060405193846123d1565b82523d5f602084013e565b606090565b905f602091828151910182855af11561133c575f513d6134c457506001600160a01b0381163b155b61348f5750565b6001600160a01b03907f5274afe7000000000000000000000000000000000000000000000000000000005f521660045260245ffd5b60011415613488565b5f80916040516001600160a01b0360208201917f313ce567000000000000000000000000000000000000000000000000000000008352600481526135126024826123d1565b5192165afa61351f613431565b9080613559575b613532575b505f905f90565b60208151918180820193849201010312610369575160ff811161352b579060ff6001921690565b50602081511015613526565b906135a2575080511561357a57805190602001fd5b7fd6bda275000000000000000000000000000000000000000000000000000000005f5260045ffd5b815115806135e8575b6135b3575090565b6001600160a01b03907f9996b315000000000000000000000000000000000000000000000000000000005f521660045260245ffd5b50803b156135ab56fe52c63247e1f47db19d5ce0460030c497f067ca4cebf71ba98eeadabe20bace0052c63247e1f47db19d5ce0460030c497f067ca4cebf71ba98eeadabe20bace020773e532dfede91f04b12a73d3d2acd361424f41f76b4fb79f090161e36b4e00cd5ed15c6e187e77e9aee88184c21f4f2182ab5827cb3b7e07fbedcd63f03300a164736f6c634300081c000af0c57e16840df040f15088dc2f81fe391c3923bec73e23a9662efc9c229c6a00","linkReferences":{}},"methodIdentifiers":{"aggregatedUnderlyingBalances()":"03d4113b","allowance(address,address)":"dd62ed3e","approve(address,uint256)":"095ea7b3","asset()":"38d52e0f","authority()":"bf7e214f","balanceOf(address)":"70a08231","balanceUpdateHook()":"73399570","cancelRedeem(address,uint256,uint256)":"1cd1c8c3","convertToAssets(uint256)":"07a2d13a","convertToShares(uint256)":"c6e6f592","decimals()":"313ce567","deposit(uint256,address)":"6e553f65","fulfillRedeem(address,uint256,uint256)":"6442b2ba","getAvailableBalance()":"809dab6a","guards(address)":"6b462151","initialize(address,address,address,address,string,string)":"9317c200","isAuthorized(address,bytes4)":"d9972b96","lastBlockUpdated()":"760f5f27","lastPricePerShare()":"ac9dc9e8","manageBatch((address,bytes,uint256)[])":"12d36fd3","maxDeposit(address)":"402d267d","maxMint(address)":"c63d75b6","maxRedeem(address)":"d905777e","maxWithdraw(address)":"ce96cb77","mint(uint256,address)":"94bf804d","name()":"06fdde03","onERC1155BatchReceived(address,address,uint256[],uint256[],bytes)":"bc197c81","onERC1155Received(address,address,uint256,uint256,bytes)":"f23a6e61","onERC721Received(address,address,uint256,bytes)":"150b7a02","owner()":"8da5cb5b","pause()":"8456cb59","paused()":"5c975abb","pendingRedeemRequest(address)":"53dc1dd3","previewDeposit(uint256)":"ef8b30f7","previewMint(uint256)":"b3d7f6b9","previewRedeem(uint256)":"4cdad506","previewWithdraw(uint256)":"0a28a477","redeem(uint256,address,address)":"ba087652","redemptionHook()":"16f020d6","removeGuard(address)":"b6235016","requestRedeem(uint256,address,address)":"7d41c86e","setAuthority(address)":"7a9e5e4b","setBalanceUpdateHook(address)":"560b2318","setGuard(address,address)":"227773ee","setRedemptionHook(address)":"e8ccdf3f","symbol()":"95d89b41","totalAssets()":"01e1d114","totalPendingAssets()":"ab4f0f01","totalSupply()":"18160ddd","transfer(address,uint256)":"a9059cbb","transferFrom(address,address,uint256)":"23b872dd","transferOwnership(address)":"f2fde38b","unpause()":"3f4ba83a","updateBalance(uint256)":"ba7b37d4","withdraw(uint256,address,address)":"b460af94"},"storageLayout":{"storage":[{"astId":58480,"contract":"src/ElitraVault.sol:ElitraVault","label":"guards","offset":0,"slot":"0","type":"t_mapping(t_address,t_contract(ITransactionGuard)57957)"},{"astId":54356,"contract":"src/ElitraVault.sol:ElitraVault","label":"balanceUpdateHook","offset":0,"slot":"1","type":"t_contract(IBalanceUpdateHook)57482"},{"astId":54358,"contract":"src/ElitraVault.sol:ElitraVault","label":"aggregatedUnderlyingBalances","offset":0,"slot":"2","type":"t_uint256"},{"astId":54360,"contract":"src/ElitraVault.sol:ElitraVault","label":"lastBlockUpdated","offset":0,"slot":"3","type":"t_uint256"},{"astId":54362,"contract":"src/ElitraVault.sol:ElitraVault","label":"lastPricePerShare","offset":0,"slot":"4","type":"t_uint256"},{"astId":54365,"contract":"src/ElitraVault.sol:ElitraVault","label":"redemptionHook","offset":0,"slot":"5","type":"t_contract(IRedemptionHook)57933"},{"astId":54370,"contract":"src/ElitraVault.sol:ElitraVault","label":"_pendingRedeem","offset":0,"slot":"6","type":"t_mapping(t_address,t_struct(PendingRedeem)57739_storage)"},{"astId":54372,"contract":"src/ElitraVault.sol:ElitraVault","label":"totalPendingAssets","offset":0,"slot":"7","type":"t_uint256"}],"types":{"t_address":{"encoding":"inplace","label":"address","numberOfBytes":"20"},"t_contract(IBalanceUpdateHook)57482":{"encoding":"inplace","label":"contract IBalanceUpdateHook","numberOfBytes":"20"},"t_contract(IRedemptionHook)57933":{"encoding":"inplace","label":"contract IRedemptionHook","numberOfBytes":"20"},"t_contract(ITransactionGuard)57957":{"encoding":"inplace","label":"contract ITransactionGuard","numberOfBytes":"20"},"t_mapping(t_address,t_contract(ITransactionGuard)57957)":{"encoding":"mapping","key":"t_address","label":"mapping(address => contract ITransactionGuard)","numberOfBytes":"32","value":"t_contract(ITransactionGuard)57957"},"t_mapping(t_address,t_struct(PendingRedeem)57739_storage)":{"encoding":"mapping","key":"t_address","label":"mapping(address => struct IElitraVault.PendingRedeem)","numberOfBytes":"32","value":"t_struct(PendingRedeem)57739_storage"},"t_struct(PendingRedeem)57739_storage":{"encoding":"inplace","label":"struct IElitraVault.PendingRedeem","numberOfBytes":"64","members":[{"astId":57736,"contract":"src/ElitraVault.sol:ElitraVault","label":"shares","offset":0,"slot":"0","type":"t_uint256"},{"astId":57738,"contract":"src/ElitraVault.sol:ElitraVault","label":"assets","offset":0,"slot":"1","type":"t_uint256"}]},"t_uint256":{"encoding":"inplace","label":"uint256","numberOfBytes":"32"}}},"id":89}