{"abi":[{"type":"constructor","inputs":[],"stateMutability":"nonpayable"},{"type":"receive","stateMutability":"payable"},{"type":"function","name":"aggregatedUnderlyingBalances","inputs":[],"outputs":[{"name":"","type":"uint256","internalType":"uint256"}],"stateMutability":"view"},{"type":"function","name":"allowance","inputs":[{"name":"owner","type":"address","internalType":"address"},{"name":"spender","type":"address","internalType":"address"}],"outputs":[{"name":"","type":"uint256","internalType":"uint256"}],"stateMutability":"view"},{"type":"function","name":"approve","inputs":[{"name":"spender","type":"address","internalType":"address"},{"name":"value","type":"uint256","internalType":"uint256"}],"outputs":[{"name":"","type":"bool","internalType":"bool"}],"stateMutability":"nonpayable"},{"type":"function","name":"asset","inputs":[],"outputs":[{"name":"","type":"address","internalType":"address"}],"stateMutability":"view"},{"type":"function","name":"authority","inputs":[],"outputs":[{"name":"","type":"address","internalType":"contract Authority"}],"stateMutability":"view"},{"type":"function","name":"balanceOf","inputs":[{"name":"account","type":"address","internalType":"address"}],"outputs":[{"name":"","type":"uint256","internalType":"uint256"}],"stateMutability":"view"},{"type":"function","name":"balanceUpdateHook","inputs":[],"outputs":[{"name":"","type":"address","internalType":"contract IBalanceUpdateHook"}],"stateMutability":"view"},{"type":"function","name":"cancelRedeem","inputs":[{"name":"receiver","type":"address","internalType":"address"},{"name":"shares","type":"uint256","internalType":"uint256"},{"name":"assets","type":"uint256","internalType":"uint256"}],"outputs":[],"stateMutability":"nonpayable"},{"type":"function","name":"convertToAssets","inputs":[{"name":"shares","type":"uint256","internalType":"uint256"}],"outputs":[{"name":"","type":"uint256","internalType":"uint256"}],"stateMutability":"view"},{"type":"function","name":"convertToShares","inputs":[{"name":"assets","type":"uint256","internalType":"uint256"}],"outputs":[{"name":"","type":"uint256","internalType":"uint256"}],"stateMutability":"view"},{"type":"function","name":"decimals","inputs":[],"outputs":[{"name":"","type":"uint8","internalType":"uint8"}],"stateMutability":"view"},{"type":"function","name":"deposit","inputs":[{"name":"assets","type":"uint256","internalType":"uint256"},{"name":"receiver","type":"address","internalType":"address"}],"outputs":[{"name":"","type":"uint256","internalType":"uint256"}],"stateMutability":"nonpayable"},{"type":"function","name":"fulfillRedeem","inputs":[{"name":"receiver","type":"address","internalType":"address"},{"name":"shares","type":"uint256","internalType":"uint256"},{"name":"assets","type":"uint256","internalType":"uint256"}],"outputs":[],"stateMutability":"nonpayable"},{"type":"function","name":"getAvailableBalance","inputs":[],"outputs":[{"name":"","type":"uint256","internalType":"uint256"}],"stateMutability":"view"},{"type":"function","name":"initialize","inputs":[{"name":"_asset","type":"address","internalType":"contract IERC20"},{"name":"_owner","type":"address","internalType":"address"},{"name":"_balanceUpdateHook","type":"address","internalType":"contract IBalanceUpdateHook"},{"name":"_redemptionHook","type":"address","internalType":"contract IRedemptionHook"},{"name":"_name","type":"string","internalType":"string"},{"name":"_symbol","type":"string","internalType":"string"}],"outputs":[],"stateMutability":"nonpayable"},{"type":"function","name":"isAuthorized","inputs":[{"name":"user","type":"address","internalType":"address"},{"name":"functionSig","type":"bytes4","internalType":"bytes4"}],"outputs":[{"name":"","type":"bool","internalType":"bool"}],"stateMutability":"view"},{"type":"function","name":"lastBlockUpdated","inputs":[],"outputs":[{"name":"","type":"uint256","internalType":"uint256"}],"stateMutability":"view"},{"type":"function","name":"lastPricePerShare","inputs":[],"outputs":[{"name":"","type":"uint256","internalType":"uint256"}],"stateMutability":"view"},{"type":"function","name":"manage","inputs":[{"name":"target","type":"address","internalType":"address"},{"name":"data","type":"bytes","internalType":"bytes"},{"name":"value","type":"uint256","internalType":"uint256"}],"outputs":[{"name":"result","type":"bytes","internalType":"bytes"}],"stateMutability":"nonpayable"},{"type":"function","name":"manageBatch","inputs":[{"name":"calls","type":"tuple[]","internalType":"struct Call[]","components":[{"name":"target","type":"address","internalType":"address"},{"name":"data","type":"bytes","internalType":"bytes"},{"name":"value","type":"uint256","internalType":"uint256"}]}],"outputs":[],"stateMutability":"nonpayable"},{"type":"function","name":"maxDeposit","inputs":[{"name":"receiver","type":"address","internalType":"address"}],"outputs":[{"name":"","type":"uint256","internalType":"uint256"}],"stateMutability":"view"},{"type":"function","name":"maxMint","inputs":[{"name":"receiver","type":"address","internalType":"address"}],"outputs":[{"name":"","type":"uint256","internalType":"uint256"}],"stateMutability":"view"},{"type":"function","name":"maxRedeem","inputs":[{"name":"owner","type":"address","internalType":"address"}],"outputs":[{"name":"","type":"uint256","internalType":"uint256"}],"stateMutability":"view"},{"type":"function","name":"maxWithdraw","inputs":[{"name":"owner","type":"address","internalType":"address"}],"outputs":[{"name":"","type":"uint256","internalType":"uint256"}],"stateMutability":"view"},{"type":"function","name":"mint","inputs":[{"name":"shares","type":"uint256","internalType":"uint256"},{"name":"receiver","type":"address","internalType":"address"}],"outputs":[{"name":"","type":"uint256","internalType":"uint256"}],"stateMutability":"nonpayable"},{"type":"function","name":"name","inputs":[],"outputs":[{"name":"","type":"string","internalType":"string"}],"stateMutability":"view"},{"type":"function","name":"onERC1155BatchReceived","inputs":[{"name":"","type":"address","internalType":"address"},{"name":"","type":"address","internalType":"address"},{"name":"","type":"uint256[]","internalType":"uint256[]"},{"name":"","type":"uint256[]","internalType":"uint256[]"},{"name":"","type":"bytes","internalType":"bytes"}],"outputs":[{"name":"","type":"bytes4","internalType":"bytes4"}],"stateMutability":"pure"},{"type":"function","name":"onERC1155Received","inputs":[{"name":"","type":"address","internalType":"address"},{"name":"","type":"address","internalType":"address"},{"name":"","type":"uint256","internalType":"uint256"},{"name":"","type":"uint256","internalType":"uint256"},{"name":"","type":"bytes","internalType":"bytes"}],"outputs":[{"name":"","type":"bytes4","internalType":"bytes4"}],"stateMutability":"pure"},{"type":"function","name":"onERC721Received","inputs":[{"name":"","type":"address","internalType":"address"},{"name":"","type":"address","internalType":"address"},{"name":"","type":"uint256","internalType":"uint256"},{"name":"","type":"bytes","internalType":"bytes"}],"outputs":[{"name":"","type":"bytes4","internalType":"bytes4"}],"stateMutability":"pure"},{"type":"function","name":"owner","inputs":[],"outputs":[{"name":"","type":"address","internalType":"address"}],"stateMutability":"view"},{"type":"function","name":"pause","inputs":[],"outputs":[],"stateMutability":"nonpayable"},{"type":"function","name":"paused","inputs":[],"outputs":[{"name":"","type":"bool","internalType":"bool"}],"stateMutability":"view"},{"type":"function","name":"pendingRedeemRequest","inputs":[{"name":"user","type":"address","internalType":"address"}],"outputs":[{"name":"assets","type":"uint256","internalType":"uint256"},{"name":"pendingShares","type":"uint256","internalType":"uint256"}],"stateMutability":"view"},{"type":"function","name":"previewDeposit","inputs":[{"name":"assets","type":"uint256","internalType":"uint256"}],"outputs":[{"name":"","type":"uint256","internalType":"uint256"}],"stateMutability":"view"},{"type":"function","name":"previewMint","inputs":[{"name":"shares","type":"uint256","internalType":"uint256"}],"outputs":[{"name":"","type":"uint256","internalType":"uint256"}],"stateMutability":"view"},{"type":"function","name":"previewRedeem","inputs":[{"name":"shares","type":"uint256","internalType":"uint256"}],"outputs":[{"name":"","type":"uint256","internalType":"uint256"}],"stateMutability":"view"},{"type":"function","name":"previewWithdraw","inputs":[{"name":"assets","type":"uint256","internalType":"uint256"}],"outputs":[{"name":"","type":"uint256","internalType":"uint256"}],"stateMutability":"view"},{"type":"function","name":"redeem","inputs":[{"name":"shares","type":"uint256","internalType":"uint256"},{"name":"receiver","type":"address","internalType":"address"},{"name":"owner","type":"address","internalType":"address"}],"outputs":[{"name":"","type":"uint256","internalType":"uint256"}],"stateMutability":"nonpayable"},{"type":"function","name":"redemptionHook","inputs":[],"outputs":[{"name":"","type":"address","internalType":"contract IRedemptionHook"}],"stateMutability":"view"},{"type":"function","name":"requestRedeem","inputs":[{"name":"shares","type":"uint256","internalType":"uint256"},{"name":"receiver","type":"address","internalType":"address"},{"name":"owner","type":"address","internalType":"address"}],"outputs":[{"name":"","type":"uint256","internalType":"uint256"}],"stateMutability":"nonpayable"},{"type":"function","name":"setAuthority","inputs":[{"name":"newAuthority","type":"address","internalType":"contract Authority"}],"outputs":[],"stateMutability":"nonpayable"},{"type":"function","name":"setBalanceUpdateHook","inputs":[{"name":"newAdapter","type":"address","internalType":"contract IBalanceUpdateHook"}],"outputs":[],"stateMutability":"nonpayable"},{"type":"function","name":"setRedemptionHook","inputs":[{"name":"newStrategy","type":"address","internalType":"contract IRedemptionHook"}],"outputs":[],"stateMutability":"nonpayable"},{"type":"function","name":"setValidator","inputs":[{"name":"target","type":"address","internalType":"address"},{"name":"validator","type":"address","internalType":"address"}],"outputs":[],"stateMutability":"nonpayable"},{"type":"function","name":"symbol","inputs":[],"outputs":[{"name":"","type":"string","internalType":"string"}],"stateMutability":"view"},{"type":"function","name":"totalAssets","inputs":[],"outputs":[{"name":"","type":"uint256","internalType":"uint256"}],"stateMutability":"view"},{"type":"function","name":"totalPendingAssets","inputs":[],"outputs":[{"name":"","type":"uint256","internalType":"uint256"}],"stateMutability":"view"},{"type":"function","name":"totalSupply","inputs":[],"outputs":[{"name":"","type":"uint256","internalType":"uint256"}],"stateMutability":"view"},{"type":"function","name":"transfer","inputs":[{"name":"to","type":"address","internalType":"address"},{"name":"value","type":"uint256","internalType":"uint256"}],"outputs":[{"name":"","type":"bool","internalType":"bool"}],"stateMutability":"nonpayable"},{"type":"function","name":"transferFrom","inputs":[{"name":"from","type":"address","internalType":"address"},{"name":"to","type":"address","internalType":"address"},{"name":"value","type":"uint256","internalType":"uint256"}],"outputs":[{"name":"","type":"bool","internalType":"bool"}],"stateMutability":"nonpayable"},{"type":"function","name":"transferOwnership","inputs":[{"name":"newOwner","type":"address","internalType":"address"}],"outputs":[],"stateMutability":"nonpayable"},{"type":"function","name":"unpause","inputs":[],"outputs":[],"stateMutability":"nonpayable"},{"type":"function","name":"updateBalance","inputs":[{"name":"newAggregatedBalance","type":"uint256","internalType":"uint256"}],"outputs":[],"stateMutability":"nonpayable"},{"type":"function","name":"validators","inputs":[{"name":"target","type":"address","internalType":"address"}],"outputs":[{"name":"validator","type":"address","internalType":"contract ICallValidator"}],"stateMutability":"view"},{"type":"function","name":"withdraw","inputs":[{"name":"","type":"uint256","internalType":"uint256"},{"name":"","type":"address","internalType":"address"},{"name":"","type":"address","internalType":"address"}],"outputs":[{"name":"","type":"uint256","internalType":"uint256"}],"stateMutability":"nonpayable"},{"type":"event","name":"Approval","inputs":[{"name":"owner","type":"address","indexed":true,"internalType":"address"},{"name":"spender","type":"address","indexed":true,"internalType":"address"},{"name":"value","type":"uint256","indexed":false,"internalType":"uint256"}],"anonymous":false},{"type":"event","name":"AuthorityUpdated","inputs":[{"name":"user","type":"address","indexed":true,"internalType":"address"},{"name":"newAuthority","type":"address","indexed":true,"internalType":"contract Authority"}],"anonymous":false},{"type":"event","name":"BalanceUpdateHookUpdated","inputs":[{"name":"oldHook","type":"address","indexed":true,"internalType":"address"},{"name":"newHook","type":"address","indexed":true,"internalType":"address"}],"anonymous":false},{"type":"event","name":"Deposit","inputs":[{"name":"sender","type":"address","indexed":true,"internalType":"address"},{"name":"owner","type":"address","indexed":true,"internalType":"address"},{"name":"assets","type":"uint256","indexed":false,"internalType":"uint256"},{"name":"shares","type":"uint256","indexed":false,"internalType":"uint256"}],"anonymous":false},{"type":"event","name":"Initialized","inputs":[{"name":"version","type":"uint64","indexed":false,"internalType":"uint64"}],"anonymous":false},{"type":"event","name":"ManageBatchOperation","inputs":[{"name":"index","type":"uint256","indexed":true,"internalType":"uint256"},{"name":"target","type":"address","indexed":true,"internalType":"address"},{"name":"functionSig","type":"bytes4","indexed":false,"internalType":"bytes4"},{"name":"value","type":"uint256","indexed":false,"internalType":"uint256"},{"name":"result","type":"bytes","indexed":false,"internalType":"bytes"}],"anonymous":false},{"type":"event","name":"OwnershipTransferred","inputs":[{"name":"user","type":"address","indexed":true,"internalType":"address"},{"name":"newOwner","type":"address","indexed":true,"internalType":"address"}],"anonymous":false},{"type":"event","name":"PPSUpdated","inputs":[{"name":"timestamp","type":"uint256","indexed":true,"internalType":"uint256"},{"name":"oldPPS","type":"uint256","indexed":false,"internalType":"uint256"},{"name":"newPPS","type":"uint256","indexed":false,"internalType":"uint256"}],"anonymous":false},{"type":"event","name":"Paused","inputs":[{"name":"account","type":"address","indexed":false,"internalType":"address"}],"anonymous":false},{"type":"event","name":"Received","inputs":[{"name":"sender","type":"address","indexed":false,"internalType":"address"},{"name":"amount","type":"uint256","indexed":false,"internalType":"uint256"}],"anonymous":false},{"type":"event","name":"RedeemRequest","inputs":[{"name":"receiver","type":"address","indexed":true,"internalType":"address"},{"name":"owner","type":"address","indexed":true,"internalType":"address"},{"name":"assets","type":"uint256","indexed":false,"internalType":"uint256"},{"name":"shares","type":"uint256","indexed":false,"internalType":"uint256"},{"name":"instant","type":"bool","indexed":false,"internalType":"bool"}],"anonymous":false},{"type":"event","name":"RedemptionHookUpdated","inputs":[{"name":"oldHook","type":"address","indexed":true,"internalType":"address"},{"name":"newHook","type":"address","indexed":true,"internalType":"address"}],"anonymous":false},{"type":"event","name":"RequestCancelled","inputs":[{"name":"receiver","type":"address","indexed":true,"internalType":"address"},{"name":"shares","type":"uint256","indexed":false,"internalType":"uint256"},{"name":"assets","type":"uint256","indexed":false,"internalType":"uint256"}],"anonymous":false},{"type":"event","name":"RequestFulfilled","inputs":[{"name":"receiver","type":"address","indexed":true,"internalType":"address"},{"name":"shares","type":"uint256","indexed":false,"internalType":"uint256"},{"name":"assets","type":"uint256","indexed":false,"internalType":"uint256"}],"anonymous":false},{"type":"event","name":"Transfer","inputs":[{"name":"from","type":"address","indexed":true,"internalType":"address"},{"name":"to","type":"address","indexed":true,"internalType":"address"},{"name":"value","type":"uint256","indexed":false,"internalType":"uint256"}],"anonymous":false},{"type":"event","name":"UnderlyingBalanceUpdated","inputs":[{"name":"timestamp","type":"uint256","indexed":true,"internalType":"uint256"},{"name":"oldBalance","type":"uint256","indexed":false,"internalType":"uint256"},{"name":"newBalance","type":"uint256","indexed":false,"internalType":"uint256"}],"anonymous":false},{"type":"event","name":"Unpaused","inputs":[{"name":"account","type":"address","indexed":false,"internalType":"address"}],"anonymous":false},{"type":"event","name":"ValidatorUpdated","inputs":[{"name":"target","type":"address","indexed":true,"internalType":"address"},{"name":"validator","type":"address","indexed":true,"internalType":"address"}],"anonymous":false},{"type":"event","name":"VaultPausedDueToThreshold","inputs":[{"name":"timestamp","type":"uint256","indexed":true,"internalType":"uint256"},{"name":"oldPPS","type":"uint256","indexed":false,"internalType":"uint256"},{"name":"newPPS","type":"uint256","indexed":false,"internalType":"uint256"}],"anonymous":false},{"type":"event","name":"Withdraw","inputs":[{"name":"sender","type":"address","indexed":true,"internalType":"address"},{"name":"receiver","type":"address","indexed":true,"internalType":"address"},{"name":"owner","type":"address","indexed":true,"internalType":"address"},{"name":"assets","type":"uint256","indexed":false,"internalType":"uint256"},{"name":"shares","type":"uint256","indexed":false,"internalType":"uint256"}],"anonymous":false},{"type":"error","name":"AddressEmptyCode","inputs":[{"name":"target","type":"address","internalType":"address"}]},{"type":"error","name":"ERC20InsufficientAllowance","inputs":[{"name":"spender","type":"address","internalType":"address"},{"name":"allowance","type":"uint256","internalType":"uint256"},{"name":"needed","type":"uint256","internalType":"uint256"}]},{"type":"error","name":"ERC20InsufficientBalance","inputs":[{"name":"sender","type":"address","internalType":"address"},{"name":"balance","type":"uint256","internalType":"uint256"},{"name":"needed","type":"uint256","internalType":"uint256"}]},{"type":"error","name":"ERC20InvalidApprover","inputs":[{"name":"approver","type":"address","internalType":"address"}]},{"type":"error","name":"ERC20InvalidReceiver","inputs":[{"name":"receiver","type":"address","internalType":"address"}]},{"type":"error","name":"ERC20InvalidSender","inputs":[{"name":"sender","type":"address","internalType":"address"}]},{"type":"error","name":"ERC20InvalidSpender","inputs":[{"name":"spender","type":"address","internalType":"address"}]},{"type":"error","name":"ERC4626ExceededMaxDeposit","inputs":[{"name":"receiver","type":"address","internalType":"address"},{"name":"assets","type":"uint256","internalType":"uint256"},{"name":"max","type":"uint256","internalType":"uint256"}]},{"type":"error","name":"ERC4626ExceededMaxMint","inputs":[{"name":"receiver","type":"address","internalType":"address"},{"name":"shares","type":"uint256","internalType":"uint256"},{"name":"max","type":"uint256","internalType":"uint256"}]},{"type":"error","name":"ERC4626ExceededMaxRedeem","inputs":[{"name":"owner","type":"address","internalType":"address"},{"name":"shares","type":"uint256","internalType":"uint256"},{"name":"max","type":"uint256","internalType":"uint256"}]},{"type":"error","name":"ERC4626ExceededMaxWithdraw","inputs":[{"name":"owner","type":"address","internalType":"address"},{"name":"assets","type":"uint256","internalType":"uint256"},{"name":"max","type":"uint256","internalType":"uint256"}]},{"type":"error","name":"EnforcedPause","inputs":[]},{"type":"error","name":"ExpectedPause","inputs":[]},{"type":"error","name":"FailedCall","inputs":[]},{"type":"error","name":"InsufficientBalance","inputs":[{"name":"balance","type":"uint256","internalType":"uint256"},{"name":"needed","type":"uint256","internalType":"uint256"}]},{"type":"error","name":"InsufficientShares","inputs":[]},{"type":"error","name":"InvalidAssetsAmount","inputs":[]},{"type":"error","name":"InvalidInitialization","inputs":[]},{"type":"error","name":"InvalidRedemptionMode","inputs":[]},{"type":"error","name":"InvalidSharesAmount","inputs":[]},{"type":"error","name":"NotInitializing","inputs":[]},{"type":"error","name":"NotSharesOwner","inputs":[]},{"type":"error","name":"SafeERC20FailedOperation","inputs":[{"name":"token","type":"address","internalType":"address"}]},{"type":"error","name":"SharesAmountZero","inputs":[]},{"type":"error","name":"TransactionValidationFailed","inputs":[{"name":"target","type":"address","internalType":"address"}]},{"type":"error","name":"UpdateAlreadyCompletedInThisBlock","inputs":[]},{"type":"error","name":"UseRequestRedeem","inputs":[]},{"type":"error","name":"ZeroAddress","inputs":[]}],"bytecode":{"object":"0x608060405234602357600e6027565b60146027565b6040516136a890816100bc8239f35b5f80fd5b5f5160206137645f395f51905f525460ff8160401c1660ac576002600160401b03196001600160401b03821601605a5750565b6001600160401b0319166001600160401b039081175f5160206137645f395f51905f52556040519081527fc7f505b2f371ae2175ee4913f4499e1f2633a7b5936321eed1cdaeb6115181d290602090a1565b63f92ee8a960e01b5f5260045ffdfe6080604052600436101561004b575b3615610018575f80fd5b604080513381523460208201527f88a5966d370b9919b20f3e2c13ff65706f196a4e32cc2c12bf57088f885258749190a1005b5f358060e01c90816301e1d114146121d257816303d4113b146121b557816306fdde03146120d257816307a2d13a146119cd578163095ea7b314611fd75781630a28a47714611f8857816312d36fd314611ce7578163150b7a0214611c7857816316f020d614611c5257816318160ddd14611c295781631cd1c8c314611b5457816323b872dd14611b1c578163313ce56714611abd57816338d52e0f14611a785781633f4ba83a146119d2578163402d267d1461071c5781634cdad506146119cd57816353dc1dd314611982578163560b2318146119085781635c975abb146118da5781636442b2ba146117ab5781636e553f651461172157816370a08231146116df57816373399570146116b9578163760f5f271461169c5781637a9e5e4b146115105781637d41c86e146114f4578163809dab6a146114395781638456cb59146113b95781638da5cb5b146113745781639317c20014610b6e57816394bf804d14610ae557816395d89b41146109dd578163a9059cbb146109ac578163ab4f0f011461098f578163ac9dc9e814610972578163b3d7f6b914610954578163b460af9414610913578163ba087652146108ea578163ba7b37d4146108b5578163bc197c8114610802578163bee83f3914610784578163bf7e214f1461073f578163c63d75b61461071c578163c6e6f5921461056a578163ce96cb77146106f9578163d905777e146106ce578163d9972b961461068a578163dd62ed3e14610611578163e8ccdf3f1461056f578163ef8b30f71461056a578163f23a6e61146104fb578163f2fde38b1461044a578163f6e715d0146102f3575063fa52c7d80361000e57346102ef5760203660031901126102ef576001600160a01b036102d0612249565b165f525f60205260206001600160a01b0360405f205416604051908152f35b5f80fd5b346102ef5760603660031901126102ef5761030c612249565b9060243567ffffffffffffffff81116102ef5761032d9036906004016122a6565b61034f61034a6001600160e01b0319604496949635951633612bd3565b6124c4565b6001600160a01b0382165f525f6020526001600160a01b0360405f20541661037983821515612559565b602060405180926336e1b10b60e21b8252818061039c89888c33600486016125d6565b03915afa90811561043f575f916103ea575b6103e66103d286866103cc8a886103c5848a612559565b3691612376565b90612db9565b6040519182916020835260208301906121ec565b0390f35b9050602093929193813d602011610437575b8161040960209383612338565b810103126102ef576103e6946103d2946103c5846104296103cc956125c9565b9450505092939450946103ae565b3d91506103fc565b6040513d5f823e3d90fd5b346102ef5760203660031901126102ef576001600160a01b039061048361034a6001600160e01b031961047b612249565b931633612bd3565b16806001600160a01b03197fdd3fd67aef415aded9493b31ad20a02d2991d4bb2760431cc729821271eaea005416177fdd3fd67aef415aded9493b31ad20a02d2991d4bb2760431cc729821271eaea0055337f8be0079c531659141344cd1fd0a4f28419497f9722a3daafe3b4186f6b6457e05f80a3005b346102ef5760a03660031901126102ef57610514612249565b5061051d61225f565b5060843567ffffffffffffffff81116102ef5761053e9036906004016122a6565b505060206040517ff23a6e61000000000000000000000000000000000000000000000000000000008152f35b6123ca565b346102ef5760203660031901126102ef576001600160a01b03906105a061034a6001600160e01b031961047b612249565b1680156105e9576001600160a01b0319600554826001600160a01b0382167f71e86d7b6261afe37537fed8f42bf15d2ed9344bd8bd3949ea67fdf36a5e55545f80a31617600555005b7fd92e233d000000000000000000000000000000000000000000000000000000005f5260045ffd5b346102ef5760403660031901126102ef5761062a612249565b6001600160a01b0361067461063d61225f565b926001600160a01b03165f527f52c63247e1f47db19d5ce0460030c497f067ca4cebf71ba98eeadabe20bace0160205260405f2090565b91165f52602052602060405f2054604051908152f35b346102ef5760403660031901126102ef576106a3612249565b602435906001600160e01b0319821682036102ef576020916106c491612bd3565b6040519015158152f35b346102ef5760203660031901126102ef5760206106f16106ec612249565b612b95565b604051908152f35b346102ef5760203660031901126102ef5760206106f1610717612249565b612b51565b346102ef5760203660031901126102ef5760206106f161073a612249565b61261f565b346102ef575f3660031901126102ef5760206001600160a01b037fdd3fd67aef415aded9493b31ad20a02d2991d4bb2760431cc729821271eaea015416604051908152f35b346102ef5760403660031901126102ef576001600160a01b03806107a6612249565b926107be61034a6001600160e01b031961047b61225f565b169116805f525f60205260405f20826001600160a01b03198254161790557fcfac5dc75b8d9a7e074162f59d9adcd33da59f0fe8dfb21580db298fc0fdad0d5f80a3005b346102ef5760a03660031901126102ef5761081b612249565b5061082461225f565b5060443567ffffffffffffffff81116102ef57610845903690600401612275565b505060643567ffffffffffffffff81116102ef57610867903690600401612275565b505060843567ffffffffffffffff81116102ef576108899036906004016122a6565b505060206040517fbc197c81000000000000000000000000000000000000000000000000000000008152f35b346102ef5760203660031901126102ef5761034a6001600160e01b03196108dd921633612bd3565b6108e86004356128d5565b005b346102ef5760206106f16108fd366122fe565b916109066131e5565b61090e6131e5565b61263f565b346102ef57610921366122fe565b50505061092c6131e5565b7f797f246a000000000000000000000000000000000000000000000000000000005f5260045ffd5b346102ef5760203660031901126102ef5760206106f1600435612cde565b346102ef575f3660031901126102ef576020600454604051908152f35b346102ef575f3660031901126102ef576020600754604051908152f35b346102ef5760403660031901126102ef576109d26109c8612249565b6024359033612e14565b602060405160018152f35b346102ef575f3660031901126102ef576040515f7f52c63247e1f47db19d5ce0460030c497f067ca4cebf71ba98eeadabe20bace0454610a1c8161248c565b8084529060018116908115610ac15750600114610a44575b6103e6836103d281850382612338565b7f52c63247e1f47db19d5ce0460030c497f067ca4cebf71ba98eeadabe20bace045f9081527f46a2803e59a4de4e7a4c574b1243f25977ac4c77d5a1a4a609b5394cebb4a2aa939250905b808210610aa7575090915081016020016103d2610a34565b919260018160209254838588010152019101909291610a8f565b60ff191660208086019190915291151560051b840190910191506103d29050610a34565b346102ef5760403660031901126102ef57600435610b0161225f565b90610b0a6131e5565b610b138261261f565b808211610b32576020836106f184610b2a81612cde565b80933361330f565b916001600160a01b03907f284ff667000000000000000000000000000000000000000000000000000000005f521660045260245260445260645ffd5b346102ef5760c03660031901126102ef576004356001600160a01b0381168082036102ef57610b9b61225f565b604435906001600160a01b0382168092036102ef57606435926001600160a01b0384168094036102ef5760843567ffffffffffffffff81116102ef57610be59036906004016123ac565b9460a43567ffffffffffffffff81116102ef57610c069036906004016123ac565b7ff0c57e16840df040f15088dc2f81fe391c3923bec73e23a9662efc9c229c6a00549660ff8860401c16159767ffffffffffffffff81168015908161136c575b6001149081611362575b159081611359575b506113315767ffffffffffffffff1981166001177ff0c57e16840df040f15088dc2f81fe391c3923bec73e23a9662efc9c229c6a0055886112f2575b50610c9d613441565b610ca5613441565b610cad613441565b80519067ffffffffffffffff82116111a2578190610ceb7f52c63247e1f47db19d5ce0460030c497f067ca4cebf71ba98eeadabe20bace035461248c565b601f8111611265575b50602090601f83116001146111c1575f926111b6575b50508160011b915f199060031b1c1916177f52c63247e1f47db19d5ce0460030c497f067ca4cebf71ba98eeadabe20bace03555b80519067ffffffffffffffff82116111a257610d7a7f52c63247e1f47db19d5ce0460030c497f067ca4cebf71ba98eeadabe20bace045461248c565b601f8111611120575b50602090601f831160011461106f5791806001600160a01b0396959492610df4945f92611064575b50508160011b915f199060031b1c1916177f52c63247e1f47db19d5ce0460030c497f067ca4cebf71ba98eeadabe20bace04555b610de7613441565b610def613441565b6135a3565b901561105c575b7fffffffffffffffffffffff00000000000000000000000000000000000000000074ff00000000000000000000000000000000000000007f0773e532dfede91f04b12a73d3d2acd361424f41f76b4fb79f090161e36b4e00549260a01b16911617177f0773e532dfede91f04b12a73d3d2acd361424f41f76b4fb79f090161e36b4e0055610e87613441565b610e8f613441565b16806001600160a01b03197fdd3fd67aef415aded9493b31ad20a02d2991d4bb2760431cc729821271eaea005416177fdd3fd67aef415aded9493b31ad20a02d2991d4bb2760431cc729821271eaea00556001600160a01b03197fdd3fd67aef415aded9493b31ad20a02d2991d4bb2760431cc729821271eaea0154167fdd3fd67aef415aded9493b31ad20a02d2991d4bb2760431cc729821271eaea0155337f8be0079c531659141344cd1fd0a4f28419497f9722a3daafe3b4186f6b6457e05f80a35f337fa3396fd7f6e0a21b50e5089d2da70d5ac0a3bbbd1f617a93f134b763899801988280a3610f81613441565b610f89613441565b60ff195f51602061367c5f395f51905f5254165f51602061367c5f395f51905f525580156105e95781156105e9576001600160a01b031960015416176001556001600160a01b03196005541617600555610fdf57005b68ff0000000000000000197ff0c57e16840df040f15088dc2f81fe391c3923bec73e23a9662efc9c229c6a0054167ff0c57e16840df040f15088dc2f81fe391c3923bec73e23a9662efc9c229c6a00557fc7f505b2f371ae2175ee4913f4499e1f2633a7b5936321eed1cdaeb6115181d2602060405160018152a1005b506012610dfb565b015190508a80610dab565b90601f198316917f52c63247e1f47db19d5ce0460030c497f067ca4cebf71ba98eeadabe20bace045f52815f20925f5b8181106111085750926001928592610df4966001600160a01b039a999896106110f0575b505050811b017f52c63247e1f47db19d5ce0460030c497f067ca4cebf71ba98eeadabe20bace0455610ddf565b01515f1960f88460031b161c191690558a80806110c3565b9293602060018192878601518155019501930161109f565b7f52c63247e1f47db19d5ce0460030c497f067ca4cebf71ba98eeadabe20bace045f527f46a2803e59a4de4e7a4c574b1243f25977ac4c77d5a1a4a609b5394cebb4a2aa601f840160051c81019160208510611198575b601f0160051c01905b81811061118d5750610d83565b5f8155600101611180565b9091508190611177565b634e487b7160e01b5f52604160045260245ffd5b015190508980610d0a565b7f52c63247e1f47db19d5ce0460030c497f067ca4cebf71ba98eeadabe20bace035f9081528281209350601f198516905b81811061124d5750908460019594939210611235575b505050811b017f52c63247e1f47db19d5ce0460030c497f067ca4cebf71ba98eeadabe20bace0355610d3e565b01515f1960f88460031b161c19169055898080611208565b929360206001819287860151815501950193016111f2565b7f52c63247e1f47db19d5ce0460030c497f067ca4cebf71ba98eeadabe20bace035f529091507f2ae08a8e29253f69ac5d979a101956ab8f8d9d7ded63fa7a83b16fc47648eab0601f840160051c810191602085106112e8575b90601f859493920160051c01905b8181106112da5750610cf4565b5f81558493506001016112cd565b90915081906112bf565b68ffffffffffffffffff191668010000000000000001177ff0c57e16840df040f15088dc2f81fe391c3923bec73e23a9662efc9c229c6a005588610c94565b7ff92ee8a9000000000000000000000000000000000000000000000000000000005f5260045ffd5b9050158a610c58565b303b159150610c50565b8a9150610c46565b346102ef575f3660031901126102ef5760206001600160a01b037fdd3fd67aef415aded9493b31ad20a02d2991d4bb2760431cc729821271eaea005416604051908152f35b346102ef575f3660031901126102ef5761034a6001600160e01b03196113e0921633612bd3565b6113e86131e5565b600160ff195f51602061367c5f395f51905f525416175f51602061367c5f395f51905f52557f62e78cea01bee320cd4e420270b5ea74000d11b0c9f74754ebdbfc544b05a2586020604051338152a1005b346102ef575f3660031901126102ef57602460206001600160a01b037f0773e532dfede91f04b12a73d3d2acd361424f41f76b4fb79f090161e36b4e005416604051928380926370a0823160e01b82523060048301525afa90811561043f575f916114c2575b5060075490818111156114b8576020916106f191612612565b505060205f6106f1565b90506020813d6020116114ec575b816114dd60209383612338565b810103126102ef57518161149f565b3d91506114d0565b346102ef5760206106f1611507366122fe565b9161090e6131e5565b346102ef5760203660031901126102ef57600435906001600160a01b0382168092036102ef576001600160a01b037fdd3fd67aef415aded9493b31ad20a02d2991d4bb2760431cc729821271eaea00541633149081156115e8575b50156102ef57806001600160a01b03197fdd3fd67aef415aded9493b31ad20a02d2991d4bb2760431cc729821271eaea015416177fdd3fd67aef415aded9493b31ad20a02d2991d4bb2760431cc729821271eaea0155337fa3396fd7f6e0a21b50e5089d2da70d5ac0a3bbbd1f617a93f134b763899801985f80a3005b7fdd3fd67aef415aded9493b31ad20a02d2991d4bb2760431cc729821271eaea015460405163b700961360e01b81523360048201523060248201526001600160e01b0319929092166044830152909150602090829060649082906001600160a01b03165afa90811561043f575f91611662575b508261156b565b90506020813d602011611694575b8161167d60209383612338565b810103126102ef5761168e906125c9565b8261165b565b3d9150611670565b346102ef575f3660031901126102ef576020600354604051908152f35b346102ef575f3660031901126102ef5760206001600160a01b0360015416604051908152f35b346102ef5760203660031901126102ef5760206106f16116fd612249565b6001600160a01b03165f525f51602061363c5f395f51905f5260205260405f205490565b346102ef5760403660031901126102ef5760043561173d61225f565b906117466131e5565b61174f8261261f565b80821161176f57506106f160209261176683612d51565b9283913361330f565b916001600160a01b03907f79012fb2000000000000000000000000000000000000000000000000000000005f521660045260245260445260645ffd5b346102ef576001600160e01b03199061034a6117d56117c9366122d4565b93919590941633612bd3565b6001600160a01b03831692835f52600660205260405f2093845494851515806118d0575b156118a85760018101908154968715158061189e575b15611876576108e89761182e92611827898994612612565b9055612612565b905561183c83600754612612565b6007557f1165aa98d42fbaef9bacc273d7b5cca8edc94909519f8f949ec33562963c87e460408051868152856020820152a230903061304e565b7f3b832713000000000000000000000000000000000000000000000000000000005f5260045ffd5b508786111561180f565b7f01e3468e000000000000000000000000000000000000000000000000000000005f5260045ffd5b50858511156117f9565b346102ef575f3660031901126102ef57602060ff5f51602061367c5f395f51905f5254166040519015158152f35b346102ef5760203660031901126102ef576001600160a01b039061193961034a6001600160e01b031961047b612249565b1680156105e9576001600160a01b0319600154826001600160a01b0382167fe02404e8ee2b8389e3dd58c236f6b16e91da18f91ef4a5a763a94517394ce96b5f80a31617600155005b346102ef5760203660031901126102ef5760406001600160a01b036119a5612249565b16805f5260066020526001825f200154905f526006602052815f205482519182526020820152f35b61222b565b346102ef575f3660031901126102ef5761034a6001600160e01b03196119f9921633612bd3565b5f51602061367c5f395f51905f525460ff811615611a505760ff19165f51602061367c5f395f51905f52557f5db9ee0a495bf2e6ff9c91a7834c1ba4fdd244a5e8aa4e537bd38aeae4b073aa6020604051338152a1005b7f8dfc202b000000000000000000000000000000000000000000000000000000005f5260045ffd5b346102ef575f3660031901126102ef5760206001600160a01b037f0773e532dfede91f04b12a73d3d2acd361424f41f76b4fb79f090161e36b4e005416604051908152f35b346102ef575f3660031901126102ef5760ff7f0773e532dfede91f04b12a73d3d2acd361424f41f76b4fb79f090161e36b4e005460a01c1660ff8111611b0857602090604051908152f35b634e487b7160e01b5f52601160045260245ffd5b346102ef5760603660031901126102ef576109d2611b38612249565b611b4061225f565b60443591611b4f833383612f32565b612e14565b346102ef5761034a906001600160e01b0319611b7e611b72366122d4565b95919390941633612bd3565b6001600160a01b038116805f52600660205260405f209384549081151580611c1f575b156118a857600186019081549182151580611c15575b1561187657611bf2826040946108e89a6118278b7f55ec94ca0f01023d07c5752a75f44048cfbdb0e4cfedf5e7eacecf21fcde358799612612565b9055611c0081600754612612565b6007558151908682526020820152a230612e14565b5082821115611bb7565b5081851115611ba1565b346102ef575f3660031901126102ef5760205f51602061365c5f395f51905f5254604051908152f35b346102ef575f3660031901126102ef5760206001600160a01b0360055416604051908152f35b346102ef5760803660031901126102ef57611c91612249565b50611c9a61225f565b5060643567ffffffffffffffff81116102ef57611cbb9036906004016122a6565b505060206040517f150b7a02000000000000000000000000000000000000000000000000000000008152f35b346102ef5760203660031901126102ef576004359067ffffffffffffffff82116102ef57611d3261034a611d286001600160e01b0319943690600401612275565b9490931633612bd3565b8115611f44575f5b828110611d4357005b806001600160a01b03611d62611d5d611dda94878761250f565b612545565b165f525f60205260206001600160a01b0360405f205416611d92611d8a611d5d85898961250f565b821515612559565b611da9611da084888861250f565b83810190612596565b6040611db9868a8a96959661250f565b013592604051968794859384936336e1b10b60e21b855233600486016125d6565b03915afa91821561043f575f92611f05575b50611e07600192611e01611d5d84888861250f565b90612559565b611e4c6103cc611e1b611d5d84888861250f565b611e33611e2985898961250f565b6020810190612596565b92906040611e42878b8b61250f565b0135933691612376565b817f2f13a569f6d2fba5618730b89cb049a8d430f6bd0aa6eea26e948d8d663d7c766001600160e01b0319878784611e88611e2982858561250f565b9390358581169460048110611eed575b5050916040611ec18385611ebb611d5d6001600160a01b0397611ee4998861250f565b9461250f565b0135604051958695168552602085015260606040850152169560608301906121ec565b0390a301611d3a565b60040360031b86901b16851693506040611ec1611e98565b91506020823d8211611f3c575b81611f1f60209383612338565b810103126102ef57611e07611f356001936125c9565b9250611dec565b3d9150611f12565b606460405162461bcd60e51b815260206004820152601160248201527f4e6f2063616c6c732070726f76696465640000000000000000000000000000006044820152fd5b346102ef5760203660031901126102ef575f51602061365c5f395f51905f525460018101809111611b0857611fbb6123f5565b60018101809111611b085760016106f191602093600435613225565b346102ef5760403660031901126102ef57611ff0612249565b6024359033156120a6576001600160a01b031690811561207a57335f9081527f52c63247e1f47db19d5ce0460030c497f067ca4cebf71ba98eeadabe20bace0160205260409020825f526020528060405f20556040519081527f8c5be1e5ebec7d5bd14f71427d1e84f3dd0314c0f7b2291e5b200ac8c7c3b92560203392a3602060405160018152f35b7f94280d62000000000000000000000000000000000000000000000000000000005f525f60045260245ffd5b7fe602df05000000000000000000000000000000000000000000000000000000005f525f60045260245ffd5b346102ef575f3660031901126102ef576040515f7f52c63247e1f47db19d5ce0460030c497f067ca4cebf71ba98eeadabe20bace03546121118161248c565b8084529060018116908115610ac15750600114612138576103e6836103d281850382612338565b7f52c63247e1f47db19d5ce0460030c497f067ca4cebf71ba98eeadabe20bace035f9081527f2ae08a8e29253f69ac5d979a101956ab8f8d9d7ded63fa7a83b16fc47648eab0939250905b80821061219b575090915081016020016103d2610a34565b919260018160209254838588010152019101909291612183565b346102ef575f3660031901126102ef576020600254604051908152f35b346102ef575f3660031901126102ef5760206106f16123f5565b91908251928382525f5b848110612216575050825f602080949584010152601f8019910116010190565b806020809284010151828286010152016121f6565b346102ef5760203660031901126102ef5760206106f1600435612d18565b600435906001600160a01b03821682036102ef57565b602435906001600160a01b03821682036102ef57565b9181601f840112156102ef5782359167ffffffffffffffff83116102ef576020808501948460051b0101116102ef57565b9181601f840112156102ef5782359167ffffffffffffffff83116102ef57602083818601950101116102ef57565b60609060031901126102ef576004356001600160a01b03811681036102ef57906024359060443590565b60609060031901126102ef57600435906024356001600160a01b03811681036102ef57906044356001600160a01b03811681036102ef5790565b90601f8019910116810190811067ffffffffffffffff8211176111a257604052565b67ffffffffffffffff81116111a257601f01601f191660200190565b9291926123828261235a565b916123906040519384612338565b8294818452818301116102ef578281602093845f960137010152565b9080601f830112156102ef578160206123c793359101612376565b90565b346102ef5760203660031901126102ef5760206106f1600435612d51565b91908201809211611b0857565b602460206001600160a01b037f0773e532dfede91f04b12a73d3d2acd361424f41f76b4fb79f090161e36b4e005416604051928380926370a0823160e01b82523060048301525afa801561043f575f90612458575b6123c79150600254906123e8565b506020813d602011612484575b8161247260209383612338565b810103126102ef576123c7905161244a565b3d9150612465565b90600182811c921680156124ba575b60208310146124a657565b634e487b7160e01b5f52602260045260245ffd5b91607f169161249b565b156124cb57565b606460405162461bcd60e51b815260206004820152600c60248201527f554e415554484f52495a454400000000000000000000000000000000000000006044820152fd5b91908110156125315760051b81013590605e19813603018212156102ef570190565b634e487b7160e01b5f52603260045260245ffd5b356001600160a01b03811681036102ef5790565b156125615750565b6001600160a01b03907fe2b9c0ef000000000000000000000000000000000000000000000000000000005f521660045260245ffd5b903590601e19813603018212156102ef570180359067ffffffffffffffff82116102ef576020019181360383136102ef57565b519081151582036102ef57565b949392806040936001600160a01b0360809416885260606020890152816060890152838801375f828288010152601f8019910116850101930152565b91908203918211611b0857565b5060ff5f51602061367c5f395f51905f52541661263b575f1990565b5f90565b9081156128ad576001600160a01b0383169133830361288557825f525f51602061363c5f395f51905f526020528060405f20541061285d5761268081612d18565b936001600160a01b036005541692604051957f51eda43e000000000000000000000000000000000000000000000000000000008752306004880152836024880152604487015284606487015260408660a4815f6001600160a01b038616988960848401525af195861561043f575f905f9761281a575b506002811015612806578061274e5750916127378187847f9a626d8a4952950c7f8b9f5c92a2804e44e147ce4dd0add2f5928f1faea725909660609661304e565b60405190868252602082015260016040820152a390565b94959394929391926001141590506127de57826127907f9a626d8a4952950c7f8b9f5c92a2804e44e147ce4dd0add2f5928f1faea72590946060943090612e14565b61279c826007546123e8565b600755845f526006602052600160405f206127b88382546123e8565b8155016127c68382546123e8565b905560405191825260208201525f6040820152a35f90565b7f03e28a1b000000000000000000000000000000000000000000000000000000005f5260045ffd5b634e487b7160e01b5f52602160045260245ffd5b9650506040863d604011612855575b8161283660409383612338565b810103126102ef5785519560028710156102ef5760200151955f6126f6565b3d9150612829565b7f39996567000000000000000000000000000000000000000000000000000000005f5260045ffd5b7fe7fe5cf4000000000000000000000000000000000000000000000000000000005f5260045ffd5b7f840c364a000000000000000000000000000000000000000000000000000000005f5260045ffd5b600354431115612b29576001600160a01b03600154169060045460245f51602061365c5f395f51905f525460206001600160a01b037f0773e532dfede91f04b12a73d3d2acd361424f41f76b4fb79f090161e36b4e005416604051938480926370a0823160e01b82523060048301525afa91821561043f575f92612af4575b50906084604092835196879384927f1faab223000000000000000000000000000000000000000000000000000000008452876004850152602484015260448301528660648301525afa92831561043f575f905f94612ab3575b5015612a2657508060025581600455436003556040519080825260208201527f9b01f304f89acbc3f9ca1425e6ce22d5f57df58c42b9adc0dac4c4a71236f98e60404292a26040519080825260208201527f3f22d682a7202099eeac8a14fda6f2bbcadb8b7e2a83b665b69776e8d606151660404292a2565b919050612a316131e5565b600160ff195f51602061367c5f395f51905f525416175f51602061367c5f395f51905f52557f62e78cea01bee320cd4e420270b5ea74000d11b0c9f74754ebdbfc544b05a2586020604051338152a160405191825260208201527f624f9968f9037cc40b91b22280a8f1a3f1fd95e6d2f00e1d7ae4aa10ff2e59c460404292a2565b9350506040833d604011612aec575b81612acf60409383612338565b810103126102ef576020612ae2846125c9565b930151925f6129ad565b3d9150612ac2565b91506020823d602011612b21575b81612b0f60209383612338565b810103126102ef579051906084612954565b3d9150612b02565b7f95628bbc000000000000000000000000000000000000000000000000000000005f5260045ffd5b60ff5f51602061367c5f395f51905f525416612b90576001600160a01b03165f525f51602061363c5f395f51905f526020526123c760405f2054612d18565b505f90565b60ff5f51602061367c5f395f51905f525416612b90576123c7906001600160a01b03165f525f51602061363c5f395f51905f5260205260405f205490565b6001600160a01b037fdd3fd67aef415aded9493b31ad20a02d2991d4bb2760431cc729821271eaea015416918215159283612c49575b50508115612c15575090565b90506001600160a01b03807fdd3fd67aef415aded9493b31ad20a02d2991d4bb2760431cc729821271eaea00541691161490565b60405163b700961360e01b81526001600160a01b03841660048201523060248201526001600160e01b031992909216604483015291925090602090829060649082905afa90811561043f575f91612ca4575b50905f80612c09565b90506020813d602011612cd6575b81612cbf60209383612338565b810103126102ef57612cd0906125c9565b5f612c9b565b3d9150612cb2565b612ce66123f5565b9060018201809211611b08575f51602061365c5f395f51905f525460018101809111611b08576123c792600192613225565b612d206123f5565b9060018201809211611b08575f51602061365c5f395f51905f525460018101809111611b08576123c7925f92613225565b5f51602061365c5f395f51905f52549060018201809211611b0857612d746123f5565b60018101809111611b08576123c7925f92613225565b3d15612db4573d90612d9b8261235a565b91612da96040519384612338565b82523d5f602084013e565b606090565b90929192834710612de4575f816123c794956020839451920190855af1612dde612d8a565b91613283565b83477fcf479181000000000000000000000000000000000000000000000000000000005f5260045260245260445ffd5b6001600160a01b0316908115612f06576001600160a01b0316918215612eda57612e3c6131e5565b815f525f51602061363c5f395f51905f5260205260405f2054818110612ec157817fddf252ad1be2c89b69c2b068fc378daa952ba7f163c4a11628f55a4df523b3ef92602092855f525f51602061363c5f395f51905f5284520360405f2055845f525f51602061363c5f395f51905f52825260405f20818154019055604051908152a3565b8263391434e360e21b5f5260045260245260445260645ffd5b7fec442f05000000000000000000000000000000000000000000000000000000005f525f60045260245ffd5b7f96c6fd1e000000000000000000000000000000000000000000000000000000005f525f60045260245ffd5b9190612f6e836001600160a01b03165f527f52c63247e1f47db19d5ce0460030c497f067ca4cebf71ba98eeadabe20bace0160205260405f2090565b6001600160a01b0382165f5260205260405f2054925f198410612f92575b50505050565b828410613011576001600160a01b038116156120a6576001600160a01b0382161561207a57612ff96001600160a01b03916001600160a01b03165f527f52c63247e1f47db19d5ce0460030c497f067ca4cebf71ba98eeadabe20bace0160205260405f2090565b91165f5260205260405f20910390555f808080612f8c565b506001600160a01b0383917ffb8f41b2000000000000000000000000000000000000000000000000000000005f521660045260245260445260645ffd5b91936001600160a01b03851694816001600160a01b038516948786036131d4575b5050508415612f06576130806131e5565b845f525f51602061363c5f395f51905f5260205260405f20548181106131bb577ffbde797d201c681b91056529119e0b02407c7bb96a4a2c75c01fc9667232c8db92826040936001600160a01b0393895f525f51602061363c5f395f51905f5260205203845f2055805f51602061365c5f395f51905f5254035f51602061365c5f395f51905f52555f887fddf252ad1be2c89b69c2b068fc378daa952ba7f163c4a11628f55a4df523b3ef60208751858152a37f0773e532dfede91f04b12a73d3d2acd361424f41f76b4fb79f090161e36b4e005484517fa9059cbb0000000000000000000000000000000000000000000000000000000060208201526001600160a01b038416602482015260448082018a905281526131ac9185166131a7606483612338565b613536565b835196875260208701521693a4565b8563391434e360e21b5f5260045260245260445260645ffd5b6131dd92612f32565b5f818161306f565b60ff5f51602061367c5f395f51905f5254166131fd57565b7fd93c0665000000000000000000000000000000000000000000000000000000005f5260045ffd5b9291613232818386613498565b926004811015612806576001809116149182613258575b50506123c792501515906123e8565b908092501561326f576123c7930915155f80613249565b634e487b7160e01b5f52601260045260245ffd5b906132c0575080511561329857805190602001fd5b7fd6bda275000000000000000000000000000000000000000000000000000000005f5260045ffd5b81511580613306575b6132d1575090565b6001600160a01b03907f9996b315000000000000000000000000000000000000000000000000000000005f521660045260245ffd5b50803b156132c9565b91906001600160a01b0390613390827f0773e532dfede91f04b12a73d3d2acd361424f41f76b4fb79f090161e36b4e0054169483604051917f23b872dd0000000000000000000000000000000000000000000000000000000060208401521695866024830152306044830152856064830152606482526131a7608483612338565b16928315612eda577fdcbc1c05240f31ff3ad067ef1ee35ce4997762752e3a095284754544f4c709d7916040916133c56131e5565b6133dd815f51602061365c5f395f51905f52546123e8565b5f51602061365c5f395f51905f5255855f525f51602061363c5f395f51905f52602052825f20818154019055855f7fddf252ad1be2c89b69c2b068fc378daa952ba7f163c4a11628f55a4df523b3ef60208651858152a382519182526020820152a3565b60ff7ff0c57e16840df040f15088dc2f81fe391c3923bec73e23a9662efc9c229c6a005460401c161561347057565b7fd7e6bcf8000000000000000000000000000000000000000000000000000000005f5260045ffd5b91818302915f198185099383808610950394808603951461352857848311156135105790829109815f0382168092046002816003021880820260020302808202600203028082026002030280820260020302808202600203028091026002030293600183805f03040190848311900302920304170290565b82634e487b715f52156003026011186020526024601cfd5b50508092501561326f570490565b905f602091828151910182855af11561043f575f513d61359a57506001600160a01b0381163b155b6135655750565b6001600160a01b03907f5274afe7000000000000000000000000000000000000000000000000000000005f521660045260245ffd5b6001141561355e565b5f80916040516001600160a01b0360208201917f313ce567000000000000000000000000000000000000000000000000000000008352600481526135e8602482612338565b5192165afa6135f5612d8a565b908061362f575b613608575b505f905f90565b602081519181808201938492010103126102ef575160ff8111613601579060ff6001921690565b506020815110156135fc56fe52c63247e1f47db19d5ce0460030c497f067ca4cebf71ba98eeadabe20bace0052c63247e1f47db19d5ce0460030c497f067ca4cebf71ba98eeadabe20bace02cd5ed15c6e187e77e9aee88184c21f4f2182ab5827cb3b7e07fbedcd63f03300a164736f6c634300081c000af0c57e16840df040f15088dc2f81fe391c3923bec73e23a9662efc9c229c6a00","linkReferences":{}},"methodIdentifiers":{"aggregatedUnderlyingBalances()":"03d4113b","allowance(address,address)":"dd62ed3e","approve(address,uint256)":"095ea7b3","asset()":"38d52e0f","authority()":"bf7e214f","balanceOf(address)":"70a08231","balanceUpdateHook()":"73399570","cancelRedeem(address,uint256,uint256)":"1cd1c8c3","convertToAssets(uint256)":"07a2d13a","convertToShares(uint256)":"c6e6f592","decimals()":"313ce567","deposit(uint256,address)":"6e553f65","fulfillRedeem(address,uint256,uint256)":"6442b2ba","getAvailableBalance()":"809dab6a","initialize(address,address,address,address,string,string)":"9317c200","isAuthorized(address,bytes4)":"d9972b96","lastBlockUpdated()":"760f5f27","lastPricePerShare()":"ac9dc9e8","manage(address,bytes,uint256)":"f6e715d0","manageBatch((address,bytes,uint256)[])":"12d36fd3","maxDeposit(address)":"402d267d","maxMint(address)":"c63d75b6","maxRedeem(address)":"d905777e","maxWithdraw(address)":"ce96cb77","mint(uint256,address)":"94bf804d","name()":"06fdde03","onERC1155BatchReceived(address,address,uint256[],uint256[],bytes)":"bc197c81","onERC1155Received(address,address,uint256,uint256,bytes)":"f23a6e61","onERC721Received(address,address,uint256,bytes)":"150b7a02","owner()":"8da5cb5b","pause()":"8456cb59","paused()":"5c975abb","pendingRedeemRequest(address)":"53dc1dd3","previewDeposit(uint256)":"ef8b30f7","previewMint(uint256)":"b3d7f6b9","previewRedeem(uint256)":"4cdad506","previewWithdraw(uint256)":"0a28a477","redeem(uint256,address,address)":"ba087652","redemptionHook()":"16f020d6","requestRedeem(uint256,address,address)":"7d41c86e","setAuthority(address)":"7a9e5e4b","setBalanceUpdateHook(address)":"560b2318","setRedemptionHook(address)":"e8ccdf3f","setValidator(address,address)":"bee83f39","symbol()":"95d89b41","totalAssets()":"01e1d114","totalPendingAssets()":"ab4f0f01","totalSupply()":"18160ddd","transfer(address,uint256)":"a9059cbb","transferFrom(address,address,uint256)":"23b872dd","transferOwnership(address)":"f2fde38b","unpause()":"3f4ba83a","updateBalance(uint256)":"ba7b37d4","validators(address)":"fa52c7d8","withdraw(uint256,address,address)":"b460af94"},"storageLayout":{"storage":[{"astId":52424,"contract":"src/ElitraVault.sol:ElitraVault","label":"validators","offset":0,"slot":"0","type":"t_mapping(t_address,t_contract(ICallValidator)53504)"},{"astId":51017,"contract":"src/ElitraVault.sol:ElitraVault","label":"balanceUpdateHook","offset":0,"slot":"1","type":"t_contract(IBalanceUpdateHook)53272"},{"astId":51019,"contract":"src/ElitraVault.sol:ElitraVault","label":"aggregatedUnderlyingBalances","offset":0,"slot":"2","type":"t_uint256"},{"astId":51021,"contract":"src/ElitraVault.sol:ElitraVault","label":"lastBlockUpdated","offset":0,"slot":"3","type":"t_uint256"},{"astId":51023,"contract":"src/ElitraVault.sol:ElitraVault","label":"lastPricePerShare","offset":0,"slot":"4","type":"t_uint256"},{"astId":51026,"contract":"src/ElitraVault.sol:ElitraVault","label":"redemptionHook","offset":0,"slot":"5","type":"t_contract(IRedemptionHook)53747"},{"astId":51031,"contract":"src/ElitraVault.sol:ElitraVault","label":"_pendingRedeem","offset":0,"slot":"6","type":"t_mapping(t_address,t_struct(PendingRedeem)53529_storage)"},{"astId":51033,"contract":"src/ElitraVault.sol:ElitraVault","label":"totalPendingAssets","offset":0,"slot":"7","type":"t_uint256"}],"types":{"t_address":{"encoding":"inplace","label":"address","numberOfBytes":"20"},"t_contract(IBalanceUpdateHook)53272":{"encoding":"inplace","label":"contract IBalanceUpdateHook","numberOfBytes":"20"},"t_contract(ICallValidator)53504":{"encoding":"inplace","label":"contract ICallValidator","numberOfBytes":"20"},"t_contract(IRedemptionHook)53747":{"encoding":"inplace","label":"contract IRedemptionHook","numberOfBytes":"20"},"t_mapping(t_address,t_contract(ICallValidator)53504)":{"encoding":"mapping","key":"t_address","label":"mapping(address => contract ICallValidator)","numberOfBytes":"32","value":"t_contract(ICallValidator)53504"},"t_mapping(t_address,t_struct(PendingRedeem)53529_storage)":{"encoding":"mapping","key":"t_address","label":"mapping(address => struct IElitraVault.PendingRedeem)","numberOfBytes":"32","value":"t_struct(PendingRedeem)53529_storage"},"t_struct(PendingRedeem)53529_storage":{"encoding":"inplace","label":"struct IElitraVault.PendingRedeem","numberOfBytes":"64","members":[{"astId":53526,"contract":"src/ElitraVault.sol:ElitraVault","label":"shares","offset":0,"slot":"0","type":"t_uint256"},{"astId":53528,"contract":"src/ElitraVault.sol:ElitraVault","label":"assets","offset":0,"slot":"1","type":"t_uint256"}]},"t_uint256":{"encoding":"inplace","label":"uint256","numberOfBytes":"32"}}},"id":62}