{"abi":[{"type":"constructor","inputs":[],"stateMutability":"nonpayable"},{"type":"receive","stateMutability":"payable"},{"type":"function","name":"aggregatedUnderlyingBalances","inputs":[],"outputs":[{"name":"","type":"uint256","internalType":"uint256"}],"stateMutability":"view"},{"type":"function","name":"allowance","inputs":[{"name":"owner","type":"address","internalType":"address"},{"name":"spender","type":"address","internalType":"address"}],"outputs":[{"name":"","type":"uint256","internalType":"uint256"}],"stateMutability":"view"},{"type":"function","name":"approve","inputs":[{"name":"spender","type":"address","internalType":"address"},{"name":"value","type":"uint256","internalType":"uint256"}],"outputs":[{"name":"","type":"bool","internalType":"bool"}],"stateMutability":"nonpayable"},{"type":"function","name":"asset","inputs":[],"outputs":[{"name":"","type":"address","internalType":"address"}],"stateMutability":"view"},{"type":"function","name":"authority","inputs":[],"outputs":[{"name":"","type":"address","internalType":"contract Authority"}],"stateMutability":"view"},{"type":"function","name":"balanceOf","inputs":[{"name":"account","type":"address","internalType":"address"}],"outputs":[{"name":"","type":"uint256","internalType":"uint256"}],"stateMutability":"view"},{"type":"function","name":"balanceUpdateHook","inputs":[],"outputs":[{"name":"","type":"address","internalType":"contract IBalanceUpdateHook"}],"stateMutability":"view"},{"type":"function","name":"cancelRedeem","inputs":[{"name":"receiver","type":"address","internalType":"address"},{"name":"shares","type":"uint256","internalType":"uint256"},{"name":"assets","type":"uint256","internalType":"uint256"}],"outputs":[],"stateMutability":"nonpayable"},{"type":"function","name":"convertToAssets","inputs":[{"name":"shares","type":"uint256","internalType":"uint256"}],"outputs":[{"name":"","type":"uint256","internalType":"uint256"}],"stateMutability":"view"},{"type":"function","name":"convertToShares","inputs":[{"name":"assets","type":"uint256","internalType":"uint256"}],"outputs":[{"name":"","type":"uint256","internalType":"uint256"}],"stateMutability":"view"},{"type":"function","name":"decimals","inputs":[],"outputs":[{"name":"","type":"uint8","internalType":"uint8"}],"stateMutability":"view"},{"type":"function","name":"deposit","inputs":[{"name":"assets","type":"uint256","internalType":"uint256"},{"name":"receiver","type":"address","internalType":"address"}],"outputs":[{"name":"","type":"uint256","internalType":"uint256"}],"stateMutability":"nonpayable"},{"type":"function","name":"fulfillRedeem","inputs":[{"name":"receiver","type":"address","internalType":"address"},{"name":"shares","type":"uint256","internalType":"uint256"},{"name":"assets","type":"uint256","internalType":"uint256"}],"outputs":[],"stateMutability":"nonpayable"},{"type":"function","name":"getAvailableBalance","inputs":[],"outputs":[{"name":"","type":"uint256","internalType":"uint256"}],"stateMutability":"view"},{"type":"function","name":"guards","inputs":[{"name":"target","type":"address","internalType":"address"}],"outputs":[{"name":"","type":"address","internalType":"contract ITransactionGuard"}],"stateMutability":"view"},{"type":"function","name":"initialize","inputs":[{"name":"_asset","type":"address","internalType":"contract IERC20"},{"name":"_owner","type":"address","internalType":"address"},{"name":"_balanceUpdateHook","type":"address","internalType":"contract IBalanceUpdateHook"},{"name":"_redemptionHook","type":"address","internalType":"contract IRedemptionHook"},{"name":"_name","type":"string","internalType":"string"},{"name":"_symbol","type":"string","internalType":"string"}],"outputs":[],"stateMutability":"nonpayable"},{"type":"function","name":"isAuthorized","inputs":[{"name":"user","type":"address","internalType":"address"},{"name":"functionSig","type":"bytes4","internalType":"bytes4"}],"outputs":[{"name":"","type":"bool","internalType":"bool"}],"stateMutability":"view"},{"type":"function","name":"isTrustedTarget","inputs":[{"name":"target","type":"address","internalType":"address"}],"outputs":[{"name":"","type":"bool","internalType":"bool"}],"stateMutability":"view"},{"type":"function","name":"lastBlockUpdated","inputs":[],"outputs":[{"name":"","type":"uint256","internalType":"uint256"}],"stateMutability":"view"},{"type":"function","name":"lastPricePerShare","inputs":[],"outputs":[{"name":"","type":"uint256","internalType":"uint256"}],"stateMutability":"view"},{"type":"function","name":"manageBatch","inputs":[{"name":"calls","type":"tuple[]","internalType":"struct Call[]","components":[{"name":"target","type":"address","internalType":"address"},{"name":"data","type":"bytes","internalType":"bytes"},{"name":"value","type":"uint256","internalType":"uint256"}]}],"outputs":[],"stateMutability":"nonpayable"},{"type":"function","name":"maxDeposit","inputs":[{"name":"receiver","type":"address","internalType":"address"}],"outputs":[{"name":"","type":"uint256","internalType":"uint256"}],"stateMutability":"view"},{"type":"function","name":"maxMint","inputs":[{"name":"receiver","type":"address","internalType":"address"}],"outputs":[{"name":"","type":"uint256","internalType":"uint256"}],"stateMutability":"view"},{"type":"function","name":"maxRedeem","inputs":[{"name":"owner","type":"address","internalType":"address"}],"outputs":[{"name":"","type":"uint256","internalType":"uint256"}],"stateMutability":"view"},{"type":"function","name":"maxWithdraw","inputs":[{"name":"owner","type":"address","internalType":"address"}],"outputs":[{"name":"","type":"uint256","internalType":"uint256"}],"stateMutability":"view"},{"type":"function","name":"mint","inputs":[{"name":"shares","type":"uint256","internalType":"uint256"},{"name":"receiver","type":"address","internalType":"address"}],"outputs":[{"name":"","type":"uint256","internalType":"uint256"}],"stateMutability":"nonpayable"},{"type":"function","name":"name","inputs":[],"outputs":[{"name":"","type":"string","internalType":"string"}],"stateMutability":"view"},{"type":"function","name":"onERC1155BatchReceived","inputs":[{"name":"","type":"address","internalType":"address"},{"name":"","type":"address","internalType":"address"},{"name":"","type":"uint256[]","internalType":"uint256[]"},{"name":"","type":"uint256[]","internalType":"uint256[]"},{"name":"","type":"bytes","internalType":"bytes"}],"outputs":[{"name":"","type":"bytes4","internalType":"bytes4"}],"stateMutability":"pure"},{"type":"function","name":"onERC1155Received","inputs":[{"name":"","type":"address","internalType":"address"},{"name":"","type":"address","internalType":"address"},{"name":"","type":"uint256","internalType":"uint256"},{"name":"","type":"uint256","internalType":"uint256"},{"name":"","type":"bytes","internalType":"bytes"}],"outputs":[{"name":"","type":"bytes4","internalType":"bytes4"}],"stateMutability":"pure"},{"type":"function","name":"onERC721Received","inputs":[{"name":"","type":"address","internalType":"address"},{"name":"","type":"address","internalType":"address"},{"name":"","type":"uint256","internalType":"uint256"},{"name":"","type":"bytes","internalType":"bytes"}],"outputs":[{"name":"","type":"bytes4","internalType":"bytes4"}],"stateMutability":"pure"},{"type":"function","name":"owner","inputs":[],"outputs":[{"name":"","type":"address","internalType":"address"}],"stateMutability":"view"},{"type":"function","name":"pause","inputs":[],"outputs":[],"stateMutability":"nonpayable"},{"type":"function","name":"paused","inputs":[],"outputs":[{"name":"","type":"bool","internalType":"bool"}],"stateMutability":"view"},{"type":"function","name":"pendingRedeemRequest","inputs":[{"name":"user","type":"address","internalType":"address"}],"outputs":[{"name":"assets","type":"uint256","internalType":"uint256"},{"name":"pendingShares","type":"uint256","internalType":"uint256"}],"stateMutability":"view"},{"type":"function","name":"previewDeposit","inputs":[{"name":"assets","type":"uint256","internalType":"uint256"}],"outputs":[{"name":"","type":"uint256","internalType":"uint256"}],"stateMutability":"view"},{"type":"function","name":"previewMint","inputs":[{"name":"shares","type":"uint256","internalType":"uint256"}],"outputs":[{"name":"","type":"uint256","internalType":"uint256"}],"stateMutability":"view"},{"type":"function","name":"previewRedeem","inputs":[{"name":"shares","type":"uint256","internalType":"uint256"}],"outputs":[{"name":"","type":"uint256","internalType":"uint256"}],"stateMutability":"view"},{"type":"function","name":"previewWithdraw","inputs":[{"name":"assets","type":"uint256","internalType":"uint256"}],"outputs":[{"name":"","type":"uint256","internalType":"uint256"}],"stateMutability":"view"},{"type":"function","name":"redeem","inputs":[{"name":"shares","type":"uint256","internalType":"uint256"},{"name":"receiver","type":"address","internalType":"address"},{"name":"owner","type":"address","internalType":"address"}],"outputs":[{"name":"","type":"uint256","internalType":"uint256"}],"stateMutability":"nonpayable"},{"type":"function","name":"redemptionHook","inputs":[],"outputs":[{"name":"","type":"address","internalType":"contract IRedemptionHook"}],"stateMutability":"view"},{"type":"function","name":"removeGuard","inputs":[{"name":"target","type":"address","internalType":"address"}],"outputs":[],"stateMutability":"nonpayable"},{"type":"function","name":"requestRedeem","inputs":[{"name":"shares","type":"uint256","internalType":"uint256"},{"name":"receiver","type":"address","internalType":"address"},{"name":"owner","type":"address","internalType":"address"}],"outputs":[{"name":"","type":"uint256","internalType":"uint256"}],"stateMutability":"nonpayable"},{"type":"function","name":"setAuthority","inputs":[{"name":"newAuthority","type":"address","internalType":"contract Authority"}],"outputs":[],"stateMutability":"nonpayable"},{"type":"function","name":"setBalanceUpdateHook","inputs":[{"name":"newAdapter","type":"address","internalType":"contract IBalanceUpdateHook"}],"outputs":[],"stateMutability":"nonpayable"},{"type":"function","name":"setGuard","inputs":[{"name":"target","type":"address","internalType":"address"},{"name":"guard","type":"address","internalType":"address"}],"outputs":[],"stateMutability":"nonpayable"},{"type":"function","name":"setRedemptionHook","inputs":[{"name":"newStrategy","type":"address","internalType":"contract IRedemptionHook"}],"outputs":[],"stateMutability":"nonpayable"},{"type":"function","name":"setTrustedTarget","inputs":[{"name":"target","type":"address","internalType":"address"},{"name":"isTrusted","type":"bool","internalType":"bool"}],"outputs":[],"stateMutability":"nonpayable"},{"type":"function","name":"symbol","inputs":[],"outputs":[{"name":"","type":"string","internalType":"string"}],"stateMutability":"view"},{"type":"function","name":"totalAssets","inputs":[],"outputs":[{"name":"","type":"uint256","internalType":"uint256"}],"stateMutability":"view"},{"type":"function","name":"totalPendingAssets","inputs":[],"outputs":[{"name":"","type":"uint256","internalType":"uint256"}],"stateMutability":"view"},{"type":"function","name":"totalSupply","inputs":[],"outputs":[{"name":"","type":"uint256","internalType":"uint256"}],"stateMutability":"view"},{"type":"function","name":"transfer","inputs":[{"name":"to","type":"address","internalType":"address"},{"name":"value","type":"uint256","internalType":"uint256"}],"outputs":[{"name":"","type":"bool","internalType":"bool"}],"stateMutability":"nonpayable"},{"type":"function","name":"transferFrom","inputs":[{"name":"from","type":"address","internalType":"address"},{"name":"to","type":"address","internalType":"address"},{"name":"value","type":"uint256","internalType":"uint256"}],"outputs":[{"name":"","type":"bool","internalType":"bool"}],"stateMutability":"nonpayable"},{"type":"function","name":"transferOwnership","inputs":[{"name":"newOwner","type":"address","internalType":"address"}],"outputs":[],"stateMutability":"nonpayable"},{"type":"function","name":"unpause","inputs":[],"outputs":[],"stateMutability":"nonpayable"},{"type":"function","name":"updateBalance","inputs":[{"name":"newAggregatedBalance","type":"uint256","internalType":"uint256"}],"outputs":[],"stateMutability":"nonpayable"},{"type":"function","name":"withdraw","inputs":[{"name":"","type":"uint256","internalType":"uint256"},{"name":"","type":"address","internalType":"address"},{"name":"","type":"address","internalType":"address"}],"outputs":[{"name":"","type":"uint256","internalType":"uint256"}],"stateMutability":"nonpayable"},{"type":"event","name":"Approval","inputs":[{"name":"owner","type":"address","indexed":true,"internalType":"address"},{"name":"spender","type":"address","indexed":true,"internalType":"address"},{"name":"value","type":"uint256","indexed":false,"internalType":"uint256"}],"anonymous":false},{"type":"event","name":"AuthorityUpdated","inputs":[{"name":"user","type":"address","indexed":true,"internalType":"address"},{"name":"newAuthority","type":"address","indexed":true,"internalType":"contract Authority"}],"anonymous":false},{"type":"event","name":"BalanceUpdateHookUpdated","inputs":[{"name":"oldHook","type":"address","indexed":true,"internalType":"address"},{"name":"newHook","type":"address","indexed":true,"internalType":"address"}],"anonymous":false},{"type":"event","name":"Deposit","inputs":[{"name":"sender","type":"address","indexed":true,"internalType":"address"},{"name":"owner","type":"address","indexed":true,"internalType":"address"},{"name":"assets","type":"uint256","indexed":false,"internalType":"uint256"},{"name":"shares","type":"uint256","indexed":false,"internalType":"uint256"}],"anonymous":false},{"type":"event","name":"GuardRemoved","inputs":[{"name":"target","type":"address","indexed":true,"internalType":"address"}],"anonymous":false},{"type":"event","name":"GuardUpdated","inputs":[{"name":"target","type":"address","indexed":true,"internalType":"address"},{"name":"guard","type":"address","indexed":true,"internalType":"address"}],"anonymous":false},{"type":"event","name":"Initialized","inputs":[{"name":"version","type":"uint64","indexed":false,"internalType":"uint64"}],"anonymous":false},{"type":"event","name":"ManageBatchOperation","inputs":[{"name":"index","type":"uint256","indexed":true,"internalType":"uint256"},{"name":"target","type":"address","indexed":true,"internalType":"address"},{"name":"functionSig","type":"bytes4","indexed":false,"internalType":"bytes4"},{"name":"value","type":"uint256","indexed":false,"internalType":"uint256"},{"name":"result","type":"bytes","indexed":false,"internalType":"bytes"}],"anonymous":false},{"type":"event","name":"OwnershipTransferred","inputs":[{"name":"user","type":"address","indexed":true,"internalType":"address"},{"name":"newOwner","type":"address","indexed":true,"internalType":"address"}],"anonymous":false},{"type":"event","name":"PPSUpdated","inputs":[{"name":"timestamp","type":"uint256","indexed":true,"internalType":"uint256"},{"name":"oldPPS","type":"uint256","indexed":false,"internalType":"uint256"},{"name":"newPPS","type":"uint256","indexed":false,"internalType":"uint256"}],"anonymous":false},{"type":"event","name":"Paused","inputs":[{"name":"account","type":"address","indexed":false,"internalType":"address"}],"anonymous":false},{"type":"event","name":"Received","inputs":[{"name":"sender","type":"address","indexed":false,"internalType":"address"},{"name":"amount","type":"uint256","indexed":false,"internalType":"uint256"}],"anonymous":false},{"type":"event","name":"RedeemRequest","inputs":[{"name":"receiver","type":"address","indexed":true,"internalType":"address"},{"name":"owner","type":"address","indexed":true,"internalType":"address"},{"name":"assets","type":"uint256","indexed":false,"internalType":"uint256"},{"name":"shares","type":"uint256","indexed":false,"internalType":"uint256"},{"name":"instant","type":"bool","indexed":false,"internalType":"bool"}],"anonymous":false},{"type":"event","name":"RedemptionHookUpdated","inputs":[{"name":"oldHook","type":"address","indexed":true,"internalType":"address"},{"name":"newHook","type":"address","indexed":true,"internalType":"address"}],"anonymous":false},{"type":"event","name":"RequestCancelled","inputs":[{"name":"receiver","type":"address","indexed":true,"internalType":"address"},{"name":"shares","type":"uint256","indexed":false,"internalType":"uint256"},{"name":"assets","type":"uint256","indexed":false,"internalType":"uint256"}],"anonymous":false},{"type":"event","name":"RequestFulfilled","inputs":[{"name":"receiver","type":"address","indexed":true,"internalType":"address"},{"name":"shares","type":"uint256","indexed":false,"internalType":"uint256"},{"name":"assets","type":"uint256","indexed":false,"internalType":"uint256"}],"anonymous":false},{"type":"event","name":"Transfer","inputs":[{"name":"from","type":"address","indexed":true,"internalType":"address"},{"name":"to","type":"address","indexed":true,"internalType":"address"},{"name":"value","type":"uint256","indexed":false,"internalType":"uint256"}],"anonymous":false},{"type":"event","name":"TrustedTargetUpdated","inputs":[{"name":"target","type":"address","indexed":true,"internalType":"address"},{"name":"isTrusted","type":"bool","indexed":false,"internalType":"bool"}],"anonymous":false},{"type":"event","name":"UnderlyingBalanceUpdated","inputs":[{"name":"timestamp","type":"uint256","indexed":true,"internalType":"uint256"},{"name":"oldBalance","type":"uint256","indexed":false,"internalType":"uint256"},{"name":"newBalance","type":"uint256","indexed":false,"internalType":"uint256"}],"anonymous":false},{"type":"event","name":"Unpaused","inputs":[{"name":"account","type":"address","indexed":false,"internalType":"address"}],"anonymous":false},{"type":"event","name":"VaultPausedDueToThreshold","inputs":[{"name":"timestamp","type":"uint256","indexed":true,"internalType":"uint256"},{"name":"oldPPS","type":"uint256","indexed":false,"internalType":"uint256"},{"name":"newPPS","type":"uint256","indexed":false,"internalType":"uint256"}],"anonymous":false},{"type":"event","name":"Withdraw","inputs":[{"name":"sender","type":"address","indexed":true,"internalType":"address"},{"name":"receiver","type":"address","indexed":true,"internalType":"address"},{"name":"owner","type":"address","indexed":true,"internalType":"address"},{"name":"assets","type":"uint256","indexed":false,"internalType":"uint256"},{"name":"shares","type":"uint256","indexed":false,"internalType":"uint256"}],"anonymous":false},{"type":"error","name":"AddressEmptyCode","inputs":[{"name":"target","type":"address","internalType":"address"}]},{"type":"error","name":"ERC20InsufficientAllowance","inputs":[{"name":"spender","type":"address","internalType":"address"},{"name":"allowance","type":"uint256","internalType":"uint256"},{"name":"needed","type":"uint256","internalType":"uint256"}]},{"type":"error","name":"ERC20InsufficientBalance","inputs":[{"name":"sender","type":"address","internalType":"address"},{"name":"balance","type":"uint256","internalType":"uint256"},{"name":"needed","type":"uint256","internalType":"uint256"}]},{"type":"error","name":"ERC20InvalidApprover","inputs":[{"name":"approver","type":"address","internalType":"address"}]},{"type":"error","name":"ERC20InvalidReceiver","inputs":[{"name":"receiver","type":"address","internalType":"address"}]},{"type":"error","name":"ERC20InvalidSender","inputs":[{"name":"sender","type":"address","internalType":"address"}]},{"type":"error","name":"ERC20InvalidSpender","inputs":[{"name":"spender","type":"address","internalType":"address"}]},{"type":"error","name":"ERC4626ExceededMaxDeposit","inputs":[{"name":"receiver","type":"address","internalType":"address"},{"name":"assets","type":"uint256","internalType":"uint256"},{"name":"max","type":"uint256","internalType":"uint256"}]},{"type":"error","name":"ERC4626ExceededMaxMint","inputs":[{"name":"receiver","type":"address","internalType":"address"},{"name":"shares","type":"uint256","internalType":"uint256"},{"name":"max","type":"uint256","internalType":"uint256"}]},{"type":"error","name":"ERC4626ExceededMaxRedeem","inputs":[{"name":"owner","type":"address","internalType":"address"},{"name":"shares","type":"uint256","internalType":"uint256"},{"name":"max","type":"uint256","internalType":"uint256"}]},{"type":"error","name":"ERC4626ExceededMaxWithdraw","inputs":[{"name":"owner","type":"address","internalType":"address"},{"name":"assets","type":"uint256","internalType":"uint256"},{"name":"max","type":"uint256","internalType":"uint256"}]},{"type":"error","name":"EnforcedPause","inputs":[]},{"type":"error","name":"ExpectedPause","inputs":[]},{"type":"error","name":"FailedCall","inputs":[]},{"type":"error","name":"InsufficientBalance","inputs":[{"name":"balance","type":"uint256","internalType":"uint256"},{"name":"needed","type":"uint256","internalType":"uint256"}]},{"type":"error","name":"InsufficientShares","inputs":[]},{"type":"error","name":"InvalidAssetsAmount","inputs":[]},{"type":"error","name":"InvalidInitialization","inputs":[]},{"type":"error","name":"InvalidRedemptionMode","inputs":[]},{"type":"error","name":"InvalidSharesAmount","inputs":[]},{"type":"error","name":"NotInitializing","inputs":[]},{"type":"error","name":"NotSharesOwner","inputs":[]},{"type":"error","name":"SafeERC20FailedOperation","inputs":[{"name":"token","type":"address","internalType":"address"}]},{"type":"error","name":"SharesAmountZero","inputs":[]},{"type":"error","name":"TransactionValidationFailed","inputs":[{"name":"target","type":"address","internalType":"address"}]},{"type":"error","name":"UpdateAlreadyCompletedInThisBlock","inputs":[]},{"type":"error","name":"UseRequestRedeem","inputs":[]},{"type":"error","name":"ZeroAddress","inputs":[]}],"bytecode":{"object":"0x608060405234602357600e6027565b60146027565b60405161384d90816100bc8239f35b5f80fd5b5f5160206139095f395f51905f525460ff8160401c1660ac576002600160401b03196001600160401b03821601605a5750565b6001600160401b0319166001600160401b039081175f5160206139095f395f51905f52556040519081527fc7f505b2f371ae2175ee4913f4499e1f2633a7b5936321eed1cdaeb6115181d290602090a1565b63f92ee8a960e01b5f5260045ffdfe6080604052600436101561004b575b3615610018575f80fd5b604080513381523460208201527f88a5966d370b9919b20f3e2c13ff65706f196a4e32cc2c12bf57088f885258749190a1005b5f358060e01c80630136cb02146123d457806301e1d114146123ba57806303d4113b1461239d57806306fdde03146122ba57806307a2d13a14611916578063095ea7b3146121bf5780630a28a4771461217057806312d36fd314611cab578063150b7a0214611c3c57806316f020d614611c1657806318160ddd14611bed5780631cd1c8c314611b17578063227773ee14611a7857806323b872dd14611a40578063313ce567146119f457806338d52e0f146119c25780633f4ba83a1461191b578063402d267d146106075780634cdad5061461191657806353dc1dd3146118cb578063560b2318146118525780635c975abb146118245780636442b2ba146116f45780636b462151146116945780636e553f651461160a57806370a08231146115c857806373399570146115a3578063760f5f27146115865780637a9e5e4b146113f95780637d41c86e146113dd578063809dab6a1461132a5780638456cb59146112a95780638da5cb5b146112645780639317c20014610a8657806394bf804d146109fd57806395d89b41146108dd578063a9059cbb146108ac578063ab4f0f011461088f578063ac9dc9e814610872578063b3d7f6b914610854578063b460af9414610813578063b623501614610781578063ba08765214610758578063ba7b37d414610722578063bc197c811461066f578063bf7e214f1461062a578063c63d75b614610607578063c6e6f592146103f2578063ce96cb77146105e4578063d6f5da9b14610582578063d905777e14610557578063d9972b9614610513578063dd62ed3e1461049a578063e8ccdf3f146103f7578063ef8b30f7146103f2578063f23a6e61146103835763f2fde38b146102c9575061000e565b3461037f57602036600319011261037f576001600160a01b03906103076103026001600160e01b03196102fa612492565b931633612af4565b61268e565b16806001600160a01b03197fdd3fd67aef415aded9493b31ad20a02d2991d4bb2760431cc729821271eaea005416177fdd3fd67aef415aded9493b31ad20a02d2991d4bb2760431cc729821271eaea0055337f8be0079c531659141344cd1fd0a4f28419497f9722a3daafe3b4186f6b6457e05f80a3005b5f80fd5b3461037f5760a036600319011261037f5761039c612492565b506103a56124a8565b5060843567ffffffffffffffff811161037f576103c690369060040161254c565b505060206040517ff23a6e61000000000000000000000000000000000000000000000000000000008152f35b612670565b503461037f57602036600319011261037f576001600160a01b03906104296103026001600160e01b03196102fa612492565b168015610472576001600160a01b0319600454826001600160a01b0382167f71e86d7b6261afe37537fed8f42bf15d2ed9344bd8bd3949ea67fdf36a5e55545f80a31617600455005b7fd92e233d000000000000000000000000000000000000000000000000000000005f5260045ffd5b3461037f57604036600319011261037f576104b3612492565b6001600160a01b036104fd6104c66124a8565b926001600160a01b03165f527f52c63247e1f47db19d5ce0460030c497f067ca4cebf71ba98eeadabe20bace0160205260405f2090565b91165f52602052602060405f2054604051908152f35b3461037f57604036600319011261037f5761052c612492565b602435906001600160e01b03198216820361037f5760209161054d91612af4565b6040519015158152f35b3461037f57602036600319011261037f57602061057a610575612492565b612ab6565b604051908152f35b3461037f57602036600319011261037f57602060ff6105d86105a2612492565b6001600160a01b03165f527f28c4b052a520676d101ba86c6252692dd22c3eb0f745f659491e2b37c29b810160205260405f2090565b54166040519015158152f35b3461037f57602036600319011261037f57602061057a610602612492565b612a72565b3461037f57602036600319011261037f57602061057a610625612492565b6127af565b3461037f575f36600319011261037f5760206001600160a01b037fdd3fd67aef415aded9493b31ad20a02d2991d4bb2760431cc729821271eaea015416604051908152f35b3461037f5760a036600319011261037f57610688612492565b506106916124a8565b5060443567ffffffffffffffff811161037f576106b290369060040161251b565b505060643567ffffffffffffffff811161037f576106d490369060040161251b565b505060843567ffffffffffffffff811161037f576106f690369060040161254c565b505060206040517fbc197c81000000000000000000000000000000000000000000000000000000008152f35b503461037f57602036600319011261037f576103026001600160e01b031961074b921633612af4565b610756600435612d28565b005b3461037f57602061057a61076b366125a4565b9161077461334e565b61077c61334e565b6127dc565b503461037f57602036600319011261037f576001600160a01b03906107b36103026001600160e01b03196102fa612492565b16805f527f28c4b052a520676d101ba86c6252692dd22c3eb0f745f659491e2b37c29b810060205260405f206001600160a01b031981541690557f59926e0a78d12238b668b31c8e3f6ece235a59a00ede111d883e255b68c4d0485f80a2005b3461037f57610821366125a4565b50505061082c61334e565b7f797f246a000000000000000000000000000000000000000000000000000000005f5260045ffd5b3461037f57602036600319011261037f57602061057a600435612bff565b3461037f575f36600319011261037f576020600354604051908152f35b3461037f575f36600319011261037f576020600654604051908152f35b3461037f57604036600319011261037f576108d26108c8612492565b6024359033612f90565b602060405160018152f35b3461037f575f36600319011261037f576040515f7f52c63247e1f47db19d5ce0460030c497f067ca4cebf71ba98eeadabe20bace045461091c8161276a565b80845290600181169081156109d9575060011461095c575b61095883610944818503826125de565b6040519182916020835260208301906124be565b0390f35b7f52c63247e1f47db19d5ce0460030c497f067ca4cebf71ba98eeadabe20bace045f9081527f46a2803e59a4de4e7a4c574b1243f25977ac4c77d5a1a4a609b5394cebb4a2aa939250905b8082106109bf57509091508101602001610944610934565b9192600181602092548385880101520191019092916109a7565b60ff191660208086019190915291151560051b840190910191506109449050610934565b3461037f57604036600319011261037f57600435610a196124a8565b90610a2261334e565b610a2b826127af565b808211610a4a5760208361057a84610a4281612bff565b8093336133ec565b916001600160a01b03907f284ff667000000000000000000000000000000000000000000000000000000005f521660045260245260445260645ffd5b3461037f5760c036600319011261037f576004356001600160a01b03811680820361037f57610ab36124a8565b604435906001600160a01b03821680920361037f57606435926001600160a01b03841680940361037f5760843567ffffffffffffffff811161037f57610afd903690600401612652565b9460a43567ffffffffffffffff811161037f57610b1e903690600401612652565b7ff0c57e16840df040f15088dc2f81fe391c3923bec73e23a9662efc9c229c6a00549660ff8860401c16159767ffffffffffffffff81168015908161125c575b6001149081611252575b159081611249575b506112215767ffffffffffffffff1981166001177ff0c57e16840df040f15088dc2f81fe391c3923bec73e23a9662efc9c229c6a0055886111e2575b50610bb561350b565b610bbd61350b565b610bc561350b565b80519067ffffffffffffffff8211611092578190610c037f52c63247e1f47db19d5ce0460030c497f067ca4cebf71ba98eeadabe20bace035461276a565b601f8111611155575b50602090601f83116001146110b1575f926110a6575b50508160011b915f199060031b1c1916177f52c63247e1f47db19d5ce0460030c497f067ca4cebf71ba98eeadabe20bace03555b80519067ffffffffffffffff821161109257610c927f52c63247e1f47db19d5ce0460030c497f067ca4cebf71ba98eeadabe20bace045461276a565b601f8111611010575b50602090601f8311600114610f5f5791806001600160a01b0396959492610d0c945f92610f54575b50508160011b915f199060031b1c1916177f52c63247e1f47db19d5ce0460030c497f067ca4cebf71ba98eeadabe20bace04555b610cff61350b565b610d0761350b565b61369c565b9015610f4c575b7fffffffffffffffffffffff00000000000000000000000000000000000000000074ff00000000000000000000000000000000000000005f5160206138015f395f51905f52549260a01b16911617175f5160206138015f395f51905f5255610d7961350b565b610d8161350b565b16806001600160a01b03197fdd3fd67aef415aded9493b31ad20a02d2991d4bb2760431cc729821271eaea005416177fdd3fd67aef415aded9493b31ad20a02d2991d4bb2760431cc729821271eaea00556001600160a01b03197fdd3fd67aef415aded9493b31ad20a02d2991d4bb2760431cc729821271eaea0154167fdd3fd67aef415aded9493b31ad20a02d2991d4bb2760431cc729821271eaea0155337f8be0079c531659141344cd1fd0a4f28419497f9722a3daafe3b4186f6b6457e05f80a35f337fa3396fd7f6e0a21b50e5089d2da70d5ac0a3bbbd1f617a93f134b763899801988280a3610e7361350b565b610e7b61350b565b60ff195f5160206138215f395f51905f5254165f5160206138215f395f51905f52558015610472578115610472576001600160a01b03195f5416175f556001600160a01b03196004541617600455610ecf57005b68ff0000000000000000197ff0c57e16840df040f15088dc2f81fe391c3923bec73e23a9662efc9c229c6a0054167ff0c57e16840df040f15088dc2f81fe391c3923bec73e23a9662efc9c229c6a00557fc7f505b2f371ae2175ee4913f4499e1f2633a7b5936321eed1cdaeb6115181d2602060405160018152a1005b506012610d13565b015190508a80610cc3565b90601f198316917f52c63247e1f47db19d5ce0460030c497f067ca4cebf71ba98eeadabe20bace045f52815f20925f5b818110610ff85750926001928592610d0c966001600160a01b039a99989610610fe0575b505050811b017f52c63247e1f47db19d5ce0460030c497f067ca4cebf71ba98eeadabe20bace0455610cf7565b01515f1960f88460031b161c191690558a8080610fb3565b92936020600181928786015181550195019301610f8f565b7f52c63247e1f47db19d5ce0460030c497f067ca4cebf71ba98eeadabe20bace045f527f46a2803e59a4de4e7a4c574b1243f25977ac4c77d5a1a4a609b5394cebb4a2aa601f840160051c81019160208510611088575b601f0160051c01905b81811061107d5750610c9b565b5f8155600101611070565b9091508190611067565b634e487b7160e01b5f52604160045260245ffd5b015190508980610c22565b7f52c63247e1f47db19d5ce0460030c497f067ca4cebf71ba98eeadabe20bace035f9081528281209350601f198516905b81811061113d5750908460019594939210611125575b505050811b017f52c63247e1f47db19d5ce0460030c497f067ca4cebf71ba98eeadabe20bace0355610c56565b01515f1960f88460031b161c191690558980806110f8565b929360206001819287860151815501950193016110e2565b7f52c63247e1f47db19d5ce0460030c497f067ca4cebf71ba98eeadabe20bace035f529091507f2ae08a8e29253f69ac5d979a101956ab8f8d9d7ded63fa7a83b16fc47648eab0601f840160051c810191602085106111d8575b90601f859493920160051c01905b8181106111ca5750610c0c565b5f81558493506001016111bd565b90915081906111af565b68ffffffffffffffffff191668010000000000000001177ff0c57e16840df040f15088dc2f81fe391c3923bec73e23a9662efc9c229c6a005588610bac565b7ff92ee8a9000000000000000000000000000000000000000000000000000000005f5260045ffd5b9050158a610b70565b303b159150610b68565b8a9150610b5e565b3461037f575f36600319011261037f5760206001600160a01b037fdd3fd67aef415aded9493b31ad20a02d2991d4bb2760431cc729821271eaea005416604051908152f35b503461037f575f36600319011261037f576103026001600160e01b03196112d1921633612af4565b6112d961334e565b600160ff195f5160206138215f395f51905f525416175f5160206138215f395f51905f52557f62e78cea01bee320cd4e420270b5ea74000d11b0c9f74754ebdbfc544b05a2586020604051338152a1005b3461037f575f36600319011261037f57602460206001600160a01b035f5160206138015f395f51905f525416604051928380926370a0823160e01b82523060048301525afa9081156113d2575f916113a0575b5060065490818111156113965760209161057a916127a2565b505060205f61057a565b90506020813d6020116113ca575b816113bb602093836125de565b8101031261037f57518161137d565b3d91506113ae565b6040513d5f823e3d90fd5b3461037f57602061057a6113f0366125a4565b9161077c61334e565b503461037f57602036600319011261037f57600435906001600160a01b03821680920361037f576001600160a01b037fdd3fd67aef415aded9493b31ad20a02d2991d4bb2760431cc729821271eaea00541633149081156114d2575b501561037f57806001600160a01b03197fdd3fd67aef415aded9493b31ad20a02d2991d4bb2760431cc729821271eaea015416177fdd3fd67aef415aded9493b31ad20a02d2991d4bb2760431cc729821271eaea0155337fa3396fd7f6e0a21b50e5089d2da70d5ac0a3bbbd1f617a93f134b763899801985f80a3005b7fdd3fd67aef415aded9493b31ad20a02d2991d4bb2760431cc729821271eaea015460405163b700961360e01b81523360048201523060248201526001600160e01b0319929092166044830152909150602090829060649082906001600160a01b03165afa9081156113d2575f9161154c575b505f611455565b90506020813d60201161157e575b81611567602093836125de565b8101031261037f57611578906127cf565b5f611545565b3d915061155a565b3461037f575f36600319011261037f576020600254604051908152f35b3461037f575f36600319011261037f5760206001600160a01b035f5416604051908152f35b3461037f57602036600319011261037f57602061057a6115e6612492565b6001600160a01b03165f525f5160206137c15f395f51905f5260205260405f205490565b3461037f57604036600319011261037f576004356116266124a8565b9061162f61334e565b611638826127af565b808211611658575061057a60209261164f83612c72565b928391336133ec565b916001600160a01b03907f79012fb2000000000000000000000000000000000000000000000000000000005f521660045260245260445260645ffd5b3461037f57602036600319011261037f576001600160a01b036116b5612492565b165f527f28c4b052a520676d101ba86c6252692dd22c3eb0f745f659491e2b37c29b810060205260206001600160a01b0360405f205416604051908152f35b503461037f576001600160e01b03199061030261171f6117133661257a565b93919590941633612af4565b6001600160a01b03831692835f52600560205260405f20938454948515158061181a575b156117f2576001810190815496871515806117e8575b156117c05761075697611778926117718989946127a2565b90556127a2565b9055611786836006546127a2565b6006557f1165aa98d42fbaef9bacc273d7b5cca8edc94909519f8f949ec33562963c87e460408051868152856020820152a23090306131ca565b7f3b832713000000000000000000000000000000000000000000000000000000005f5260045ffd5b5087861115611759565b7f01e3468e000000000000000000000000000000000000000000000000000000005f5260045ffd5b5085851115611743565b3461037f575f36600319011261037f57602060ff5f5160206138215f395f51905f5254166040519015158152f35b503461037f57602036600319011261037f576001600160a01b03906118846103026001600160e01b03196102fa612492565b168015610472576001600160a01b03195f54826001600160a01b0382167fe02404e8ee2b8389e3dd58c236f6b16e91da18f91ef4a5a763a94517394ce96b5f80a316175f55005b3461037f57602036600319011261037f5760406001600160a01b036118ee612492565b16805f5260056020526001825f200154905f526005602052815f205482519182526020820152f35b6124fd565b503461037f575f36600319011261037f576103026001600160e01b0319611943921633612af4565b5f5160206138215f395f51905f525460ff81161561199a5760ff19165f5160206138215f395f51905f52557f5db9ee0a495bf2e6ff9c91a7834c1ba4fdd244a5e8aa4e537bd38aeae4b073aa6020604051338152a1005b7f8dfc202b000000000000000000000000000000000000000000000000000000005f5260045ffd5b3461037f575f36600319011261037f5760206001600160a01b035f5160206138015f395f51905f525416604051908152f35b3461037f575f36600319011261037f5760ff5f5160206138015f395f51905f525460a01c1660ff8111611a2c57602090604051908152f35b634e487b7160e01b5f52601160045260245ffd5b3461037f57606036600319011261037f576108d2611a5c612492565b611a646124a8565b60443591611a738333836130ae565b612f90565b503461037f57604036600319011261037f576001600160a01b0380611a9b612492565b92611ab36103026001600160e01b03196102fa6124a8565b169116805f527f28c4b052a520676d101ba86c6252692dd22c3eb0f745f659491e2b37c29b810060205260405f20826001600160a01b03198254161790557f3cda29cdb79816ebd803e7c42da9b0bd76d5e7874a94abb4fae13ff444e353fb5f80a3005b503461037f57610302906001600160e01b0319611b42611b363661257a565b95919390941633612af4565b6001600160a01b038116805f52600560205260405f209384549081151580611be3575b156117f257600186019081549182151580611bd9575b156117c057611bb6826040946107569a6117718b7f55ec94ca0f01023d07c5752a75f44048cfbdb0e4cfedf5e7eacecf21fcde3587996127a2565b9055611bc4816006546127a2565b6006558151908682526020820152a230612f90565b5082821115611b7b565b5081851115611b65565b3461037f575f36600319011261037f5760205f5160206137e15f395f51905f5254604051908152f35b3461037f575f36600319011261037f5760206001600160a01b0360045416604051908152f35b3461037f57608036600319011261037f57611c55612492565b50611c5e6124a8565b5060643567ffffffffffffffff811161037f57611c7f90369060040161254c565b505060206040517f150b7a02000000000000000000000000000000000000000000000000000000008152f35b503461037f57602036600319011261037f5760043567ffffffffffffffff811161037f57602491611ce96001600160e01b031992369060040161251b565b9290911691611cfb6103028433612af4565b60206001600160a01b035f5160206138015f395f51905f525416604051958680926370a0823160e01b82523060048301525afa9384156113d2575f9461213c575b50611d4a6103028433612af4565b80156120f8575f5b818110611e245784602460206001600160a01b035f5160206138015f395f51905f525416604051928380926370a0823160e01b82523060048301525afa9081156113d2575f91611df2575b50818103611da757005b61075691808211918215611de35790611dbf916127a2565b905b15611dd757611dd2906001546127a2565b612d28565b611dd2906001546126d9565b611dec916127a2565b90611dc1565b90506020813d602011611e1c575b81611e0d602093836125de565b8101031261037f575182611d9d565b3d9150611e00565b611e37611e32828486612cab565b612ce1565b611e4f611e45838587612cab565b6020810190612cf5565b906040611e5d858789612cab565b013591611e6d6103028933612af4565b60ff611ea9856001600160a01b03165f527f28c4b052a520676d101ba86c6252692dd22c3eb0f745f659491e2b37c29b810160205260405f2090565b541615611fd6575b90611ebd91369161261c565b90804710611fa757915f8083600196956020611ee89651920190855af1611ee2613600565b91613734565b817f2f13a569f6d2fba5618730b89cb049a8d430f6bd0aa6eea26e948d8d663d7c766001600160e01b031987611f22611e32858a84612cab565b8489611f32611e45838387612cab565b9490358681169560048110611f89575b5050611f5d6001600160a01b0393611f809593604093612cab565b0135604051958695168552602085015260606040850152169560608301906124be565b0390a301611d52565b60040360031b87901b1686169450611f5d6001600160a01b03611f42565b477fcf479181000000000000000000000000000000000000000000000000000000005f5260045260245260445ffd5b6001600160a01b038416805f527f28c4b052a520676d101ba86c6252692dd22c3eb0f745f659491e2b37c29b81006020526001600160a01b0360405f20541680156120e557602060405180927fdb86c42c00000000000000000000000000000000000000000000000000000000825233600483015260606024830152856064830152858760848401375f6084878401015287604483015281608481601f19601f8a011681010301915afa9081156113d2575f916120ac575b501561209a5750611eb1565b63e2b9c0ef60e01b5f5260045260245ffd5b90506020813d82116120dd575b816120c6602093836125de565b8101031261037f576120d7906127cf565b5f61208e565b3d91506120b9565b5063e2b9c0ef60e01b5f5260045260245ffd5b606460405162461bcd60e51b815260206004820152601160248201527f4e6f2063616c6c732070726f76696465640000000000000000000000000000006044820152fd5b9093506020813d602011612168575b81612158602093836125de565b8101031261037f5751925f611d3c565b3d915061214b565b3461037f57602036600319011261037f575f5160206137e15f395f51905f525460018101809111611a2c576121a36126e6565b60018101809111611a2c57600161057a9160209360043561338e565b3461037f57604036600319011261037f576121d8612492565b60243590331561228e576001600160a01b031690811561226257335f9081527f52c63247e1f47db19d5ce0460030c497f067ca4cebf71ba98eeadabe20bace0160205260409020825f526020528060405f20556040519081527f8c5be1e5ebec7d5bd14f71427d1e84f3dd0314c0f7b2291e5b200ac8c7c3b92560203392a3602060405160018152f35b7f94280d62000000000000000000000000000000000000000000000000000000005f525f60045260245ffd5b7fe602df05000000000000000000000000000000000000000000000000000000005f525f60045260245ffd5b3461037f575f36600319011261037f576040515f7f52c63247e1f47db19d5ce0460030c497f067ca4cebf71ba98eeadabe20bace03546122f98161276a565b80845290600181169081156109d957506001146123205761095883610944818503826125de565b7f52c63247e1f47db19d5ce0460030c497f067ca4cebf71ba98eeadabe20bace035f9081527f2ae08a8e29253f69ac5d979a101956ab8f8d9d7ded63fa7a83b16fc47648eab0939250905b80821061238357509091508101602001610944610934565b91926001816020925483858801015201910190929161236b565b3461037f575f36600319011261037f576020600154604051908152f35b3461037f575f36600319011261037f57602061057a6126e6565b503461037f57604036600319011261037f576123ee612492565b906024359182151580930361037f576001600160a01b036020916124406103026001600160e01b03197fc10734ade2f9c2928d1f3598b9127932f89d29c8a894fd383cb0c6016e1b320a961633612af4565b61247a816001600160a01b03165f527f28c4b052a520676d101ba86c6252692dd22c3eb0f745f659491e2b37c29b810160205260405f2090565b60ff1981541660ff87161790556040519485521692a2005b600435906001600160a01b038216820361037f57565b602435906001600160a01b038216820361037f57565b91908251928382525f5b8481106124e8575050825f602080949584010152601f8019910116010190565b806020809284010151828286010152016124c8565b3461037f57602036600319011261037f57602061057a600435612c39565b9181601f8401121561037f5782359167ffffffffffffffff831161037f576020808501948460051b01011161037f57565b9181601f8401121561037f5782359167ffffffffffffffff831161037f576020838186019501011161037f57565b606090600319011261037f576004356001600160a01b038116810361037f57906024359060443590565b606090600319011261037f57600435906024356001600160a01b038116810361037f57906044356001600160a01b038116810361037f5790565b90601f8019910116810190811067ffffffffffffffff82111761109257604052565b67ffffffffffffffff811161109257601f01601f191660200190565b92919261262882612600565b9161263660405193846125de565b82948184528183011161037f578281602093845f960137010152565b9080601f8301121561037f5781602061266d9335910161261c565b90565b3461037f57602036600319011261037f57602061057a600435612c72565b1561269557565b606460405162461bcd60e51b815260206004820152600c60248201527f554e415554484f52495a454400000000000000000000000000000000000000006044820152fd5b91908201809211611a2c57565b602460206001600160a01b035f5160206138015f395f51905f525416604051928380926370a0823160e01b82523060048301525afa80156113d2575f90612736575b61266d9150600154906126d9565b506020813d602011612762575b81612750602093836125de565b8101031261037f5761266d9051612728565b3d9150612743565b90600182811c92168015612798575b602083101461278457565b634e487b7160e01b5f52602260045260245ffd5b91607f1691612779565b91908203918211611a2c57565b5060ff5f5160206138215f395f51905f5254166127cb575f1990565b5f90565b5190811515820361037f57565b908115612a4a576001600160a01b03831691338303612a2257825f525f5160206137c15f395f51905f526020528060405f2054106129fa5761281d81612c39565b936001600160a01b036004541692604051957f51eda43e000000000000000000000000000000000000000000000000000000008752306004880152836024880152604487015284606487015260408660a4815f6001600160a01b038616988960848401525af19586156113d2575f905f976129b7575b5060028110156129a357806128eb5750916128d48187847f9a626d8a4952950c7f8b9f5c92a2804e44e147ce4dd0add2f5928f1faea72590966060966131ca565b60405190868252602082015260016040820152a390565b949593949293919260011415905061297b578261292d7f9a626d8a4952950c7f8b9f5c92a2804e44e147ce4dd0add2f5928f1faea72590946060943090612f90565b612939826006546126d9565b600655845f526005602052600160405f206129558382546126d9565b8155016129638382546126d9565b905560405191825260208201525f6040820152a35f90565b7f03e28a1b000000000000000000000000000000000000000000000000000000005f5260045ffd5b634e487b7160e01b5f52602160045260245ffd5b9650506040863d6040116129f2575b816129d3604093836125de565b8101031261037f57855195600287101561037f5760200151955f612893565b3d91506129c6565b7f39996567000000000000000000000000000000000000000000000000000000005f5260045ffd5b7fe7fe5cf4000000000000000000000000000000000000000000000000000000005f5260045ffd5b7f840c364a000000000000000000000000000000000000000000000000000000005f5260045ffd5b60ff5f5160206138215f395f51905f525416612ab1576001600160a01b03165f525f5160206137c15f395f51905f5260205261266d60405f2054612c39565b505f90565b60ff5f5160206138215f395f51905f525416612ab15761266d906001600160a01b03165f525f5160206137c15f395f51905f5260205260405f205490565b6001600160a01b037fdd3fd67aef415aded9493b31ad20a02d2991d4bb2760431cc729821271eaea015416918215159283612b6a575b50508115612b36575090565b90506001600160a01b03807fdd3fd67aef415aded9493b31ad20a02d2991d4bb2760431cc729821271eaea00541691161490565b60405163b700961360e01b81526001600160a01b03841660048201523060248201526001600160e01b031992909216604483015291925090602090829060649082905afa9081156113d2575f91612bc5575b50905f80612b2a565b90506020813d602011612bf7575b81612be0602093836125de565b8101031261037f57612bf1906127cf565b5f612bbc565b3d9150612bd3565b612c076126e6565b9060018201809211611a2c575f5160206137e15f395f51905f525460018101809111611a2c5761266d9260019261338e565b612c416126e6565b9060018201809211611a2c575f5160206137e15f395f51905f525460018101809111611a2c5761266d925f9261338e565b5f5160206137e15f395f51905f52549060018201809211611a2c57612c956126e6565b60018101809111611a2c5761266d925f9261338e565b9190811015612ccd5760051b81013590605e198136030182121561037f570190565b634e487b7160e01b5f52603260045260245ffd5b356001600160a01b038116810361037f5790565b903590601e198136030182121561037f570180359067ffffffffffffffff821161037f5760200191813603831361037f57565b600254431115612f68576001600160a01b035f54169060035460245f5160206137e15f395f51905f525460206001600160a01b035f5160206138015f395f51905f525416604051938480926370a0823160e01b82523060048301525afa9182156113d2575f92612f33575b50906084604092835196879384927f1faab223000000000000000000000000000000000000000000000000000000008452876004850152602484015260448301528660648301525afa9283156113d2575f905f94612ef2575b5015612e6557508060015581600355436002556040519080825260208201527f9b01f304f89acbc3f9ca1425e6ce22d5f57df58c42b9adc0dac4c4a71236f98e60404292a26040519080825260208201527f3f22d682a7202099eeac8a14fda6f2bbcadb8b7e2a83b665b69776e8d606151660404292a2565b919050612e7061334e565b600160ff195f5160206138215f395f51905f525416175f5160206138215f395f51905f52557f62e78cea01bee320cd4e420270b5ea74000d11b0c9f74754ebdbfc544b05a2586020604051338152a160405191825260208201527f624f9968f9037cc40b91b22280a8f1a3f1fd95e6d2f00e1d7ae4aa10ff2e59c460404292a2565b9350506040833d604011612f2b575b81612f0e604093836125de565b8101031261037f576020612f21846127cf565b930151925f612dec565b3d9150612f01565b91506020823d602011612f60575b81612f4e602093836125de565b8101031261037f579051906084612d93565b3d9150612f41565b7f95628bbc000000000000000000000000000000000000000000000000000000005f5260045ffd5b6001600160a01b0316908115613082576001600160a01b031691821561305657612fb861334e565b815f525f5160206137c15f395f51905f5260205260405f205481811061303d57817fddf252ad1be2c89b69c2b068fc378daa952ba7f163c4a11628f55a4df523b3ef92602092855f525f5160206137c15f395f51905f5284520360405f2055845f525f5160206137c15f395f51905f52825260405f20818154019055604051908152a3565b8263391434e360e21b5f5260045260245260445260645ffd5b7fec442f05000000000000000000000000000000000000000000000000000000005f525f60045260245ffd5b7f96c6fd1e000000000000000000000000000000000000000000000000000000005f525f60045260245ffd5b91906130ea836001600160a01b03165f527f52c63247e1f47db19d5ce0460030c497f067ca4cebf71ba98eeadabe20bace0160205260405f2090565b6001600160a01b0382165f5260205260405f2054925f19841061310e575b50505050565b82841061318d576001600160a01b0381161561228e576001600160a01b03821615612262576131756001600160a01b03916001600160a01b03165f527f52c63247e1f47db19d5ce0460030c497f067ca4cebf71ba98eeadabe20bace0160205260405f2090565b91165f5260205260405f20910390555f808080613108565b506001600160a01b0383917ffb8f41b2000000000000000000000000000000000000000000000000000000005f521660045260245260445260645ffd5b91936001600160a01b03851694816001600160a01b0385169487860361333d575b5050508415613082576131fc61334e565b845f525f5160206137c15f395f51905f5260205260405f2054818110613324577ffbde797d201c681b91056529119e0b02407c7bb96a4a2c75c01fc9667232c8db92826040936001600160a01b0393895f525f5160206137c15f395f51905f5260205203845f2055805f5160206137e15f395f51905f5254035f5160206137e15f395f51905f52555f887fddf252ad1be2c89b69c2b068fc378daa952ba7f163c4a11628f55a4df523b3ef60208751858152a35f5160206138015f395f51905f525484517fa9059cbb0000000000000000000000000000000000000000000000000000000060208201526001600160a01b038416602482015260448082018a905281526133159185166133106064836125de565b61362f565b835196875260208701521693a4565b8563391434e360e21b5f5260045260245260445260645ffd5b613346926130ae565b5f81816131eb565b60ff5f5160206138215f395f51905f52541661336657565b7fd93c0665000000000000000000000000000000000000000000000000000000005f5260045ffd5b929161339b818386613562565b9260048110156129a35760018091161491826133c1575b505061266d92501515906126d9565b90809250156133d85761266d930915155f806133b2565b634e487b7160e01b5f52601260045260245ffd5b91906001600160a01b039061345a825f5160206138015f395f51905f5254169483604051917f23b872dd0000000000000000000000000000000000000000000000000000000060208401521695866024830152306044830152856064830152606482526133106084836125de565b16928315613056577fdcbc1c05240f31ff3ad067ef1ee35ce4997762752e3a095284754544f4c709d79160409161348f61334e565b6134a7815f5160206137e15f395f51905f52546126d9565b5f5160206137e15f395f51905f5255855f525f5160206137c15f395f51905f52602052825f20818154019055855f7fddf252ad1be2c89b69c2b068fc378daa952ba7f163c4a11628f55a4df523b3ef60208651858152a382519182526020820152a3565b60ff7ff0c57e16840df040f15088dc2f81fe391c3923bec73e23a9662efc9c229c6a005460401c161561353a57565b7fd7e6bcf8000000000000000000000000000000000000000000000000000000005f5260045ffd5b91818302915f19818509938380861095039480860395146135f257848311156135da5790829109815f0382168092046002816003021880820260020302808202600203028082026002030280820260020302808202600203028091026002030293600183805f03040190848311900302920304170290565b82634e487b715f52156003026011186020526024601cfd5b5050809250156133d8570490565b3d1561362a573d9061361182612600565b9161361f60405193846125de565b82523d5f602084013e565b606090565b905f602091828151910182855af1156113d2575f513d61369357506001600160a01b0381163b155b61365e5750565b6001600160a01b03907f5274afe7000000000000000000000000000000000000000000000000000000005f521660045260245ffd5b60011415613657565b5f80916040516001600160a01b0360208201917f313ce567000000000000000000000000000000000000000000000000000000008352600481526136e16024826125de565b5192165afa6136ee613600565b9080613728575b613701575b505f905f90565b6020815191818082019384920101031261037f575160ff81116136fa579060ff6001921690565b506020815110156136f5565b90613771575080511561374957805190602001fd5b7fd6bda275000000000000000000000000000000000000000000000000000000005f5260045ffd5b815115806137b7575b613782575090565b6001600160a01b03907f9996b315000000000000000000000000000000000000000000000000000000005f521660045260245ffd5b50803b1561377a56fe52c63247e1f47db19d5ce0460030c497f067ca4cebf71ba98eeadabe20bace0052c63247e1f47db19d5ce0460030c497f067ca4cebf71ba98eeadabe20bace020773e532dfede91f04b12a73d3d2acd361424f41f76b4fb79f090161e36b4e00cd5ed15c6e187e77e9aee88184c21f4f2182ab5827cb3b7e07fbedcd63f03300a164736f6c634300081c000af0c57e16840df040f15088dc2f81fe391c3923bec73e23a9662efc9c229c6a00","linkReferences":{}},"methodIdentifiers":{"aggregatedUnderlyingBalances()":"03d4113b","allowance(address,address)":"dd62ed3e","approve(address,uint256)":"095ea7b3","asset()":"38d52e0f","authority()":"bf7e214f","balanceOf(address)":"70a08231","balanceUpdateHook()":"73399570","cancelRedeem(address,uint256,uint256)":"1cd1c8c3","convertToAssets(uint256)":"07a2d13a","convertToShares(uint256)":"c6e6f592","decimals()":"313ce567","deposit(uint256,address)":"6e553f65","fulfillRedeem(address,uint256,uint256)":"6442b2ba","getAvailableBalance()":"809dab6a","guards(address)":"6b462151","initialize(address,address,address,address,string,string)":"9317c200","isAuthorized(address,bytes4)":"d9972b96","isTrustedTarget(address)":"d6f5da9b","lastBlockUpdated()":"760f5f27","lastPricePerShare()":"ac9dc9e8","manageBatch((address,bytes,uint256)[])":"12d36fd3","maxDeposit(address)":"402d267d","maxMint(address)":"c63d75b6","maxRedeem(address)":"d905777e","maxWithdraw(address)":"ce96cb77","mint(uint256,address)":"94bf804d","name()":"06fdde03","onERC1155BatchReceived(address,address,uint256[],uint256[],bytes)":"bc197c81","onERC1155Received(address,address,uint256,uint256,bytes)":"f23a6e61","onERC721Received(address,address,uint256,bytes)":"150b7a02","owner()":"8da5cb5b","pause()":"8456cb59","paused()":"5c975abb","pendingRedeemRequest(address)":"53dc1dd3","previewDeposit(uint256)":"ef8b30f7","previewMint(uint256)":"b3d7f6b9","previewRedeem(uint256)":"4cdad506","previewWithdraw(uint256)":"0a28a477","redeem(uint256,address,address)":"ba087652","redemptionHook()":"16f020d6","removeGuard(address)":"b6235016","requestRedeem(uint256,address,address)":"7d41c86e","setAuthority(address)":"7a9e5e4b","setBalanceUpdateHook(address)":"560b2318","setGuard(address,address)":"227773ee","setRedemptionHook(address)":"e8ccdf3f","setTrustedTarget(address,bool)":"0136cb02","symbol()":"95d89b41","totalAssets()":"01e1d114","totalPendingAssets()":"ab4f0f01","totalSupply()":"18160ddd","transfer(address,uint256)":"a9059cbb","transferFrom(address,address,uint256)":"23b872dd","transferOwnership(address)":"f2fde38b","unpause()":"3f4ba83a","updateBalance(uint256)":"ba7b37d4","withdraw(uint256,address,address)":"b460af94"},"storageLayout":{"storage":[{"astId":50066,"contract":"src/ElitraVault.sol:ElitraVault","label":"balanceUpdateHook","offset":0,"slot":"0","type":"t_contract(IBalanceUpdateHook)53376"},{"astId":50068,"contract":"src/ElitraVault.sol:ElitraVault","label":"aggregatedUnderlyingBalances","offset":0,"slot":"1","type":"t_uint256"},{"astId":50070,"contract":"src/ElitraVault.sol:ElitraVault","label":"lastBlockUpdated","offset":0,"slot":"2","type":"t_uint256"},{"astId":50072,"contract":"src/ElitraVault.sol:ElitraVault","label":"lastPricePerShare","offset":0,"slot":"3","type":"t_uint256"},{"astId":50075,"contract":"src/ElitraVault.sol:ElitraVault","label":"redemptionHook","offset":0,"slot":"4","type":"t_contract(IRedemptionHook)53827"},{"astId":50080,"contract":"src/ElitraVault.sol:ElitraVault","label":"_pendingRedeem","offset":0,"slot":"5","type":"t_mapping(t_address,t_struct(PendingRedeem)53633_storage)"},{"astId":50082,"contract":"src/ElitraVault.sol:ElitraVault","label":"totalPendingAssets","offset":0,"slot":"6","type":"t_uint256"}],"types":{"t_address":{"encoding":"inplace","label":"address","numberOfBytes":"20"},"t_contract(IBalanceUpdateHook)53376":{"encoding":"inplace","label":"contract IBalanceUpdateHook","numberOfBytes":"20"},"t_contract(IRedemptionHook)53827":{"encoding":"inplace","label":"contract IRedemptionHook","numberOfBytes":"20"},"t_mapping(t_address,t_struct(PendingRedeem)53633_storage)":{"encoding":"mapping","key":"t_address","label":"mapping(address => struct IElitraVault.PendingRedeem)","numberOfBytes":"32","value":"t_struct(PendingRedeem)53633_storage"},"t_struct(PendingRedeem)53633_storage":{"encoding":"inplace","label":"struct IElitraVault.PendingRedeem","numberOfBytes":"64","members":[{"astId":53630,"contract":"src/ElitraVault.sol:ElitraVault","label":"shares","offset":0,"slot":"0","type":"t_uint256"},{"astId":53632,"contract":"src/ElitraVault.sol:ElitraVault","label":"assets","offset":0,"slot":"1","type":"t_uint256"}]},"t_uint256":{"encoding":"inplace","label":"uint256","numberOfBytes":"32"}}},"id":88}