{"abi":[{"type":"constructor","inputs":[],"stateMutability":"nonpayable"},{"type":"receive","stateMutability":"payable"},{"type":"function","name":"aggregatedUnderlyingBalances","inputs":[],"outputs":[{"name":"","type":"uint256","internalType":"uint256"}],"stateMutability":"view"},{"type":"function","name":"allowance","inputs":[{"name":"owner","type":"address","internalType":"address"},{"name":"spender","type":"address","internalType":"address"}],"outputs":[{"name":"","type":"uint256","internalType":"uint256"}],"stateMutability":"view"},{"type":"function","name":"approve","inputs":[{"name":"spender","type":"address","internalType":"address"},{"name":"value","type":"uint256","internalType":"uint256"}],"outputs":[{"name":"","type":"bool","internalType":"bool"}],"stateMutability":"nonpayable"},{"type":"function","name":"asset","inputs":[],"outputs":[{"name":"","type":"address","internalType":"address"}],"stateMutability":"view"},{"type":"function","name":"authority","inputs":[],"outputs":[{"name":"","type":"address","internalType":"contract Authority"}],"stateMutability":"view"},{"type":"function","name":"balanceOf","inputs":[{"name":"account","type":"address","internalType":"address"}],"outputs":[{"name":"","type":"uint256","internalType":"uint256"}],"stateMutability":"view"},{"type":"function","name":"balanceUpdateHook","inputs":[],"outputs":[{"name":"","type":"address","internalType":"contract IBalanceUpdateHook"}],"stateMutability":"view"},{"type":"function","name":"cancelRedeem","inputs":[{"name":"receiver","type":"address","internalType":"address"},{"name":"shares","type":"uint256","internalType":"uint256"},{"name":"assets","type":"uint256","internalType":"uint256"}],"outputs":[],"stateMutability":"nonpayable"},{"type":"function","name":"convertToAssets","inputs":[{"name":"shares","type":"uint256","internalType":"uint256"}],"outputs":[{"name":"","type":"uint256","internalType":"uint256"}],"stateMutability":"view"},{"type":"function","name":"convertToShares","inputs":[{"name":"assets","type":"uint256","internalType":"uint256"}],"outputs":[{"name":"","type":"uint256","internalType":"uint256"}],"stateMutability":"view"},{"type":"function","name":"decimals","inputs":[],"outputs":[{"name":"","type":"uint8","internalType":"uint8"}],"stateMutability":"view"},{"type":"function","name":"deposit","inputs":[{"name":"assets","type":"uint256","internalType":"uint256"},{"name":"receiver","type":"address","internalType":"address"}],"outputs":[{"name":"","type":"uint256","internalType":"uint256"}],"stateMutability":"nonpayable"},{"type":"function","name":"fulfillRedeem","inputs":[{"name":"receiver","type":"address","internalType":"address"},{"name":"shares","type":"uint256","internalType":"uint256"},{"name":"assets","type":"uint256","internalType":"uint256"}],"outputs":[],"stateMutability":"nonpayable"},{"type":"function","name":"getAvailableBalance","inputs":[],"outputs":[{"name":"","type":"uint256","internalType":"uint256"}],"stateMutability":"view"},{"type":"function","name":"guards","inputs":[{"name":"target","type":"address","internalType":"address"}],"outputs":[{"name":"guard","type":"address","internalType":"contract ITransactionGuard"}],"stateMutability":"view"},{"type":"function","name":"initialize","inputs":[{"name":"_asset","type":"address","internalType":"contract IERC20"},{"name":"_owner","type":"address","internalType":"address"},{"name":"_balanceUpdateHook","type":"address","internalType":"contract IBalanceUpdateHook"},{"name":"_redemptionHook","type":"address","internalType":"contract IRedemptionHook"},{"name":"_name","type":"string","internalType":"string"},{"name":"_symbol","type":"string","internalType":"string"}],"outputs":[],"stateMutability":"nonpayable"},{"type":"function","name":"isAuthorized","inputs":[{"name":"user","type":"address","internalType":"address"},{"name":"functionSig","type":"bytes4","internalType":"bytes4"}],"outputs":[{"name":"","type":"bool","internalType":"bool"}],"stateMutability":"view"},{"type":"function","name":"lastBlockUpdated","inputs":[],"outputs":[{"name":"","type":"uint256","internalType":"uint256"}],"stateMutability":"view"},{"type":"function","name":"lastPricePerShare","inputs":[],"outputs":[{"name":"","type":"uint256","internalType":"uint256"}],"stateMutability":"view"},{"type":"function","name":"manage","inputs":[{"name":"target","type":"address","internalType":"address"},{"name":"data","type":"bytes","internalType":"bytes"},{"name":"value","type":"uint256","internalType":"uint256"}],"outputs":[{"name":"result","type":"bytes","internalType":"bytes"}],"stateMutability":"nonpayable"},{"type":"function","name":"manageBatch","inputs":[{"name":"calls","type":"tuple[]","internalType":"struct Call[]","components":[{"name":"target","type":"address","internalType":"address"},{"name":"data","type":"bytes","internalType":"bytes"},{"name":"value","type":"uint256","internalType":"uint256"}]}],"outputs":[],"stateMutability":"nonpayable"},{"type":"function","name":"maxDeposit","inputs":[{"name":"receiver","type":"address","internalType":"address"}],"outputs":[{"name":"","type":"uint256","internalType":"uint256"}],"stateMutability":"view"},{"type":"function","name":"maxMint","inputs":[{"name":"receiver","type":"address","internalType":"address"}],"outputs":[{"name":"","type":"uint256","internalType":"uint256"}],"stateMutability":"view"},{"type":"function","name":"maxRedeem","inputs":[{"name":"owner","type":"address","internalType":"address"}],"outputs":[{"name":"","type":"uint256","internalType":"uint256"}],"stateMutability":"view"},{"type":"function","name":"maxWithdraw","inputs":[{"name":"owner","type":"address","internalType":"address"}],"outputs":[{"name":"","type":"uint256","internalType":"uint256"}],"stateMutability":"view"},{"type":"function","name":"mint","inputs":[{"name":"shares","type":"uint256","internalType":"uint256"},{"name":"receiver","type":"address","internalType":"address"}],"outputs":[{"name":"","type":"uint256","internalType":"uint256"}],"stateMutability":"nonpayable"},{"type":"function","name":"name","inputs":[],"outputs":[{"name":"","type":"string","internalType":"string"}],"stateMutability":"view"},{"type":"function","name":"onERC1155BatchReceived","inputs":[{"name":"","type":"address","internalType":"address"},{"name":"","type":"address","internalType":"address"},{"name":"","type":"uint256[]","internalType":"uint256[]"},{"name":"","type":"uint256[]","internalType":"uint256[]"},{"name":"","type":"bytes","internalType":"bytes"}],"outputs":[{"name":"","type":"bytes4","internalType":"bytes4"}],"stateMutability":"pure"},{"type":"function","name":"onERC1155Received","inputs":[{"name":"","type":"address","internalType":"address"},{"name":"","type":"address","internalType":"address"},{"name":"","type":"uint256","internalType":"uint256"},{"name":"","type":"uint256","internalType":"uint256"},{"name":"","type":"bytes","internalType":"bytes"}],"outputs":[{"name":"","type":"bytes4","internalType":"bytes4"}],"stateMutability":"pure"},{"type":"function","name":"onERC721Received","inputs":[{"name":"","type":"address","internalType":"address"},{"name":"","type":"address","internalType":"address"},{"name":"","type":"uint256","internalType":"uint256"},{"name":"","type":"bytes","internalType":"bytes"}],"outputs":[{"name":"","type":"bytes4","internalType":"bytes4"}],"stateMutability":"pure"},{"type":"function","name":"owner","inputs":[],"outputs":[{"name":"","type":"address","internalType":"address"}],"stateMutability":"view"},{"type":"function","name":"pause","inputs":[],"outputs":[],"stateMutability":"nonpayable"},{"type":"function","name":"paused","inputs":[],"outputs":[{"name":"","type":"bool","internalType":"bool"}],"stateMutability":"view"},{"type":"function","name":"pendingRedeemRequest","inputs":[{"name":"user","type":"address","internalType":"address"}],"outputs":[{"name":"assets","type":"uint256","internalType":"uint256"},{"name":"pendingShares","type":"uint256","internalType":"uint256"}],"stateMutability":"view"},{"type":"function","name":"previewDeposit","inputs":[{"name":"assets","type":"uint256","internalType":"uint256"}],"outputs":[{"name":"","type":"uint256","internalType":"uint256"}],"stateMutability":"view"},{"type":"function","name":"previewMint","inputs":[{"name":"shares","type":"uint256","internalType":"uint256"}],"outputs":[{"name":"","type":"uint256","internalType":"uint256"}],"stateMutability":"view"},{"type":"function","name":"previewRedeem","inputs":[{"name":"shares","type":"uint256","internalType":"uint256"}],"outputs":[{"name":"","type":"uint256","internalType":"uint256"}],"stateMutability":"view"},{"type":"function","name":"previewWithdraw","inputs":[{"name":"assets","type":"uint256","internalType":"uint256"}],"outputs":[{"name":"","type":"uint256","internalType":"uint256"}],"stateMutability":"view"},{"type":"function","name":"redeem","inputs":[{"name":"shares","type":"uint256","internalType":"uint256"},{"name":"receiver","type":"address","internalType":"address"},{"name":"owner","type":"address","internalType":"address"}],"outputs":[{"name":"","type":"uint256","internalType":"uint256"}],"stateMutability":"nonpayable"},{"type":"function","name":"redemptionHook","inputs":[],"outputs":[{"name":"","type":"address","internalType":"contract IRedemptionHook"}],"stateMutability":"view"},{"type":"function","name":"requestRedeem","inputs":[{"name":"shares","type":"uint256","internalType":"uint256"},{"name":"receiver","type":"address","internalType":"address"},{"name":"owner","type":"address","internalType":"address"}],"outputs":[{"name":"","type":"uint256","internalType":"uint256"}],"stateMutability":"nonpayable"},{"type":"function","name":"setAuthority","inputs":[{"name":"newAuthority","type":"address","internalType":"contract Authority"}],"outputs":[],"stateMutability":"nonpayable"},{"type":"function","name":"setBalanceUpdateHook","inputs":[{"name":"newAdapter","type":"address","internalType":"contract IBalanceUpdateHook"}],"outputs":[],"stateMutability":"nonpayable"},{"type":"function","name":"setGuard","inputs":[{"name":"target","type":"address","internalType":"address"},{"name":"guard","type":"address","internalType":"address"}],"outputs":[],"stateMutability":"nonpayable"},{"type":"function","name":"setRedemptionHook","inputs":[{"name":"newStrategy","type":"address","internalType":"contract IRedemptionHook"}],"outputs":[],"stateMutability":"nonpayable"},{"type":"function","name":"symbol","inputs":[],"outputs":[{"name":"","type":"string","internalType":"string"}],"stateMutability":"view"},{"type":"function","name":"totalAssets","inputs":[],"outputs":[{"name":"","type":"uint256","internalType":"uint256"}],"stateMutability":"view"},{"type":"function","name":"totalPendingAssets","inputs":[],"outputs":[{"name":"","type":"uint256","internalType":"uint256"}],"stateMutability":"view"},{"type":"function","name":"totalSupply","inputs":[],"outputs":[{"name":"","type":"uint256","internalType":"uint256"}],"stateMutability":"view"},{"type":"function","name":"transfer","inputs":[{"name":"to","type":"address","internalType":"address"},{"name":"value","type":"uint256","internalType":"uint256"}],"outputs":[{"name":"","type":"bool","internalType":"bool"}],"stateMutability":"nonpayable"},{"type":"function","name":"transferFrom","inputs":[{"name":"from","type":"address","internalType":"address"},{"name":"to","type":"address","internalType":"address"},{"name":"value","type":"uint256","internalType":"uint256"}],"outputs":[{"name":"","type":"bool","internalType":"bool"}],"stateMutability":"nonpayable"},{"type":"function","name":"transferOwnership","inputs":[{"name":"newOwner","type":"address","internalType":"address"}],"outputs":[],"stateMutability":"nonpayable"},{"type":"function","name":"unpause","inputs":[],"outputs":[],"stateMutability":"nonpayable"},{"type":"function","name":"updateBalance","inputs":[{"name":"newAggregatedBalance","type":"uint256","internalType":"uint256"}],"outputs":[],"stateMutability":"nonpayable"},{"type":"function","name":"withdraw","inputs":[{"name":"","type":"uint256","internalType":"uint256"},{"name":"","type":"address","internalType":"address"},{"name":"","type":"address","internalType":"address"}],"outputs":[{"name":"","type":"uint256","internalType":"uint256"}],"stateMutability":"nonpayable"},{"type":"event","name":"Approval","inputs":[{"name":"owner","type":"address","indexed":true,"internalType":"address"},{"name":"spender","type":"address","indexed":true,"internalType":"address"},{"name":"value","type":"uint256","indexed":false,"internalType":"uint256"}],"anonymous":false},{"type":"event","name":"AuthorityUpdated","inputs":[{"name":"user","type":"address","indexed":true,"internalType":"address"},{"name":"newAuthority","type":"address","indexed":true,"internalType":"contract Authority"}],"anonymous":false},{"type":"event","name":"BalanceUpdateHookUpdated","inputs":[{"name":"oldHook","type":"address","indexed":true,"internalType":"address"},{"name":"newHook","type":"address","indexed":true,"internalType":"address"}],"anonymous":false},{"type":"event","name":"Deposit","inputs":[{"name":"sender","type":"address","indexed":true,"internalType":"address"},{"name":"owner","type":"address","indexed":true,"internalType":"address"},{"name":"assets","type":"uint256","indexed":false,"internalType":"uint256"},{"name":"shares","type":"uint256","indexed":false,"internalType":"uint256"}],"anonymous":false},{"type":"event","name":"GuardUpdated","inputs":[{"name":"target","type":"address","indexed":true,"internalType":"address"},{"name":"guard","type":"address","indexed":true,"internalType":"address"}],"anonymous":false},{"type":"event","name":"Initialized","inputs":[{"name":"version","type":"uint64","indexed":false,"internalType":"uint64"}],"anonymous":false},{"type":"event","name":"ManageBatchOperation","inputs":[{"name":"index","type":"uint256","indexed":true,"internalType":"uint256"},{"name":"target","type":"address","indexed":true,"internalType":"address"},{"name":"functionSig","type":"bytes4","indexed":false,"internalType":"bytes4"},{"name":"value","type":"uint256","indexed":false,"internalType":"uint256"},{"name":"result","type":"bytes","indexed":false,"internalType":"bytes"}],"anonymous":false},{"type":"event","name":"OwnershipTransferred","inputs":[{"name":"user","type":"address","indexed":true,"internalType":"address"},{"name":"newOwner","type":"address","indexed":true,"internalType":"address"}],"anonymous":false},{"type":"event","name":"PPSUpdated","inputs":[{"name":"timestamp","type":"uint256","indexed":true,"internalType":"uint256"},{"name":"oldPPS","type":"uint256","indexed":false,"internalType":"uint256"},{"name":"newPPS","type":"uint256","indexed":false,"internalType":"uint256"}],"anonymous":false},{"type":"event","name":"Paused","inputs":[{"name":"account","type":"address","indexed":false,"internalType":"address"}],"anonymous":false},{"type":"event","name":"Received","inputs":[{"name":"sender","type":"address","indexed":false,"internalType":"address"},{"name":"amount","type":"uint256","indexed":false,"internalType":"uint256"}],"anonymous":false},{"type":"event","name":"RedeemRequest","inputs":[{"name":"receiver","type":"address","indexed":true,"internalType":"address"},{"name":"owner","type":"address","indexed":true,"internalType":"address"},{"name":"assets","type":"uint256","indexed":false,"internalType":"uint256"},{"name":"shares","type":"uint256","indexed":false,"internalType":"uint256"},{"name":"instant","type":"bool","indexed":false,"internalType":"bool"}],"anonymous":false},{"type":"event","name":"RedemptionHookUpdated","inputs":[{"name":"oldHook","type":"address","indexed":true,"internalType":"address"},{"name":"newHook","type":"address","indexed":true,"internalType":"address"}],"anonymous":false},{"type":"event","name":"RequestCancelled","inputs":[{"name":"receiver","type":"address","indexed":true,"internalType":"address"},{"name":"shares","type":"uint256","indexed":false,"internalType":"uint256"},{"name":"assets","type":"uint256","indexed":false,"internalType":"uint256"}],"anonymous":false},{"type":"event","name":"RequestFulfilled","inputs":[{"name":"receiver","type":"address","indexed":true,"internalType":"address"},{"name":"shares","type":"uint256","indexed":false,"internalType":"uint256"},{"name":"assets","type":"uint256","indexed":false,"internalType":"uint256"}],"anonymous":false},{"type":"event","name":"Transfer","inputs":[{"name":"from","type":"address","indexed":true,"internalType":"address"},{"name":"to","type":"address","indexed":true,"internalType":"address"},{"name":"value","type":"uint256","indexed":false,"internalType":"uint256"}],"anonymous":false},{"type":"event","name":"UnderlyingBalanceUpdated","inputs":[{"name":"timestamp","type":"uint256","indexed":true,"internalType":"uint256"},{"name":"oldBalance","type":"uint256","indexed":false,"internalType":"uint256"},{"name":"newBalance","type":"uint256","indexed":false,"internalType":"uint256"}],"anonymous":false},{"type":"event","name":"Unpaused","inputs":[{"name":"account","type":"address","indexed":false,"internalType":"address"}],"anonymous":false},{"type":"event","name":"VaultPausedDueToThreshold","inputs":[{"name":"timestamp","type":"uint256","indexed":true,"internalType":"uint256"},{"name":"oldPPS","type":"uint256","indexed":false,"internalType":"uint256"},{"name":"newPPS","type":"uint256","indexed":false,"internalType":"uint256"}],"anonymous":false},{"type":"event","name":"Withdraw","inputs":[{"name":"sender","type":"address","indexed":true,"internalType":"address"},{"name":"receiver","type":"address","indexed":true,"internalType":"address"},{"name":"owner","type":"address","indexed":true,"internalType":"address"},{"name":"assets","type":"uint256","indexed":false,"internalType":"uint256"},{"name":"shares","type":"uint256","indexed":false,"internalType":"uint256"}],"anonymous":false},{"type":"error","name":"AddressEmptyCode","inputs":[{"name":"target","type":"address","internalType":"address"}]},{"type":"error","name":"ERC20InsufficientAllowance","inputs":[{"name":"spender","type":"address","internalType":"address"},{"name":"allowance","type":"uint256","internalType":"uint256"},{"name":"needed","type":"uint256","internalType":"uint256"}]},{"type":"error","name":"ERC20InsufficientBalance","inputs":[{"name":"sender","type":"address","internalType":"address"},{"name":"balance","type":"uint256","internalType":"uint256"},{"name":"needed","type":"uint256","internalType":"uint256"}]},{"type":"error","name":"ERC20InvalidApprover","inputs":[{"name":"approver","type":"address","internalType":"address"}]},{"type":"error","name":"ERC20InvalidReceiver","inputs":[{"name":"receiver","type":"address","internalType":"address"}]},{"type":"error","name":"ERC20InvalidSender","inputs":[{"name":"sender","type":"address","internalType":"address"}]},{"type":"error","name":"ERC20InvalidSpender","inputs":[{"name":"spender","type":"address","internalType":"address"}]},{"type":"error","name":"ERC4626ExceededMaxDeposit","inputs":[{"name":"receiver","type":"address","internalType":"address"},{"name":"assets","type":"uint256","internalType":"uint256"},{"name":"max","type":"uint256","internalType":"uint256"}]},{"type":"error","name":"ERC4626ExceededMaxMint","inputs":[{"name":"receiver","type":"address","internalType":"address"},{"name":"shares","type":"uint256","internalType":"uint256"},{"name":"max","type":"uint256","internalType":"uint256"}]},{"type":"error","name":"ERC4626ExceededMaxRedeem","inputs":[{"name":"owner","type":"address","internalType":"address"},{"name":"shares","type":"uint256","internalType":"uint256"},{"name":"max","type":"uint256","internalType":"uint256"}]},{"type":"error","name":"ERC4626ExceededMaxWithdraw","inputs":[{"name":"owner","type":"address","internalType":"address"},{"name":"assets","type":"uint256","internalType":"uint256"},{"name":"max","type":"uint256","internalType":"uint256"}]},{"type":"error","name":"EnforcedPause","inputs":[]},{"type":"error","name":"ExpectedPause","inputs":[]},{"type":"error","name":"FailedCall","inputs":[]},{"type":"error","name":"InsufficientBalance","inputs":[{"name":"balance","type":"uint256","internalType":"uint256"},{"name":"needed","type":"uint256","internalType":"uint256"}]},{"type":"error","name":"InsufficientShares","inputs":[]},{"type":"error","name":"InvalidAssetsAmount","inputs":[]},{"type":"error","name":"InvalidInitialization","inputs":[]},{"type":"error","name":"InvalidRedemptionMode","inputs":[]},{"type":"error","name":"InvalidSharesAmount","inputs":[]},{"type":"error","name":"NotInitializing","inputs":[]},{"type":"error","name":"NotSharesOwner","inputs":[]},{"type":"error","name":"SafeERC20FailedOperation","inputs":[{"name":"token","type":"address","internalType":"address"}]},{"type":"error","name":"SharesAmountZero","inputs":[]},{"type":"error","name":"TransactionValidationFailed","inputs":[{"name":"target","type":"address","internalType":"address"}]},{"type":"error","name":"UpdateAlreadyCompletedInThisBlock","inputs":[]},{"type":"error","name":"UseRequestRedeem","inputs":[]},{"type":"error","name":"ZeroAddress","inputs":[]}],"bytecode":{"object":"0x608060405234602357600e6027565b60146027565b6040516136b790816100bc8239f35b5f80fd5b5f5160206137735f395f51905f525460ff8160401c1660ac576002600160401b03196001600160401b03821601605a5750565b6001600160401b0319166001600160401b039081175f5160206137735f395f51905f52556040519081527fc7f505b2f371ae2175ee4913f4499e1f2633a7b5936321eed1cdaeb6115181d290602090a1565b63f92ee8a960e01b5f5260045ffdfe6080604052600436101561004b575b3615610018575f80fd5b604080513381523460208201527f88a5966d370b9919b20f3e2c13ff65706f196a4e32cc2c12bf57088f885258749190a1005b5f358060e01c806301e1d114146121e157806303d4113b146121c457806306fdde03146120e157806307a2d13a1461195a578063095ea7b314611fe65780630a28a47714611f9757806312d36fd314611cf5578063150b7a0214611c8657806316f020d614611c6057806318160ddd14611c375780631cd1c8c314611b61578063227773ee14611ae257806323b872dd14611aaa578063313ce56714611a4b57806338d52e0f14611a065780633f4ba83a1461195f578063402d267d146106e25780634cdad5061461195a57806353dc1dd31461190f578063560b2318146118945780635c975abb146118665780636442b2ba146117365780636b462151146116f65780636e553f651461166c57806370a082311461162a5780637339957014611604578063760f5f27146115e75780637a9e5e4b1461145a5780637d41c86e1461143e578063809dab6a146113835780638456cb59146113025780638da5cb5b146112bd5780639317c20014610ab757806394bf804d14610a2e57806395d89b4114610926578063a9059cbb146108f5578063ab4f0f01146108d8578063ac9dc9e8146108bb578063b3d7f6b91461089d578063b460af941461085c578063ba08765214610833578063ba7b37d4146107fd578063bc197c811461074a578063bf7e214f14610705578063c63d75b6146106e2578063c6e6f5921461052f578063ce96cb77146106bf578063d905777e14610694578063d9972b9614610650578063dd62ed3e146105d7578063e8ccdf3f14610534578063ef8b30f71461052f578063f23a6e61146104c0578063f2fde38b1461040e5763f6e715d0146102b3575061000e565b346103f75760603660031901126103f7576102cc612258565b9060243567ffffffffffffffff81116103f7576102ed9036906004016122b5565b61030f61030a6001600160e01b0319604496949635951633612be2565b6124d3565b6001600160a01b0382165f525f6020526001600160a01b0360405f20541661033983821515612568565b602060405180926336e1b10b60e21b8252818061035c89888c33600486016125e5565b03915afa908115610403575f916103aa575b6103a6610392868661038c8a88610385848a612568565b3691612385565b90612dc8565b6040519182916020835260208301906121fb565b0390f35b9050602093929193813d6020116103fb575b816103c960209383612347565b810103126103f7576103a69461039294610385846103e961038c956125d8565b94505050929394509461036e565b5f80fd5b3d91506103bc565b6040513d5f823e3d90fd5b50346103f75760203660031901126103f7576001600160a01b039061044861030a6001600160e01b0319610440612258565b931633612be2565b16806001600160a01b03197fdd3fd67aef415aded9493b31ad20a02d2991d4bb2760431cc729821271eaea005416177fdd3fd67aef415aded9493b31ad20a02d2991d4bb2760431cc729821271eaea0055337f8be0079c531659141344cd1fd0a4f28419497f9722a3daafe3b4186f6b6457e05f80a3005b346103f75760a03660031901126103f7576104d9612258565b506104e261226e565b5060843567ffffffffffffffff81116103f7576105039036906004016122b5565b505060206040517ff23a6e61000000000000000000000000000000000000000000000000000000008152f35b6123d9565b50346103f75760203660031901126103f7576001600160a01b039061056661030a6001600160e01b0319610440612258565b1680156105af576001600160a01b0319600554826001600160a01b0382167f71e86d7b6261afe37537fed8f42bf15d2ed9344bd8bd3949ea67fdf36a5e55545f80a31617600555005b7fd92e233d000000000000000000000000000000000000000000000000000000005f5260045ffd5b346103f75760403660031901126103f7576105f0612258565b6001600160a01b0361063a61060361226e565b926001600160a01b03165f527f52c63247e1f47db19d5ce0460030c497f067ca4cebf71ba98eeadabe20bace0160205260405f2090565b91165f52602052602060405f2054604051908152f35b346103f75760403660031901126103f757610669612258565b602435906001600160e01b0319821682036103f75760209161068a91612be2565b6040519015158152f35b346103f75760203660031901126103f75760206106b76106b2612258565b612ba4565b604051908152f35b346103f75760203660031901126103f75760206106b76106dd612258565b612b60565b346103f75760203660031901126103f75760206106b7610700612258565b61262e565b346103f7575f3660031901126103f75760206001600160a01b037fdd3fd67aef415aded9493b31ad20a02d2991d4bb2760431cc729821271eaea015416604051908152f35b346103f75760a03660031901126103f757610763612258565b5061076c61226e565b5060443567ffffffffffffffff81116103f75761078d903690600401612284565b505060643567ffffffffffffffff81116103f7576107af903690600401612284565b505060843567ffffffffffffffff81116103f7576107d19036906004016122b5565b505060206040517fbc197c81000000000000000000000000000000000000000000000000000000008152f35b50346103f75760203660031901126103f75761030a6001600160e01b0319610826921633612be2565b6108316004356128e4565b005b346103f75760206106b76108463661230d565b9161084f6131f4565b6108576131f4565b61264e565b346103f75761086a3661230d565b5050506108756131f4565b7f797f246a000000000000000000000000000000000000000000000000000000005f5260045ffd5b346103f75760203660031901126103f75760206106b7600435612ced565b346103f7575f3660031901126103f7576020600454604051908152f35b346103f7575f3660031901126103f7576020600754604051908152f35b346103f75760403660031901126103f75761091b610911612258565b6024359033612e23565b602060405160018152f35b346103f7575f3660031901126103f7576040515f7f52c63247e1f47db19d5ce0460030c497f067ca4cebf71ba98eeadabe20bace04546109658161249b565b8084529060018116908115610a0a575060011461098d575b6103a68361039281850382612347565b7f52c63247e1f47db19d5ce0460030c497f067ca4cebf71ba98eeadabe20bace045f9081527f46a2803e59a4de4e7a4c574b1243f25977ac4c77d5a1a4a609b5394cebb4a2aa939250905b8082106109f05750909150810160200161039261097d565b9192600181602092548385880101520191019092916109d8565b60ff191660208086019190915291151560051b84019091019150610392905061097d565b346103f75760403660031901126103f757600435610a4a61226e565b90610a536131f4565b610a5c8261262e565b808211610a7b576020836106b784610a7381612ced565b80933361331e565b916001600160a01b03907f284ff667000000000000000000000000000000000000000000000000000000005f521660045260245260445260645ffd5b346103f75760c03660031901126103f7576004356001600160a01b0381168082036103f757610ae461226e565b604435906001600160a01b0382168092036103f757606435926001600160a01b0384168094036103f75760843567ffffffffffffffff81116103f757610b2e9036906004016123bb565b9460a43567ffffffffffffffff81116103f757610b4f9036906004016123bb565b7ff0c57e16840df040f15088dc2f81fe391c3923bec73e23a9662efc9c229c6a00549660ff8860401c16159767ffffffffffffffff8116801590816112b5575b60011490816112ab575b1590816112a2575b5061127a5767ffffffffffffffff1981166001177ff0c57e16840df040f15088dc2f81fe391c3923bec73e23a9662efc9c229c6a00558861123b575b50610be6613450565b610bee613450565b610bf6613450565b80519067ffffffffffffffff82116110eb578190610c347f52c63247e1f47db19d5ce0460030c497f067ca4cebf71ba98eeadabe20bace035461249b565b601f81116111ae575b50602090601f831160011461110a575f926110ff575b50508160011b915f199060031b1c1916177f52c63247e1f47db19d5ce0460030c497f067ca4cebf71ba98eeadabe20bace03555b80519067ffffffffffffffff82116110eb57610cc37f52c63247e1f47db19d5ce0460030c497f067ca4cebf71ba98eeadabe20bace045461249b565b601f8111611069575b50602090601f8311600114610fb85791806001600160a01b0396959492610d3d945f92610fad575b50508160011b915f199060031b1c1916177f52c63247e1f47db19d5ce0460030c497f067ca4cebf71ba98eeadabe20bace04555b610d30613450565b610d38613450565b6135b2565b9015610fa5575b7fffffffffffffffffffffff00000000000000000000000000000000000000000074ff00000000000000000000000000000000000000007f0773e532dfede91f04b12a73d3d2acd361424f41f76b4fb79f090161e36b4e00549260a01b16911617177f0773e532dfede91f04b12a73d3d2acd361424f41f76b4fb79f090161e36b4e0055610dd0613450565b610dd8613450565b16806001600160a01b03197fdd3fd67aef415aded9493b31ad20a02d2991d4bb2760431cc729821271eaea005416177fdd3fd67aef415aded9493b31ad20a02d2991d4bb2760431cc729821271eaea00556001600160a01b03197fdd3fd67aef415aded9493b31ad20a02d2991d4bb2760431cc729821271eaea0154167fdd3fd67aef415aded9493b31ad20a02d2991d4bb2760431cc729821271eaea0155337f8be0079c531659141344cd1fd0a4f28419497f9722a3daafe3b4186f6b6457e05f80a35f337fa3396fd7f6e0a21b50e5089d2da70d5ac0a3bbbd1f617a93f134b763899801988280a3610eca613450565b610ed2613450565b60ff195f51602061368b5f395f51905f5254165f51602061368b5f395f51905f525580156105af5781156105af576001600160a01b031960015416176001556001600160a01b03196005541617600555610f2857005b68ff0000000000000000197ff0c57e16840df040f15088dc2f81fe391c3923bec73e23a9662efc9c229c6a0054167ff0c57e16840df040f15088dc2f81fe391c3923bec73e23a9662efc9c229c6a00557fc7f505b2f371ae2175ee4913f4499e1f2633a7b5936321eed1cdaeb6115181d2602060405160018152a1005b506012610d44565b015190508a80610cf4565b90601f198316917f52c63247e1f47db19d5ce0460030c497f067ca4cebf71ba98eeadabe20bace045f52815f20925f5b8181106110515750926001928592610d3d966001600160a01b039a99989610611039575b505050811b017f52c63247e1f47db19d5ce0460030c497f067ca4cebf71ba98eeadabe20bace0455610d28565b01515f1960f88460031b161c191690558a808061100c565b92936020600181928786015181550195019301610fe8565b7f52c63247e1f47db19d5ce0460030c497f067ca4cebf71ba98eeadabe20bace045f527f46a2803e59a4de4e7a4c574b1243f25977ac4c77d5a1a4a609b5394cebb4a2aa601f840160051c810191602085106110e1575b601f0160051c01905b8181106110d65750610ccc565b5f81556001016110c9565b90915081906110c0565b634e487b7160e01b5f52604160045260245ffd5b015190508980610c53565b7f52c63247e1f47db19d5ce0460030c497f067ca4cebf71ba98eeadabe20bace035f9081528281209350601f198516905b818110611196575090846001959493921061117e575b505050811b017f52c63247e1f47db19d5ce0460030c497f067ca4cebf71ba98eeadabe20bace0355610c87565b01515f1960f88460031b161c19169055898080611151565b9293602060018192878601518155019501930161113b565b7f52c63247e1f47db19d5ce0460030c497f067ca4cebf71ba98eeadabe20bace035f529091507f2ae08a8e29253f69ac5d979a101956ab8f8d9d7ded63fa7a83b16fc47648eab0601f840160051c81019160208510611231575b90601f859493920160051c01905b8181106112235750610c3d565b5f8155849350600101611216565b9091508190611208565b68ffffffffffffffffff191668010000000000000001177ff0c57e16840df040f15088dc2f81fe391c3923bec73e23a9662efc9c229c6a005588610bdd565b7ff92ee8a9000000000000000000000000000000000000000000000000000000005f5260045ffd5b9050158a610ba1565b303b159150610b99565b8a9150610b8f565b346103f7575f3660031901126103f75760206001600160a01b037fdd3fd67aef415aded9493b31ad20a02d2991d4bb2760431cc729821271eaea005416604051908152f35b50346103f7575f3660031901126103f75761030a6001600160e01b031961132a921633612be2565b6113326131f4565b600160ff195f51602061368b5f395f51905f525416175f51602061368b5f395f51905f52557f62e78cea01bee320cd4e420270b5ea74000d11b0c9f74754ebdbfc544b05a2586020604051338152a1005b346103f7575f3660031901126103f757602460206001600160a01b037f0773e532dfede91f04b12a73d3d2acd361424f41f76b4fb79f090161e36b4e005416604051928380926370a0823160e01b82523060048301525afa908115610403575f9161140c575b506007549081811115611402576020916106b791612621565b505060205f6106b7565b90506020813d602011611436575b8161142760209383612347565b810103126103f75751816113e9565b3d915061141a565b346103f75760206106b76114513661230d565b916108576131f4565b50346103f75760203660031901126103f757600435906001600160a01b0382168092036103f7576001600160a01b037fdd3fd67aef415aded9493b31ad20a02d2991d4bb2760431cc729821271eaea0054163314908115611533575b50156103f757806001600160a01b03197fdd3fd67aef415aded9493b31ad20a02d2991d4bb2760431cc729821271eaea015416177fdd3fd67aef415aded9493b31ad20a02d2991d4bb2760431cc729821271eaea0155337fa3396fd7f6e0a21b50e5089d2da70d5ac0a3bbbd1f617a93f134b763899801985f80a3005b7fdd3fd67aef415aded9493b31ad20a02d2991d4bb2760431cc729821271eaea015460405163b700961360e01b81523360048201523060248201526001600160e01b0319929092166044830152909150602090829060649082906001600160a01b03165afa908115610403575f916115ad575b505f6114b6565b90506020813d6020116115df575b816115c860209383612347565b810103126103f7576115d9906125d8565b5f6115a6565b3d91506115bb565b346103f7575f3660031901126103f7576020600354604051908152f35b346103f7575f3660031901126103f75760206001600160a01b0360015416604051908152f35b346103f75760203660031901126103f75760206106b7611648612258565b6001600160a01b03165f525f51602061364b5f395f51905f5260205260405f205490565b346103f75760403660031901126103f75760043561168861226e565b906116916131f4565b61169a8261262e565b8082116116ba57506106b76020926116b183612d60565b9283913361331e565b916001600160a01b03907f79012fb2000000000000000000000000000000000000000000000000000000005f521660045260245260445260645ffd5b346103f75760203660031901126103f7576001600160a01b03611717612258565b165f525f60205260206001600160a01b0360405f205416604051908152f35b50346103f7576001600160e01b03199061030a611761611755366122e3565b93919590941633612be2565b6001600160a01b03831692835f52600660205260405f20938454948515158061185c575b156118345760018101908154968715158061182a575b1561180257610831976117ba926117b3898994612621565b9055612621565b90556117c883600754612621565b6007557f1165aa98d42fbaef9bacc273d7b5cca8edc94909519f8f949ec33562963c87e460408051868152856020820152a230903061305d565b7f3b832713000000000000000000000000000000000000000000000000000000005f5260045ffd5b508786111561179b565b7f01e3468e000000000000000000000000000000000000000000000000000000005f5260045ffd5b5085851115611785565b346103f7575f3660031901126103f757602060ff5f51602061368b5f395f51905f5254166040519015158152f35b50346103f75760203660031901126103f7576001600160a01b03906118c661030a6001600160e01b0319610440612258565b1680156105af576001600160a01b0319600154826001600160a01b0382167fe02404e8ee2b8389e3dd58c236f6b16e91da18f91ef4a5a763a94517394ce96b5f80a31617600155005b346103f75760203660031901126103f75760406001600160a01b03611932612258565b16805f5260066020526001825f200154905f526006602052815f205482519182526020820152f35b61223a565b50346103f7575f3660031901126103f75761030a6001600160e01b0319611987921633612be2565b5f51602061368b5f395f51905f525460ff8116156119de5760ff19165f51602061368b5f395f51905f52557f5db9ee0a495bf2e6ff9c91a7834c1ba4fdd244a5e8aa4e537bd38aeae4b073aa6020604051338152a1005b7f8dfc202b000000000000000000000000000000000000000000000000000000005f5260045ffd5b346103f7575f3660031901126103f75760206001600160a01b037f0773e532dfede91f04b12a73d3d2acd361424f41f76b4fb79f090161e36b4e005416604051908152f35b346103f7575f3660031901126103f75760ff7f0773e532dfede91f04b12a73d3d2acd361424f41f76b4fb79f090161e36b4e005460a01c1660ff8111611a9657602090604051908152f35b634e487b7160e01b5f52601160045260245ffd5b346103f75760603660031901126103f75761091b611ac6612258565b611ace61226e565b60443591611add833383612f41565b612e23565b50346103f75760403660031901126103f7576001600160a01b0380611b05612258565b92611b1d61030a6001600160e01b031961044061226e565b169116805f525f60205260405f20826001600160a01b03198254161790557f3cda29cdb79816ebd803e7c42da9b0bd76d5e7874a94abb4fae13ff444e353fb5f80a3005b50346103f75761030a906001600160e01b0319611b8c611b80366122e3565b95919390941633612be2565b6001600160a01b038116805f52600660205260405f209384549081151580611c2d575b1561183457600186019081549182151580611c23575b1561180257611c00826040946108319a6117b38b7f55ec94ca0f01023d07c5752a75f44048cfbdb0e4cfedf5e7eacecf21fcde358799612621565b9055611c0e81600754612621565b6007558151908682526020820152a230612e23565b5082821115611bc5565b5081851115611baf565b346103f7575f3660031901126103f75760205f51602061366b5f395f51905f5254604051908152f35b346103f7575f3660031901126103f75760206001600160a01b0360055416604051908152f35b346103f75760803660031901126103f757611c9f612258565b50611ca861226e565b5060643567ffffffffffffffff81116103f757611cc99036906004016122b5565b505060206040517f150b7a02000000000000000000000000000000000000000000000000000000008152f35b50346103f75760203660031901126103f7576004359067ffffffffffffffff82116103f757611d4161030a611d376001600160e01b0319943690600401612284565b9490931633612be2565b8115611f53575f5b828110611d5257005b806001600160a01b03611d71611d6c611de994878761251e565b612554565b165f525f60205260206001600160a01b0360405f205416611da1611d99611d6c85898961251e565b821515612568565b611db8611daf84888861251e565b838101906125a5565b6040611dc8868a8a96959661251e565b013592604051968794859384936336e1b10b60e21b855233600486016125e5565b03915afa918215610403575f92611f14575b50611e16600192611e10611d6c84888861251e565b90612568565b611e5b61038c611e2a611d6c84888861251e565b611e42611e3885898961251e565b60208101906125a5565b92906040611e51878b8b61251e565b0135933691612385565b817f2f13a569f6d2fba5618730b89cb049a8d430f6bd0aa6eea26e948d8d663d7c766001600160e01b0319878784611e97611e3882858561251e565b9390358581169460048110611efc575b5050916040611ed08385611eca611d6c6001600160a01b0397611ef3998861251e565b9461251e565b0135604051958695168552602085015260606040850152169560608301906121fb565b0390a301611d49565b60040360031b86901b16851693506040611ed0611ea7565b91506020823d8211611f4b575b81611f2e60209383612347565b810103126103f757611e16611f446001936125d8565b9250611dfb565b3d9150611f21565b606460405162461bcd60e51b815260206004820152601160248201527f4e6f2063616c6c732070726f76696465640000000000000000000000000000006044820152fd5b346103f75760203660031901126103f7575f51602061366b5f395f51905f525460018101809111611a9657611fca612404565b60018101809111611a965760016106b791602093600435613234565b346103f75760403660031901126103f757611fff612258565b6024359033156120b5576001600160a01b031690811561208957335f9081527f52c63247e1f47db19d5ce0460030c497f067ca4cebf71ba98eeadabe20bace0160205260409020825f526020528060405f20556040519081527f8c5be1e5ebec7d5bd14f71427d1e84f3dd0314c0f7b2291e5b200ac8c7c3b92560203392a3602060405160018152f35b7f94280d62000000000000000000000000000000000000000000000000000000005f525f60045260245ffd5b7fe602df05000000000000000000000000000000000000000000000000000000005f525f60045260245ffd5b346103f7575f3660031901126103f7576040515f7f52c63247e1f47db19d5ce0460030c497f067ca4cebf71ba98eeadabe20bace03546121208161249b565b8084529060018116908115610a0a5750600114612147576103a68361039281850382612347565b7f52c63247e1f47db19d5ce0460030c497f067ca4cebf71ba98eeadabe20bace035f9081527f2ae08a8e29253f69ac5d979a101956ab8f8d9d7ded63fa7a83b16fc47648eab0939250905b8082106121aa5750909150810160200161039261097d565b919260018160209254838588010152019101909291612192565b346103f7575f3660031901126103f7576020600254604051908152f35b346103f7575f3660031901126103f75760206106b7612404565b91908251928382525f5b848110612225575050825f602080949584010152601f8019910116010190565b80602080928401015182828601015201612205565b346103f75760203660031901126103f75760206106b7600435612d27565b600435906001600160a01b03821682036103f757565b602435906001600160a01b03821682036103f757565b9181601f840112156103f75782359167ffffffffffffffff83116103f7576020808501948460051b0101116103f757565b9181601f840112156103f75782359167ffffffffffffffff83116103f757602083818601950101116103f757565b60609060031901126103f7576004356001600160a01b03811681036103f757906024359060443590565b60609060031901126103f757600435906024356001600160a01b03811681036103f757906044356001600160a01b03811681036103f75790565b90601f8019910116810190811067ffffffffffffffff8211176110eb57604052565b67ffffffffffffffff81116110eb57601f01601f191660200190565b92919261239182612369565b9161239f6040519384612347565b8294818452818301116103f7578281602093845f960137010152565b9080601f830112156103f7578160206123d693359101612385565b90565b346103f75760203660031901126103f75760206106b7600435612d60565b91908201809211611a9657565b602460206001600160a01b037f0773e532dfede91f04b12a73d3d2acd361424f41f76b4fb79f090161e36b4e005416604051928380926370a0823160e01b82523060048301525afa8015610403575f90612467575b6123d69150600254906123f7565b506020813d602011612493575b8161248160209383612347565b810103126103f7576123d69051612459565b3d9150612474565b90600182811c921680156124c9575b60208310146124b557565b634e487b7160e01b5f52602260045260245ffd5b91607f16916124aa565b156124da57565b606460405162461bcd60e51b815260206004820152600c60248201527f554e415554484f52495a454400000000000000000000000000000000000000006044820152fd5b91908110156125405760051b81013590605e19813603018212156103f7570190565b634e487b7160e01b5f52603260045260245ffd5b356001600160a01b03811681036103f75790565b156125705750565b6001600160a01b03907fe2b9c0ef000000000000000000000000000000000000000000000000000000005f521660045260245ffd5b903590601e19813603018212156103f7570180359067ffffffffffffffff82116103f7576020019181360383136103f757565b519081151582036103f757565b949392806040936001600160a01b0360809416885260606020890152816060890152838801375f828288010152601f8019910116850101930152565b91908203918211611a9657565b5060ff5f51602061368b5f395f51905f52541661264a575f1990565b5f90565b9081156128bc576001600160a01b0383169133830361289457825f525f51602061364b5f395f51905f526020528060405f20541061286c5761268f81612d27565b936001600160a01b036005541692604051957f51eda43e000000000000000000000000000000000000000000000000000000008752306004880152836024880152604487015284606487015260408660a4815f6001600160a01b038616988960848401525af1958615610403575f905f97612829575b506002811015612815578061275d5750916127468187847f9a626d8a4952950c7f8b9f5c92a2804e44e147ce4dd0add2f5928f1faea725909660609661305d565b60405190868252602082015260016040820152a390565b94959394929391926001141590506127ed578261279f7f9a626d8a4952950c7f8b9f5c92a2804e44e147ce4dd0add2f5928f1faea72590946060943090612e23565b6127ab826007546123f7565b600755845f526006602052600160405f206127c78382546123f7565b8155016127d58382546123f7565b905560405191825260208201525f6040820152a35f90565b7f03e28a1b000000000000000000000000000000000000000000000000000000005f5260045ffd5b634e487b7160e01b5f52602160045260245ffd5b9650506040863d604011612864575b8161284560409383612347565b810103126103f75785519560028710156103f75760200151955f612705565b3d9150612838565b7f39996567000000000000000000000000000000000000000000000000000000005f5260045ffd5b7fe7fe5cf4000000000000000000000000000000000000000000000000000000005f5260045ffd5b7f840c364a000000000000000000000000000000000000000000000000000000005f5260045ffd5b600354431115612b38576001600160a01b03600154169060045460245f51602061366b5f395f51905f525460206001600160a01b037f0773e532dfede91f04b12a73d3d2acd361424f41f76b4fb79f090161e36b4e005416604051938480926370a0823160e01b82523060048301525afa918215610403575f92612b03575b50906084604092835196879384927f1faab223000000000000000000000000000000000000000000000000000000008452876004850152602484015260448301528660648301525afa928315610403575f905f94612ac2575b5015612a3557508060025581600455436003556040519080825260208201527f9b01f304f89acbc3f9ca1425e6ce22d5f57df58c42b9adc0dac4c4a71236f98e60404292a26040519080825260208201527f3f22d682a7202099eeac8a14fda6f2bbcadb8b7e2a83b665b69776e8d606151660404292a2565b919050612a406131f4565b600160ff195f51602061368b5f395f51905f525416175f51602061368b5f395f51905f52557f62e78cea01bee320cd4e420270b5ea74000d11b0c9f74754ebdbfc544b05a2586020604051338152a160405191825260208201527f624f9968f9037cc40b91b22280a8f1a3f1fd95e6d2f00e1d7ae4aa10ff2e59c460404292a2565b9350506040833d604011612afb575b81612ade60409383612347565b810103126103f7576020612af1846125d8565b930151925f6129bc565b3d9150612ad1565b91506020823d602011612b30575b81612b1e60209383612347565b810103126103f7579051906084612963565b3d9150612b11565b7f95628bbc000000000000000000000000000000000000000000000000000000005f5260045ffd5b60ff5f51602061368b5f395f51905f525416612b9f576001600160a01b03165f525f51602061364b5f395f51905f526020526123d660405f2054612d27565b505f90565b60ff5f51602061368b5f395f51905f525416612b9f576123d6906001600160a01b03165f525f51602061364b5f395f51905f5260205260405f205490565b6001600160a01b037fdd3fd67aef415aded9493b31ad20a02d2991d4bb2760431cc729821271eaea015416918215159283612c58575b50508115612c24575090565b90506001600160a01b03807fdd3fd67aef415aded9493b31ad20a02d2991d4bb2760431cc729821271eaea00541691161490565b60405163b700961360e01b81526001600160a01b03841660048201523060248201526001600160e01b031992909216604483015291925090602090829060649082905afa908115610403575f91612cb3575b50905f80612c18565b90506020813d602011612ce5575b81612cce60209383612347565b810103126103f757612cdf906125d8565b5f612caa565b3d9150612cc1565b612cf5612404565b9060018201809211611a96575f51602061366b5f395f51905f525460018101809111611a96576123d692600192613234565b612d2f612404565b9060018201809211611a96575f51602061366b5f395f51905f525460018101809111611a96576123d6925f92613234565b5f51602061366b5f395f51905f52549060018201809211611a9657612d83612404565b60018101809111611a96576123d6925f92613234565b3d15612dc3573d90612daa82612369565b91612db86040519384612347565b82523d5f602084013e565b606090565b90929192834710612df3575f816123d694956020839451920190855af1612ded612d99565b91613292565b83477fcf479181000000000000000000000000000000000000000000000000000000005f5260045260245260445ffd5b6001600160a01b0316908115612f15576001600160a01b0316918215612ee957612e4b6131f4565b815f525f51602061364b5f395f51905f5260205260405f2054818110612ed057817fddf252ad1be2c89b69c2b068fc378daa952ba7f163c4a11628f55a4df523b3ef92602092855f525f51602061364b5f395f51905f5284520360405f2055845f525f51602061364b5f395f51905f52825260405f20818154019055604051908152a3565b8263391434e360e21b5f5260045260245260445260645ffd5b7fec442f05000000000000000000000000000000000000000000000000000000005f525f60045260245ffd5b7f96c6fd1e000000000000000000000000000000000000000000000000000000005f525f60045260245ffd5b9190612f7d836001600160a01b03165f527f52c63247e1f47db19d5ce0460030c497f067ca4cebf71ba98eeadabe20bace0160205260405f2090565b6001600160a01b0382165f5260205260405f2054925f198410612fa1575b50505050565b828410613020576001600160a01b038116156120b5576001600160a01b03821615612089576130086001600160a01b03916001600160a01b03165f527f52c63247e1f47db19d5ce0460030c497f067ca4cebf71ba98eeadabe20bace0160205260405f2090565b91165f5260205260405f20910390555f808080612f9b565b506001600160a01b0383917ffb8f41b2000000000000000000000000000000000000000000000000000000005f521660045260245260445260645ffd5b91936001600160a01b03851694816001600160a01b038516948786036131e3575b5050508415612f155761308f6131f4565b845f525f51602061364b5f395f51905f5260205260405f20548181106131ca577ffbde797d201c681b91056529119e0b02407c7bb96a4a2c75c01fc9667232c8db92826040936001600160a01b0393895f525f51602061364b5f395f51905f5260205203845f2055805f51602061366b5f395f51905f5254035f51602061366b5f395f51905f52555f887fddf252ad1be2c89b69c2b068fc378daa952ba7f163c4a11628f55a4df523b3ef60208751858152a37f0773e532dfede91f04b12a73d3d2acd361424f41f76b4fb79f090161e36b4e005484517fa9059cbb0000000000000000000000000000000000000000000000000000000060208201526001600160a01b038416602482015260448082018a905281526131bb9185166131b6606483612347565b613545565b835196875260208701521693a4565b8563391434e360e21b5f5260045260245260445260645ffd5b6131ec92612f41565b5f818161307e565b60ff5f51602061368b5f395f51905f52541661320c57565b7fd93c0665000000000000000000000000000000000000000000000000000000005f5260045ffd5b92916132418183866134a7565b926004811015612815576001809116149182613267575b50506123d692501515906123f7565b908092501561327e576123d6930915155f80613258565b634e487b7160e01b5f52601260045260245ffd5b906132cf57508051156132a757805190602001fd5b7fd6bda275000000000000000000000000000000000000000000000000000000005f5260045ffd5b81511580613315575b6132e0575090565b6001600160a01b03907f9996b315000000000000000000000000000000000000000000000000000000005f521660045260245ffd5b50803b156132d8565b91906001600160a01b039061339f827f0773e532dfede91f04b12a73d3d2acd361424f41f76b4fb79f090161e36b4e0054169483604051917f23b872dd0000000000000000000000000000000000000000000000000000000060208401521695866024830152306044830152856064830152606482526131b6608483612347565b16928315612ee9577fdcbc1c05240f31ff3ad067ef1ee35ce4997762752e3a095284754544f4c709d7916040916133d46131f4565b6133ec815f51602061366b5f395f51905f52546123f7565b5f51602061366b5f395f51905f5255855f525f51602061364b5f395f51905f52602052825f20818154019055855f7fddf252ad1be2c89b69c2b068fc378daa952ba7f163c4a11628f55a4df523b3ef60208651858152a382519182526020820152a3565b60ff7ff0c57e16840df040f15088dc2f81fe391c3923bec73e23a9662efc9c229c6a005460401c161561347f57565b7fd7e6bcf8000000000000000000000000000000000000000000000000000000005f5260045ffd5b91818302915f1981850993838086109503948086039514613537578483111561351f5790829109815f0382168092046002816003021880820260020302808202600203028082026002030280820260020302808202600203028091026002030293600183805f03040190848311900302920304170290565b82634e487b715f52156003026011186020526024601cfd5b50508092501561327e570490565b905f602091828151910182855af115610403575f513d6135a957506001600160a01b0381163b155b6135745750565b6001600160a01b03907f5274afe7000000000000000000000000000000000000000000000000000000005f521660045260245ffd5b6001141561356d565b5f80916040516001600160a01b0360208201917f313ce567000000000000000000000000000000000000000000000000000000008352600481526135f7602482612347565b5192165afa613604612d99565b908061363e575b613617575b505f905f90565b602081519181808201938492010103126103f7575160ff8111613610579060ff6001921690565b5060208151101561360b56fe52c63247e1f47db19d5ce0460030c497f067ca4cebf71ba98eeadabe20bace0052c63247e1f47db19d5ce0460030c497f067ca4cebf71ba98eeadabe20bace02cd5ed15c6e187e77e9aee88184c21f4f2182ab5827cb3b7e07fbedcd63f03300a164736f6c634300081c000af0c57e16840df040f15088dc2f81fe391c3923bec73e23a9662efc9c229c6a00","linkReferences":{}},"methodIdentifiers":{"aggregatedUnderlyingBalances()":"03d4113b","allowance(address,address)":"dd62ed3e","approve(address,uint256)":"095ea7b3","asset()":"38d52e0f","authority()":"bf7e214f","balanceOf(address)":"70a08231","balanceUpdateHook()":"73399570","cancelRedeem(address,uint256,uint256)":"1cd1c8c3","convertToAssets(uint256)":"07a2d13a","convertToShares(uint256)":"c6e6f592","decimals()":"313ce567","deposit(uint256,address)":"6e553f65","fulfillRedeem(address,uint256,uint256)":"6442b2ba","getAvailableBalance()":"809dab6a","guards(address)":"6b462151","initialize(address,address,address,address,string,string)":"9317c200","isAuthorized(address,bytes4)":"d9972b96","lastBlockUpdated()":"760f5f27","lastPricePerShare()":"ac9dc9e8","manage(address,bytes,uint256)":"f6e715d0","manageBatch((address,bytes,uint256)[])":"12d36fd3","maxDeposit(address)":"402d267d","maxMint(address)":"c63d75b6","maxRedeem(address)":"d905777e","maxWithdraw(address)":"ce96cb77","mint(uint256,address)":"94bf804d","name()":"06fdde03","onERC1155BatchReceived(address,address,uint256[],uint256[],bytes)":"bc197c81","onERC1155Received(address,address,uint256,uint256,bytes)":"f23a6e61","onERC721Received(address,address,uint256,bytes)":"150b7a02","owner()":"8da5cb5b","pause()":"8456cb59","paused()":"5c975abb","pendingRedeemRequest(address)":"53dc1dd3","previewDeposit(uint256)":"ef8b30f7","previewMint(uint256)":"b3d7f6b9","previewRedeem(uint256)":"4cdad506","previewWithdraw(uint256)":"0a28a477","redeem(uint256,address,address)":"ba087652","redemptionHook()":"16f020d6","requestRedeem(uint256,address,address)":"7d41c86e","setAuthority(address)":"7a9e5e4b","setBalanceUpdateHook(address)":"560b2318","setGuard(address,address)":"227773ee","setRedemptionHook(address)":"e8ccdf3f","symbol()":"95d89b41","totalAssets()":"01e1d114","totalPendingAssets()":"ab4f0f01","totalSupply()":"18160ddd","transfer(address,uint256)":"a9059cbb","transferFrom(address,address,uint256)":"23b872dd","transferOwnership(address)":"f2fde38b","unpause()":"3f4ba83a","updateBalance(uint256)":"ba7b37d4","withdraw(uint256,address,address)":"b460af94"},"storageLayout":{"storage":[{"astId":52424,"contract":"src/ElitraVault.sol:ElitraVault","label":"guards","offset":0,"slot":"0","type":"t_mapping(t_address,t_contract(ITransactionGuard)53555)"},{"astId":51017,"contract":"src/ElitraVault.sol:ElitraVault","label":"balanceUpdateHook","offset":0,"slot":"1","type":"t_contract(IBalanceUpdateHook)53272"},{"astId":51019,"contract":"src/ElitraVault.sol:ElitraVault","label":"aggregatedUnderlyingBalances","offset":0,"slot":"2","type":"t_uint256"},{"astId":51021,"contract":"src/ElitraVault.sol:ElitraVault","label":"lastBlockUpdated","offset":0,"slot":"3","type":"t_uint256"},{"astId":51023,"contract":"src/ElitraVault.sol:ElitraVault","label":"lastPricePerShare","offset":0,"slot":"4","type":"t_uint256"},{"astId":51026,"contract":"src/ElitraVault.sol:ElitraVault","label":"redemptionHook","offset":0,"slot":"5","type":"t_contract(IRedemptionHook)53515"},{"astId":51031,"contract":"src/ElitraVault.sol:ElitraVault","label":"_pendingRedeem","offset":0,"slot":"6","type":"t_mapping(t_address,t_struct(PendingRedeem)53297_storage)"},{"astId":51033,"contract":"src/ElitraVault.sol:ElitraVault","label":"totalPendingAssets","offset":0,"slot":"7","type":"t_uint256"}],"types":{"t_address":{"encoding":"inplace","label":"address","numberOfBytes":"20"},"t_contract(IBalanceUpdateHook)53272":{"encoding":"inplace","label":"contract IBalanceUpdateHook","numberOfBytes":"20"},"t_contract(IRedemptionHook)53515":{"encoding":"inplace","label":"contract IRedemptionHook","numberOfBytes":"20"},"t_contract(ITransactionGuard)53555":{"encoding":"inplace","label":"contract ITransactionGuard","numberOfBytes":"20"},"t_mapping(t_address,t_contract(ITransactionGuard)53555)":{"encoding":"mapping","key":"t_address","label":"mapping(address => contract ITransactionGuard)","numberOfBytes":"32","value":"t_contract(ITransactionGuard)53555"},"t_mapping(t_address,t_struct(PendingRedeem)53297_storage)":{"encoding":"mapping","key":"t_address","label":"mapping(address => struct IElitraVault.PendingRedeem)","numberOfBytes":"32","value":"t_struct(PendingRedeem)53297_storage"},"t_struct(PendingRedeem)53297_storage":{"encoding":"inplace","label":"struct IElitraVault.PendingRedeem","numberOfBytes":"64","members":[{"astId":53294,"contract":"src/ElitraVault.sol:ElitraVault","label":"shares","offset":0,"slot":"0","type":"t_uint256"},{"astId":53296,"contract":"src/ElitraVault.sol:ElitraVault","label":"assets","offset":0,"slot":"1","type":"t_uint256"}]},"t_uint256":{"encoding":"inplace","label":"uint256","numberOfBytes":"32"}}},"id":62}