{"abi":[{"type":"constructor","inputs":[],"stateMutability":"nonpayable"},{"type":"receive","stateMutability":"payable"},{"type":"function","name":"aggregatedUnderlyingBalances","inputs":[],"outputs":[{"name":"","type":"uint256","internalType":"uint256"}],"stateMutability":"view"},{"type":"function","name":"allowance","inputs":[{"name":"owner","type":"address","internalType":"address"},{"name":"spender","type":"address","internalType":"address"}],"outputs":[{"name":"","type":"uint256","internalType":"uint256"}],"stateMutability":"view"},{"type":"function","name":"approve","inputs":[{"name":"spender","type":"address","internalType":"address"},{"name":"value","type":"uint256","internalType":"uint256"}],"outputs":[{"name":"","type":"bool","internalType":"bool"}],"stateMutability":"nonpayable"},{"type":"function","name":"asset","inputs":[],"outputs":[{"name":"","type":"address","internalType":"address"}],"stateMutability":"view"},{"type":"function","name":"authority","inputs":[],"outputs":[{"name":"","type":"address","internalType":"contract Authority"}],"stateMutability":"view"},{"type":"function","name":"balanceOf","inputs":[{"name":"account","type":"address","internalType":"address"}],"outputs":[{"name":"","type":"uint256","internalType":"uint256"}],"stateMutability":"view"},{"type":"function","name":"balanceUpdateHook","inputs":[],"outputs":[{"name":"","type":"address","internalType":"contract IBalanceUpdateHook"}],"stateMutability":"view"},{"type":"function","name":"cancelRedeem","inputs":[{"name":"receiver","type":"address","internalType":"address"},{"name":"shares","type":"uint256","internalType":"uint256"},{"name":"assets","type":"uint256","internalType":"uint256"}],"outputs":[],"stateMutability":"nonpayable"},{"type":"function","name":"convertToAssets","inputs":[{"name":"shares","type":"uint256","internalType":"uint256"}],"outputs":[{"name":"","type":"uint256","internalType":"uint256"}],"stateMutability":"view"},{"type":"function","name":"convertToShares","inputs":[{"name":"assets","type":"uint256","internalType":"uint256"}],"outputs":[{"name":"","type":"uint256","internalType":"uint256"}],"stateMutability":"view"},{"type":"function","name":"decimals","inputs":[],"outputs":[{"name":"","type":"uint8","internalType":"uint8"}],"stateMutability":"view"},{"type":"function","name":"deposit","inputs":[{"name":"assets","type":"uint256","internalType":"uint256"},{"name":"receiver","type":"address","internalType":"address"}],"outputs":[{"name":"","type":"uint256","internalType":"uint256"}],"stateMutability":"nonpayable"},{"type":"function","name":"fulfillRedeem","inputs":[{"name":"receiver","type":"address","internalType":"address"},{"name":"shares","type":"uint256","internalType":"uint256"},{"name":"assets","type":"uint256","internalType":"uint256"}],"outputs":[],"stateMutability":"nonpayable"},{"type":"function","name":"getAvailableBalance","inputs":[],"outputs":[{"name":"","type":"uint256","internalType":"uint256"}],"stateMutability":"view"},{"type":"function","name":"initialize","inputs":[{"name":"_asset","type":"address","internalType":"contract IERC20"},{"name":"_owner","type":"address","internalType":"address"},{"name":"_balanceUpdateHook","type":"address","internalType":"contract IBalanceUpdateHook"},{"name":"_redemptionHook","type":"address","internalType":"contract IRedemptionHook"},{"name":"_name","type":"string","internalType":"string"},{"name":"_symbol","type":"string","internalType":"string"}],"outputs":[],"stateMutability":"nonpayable"},{"type":"function","name":"isAuthorized","inputs":[{"name":"user","type":"address","internalType":"address"},{"name":"functionSig","type":"bytes4","internalType":"bytes4"}],"outputs":[{"name":"","type":"bool","internalType":"bool"}],"stateMutability":"view"},{"type":"function","name":"lastBlockUpdated","inputs":[],"outputs":[{"name":"","type":"uint256","internalType":"uint256"}],"stateMutability":"view"},{"type":"function","name":"lastPricePerShare","inputs":[],"outputs":[{"name":"","type":"uint256","internalType":"uint256"}],"stateMutability":"view"},{"type":"function","name":"manage","inputs":[{"name":"target","type":"address","internalType":"address"},{"name":"data","type":"bytes","internalType":"bytes"},{"name":"value","type":"uint256","internalType":"uint256"}],"outputs":[{"name":"result","type":"bytes","internalType":"bytes"}],"stateMutability":"nonpayable"},{"type":"function","name":"manageBatch","inputs":[{"name":"targets","type":"address[]","internalType":"address[]"},{"name":"data","type":"bytes[]","internalType":"bytes[]"},{"name":"values","type":"uint256[]","internalType":"uint256[]"}],"outputs":[],"stateMutability":"nonpayable"},{"type":"function","name":"maxDeposit","inputs":[{"name":"receiver","type":"address","internalType":"address"}],"outputs":[{"name":"","type":"uint256","internalType":"uint256"}],"stateMutability":"view"},{"type":"function","name":"maxMint","inputs":[{"name":"receiver","type":"address","internalType":"address"}],"outputs":[{"name":"","type":"uint256","internalType":"uint256"}],"stateMutability":"view"},{"type":"function","name":"maxRedeem","inputs":[{"name":"owner","type":"address","internalType":"address"}],"outputs":[{"name":"","type":"uint256","internalType":"uint256"}],"stateMutability":"view"},{"type":"function","name":"maxWithdraw","inputs":[{"name":"owner","type":"address","internalType":"address"}],"outputs":[{"name":"","type":"uint256","internalType":"uint256"}],"stateMutability":"view"},{"type":"function","name":"mint","inputs":[{"name":"shares","type":"uint256","internalType":"uint256"},{"name":"receiver","type":"address","internalType":"address"}],"outputs":[{"name":"","type":"uint256","internalType":"uint256"}],"stateMutability":"nonpayable"},{"type":"function","name":"name","inputs":[],"outputs":[{"name":"","type":"string","internalType":"string"}],"stateMutability":"view"},{"type":"function","name":"onERC1155BatchReceived","inputs":[{"name":"","type":"address","internalType":"address"},{"name":"","type":"address","internalType":"address"},{"name":"","type":"uint256[]","internalType":"uint256[]"},{"name":"","type":"uint256[]","internalType":"uint256[]"},{"name":"","type":"bytes","internalType":"bytes"}],"outputs":[{"name":"","type":"bytes4","internalType":"bytes4"}],"stateMutability":"pure"},{"type":"function","name":"onERC1155Received","inputs":[{"name":"","type":"address","internalType":"address"},{"name":"","type":"address","internalType":"address"},{"name":"","type":"uint256","internalType":"uint256"},{"name":"","type":"uint256","internalType":"uint256"},{"name":"","type":"bytes","internalType":"bytes"}],"outputs":[{"name":"","type":"bytes4","internalType":"bytes4"}],"stateMutability":"pure"},{"type":"function","name":"onERC721Received","inputs":[{"name":"","type":"address","internalType":"address"},{"name":"","type":"address","internalType":"address"},{"name":"","type":"uint256","internalType":"uint256"},{"name":"","type":"bytes","internalType":"bytes"}],"outputs":[{"name":"","type":"bytes4","internalType":"bytes4"}],"stateMutability":"pure"},{"type":"function","name":"owner","inputs":[],"outputs":[{"name":"","type":"address","internalType":"address"}],"stateMutability":"view"},{"type":"function","name":"pause","inputs":[],"outputs":[],"stateMutability":"nonpayable"},{"type":"function","name":"paused","inputs":[],"outputs":[{"name":"","type":"bool","internalType":"bool"}],"stateMutability":"view"},{"type":"function","name":"pendingRedeemRequest","inputs":[{"name":"user","type":"address","internalType":"address"}],"outputs":[{"name":"assets","type":"uint256","internalType":"uint256"},{"name":"pendingShares","type":"uint256","internalType":"uint256"}],"stateMutability":"view"},{"type":"function","name":"previewDeposit","inputs":[{"name":"assets","type":"uint256","internalType":"uint256"}],"outputs":[{"name":"","type":"uint256","internalType":"uint256"}],"stateMutability":"view"},{"type":"function","name":"previewMint","inputs":[{"name":"shares","type":"uint256","internalType":"uint256"}],"outputs":[{"name":"","type":"uint256","internalType":"uint256"}],"stateMutability":"view"},{"type":"function","name":"previewRedeem","inputs":[{"name":"shares","type":"uint256","internalType":"uint256"}],"outputs":[{"name":"","type":"uint256","internalType":"uint256"}],"stateMutability":"view"},{"type":"function","name":"previewWithdraw","inputs":[{"name":"assets","type":"uint256","internalType":"uint256"}],"outputs":[{"name":"","type":"uint256","internalType":"uint256"}],"stateMutability":"view"},{"type":"function","name":"redeem","inputs":[{"name":"shares","type":"uint256","internalType":"uint256"},{"name":"receiver","type":"address","internalType":"address"},{"name":"owner","type":"address","internalType":"address"}],"outputs":[{"name":"","type":"uint256","internalType":"uint256"}],"stateMutability":"nonpayable"},{"type":"function","name":"redemptionHook","inputs":[],"outputs":[{"name":"","type":"address","internalType":"contract IRedemptionHook"}],"stateMutability":"view"},{"type":"function","name":"requestRedeem","inputs":[{"name":"shares","type":"uint256","internalType":"uint256"},{"name":"receiver","type":"address","internalType":"address"},{"name":"owner","type":"address","internalType":"address"}],"outputs":[{"name":"","type":"uint256","internalType":"uint256"}],"stateMutability":"nonpayable"},{"type":"function","name":"setAuthority","inputs":[{"name":"newAuthority","type":"address","internalType":"contract Authority"}],"outputs":[],"stateMutability":"nonpayable"},{"type":"function","name":"setBalanceUpdateHook","inputs":[{"name":"newAdapter","type":"address","internalType":"contract IBalanceUpdateHook"}],"outputs":[],"stateMutability":"nonpayable"},{"type":"function","name":"setRedemptionHook","inputs":[{"name":"newStrategy","type":"address","internalType":"contract IRedemptionHook"}],"outputs":[],"stateMutability":"nonpayable"},{"type":"function","name":"symbol","inputs":[],"outputs":[{"name":"","type":"string","internalType":"string"}],"stateMutability":"view"},{"type":"function","name":"totalAssets","inputs":[],"outputs":[{"name":"","type":"uint256","internalType":"uint256"}],"stateMutability":"view"},{"type":"function","name":"totalPendingAssets","inputs":[],"outputs":[{"name":"","type":"uint256","internalType":"uint256"}],"stateMutability":"view"},{"type":"function","name":"totalSupply","inputs":[],"outputs":[{"name":"","type":"uint256","internalType":"uint256"}],"stateMutability":"view"},{"type":"function","name":"transfer","inputs":[{"name":"to","type":"address","internalType":"address"},{"name":"value","type":"uint256","internalType":"uint256"}],"outputs":[{"name":"","type":"bool","internalType":"bool"}],"stateMutability":"nonpayable"},{"type":"function","name":"transferFrom","inputs":[{"name":"from","type":"address","internalType":"address"},{"name":"to","type":"address","internalType":"address"},{"name":"value","type":"uint256","internalType":"uint256"}],"outputs":[{"name":"","type":"bool","internalType":"bool"}],"stateMutability":"nonpayable"},{"type":"function","name":"transferOwnership","inputs":[{"name":"newOwner","type":"address","internalType":"address"}],"outputs":[],"stateMutability":"nonpayable"},{"type":"function","name":"unpause","inputs":[],"outputs":[],"stateMutability":"nonpayable"},{"type":"function","name":"updateBalance","inputs":[{"name":"newAggregatedBalance","type":"uint256","internalType":"uint256"}],"outputs":[],"stateMutability":"nonpayable"},{"type":"function","name":"withdraw","inputs":[{"name":"","type":"uint256","internalType":"uint256"},{"name":"","type":"address","internalType":"address"},{"name":"","type":"address","internalType":"address"}],"outputs":[{"name":"","type":"uint256","internalType":"uint256"}],"stateMutability":"nonpayable"},{"type":"event","name":"Approval","inputs":[{"name":"owner","type":"address","indexed":true,"internalType":"address"},{"name":"spender","type":"address","indexed":true,"internalType":"address"},{"name":"value","type":"uint256","indexed":false,"internalType":"uint256"}],"anonymous":false},{"type":"event","name":"AuthorityUpdated","inputs":[{"name":"user","type":"address","indexed":true,"internalType":"address"},{"name":"newAuthority","type":"address","indexed":true,"internalType":"contract Authority"}],"anonymous":false},{"type":"event","name":"BalanceUpdateHookUpdated","inputs":[{"name":"oldHook","type":"address","indexed":true,"internalType":"address"},{"name":"newHook","type":"address","indexed":true,"internalType":"address"}],"anonymous":false},{"type":"event","name":"Deposit","inputs":[{"name":"sender","type":"address","indexed":true,"internalType":"address"},{"name":"owner","type":"address","indexed":true,"internalType":"address"},{"name":"assets","type":"uint256","indexed":false,"internalType":"uint256"},{"name":"shares","type":"uint256","indexed":false,"internalType":"uint256"}],"anonymous":false},{"type":"event","name":"Initialized","inputs":[{"name":"version","type":"uint64","indexed":false,"internalType":"uint64"}],"anonymous":false},{"type":"event","name":"ManageBatchOperation","inputs":[{"name":"index","type":"uint256","indexed":true,"internalType":"uint256"},{"name":"target","type":"address","indexed":true,"internalType":"address"},{"name":"functionSig","type":"bytes4","indexed":false,"internalType":"bytes4"},{"name":"value","type":"uint256","indexed":false,"internalType":"uint256"},{"name":"result","type":"bytes","indexed":false,"internalType":"bytes"}],"anonymous":false},{"type":"event","name":"OwnershipTransferred","inputs":[{"name":"user","type":"address","indexed":true,"internalType":"address"},{"name":"newOwner","type":"address","indexed":true,"internalType":"address"}],"anonymous":false},{"type":"event","name":"PPSUpdated","inputs":[{"name":"timestamp","type":"uint256","indexed":true,"internalType":"uint256"},{"name":"oldPPS","type":"uint256","indexed":false,"internalType":"uint256"},{"name":"newPPS","type":"uint256","indexed":false,"internalType":"uint256"}],"anonymous":false},{"type":"event","name":"Paused","inputs":[{"name":"account","type":"address","indexed":false,"internalType":"address"}],"anonymous":false},{"type":"event","name":"Received","inputs":[{"name":"sender","type":"address","indexed":false,"internalType":"address"},{"name":"amount","type":"uint256","indexed":false,"internalType":"uint256"}],"anonymous":false},{"type":"event","name":"RedeemRequest","inputs":[{"name":"receiver","type":"address","indexed":true,"internalType":"address"},{"name":"owner","type":"address","indexed":true,"internalType":"address"},{"name":"assets","type":"uint256","indexed":false,"internalType":"uint256"},{"name":"shares","type":"uint256","indexed":false,"internalType":"uint256"},{"name":"instant","type":"bool","indexed":false,"internalType":"bool"}],"anonymous":false},{"type":"event","name":"RedemptionHookUpdated","inputs":[{"name":"oldHook","type":"address","indexed":true,"internalType":"address"},{"name":"newHook","type":"address","indexed":true,"internalType":"address"}],"anonymous":false},{"type":"event","name":"RequestCancelled","inputs":[{"name":"receiver","type":"address","indexed":true,"internalType":"address"},{"name":"shares","type":"uint256","indexed":false,"internalType":"uint256"},{"name":"assets","type":"uint256","indexed":false,"internalType":"uint256"}],"anonymous":false},{"type":"event","name":"RequestFulfilled","inputs":[{"name":"receiver","type":"address","indexed":true,"internalType":"address"},{"name":"shares","type":"uint256","indexed":false,"internalType":"uint256"},{"name":"assets","type":"uint256","indexed":false,"internalType":"uint256"}],"anonymous":false},{"type":"event","name":"Transfer","inputs":[{"name":"from","type":"address","indexed":true,"internalType":"address"},{"name":"to","type":"address","indexed":true,"internalType":"address"},{"name":"value","type":"uint256","indexed":false,"internalType":"uint256"}],"anonymous":false},{"type":"event","name":"UnderlyingBalanceUpdated","inputs":[{"name":"timestamp","type":"uint256","indexed":true,"internalType":"uint256"},{"name":"oldBalance","type":"uint256","indexed":false,"internalType":"uint256"},{"name":"newBalance","type":"uint256","indexed":false,"internalType":"uint256"}],"anonymous":false},{"type":"event","name":"Unpaused","inputs":[{"name":"account","type":"address","indexed":false,"internalType":"address"}],"anonymous":false},{"type":"event","name":"VaultPausedDueToThreshold","inputs":[{"name":"timestamp","type":"uint256","indexed":true,"internalType":"uint256"},{"name":"oldPPS","type":"uint256","indexed":false,"internalType":"uint256"},{"name":"newPPS","type":"uint256","indexed":false,"internalType":"uint256"}],"anonymous":false},{"type":"event","name":"Withdraw","inputs":[{"name":"sender","type":"address","indexed":true,"internalType":"address"},{"name":"receiver","type":"address","indexed":true,"internalType":"address"},{"name":"owner","type":"address","indexed":true,"internalType":"address"},{"name":"assets","type":"uint256","indexed":false,"internalType":"uint256"},{"name":"shares","type":"uint256","indexed":false,"internalType":"uint256"}],"anonymous":false},{"type":"error","name":"AddressEmptyCode","inputs":[{"name":"target","type":"address","internalType":"address"}]},{"type":"error","name":"ERC20InsufficientAllowance","inputs":[{"name":"spender","type":"address","internalType":"address"},{"name":"allowance","type":"uint256","internalType":"uint256"},{"name":"needed","type":"uint256","internalType":"uint256"}]},{"type":"error","name":"ERC20InsufficientBalance","inputs":[{"name":"sender","type":"address","internalType":"address"},{"name":"balance","type":"uint256","internalType":"uint256"},{"name":"needed","type":"uint256","internalType":"uint256"}]},{"type":"error","name":"ERC20InvalidApprover","inputs":[{"name":"approver","type":"address","internalType":"address"}]},{"type":"error","name":"ERC20InvalidReceiver","inputs":[{"name":"receiver","type":"address","internalType":"address"}]},{"type":"error","name":"ERC20InvalidSender","inputs":[{"name":"sender","type":"address","internalType":"address"}]},{"type":"error","name":"ERC20InvalidSpender","inputs":[{"name":"spender","type":"address","internalType":"address"}]},{"type":"error","name":"ERC4626ExceededMaxDeposit","inputs":[{"name":"receiver","type":"address","internalType":"address"},{"name":"assets","type":"uint256","internalType":"uint256"},{"name":"max","type":"uint256","internalType":"uint256"}]},{"type":"error","name":"ERC4626ExceededMaxMint","inputs":[{"name":"receiver","type":"address","internalType":"address"},{"name":"shares","type":"uint256","internalType":"uint256"},{"name":"max","type":"uint256","internalType":"uint256"}]},{"type":"error","name":"ERC4626ExceededMaxRedeem","inputs":[{"name":"owner","type":"address","internalType":"address"},{"name":"shares","type":"uint256","internalType":"uint256"},{"name":"max","type":"uint256","internalType":"uint256"}]},{"type":"error","name":"ERC4626ExceededMaxWithdraw","inputs":[{"name":"owner","type":"address","internalType":"address"},{"name":"assets","type":"uint256","internalType":"uint256"},{"name":"max","type":"uint256","internalType":"uint256"}]},{"type":"error","name":"EnforcedPause","inputs":[]},{"type":"error","name":"ExpectedPause","inputs":[]},{"type":"error","name":"FailedCall","inputs":[]},{"type":"error","name":"InsufficientBalance","inputs":[{"name":"balance","type":"uint256","internalType":"uint256"},{"name":"needed","type":"uint256","internalType":"uint256"}]},{"type":"error","name":"InsufficientShares","inputs":[]},{"type":"error","name":"InvalidAssetsAmount","inputs":[]},{"type":"error","name":"InvalidInitialization","inputs":[]},{"type":"error","name":"InvalidRedemptionMode","inputs":[]},{"type":"error","name":"InvalidSharesAmount","inputs":[]},{"type":"error","name":"NotInitializing","inputs":[]},{"type":"error","name":"NotSharesOwner","inputs":[]},{"type":"error","name":"SafeERC20FailedOperation","inputs":[{"name":"token","type":"address","internalType":"address"}]},{"type":"error","name":"SharesAmountZero","inputs":[]},{"type":"error","name":"TargetMethodNotAuthorized","inputs":[{"name":"target","type":"address","internalType":"address"},{"name":"functionSig","type":"bytes4","internalType":"bytes4"}]},{"type":"error","name":"UpdateAlreadyCompletedInThisBlock","inputs":[]},{"type":"error","name":"UseRequestRedeem","inputs":[]},{"type":"error","name":"ZeroAddress","inputs":[]}],"bytecode":{"object":"0x6080806040523460aa575f5160206137595f395f51905f525460ff8160401c16609b576002600160401b03196001600160401b038216016049575b6040516136aa90816100af8239f35b6001600160401b0319166001600160401b039081175f5160206137595f395f51905f525581527fc7f505b2f371ae2175ee4913f4499e1f2633a7b5936321eed1cdaeb6115181d290602090a15f80603a565b63f92ee8a960e01b5f5260045ffd5b5f80fdfe6080604052600436101561004b575b3615610018575f80fd5b604080513381523460208201527f88a5966d370b9919b20f3e2c13ff65706f196a4e32cc2c12bf57088f885258749190a1005b5f358060e01c806301e1d114146121cf57806303d4113b146121b257806306fdde03146120cf57806307a2d13a14611c69578063095ea7b314611fd45780630a28a47714611f85578063150b7a0214611f1657806316f020d614611ef057806318160ddd14611ec75780631cd1c8c314611df157806323b872dd14611db9578063313ce56714611d5a57806338d52e0f14611d155780633f4ba83a14611c6e578063402d267d146106e85780634cdad50614611c6957806353dc1dd314611c1e578063560b231814611ba55780635c975abb14611b775780636442b2ba14611a475780636e553f65146119bd57806370a082311461197b5780637339957014611956578063760f5f27146119395780637a9e5e4b146117ac5780637c9e6cfd146114565780637d41c86e1461143a578063809dab6a1461137f5780638456cb59146112fe5780638da5cb5b146112b95780639317c20014610abd57806394bf804d14610a3457806395d89b411461092c578063a9059cbb146108fb578063ab4f0f01146108de578063ac9dc9e8146108c1578063b3d7f6b9146108a3578063b460af9414610862578063ba08765214610839578063ba7b37d414610803578063bc197c8114610750578063bf7e214f1461070b578063c63d75b6146106e8578063c6e6f59214610535578063ce96cb77146106c5578063d905777e1461069a578063d9972b9614610656578063dd62ed3e146105dd578063e8ccdf3f1461053a578063ef8b30f714610535578063f23a6e61146104c6578063f2fde38b146104145763f6e715d01461029d575061000e565b346103fd5760603660031901126103fd576102b6612246565b6024359067ffffffffffffffff82116103fd576102f56102f06102e66001600160e01b0319943690600401612272565b9490951633612bd5565b6124c1565b6102ff828461259c565b7fdd3fd67aef415aded9493b31ad20a02d2991d4bb2760431cc729821271eaea015460405163b700961360e01b81523360048201526001600160a01b0384811660248301526001600160e01b031984166044830152909160209183916064918391165afa908115610409575f916103b1575b6103ad61039986866103938a61038889848a6125f6565b604435933691612373565b906131cc565b6040519182916020835260208301906121e9565b0390f35b93929190506020843d602011610401575b816103cf60209383612335565b810103126103fd576103ad9461038861039392846103ef61039998612539565b945050939495505094610371565b5f80fd5b3d91506103c2565b6040513d5f823e3d90fd5b50346103fd5760203660031901126103fd576001600160a01b039061044e6102f06001600160e01b0319610446612246565b931633612bd5565b16806001600160a01b03197fdd3fd67aef415aded9493b31ad20a02d2991d4bb2760431cc729821271eaea005416177fdd3fd67aef415aded9493b31ad20a02d2991d4bb2760431cc729821271eaea0055337f8be0079c531659141344cd1fd0a4f28419497f9722a3daafe3b4186f6b6457e05f80a3005b346103fd5760a03660031901126103fd576104df612246565b506104e861225c565b5060843567ffffffffffffffff81116103fd57610509903690600401612272565b505060206040517ff23a6e61000000000000000000000000000000000000000000000000000000008152f35b6123c7565b50346103fd5760203660031901126103fd576001600160a01b039061056c6102f06001600160e01b0319610446612246565b1680156105b5576001600160a01b0319600454826001600160a01b0382167f71e86d7b6261afe37537fed8f42bf15d2ed9344bd8bd3949ea67fdf36a5e55545f80a31617600455005b7fd92e233d000000000000000000000000000000000000000000000000000000005f5260045ffd5b346103fd5760403660031901126103fd576105f6612246565b6001600160a01b0361064061060961225c565b926001600160a01b03165f527f52c63247e1f47db19d5ce0460030c497f067ca4cebf71ba98eeadabe20bace0160205260405f2090565b91165f52602052602060405f2054604051908152f35b346103fd5760403660031901126103fd5761066f612246565b602435906001600160e01b0319821682036103fd5760209161069091612bd5565b6040519015158152f35b346103fd5760203660031901126103fd5760206106bd6106b8612246565b612b97565b604051908152f35b346103fd5760203660031901126103fd5760206106bd6106e3612246565b612b53565b346103fd5760203660031901126103fd5760206106bd610706612246565b612519565b346103fd575f3660031901126103fd5760206001600160a01b037fdd3fd67aef415aded9493b31ad20a02d2991d4bb2760431cc729821271eaea015416604051908152f35b346103fd5760a03660031901126103fd57610769612246565b5061077261225c565b5060443567ffffffffffffffff81116103fd576107939036906004016122ca565b505060643567ffffffffffffffff81116103fd576107b59036906004016122ca565b505060843567ffffffffffffffff81116103fd576107d7903690600401612272565b505060206040517fbc197c81000000000000000000000000000000000000000000000000000000008152f35b50346103fd5760203660031901126103fd576102f06001600160e01b031961082c921633612bd5565b6108376004356128d8565b005b346103fd5760206106bd61084c366122fb565b9161085561315d565b61085d61315d565b612642565b346103fd57610870366122fb565b50505061087b61315d565b7f797f246a000000000000000000000000000000000000000000000000000000005f5260045ffd5b346103fd5760203660031901126103fd5760206106bd600435612ce0565b346103fd575f3660031901126103fd576020600354604051908152f35b346103fd575f3660031901126103fd576020600654604051908152f35b346103fd5760403660031901126103fd57610921610917612246565b6024359033612d8c565b602060405160018152f35b346103fd575f3660031901126103fd576040515f7f52c63247e1f47db19d5ce0460030c497f067ca4cebf71ba98eeadabe20bace045461096b81612489565b8084529060018116908115610a105750600114610993575b6103ad8361039981850382612335565b7f52c63247e1f47db19d5ce0460030c497f067ca4cebf71ba98eeadabe20bace045f9081527f46a2803e59a4de4e7a4c574b1243f25977ac4c77d5a1a4a609b5394cebb4a2aa939250905b8082106109f657509091508101602001610399610983565b9192600181602092548385880101520191019092916109de565b60ff191660208086019190915291151560051b840190910191506103999050610983565b346103fd5760403660031901126103fd57600435610a5061225c565b90610a5961315d565b610a6282612519565b808211610a81576020836106bd84610a7981612ce0565b809333613285565b916001600160a01b03907f284ff667000000000000000000000000000000000000000000000000000000005f521660045260245260445260645ffd5b346103fd5760c03660031901126103fd576004356001600160a01b0381168082036103fd57610aea61225c565b604435906001600160a01b0382168092036103fd57606435926001600160a01b0384168094036103fd5760843567ffffffffffffffff81116103fd57610b349036906004016123a9565b9460a43567ffffffffffffffff81116103fd57610b559036906004016123a9565b7ff0c57e16840df040f15088dc2f81fe391c3923bec73e23a9662efc9c229c6a00549660ff8860401c16159767ffffffffffffffff8116801590816112b1575b60011490816112a7575b15908161129e575b506112765767ffffffffffffffff1981166001177ff0c57e16840df040f15088dc2f81fe391c3923bec73e23a9662efc9c229c6a005588611237575b50610bec613443565b610bf4613443565b610bfc613443565b80519067ffffffffffffffff82116110e7578190610c3a7f52c63247e1f47db19d5ce0460030c497f067ca4cebf71ba98eeadabe20bace0354612489565b601f81116111aa575b50602090601f8311600114611106575f926110fb575b50508160011b915f199060031b1c1916177f52c63247e1f47db19d5ce0460030c497f067ca4cebf71ba98eeadabe20bace03555b80519067ffffffffffffffff82116110e757610cc97f52c63247e1f47db19d5ce0460030c497f067ca4cebf71ba98eeadabe20bace0454612489565b601f8111611065575b50602090601f8311600114610fb45791806001600160a01b0396959492610d43945f92610fa9575b50508160011b915f199060031b1c1916177f52c63247e1f47db19d5ce0460030c497f067ca4cebf71ba98eeadabe20bace04555b610d36613443565b610d3e613443565b6135a5565b9015610fa1575b7fffffffffffffffffffffff00000000000000000000000000000000000000000074ff00000000000000000000000000000000000000007f0773e532dfede91f04b12a73d3d2acd361424f41f76b4fb79f090161e36b4e00549260a01b16911617177f0773e532dfede91f04b12a73d3d2acd361424f41f76b4fb79f090161e36b4e0055610dd6613443565b16806001600160a01b03197fdd3fd67aef415aded9493b31ad20a02d2991d4bb2760431cc729821271eaea005416177fdd3fd67aef415aded9493b31ad20a02d2991d4bb2760431cc729821271eaea00556001600160a01b03197fdd3fd67aef415aded9493b31ad20a02d2991d4bb2760431cc729821271eaea0154167fdd3fd67aef415aded9493b31ad20a02d2991d4bb2760431cc729821271eaea0155337f8be0079c531659141344cd1fd0a4f28419497f9722a3daafe3b4186f6b6457e05f80a35f337fa3396fd7f6e0a21b50e5089d2da70d5ac0a3bbbd1f617a93f134b763899801988280a3610ec8613443565b610ed0613443565b60ff195f51602061367e5f395f51905f5254165f51602061367e5f395f51905f525580156105b55781156105b5576001600160a01b03195f5416175f556001600160a01b03196004541617600455610f2457005b68ff0000000000000000197ff0c57e16840df040f15088dc2f81fe391c3923bec73e23a9662efc9c229c6a0054167ff0c57e16840df040f15088dc2f81fe391c3923bec73e23a9662efc9c229c6a00557fc7f505b2f371ae2175ee4913f4499e1f2633a7b5936321eed1cdaeb6115181d2602060405160018152a1005b506012610d4a565b015190508a80610cfa565b90601f198316917f52c63247e1f47db19d5ce0460030c497f067ca4cebf71ba98eeadabe20bace045f52815f20925f5b81811061104d5750926001928592610d43966001600160a01b039a99989610611035575b505050811b017f52c63247e1f47db19d5ce0460030c497f067ca4cebf71ba98eeadabe20bace0455610d2e565b01515f1960f88460031b161c191690558a8080611008565b92936020600181928786015181550195019301610fe4565b7f52c63247e1f47db19d5ce0460030c497f067ca4cebf71ba98eeadabe20bace045f527f46a2803e59a4de4e7a4c574b1243f25977ac4c77d5a1a4a609b5394cebb4a2aa601f840160051c810191602085106110dd575b601f0160051c01905b8181106110d25750610cd2565b5f81556001016110c5565b90915081906110bc565b634e487b7160e01b5f52604160045260245ffd5b015190508980610c59565b7f52c63247e1f47db19d5ce0460030c497f067ca4cebf71ba98eeadabe20bace035f9081528281209350601f198516905b818110611192575090846001959493921061117a575b505050811b017f52c63247e1f47db19d5ce0460030c497f067ca4cebf71ba98eeadabe20bace0355610c8d565b01515f1960f88460031b161c1916905589808061114d565b92936020600181928786015181550195019301611137565b7f52c63247e1f47db19d5ce0460030c497f067ca4cebf71ba98eeadabe20bace035f529091507f2ae08a8e29253f69ac5d979a101956ab8f8d9d7ded63fa7a83b16fc47648eab0601f840160051c8101916020851061122d575b90601f859493920160051c01905b81811061121f5750610c43565b5f8155849350600101611212565b9091508190611204565b68ffffffffffffffffff191668010000000000000001177ff0c57e16840df040f15088dc2f81fe391c3923bec73e23a9662efc9c229c6a005588610be3565b7ff92ee8a9000000000000000000000000000000000000000000000000000000005f5260045ffd5b9050158a610ba7565b303b159150610b9f565b8a9150610b95565b346103fd575f3660031901126103fd5760206001600160a01b037fdd3fd67aef415aded9493b31ad20a02d2991d4bb2760431cc729821271eaea005416604051908152f35b50346103fd575f3660031901126103fd576102f06001600160e01b0319611326921633612bd5565b61132e61315d565b600160ff195f51602061367e5f395f51905f525416175f51602061367e5f395f51905f52557f62e78cea01bee320cd4e420270b5ea74000d11b0c9f74754ebdbfc544b05a2586020604051338152a1005b346103fd575f3660031901126103fd57602460206001600160a01b037f0773e532dfede91f04b12a73d3d2acd361424f41f76b4fb79f090161e36b4e005416604051928380926370a0823160e01b82523060048301525afa908115610409575f91611408575b5060065490818111156113fe576020916106bd9161250c565b505060205f6106bd565b90506020813d602011611432575b8161142360209383612335565b810103126103fd5751816113e5565b3d9150611416565b346103fd5760206106bd61144d366122fb565b9161085d61315d565b50346103fd5760603660031901126103fd5760043567ffffffffffffffff81116103fd576114889036906004016122ca565b9060243567ffffffffffffffff81116103fd576114a99036906004016122ca565b909360443567ffffffffffffffff81116103fd576114e46102f06114da6001600160e01b03199336906004016122ca565b9390941633612bd5565b828514806117a3575b1561175f575f5b8581106114fd57005b61151161150b82868a612546565b9061259c565b9061159a6020836001600160a01b037fdd3fd67aef415aded9493b31ad20a02d2991d4bb2760431cc729821271eaea015416611556611551868d8d6125d2565b6125e2565b60405163b700961360e01b81523360048201526001600160a01b0390911660248201526001600160e01b031990921660448301529092839190829081906064820190565b03915afa9283156104095784898b8989978c965f9161168a575b508861165f89876116596115518360019f9a6116538f9d839f9c7f2f13a569f6d2fba5618730b89cb049a8d430f6bd0aa6eea26e948d8d663d7c769f6001600160e01b03199f8f6116819f6001600160a01b039f89809261163c611551838d8a61163761164a9a611642996116316103939f8787611551926125d2565b906125f6565b6125d2565b97612546565b9690936125d2565b35933691612373565b9e6125d2565b936125d2565b35604051958695168552602085015260606040850152169560608301906121e9565b0390a3016114f4565b9850505050505090506020833d8211611757575b816116ab60209383612335565b810103126103fd57817f2f13a569f6d2fba5618730b89cb049a8d430f6bd0aa6eea26e948d8d663d7c766001600160e01b0319836116816001600160a01b038a8f8f8f998f6115518f9260019f946116538f8f97986103938b61164a8b6116428161165f9f9c61163c8f996116599f8d859f926116376115519461172f8995612539565b9f50505050505050509f50505050509f50509c9f509950509a9f5050505097505092506115b4565b3d915061169e565b606460405162461bcd60e51b815260206004820152601560248201527f4172726179206c656e677468206d69736d6174636800000000000000000000006044820152fd5b508083146114ed565b50346103fd5760203660031901126103fd57600435906001600160a01b0382168092036103fd576001600160a01b037fdd3fd67aef415aded9493b31ad20a02d2991d4bb2760431cc729821271eaea0054163314908115611885575b50156103fd57806001600160a01b03197fdd3fd67aef415aded9493b31ad20a02d2991d4bb2760431cc729821271eaea015416177fdd3fd67aef415aded9493b31ad20a02d2991d4bb2760431cc729821271eaea0155337fa3396fd7f6e0a21b50e5089d2da70d5ac0a3bbbd1f617a93f134b763899801985f80a3005b7fdd3fd67aef415aded9493b31ad20a02d2991d4bb2760431cc729821271eaea015460405163b700961360e01b81523360048201523060248201526001600160e01b0319929092166044830152909150602090829060649082906001600160a01b03165afa908115610409575f916118ff575b505f611808565b90506020813d602011611931575b8161191a60209383612335565b810103126103fd5761192b90612539565b5f6118f8565b3d915061190d565b346103fd575f3660031901126103fd576020600254604051908152f35b346103fd575f3660031901126103fd5760206001600160a01b035f5416604051908152f35b346103fd5760203660031901126103fd5760206106bd611999612246565b6001600160a01b03165f525f51602061363e5f395f51905f5260205260405f205490565b346103fd5760403660031901126103fd576004356119d961225c565b906119e261315d565b6119eb82612519565b808211611a0b57506106bd602092611a0283612d53565b92839133613285565b916001600160a01b03907f79012fb2000000000000000000000000000000000000000000000000000000005f521660045260245260445260645ffd5b50346103fd576001600160e01b0319906102f0611a72611a66366122a0565b93919590941633612bd5565b6001600160a01b03831692835f52600560205260405f209384549485151580611b6d575b15611b4557600181019081549687151580611b3b575b15611b135761083797611acb92611ac489899461250c565b905561250c565b9055611ad98360065461250c565b6006557f1165aa98d42fbaef9bacc273d7b5cca8edc94909519f8f949ec33562963c87e460408051868152856020820152a2309030612fc6565b7f3b832713000000000000000000000000000000000000000000000000000000005f5260045ffd5b5087861115611aac565b7f01e3468e000000000000000000000000000000000000000000000000000000005f5260045ffd5b5085851115611a96565b346103fd575f3660031901126103fd57602060ff5f51602061367e5f395f51905f5254166040519015158152f35b50346103fd5760203660031901126103fd576001600160a01b0390611bd76102f06001600160e01b0319610446612246565b1680156105b5576001600160a01b03195f54826001600160a01b0382167fe02404e8ee2b8389e3dd58c236f6b16e91da18f91ef4a5a763a94517394ce96b5f80a316175f55005b346103fd5760203660031901126103fd5760406001600160a01b03611c41612246565b16805f5260056020526001825f200154905f526005602052815f205482519182526020820152f35b612228565b50346103fd575f3660031901126103fd576102f06001600160e01b0319611c96921633612bd5565b5f51602061367e5f395f51905f525460ff811615611ced5760ff19165f51602061367e5f395f51905f52557f5db9ee0a495bf2e6ff9c91a7834c1ba4fdd244a5e8aa4e537bd38aeae4b073aa6020604051338152a1005b7f8dfc202b000000000000000000000000000000000000000000000000000000005f5260045ffd5b346103fd575f3660031901126103fd5760206001600160a01b037f0773e532dfede91f04b12a73d3d2acd361424f41f76b4fb79f090161e36b4e005416604051908152f35b346103fd575f3660031901126103fd5760ff7f0773e532dfede91f04b12a73d3d2acd361424f41f76b4fb79f090161e36b4e005460a01c1660ff8111611da557602090604051908152f35b634e487b7160e01b5f52601160045260245ffd5b346103fd5760603660031901126103fd57610921611dd5612246565b611ddd61225c565b60443591611dec833383612eaa565b612d8c565b50346103fd576102f0906001600160e01b0319611e1c611e10366122a0565b95919390941633612bd5565b6001600160a01b038116805f52600560205260405f209384549081151580611ebd575b15611b4557600186019081549182151580611eb3575b15611b1357611e90826040946108379a611ac48b7f55ec94ca0f01023d07c5752a75f44048cfbdb0e4cfedf5e7eacecf21fcde35879961250c565b9055611e9e8160065461250c565b6006558151908682526020820152a230612d8c565b5082821115611e55565b5081851115611e3f565b346103fd575f3660031901126103fd5760205f51602061365e5f395f51905f5254604051908152f35b346103fd575f3660031901126103fd5760206001600160a01b0360045416604051908152f35b346103fd5760803660031901126103fd57611f2f612246565b50611f3861225c565b5060643567ffffffffffffffff81116103fd57611f59903690600401612272565b505060206040517f150b7a02000000000000000000000000000000000000000000000000000000008152f35b346103fd5760203660031901126103fd575f51602061365e5f395f51905f525460018101809111611da557611fb86123f2565b60018101809111611da55760016106bd91602093600435613227565b346103fd5760403660031901126103fd57611fed612246565b6024359033156120a3576001600160a01b031690811561207757335f9081527f52c63247e1f47db19d5ce0460030c497f067ca4cebf71ba98eeadabe20bace0160205260409020825f526020528060405f20556040519081527f8c5be1e5ebec7d5bd14f71427d1e84f3dd0314c0f7b2291e5b200ac8c7c3b92560203392a3602060405160018152f35b7f94280d62000000000000000000000000000000000000000000000000000000005f525f60045260245ffd5b7fe602df05000000000000000000000000000000000000000000000000000000005f525f60045260245ffd5b346103fd575f3660031901126103fd576040515f7f52c63247e1f47db19d5ce0460030c497f067ca4cebf71ba98eeadabe20bace035461210e81612489565b8084529060018116908115610a105750600114612135576103ad8361039981850382612335565b7f52c63247e1f47db19d5ce0460030c497f067ca4cebf71ba98eeadabe20bace035f9081527f2ae08a8e29253f69ac5d979a101956ab8f8d9d7ded63fa7a83b16fc47648eab0939250905b80821061219857509091508101602001610399610983565b919260018160209254838588010152019101909291612180565b346103fd575f3660031901126103fd576020600154604051908152f35b346103fd575f3660031901126103fd5760206106bd6123f2565b91908251928382525f5b848110612213575050825f602080949584010152601f8019910116010190565b806020809284010151828286010152016121f3565b346103fd5760203660031901126103fd5760206106bd600435612d1a565b600435906001600160a01b03821682036103fd57565b602435906001600160a01b03821682036103fd57565b9181601f840112156103fd5782359167ffffffffffffffff83116103fd57602083818601950101116103fd57565b60609060031901126103fd576004356001600160a01b03811681036103fd57906024359060443590565b9181601f840112156103fd5782359167ffffffffffffffff83116103fd576020808501948460051b0101116103fd57565b60609060031901126103fd57600435906024356001600160a01b03811681036103fd57906044356001600160a01b03811681036103fd5790565b90601f8019910116810190811067ffffffffffffffff8211176110e757604052565b67ffffffffffffffff81116110e757601f01601f191660200190565b92919261237f82612357565b9161238d6040519384612335565b8294818452818301116103fd578281602093845f960137010152565b9080601f830112156103fd578160206123c493359101612373565b90565b346103fd5760203660031901126103fd5760206106bd600435612d53565b91908201809211611da557565b602460206001600160a01b037f0773e532dfede91f04b12a73d3d2acd361424f41f76b4fb79f090161e36b4e005416604051928380926370a0823160e01b82523060048301525afa8015610409575f90612455575b6123c49150600154906123e5565b506020813d602011612481575b8161246f60209383612335565b810103126103fd576123c49051612447565b3d9150612462565b90600182811c921680156124b7575b60208310146124a357565b634e487b7160e01b5f52602260045260245ffd5b91607f1691612498565b156124c857565b606460405162461bcd60e51b815260206004820152600c60248201527f554e415554484f52495a454400000000000000000000000000000000000000006044820152fd5b91908203918211611da557565b5060ff5f51602061367e5f395f51905f525416612535575f1990565b5f90565b519081151582036103fd57565b91908110156125885760051b81013590601e19813603018212156103fd57019081359167ffffffffffffffff83116103fd5760200182360381136103fd579190565b634e487b7160e01b5f52603260045260245ffd5b919091356001600160e01b0319811692600481106125b8575050565b6001600160e01b0319929350829060040360031b1b161690565b91908110156125885760051b0190565b356001600160a01b03811681036103fd5790565b156125ff575050565b906001600160a01b036001600160e01b0319927ffb563026000000000000000000000000000000000000000000000000000000005f52166004521660245260445ffd5b9081156128b0576001600160a01b0383169133830361288857825f525f51602061363e5f395f51905f526020528060405f2054106128605761268381612d1a565b936001600160a01b036004541692604051957f51eda43e000000000000000000000000000000000000000000000000000000008752306004880152836024880152604487015284606487015260408660a4815f6001600160a01b038616988960848401525af1958615610409575f905f9761281d575b506002811015612809578061275157509161273a8187847f9a626d8a4952950c7f8b9f5c92a2804e44e147ce4dd0add2f5928f1faea7259096606096612fc6565b60405190868252602082015260016040820152a390565b94959394929391926001141590506127e157826127937f9a626d8a4952950c7f8b9f5c92a2804e44e147ce4dd0add2f5928f1faea72590946060943090612d8c565b61279f826006546123e5565b600655845f526005602052600160405f206127bb8382546123e5565b8155016127c98382546123e5565b905560405191825260208201525f6040820152a35f90565b7f03e28a1b000000000000000000000000000000000000000000000000000000005f5260045ffd5b634e487b7160e01b5f52602160045260245ffd5b9650506040863d604011612858575b8161283960409383612335565b810103126103fd5785519560028710156103fd5760200151955f6126f9565b3d915061282c565b7f39996567000000000000000000000000000000000000000000000000000000005f5260045ffd5b7fe7fe5cf4000000000000000000000000000000000000000000000000000000005f5260045ffd5b7f840c364a000000000000000000000000000000000000000000000000000000005f5260045ffd5b600254431115612b2b576001600160a01b035f54169060035460245f51602061365e5f395f51905f525460206001600160a01b037f0773e532dfede91f04b12a73d3d2acd361424f41f76b4fb79f090161e36b4e005416604051938480926370a0823160e01b82523060048301525afa918215610409575f92612af6575b50906084604092835196879384927f1faab223000000000000000000000000000000000000000000000000000000008452876004850152602484015260448301528660648301525afa928315610409575f905f94612ab5575b5015612a2857508060015581600355436002556040519080825260208201527f9b01f304f89acbc3f9ca1425e6ce22d5f57df58c42b9adc0dac4c4a71236f98e60404292a26040519080825260208201527f3f22d682a7202099eeac8a14fda6f2bbcadb8b7e2a83b665b69776e8d606151660404292a2565b919050612a3361315d565b600160ff195f51602061367e5f395f51905f525416175f51602061367e5f395f51905f52557f62e78cea01bee320cd4e420270b5ea74000d11b0c9f74754ebdbfc544b05a2586020604051338152a160405191825260208201527f624f9968f9037cc40b91b22280a8f1a3f1fd95e6d2f00e1d7ae4aa10ff2e59c460404292a2565b9350506040833d604011612aee575b81612ad160409383612335565b810103126103fd576020612ae484612539565b930151925f6129af565b3d9150612ac4565b91506020823d602011612b23575b81612b1160209383612335565b810103126103fd579051906084612956565b3d9150612b04565b7f95628bbc000000000000000000000000000000000000000000000000000000005f5260045ffd5b60ff5f51602061367e5f395f51905f525416612b92576001600160a01b03165f525f51602061363e5f395f51905f526020526123c460405f2054612d1a565b505f90565b60ff5f51602061367e5f395f51905f525416612b92576123c4906001600160a01b03165f525f51602061363e5f395f51905f5260205260405f205490565b6001600160a01b037fdd3fd67aef415aded9493b31ad20a02d2991d4bb2760431cc729821271eaea015416918215159283612c4b575b50508115612c17575090565b90506001600160a01b03807fdd3fd67aef415aded9493b31ad20a02d2991d4bb2760431cc729821271eaea00541691161490565b60405163b700961360e01b81526001600160a01b03841660048201523060248201526001600160e01b031992909216604483015291925090602090829060649082905afa908115610409575f91612ca6575b50905f80612c0b565b90506020813d602011612cd8575b81612cc160209383612335565b810103126103fd57612cd290612539565b5f612c9d565b3d9150612cb4565b612ce86123f2565b9060018201809211611da5575f51602061365e5f395f51905f525460018101809111611da5576123c492600192613227565b612d226123f2565b9060018201809211611da5575f51602061365e5f395f51905f525460018101809111611da5576123c4925f92613227565b5f51602061365e5f395f51905f52549060018201809211611da557612d766123f2565b60018101809111611da5576123c4925f92613227565b6001600160a01b0316908115612e7e576001600160a01b0316918215612e5257612db461315d565b815f525f51602061363e5f395f51905f5260205260405f2054818110612e3957817fddf252ad1be2c89b69c2b068fc378daa952ba7f163c4a11628f55a4df523b3ef92602092855f525f51602061363e5f395f51905f5284520360405f2055845f525f51602061363e5f395f51905f52825260405f20818154019055604051908152a3565b8263391434e360e21b5f5260045260245260445260645ffd5b7fec442f05000000000000000000000000000000000000000000000000000000005f525f60045260245ffd5b7f96c6fd1e000000000000000000000000000000000000000000000000000000005f525f60045260245ffd5b9190612ee6836001600160a01b03165f527f52c63247e1f47db19d5ce0460030c497f067ca4cebf71ba98eeadabe20bace0160205260405f2090565b6001600160a01b0382165f5260205260405f2054925f198410612f0a575b50505050565b828410612f89576001600160a01b038116156120a3576001600160a01b0382161561207757612f716001600160a01b03916001600160a01b03165f527f52c63247e1f47db19d5ce0460030c497f067ca4cebf71ba98eeadabe20bace0160205260405f2090565b91165f5260205260405f20910390555f808080612f04565b506001600160a01b0383917ffb8f41b2000000000000000000000000000000000000000000000000000000005f521660045260245260445260645ffd5b91936001600160a01b03851694816001600160a01b0385169487860361314c575b5050508415612e7e57612ff861315d565b845f525f51602061363e5f395f51905f5260205260405f2054818110613133577ffbde797d201c681b91056529119e0b02407c7bb96a4a2c75c01fc9667232c8db92826040936001600160a01b0393895f525f51602061363e5f395f51905f5260205203845f2055805f51602061365e5f395f51905f5254035f51602061365e5f395f51905f52555f887fddf252ad1be2c89b69c2b068fc378daa952ba7f163c4a11628f55a4df523b3ef60208751858152a37f0773e532dfede91f04b12a73d3d2acd361424f41f76b4fb79f090161e36b4e005484517fa9059cbb0000000000000000000000000000000000000000000000000000000060208201526001600160a01b038416602482015260448082018a9052815261312491851661311f606483612335565b613538565b835196875260208701521693a4565b8563391434e360e21b5f5260045260245260445260645ffd5b61315592612eaa565b5f8181612fe7565b60ff5f51602061367e5f395f51905f52541661317557565b7fd93c0665000000000000000000000000000000000000000000000000000000005f5260045ffd5b3d156131c7573d906131ae82612357565b916131bc6040519384612335565b82523d5f602084013e565b606090565b909291928347106131f7575f816123c494956020839451920190855af16131f161319d565b916133b7565b83477fcf479181000000000000000000000000000000000000000000000000000000005f5260045260245260445ffd5b929161323481838661349a565b92600481101561280957600180911614918261325a575b50506123c492501515906123e5565b9080925015613271576123c4930915155f8061324b565b634e487b7160e01b5f52601260045260245ffd5b91906001600160a01b0390613306827f0773e532dfede91f04b12a73d3d2acd361424f41f76b4fb79f090161e36b4e0054169483604051917f23b872dd00000000000000000000000000000000000000000000000000000000602084015216958660248301523060448301528560648301526064825261311f608483612335565b16928315612e52577fdcbc1c05240f31ff3ad067ef1ee35ce4997762752e3a095284754544f4c709d79160409161333b61315d565b613353815f51602061365e5f395f51905f52546123e5565b5f51602061365e5f395f51905f5255855f525f51602061363e5f395f51905f52602052825f20818154019055855f7fddf252ad1be2c89b69c2b068fc378daa952ba7f163c4a11628f55a4df523b3ef60208651858152a382519182526020820152a3565b906133f457508051156133cc57805190602001fd5b7fd6bda275000000000000000000000000000000000000000000000000000000005f5260045ffd5b8151158061343a575b613405575090565b6001600160a01b03907f9996b315000000000000000000000000000000000000000000000000000000005f521660045260245ffd5b50803b156133fd565b60ff7ff0c57e16840df040f15088dc2f81fe391c3923bec73e23a9662efc9c229c6a005460401c161561347257565b7fd7e6bcf8000000000000000000000000000000000000000000000000000000005f5260045ffd5b91818302915f198185099383808610950394808603951461352a57848311156135125790829109815f0382168092046002816003021880820260020302808202600203028082026002030280820260020302808202600203028091026002030293600183805f03040190848311900302920304170290565b82634e487b715f52156003026011186020526024601cfd5b505080925015613271570490565b905f602091828151910182855af115610409575f513d61359c57506001600160a01b0381163b155b6135675750565b6001600160a01b03907f5274afe7000000000000000000000000000000000000000000000000000000005f521660045260245ffd5b60011415613560565b5f80916040516001600160a01b0360208201917f313ce567000000000000000000000000000000000000000000000000000000008352600481526135ea602482612335565b5192165afa6135f761319d565b9080613631575b61360a575b505f905f90565b602081519181808201938492010103126103fd575160ff8111613603579060ff6001921690565b506020815110156135fe56fe52c63247e1f47db19d5ce0460030c497f067ca4cebf71ba98eeadabe20bace0052c63247e1f47db19d5ce0460030c497f067ca4cebf71ba98eeadabe20bace02cd5ed15c6e187e77e9aee88184c21f4f2182ab5827cb3b7e07fbedcd63f03300a164736f6c634300081c000af0c57e16840df040f15088dc2f81fe391c3923bec73e23a9662efc9c229c6a00","linkReferences":{}},"methodIdentifiers":{"aggregatedUnderlyingBalances()":"03d4113b","allowance(address,address)":"dd62ed3e","approve(address,uint256)":"095ea7b3","asset()":"38d52e0f","authority()":"bf7e214f","balanceOf(address)":"70a08231","balanceUpdateHook()":"73399570","cancelRedeem(address,uint256,uint256)":"1cd1c8c3","convertToAssets(uint256)":"07a2d13a","convertToShares(uint256)":"c6e6f592","decimals()":"313ce567","deposit(uint256,address)":"6e553f65","fulfillRedeem(address,uint256,uint256)":"6442b2ba","getAvailableBalance()":"809dab6a","initialize(address,address,address,address,string,string)":"9317c200","isAuthorized(address,bytes4)":"d9972b96","lastBlockUpdated()":"760f5f27","lastPricePerShare()":"ac9dc9e8","manage(address,bytes,uint256)":"f6e715d0","manageBatch(address[],bytes[],uint256[])":"7c9e6cfd","maxDeposit(address)":"402d267d","maxMint(address)":"c63d75b6","maxRedeem(address)":"d905777e","maxWithdraw(address)":"ce96cb77","mint(uint256,address)":"94bf804d","name()":"06fdde03","onERC1155BatchReceived(address,address,uint256[],uint256[],bytes)":"bc197c81","onERC1155Received(address,address,uint256,uint256,bytes)":"f23a6e61","onERC721Received(address,address,uint256,bytes)":"150b7a02","owner()":"8da5cb5b","pause()":"8456cb59","paused()":"5c975abb","pendingRedeemRequest(address)":"53dc1dd3","previewDeposit(uint256)":"ef8b30f7","previewMint(uint256)":"b3d7f6b9","previewRedeem(uint256)":"4cdad506","previewWithdraw(uint256)":"0a28a477","redeem(uint256,address,address)":"ba087652","redemptionHook()":"16f020d6","requestRedeem(uint256,address,address)":"7d41c86e","setAuthority(address)":"7a9e5e4b","setBalanceUpdateHook(address)":"560b2318","setRedemptionHook(address)":"e8ccdf3f","symbol()":"95d89b41","totalAssets()":"01e1d114","totalPendingAssets()":"ab4f0f01","totalSupply()":"18160ddd","transfer(address,uint256)":"a9059cbb","transferFrom(address,address,uint256)":"23b872dd","transferOwnership(address)":"f2fde38b","unpause()":"3f4ba83a","updateBalance(uint256)":"ba7b37d4","withdraw(uint256,address,address)":"b460af94"},"storageLayout":{"storage":[{"astId":48558,"contract":"src/ElitraVault.sol:ElitraVault","label":"balanceUpdateHook","offset":0,"slot":"0","type":"t_contract(IBalanceUpdateHook)51764"},{"astId":48560,"contract":"src/ElitraVault.sol:ElitraVault","label":"aggregatedUnderlyingBalances","offset":0,"slot":"1","type":"t_uint256"},{"astId":48562,"contract":"src/ElitraVault.sol:ElitraVault","label":"lastBlockUpdated","offset":0,"slot":"2","type":"t_uint256"},{"astId":48564,"contract":"src/ElitraVault.sol:ElitraVault","label":"lastPricePerShare","offset":0,"slot":"3","type":"t_uint256"},{"astId":48567,"contract":"src/ElitraVault.sol:ElitraVault","label":"redemptionHook","offset":0,"slot":"4","type":"t_contract(IRedemptionHook)52276"},{"astId":48572,"contract":"src/ElitraVault.sol:ElitraVault","label":"_pendingRedeem","offset":0,"slot":"5","type":"t_mapping(t_address,t_struct(PendingRedeem)51781_storage)"},{"astId":48574,"contract":"src/ElitraVault.sol:ElitraVault","label":"totalPendingAssets","offset":0,"slot":"6","type":"t_uint256"}],"types":{"t_address":{"encoding":"inplace","label":"address","numberOfBytes":"20"},"t_contract(IBalanceUpdateHook)51764":{"encoding":"inplace","label":"contract IBalanceUpdateHook","numberOfBytes":"20"},"t_contract(IRedemptionHook)52276":{"encoding":"inplace","label":"contract IRedemptionHook","numberOfBytes":"20"},"t_mapping(t_address,t_struct(PendingRedeem)51781_storage)":{"encoding":"mapping","key":"t_address","label":"mapping(address => struct IElitraVault.PendingRedeem)","numberOfBytes":"32","value":"t_struct(PendingRedeem)51781_storage"},"t_struct(PendingRedeem)51781_storage":{"encoding":"inplace","label":"struct IElitraVault.PendingRedeem","numberOfBytes":"64","members":[{"astId":51778,"contract":"src/ElitraVault.sol:ElitraVault","label":"shares","offset":0,"slot":"0","type":"t_uint256"},{"astId":51780,"contract":"src/ElitraVault.sol:ElitraVault","label":"assets","offset":0,"slot":"1","type":"t_uint256"}]},"t_uint256":{"encoding":"inplace","label":"uint256","numberOfBytes":"32"}}},"id":75}