{"abi":[{"type":"constructor","inputs":[],"stateMutability":"nonpayable"},{"type":"receive","stateMutability":"payable"},{"type":"function","name":"aggregatedUnderlyingBalances","inputs":[],"outputs":[{"name":"","type":"uint256","internalType":"uint256"}],"stateMutability":"view"},{"type":"function","name":"allowance","inputs":[{"name":"owner","type":"address","internalType":"address"},{"name":"spender","type":"address","internalType":"address"}],"outputs":[{"name":"","type":"uint256","internalType":"uint256"}],"stateMutability":"view"},{"type":"function","name":"approve","inputs":[{"name":"spender","type":"address","internalType":"address"},{"name":"value","type":"uint256","internalType":"uint256"}],"outputs":[{"name":"","type":"bool","internalType":"bool"}],"stateMutability":"nonpayable"},{"type":"function","name":"asset","inputs":[],"outputs":[{"name":"","type":"address","internalType":"address"}],"stateMutability":"view"},{"type":"function","name":"authority","inputs":[],"outputs":[{"name":"","type":"address","internalType":"contract Authority"}],"stateMutability":"view"},{"type":"function","name":"balanceOf","inputs":[{"name":"account","type":"address","internalType":"address"}],"outputs":[{"name":"","type":"uint256","internalType":"uint256"}],"stateMutability":"view"},{"type":"function","name":"balanceUpdateHook","inputs":[],"outputs":[{"name":"","type":"address","internalType":"contract IBalanceUpdateHook"}],"stateMutability":"view"},{"type":"function","name":"cancelRedeem","inputs":[{"name":"receiver","type":"address","internalType":"address"},{"name":"shares","type":"uint256","internalType":"uint256"},{"name":"assets","type":"uint256","internalType":"uint256"}],"outputs":[],"stateMutability":"nonpayable"},{"type":"function","name":"convertToAssets","inputs":[{"name":"shares","type":"uint256","internalType":"uint256"}],"outputs":[{"name":"","type":"uint256","internalType":"uint256"}],"stateMutability":"view"},{"type":"function","name":"convertToShares","inputs":[{"name":"assets","type":"uint256","internalType":"uint256"}],"outputs":[{"name":"","type":"uint256","internalType":"uint256"}],"stateMutability":"view"},{"type":"function","name":"decimals","inputs":[],"outputs":[{"name":"","type":"uint8","internalType":"uint8"}],"stateMutability":"view"},{"type":"function","name":"deposit","inputs":[{"name":"assets","type":"uint256","internalType":"uint256"},{"name":"receiver","type":"address","internalType":"address"}],"outputs":[{"name":"","type":"uint256","internalType":"uint256"}],"stateMutability":"nonpayable"},{"type":"function","name":"fulfillRedeem","inputs":[{"name":"receiver","type":"address","internalType":"address"},{"name":"shares","type":"uint256","internalType":"uint256"},{"name":"assets","type":"uint256","internalType":"uint256"}],"outputs":[],"stateMutability":"nonpayable"},{"type":"function","name":"getAvailableBalance","inputs":[],"outputs":[{"name":"","type":"uint256","internalType":"uint256"}],"stateMutability":"view"},{"type":"function","name":"initialize","inputs":[{"name":"_asset","type":"address","internalType":"contract IERC20"},{"name":"_owner","type":"address","internalType":"address"},{"name":"_balanceUpdateHook","type":"address","internalType":"contract IBalanceUpdateHook"},{"name":"_redemptionHook","type":"address","internalType":"contract IRedemptionHook"},{"name":"_name","type":"string","internalType":"string"},{"name":"_symbol","type":"string","internalType":"string"}],"outputs":[],"stateMutability":"nonpayable"},{"type":"function","name":"isAuthorized","inputs":[{"name":"user","type":"address","internalType":"address"},{"name":"functionSig","type":"bytes4","internalType":"bytes4"}],"outputs":[{"name":"","type":"bool","internalType":"bool"}],"stateMutability":"view"},{"type":"function","name":"lastBlockUpdated","inputs":[],"outputs":[{"name":"","type":"uint256","internalType":"uint256"}],"stateMutability":"view"},{"type":"function","name":"lastPricePerShare","inputs":[],"outputs":[{"name":"","type":"uint256","internalType":"uint256"}],"stateMutability":"view"},{"type":"function","name":"manage","inputs":[{"name":"target","type":"address","internalType":"address"},{"name":"data","type":"bytes","internalType":"bytes"},{"name":"value","type":"uint256","internalType":"uint256"}],"outputs":[{"name":"result","type":"bytes","internalType":"bytes"}],"stateMutability":"nonpayable"},{"type":"function","name":"manageBatch","inputs":[{"name":"calls","type":"tuple[]","internalType":"struct Call[]","components":[{"name":"target","type":"address","internalType":"address"},{"name":"data","type":"bytes","internalType":"bytes"},{"name":"value","type":"uint256","internalType":"uint256"}]}],"outputs":[],"stateMutability":"nonpayable"},{"type":"function","name":"maxDeposit","inputs":[{"name":"receiver","type":"address","internalType":"address"}],"outputs":[{"name":"","type":"uint256","internalType":"uint256"}],"stateMutability":"view"},{"type":"function","name":"maxMint","inputs":[{"name":"receiver","type":"address","internalType":"address"}],"outputs":[{"name":"","type":"uint256","internalType":"uint256"}],"stateMutability":"view"},{"type":"function","name":"maxRedeem","inputs":[{"name":"owner","type":"address","internalType":"address"}],"outputs":[{"name":"","type":"uint256","internalType":"uint256"}],"stateMutability":"view"},{"type":"function","name":"maxWithdraw","inputs":[{"name":"owner","type":"address","internalType":"address"}],"outputs":[{"name":"","type":"uint256","internalType":"uint256"}],"stateMutability":"view"},{"type":"function","name":"mint","inputs":[{"name":"shares","type":"uint256","internalType":"uint256"},{"name":"receiver","type":"address","internalType":"address"}],"outputs":[{"name":"","type":"uint256","internalType":"uint256"}],"stateMutability":"nonpayable"},{"type":"function","name":"name","inputs":[],"outputs":[{"name":"","type":"string","internalType":"string"}],"stateMutability":"view"},{"type":"function","name":"onERC1155BatchReceived","inputs":[{"name":"","type":"address","internalType":"address"},{"name":"","type":"address","internalType":"address"},{"name":"","type":"uint256[]","internalType":"uint256[]"},{"name":"","type":"uint256[]","internalType":"uint256[]"},{"name":"","type":"bytes","internalType":"bytes"}],"outputs":[{"name":"","type":"bytes4","internalType":"bytes4"}],"stateMutability":"pure"},{"type":"function","name":"onERC1155Received","inputs":[{"name":"","type":"address","internalType":"address"},{"name":"","type":"address","internalType":"address"},{"name":"","type":"uint256","internalType":"uint256"},{"name":"","type":"uint256","internalType":"uint256"},{"name":"","type":"bytes","internalType":"bytes"}],"outputs":[{"name":"","type":"bytes4","internalType":"bytes4"}],"stateMutability":"pure"},{"type":"function","name":"onERC721Received","inputs":[{"name":"","type":"address","internalType":"address"},{"name":"","type":"address","internalType":"address"},{"name":"","type":"uint256","internalType":"uint256"},{"name":"","type":"bytes","internalType":"bytes"}],"outputs":[{"name":"","type":"bytes4","internalType":"bytes4"}],"stateMutability":"pure"},{"type":"function","name":"owner","inputs":[],"outputs":[{"name":"","type":"address","internalType":"address"}],"stateMutability":"view"},{"type":"function","name":"pause","inputs":[],"outputs":[],"stateMutability":"nonpayable"},{"type":"function","name":"paused","inputs":[],"outputs":[{"name":"","type":"bool","internalType":"bool"}],"stateMutability":"view"},{"type":"function","name":"pendingRedeemRequest","inputs":[{"name":"user","type":"address","internalType":"address"}],"outputs":[{"name":"assets","type":"uint256","internalType":"uint256"},{"name":"pendingShares","type":"uint256","internalType":"uint256"}],"stateMutability":"view"},{"type":"function","name":"previewDeposit","inputs":[{"name":"assets","type":"uint256","internalType":"uint256"}],"outputs":[{"name":"","type":"uint256","internalType":"uint256"}],"stateMutability":"view"},{"type":"function","name":"previewMint","inputs":[{"name":"shares","type":"uint256","internalType":"uint256"}],"outputs":[{"name":"","type":"uint256","internalType":"uint256"}],"stateMutability":"view"},{"type":"function","name":"previewRedeem","inputs":[{"name":"shares","type":"uint256","internalType":"uint256"}],"outputs":[{"name":"","type":"uint256","internalType":"uint256"}],"stateMutability":"view"},{"type":"function","name":"previewWithdraw","inputs":[{"name":"assets","type":"uint256","internalType":"uint256"}],"outputs":[{"name":"","type":"uint256","internalType":"uint256"}],"stateMutability":"view"},{"type":"function","name":"redeem","inputs":[{"name":"shares","type":"uint256","internalType":"uint256"},{"name":"receiver","type":"address","internalType":"address"},{"name":"owner","type":"address","internalType":"address"}],"outputs":[{"name":"","type":"uint256","internalType":"uint256"}],"stateMutability":"nonpayable"},{"type":"function","name":"redemptionHook","inputs":[],"outputs":[{"name":"","type":"address","internalType":"contract IRedemptionHook"}],"stateMutability":"view"},{"type":"function","name":"requestRedeem","inputs":[{"name":"shares","type":"uint256","internalType":"uint256"},{"name":"receiver","type":"address","internalType":"address"},{"name":"owner","type":"address","internalType":"address"}],"outputs":[{"name":"","type":"uint256","internalType":"uint256"}],"stateMutability":"nonpayable"},{"type":"function","name":"setAuthority","inputs":[{"name":"newAuthority","type":"address","internalType":"contract Authority"}],"outputs":[],"stateMutability":"nonpayable"},{"type":"function","name":"setBalanceUpdateHook","inputs":[{"name":"newAdapter","type":"address","internalType":"contract IBalanceUpdateHook"}],"outputs":[],"stateMutability":"nonpayable"},{"type":"function","name":"setRedemptionHook","inputs":[{"name":"newStrategy","type":"address","internalType":"contract IRedemptionHook"}],"outputs":[],"stateMutability":"nonpayable"},{"type":"function","name":"symbol","inputs":[],"outputs":[{"name":"","type":"string","internalType":"string"}],"stateMutability":"view"},{"type":"function","name":"totalAssets","inputs":[],"outputs":[{"name":"","type":"uint256","internalType":"uint256"}],"stateMutability":"view"},{"type":"function","name":"totalPendingAssets","inputs":[],"outputs":[{"name":"","type":"uint256","internalType":"uint256"}],"stateMutability":"view"},{"type":"function","name":"totalSupply","inputs":[],"outputs":[{"name":"","type":"uint256","internalType":"uint256"}],"stateMutability":"view"},{"type":"function","name":"transfer","inputs":[{"name":"to","type":"address","internalType":"address"},{"name":"value","type":"uint256","internalType":"uint256"}],"outputs":[{"name":"","type":"bool","internalType":"bool"}],"stateMutability":"nonpayable"},{"type":"function","name":"transferFrom","inputs":[{"name":"from","type":"address","internalType":"address"},{"name":"to","type":"address","internalType":"address"},{"name":"value","type":"uint256","internalType":"uint256"}],"outputs":[{"name":"","type":"bool","internalType":"bool"}],"stateMutability":"nonpayable"},{"type":"function","name":"transferOwnership","inputs":[{"name":"newOwner","type":"address","internalType":"address"}],"outputs":[],"stateMutability":"nonpayable"},{"type":"function","name":"unpause","inputs":[],"outputs":[],"stateMutability":"nonpayable"},{"type":"function","name":"updateBalance","inputs":[{"name":"newAggregatedBalance","type":"uint256","internalType":"uint256"}],"outputs":[],"stateMutability":"nonpayable"},{"type":"function","name":"withdraw","inputs":[{"name":"","type":"uint256","internalType":"uint256"},{"name":"","type":"address","internalType":"address"},{"name":"","type":"address","internalType":"address"}],"outputs":[{"name":"","type":"uint256","internalType":"uint256"}],"stateMutability":"nonpayable"},{"type":"event","name":"Approval","inputs":[{"name":"owner","type":"address","indexed":true,"internalType":"address"},{"name":"spender","type":"address","indexed":true,"internalType":"address"},{"name":"value","type":"uint256","indexed":false,"internalType":"uint256"}],"anonymous":false},{"type":"event","name":"AuthorityUpdated","inputs":[{"name":"user","type":"address","indexed":true,"internalType":"address"},{"name":"newAuthority","type":"address","indexed":true,"internalType":"contract Authority"}],"anonymous":false},{"type":"event","name":"BalanceUpdateHookUpdated","inputs":[{"name":"oldHook","type":"address","indexed":true,"internalType":"address"},{"name":"newHook","type":"address","indexed":true,"internalType":"address"}],"anonymous":false},{"type":"event","name":"Deposit","inputs":[{"name":"sender","type":"address","indexed":true,"internalType":"address"},{"name":"owner","type":"address","indexed":true,"internalType":"address"},{"name":"assets","type":"uint256","indexed":false,"internalType":"uint256"},{"name":"shares","type":"uint256","indexed":false,"internalType":"uint256"}],"anonymous":false},{"type":"event","name":"Initialized","inputs":[{"name":"version","type":"uint64","indexed":false,"internalType":"uint64"}],"anonymous":false},{"type":"event","name":"ManageBatchOperation","inputs":[{"name":"index","type":"uint256","indexed":true,"internalType":"uint256"},{"name":"target","type":"address","indexed":true,"internalType":"address"},{"name":"functionSig","type":"bytes4","indexed":false,"internalType":"bytes4"},{"name":"value","type":"uint256","indexed":false,"internalType":"uint256"},{"name":"result","type":"bytes","indexed":false,"internalType":"bytes"}],"anonymous":false},{"type":"event","name":"OwnershipTransferred","inputs":[{"name":"user","type":"address","indexed":true,"internalType":"address"},{"name":"newOwner","type":"address","indexed":true,"internalType":"address"}],"anonymous":false},{"type":"event","name":"PPSUpdated","inputs":[{"name":"timestamp","type":"uint256","indexed":true,"internalType":"uint256"},{"name":"oldPPS","type":"uint256","indexed":false,"internalType":"uint256"},{"name":"newPPS","type":"uint256","indexed":false,"internalType":"uint256"}],"anonymous":false},{"type":"event","name":"Paused","inputs":[{"name":"account","type":"address","indexed":false,"internalType":"address"}],"anonymous":false},{"type":"event","name":"Received","inputs":[{"name":"sender","type":"address","indexed":false,"internalType":"address"},{"name":"amount","type":"uint256","indexed":false,"internalType":"uint256"}],"anonymous":false},{"type":"event","name":"RedeemRequest","inputs":[{"name":"receiver","type":"address","indexed":true,"internalType":"address"},{"name":"owner","type":"address","indexed":true,"internalType":"address"},{"name":"assets","type":"uint256","indexed":false,"internalType":"uint256"},{"name":"shares","type":"uint256","indexed":false,"internalType":"uint256"},{"name":"instant","type":"bool","indexed":false,"internalType":"bool"}],"anonymous":false},{"type":"event","name":"RedemptionHookUpdated","inputs":[{"name":"oldHook","type":"address","indexed":true,"internalType":"address"},{"name":"newHook","type":"address","indexed":true,"internalType":"address"}],"anonymous":false},{"type":"event","name":"RequestCancelled","inputs":[{"name":"receiver","type":"address","indexed":true,"internalType":"address"},{"name":"shares","type":"uint256","indexed":false,"internalType":"uint256"},{"name":"assets","type":"uint256","indexed":false,"internalType":"uint256"}],"anonymous":false},{"type":"event","name":"RequestFulfilled","inputs":[{"name":"receiver","type":"address","indexed":true,"internalType":"address"},{"name":"shares","type":"uint256","indexed":false,"internalType":"uint256"},{"name":"assets","type":"uint256","indexed":false,"internalType":"uint256"}],"anonymous":false},{"type":"event","name":"Transfer","inputs":[{"name":"from","type":"address","indexed":true,"internalType":"address"},{"name":"to","type":"address","indexed":true,"internalType":"address"},{"name":"value","type":"uint256","indexed":false,"internalType":"uint256"}],"anonymous":false},{"type":"event","name":"UnderlyingBalanceUpdated","inputs":[{"name":"timestamp","type":"uint256","indexed":true,"internalType":"uint256"},{"name":"oldBalance","type":"uint256","indexed":false,"internalType":"uint256"},{"name":"newBalance","type":"uint256","indexed":false,"internalType":"uint256"}],"anonymous":false},{"type":"event","name":"Unpaused","inputs":[{"name":"account","type":"address","indexed":false,"internalType":"address"}],"anonymous":false},{"type":"event","name":"VaultPausedDueToThreshold","inputs":[{"name":"timestamp","type":"uint256","indexed":true,"internalType":"uint256"},{"name":"oldPPS","type":"uint256","indexed":false,"internalType":"uint256"},{"name":"newPPS","type":"uint256","indexed":false,"internalType":"uint256"}],"anonymous":false},{"type":"event","name":"Withdraw","inputs":[{"name":"sender","type":"address","indexed":true,"internalType":"address"},{"name":"receiver","type":"address","indexed":true,"internalType":"address"},{"name":"owner","type":"address","indexed":true,"internalType":"address"},{"name":"assets","type":"uint256","indexed":false,"internalType":"uint256"},{"name":"shares","type":"uint256","indexed":false,"internalType":"uint256"}],"anonymous":false},{"type":"error","name":"AddressEmptyCode","inputs":[{"name":"target","type":"address","internalType":"address"}]},{"type":"error","name":"ERC20InsufficientAllowance","inputs":[{"name":"spender","type":"address","internalType":"address"},{"name":"allowance","type":"uint256","internalType":"uint256"},{"name":"needed","type":"uint256","internalType":"uint256"}]},{"type":"error","name":"ERC20InsufficientBalance","inputs":[{"name":"sender","type":"address","internalType":"address"},{"name":"balance","type":"uint256","internalType":"uint256"},{"name":"needed","type":"uint256","internalType":"uint256"}]},{"type":"error","name":"ERC20InvalidApprover","inputs":[{"name":"approver","type":"address","internalType":"address"}]},{"type":"error","name":"ERC20InvalidReceiver","inputs":[{"name":"receiver","type":"address","internalType":"address"}]},{"type":"error","name":"ERC20InvalidSender","inputs":[{"name":"sender","type":"address","internalType":"address"}]},{"type":"error","name":"ERC20InvalidSpender","inputs":[{"name":"spender","type":"address","internalType":"address"}]},{"type":"error","name":"ERC4626ExceededMaxDeposit","inputs":[{"name":"receiver","type":"address","internalType":"address"},{"name":"assets","type":"uint256","internalType":"uint256"},{"name":"max","type":"uint256","internalType":"uint256"}]},{"type":"error","name":"ERC4626ExceededMaxMint","inputs":[{"name":"receiver","type":"address","internalType":"address"},{"name":"shares","type":"uint256","internalType":"uint256"},{"name":"max","type":"uint256","internalType":"uint256"}]},{"type":"error","name":"ERC4626ExceededMaxRedeem","inputs":[{"name":"owner","type":"address","internalType":"address"},{"name":"shares","type":"uint256","internalType":"uint256"},{"name":"max","type":"uint256","internalType":"uint256"}]},{"type":"error","name":"ERC4626ExceededMaxWithdraw","inputs":[{"name":"owner","type":"address","internalType":"address"},{"name":"assets","type":"uint256","internalType":"uint256"},{"name":"max","type":"uint256","internalType":"uint256"}]},{"type":"error","name":"EnforcedPause","inputs":[]},{"type":"error","name":"ExpectedPause","inputs":[]},{"type":"error","name":"FailedCall","inputs":[]},{"type":"error","name":"InsufficientBalance","inputs":[{"name":"balance","type":"uint256","internalType":"uint256"},{"name":"needed","type":"uint256","internalType":"uint256"}]},{"type":"error","name":"InsufficientShares","inputs":[]},{"type":"error","name":"InvalidAssetsAmount","inputs":[]},{"type":"error","name":"InvalidInitialization","inputs":[]},{"type":"error","name":"InvalidRedemptionMode","inputs":[]},{"type":"error","name":"InvalidSharesAmount","inputs":[]},{"type":"error","name":"NotInitializing","inputs":[]},{"type":"error","name":"NotSharesOwner","inputs":[]},{"type":"error","name":"SafeERC20FailedOperation","inputs":[{"name":"token","type":"address","internalType":"address"}]},{"type":"error","name":"SharesAmountZero","inputs":[]},{"type":"error","name":"TargetMethodNotAuthorized","inputs":[{"name":"target","type":"address","internalType":"address"},{"name":"functionSig","type":"bytes4","internalType":"bytes4"}]},{"type":"error","name":"UpdateAlreadyCompletedInThisBlock","inputs":[]},{"type":"error","name":"UseRequestRedeem","inputs":[]},{"type":"error","name":"ZeroAddress","inputs":[]}],"bytecode":{"object":"0x608060405234602357600e6027565b60146027565b6040516135d390816100bc8239f35b5f80fd5b5f51602061368f5f395f51905f525460ff8160401c1660ac576002600160401b03196001600160401b03821601605a5750565b6001600160401b0319166001600160401b039081175f51602061368f5f395f51905f52556040519081527fc7f505b2f371ae2175ee4913f4499e1f2633a7b5936321eed1cdaeb6115181d290602090a1565b63f92ee8a960e01b5f5260045ffdfe6080604052600436101561004b575b3615610018575f80fd5b604080513381523460208201527f88a5966d370b9919b20f3e2c13ff65706f196a4e32cc2c12bf57088f885258749190a1005b5f358060e01c806301e1d114146120f557806303d4113b146120d857806306fdde0314611ff557806307a2d13a1461191b578063095ea7b314611efa5780630a28a47714611eab57806312d36fd314611c37578063150b7a0214611bc857806316f020d614611ba257806318160ddd14611b795780631cd1c8c314611aa357806323b872dd14611a6b578063313ce56714611a0c57806338d52e0f146119c75780633f4ba83a14611920578063402d267d146106e85780634cdad5061461191b57806353dc1dd3146118d0578063560b2318146118575780635c975abb146118295780636442b2ba146116f95780636e553f651461166f57806370a082311461162d5780637339957014611608578063760f5f27146115eb5780637a9e5e4b1461145e5780637d41c86e14611442578063809dab6a146113875780638456cb59146113065780638da5cb5b146112c15780639317c20014610abd57806394bf804d14610a3457806395d89b411461092c578063a9059cbb146108fb578063ab4f0f01146108de578063ac9dc9e8146108c1578063b3d7f6b9146108a3578063b460af9414610862578063ba08765214610839578063ba7b37d414610803578063bc197c8114610750578063bf7e214f1461070b578063c63d75b6146106e8578063c6e6f59214610535578063ce96cb77146106c5578063d905777e1461069a578063d9972b9614610656578063dd62ed3e146105dd578063e8ccdf3f1461053a578063ef8b30f714610535578063f23a6e61146104c6578063f2fde38b146104145763f6e715d01461029d575061000e565b346103fd5760603660031901126103fd576102b661216c565b6024359067ffffffffffffffff82116103fd576102f56102f06102e66001600160e01b03199436906004016121c9565b9490951633612afe565b6123e7565b6102ff828461249b565b7fdd3fd67aef415aded9493b31ad20a02d2991d4bb2760431cc729821271eaea015460405163b700961360e01b81523360048201526001600160a01b0384811660248301526001600160e01b031984166044830152909160209183916064918391165afa908115610409575f916103b1575b6103ad61039986866103938a61038889848a6124f2565b604435933691612299565b90612ce4565b60405191829160208352602083019061210f565b0390f35b93929190506020843d602011610401575b816103cf6020938361225b565b810103126103fd576103ad9461038861039392846103ef610399986124e5565b945050939495505094610371565b5f80fd5b3d91506103c2565b6040513d5f823e3d90fd5b50346103fd5760203660031901126103fd576001600160a01b039061044e6102f06001600160e01b031961044661216c565b931633612afe565b16806001600160a01b03197fdd3fd67aef415aded9493b31ad20a02d2991d4bb2760431cc729821271eaea005416177fdd3fd67aef415aded9493b31ad20a02d2991d4bb2760431cc729821271eaea0055337f8be0079c531659141344cd1fd0a4f28419497f9722a3daafe3b4186f6b6457e05f80a3005b346103fd5760a03660031901126103fd576104df61216c565b506104e8612182565b5060843567ffffffffffffffff81116103fd576105099036906004016121c9565b505060206040517ff23a6e61000000000000000000000000000000000000000000000000000000008152f35b6122ed565b50346103fd5760203660031901126103fd576001600160a01b039061056c6102f06001600160e01b031961044661216c565b1680156105b5576001600160a01b0319600454826001600160a01b0382167f71e86d7b6261afe37537fed8f42bf15d2ed9344bd8bd3949ea67fdf36a5e55545f80a31617600455005b7fd92e233d000000000000000000000000000000000000000000000000000000005f5260045ffd5b346103fd5760403660031901126103fd576105f661216c565b6001600160a01b03610640610609612182565b926001600160a01b03165f527f52c63247e1f47db19d5ce0460030c497f067ca4cebf71ba98eeadabe20bace0160205260405f2090565b91165f52602052602060405f2054604051908152f35b346103fd5760403660031901126103fd5761066f61216c565b602435906001600160e01b0319821682036103fd5760209161069091612afe565b6040519015158152f35b346103fd5760203660031901126103fd5760206106bd6106b861216c565b612ac0565b604051908152f35b346103fd5760203660031901126103fd5760206106bd6106e361216c565b612a7c565b346103fd5760203660031901126103fd5760206106bd61070661216c565b61254b565b346103fd575f3660031901126103fd5760206001600160a01b037fdd3fd67aef415aded9493b31ad20a02d2991d4bb2760431cc729821271eaea015416604051908152f35b346103fd5760a03660031901126103fd5761076961216c565b50610772612182565b5060443567ffffffffffffffff81116103fd57610793903690600401612198565b505060643567ffffffffffffffff81116103fd576107b5903690600401612198565b505060843567ffffffffffffffff81116103fd576107d79036906004016121c9565b505060206040517fbc197c81000000000000000000000000000000000000000000000000000000008152f35b50346103fd5760203660031901126103fd576102f06001600160e01b031961082c921633612afe565b610837600435612801565b005b346103fd5760206106bd61084c36612221565b91610855613110565b61085d613110565b61256b565b346103fd5761087036612221565b50505061087b613110565b7f797f246a000000000000000000000000000000000000000000000000000000005f5260045ffd5b346103fd5760203660031901126103fd5760206106bd600435612c09565b346103fd575f3660031901126103fd576020600354604051908152f35b346103fd575f3660031901126103fd576020600654604051908152f35b346103fd5760403660031901126103fd5761092161091761216c565b6024359033612d3f565b602060405160018152f35b346103fd575f3660031901126103fd576040515f7f52c63247e1f47db19d5ce0460030c497f067ca4cebf71ba98eeadabe20bace045461096b816123af565b8084529060018116908115610a105750600114610993575b6103ad836103998185038261225b565b7f52c63247e1f47db19d5ce0460030c497f067ca4cebf71ba98eeadabe20bace045f9081527f46a2803e59a4de4e7a4c574b1243f25977ac4c77d5a1a4a609b5394cebb4a2aa939250905b8082106109f657509091508101602001610399610983565b9192600181602092548385880101520191019092916109de565b60ff191660208086019190915291151560051b840190910191506103999050610983565b346103fd5760403660031901126103fd57600435610a50612182565b90610a59613110565b610a628261254b565b808211610a81576020836106bd84610a7981612c09565b80933361323a565b916001600160a01b03907f284ff667000000000000000000000000000000000000000000000000000000005f521660045260245260445260645ffd5b346103fd5760c03660031901126103fd576004356001600160a01b0381168082036103fd57610aea612182565b604435906001600160a01b0382168092036103fd57606435926001600160a01b0384168094036103fd5760843567ffffffffffffffff81116103fd57610b349036906004016122cf565b9460a43567ffffffffffffffff81116103fd57610b559036906004016122cf565b7ff0c57e16840df040f15088dc2f81fe391c3923bec73e23a9662efc9c229c6a00549660ff8860401c16159767ffffffffffffffff8116801590816112b9575b60011490816112af575b1590816112a6575b5061127e5767ffffffffffffffff1981166001177ff0c57e16840df040f15088dc2f81fe391c3923bec73e23a9662efc9c229c6a00558861123f575b50610bec61336c565b610bf461336c565b610bfc61336c565b80519067ffffffffffffffff82116110ef578190610c3a7f52c63247e1f47db19d5ce0460030c497f067ca4cebf71ba98eeadabe20bace03546123af565b601f81116111b2575b50602090601f831160011461110e575f92611103575b50508160011b915f199060031b1c1916177f52c63247e1f47db19d5ce0460030c497f067ca4cebf71ba98eeadabe20bace03555b80519067ffffffffffffffff82116110ef57610cc97f52c63247e1f47db19d5ce0460030c497f067ca4cebf71ba98eeadabe20bace04546123af565b601f811161106d575b50602090601f8311600114610fbc5791806001600160a01b0396959492610d43945f92610fb1575b50508160011b915f199060031b1c1916177f52c63247e1f47db19d5ce0460030c497f067ca4cebf71ba98eeadabe20bace04555b610d3661336c565b610d3e61336c565b6134ce565b9015610fa9575b7fffffffffffffffffffffff00000000000000000000000000000000000000000074ff00000000000000000000000000000000000000007f0773e532dfede91f04b12a73d3d2acd361424f41f76b4fb79f090161e36b4e00549260a01b16911617177f0773e532dfede91f04b12a73d3d2acd361424f41f76b4fb79f090161e36b4e0055610dd661336c565b610dde61336c565b16806001600160a01b03197fdd3fd67aef415aded9493b31ad20a02d2991d4bb2760431cc729821271eaea005416177fdd3fd67aef415aded9493b31ad20a02d2991d4bb2760431cc729821271eaea00556001600160a01b03197fdd3fd67aef415aded9493b31ad20a02d2991d4bb2760431cc729821271eaea0154167fdd3fd67aef415aded9493b31ad20a02d2991d4bb2760431cc729821271eaea0155337f8be0079c531659141344cd1fd0a4f28419497f9722a3daafe3b4186f6b6457e05f80a35f337fa3396fd7f6e0a21b50e5089d2da70d5ac0a3bbbd1f617a93f134b763899801988280a3610ed061336c565b610ed861336c565b60ff195f5160206135a75f395f51905f5254165f5160206135a75f395f51905f525580156105b55781156105b5576001600160a01b03195f5416175f556001600160a01b03196004541617600455610f2c57005b68ff0000000000000000197ff0c57e16840df040f15088dc2f81fe391c3923bec73e23a9662efc9c229c6a0054167ff0c57e16840df040f15088dc2f81fe391c3923bec73e23a9662efc9c229c6a00557fc7f505b2f371ae2175ee4913f4499e1f2633a7b5936321eed1cdaeb6115181d2602060405160018152a1005b506012610d4a565b015190508a80610cfa565b90601f198316917f52c63247e1f47db19d5ce0460030c497f067ca4cebf71ba98eeadabe20bace045f52815f20925f5b8181106110555750926001928592610d43966001600160a01b039a9998961061103d575b505050811b017f52c63247e1f47db19d5ce0460030c497f067ca4cebf71ba98eeadabe20bace0455610d2e565b01515f1960f88460031b161c191690558a8080611010565b92936020600181928786015181550195019301610fec565b7f52c63247e1f47db19d5ce0460030c497f067ca4cebf71ba98eeadabe20bace045f527f46a2803e59a4de4e7a4c574b1243f25977ac4c77d5a1a4a609b5394cebb4a2aa601f840160051c810191602085106110e5575b601f0160051c01905b8181106110da5750610cd2565b5f81556001016110cd565b90915081906110c4565b634e487b7160e01b5f52604160045260245ffd5b015190508980610c59565b7f52c63247e1f47db19d5ce0460030c497f067ca4cebf71ba98eeadabe20bace035f9081528281209350601f198516905b81811061119a5750908460019594939210611182575b505050811b017f52c63247e1f47db19d5ce0460030c497f067ca4cebf71ba98eeadabe20bace0355610c8d565b01515f1960f88460031b161c19169055898080611155565b9293602060018192878601518155019501930161113f565b7f52c63247e1f47db19d5ce0460030c497f067ca4cebf71ba98eeadabe20bace035f529091507f2ae08a8e29253f69ac5d979a101956ab8f8d9d7ded63fa7a83b16fc47648eab0601f840160051c81019160208510611235575b90601f859493920160051c01905b8181106112275750610c43565b5f815584935060010161121a565b909150819061120c565b68ffffffffffffffffff191668010000000000000001177ff0c57e16840df040f15088dc2f81fe391c3923bec73e23a9662efc9c229c6a005588610be3565b7ff92ee8a9000000000000000000000000000000000000000000000000000000005f5260045ffd5b9050158a610ba7565b303b159150610b9f565b8a9150610b95565b346103fd575f3660031901126103fd5760206001600160a01b037fdd3fd67aef415aded9493b31ad20a02d2991d4bb2760431cc729821271eaea005416604051908152f35b50346103fd575f3660031901126103fd576102f06001600160e01b031961132e921633612afe565b611336613110565b600160ff195f5160206135a75f395f51905f525416175f5160206135a75f395f51905f52557f62e78cea01bee320cd4e420270b5ea74000d11b0c9f74754ebdbfc544b05a2586020604051338152a1005b346103fd575f3660031901126103fd57602460206001600160a01b037f0773e532dfede91f04b12a73d3d2acd361424f41f76b4fb79f090161e36b4e005416604051928380926370a0823160e01b82523060048301525afa908115610409575f91611410575b506006549081811115611406576020916106bd9161253e565b505060205f6106bd565b90506020813d60201161143a575b8161142b6020938361225b565b810103126103fd5751816113ed565b3d915061141e565b346103fd5760206106bd61145536612221565b9161085d613110565b50346103fd5760203660031901126103fd57600435906001600160a01b0382168092036103fd576001600160a01b037fdd3fd67aef415aded9493b31ad20a02d2991d4bb2760431cc729821271eaea0054163314908115611537575b50156103fd57806001600160a01b03197fdd3fd67aef415aded9493b31ad20a02d2991d4bb2760431cc729821271eaea015416177fdd3fd67aef415aded9493b31ad20a02d2991d4bb2760431cc729821271eaea0155337fa3396fd7f6e0a21b50e5089d2da70d5ac0a3bbbd1f617a93f134b763899801985f80a3005b7fdd3fd67aef415aded9493b31ad20a02d2991d4bb2760431cc729821271eaea015460405163b700961360e01b81523360048201523060248201526001600160e01b0319929092166044830152909150602090829060649082906001600160a01b03165afa908115610409575f916115b1575b505f6114ba565b90506020813d6020116115e3575b816115cc6020938361225b565b810103126103fd576115dd906124e5565b5f6115aa565b3d91506115bf565b346103fd575f3660031901126103fd576020600254604051908152f35b346103fd575f3660031901126103fd5760206001600160a01b035f5416604051908152f35b346103fd5760203660031901126103fd5760206106bd61164b61216c565b6001600160a01b03165f525f5160206135675f395f51905f5260205260405f205490565b346103fd5760403660031901126103fd5760043561168b612182565b90611694613110565b61169d8261254b565b8082116116bd57506106bd6020926116b483612c7c565b9283913361323a565b916001600160a01b03907f79012fb2000000000000000000000000000000000000000000000000000000005f521660045260245260445260645ffd5b50346103fd576001600160e01b0319906102f0611724611718366121f7565b93919590941633612afe565b6001600160a01b03831692835f52600560205260405f20938454948515158061181f575b156117f7576001810190815496871515806117ed575b156117c5576108379761177d9261177689899461253e565b905561253e565b905561178b8360065461253e565b6006557f1165aa98d42fbaef9bacc273d7b5cca8edc94909519f8f949ec33562963c87e460408051868152856020820152a2309030612f79565b7f3b832713000000000000000000000000000000000000000000000000000000005f5260045ffd5b508786111561175e565b7f01e3468e000000000000000000000000000000000000000000000000000000005f5260045ffd5b5085851115611748565b346103fd575f3660031901126103fd57602060ff5f5160206135a75f395f51905f5254166040519015158152f35b50346103fd5760203660031901126103fd576001600160a01b03906118896102f06001600160e01b031961044661216c565b1680156105b5576001600160a01b03195f54826001600160a01b0382167fe02404e8ee2b8389e3dd58c236f6b16e91da18f91ef4a5a763a94517394ce96b5f80a316175f55005b346103fd5760203660031901126103fd5760406001600160a01b036118f361216c565b16805f5260056020526001825f200154905f526005602052815f205482519182526020820152f35b61214e565b50346103fd575f3660031901126103fd576102f06001600160e01b0319611948921633612afe565b5f5160206135a75f395f51905f525460ff81161561199f5760ff19165f5160206135a75f395f51905f52557f5db9ee0a495bf2e6ff9c91a7834c1ba4fdd244a5e8aa4e537bd38aeae4b073aa6020604051338152a1005b7f8dfc202b000000000000000000000000000000000000000000000000000000005f5260045ffd5b346103fd575f3660031901126103fd5760206001600160a01b037f0773e532dfede91f04b12a73d3d2acd361424f41f76b4fb79f090161e36b4e005416604051908152f35b346103fd575f3660031901126103fd5760ff7f0773e532dfede91f04b12a73d3d2acd361424f41f76b4fb79f090161e36b4e005460a01c1660ff8111611a5757602090604051908152f35b634e487b7160e01b5f52601160045260245ffd5b346103fd5760603660031901126103fd57610921611a8761216c565b611a8f612182565b60443591611a9e833383612e5d565b612d3f565b50346103fd576102f0906001600160e01b0319611ace611ac2366121f7565b95919390941633612afe565b6001600160a01b038116805f52600560205260405f209384549081151580611b6f575b156117f757600186019081549182151580611b65575b156117c557611b42826040946108379a6117768b7f55ec94ca0f01023d07c5752a75f44048cfbdb0e4cfedf5e7eacecf21fcde35879961253e565b9055611b508160065461253e565b6006558151908682526020820152a230612d3f565b5082821115611b07565b5081851115611af1565b346103fd575f3660031901126103fd5760205f5160206135875f395f51905f5254604051908152f35b346103fd575f3660031901126103fd5760206001600160a01b0360045416604051908152f35b346103fd5760803660031901126103fd57611be161216c565b50611bea612182565b5060643567ffffffffffffffff81116103fd57611c0b9036906004016121c9565b505060206040517f150b7a02000000000000000000000000000000000000000000000000000000008152f35b50346103fd5760203660031901126103fd5760043567ffffffffffffffff81116103fd57611c826102f0611c786001600160e01b0319933690600401612198565b9390941633612afe565b8015611e67575f5b818110611c9357005b80611cb8611cb2611ca8611d3d948688612432565b6020810190612468565b9061249b565b6020816001600160a01b037fdd3fd67aef415aded9493b31ad20a02d2991d4bb2760431cc729821271eaea015416611cf9611cf486898b612432565b6124d1565b60405163b700961360e01b81523360048201526001600160a01b0390911660248201526001600160e01b031990921660448301529094859190829081906064820190565b03915afa928315610409575f93611e26575b50611d6b81600194611d65611cf486898b612432565b906124f2565b817f2f13a569f6d2fba5618730b89cb049a8d430f6bd0aa6eea26e948d8d663d7c766001600160e01b0319611dd287611da8611cf486838d612432565b6103938b6040611dc889611dc0611ca8828987612432565b979094612432565b0135933691612299565b93611e1d6001600160a01b038a6040611dfa888d611df4611cf4838388612432565b94612432565b01356040519586951685526020850152606060408501521695606083019061210f565b0390a301611c8a565b92506020833d8211611e5f575b81611e406020938361225b565b810103126103fd57611d6b81611e576001956124e5565b945050611d4f565b3d9150611e33565b606460405162461bcd60e51b815260206004820152601160248201527f4e6f2063616c6c732070726f76696465640000000000000000000000000000006044820152fd5b346103fd5760203660031901126103fd575f5160206135875f395f51905f525460018101809111611a5757611ede612318565b60018101809111611a575760016106bd91602093600435613150565b346103fd5760403660031901126103fd57611f1361216c565b602435903315611fc9576001600160a01b0316908115611f9d57335f9081527f52c63247e1f47db19d5ce0460030c497f067ca4cebf71ba98eeadabe20bace0160205260409020825f526020528060405f20556040519081527f8c5be1e5ebec7d5bd14f71427d1e84f3dd0314c0f7b2291e5b200ac8c7c3b92560203392a3602060405160018152f35b7f94280d62000000000000000000000000000000000000000000000000000000005f525f60045260245ffd5b7fe602df05000000000000000000000000000000000000000000000000000000005f525f60045260245ffd5b346103fd575f3660031901126103fd576040515f7f52c63247e1f47db19d5ce0460030c497f067ca4cebf71ba98eeadabe20bace0354612034816123af565b8084529060018116908115610a10575060011461205b576103ad836103998185038261225b565b7f52c63247e1f47db19d5ce0460030c497f067ca4cebf71ba98eeadabe20bace035f9081527f2ae08a8e29253f69ac5d979a101956ab8f8d9d7ded63fa7a83b16fc47648eab0939250905b8082106120be57509091508101602001610399610983565b9192600181602092548385880101520191019092916120a6565b346103fd575f3660031901126103fd576020600154604051908152f35b346103fd575f3660031901126103fd5760206106bd612318565b91908251928382525f5b848110612139575050825f602080949584010152601f8019910116010190565b80602080928401015182828601015201612119565b346103fd5760203660031901126103fd5760206106bd600435612c43565b600435906001600160a01b03821682036103fd57565b602435906001600160a01b03821682036103fd57565b9181601f840112156103fd5782359167ffffffffffffffff83116103fd576020808501948460051b0101116103fd57565b9181601f840112156103fd5782359167ffffffffffffffff83116103fd57602083818601950101116103fd57565b60609060031901126103fd576004356001600160a01b03811681036103fd57906024359060443590565b60609060031901126103fd57600435906024356001600160a01b03811681036103fd57906044356001600160a01b03811681036103fd5790565b90601f8019910116810190811067ffffffffffffffff8211176110ef57604052565b67ffffffffffffffff81116110ef57601f01601f191660200190565b9291926122a58261227d565b916122b3604051938461225b565b8294818452818301116103fd578281602093845f960137010152565b9080601f830112156103fd578160206122ea93359101612299565b90565b346103fd5760203660031901126103fd5760206106bd600435612c7c565b91908201809211611a5757565b602460206001600160a01b037f0773e532dfede91f04b12a73d3d2acd361424f41f76b4fb79f090161e36b4e005416604051928380926370a0823160e01b82523060048301525afa8015610409575f9061237b575b6122ea91506001549061230b565b506020813d6020116123a7575b816123956020938361225b565b810103126103fd576122ea905161236d565b3d9150612388565b90600182811c921680156123dd575b60208310146123c957565b634e487b7160e01b5f52602260045260245ffd5b91607f16916123be565b156123ee57565b606460405162461bcd60e51b815260206004820152600c60248201527f554e415554484f52495a454400000000000000000000000000000000000000006044820152fd5b91908110156124545760051b81013590605e19813603018212156103fd570190565b634e487b7160e01b5f52603260045260245ffd5b903590601e19813603018212156103fd570180359067ffffffffffffffff82116103fd576020019181360383136103fd57565b919091356001600160e01b0319811692600481106124b7575050565b6001600160e01b0319929350829060040360031b1b161690565b356001600160a01b03811681036103fd5790565b519081151582036103fd57565b156124fb575050565b906001600160a01b036001600160e01b0319927ffb563026000000000000000000000000000000000000000000000000000000005f52166004521660245260445ffd5b91908203918211611a5757565b5060ff5f5160206135a75f395f51905f525416612567575f1990565b5f90565b9081156127d9576001600160a01b038316913383036127b157825f525f5160206135675f395f51905f526020528060405f205410612789576125ac81612c43565b936001600160a01b036004541692604051957f51eda43e000000000000000000000000000000000000000000000000000000008752306004880152836024880152604487015284606487015260408660a4815f6001600160a01b038616988960848401525af1958615610409575f905f97612746575b506002811015612732578061267a5750916126638187847f9a626d8a4952950c7f8b9f5c92a2804e44e147ce4dd0add2f5928f1faea7259096606096612f79565b60405190868252602082015260016040820152a390565b949593949293919260011415905061270a57826126bc7f9a626d8a4952950c7f8b9f5c92a2804e44e147ce4dd0add2f5928f1faea72590946060943090612d3f565b6126c88260065461230b565b600655845f526005602052600160405f206126e483825461230b565b8155016126f283825461230b565b905560405191825260208201525f6040820152a35f90565b7f03e28a1b000000000000000000000000000000000000000000000000000000005f5260045ffd5b634e487b7160e01b5f52602160045260245ffd5b9650506040863d604011612781575b816127626040938361225b565b810103126103fd5785519560028710156103fd5760200151955f612622565b3d9150612755565b7f39996567000000000000000000000000000000000000000000000000000000005f5260045ffd5b7fe7fe5cf4000000000000000000000000000000000000000000000000000000005f5260045ffd5b7f840c364a000000000000000000000000000000000000000000000000000000005f5260045ffd5b600254431115612a54576001600160a01b035f54169060035460245f5160206135875f395f51905f525460206001600160a01b037f0773e532dfede91f04b12a73d3d2acd361424f41f76b4fb79f090161e36b4e005416604051938480926370a0823160e01b82523060048301525afa918215610409575f92612a1f575b50906084604092835196879384927f1faab223000000000000000000000000000000000000000000000000000000008452876004850152602484015260448301528660648301525afa928315610409575f905f946129de575b501561295157508060015581600355436002556040519080825260208201527f9b01f304f89acbc3f9ca1425e6ce22d5f57df58c42b9adc0dac4c4a71236f98e60404292a26040519080825260208201527f3f22d682a7202099eeac8a14fda6f2bbcadb8b7e2a83b665b69776e8d606151660404292a2565b91905061295c613110565b600160ff195f5160206135a75f395f51905f525416175f5160206135a75f395f51905f52557f62e78cea01bee320cd4e420270b5ea74000d11b0c9f74754ebdbfc544b05a2586020604051338152a160405191825260208201527f624f9968f9037cc40b91b22280a8f1a3f1fd95e6d2f00e1d7ae4aa10ff2e59c460404292a2565b9350506040833d604011612a17575b816129fa6040938361225b565b810103126103fd576020612a0d846124e5565b930151925f6128d8565b3d91506129ed565b91506020823d602011612a4c575b81612a3a6020938361225b565b810103126103fd57905190608461287f565b3d9150612a2d565b7f95628bbc000000000000000000000000000000000000000000000000000000005f5260045ffd5b60ff5f5160206135a75f395f51905f525416612abb576001600160a01b03165f525f5160206135675f395f51905f526020526122ea60405f2054612c43565b505f90565b60ff5f5160206135a75f395f51905f525416612abb576122ea906001600160a01b03165f525f5160206135675f395f51905f5260205260405f205490565b6001600160a01b037fdd3fd67aef415aded9493b31ad20a02d2991d4bb2760431cc729821271eaea015416918215159283612b74575b50508115612b40575090565b90506001600160a01b03807fdd3fd67aef415aded9493b31ad20a02d2991d4bb2760431cc729821271eaea00541691161490565b60405163b700961360e01b81526001600160a01b03841660048201523060248201526001600160e01b031992909216604483015291925090602090829060649082905afa908115610409575f91612bcf575b50905f80612b34565b90506020813d602011612c01575b81612bea6020938361225b565b810103126103fd57612bfb906124e5565b5f612bc6565b3d9150612bdd565b612c11612318565b9060018201809211611a57575f5160206135875f395f51905f525460018101809111611a57576122ea92600192613150565b612c4b612318565b9060018201809211611a57575f5160206135875f395f51905f525460018101809111611a57576122ea925f92613150565b5f5160206135875f395f51905f52549060018201809211611a5757612c9f612318565b60018101809111611a57576122ea925f92613150565b3d15612cdf573d90612cc68261227d565b91612cd4604051938461225b565b82523d5f602084013e565b606090565b90929192834710612d0f575f816122ea94956020839451920190855af1612d09612cb5565b916131ae565b83477fcf479181000000000000000000000000000000000000000000000000000000005f5260045260245260445ffd5b6001600160a01b0316908115612e31576001600160a01b0316918215612e0557612d67613110565b815f525f5160206135675f395f51905f5260205260405f2054818110612dec57817fddf252ad1be2c89b69c2b068fc378daa952ba7f163c4a11628f55a4df523b3ef92602092855f525f5160206135675f395f51905f5284520360405f2055845f525f5160206135675f395f51905f52825260405f20818154019055604051908152a3565b8263391434e360e21b5f5260045260245260445260645ffd5b7fec442f05000000000000000000000000000000000000000000000000000000005f525f60045260245ffd5b7f96c6fd1e000000000000000000000000000000000000000000000000000000005f525f60045260245ffd5b9190612e99836001600160a01b03165f527f52c63247e1f47db19d5ce0460030c497f067ca4cebf71ba98eeadabe20bace0160205260405f2090565b6001600160a01b0382165f5260205260405f2054925f198410612ebd575b50505050565b828410612f3c576001600160a01b03811615611fc9576001600160a01b03821615611f9d57612f246001600160a01b03916001600160a01b03165f527f52c63247e1f47db19d5ce0460030c497f067ca4cebf71ba98eeadabe20bace0160205260405f2090565b91165f5260205260405f20910390555f808080612eb7565b506001600160a01b0383917ffb8f41b2000000000000000000000000000000000000000000000000000000005f521660045260245260445260645ffd5b91936001600160a01b03851694816001600160a01b038516948786036130ff575b5050508415612e3157612fab613110565b845f525f5160206135675f395f51905f5260205260405f20548181106130e6577ffbde797d201c681b91056529119e0b02407c7bb96a4a2c75c01fc9667232c8db92826040936001600160a01b0393895f525f5160206135675f395f51905f5260205203845f2055805f5160206135875f395f51905f5254035f5160206135875f395f51905f52555f887fddf252ad1be2c89b69c2b068fc378daa952ba7f163c4a11628f55a4df523b3ef60208751858152a37f0773e532dfede91f04b12a73d3d2acd361424f41f76b4fb79f090161e36b4e005484517fa9059cbb0000000000000000000000000000000000000000000000000000000060208201526001600160a01b038416602482015260448082018a905281526130d79185166130d260648361225b565b613461565b835196875260208701521693a4565b8563391434e360e21b5f5260045260245260445260645ffd5b61310892612e5d565b5f8181612f9a565b60ff5f5160206135a75f395f51905f52541661312857565b7fd93c0665000000000000000000000000000000000000000000000000000000005f5260045ffd5b929161315d8183866133c3565b926004811015612732576001809116149182613183575b50506122ea925015159061230b565b908092501561319a576122ea930915155f80613174565b634e487b7160e01b5f52601260045260245ffd5b906131eb57508051156131c357805190602001fd5b7fd6bda275000000000000000000000000000000000000000000000000000000005f5260045ffd5b81511580613231575b6131fc575090565b6001600160a01b03907f9996b315000000000000000000000000000000000000000000000000000000005f521660045260245ffd5b50803b156131f4565b91906001600160a01b03906132bb827f0773e532dfede91f04b12a73d3d2acd361424f41f76b4fb79f090161e36b4e0054169483604051917f23b872dd0000000000000000000000000000000000000000000000000000000060208401521695866024830152306044830152856064830152606482526130d260848361225b565b16928315612e05577fdcbc1c05240f31ff3ad067ef1ee35ce4997762752e3a095284754544f4c709d7916040916132f0613110565b613308815f5160206135875f395f51905f525461230b565b5f5160206135875f395f51905f5255855f525f5160206135675f395f51905f52602052825f20818154019055855f7fddf252ad1be2c89b69c2b068fc378daa952ba7f163c4a11628f55a4df523b3ef60208651858152a382519182526020820152a3565b60ff7ff0c57e16840df040f15088dc2f81fe391c3923bec73e23a9662efc9c229c6a005460401c161561339b57565b7fd7e6bcf8000000000000000000000000000000000000000000000000000000005f5260045ffd5b91818302915f1981850993838086109503948086039514613453578483111561343b5790829109815f0382168092046002816003021880820260020302808202600203028082026002030280820260020302808202600203028091026002030293600183805f03040190848311900302920304170290565b82634e487b715f52156003026011186020526024601cfd5b50508092501561319a570490565b905f602091828151910182855af115610409575f513d6134c557506001600160a01b0381163b155b6134905750565b6001600160a01b03907f5274afe7000000000000000000000000000000000000000000000000000000005f521660045260245ffd5b60011415613489565b5f80916040516001600160a01b0360208201917f313ce5670000000000000000000000000000000000000000000000000000000083526004815261351360248261225b565b5192165afa613520612cb5565b908061355a575b613533575b505f905f90565b602081519181808201938492010103126103fd575160ff811161352c579060ff6001921690565b5060208151101561352756fe52c63247e1f47db19d5ce0460030c497f067ca4cebf71ba98eeadabe20bace0052c63247e1f47db19d5ce0460030c497f067ca4cebf71ba98eeadabe20bace02cd5ed15c6e187e77e9aee88184c21f4f2182ab5827cb3b7e07fbedcd63f03300a164736f6c634300081c000af0c57e16840df040f15088dc2f81fe391c3923bec73e23a9662efc9c229c6a00","linkReferences":{}},"methodIdentifiers":{"aggregatedUnderlyingBalances()":"03d4113b","allowance(address,address)":"dd62ed3e","approve(address,uint256)":"095ea7b3","asset()":"38d52e0f","authority()":"bf7e214f","balanceOf(address)":"70a08231","balanceUpdateHook()":"73399570","cancelRedeem(address,uint256,uint256)":"1cd1c8c3","convertToAssets(uint256)":"07a2d13a","convertToShares(uint256)":"c6e6f592","decimals()":"313ce567","deposit(uint256,address)":"6e553f65","fulfillRedeem(address,uint256,uint256)":"6442b2ba","getAvailableBalance()":"809dab6a","initialize(address,address,address,address,string,string)":"9317c200","isAuthorized(address,bytes4)":"d9972b96","lastBlockUpdated()":"760f5f27","lastPricePerShare()":"ac9dc9e8","manage(address,bytes,uint256)":"f6e715d0","manageBatch((address,bytes,uint256)[])":"12d36fd3","maxDeposit(address)":"402d267d","maxMint(address)":"c63d75b6","maxRedeem(address)":"d905777e","maxWithdraw(address)":"ce96cb77","mint(uint256,address)":"94bf804d","name()":"06fdde03","onERC1155BatchReceived(address,address,uint256[],uint256[],bytes)":"bc197c81","onERC1155Received(address,address,uint256,uint256,bytes)":"f23a6e61","onERC721Received(address,address,uint256,bytes)":"150b7a02","owner()":"8da5cb5b","pause()":"8456cb59","paused()":"5c975abb","pendingRedeemRequest(address)":"53dc1dd3","previewDeposit(uint256)":"ef8b30f7","previewMint(uint256)":"b3d7f6b9","previewRedeem(uint256)":"4cdad506","previewWithdraw(uint256)":"0a28a477","redeem(uint256,address,address)":"ba087652","redemptionHook()":"16f020d6","requestRedeem(uint256,address,address)":"7d41c86e","setAuthority(address)":"7a9e5e4b","setBalanceUpdateHook(address)":"560b2318","setRedemptionHook(address)":"e8ccdf3f","symbol()":"95d89b41","totalAssets()":"01e1d114","totalPendingAssets()":"ab4f0f01","totalSupply()":"18160ddd","transfer(address,uint256)":"a9059cbb","transferFrom(address,address,uint256)":"23b872dd","transferOwnership(address)":"f2fde38b","unpause()":"3f4ba83a","updateBalance(uint256)":"ba7b37d4","withdraw(uint256,address,address)":"b460af94"},"storageLayout":{"storage":[{"astId":55774,"contract":"src/ElitraVault.sol:ElitraVault","label":"balanceUpdateHook","offset":0,"slot":"0","type":"t_contract(IBalanceUpdateHook)59103"},{"astId":55776,"contract":"src/ElitraVault.sol:ElitraVault","label":"aggregatedUnderlyingBalances","offset":0,"slot":"1","type":"t_uint256"},{"astId":55778,"contract":"src/ElitraVault.sol:ElitraVault","label":"lastBlockUpdated","offset":0,"slot":"2","type":"t_uint256"},{"astId":55780,"contract":"src/ElitraVault.sol:ElitraVault","label":"lastPricePerShare","offset":0,"slot":"3","type":"t_uint256"},{"astId":55783,"contract":"src/ElitraVault.sol:ElitraVault","label":"redemptionHook","offset":0,"slot":"4","type":"t_contract(IRedemptionHook)59595"},{"astId":55788,"contract":"src/ElitraVault.sol:ElitraVault","label":"_pendingRedeem","offset":0,"slot":"5","type":"t_mapping(t_address,t_struct(PendingRedeem)59128_storage)"},{"astId":55790,"contract":"src/ElitraVault.sol:ElitraVault","label":"totalPendingAssets","offset":0,"slot":"6","type":"t_uint256"}],"types":{"t_address":{"encoding":"inplace","label":"address","numberOfBytes":"20"},"t_contract(IBalanceUpdateHook)59103":{"encoding":"inplace","label":"contract IBalanceUpdateHook","numberOfBytes":"20"},"t_contract(IRedemptionHook)59595":{"encoding":"inplace","label":"contract IRedemptionHook","numberOfBytes":"20"},"t_mapping(t_address,t_struct(PendingRedeem)59128_storage)":{"encoding":"mapping","key":"t_address","label":"mapping(address => struct IElitraVault.PendingRedeem)","numberOfBytes":"32","value":"t_struct(PendingRedeem)59128_storage"},"t_struct(PendingRedeem)59128_storage":{"encoding":"inplace","label":"struct IElitraVault.PendingRedeem","numberOfBytes":"64","members":[{"astId":59125,"contract":"src/ElitraVault.sol:ElitraVault","label":"shares","offset":0,"slot":"0","type":"t_uint256"},{"astId":59127,"contract":"src/ElitraVault.sol:ElitraVault","label":"assets","offset":0,"slot":"1","type":"t_uint256"}]},"t_uint256":{"encoding":"inplace","label":"uint256","numberOfBytes":"32"}}},"id":92}