{"abi":[{"type":"constructor","inputs":[],"stateMutability":"nonpayable"},{"type":"receive","stateMutability":"payable"},{"type":"function","name":"aggregatedUnderlyingBalances","inputs":[],"outputs":[{"name":"","type":"uint256","internalType":"uint256"}],"stateMutability":"view"},{"type":"function","name":"allowance","inputs":[{"name":"owner","type":"address","internalType":"address"},{"name":"spender","type":"address","internalType":"address"}],"outputs":[{"name":"","type":"uint256","internalType":"uint256"}],"stateMutability":"view"},{"type":"function","name":"approve","inputs":[{"name":"spender","type":"address","internalType":"address"},{"name":"value","type":"uint256","internalType":"uint256"}],"outputs":[{"name":"","type":"bool","internalType":"bool"}],"stateMutability":"nonpayable"},{"type":"function","name":"asset","inputs":[],"outputs":[{"name":"","type":"address","internalType":"address"}],"stateMutability":"view"},{"type":"function","name":"authority","inputs":[],"outputs":[{"name":"","type":"address","internalType":"contract Authority"}],"stateMutability":"view"},{"type":"function","name":"balanceOf","inputs":[{"name":"account","type":"address","internalType":"address"}],"outputs":[{"name":"","type":"uint256","internalType":"uint256"}],"stateMutability":"view"},{"type":"function","name":"balanceUpdateHook","inputs":[],"outputs":[{"name":"","type":"address","internalType":"contract IBalanceUpdateHook"}],"stateMutability":"view"},{"type":"function","name":"cancelRedeem","inputs":[{"name":"receiver","type":"address","internalType":"address"},{"name":"shares","type":"uint256","internalType":"uint256"},{"name":"assets","type":"uint256","internalType":"uint256"}],"outputs":[],"stateMutability":"nonpayable"},{"type":"function","name":"convertToAssets","inputs":[{"name":"shares","type":"uint256","internalType":"uint256"}],"outputs":[{"name":"","type":"uint256","internalType":"uint256"}],"stateMutability":"view"},{"type":"function","name":"convertToShares","inputs":[{"name":"assets","type":"uint256","internalType":"uint256"}],"outputs":[{"name":"","type":"uint256","internalType":"uint256"}],"stateMutability":"view"},{"type":"function","name":"decimals","inputs":[],"outputs":[{"name":"","type":"uint8","internalType":"uint8"}],"stateMutability":"view"},{"type":"function","name":"deposit","inputs":[{"name":"assets","type":"uint256","internalType":"uint256"},{"name":"receiver","type":"address","internalType":"address"}],"outputs":[{"name":"","type":"uint256","internalType":"uint256"}],"stateMutability":"nonpayable"},{"type":"function","name":"fulfillRedeem","inputs":[{"name":"receiver","type":"address","internalType":"address"},{"name":"shares","type":"uint256","internalType":"uint256"},{"name":"assets","type":"uint256","internalType":"uint256"}],"outputs":[],"stateMutability":"nonpayable"},{"type":"function","name":"getAvailableBalance","inputs":[],"outputs":[{"name":"","type":"uint256","internalType":"uint256"}],"stateMutability":"view"},{"type":"function","name":"initialize","inputs":[{"name":"_asset","type":"address","internalType":"contract IERC20"},{"name":"_owner","type":"address","internalType":"address"},{"name":"_balanceUpdateHook","type":"address","internalType":"contract IBalanceUpdateHook"},{"name":"_redemptionHook","type":"address","internalType":"contract IRedemptionHook"},{"name":"_name","type":"string","internalType":"string"},{"name":"_symbol","type":"string","internalType":"string"}],"outputs":[],"stateMutability":"nonpayable"},{"type":"function","name":"isAuthorized","inputs":[{"name":"user","type":"address","internalType":"address"},{"name":"functionSig","type":"bytes4","internalType":"bytes4"}],"outputs":[{"name":"","type":"bool","internalType":"bool"}],"stateMutability":"view"},{"type":"function","name":"lastBlockUpdated","inputs":[],"outputs":[{"name":"","type":"uint256","internalType":"uint256"}],"stateMutability":"view"},{"type":"function","name":"lastPricePerShare","inputs":[],"outputs":[{"name":"","type":"uint256","internalType":"uint256"}],"stateMutability":"view"},{"type":"function","name":"manage","inputs":[{"name":"target","type":"address","internalType":"address"},{"name":"data","type":"bytes","internalType":"bytes"},{"name":"value","type":"uint256","internalType":"uint256"}],"outputs":[{"name":"result","type":"bytes","internalType":"bytes"}],"stateMutability":"nonpayable"},{"type":"function","name":"manageBatch","inputs":[{"name":"calls","type":"tuple[]","internalType":"struct Call[]","components":[{"name":"target","type":"address","internalType":"address"},{"name":"data","type":"bytes","internalType":"bytes"},{"name":"value","type":"uint256","internalType":"uint256"}]}],"outputs":[],"stateMutability":"nonpayable"},{"type":"function","name":"maxDeposit","inputs":[{"name":"receiver","type":"address","internalType":"address"}],"outputs":[{"name":"","type":"uint256","internalType":"uint256"}],"stateMutability":"view"},{"type":"function","name":"maxMint","inputs":[{"name":"receiver","type":"address","internalType":"address"}],"outputs":[{"name":"","type":"uint256","internalType":"uint256"}],"stateMutability":"view"},{"type":"function","name":"maxRedeem","inputs":[{"name":"owner","type":"address","internalType":"address"}],"outputs":[{"name":"","type":"uint256","internalType":"uint256"}],"stateMutability":"view"},{"type":"function","name":"maxWithdraw","inputs":[{"name":"owner","type":"address","internalType":"address"}],"outputs":[{"name":"","type":"uint256","internalType":"uint256"}],"stateMutability":"view"},{"type":"function","name":"mint","inputs":[{"name":"shares","type":"uint256","internalType":"uint256"},{"name":"receiver","type":"address","internalType":"address"}],"outputs":[{"name":"","type":"uint256","internalType":"uint256"}],"stateMutability":"nonpayable"},{"type":"function","name":"name","inputs":[],"outputs":[{"name":"","type":"string","internalType":"string"}],"stateMutability":"view"},{"type":"function","name":"onERC1155BatchReceived","inputs":[{"name":"","type":"address","internalType":"address"},{"name":"","type":"address","internalType":"address"},{"name":"","type":"uint256[]","internalType":"uint256[]"},{"name":"","type":"uint256[]","internalType":"uint256[]"},{"name":"","type":"bytes","internalType":"bytes"}],"outputs":[{"name":"","type":"bytes4","internalType":"bytes4"}],"stateMutability":"pure"},{"type":"function","name":"onERC1155Received","inputs":[{"name":"","type":"address","internalType":"address"},{"name":"","type":"address","internalType":"address"},{"name":"","type":"uint256","internalType":"uint256"},{"name":"","type":"uint256","internalType":"uint256"},{"name":"","type":"bytes","internalType":"bytes"}],"outputs":[{"name":"","type":"bytes4","internalType":"bytes4"}],"stateMutability":"pure"},{"type":"function","name":"onERC721Received","inputs":[{"name":"","type":"address","internalType":"address"},{"name":"","type":"address","internalType":"address"},{"name":"","type":"uint256","internalType":"uint256"},{"name":"","type":"bytes","internalType":"bytes"}],"outputs":[{"name":"","type":"bytes4","internalType":"bytes4"}],"stateMutability":"pure"},{"type":"function","name":"owner","inputs":[],"outputs":[{"name":"","type":"address","internalType":"address"}],"stateMutability":"view"},{"type":"function","name":"pause","inputs":[],"outputs":[],"stateMutability":"nonpayable"},{"type":"function","name":"paused","inputs":[],"outputs":[{"name":"","type":"bool","internalType":"bool"}],"stateMutability":"view"},{"type":"function","name":"pendingRedeemRequest","inputs":[{"name":"user","type":"address","internalType":"address"}],"outputs":[{"name":"assets","type":"uint256","internalType":"uint256"},{"name":"pendingShares","type":"uint256","internalType":"uint256"}],"stateMutability":"view"},{"type":"function","name":"previewDeposit","inputs":[{"name":"assets","type":"uint256","internalType":"uint256"}],"outputs":[{"name":"","type":"uint256","internalType":"uint256"}],"stateMutability":"view"},{"type":"function","name":"previewMint","inputs":[{"name":"shares","type":"uint256","internalType":"uint256"}],"outputs":[{"name":"","type":"uint256","internalType":"uint256"}],"stateMutability":"view"},{"type":"function","name":"previewRedeem","inputs":[{"name":"shares","type":"uint256","internalType":"uint256"}],"outputs":[{"name":"","type":"uint256","internalType":"uint256"}],"stateMutability":"view"},{"type":"function","name":"previewWithdraw","inputs":[{"name":"assets","type":"uint256","internalType":"uint256"}],"outputs":[{"name":"","type":"uint256","internalType":"uint256"}],"stateMutability":"view"},{"type":"function","name":"redeem","inputs":[{"name":"shares","type":"uint256","internalType":"uint256"},{"name":"receiver","type":"address","internalType":"address"},{"name":"owner","type":"address","internalType":"address"}],"outputs":[{"name":"","type":"uint256","internalType":"uint256"}],"stateMutability":"nonpayable"},{"type":"function","name":"redemptionHook","inputs":[],"outputs":[{"name":"","type":"address","internalType":"contract IRedemptionHook"}],"stateMutability":"view"},{"type":"function","name":"requestRedeem","inputs":[{"name":"shares","type":"uint256","internalType":"uint256"},{"name":"receiver","type":"address","internalType":"address"},{"name":"owner","type":"address","internalType":"address"}],"outputs":[{"name":"","type":"uint256","internalType":"uint256"}],"stateMutability":"nonpayable"},{"type":"function","name":"setAuthority","inputs":[{"name":"newAuthority","type":"address","internalType":"contract Authority"}],"outputs":[],"stateMutability":"nonpayable"},{"type":"function","name":"setBalanceUpdateHook","inputs":[{"name":"newAdapter","type":"address","internalType":"contract IBalanceUpdateHook"}],"outputs":[],"stateMutability":"nonpayable"},{"type":"function","name":"setRedemptionHook","inputs":[{"name":"newStrategy","type":"address","internalType":"contract IRedemptionHook"}],"outputs":[],"stateMutability":"nonpayable"},{"type":"function","name":"symbol","inputs":[],"outputs":[{"name":"","type":"string","internalType":"string"}],"stateMutability":"view"},{"type":"function","name":"totalAssets","inputs":[],"outputs":[{"name":"","type":"uint256","internalType":"uint256"}],"stateMutability":"view"},{"type":"function","name":"totalPendingAssets","inputs":[],"outputs":[{"name":"","type":"uint256","internalType":"uint256"}],"stateMutability":"view"},{"type":"function","name":"totalSupply","inputs":[],"outputs":[{"name":"","type":"uint256","internalType":"uint256"}],"stateMutability":"view"},{"type":"function","name":"transfer","inputs":[{"name":"to","type":"address","internalType":"address"},{"name":"value","type":"uint256","internalType":"uint256"}],"outputs":[{"name":"","type":"bool","internalType":"bool"}],"stateMutability":"nonpayable"},{"type":"function","name":"transferFrom","inputs":[{"name":"from","type":"address","internalType":"address"},{"name":"to","type":"address","internalType":"address"},{"name":"value","type":"uint256","internalType":"uint256"}],"outputs":[{"name":"","type":"bool","internalType":"bool"}],"stateMutability":"nonpayable"},{"type":"function","name":"transferOwnership","inputs":[{"name":"newOwner","type":"address","internalType":"address"}],"outputs":[],"stateMutability":"nonpayable"},{"type":"function","name":"unpause","inputs":[],"outputs":[],"stateMutability":"nonpayable"},{"type":"function","name":"updateBalance","inputs":[{"name":"newAggregatedBalance","type":"uint256","internalType":"uint256"}],"outputs":[],"stateMutability":"nonpayable"},{"type":"function","name":"withdraw","inputs":[{"name":"","type":"uint256","internalType":"uint256"},{"name":"","type":"address","internalType":"address"},{"name":"","type":"address","internalType":"address"}],"outputs":[{"name":"","type":"uint256","internalType":"uint256"}],"stateMutability":"nonpayable"},{"type":"event","name":"Approval","inputs":[{"name":"owner","type":"address","indexed":true,"internalType":"address"},{"name":"spender","type":"address","indexed":true,"internalType":"address"},{"name":"value","type":"uint256","indexed":false,"internalType":"uint256"}],"anonymous":false},{"type":"event","name":"AuthorityUpdated","inputs":[{"name":"user","type":"address","indexed":true,"internalType":"address"},{"name":"newAuthority","type":"address","indexed":true,"internalType":"contract Authority"}],"anonymous":false},{"type":"event","name":"BalanceUpdateHookUpdated","inputs":[{"name":"oldHook","type":"address","indexed":true,"internalType":"address"},{"name":"newHook","type":"address","indexed":true,"internalType":"address"}],"anonymous":false},{"type":"event","name":"Deposit","inputs":[{"name":"sender","type":"address","indexed":true,"internalType":"address"},{"name":"owner","type":"address","indexed":true,"internalType":"address"},{"name":"assets","type":"uint256","indexed":false,"internalType":"uint256"},{"name":"shares","type":"uint256","indexed":false,"internalType":"uint256"}],"anonymous":false},{"type":"event","name":"Initialized","inputs":[{"name":"version","type":"uint64","indexed":false,"internalType":"uint64"}],"anonymous":false},{"type":"event","name":"ManageBatchOperation","inputs":[{"name":"index","type":"uint256","indexed":true,"internalType":"uint256"},{"name":"target","type":"address","indexed":true,"internalType":"address"},{"name":"functionSig","type":"bytes4","indexed":false,"internalType":"bytes4"},{"name":"value","type":"uint256","indexed":false,"internalType":"uint256"},{"name":"result","type":"bytes","indexed":false,"internalType":"bytes"}],"anonymous":false},{"type":"event","name":"OwnershipTransferred","inputs":[{"name":"user","type":"address","indexed":true,"internalType":"address"},{"name":"newOwner","type":"address","indexed":true,"internalType":"address"}],"anonymous":false},{"type":"event","name":"PPSUpdated","inputs":[{"name":"timestamp","type":"uint256","indexed":true,"internalType":"uint256"},{"name":"oldPPS","type":"uint256","indexed":false,"internalType":"uint256"},{"name":"newPPS","type":"uint256","indexed":false,"internalType":"uint256"}],"anonymous":false},{"type":"event","name":"Paused","inputs":[{"name":"account","type":"address","indexed":false,"internalType":"address"}],"anonymous":false},{"type":"event","name":"Received","inputs":[{"name":"sender","type":"address","indexed":false,"internalType":"address"},{"name":"amount","type":"uint256","indexed":false,"internalType":"uint256"}],"anonymous":false},{"type":"event","name":"RedeemRequest","inputs":[{"name":"receiver","type":"address","indexed":true,"internalType":"address"},{"name":"owner","type":"address","indexed":true,"internalType":"address"},{"name":"assets","type":"uint256","indexed":false,"internalType":"uint256"},{"name":"shares","type":"uint256","indexed":false,"internalType":"uint256"},{"name":"instant","type":"bool","indexed":false,"internalType":"bool"}],"anonymous":false},{"type":"event","name":"RedemptionHookUpdated","inputs":[{"name":"oldHook","type":"address","indexed":true,"internalType":"address"},{"name":"newHook","type":"address","indexed":true,"internalType":"address"}],"anonymous":false},{"type":"event","name":"RequestCancelled","inputs":[{"name":"receiver","type":"address","indexed":true,"internalType":"address"},{"name":"shares","type":"uint256","indexed":false,"internalType":"uint256"},{"name":"assets","type":"uint256","indexed":false,"internalType":"uint256"}],"anonymous":false},{"type":"event","name":"RequestFulfilled","inputs":[{"name":"receiver","type":"address","indexed":true,"internalType":"address"},{"name":"shares","type":"uint256","indexed":false,"internalType":"uint256"},{"name":"assets","type":"uint256","indexed":false,"internalType":"uint256"}],"anonymous":false},{"type":"event","name":"Transfer","inputs":[{"name":"from","type":"address","indexed":true,"internalType":"address"},{"name":"to","type":"address","indexed":true,"internalType":"address"},{"name":"value","type":"uint256","indexed":false,"internalType":"uint256"}],"anonymous":false},{"type":"event","name":"UnderlyingBalanceUpdated","inputs":[{"name":"timestamp","type":"uint256","indexed":true,"internalType":"uint256"},{"name":"oldBalance","type":"uint256","indexed":false,"internalType":"uint256"},{"name":"newBalance","type":"uint256","indexed":false,"internalType":"uint256"}],"anonymous":false},{"type":"event","name":"Unpaused","inputs":[{"name":"account","type":"address","indexed":false,"internalType":"address"}],"anonymous":false},{"type":"event","name":"VaultPausedDueToThreshold","inputs":[{"name":"timestamp","type":"uint256","indexed":true,"internalType":"uint256"},{"name":"oldPPS","type":"uint256","indexed":false,"internalType":"uint256"},{"name":"newPPS","type":"uint256","indexed":false,"internalType":"uint256"}],"anonymous":false},{"type":"event","name":"Withdraw","inputs":[{"name":"sender","type":"address","indexed":true,"internalType":"address"},{"name":"receiver","type":"address","indexed":true,"internalType":"address"},{"name":"owner","type":"address","indexed":true,"internalType":"address"},{"name":"assets","type":"uint256","indexed":false,"internalType":"uint256"},{"name":"shares","type":"uint256","indexed":false,"internalType":"uint256"}],"anonymous":false},{"type":"error","name":"AddressEmptyCode","inputs":[{"name":"target","type":"address","internalType":"address"}]},{"type":"error","name":"ERC20InsufficientAllowance","inputs":[{"name":"spender","type":"address","internalType":"address"},{"name":"allowance","type":"uint256","internalType":"uint256"},{"name":"needed","type":"uint256","internalType":"uint256"}]},{"type":"error","name":"ERC20InsufficientBalance","inputs":[{"name":"sender","type":"address","internalType":"address"},{"name":"balance","type":"uint256","internalType":"uint256"},{"name":"needed","type":"uint256","internalType":"uint256"}]},{"type":"error","name":"ERC20InvalidApprover","inputs":[{"name":"approver","type":"address","internalType":"address"}]},{"type":"error","name":"ERC20InvalidReceiver","inputs":[{"name":"receiver","type":"address","internalType":"address"}]},{"type":"error","name":"ERC20InvalidSender","inputs":[{"name":"sender","type":"address","internalType":"address"}]},{"type":"error","name":"ERC20InvalidSpender","inputs":[{"name":"spender","type":"address","internalType":"address"}]},{"type":"error","name":"ERC4626ExceededMaxDeposit","inputs":[{"name":"receiver","type":"address","internalType":"address"},{"name":"assets","type":"uint256","internalType":"uint256"},{"name":"max","type":"uint256","internalType":"uint256"}]},{"type":"error","name":"ERC4626ExceededMaxMint","inputs":[{"name":"receiver","type":"address","internalType":"address"},{"name":"shares","type":"uint256","internalType":"uint256"},{"name":"max","type":"uint256","internalType":"uint256"}]},{"type":"error","name":"ERC4626ExceededMaxRedeem","inputs":[{"name":"owner","type":"address","internalType":"address"},{"name":"shares","type":"uint256","internalType":"uint256"},{"name":"max","type":"uint256","internalType":"uint256"}]},{"type":"error","name":"ERC4626ExceededMaxWithdraw","inputs":[{"name":"owner","type":"address","internalType":"address"},{"name":"assets","type":"uint256","internalType":"uint256"},{"name":"max","type":"uint256","internalType":"uint256"}]},{"type":"error","name":"EnforcedPause","inputs":[]},{"type":"error","name":"ExpectedPause","inputs":[]},{"type":"error","name":"FailedCall","inputs":[]},{"type":"error","name":"InsufficientBalance","inputs":[{"name":"balance","type":"uint256","internalType":"uint256"},{"name":"needed","type":"uint256","internalType":"uint256"}]},{"type":"error","name":"InsufficientShares","inputs":[]},{"type":"error","name":"InvalidAssetsAmount","inputs":[]},{"type":"error","name":"InvalidInitialization","inputs":[]},{"type":"error","name":"InvalidRedemptionMode","inputs":[]},{"type":"error","name":"InvalidSharesAmount","inputs":[]},{"type":"error","name":"NotInitializing","inputs":[]},{"type":"error","name":"NotSharesOwner","inputs":[]},{"type":"error","name":"SafeERC20FailedOperation","inputs":[{"name":"token","type":"address","internalType":"address"}]},{"type":"error","name":"SharesAmountZero","inputs":[]},{"type":"error","name":"TargetMethodNotAuthorized","inputs":[{"name":"target","type":"address","internalType":"address"},{"name":"functionSig","type":"bytes4","internalType":"bytes4"}]},{"type":"error","name":"UpdateAlreadyCompletedInThisBlock","inputs":[]},{"type":"error","name":"UseRequestRedeem","inputs":[]},{"type":"error","name":"ZeroAddress","inputs":[]}],"bytecode":{"object":"0x6080806040523460aa575f51602061367a5f395f51905f525460ff8160401c16609b576002600160401b03196001600160401b038216016049575b6040516135cb90816100af8239f35b6001600160401b0319166001600160401b039081175f51602061367a5f395f51905f525581527fc7f505b2f371ae2175ee4913f4499e1f2633a7b5936321eed1cdaeb6115181d290602090a15f80603a565b63f92ee8a960e01b5f5260045ffd5b5f80fdfe6080604052600436101561004b575b3615610018575f80fd5b604080513381523460208201527f88a5966d370b9919b20f3e2c13ff65706f196a4e32cc2c12bf57088f885258749190a1005b5f358060e01c806301e1d114146120ed57806303d4113b146120d057806306fdde0314611fed57806307a2d13a14611913578063095ea7b314611ef25780630a28a47714611ea357806312d36fd314611c2f578063150b7a0214611bc057806316f020d614611b9a57806318160ddd14611b715780631cd1c8c314611a9b57806323b872dd14611a63578063313ce56714611a0457806338d52e0f146119bf5780633f4ba83a14611918578063402d267d146106e85780634cdad5061461191357806353dc1dd3146118c8578063560b23181461184f5780635c975abb146118215780636442b2ba146116f15780636e553f651461166757806370a08231146116255780637339957014611600578063760f5f27146115e35780637a9e5e4b146114565780637d41c86e1461143a578063809dab6a1461137f5780638456cb59146112fe5780638da5cb5b146112b95780639317c20014610abd57806394bf804d14610a3457806395d89b411461092c578063a9059cbb146108fb578063ab4f0f01146108de578063ac9dc9e8146108c1578063b3d7f6b9146108a3578063b460af9414610862578063ba08765214610839578063ba7b37d414610803578063bc197c8114610750578063bf7e214f1461070b578063c63d75b6146106e8578063c6e6f59214610535578063ce96cb77146106c5578063d905777e1461069a578063d9972b9614610656578063dd62ed3e146105dd578063e8ccdf3f1461053a578063ef8b30f714610535578063f23a6e61146104c6578063f2fde38b146104145763f6e715d01461029d575061000e565b346103fd5760603660031901126103fd576102b6612164565b6024359067ffffffffffffffff82116103fd576102f56102f06102e66001600160e01b03199436906004016121c1565b9490951633612af6565b6123df565b6102ff8284612493565b7fdd3fd67aef415aded9493b31ad20a02d2991d4bb2760431cc729821271eaea015460405163b700961360e01b81523360048201526001600160a01b0384811660248301526001600160e01b031984166044830152909160209183916064918391165afa908115610409575f916103b1575b6103ad61039986866103938a61038889848a6124ea565b604435933691612291565b90612cdc565b604051918291602083526020830190612107565b0390f35b93929190506020843d602011610401575b816103cf60209383612253565b810103126103fd576103ad9461038861039392846103ef610399986124dd565b945050939495505094610371565b5f80fd5b3d91506103c2565b6040513d5f823e3d90fd5b50346103fd5760203660031901126103fd576001600160a01b039061044e6102f06001600160e01b0319610446612164565b931633612af6565b16806001600160a01b03197fdd3fd67aef415aded9493b31ad20a02d2991d4bb2760431cc729821271eaea005416177fdd3fd67aef415aded9493b31ad20a02d2991d4bb2760431cc729821271eaea0055337f8be0079c531659141344cd1fd0a4f28419497f9722a3daafe3b4186f6b6457e05f80a3005b346103fd5760a03660031901126103fd576104df612164565b506104e861217a565b5060843567ffffffffffffffff81116103fd576105099036906004016121c1565b505060206040517ff23a6e61000000000000000000000000000000000000000000000000000000008152f35b6122e5565b50346103fd5760203660031901126103fd576001600160a01b039061056c6102f06001600160e01b0319610446612164565b1680156105b5576001600160a01b0319600454826001600160a01b0382167f71e86d7b6261afe37537fed8f42bf15d2ed9344bd8bd3949ea67fdf36a5e55545f80a31617600455005b7fd92e233d000000000000000000000000000000000000000000000000000000005f5260045ffd5b346103fd5760403660031901126103fd576105f6612164565b6001600160a01b0361064061060961217a565b926001600160a01b03165f527f52c63247e1f47db19d5ce0460030c497f067ca4cebf71ba98eeadabe20bace0160205260405f2090565b91165f52602052602060405f2054604051908152f35b346103fd5760403660031901126103fd5761066f612164565b602435906001600160e01b0319821682036103fd5760209161069091612af6565b6040519015158152f35b346103fd5760203660031901126103fd5760206106bd6106b8612164565b612ab8565b604051908152f35b346103fd5760203660031901126103fd5760206106bd6106e3612164565b612a74565b346103fd5760203660031901126103fd5760206106bd610706612164565b612543565b346103fd575f3660031901126103fd5760206001600160a01b037fdd3fd67aef415aded9493b31ad20a02d2991d4bb2760431cc729821271eaea015416604051908152f35b346103fd5760a03660031901126103fd57610769612164565b5061077261217a565b5060443567ffffffffffffffff81116103fd57610793903690600401612190565b505060643567ffffffffffffffff81116103fd576107b5903690600401612190565b505060843567ffffffffffffffff81116103fd576107d79036906004016121c1565b505060206040517fbc197c81000000000000000000000000000000000000000000000000000000008152f35b50346103fd5760203660031901126103fd576102f06001600160e01b031961082c921633612af6565b6108376004356127f9565b005b346103fd5760206106bd61084c36612219565b91610855613108565b61085d613108565b612563565b346103fd5761087036612219565b50505061087b613108565b7f797f246a000000000000000000000000000000000000000000000000000000005f5260045ffd5b346103fd5760203660031901126103fd5760206106bd600435612c01565b346103fd575f3660031901126103fd576020600354604051908152f35b346103fd575f3660031901126103fd576020600654604051908152f35b346103fd5760403660031901126103fd57610921610917612164565b6024359033612d37565b602060405160018152f35b346103fd575f3660031901126103fd576040515f7f52c63247e1f47db19d5ce0460030c497f067ca4cebf71ba98eeadabe20bace045461096b816123a7565b8084529060018116908115610a105750600114610993575b6103ad8361039981850382612253565b7f52c63247e1f47db19d5ce0460030c497f067ca4cebf71ba98eeadabe20bace045f9081527f46a2803e59a4de4e7a4c574b1243f25977ac4c77d5a1a4a609b5394cebb4a2aa939250905b8082106109f657509091508101602001610399610983565b9192600181602092548385880101520191019092916109de565b60ff191660208086019190915291151560051b840190910191506103999050610983565b346103fd5760403660031901126103fd57600435610a5061217a565b90610a59613108565b610a6282612543565b808211610a81576020836106bd84610a7981612c01565b809333613232565b916001600160a01b03907f284ff667000000000000000000000000000000000000000000000000000000005f521660045260245260445260645ffd5b346103fd5760c03660031901126103fd576004356001600160a01b0381168082036103fd57610aea61217a565b604435906001600160a01b0382168092036103fd57606435926001600160a01b0384168094036103fd5760843567ffffffffffffffff81116103fd57610b349036906004016122c7565b9460a43567ffffffffffffffff81116103fd57610b559036906004016122c7565b7ff0c57e16840df040f15088dc2f81fe391c3923bec73e23a9662efc9c229c6a00549660ff8860401c16159767ffffffffffffffff8116801590816112b1575b60011490816112a7575b15908161129e575b506112765767ffffffffffffffff1981166001177ff0c57e16840df040f15088dc2f81fe391c3923bec73e23a9662efc9c229c6a005588611237575b50610bec613364565b610bf4613364565b610bfc613364565b80519067ffffffffffffffff82116110e7578190610c3a7f52c63247e1f47db19d5ce0460030c497f067ca4cebf71ba98eeadabe20bace03546123a7565b601f81116111aa575b50602090601f8311600114611106575f926110fb575b50508160011b915f199060031b1c1916177f52c63247e1f47db19d5ce0460030c497f067ca4cebf71ba98eeadabe20bace03555b80519067ffffffffffffffff82116110e757610cc97f52c63247e1f47db19d5ce0460030c497f067ca4cebf71ba98eeadabe20bace04546123a7565b601f8111611065575b50602090601f8311600114610fb45791806001600160a01b0396959492610d43945f92610fa9575b50508160011b915f199060031b1c1916177f52c63247e1f47db19d5ce0460030c497f067ca4cebf71ba98eeadabe20bace04555b610d36613364565b610d3e613364565b6134c6565b9015610fa1575b7fffffffffffffffffffffff00000000000000000000000000000000000000000074ff00000000000000000000000000000000000000007f0773e532dfede91f04b12a73d3d2acd361424f41f76b4fb79f090161e36b4e00549260a01b16911617177f0773e532dfede91f04b12a73d3d2acd361424f41f76b4fb79f090161e36b4e0055610dd6613364565b16806001600160a01b03197fdd3fd67aef415aded9493b31ad20a02d2991d4bb2760431cc729821271eaea005416177fdd3fd67aef415aded9493b31ad20a02d2991d4bb2760431cc729821271eaea00556001600160a01b03197fdd3fd67aef415aded9493b31ad20a02d2991d4bb2760431cc729821271eaea0154167fdd3fd67aef415aded9493b31ad20a02d2991d4bb2760431cc729821271eaea0155337f8be0079c531659141344cd1fd0a4f28419497f9722a3daafe3b4186f6b6457e05f80a35f337fa3396fd7f6e0a21b50e5089d2da70d5ac0a3bbbd1f617a93f134b763899801988280a3610ec8613364565b610ed0613364565b60ff195f51602061359f5f395f51905f5254165f51602061359f5f395f51905f525580156105b55781156105b5576001600160a01b03195f5416175f556001600160a01b03196004541617600455610f2457005b68ff0000000000000000197ff0c57e16840df040f15088dc2f81fe391c3923bec73e23a9662efc9c229c6a0054167ff0c57e16840df040f15088dc2f81fe391c3923bec73e23a9662efc9c229c6a00557fc7f505b2f371ae2175ee4913f4499e1f2633a7b5936321eed1cdaeb6115181d2602060405160018152a1005b506012610d4a565b015190508a80610cfa565b90601f198316917f52c63247e1f47db19d5ce0460030c497f067ca4cebf71ba98eeadabe20bace045f52815f20925f5b81811061104d5750926001928592610d43966001600160a01b039a99989610611035575b505050811b017f52c63247e1f47db19d5ce0460030c497f067ca4cebf71ba98eeadabe20bace0455610d2e565b01515f1960f88460031b161c191690558a8080611008565b92936020600181928786015181550195019301610fe4565b7f52c63247e1f47db19d5ce0460030c497f067ca4cebf71ba98eeadabe20bace045f527f46a2803e59a4de4e7a4c574b1243f25977ac4c77d5a1a4a609b5394cebb4a2aa601f840160051c810191602085106110dd575b601f0160051c01905b8181106110d25750610cd2565b5f81556001016110c5565b90915081906110bc565b634e487b7160e01b5f52604160045260245ffd5b015190508980610c59565b7f52c63247e1f47db19d5ce0460030c497f067ca4cebf71ba98eeadabe20bace035f9081528281209350601f198516905b818110611192575090846001959493921061117a575b505050811b017f52c63247e1f47db19d5ce0460030c497f067ca4cebf71ba98eeadabe20bace0355610c8d565b01515f1960f88460031b161c1916905589808061114d565b92936020600181928786015181550195019301611137565b7f52c63247e1f47db19d5ce0460030c497f067ca4cebf71ba98eeadabe20bace035f529091507f2ae08a8e29253f69ac5d979a101956ab8f8d9d7ded63fa7a83b16fc47648eab0601f840160051c8101916020851061122d575b90601f859493920160051c01905b81811061121f5750610c43565b5f8155849350600101611212565b9091508190611204565b68ffffffffffffffffff191668010000000000000001177ff0c57e16840df040f15088dc2f81fe391c3923bec73e23a9662efc9c229c6a005588610be3565b7ff92ee8a9000000000000000000000000000000000000000000000000000000005f5260045ffd5b9050158a610ba7565b303b159150610b9f565b8a9150610b95565b346103fd575f3660031901126103fd5760206001600160a01b037fdd3fd67aef415aded9493b31ad20a02d2991d4bb2760431cc729821271eaea005416604051908152f35b50346103fd575f3660031901126103fd576102f06001600160e01b0319611326921633612af6565b61132e613108565b600160ff195f51602061359f5f395f51905f525416175f51602061359f5f395f51905f52557f62e78cea01bee320cd4e420270b5ea74000d11b0c9f74754ebdbfc544b05a2586020604051338152a1005b346103fd575f3660031901126103fd57602460206001600160a01b037f0773e532dfede91f04b12a73d3d2acd361424f41f76b4fb79f090161e36b4e005416604051928380926370a0823160e01b82523060048301525afa908115610409575f91611408575b5060065490818111156113fe576020916106bd91612536565b505060205f6106bd565b90506020813d602011611432575b8161142360209383612253565b810103126103fd5751816113e5565b3d9150611416565b346103fd5760206106bd61144d36612219565b9161085d613108565b50346103fd5760203660031901126103fd57600435906001600160a01b0382168092036103fd576001600160a01b037fdd3fd67aef415aded9493b31ad20a02d2991d4bb2760431cc729821271eaea005416331490811561152f575b50156103fd57806001600160a01b03197fdd3fd67aef415aded9493b31ad20a02d2991d4bb2760431cc729821271eaea015416177fdd3fd67aef415aded9493b31ad20a02d2991d4bb2760431cc729821271eaea0155337fa3396fd7f6e0a21b50e5089d2da70d5ac0a3bbbd1f617a93f134b763899801985f80a3005b7fdd3fd67aef415aded9493b31ad20a02d2991d4bb2760431cc729821271eaea015460405163b700961360e01b81523360048201523060248201526001600160e01b0319929092166044830152909150602090829060649082906001600160a01b03165afa908115610409575f916115a9575b505f6114b2565b90506020813d6020116115db575b816115c460209383612253565b810103126103fd576115d5906124dd565b5f6115a2565b3d91506115b7565b346103fd575f3660031901126103fd576020600254604051908152f35b346103fd575f3660031901126103fd5760206001600160a01b035f5416604051908152f35b346103fd5760203660031901126103fd5760206106bd611643612164565b6001600160a01b03165f525f51602061355f5f395f51905f5260205260405f205490565b346103fd5760403660031901126103fd5760043561168361217a565b9061168c613108565b61169582612543565b8082116116b557506106bd6020926116ac83612c74565b92839133613232565b916001600160a01b03907f79012fb2000000000000000000000000000000000000000000000000000000005f521660045260245260445260645ffd5b50346103fd576001600160e01b0319906102f061171c611710366121ef565b93919590941633612af6565b6001600160a01b03831692835f52600560205260405f209384549485151580611817575b156117ef576001810190815496871515806117e5575b156117bd57610837976117759261176e898994612536565b9055612536565b905561178383600654612536565b6006557f1165aa98d42fbaef9bacc273d7b5cca8edc94909519f8f949ec33562963c87e460408051868152856020820152a2309030612f71565b7f3b832713000000000000000000000000000000000000000000000000000000005f5260045ffd5b5087861115611756565b7f01e3468e000000000000000000000000000000000000000000000000000000005f5260045ffd5b5085851115611740565b346103fd575f3660031901126103fd57602060ff5f51602061359f5f395f51905f5254166040519015158152f35b50346103fd5760203660031901126103fd576001600160a01b03906118816102f06001600160e01b0319610446612164565b1680156105b5576001600160a01b03195f54826001600160a01b0382167fe02404e8ee2b8389e3dd58c236f6b16e91da18f91ef4a5a763a94517394ce96b5f80a316175f55005b346103fd5760203660031901126103fd5760406001600160a01b036118eb612164565b16805f5260056020526001825f200154905f526005602052815f205482519182526020820152f35b612146565b50346103fd575f3660031901126103fd576102f06001600160e01b0319611940921633612af6565b5f51602061359f5f395f51905f525460ff8116156119975760ff19165f51602061359f5f395f51905f52557f5db9ee0a495bf2e6ff9c91a7834c1ba4fdd244a5e8aa4e537bd38aeae4b073aa6020604051338152a1005b7f8dfc202b000000000000000000000000000000000000000000000000000000005f5260045ffd5b346103fd575f3660031901126103fd5760206001600160a01b037f0773e532dfede91f04b12a73d3d2acd361424f41f76b4fb79f090161e36b4e005416604051908152f35b346103fd575f3660031901126103fd5760ff7f0773e532dfede91f04b12a73d3d2acd361424f41f76b4fb79f090161e36b4e005460a01c1660ff8111611a4f57602090604051908152f35b634e487b7160e01b5f52601160045260245ffd5b346103fd5760603660031901126103fd57610921611a7f612164565b611a8761217a565b60443591611a96833383612e55565b612d37565b50346103fd576102f0906001600160e01b0319611ac6611aba366121ef565b95919390941633612af6565b6001600160a01b038116805f52600560205260405f209384549081151580611b67575b156117ef57600186019081549182151580611b5d575b156117bd57611b3a826040946108379a61176e8b7f55ec94ca0f01023d07c5752a75f44048cfbdb0e4cfedf5e7eacecf21fcde358799612536565b9055611b4881600654612536565b6006558151908682526020820152a230612d37565b5082821115611aff565b5081851115611ae9565b346103fd575f3660031901126103fd5760205f51602061357f5f395f51905f5254604051908152f35b346103fd575f3660031901126103fd5760206001600160a01b0360045416604051908152f35b346103fd5760803660031901126103fd57611bd9612164565b50611be261217a565b5060643567ffffffffffffffff81116103fd57611c039036906004016121c1565b505060206040517f150b7a02000000000000000000000000000000000000000000000000000000008152f35b50346103fd5760203660031901126103fd5760043567ffffffffffffffff81116103fd57611c7a6102f0611c706001600160e01b0319933690600401612190565b9390941633612af6565b8015611e5f575f5b818110611c8b57005b80611cb0611caa611ca0611d3594868861242a565b6020810190612460565b90612493565b6020816001600160a01b037fdd3fd67aef415aded9493b31ad20a02d2991d4bb2760431cc729821271eaea015416611cf1611cec86898b61242a565b6124c9565b60405163b700961360e01b81523360048201526001600160a01b0390911660248201526001600160e01b031990921660448301529094859190829081906064820190565b03915afa928315610409575f93611e1e575b50611d6381600194611d5d611cec86898b61242a565b906124ea565b817f2f13a569f6d2fba5618730b89cb049a8d430f6bd0aa6eea26e948d8d663d7c766001600160e01b0319611dca87611da0611cec86838d61242a565b6103938b6040611dc089611db8611ca082898761242a565b97909461242a565b0135933691612291565b93611e156001600160a01b038a6040611df2888d611dec611cec83838861242a565b9461242a565b013560405195869516855260208501526060604085015216956060830190612107565b0390a301611c82565b92506020833d8211611e57575b81611e3860209383612253565b810103126103fd57611d6381611e4f6001956124dd565b945050611d47565b3d9150611e2b565b606460405162461bcd60e51b815260206004820152601160248201527f4e6f2063616c6c732070726f76696465640000000000000000000000000000006044820152fd5b346103fd5760203660031901126103fd575f51602061357f5f395f51905f525460018101809111611a4f57611ed6612310565b60018101809111611a4f5760016106bd91602093600435613148565b346103fd5760403660031901126103fd57611f0b612164565b602435903315611fc1576001600160a01b0316908115611f9557335f9081527f52c63247e1f47db19d5ce0460030c497f067ca4cebf71ba98eeadabe20bace0160205260409020825f526020528060405f20556040519081527f8c5be1e5ebec7d5bd14f71427d1e84f3dd0314c0f7b2291e5b200ac8c7c3b92560203392a3602060405160018152f35b7f94280d62000000000000000000000000000000000000000000000000000000005f525f60045260245ffd5b7fe602df05000000000000000000000000000000000000000000000000000000005f525f60045260245ffd5b346103fd575f3660031901126103fd576040515f7f52c63247e1f47db19d5ce0460030c497f067ca4cebf71ba98eeadabe20bace035461202c816123a7565b8084529060018116908115610a105750600114612053576103ad8361039981850382612253565b7f52c63247e1f47db19d5ce0460030c497f067ca4cebf71ba98eeadabe20bace035f9081527f2ae08a8e29253f69ac5d979a101956ab8f8d9d7ded63fa7a83b16fc47648eab0939250905b8082106120b657509091508101602001610399610983565b91926001816020925483858801015201910190929161209e565b346103fd575f3660031901126103fd576020600154604051908152f35b346103fd575f3660031901126103fd5760206106bd612310565b91908251928382525f5b848110612131575050825f602080949584010152601f8019910116010190565b80602080928401015182828601015201612111565b346103fd5760203660031901126103fd5760206106bd600435612c3b565b600435906001600160a01b03821682036103fd57565b602435906001600160a01b03821682036103fd57565b9181601f840112156103fd5782359167ffffffffffffffff83116103fd576020808501948460051b0101116103fd57565b9181601f840112156103fd5782359167ffffffffffffffff83116103fd57602083818601950101116103fd57565b60609060031901126103fd576004356001600160a01b03811681036103fd57906024359060443590565b60609060031901126103fd57600435906024356001600160a01b03811681036103fd57906044356001600160a01b03811681036103fd5790565b90601f8019910116810190811067ffffffffffffffff8211176110e757604052565b67ffffffffffffffff81116110e757601f01601f191660200190565b92919261229d82612275565b916122ab6040519384612253565b8294818452818301116103fd578281602093845f960137010152565b9080601f830112156103fd578160206122e293359101612291565b90565b346103fd5760203660031901126103fd5760206106bd600435612c74565b91908201809211611a4f57565b602460206001600160a01b037f0773e532dfede91f04b12a73d3d2acd361424f41f76b4fb79f090161e36b4e005416604051928380926370a0823160e01b82523060048301525afa8015610409575f90612373575b6122e2915060015490612303565b506020813d60201161239f575b8161238d60209383612253565b810103126103fd576122e29051612365565b3d9150612380565b90600182811c921680156123d5575b60208310146123c157565b634e487b7160e01b5f52602260045260245ffd5b91607f16916123b6565b156123e657565b606460405162461bcd60e51b815260206004820152600c60248201527f554e415554484f52495a454400000000000000000000000000000000000000006044820152fd5b919081101561244c5760051b81013590605e19813603018212156103fd570190565b634e487b7160e01b5f52603260045260245ffd5b903590601e19813603018212156103fd570180359067ffffffffffffffff82116103fd576020019181360383136103fd57565b919091356001600160e01b0319811692600481106124af575050565b6001600160e01b0319929350829060040360031b1b161690565b356001600160a01b03811681036103fd5790565b519081151582036103fd57565b156124f3575050565b906001600160a01b036001600160e01b0319927ffb563026000000000000000000000000000000000000000000000000000000005f52166004521660245260445ffd5b91908203918211611a4f57565b5060ff5f51602061359f5f395f51905f52541661255f575f1990565b5f90565b9081156127d1576001600160a01b038316913383036127a957825f525f51602061355f5f395f51905f526020528060405f205410612781576125a481612c3b565b936001600160a01b036004541692604051957f51eda43e000000000000000000000000000000000000000000000000000000008752306004880152836024880152604487015284606487015260408660a4815f6001600160a01b038616988960848401525af1958615610409575f905f9761273e575b50600281101561272a578061267257509161265b8187847f9a626d8a4952950c7f8b9f5c92a2804e44e147ce4dd0add2f5928f1faea7259096606096612f71565b60405190868252602082015260016040820152a390565b949593949293919260011415905061270257826126b47f9a626d8a4952950c7f8b9f5c92a2804e44e147ce4dd0add2f5928f1faea72590946060943090612d37565b6126c082600654612303565b600655845f526005602052600160405f206126dc838254612303565b8155016126ea838254612303565b905560405191825260208201525f6040820152a35f90565b7f03e28a1b000000000000000000000000000000000000000000000000000000005f5260045ffd5b634e487b7160e01b5f52602160045260245ffd5b9650506040863d604011612779575b8161275a60409383612253565b810103126103fd5785519560028710156103fd5760200151955f61261a565b3d915061274d565b7f39996567000000000000000000000000000000000000000000000000000000005f5260045ffd5b7fe7fe5cf4000000000000000000000000000000000000000000000000000000005f5260045ffd5b7f840c364a000000000000000000000000000000000000000000000000000000005f5260045ffd5b600254431115612a4c576001600160a01b035f54169060035460245f51602061357f5f395f51905f525460206001600160a01b037f0773e532dfede91f04b12a73d3d2acd361424f41f76b4fb79f090161e36b4e005416604051938480926370a0823160e01b82523060048301525afa918215610409575f92612a17575b50906084604092835196879384927f1faab223000000000000000000000000000000000000000000000000000000008452876004850152602484015260448301528660648301525afa928315610409575f905f946129d6575b501561294957508060015581600355436002556040519080825260208201527f9b01f304f89acbc3f9ca1425e6ce22d5f57df58c42b9adc0dac4c4a71236f98e60404292a26040519080825260208201527f3f22d682a7202099eeac8a14fda6f2bbcadb8b7e2a83b665b69776e8d606151660404292a2565b919050612954613108565b600160ff195f51602061359f5f395f51905f525416175f51602061359f5f395f51905f52557f62e78cea01bee320cd4e420270b5ea74000d11b0c9f74754ebdbfc544b05a2586020604051338152a160405191825260208201527f624f9968f9037cc40b91b22280a8f1a3f1fd95e6d2f00e1d7ae4aa10ff2e59c460404292a2565b9350506040833d604011612a0f575b816129f260409383612253565b810103126103fd576020612a05846124dd565b930151925f6128d0565b3d91506129e5565b91506020823d602011612a44575b81612a3260209383612253565b810103126103fd579051906084612877565b3d9150612a25565b7f95628bbc000000000000000000000000000000000000000000000000000000005f5260045ffd5b60ff5f51602061359f5f395f51905f525416612ab3576001600160a01b03165f525f51602061355f5f395f51905f526020526122e260405f2054612c3b565b505f90565b60ff5f51602061359f5f395f51905f525416612ab3576122e2906001600160a01b03165f525f51602061355f5f395f51905f5260205260405f205490565b6001600160a01b037fdd3fd67aef415aded9493b31ad20a02d2991d4bb2760431cc729821271eaea015416918215159283612b6c575b50508115612b38575090565b90506001600160a01b03807fdd3fd67aef415aded9493b31ad20a02d2991d4bb2760431cc729821271eaea00541691161490565b60405163b700961360e01b81526001600160a01b03841660048201523060248201526001600160e01b031992909216604483015291925090602090829060649082905afa908115610409575f91612bc7575b50905f80612b2c565b90506020813d602011612bf9575b81612be260209383612253565b810103126103fd57612bf3906124dd565b5f612bbe565b3d9150612bd5565b612c09612310565b9060018201809211611a4f575f51602061357f5f395f51905f525460018101809111611a4f576122e292600192613148565b612c43612310565b9060018201809211611a4f575f51602061357f5f395f51905f525460018101809111611a4f576122e2925f92613148565b5f51602061357f5f395f51905f52549060018201809211611a4f57612c97612310565b60018101809111611a4f576122e2925f92613148565b3d15612cd7573d90612cbe82612275565b91612ccc6040519384612253565b82523d5f602084013e565b606090565b90929192834710612d07575f816122e294956020839451920190855af1612d01612cad565b916131a6565b83477fcf479181000000000000000000000000000000000000000000000000000000005f5260045260245260445ffd5b6001600160a01b0316908115612e29576001600160a01b0316918215612dfd57612d5f613108565b815f525f51602061355f5f395f51905f5260205260405f2054818110612de457817fddf252ad1be2c89b69c2b068fc378daa952ba7f163c4a11628f55a4df523b3ef92602092855f525f51602061355f5f395f51905f5284520360405f2055845f525f51602061355f5f395f51905f52825260405f20818154019055604051908152a3565b8263391434e360e21b5f5260045260245260445260645ffd5b7fec442f05000000000000000000000000000000000000000000000000000000005f525f60045260245ffd5b7f96c6fd1e000000000000000000000000000000000000000000000000000000005f525f60045260245ffd5b9190612e91836001600160a01b03165f527f52c63247e1f47db19d5ce0460030c497f067ca4cebf71ba98eeadabe20bace0160205260405f2090565b6001600160a01b0382165f5260205260405f2054925f198410612eb5575b50505050565b828410612f34576001600160a01b03811615611fc1576001600160a01b03821615611f9557612f1c6001600160a01b03916001600160a01b03165f527f52c63247e1f47db19d5ce0460030c497f067ca4cebf71ba98eeadabe20bace0160205260405f2090565b91165f5260205260405f20910390555f808080612eaf565b506001600160a01b0383917ffb8f41b2000000000000000000000000000000000000000000000000000000005f521660045260245260445260645ffd5b91936001600160a01b03851694816001600160a01b038516948786036130f7575b5050508415612e2957612fa3613108565b845f525f51602061355f5f395f51905f5260205260405f20548181106130de577ffbde797d201c681b91056529119e0b02407c7bb96a4a2c75c01fc9667232c8db92826040936001600160a01b0393895f525f51602061355f5f395f51905f5260205203845f2055805f51602061357f5f395f51905f5254035f51602061357f5f395f51905f52555f887fddf252ad1be2c89b69c2b068fc378daa952ba7f163c4a11628f55a4df523b3ef60208751858152a37f0773e532dfede91f04b12a73d3d2acd361424f41f76b4fb79f090161e36b4e005484517fa9059cbb0000000000000000000000000000000000000000000000000000000060208201526001600160a01b038416602482015260448082018a905281526130cf9185166130ca606483612253565b613459565b835196875260208701521693a4565b8563391434e360e21b5f5260045260245260445260645ffd5b61310092612e55565b5f8181612f92565b60ff5f51602061359f5f395f51905f52541661312057565b7fd93c0665000000000000000000000000000000000000000000000000000000005f5260045ffd5b92916131558183866133bb565b92600481101561272a57600180911614918261317b575b50506122e29250151590612303565b9080925015613192576122e2930915155f8061316c565b634e487b7160e01b5f52601260045260245ffd5b906131e357508051156131bb57805190602001fd5b7fd6bda275000000000000000000000000000000000000000000000000000000005f5260045ffd5b81511580613229575b6131f4575090565b6001600160a01b03907f9996b315000000000000000000000000000000000000000000000000000000005f521660045260245ffd5b50803b156131ec565b91906001600160a01b03906132b3827f0773e532dfede91f04b12a73d3d2acd361424f41f76b4fb79f090161e36b4e0054169483604051917f23b872dd0000000000000000000000000000000000000000000000000000000060208401521695866024830152306044830152856064830152606482526130ca608483612253565b16928315612dfd577fdcbc1c05240f31ff3ad067ef1ee35ce4997762752e3a095284754544f4c709d7916040916132e8613108565b613300815f51602061357f5f395f51905f5254612303565b5f51602061357f5f395f51905f5255855f525f51602061355f5f395f51905f52602052825f20818154019055855f7fddf252ad1be2c89b69c2b068fc378daa952ba7f163c4a11628f55a4df523b3ef60208651858152a382519182526020820152a3565b60ff7ff0c57e16840df040f15088dc2f81fe391c3923bec73e23a9662efc9c229c6a005460401c161561339357565b7fd7e6bcf8000000000000000000000000000000000000000000000000000000005f5260045ffd5b91818302915f198185099383808610950394808603951461344b57848311156134335790829109815f0382168092046002816003021880820260020302808202600203028082026002030280820260020302808202600203028091026002030293600183805f03040190848311900302920304170290565b82634e487b715f52156003026011186020526024601cfd5b505080925015613192570490565b905f602091828151910182855af115610409575f513d6134bd57506001600160a01b0381163b155b6134885750565b6001600160a01b03907f5274afe7000000000000000000000000000000000000000000000000000000005f521660045260245ffd5b60011415613481565b5f80916040516001600160a01b0360208201917f313ce5670000000000000000000000000000000000000000000000000000000083526004815261350b602482612253565b5192165afa613518612cad565b9080613552575b61352b575b505f905f90565b602081519181808201938492010103126103fd575160ff8111613524579060ff6001921690565b5060208151101561351f56fe52c63247e1f47db19d5ce0460030c497f067ca4cebf71ba98eeadabe20bace0052c63247e1f47db19d5ce0460030c497f067ca4cebf71ba98eeadabe20bace02cd5ed15c6e187e77e9aee88184c21f4f2182ab5827cb3b7e07fbedcd63f03300a164736f6c634300081c000af0c57e16840df040f15088dc2f81fe391c3923bec73e23a9662efc9c229c6a00","linkReferences":{}},"methodIdentifiers":{"aggregatedUnderlyingBalances()":"03d4113b","allowance(address,address)":"dd62ed3e","approve(address,uint256)":"095ea7b3","asset()":"38d52e0f","authority()":"bf7e214f","balanceOf(address)":"70a08231","balanceUpdateHook()":"73399570","cancelRedeem(address,uint256,uint256)":"1cd1c8c3","convertToAssets(uint256)":"07a2d13a","convertToShares(uint256)":"c6e6f592","decimals()":"313ce567","deposit(uint256,address)":"6e553f65","fulfillRedeem(address,uint256,uint256)":"6442b2ba","getAvailableBalance()":"809dab6a","initialize(address,address,address,address,string,string)":"9317c200","isAuthorized(address,bytes4)":"d9972b96","lastBlockUpdated()":"760f5f27","lastPricePerShare()":"ac9dc9e8","manage(address,bytes,uint256)":"f6e715d0","manageBatch((address,bytes,uint256)[])":"12d36fd3","maxDeposit(address)":"402d267d","maxMint(address)":"c63d75b6","maxRedeem(address)":"d905777e","maxWithdraw(address)":"ce96cb77","mint(uint256,address)":"94bf804d","name()":"06fdde03","onERC1155BatchReceived(address,address,uint256[],uint256[],bytes)":"bc197c81","onERC1155Received(address,address,uint256,uint256,bytes)":"f23a6e61","onERC721Received(address,address,uint256,bytes)":"150b7a02","owner()":"8da5cb5b","pause()":"8456cb59","paused()":"5c975abb","pendingRedeemRequest(address)":"53dc1dd3","previewDeposit(uint256)":"ef8b30f7","previewMint(uint256)":"b3d7f6b9","previewRedeem(uint256)":"4cdad506","previewWithdraw(uint256)":"0a28a477","redeem(uint256,address,address)":"ba087652","redemptionHook()":"16f020d6","requestRedeem(uint256,address,address)":"7d41c86e","setAuthority(address)":"7a9e5e4b","setBalanceUpdateHook(address)":"560b2318","setRedemptionHook(address)":"e8ccdf3f","symbol()":"95d89b41","totalAssets()":"01e1d114","totalPendingAssets()":"ab4f0f01","totalSupply()":"18160ddd","transfer(address,uint256)":"a9059cbb","transferFrom(address,address,uint256)":"23b872dd","transferOwnership(address)":"f2fde38b","unpause()":"3f4ba83a","updateBalance(uint256)":"ba7b37d4","withdraw(uint256,address,address)":"b460af94"},"storageLayout":{"storage":[{"astId":55940,"contract":"src/ElitraVault.sol:ElitraVault","label":"balanceUpdateHook","offset":0,"slot":"0","type":"t_contract(IBalanceUpdateHook)59143"},{"astId":55942,"contract":"src/ElitraVault.sol:ElitraVault","label":"aggregatedUnderlyingBalances","offset":0,"slot":"1","type":"t_uint256"},{"astId":55944,"contract":"src/ElitraVault.sol:ElitraVault","label":"lastBlockUpdated","offset":0,"slot":"2","type":"t_uint256"},{"astId":55946,"contract":"src/ElitraVault.sol:ElitraVault","label":"lastPricePerShare","offset":0,"slot":"3","type":"t_uint256"},{"astId":55949,"contract":"src/ElitraVault.sol:ElitraVault","label":"redemptionHook","offset":0,"slot":"4","type":"t_contract(IRedemptionHook)59652"},{"astId":55954,"contract":"src/ElitraVault.sol:ElitraVault","label":"_pendingRedeem","offset":0,"slot":"5","type":"t_mapping(t_address,t_struct(PendingRedeem)59168_storage)"},{"astId":55956,"contract":"src/ElitraVault.sol:ElitraVault","label":"totalPendingAssets","offset":0,"slot":"6","type":"t_uint256"}],"types":{"t_address":{"encoding":"inplace","label":"address","numberOfBytes":"20"},"t_contract(IBalanceUpdateHook)59143":{"encoding":"inplace","label":"contract IBalanceUpdateHook","numberOfBytes":"20"},"t_contract(IRedemptionHook)59652":{"encoding":"inplace","label":"contract IRedemptionHook","numberOfBytes":"20"},"t_mapping(t_address,t_struct(PendingRedeem)59168_storage)":{"encoding":"mapping","key":"t_address","label":"mapping(address => struct IElitraVault.PendingRedeem)","numberOfBytes":"32","value":"t_struct(PendingRedeem)59168_storage"},"t_struct(PendingRedeem)59168_storage":{"encoding":"inplace","label":"struct IElitraVault.PendingRedeem","numberOfBytes":"64","members":[{"astId":59165,"contract":"src/ElitraVault.sol:ElitraVault","label":"shares","offset":0,"slot":"0","type":"t_uint256"},{"astId":59167,"contract":"src/ElitraVault.sol:ElitraVault","label":"assets","offset":0,"slot":"1","type":"t_uint256"}]},"t_uint256":{"encoding":"inplace","label":"uint256","numberOfBytes":"32"}}},"id":93}