{"abi":[{"type":"function","name":"validate","inputs":[{"name":"","type":"address","internalType":"address"},{"name":"","type":"bytes","internalType":"bytes"},{"name":"","type":"uint256","internalType":"uint256"}],"outputs":[{"name":"","type":"bool","internalType":"bool"}],"stateMutability":"pure"}],"bytecode":{"object":"0x6080806040523460135760a1908160188239f35b5f80fdfe60808060405260043610156011575f80fd5b5f3560e01c63db86c42c146023575f80fd5b34609057606036600319011260905760043573ffffffffffffffffffffffffffffffffffffffff81160360905760243567ffffffffffffffff811160905736602382011215609057806004013567ffffffffffffffff811160905736910160240111609057805f60209252f35b5f80fdfea164736f6c634300081c000a","linkReferences":{}},"methodIdentifiers":{"validate(address,bytes,uint256)":"db86c42c"},"storageLayout":{"storage":[],"types":{}},"id":67}