{"abi":[{"type":"function","name":"approve","inputs":[{"name":"spender","type":"address","internalType":"address"},{"name":"id","type":"uint256","internalType":"uint256"}],"outputs":[],"stateMutability":"payable"},{"type":"function","name":"balanceOf","inputs":[{"name":"owner","type":"address","internalType":"address"}],"outputs":[{"name":"","type":"uint256","internalType":"uint256"}],"stateMutability":"view"},{"type":"function","name":"getApproved","inputs":[{"name":"id","type":"uint256","internalType":"uint256"}],"outputs":[{"name":"","type":"address","internalType":"address"}],"stateMutability":"view"},{"type":"function","name":"initialize","inputs":[{"name":"name_","type":"string","internalType":"string"},{"name":"symbol_","type":"string","internalType":"string"}],"outputs":[],"stateMutability":"nonpayable"},{"type":"function","name":"isApprovedForAll","inputs":[{"name":"owner","type":"address","internalType":"address"},{"name":"operator","type":"address","internalType":"address"}],"outputs":[{"name":"","type":"bool","internalType":"bool"}],"stateMutability":"view"},{"type":"function","name":"name","inputs":[],"outputs":[{"name":"","type":"string","internalType":"string"}],"stateMutability":"view"},{"type":"function","name":"ownerOf","inputs":[{"name":"id","type":"uint256","internalType":"uint256"}],"outputs":[{"name":"owner","type":"address","internalType":"address"}],"stateMutability":"view"},{"type":"function","name":"safeTransferFrom","inputs":[{"name":"from","type":"address","internalType":"address"},{"name":"to","type":"address","internalType":"address"},{"name":"id","type":"uint256","internalType":"uint256"}],"outputs":[],"stateMutability":"payable"},{"type":"function","name":"safeTransferFrom","inputs":[{"name":"from","type":"address","internalType":"address"},{"name":"to","type":"address","internalType":"address"},{"name":"id","type":"uint256","internalType":"uint256"},{"name":"data","type":"bytes","internalType":"bytes"}],"outputs":[],"stateMutability":"payable"},{"type":"function","name":"setApprovalForAll","inputs":[{"name":"operator","type":"address","internalType":"address"},{"name":"approved","type":"bool","internalType":"bool"}],"outputs":[],"stateMutability":"nonpayable"},{"type":"function","name":"supportsInterface","inputs":[{"name":"interfaceId","type":"bytes4","internalType":"bytes4"}],"outputs":[{"name":"","type":"bool","internalType":"bool"}],"stateMutability":"view"},{"type":"function","name":"symbol","inputs":[],"outputs":[{"name":"","type":"string","internalType":"string"}],"stateMutability":"view"},{"type":"function","name":"tokenURI","inputs":[{"name":"id","type":"uint256","internalType":"uint256"}],"outputs":[{"name":"","type":"string","internalType":"string"}],"stateMutability":"view"},{"type":"function","name":"transferFrom","inputs":[{"name":"from","type":"address","internalType":"address"},{"name":"to","type":"address","internalType":"address"},{"name":"id","type":"uint256","internalType":"uint256"}],"outputs":[],"stateMutability":"payable"},{"type":"event","name":"Approval","inputs":[{"name":"_owner","type":"address","indexed":true,"internalType":"address"},{"name":"_approved","type":"address","indexed":true,"internalType":"address"},{"name":"_tokenId","type":"uint256","indexed":true,"internalType":"uint256"}],"anonymous":false},{"type":"event","name":"ApprovalForAll","inputs":[{"name":"_owner","type":"address","indexed":true,"internalType":"address"},{"name":"_operator","type":"address","indexed":true,"internalType":"address"},{"name":"_approved","type":"bool","indexed":false,"internalType":"bool"}],"anonymous":false},{"type":"event","name":"Transfer","inputs":[{"name":"_from","type":"address","indexed":true,"internalType":"address"},{"name":"_to","type":"address","indexed":true,"internalType":"address"},{"name":"_tokenId","type":"uint256","indexed":true,"internalType":"uint256"}],"anonymous":false}],"bytecode":{"object":"0x6080604052348015600e575f5ffd5b50610fe78061001c5f395ff3fe6080604052600436106100d9575f3560e01c80636352211e1161007c578063a22cb46511610057578063a22cb46514610238578063b88d4fde14610257578063c87b56dd1461026a578063e985e9c51461028a575f5ffd5b80636352211e146101d857806370a08231146101f757806395d89b4114610224575f5ffd5b8063095ea7b3116100b7578063095ea7b31461017e57806323b872dd1461019357806342842e0e146101a65780634cd88b76146101b9575f5ffd5b806301ffc9a7146100dd57806306fdde0314610111578063081812fc14610132575b5f5ffd5b3480156100e8575f5ffd5b506100fc6100f7366004610af2565b6102d1565b60405190151581526020015b60405180910390f35b34801561011c575f5ffd5b5061012561036d565b6040516101089190610b57565b34801561013d575f5ffd5b5061016661014c366004610b69565b5f908152600460205260409020546001600160a01b031690565b6040516001600160a01b039091168152602001610108565b61019161018c366004610b96565b6103fc565b005b6101916101a1366004610bbe565b6104fc565b6101916101b4366004610bbe565b61072a565b3480156101c4575f5ffd5b506101916101d3366004610ca1565b610822565b3480156101e3575f5ffd5b506101666101f2366004610b69565b61089f565b348015610202575f5ffd5b50610216610211366004610d06565b610908565b604051908152602001610108565b34801561022f575f5ffd5b5061012561097a565b348015610243575f5ffd5b50610191610252366004610d1f565b610989565b610191610265366004610d58565b6109f4565b348015610275575f5ffd5b50610125610284366004610b69565b50606090565b348015610295575f5ffd5b506100fc6102a4366004610dcf565b6001600160a01b039182165f90815260056020908152604080832093909416825291909152205460ff1690565b5f7f01ffc9a7000000000000000000000000000000000000000000000000000000006001600160e01b03198316148061033357507f80ac58cd000000000000000000000000000000000000000000000000000000006001600160e01b03198316145b8061036757507f5b5e139f000000000000000000000000000000000000000000000000000000006001600160e01b03198316145b92915050565b60605f805461037b90610e00565b80601f01602080910402602001604051908101604052809291908181526020018280546103a790610e00565b80156103f25780601f106103c9576101008083540402835291602001916103f2565b820191905f5260205f20905b8154815290600101906020018083116103d557829003601f168201915b5050505050905090565b5f818152600260205260409020546001600160a01b03163381148061044357506001600160a01b0381165f90815260056020908152604080832033845290915290205460ff165b6104945760405162461bcd60e51b815260206004820152600e60248201527f4e4f545f415554484f52495a454400000000000000000000000000000000000060448201526064015b60405180910390fd5b5f82815260046020526040808220805473ffffffffffffffffffffffffffffffffffffffff19166001600160a01b0387811691821790925591518593918516917f8c5be1e5ebec7d5bd14f71427d1e84f3dd0314c0f7b2291e5b200ac8c7c3b92591a4505050565b5f818152600260205260409020546001600160a01b038481169116146105645760405162461bcd60e51b815260206004820152600a60248201527f57524f4e475f46524f4d00000000000000000000000000000000000000000000604482015260640161048b565b6001600160a01b0382166105ba5760405162461bcd60e51b815260206004820152601160248201527f494e56414c49445f524543495049454e54000000000000000000000000000000604482015260640161048b565b336001600160a01b03841614806105f357506001600160a01b0383165f90815260056020908152604080832033845290915290205460ff165b8061061357505f818152600460205260409020546001600160a01b031633145b61065f5760405162461bcd60e51b815260206004820152600e60248201527f4e4f545f415554484f52495a4544000000000000000000000000000000000000604482015260640161048b565b6001600160a01b0383165f90815260036020526040812080549161068283610e4c565b90915550506001600160a01b0382165f9081526003602052604081208054916106aa83610e61565b90915550505f81815260026020908152604080832080546001600160a01b0380881673ffffffffffffffffffffffffffffffffffffffff1992831681179093556004909452828520805490911690559051849391928716917fddf252ad1be2c89b69c2b068fc378daa952ba7f163c4a11628f55a4df523b3ef91a4505050565b6107358383836104fc565b813b15806107d15750604051630a85bd0160e11b8082523360048301526001600160a01b03858116602484015260448301849052608060648401525f608484015290919084169063150b7a029060a4016020604051808303815f875af11580156107a1573d5f5f3e3d5ffd5b505050506040513d601f19601f820116820180604052508101906107c59190610e79565b6001600160e01b031916145b61081d5760405162461bcd60e51b815260206004820152601060248201527f554e534146455f524543495049454e5400000000000000000000000000000000604482015260640161048b565b505050565b60065460ff16156108755760405162461bcd60e51b815260206004820152601360248201527f414c52454144595f494e495449414c495a454400000000000000000000000000604482015260640161048b565b5f6108808382610edf565b50600161088d8282610edf565b50506006805460ff1916600117905550565b5f818152600260205260409020546001600160a01b0316806109035760405162461bcd60e51b815260206004820152600a60248201527f4e4f545f4d494e54454400000000000000000000000000000000000000000000604482015260640161048b565b919050565b5f6001600160a01b03821661095f5760405162461bcd60e51b815260206004820152600c60248201527f5a45524f5f414444524553530000000000000000000000000000000000000000604482015260640161048b565b506001600160a01b03165f9081526003602052604090205490565b60606001805461037b90610e00565b335f8181526005602090815260408083206001600160a01b03871680855290835292819020805460ff191686151590811790915590519081529192917f17307eab39ab6107e8899845ad3d59bd9653f200f220920489ca2b5937696c31910160405180910390a35050565b6109ff8484846104fc565b823b1580610a885750604051630a85bd0160e11b808252906001600160a01b0385169063150b7a0290610a3c903390899088908890600401610f9a565b6020604051808303815f875af1158015610a58573d5f5f3e3d5ffd5b505050506040513d601f19601f82011682018060405250810190610a7c9190610e79565b6001600160e01b031916145b610ad45760405162461bcd60e51b815260206004820152601060248201527f554e534146455f524543495049454e5400000000000000000000000000000000604482015260640161048b565b50505050565b6001600160e01b031981168114610aef575f5ffd5b50565b5f60208284031215610b02575f5ffd5b8135610b0d81610ada565b9392505050565b5f81518084525f5b81811015610b3857602081850181015186830182015201610b1c565b505f602082860101526020601f19601f83011685010191505092915050565b602081525f610b0d6020830184610b14565b5f60208284031215610b79575f5ffd5b5035919050565b80356001600160a01b0381168114610903575f5ffd5b5f5f60408385031215610ba7575f5ffd5b610bb083610b80565b946020939093013593505050565b5f5f5f60608486031215610bd0575f5ffd5b610bd984610b80565b9250610be760208501610b80565b929592945050506040919091013590565b634e487b7160e01b5f52604160045260245ffd5b5f5f67ffffffffffffffff841115610c2657610c26610bf8565b50604051601f19601f85018116603f0116810181811067ffffffffffffffff82111715610c5557610c55610bf8565b604052838152905080828401851015610c6c575f5ffd5b838360208301375f60208583010152509392505050565b5f82601f830112610c92575f5ffd5b610b0d83833560208501610c0c565b5f5f60408385031215610cb2575f5ffd5b823567ffffffffffffffff811115610cc8575f5ffd5b610cd485828601610c83565b925050602083013567ffffffffffffffff811115610cf0575f5ffd5b610cfc85828601610c83565b9150509250929050565b5f60208284031215610d16575f5ffd5b610b0d82610b80565b5f5f60408385031215610d30575f5ffd5b610d3983610b80565b915060208301358015158114610d4d575f5ffd5b809150509250929050565b5f5f5f5f60808587031215610d6b575f5ffd5b610d7485610b80565b9350610d8260208601610b80565b925060408501359150606085013567ffffffffffffffff811115610da4575f5ffd5b8501601f81018713610db4575f5ffd5b610dc387823560208401610c0c565b91505092959194509250565b5f5f60408385031215610de0575f5ffd5b610de983610b80565b9150610df760208401610b80565b90509250929050565b600181811c90821680610e1457607f821691505b602082108103610e3257634e487b7160e01b5f52602260045260245ffd5b50919050565b634e487b7160e01b5f52601160045260245ffd5b5f81610e5a57610e5a610e38565b505f190190565b5f60018201610e7257610e72610e38565b5060010190565b5f60208284031215610e89575f5ffd5b8151610b0d81610ada565b601f82111561081d57805f5260205f20601f840160051c81016020851015610eb95750805b601f840160051c820191505b81811015610ed8575f8155600101610ec5565b5050505050565b815167ffffffffffffffff811115610ef957610ef9610bf8565b610f0d81610f078454610e00565b84610e94565b6020601f821160018114610f3f575f8315610f285750848201515b5f19600385901b1c1916600184901b178455610ed8565b5f84815260208120601f198516915b82811015610f6e5787850151825560209485019460019092019101610f4e565b5084821015610f8b57868401515f19600387901b60f8161c191681555b50505050600190811b01905550565b6001600160a01b03851681526001600160a01b0384166020820152826040820152608060608201525f610fd06080830184610b14565b969550505050505056fea164736f6c634300081c000a","linkReferences":{}},"methodIdentifiers":{"approve(address,uint256)":"095ea7b3","balanceOf(address)":"70a08231","getApproved(uint256)":"081812fc","initialize(string,string)":"4cd88b76","isApprovedForAll(address,address)":"e985e9c5","name()":"06fdde03","ownerOf(uint256)":"6352211e","safeTransferFrom(address,address,uint256)":"42842e0e","safeTransferFrom(address,address,uint256,bytes)":"b88d4fde","setApprovalForAll(address,bool)":"a22cb465","supportsInterface(bytes4)":"01ffc9a7","symbol()":"95d89b41","tokenURI(uint256)":"c87b56dd","transferFrom(address,address,uint256)":"23b872dd"},"storageLayout":{"storage":[{"astId":29293,"contract":"node_modules/forge-std/src/mocks/MockERC721.sol:MockERC721","label":"_name","offset":0,"slot":"0","type":"t_string_storage"},{"astId":29295,"contract":"node_modules/forge-std/src/mocks/MockERC721.sol:MockERC721","label":"_symbol","offset":0,"slot":"1","type":"t_string_storage"},{"astId":29326,"contract":"node_modules/forge-std/src/mocks/MockERC721.sol:MockERC721","label":"_ownerOf","offset":0,"slot":"2","type":"t_mapping(t_uint256,t_address)"},{"astId":29330,"contract":"node_modules/forge-std/src/mocks/MockERC721.sol:MockERC721","label":"_balanceOf","offset":0,"slot":"3","type":"t_mapping(t_address,t_uint256)"},{"astId":29381,"contract":"node_modules/forge-std/src/mocks/MockERC721.sol:MockERC721","label":"_getApproved","offset":0,"slot":"4","type":"t_mapping(t_uint256,t_address)"},{"astId":29387,"contract":"node_modules/forge-std/src/mocks/MockERC721.sol:MockERC721","label":"_isApprovedForAll","offset":0,"slot":"5","type":"t_mapping(t_address,t_mapping(t_address,t_bool))"},{"astId":29420,"contract":"node_modules/forge-std/src/mocks/MockERC721.sol:MockERC721","label":"initialized","offset":0,"slot":"6","type":"t_bool"}],"types":{"t_address":{"encoding":"inplace","label":"address","numberOfBytes":"20"},"t_bool":{"encoding":"inplace","label":"bool","numberOfBytes":"1"},"t_mapping(t_address,t_bool)":{"encoding":"mapping","key":"t_address","label":"mapping(address => bool)","numberOfBytes":"32","value":"t_bool"},"t_mapping(t_address,t_mapping(t_address,t_bool))":{"encoding":"mapping","key":"t_address","label":"mapping(address => mapping(address => bool))","numberOfBytes":"32","value":"t_mapping(t_address,t_bool)"},"t_mapping(t_address,t_uint256)":{"encoding":"mapping","key":"t_address","label":"mapping(address => uint256)","numberOfBytes":"32","value":"t_uint256"},"t_mapping(t_uint256,t_address)":{"encoding":"mapping","key":"t_uint256","label":"mapping(uint256 => address)","numberOfBytes":"32","value":"t_address"},"t_string_storage":{"encoding":"bytes","label":"string","numberOfBytes":"32"},"t_uint256":{"encoding":"inplace","label":"uint256","numberOfBytes":"32"}}},"id":36}