{"src/adapters/layerzero/CrosschainStrategyAdapter.sol":{"CrosschainStrategyAdapter":{"abi":[{"type":"constructor","inputs":[{"name":"_endpoint","type":"address","internalType":"address"},{"name":"_owner","type":"address","internalType":"address"},{"name":"_vault","type":"address","internalType":"address"}],"stateMutability":"nonpayable"},{"type":"receive","stateMutability":"payable"},{"type":"function","name":"allowInitializePath","inputs":[{"name":"origin","type":"tuple","internalType":"struct Origin","components":[{"name":"srcEid","type":"uint32","internalType":"uint32"},{"name":"sender","type":"bytes32","internalType":"bytes32"},{"name":"nonce","type":"uint64","internalType":"uint64"}]}],"outputs":[{"name":"","type":"bool","internalType":"bool"}],"stateMutability":"view"},{"type":"function","name":"emergencyRecover","inputs":[{"name":"token","type":"address","internalType":"address"},{"name":"to","type":"address","internalType":"address"},{"name":"amount","type":"uint256","internalType":"uint256"}],"outputs":[],"stateMutability":"nonpayable"},{"type":"function","name":"endpoint","inputs":[],"outputs":[{"name":"","type":"address","internalType":"contract ILayerZeroEndpointV2"}],"stateMutability":"view"},{"type":"function","name":"isComposeMsgSender","inputs":[{"name":"","type":"tuple","internalType":"struct Origin","components":[{"name":"srcEid","type":"uint32","internalType":"uint32"},{"name":"sender","type":"bytes32","internalType":"bytes32"},{"name":"nonce","type":"uint64","internalType":"uint64"}]},{"name":"","type":"bytes","internalType":"bytes"},{"name":"_sender","type":"address","internalType":"address"}],"outputs":[{"name":"","type":"bool","internalType":"bool"}],"stateMutability":"view"},{"type":"function","name":"lzReceive","inputs":[{"name":"_origin","type":"tuple","internalType":"struct Origin","components":[{"name":"srcEid","type":"uint32","internalType":"uint32"},{"name":"sender","type":"bytes32","internalType":"bytes32"},{"name":"nonce","type":"uint64","internalType":"uint64"}]},{"name":"_guid","type":"bytes32","internalType":"bytes32"},{"name":"_message","type":"bytes","internalType":"bytes"},{"name":"_executor","type":"address","internalType":"address"},{"name":"_extraData","type":"bytes","internalType":"bytes"}],"outputs":[],"stateMutability":"payable"},{"type":"function","name":"nextNonce","inputs":[{"name":"","type":"uint32","internalType":"uint32"},{"name":"","type":"bytes32","internalType":"bytes32"}],"outputs":[{"name":"nonce","type":"uint64","internalType":"uint64"}],"stateMutability":"view"},{"type":"function","name":"oAppVersion","inputs":[],"outputs":[{"name":"senderVersion","type":"uint64","internalType":"uint64"},{"name":"receiverVersion","type":"uint64","internalType":"uint64"}],"stateMutability":"pure"},{"type":"function","name":"owner","inputs":[],"outputs":[{"name":"","type":"address","internalType":"address"}],"stateMutability":"view"},{"type":"function","name":"peers","inputs":[{"name":"eid","type":"uint32","internalType":"uint32"}],"outputs":[{"name":"peer","type":"bytes32","internalType":"bytes32"}],"stateMutability":"view"},{"type":"function","name":"quoteStrategy","inputs":[{"name":"_dstEid","type":"uint32","internalType":"uint32"},{"name":"_recipient","type":"address","internalType":"address"},{"name":"_options","type":"bytes","internalType":"bytes"},{"name":"_payInLzToken","type":"bool","internalType":"bool"}],"outputs":[{"name":"fee","type":"tuple","internalType":"struct MessagingFee","components":[{"name":"nativeFee","type":"uint256","internalType":"uint256"},{"name":"lzTokenFee","type":"uint256","internalType":"uint256"}]}],"stateMutability":"view"},{"type":"function","name":"renounceOwnership","inputs":[],"outputs":[],"stateMutability":"nonpayable"},{"type":"function","name":"sendStrategy","inputs":[{"name":"_dstEid","type":"uint32","internalType":"uint32"},{"name":"_recipient","type":"address","internalType":"address"},{"name":"_options","type":"bytes","internalType":"bytes"}],"outputs":[{"name":"receipt","type":"tuple","internalType":"struct MessagingReceipt","components":[{"name":"guid","type":"bytes32","internalType":"bytes32"},{"name":"nonce","type":"uint64","internalType":"uint64"},{"name":"fee","type":"tuple","internalType":"struct MessagingFee","components":[{"name":"nativeFee","type":"uint256","internalType":"uint256"},{"name":"lzTokenFee","type":"uint256","internalType":"uint256"}]}]}],"stateMutability":"payable"},{"type":"function","name":"setDelegate","inputs":[{"name":"_delegate","type":"address","internalType":"address"}],"outputs":[],"stateMutability":"nonpayable"},{"type":"function","name":"setPeer","inputs":[{"name":"_eid","type":"uint32","internalType":"uint32"},{"name":"_peer","type":"bytes32","internalType":"bytes32"}],"outputs":[],"stateMutability":"nonpayable"},{"type":"function","name":"setVault","inputs":[{"name":"_newVault","type":"address","internalType":"address"}],"outputs":[],"stateMutability":"nonpayable"},{"type":"function","name":"transferOwnership","inputs":[{"name":"newOwner","type":"address","internalType":"address"}],"outputs":[],"stateMutability":"nonpayable"},{"type":"function","name":"vault","inputs":[],"outputs":[{"name":"","type":"address","internalType":"address"}],"stateMutability":"view"},{"type":"event","name":"EmergencyRecovery","inputs":[{"name":"token","type":"address","indexed":true,"internalType":"address"},{"name":"to","type":"address","indexed":true,"internalType":"address"},{"name":"amount","type":"uint256","indexed":false,"internalType":"uint256"}],"anonymous":false},{"type":"event","name":"MessageSent","inputs":[{"name":"dstEid","type":"uint32","indexed":true,"internalType":"uint32"},{"name":"recipient","type":"address","indexed":true,"internalType":"address"}],"anonymous":false},{"type":"event","name":"OwnershipTransferred","inputs":[{"name":"previousOwner","type":"address","indexed":true,"internalType":"address"},{"name":"newOwner","type":"address","indexed":true,"internalType":"address"}],"anonymous":false},{"type":"event","name":"PeerSet","inputs":[{"name":"eid","type":"uint32","indexed":false,"internalType":"uint32"},{"name":"peer","type":"bytes32","indexed":false,"internalType":"bytes32"}],"anonymous":false},{"type":"event","name":"VaultUpdated","inputs":[{"name":"oldVault","type":"address","indexed":true,"internalType":"address"},{"name":"newVault","type":"address","indexed":true,"internalType":"address"}],"anonymous":false},{"type":"error","name":"InvalidDelegate","inputs":[]},{"type":"error","name":"InvalidEndpointCall","inputs":[]},{"type":"error","name":"InvalidFee","inputs":[]},{"type":"error","name":"InvalidRecipient","inputs":[]},{"type":"error","name":"InvalidVault","inputs":[]},{"type":"error","name":"LzTokenUnavailable","inputs":[]},{"type":"error","name":"NoPeer","inputs":[{"name":"eid","type":"uint32","internalType":"uint32"}]},{"type":"error","name":"NotEnoughNative","inputs":[{"name":"msgValue","type":"uint256","internalType":"uint256"}]},{"type":"error","name":"OnlyEndpoint","inputs":[{"name":"addr","type":"address","internalType":"address"}]},{"type":"error","name":"OnlyPeer","inputs":[{"name":"eid","type":"uint32","internalType":"uint32"},{"name":"sender","type":"bytes32","internalType":"bytes32"}]},{"type":"error","name":"OnlyVault","inputs":[]},{"type":"error","name":"OwnableInvalidOwner","inputs":[{"name":"owner","type":"address","internalType":"address"}]},{"type":"error","name":"OwnableUnauthorizedAccount","inputs":[{"name":"account","type":"address","internalType":"address"}]},{"type":"error","name":"SafeERC20FailedOperation","inputs":[{"name":"token","type":"address","internalType":"address"}]}],"userdoc":{},"devdoc":{},"storageLayout":{"storage":[{"astId":1327,"contract":"src/adapters/layerzero/CrosschainStrategyAdapter.sol:CrosschainStrategyAdapter","label":"_owner","offset":0,"slot":"0","type":"t_address"},{"astId":64,"contract":"src/adapters/layerzero/CrosschainStrategyAdapter.sol:CrosschainStrategyAdapter","label":"peers","offset":0,"slot":"1","type":"t_mapping(t_uint32,t_bytes32)"},{"astId":2110,"contract":"src/adapters/layerzero/CrosschainStrategyAdapter.sol:CrosschainStrategyAdapter","label":"vault","offset":0,"slot":"2","type":"t_address"}],"types":{"t_address":{"encoding":"inplace","label":"address","numberOfBytes":"20"},"t_bytes32":{"encoding":"inplace","label":"bytes32","numberOfBytes":"32"},"t_mapping(t_uint32,t_bytes32)":{"encoding":"mapping","key":"t_uint32","label":"mapping(uint32 => bytes32)","numberOfBytes":"32","value":"t_bytes32"},"t_uint32":{"encoding":"inplace","label":"uint32","numberOfBytes":"4"}}},"evm":{"bytecode":{"object":"60a08060405234610165575f9060608161136c8038038091610021828561017c565b83398101031261016557610034816101b3565b61004c6040610045602085016101b3565b93016101b3565b916001600160a01b03168015610169575f80546001600160a01b0319811683178255604051939183916001600160a01b0316907f8be0079c531659141344cd1fd0a4f28419497f9722a3daafe3b4186f6b6457e09080a36001600160a01b03166080819052803b15610165576024835f8193819563ca5eb5e160e01b845260048401525af1801561015a57610145575b506001600160a01b03169081156101365750600280546001600160a01b0319169190911790556040516111a490816101c8823960805181818161021a015281816105e8015281816106f8015281816108a30152610d000152f35b630681d31960e51b8152600490fd5b6101529192505f9061017c565b5f905f6100dc565b6040513d5f823e3d90fd5b5f80fd5b631e4fbdf760e01b5f525f60045260245ffd5b601f909101601f19168101906001600160401b0382119082101761019f57604052565b634e487b7160e01b5f52604160045260245ffd5b51906001600160a01b03821682036101655756fe6080604052600436101561001a575b3615610018575f80fd5b005b5f5f3560e01c806313137d6514610c94578063134a3c5c1461080357806317442b70146107e25780633400288b146107795780634416f5cc1461060c5780635e280f11146105c95780636817031b14610522578063715018a6146104be5780637d25a05e1461049a57806382413eac1461043e5780638da5cb5b14610419578063ad1329d1146102e0578063bb0b6a53146102ab578063ca5eb5e1146101ee578063f2fde38b14610143578063fbfa77cf1461011c5763ff7bd03d146100e0575061000e565b346101195760603660031901126101195760209060409063ffffffff610104610e88565b16815260018352205460405190602435148152f35b80fd5b503461011957806003193601126101195760206001600160a01b0360025416604051908152f35b5034610119576020366003190112610119576001600160a01b03610165610e5f565b61016d6110eb565b1680156101c2576001600160a01b0382548273ffffffffffffffffffffffffffffffffffffffff198216178455167f8be0079c531659141344cd1fd0a4f28419497f9722a3daafe3b4186f6b6457e08380a380f35b6024827f1e4fbdf700000000000000000000000000000000000000000000000000000000815280600452fd5b50346102a75760203660031901126102a757610208610e5f565b6102106110eb565b6001600160a01b037f00000000000000000000000000000000000000000000000000000000000000001690813b156102a7576001600160a01b0360245f928360405195869485937fca5eb5e10000000000000000000000000000000000000000000000000000000085521660048401525af1801561029c57610290575080f35b61001891505f90610f1c565b6040513d5f823e3d90fd5b5f80fd5b346102a75760203660031901126102a75763ffffffff6102c9610e75565b165f526001602052602060405f2054604051908152f35b346102a75760603660031901126102a7576102f9610e5f565b610301610e49565b6001600160a01b03604435916103156110eb565b169182156103f1576001600160a01b0316908161037c575f81848115610372575b5f92839283928392f11561029c5760207f1ac506e936e7f02f4036dbe44708f5e8d72af9ace8745a29fd391481a8fbcb87915b604051908152a3005b6108fc9250610336565b60207f1ac506e936e7f02f4036dbe44708f5e8d72af9ace8745a29fd391481a8fbcb87916103ec6040517fa9059cbb0000000000000000000000000000000000000000000000000000000084820152866024820152826044820152604481526103e6606482610f1c565b8561112a565b610369565b7f9c8d2cd2000000000000000000000000000000000000000000000000000000005f5260045ffd5b346102a7575f3660031901126102a75760206001600160a01b035f5416604051908152f35b346102a757366003190160a081126102a7576060136102a75760643567ffffffffffffffff81116102a757610477903690600401610e05565b50506084356001600160a01b0381168091036102a7576020906040519030148152f35b346102a75760403660031901126102a7576104b3610e75565b5060206040515f8152f35b346102a7575f3660031901126102a7576104d66110eb565b5f6001600160a01b03815473ffffffffffffffffffffffffffffffffffffffff1981168355167f8be0079c531659141344cd1fd0a4f28419497f9722a3daafe3b4186f6b6457e08280a3005b346102a75760203660031901126102a7576001600160a01b03610543610e5f565b61054b6110eb565b1680156105a1576001600160a01b036002548273ffffffffffffffffffffffffffffffffffffffff19821617600255167f483bdedaaf23706a9800ac1af0d852b34927780d79f9d6ba60a80c7cad75ea395f80a3005b7fd03a6320000000000000000000000000000000000000000000000000000000005f5260045ffd5b346102a7575f3660031901126102a75760206040516001600160a01b037f0000000000000000000000000000000000000000000000000000000000000000168152f35b346102a75760803660031901126102a757610625610e75565b61062d610e49565b60443567ffffffffffffffff81116102a75761064d903690600401610e05565b929091606435908115158092036102a7576106976040946106ec96610670610f3e565b506001600160a01b03875194166020850152602084526106908785610f1c565b3691610f88565b906106a0610f3e565b506106aa84610fce565b63ffffffff8651956106bb87610e9b565b16855260208501528484015260608301526080820152815180938192631bb8518b60e31b835230906004840161107e565b03816001600160a01b037f0000000000000000000000000000000000000000000000000000000000000000165afa801561029c575f9061073e575b806040915060208251918051835201516020820152f35b5060403d604011610772575b6107548183610f1c565b8101906040818303126102a75760409161076d91611017565b610727565b503d61074a565b346102a75760403660031901126102a7577f238399d427b947898edb290f5ff0f9109849b1c3ba196a42e35f00c50a54b98b60406107b5610e75565b63ffffffff602435916107c66110eb565b1690815f52600160205280835f205582519182526020820152a1005b346102a7575f3660031901126102a757604080516001815260026020820152f35b60603660031901126102a757610817610e75565b61081f610e49565b60443567ffffffffffffffff81116102a75761083f903690600401610e05565b91909261084a610f56565b506001600160a01b03600254163303610c6c57610917936001600160a01b0360405193169283602082015260208152610884604082610f1c565b61088f368684610f88565b94610898610f3e565b506001600160a01b037f0000000000000000000000000000000000000000000000000000000000000000169260406108cf86610fce565b978151906108dc82610e9b565b63ffffffff8816998a83526020830152858383015260608201525f60808201528151809a8192631bb8518b60e31b835230906004840161107e565b0381875afa97881561029c575f98610c31575b5087513410610c095761093e913691610f88565b90610947610f56565b50865196873403610bdd5760200191825180610ab1575b50906109d0939291610971608096610fce565b92511515916040519361098385610e9b565b898552602085015260408401526060830152848201526040519687809481937f2637a45000000000000000000000000000000000000000000000000000000000835233906004840161107e565b03925af192831561029c575f93610a3a575b5060406080936020928251947f5616cc72bec2908dcff617ea17c7b5c56a606fa97e08c74902f35e32723edc675f80a38051845267ffffffffffffffff83820151168385015201518051604084015201516060820152f35b925060803d608011610aaa575b610a518185610f1c565b8301906080848303126102a75760405190610a6b82610ee4565b8451825260208501519167ffffffffffffffff831683036102a757610a9d602094604060809881968886015201611017565b83820152945091506109e2565b503d610a47565b939291906040517fe4fe1d94000000000000000000000000000000000000000000000000000000008152602081600481885afa801561029c575f90610b94575b6001600160a01b03915016948515610b6c57608096610b60610971926109d098604051917f23b872dd000000000000000000000000000000000000000000000000000000006020840152336024840152896044840152606483015260648252610b5b608483610f1c565b61112a565b9650509091929361095e565b7f5373352a000000000000000000000000000000000000000000000000000000005f5260045ffd5b506020813d602011610bd5575b81610bae60209383610f1c565b810103126102a757516001600160a01b03811681036102a7576001600160a01b0390610af1565b3d9150610ba1565b7f9f704120000000000000000000000000000000000000000000000000000000005f523460045260245ffd5b7f58d620b3000000000000000000000000000000000000000000000000000000005f5260045ffd5b90975060403d604011610c65575b610c498183610f1c565b81016040828203126102a757610c5e91611017565b968861092a565b503d610c3f565b7f8d1af8bd000000000000000000000000000000000000000000000000000000005f5260045ffd5b366003190160e081126102a7576060136102a75760843567ffffffffffffffff81116102a757610cc8903690600401610e05565b5050610cd2610e33565b5060c43567ffffffffffffffff81116102a757610cf3903690600401610e05565b5050336001600160a01b037f00000000000000000000000000000000000000000000000000000000000000001603610dd957610d35610d30610e88565b610fce565b602435809103610d9d5760646040517f08c379a000000000000000000000000000000000000000000000000000000000815260206004820152600b60248201527f53656e646572206f6e6c790000000000000000000000000000000000000000006044820152fd5b63ffffffff610daa610e88565b7fc26bebcc000000000000000000000000000000000000000000000000000000005f521660045260245260445ffd5b7f91ac5e4f000000000000000000000000000000000000000000000000000000005f523360045260245ffd5b9181601f840112156102a75782359167ffffffffffffffff83116102a757602083818601950101116102a757565b60a435906001600160a01b03821682036102a757565b602435906001600160a01b03821682036102a757565b600435906001600160a01b03821682036102a757565b6004359063ffffffff821682036102a757565b60043563ffffffff811681036102a75790565b60a0810190811067ffffffffffffffff821117610eb757604052565b7f4e487b71000000000000000000000000000000000000000000000000000000005f52604160045260245ffd5b6060810190811067ffffffffffffffff821117610eb757604052565b6040810190811067ffffffffffffffff821117610eb757604052565b90601f8019910116810190811067ffffffffffffffff821117610eb757604052565b60405190610f4b82610f00565b5f6020838281520152565b60405190610f6382610ee4565b815f81525f60208201526040805191610f7b83610f00565b5f83525f60208401520152565b92919267ffffffffffffffff8211610eb75760405191610fb2601f8201601f191660200184610f1c565b8294818452818301116102a7578281602093845f960137010152565b63ffffffff16805f52600160205260405f2054908115610fec575090565b7ff6ff4fb7000000000000000000000000000000000000000000000000000000005f5260045260245ffd5b91908260409103126102a75760405161102f81610f00565b6020808294805184520151910152565b91908251928382525f5b848110611069575050825f602080949584010152601f8019910116010190565b80602080928401015182828601015201611049565b906001600160a01b036020919493946040845263ffffffff815116604085015282810151606085015260806110da6110c4604084015160a08489015260e088019061103f565b6060840151878203603f190160a089015261103f565b910151151560c08501529416910152565b6001600160a01b035f541633036110fe57565b7f118cdaa7000000000000000000000000000000000000000000000000000000005f523360045260245ffd5b905f602091828151910182855af11561029c575f513d61118e57506001600160a01b0381163b155b6111595750565b6001600160a01b03907f5274afe7000000000000000000000000000000000000000000000000000000005f521660045260245ffd5b6001141561115256fea164736f6c634300081c000a","linkReferences":{}},"methodIdentifiers":{"allowInitializePath((uint32,bytes32,uint64))":"ff7bd03d","emergencyRecover(address,address,uint256)":"ad1329d1","endpoint()":"5e280f11","isComposeMsgSender((uint32,bytes32,uint64),bytes,address)":"82413eac","lzReceive((uint32,bytes32,uint64),bytes32,bytes,address,bytes)":"13137d65","nextNonce(uint32,bytes32)":"7d25a05e","oAppVersion()":"17442b70","owner()":"8da5cb5b","peers(uint32)":"bb0b6a53","quoteStrategy(uint32,address,bytes,bool)":"4416f5cc","renounceOwnership()":"715018a6","sendStrategy(uint32,address,bytes)":"134a3c5c","setDelegate(address)":"ca5eb5e1","setPeer(uint32,bytes32)":"3400288b","setVault(address)":"6817031b","transferOwnership(address)":"f2fde38b","vault()":"fbfa77cf"}}}}}