{"abi":[{"type":"function","name":"validate","inputs":[{"name":"","type":"address","internalType":"address"},{"name":"","type":"bytes","internalType":"bytes"},{"name":"","type":"uint256","internalType":"uint256"}],"outputs":[{"name":"","type":"bool","internalType":"bool"}],"stateMutability":"pure"}],"bytecode":{"object":"0x6080806040523460135760a2908160188239f35b5f80fdfe60808060405260043610156011575f80fd5b5f3560e01c63db86c42c146023575f80fd5b34609157606036600319011260915760043573ffffffffffffffffffffffffffffffffffffffff81160360915760243567ffffffffffffffff811160915736602382011215609157806004013567ffffffffffffffff81116091573691016024011160915780600160209252f35b5f80fdfea164736f6c634300081c000a","linkReferences":{}},"methodIdentifiers":{"validate(address,bytes,uint256)":"db86c42c"},"storageLayout":{"storage":[],"types":{}},"id":75}