{"abi":[{"type":"constructor","inputs":[{"name":"_spenders","type":"address[]","internalType":"address[]"}],"stateMutability":"nonpayable"},{"type":"function","name":"APPROVE_SELECTOR","inputs":[],"outputs":[{"name":"","type":"bytes4","internalType":"bytes4"}],"stateMutability":"view"},{"type":"function","name":"validate","inputs":[{"name":"","type":"address","internalType":"address"},{"name":"data","type":"bytes","internalType":"bytes"},{"name":"","type":"uint256","internalType":"uint256"}],"outputs":[{"name":"","type":"bool","internalType":"bool"}],"stateMutability":"view"},{"type":"function","name":"whitelistedSpenders","inputs":[{"name":"spender","type":"address","internalType":"address"}],"outputs":[{"name":"isAllowed","type":"bool","internalType":"bool"}],"stateMutability":"view"}],"bytecode":{"object":"0x6080604052346100ef5761030e8038038061001981610107565b9283398101906020818303126100ef578051906001600160401b0382116100ef570181601f820112156100ef578051916001600160401b0383116100f3578260051b9160208061006a818601610107565b8096815201938201019182116100ef57602001915b8183106100cf57835f5b81518110156100c057600190818060a01b0360208260051b85010151165f525f60205260405f208260ff1982541617905501610089565b6040516101e1908161012d8239f35b82516001600160a01b03811681036100ef5781526020928301920161007f565b5f80fd5b634e487b7160e01b5f52604160045260245ffd5b6040519190601f01601f191682016001600160401b038111838210176100f35760405256fe6080806040526004361015610012575f80fd5b5f3560e01c908163a0865839146100fb57508063aa72d9e7146100b25763db86c42c1461003d575f80fd5b346100ae5760603660031901126100ae5761005661011a565b5060243567ffffffffffffffff81116100ae57366023820112156100ae5780600401359067ffffffffffffffff82116100ae5736602483830101116100ae5760209160246100a4920161013d565b6040519015158152f35b5f80fd5b346100ae5760203660031901126100ae5773ffffffffffffffffffffffffffffffffffffffff6100e061011a565b165f525f602052602060ff60405f2054166040519015158152f35b346100ae575f3660031901126100ae578063095ea7b360e01b60209252f35b6004359073ffffffffffffffffffffffffffffffffffffffff821682036100ae57565b5f9163095ea7b360e01b7fffffffff00000000000000000000000000000000000000000000000000000000833581811690600485106101c0575b50161461018357505090565b9091506024116100ae576004013573ffffffffffffffffffffffffffffffffffffffff81168091036100ae575f525f60205260ff60405f20541690565b828092508560040360031b1b16165f61017756fea164736f6c634300081c000a","linkReferences":{}},"methodIdentifiers":{"APPROVE_SELECTOR()":"a0865839","validate(address,bytes,uint256)":"db86c42c","whitelistedSpenders(address)":"aa72d9e7"},"storageLayout":{"storage":[{"astId":52719,"contract":"src/guards/base/ApproveGuard.sol:ApproveGuard","label":"whitelistedSpenders","offset":0,"slot":"0","type":"t_mapping(t_address,t_bool)"}],"types":{"t_address":{"encoding":"inplace","label":"address","numberOfBytes":"20"},"t_bool":{"encoding":"inplace","label":"bool","numberOfBytes":"1"},"t_mapping(t_address,t_bool)":{"encoding":"mapping","key":"t_address","label":"mapping(address => bool)","numberOfBytes":"32","value":"t_bool"}}},"id":91}