{"abi":[{"type":"constructor","inputs":[{"name":"_owner","type":"address","internalType":"address"}],"stateMutability":"nonpayable"},{"type":"function","name":"APPROVE_SELECTOR","inputs":[],"outputs":[{"name":"","type":"bytes4","internalType":"bytes4"}],"stateMutability":"view"},{"type":"function","name":"owner","inputs":[],"outputs":[{"name":"","type":"address","internalType":"address"}],"stateMutability":"view"},{"type":"function","name":"renounceOwnership","inputs":[],"outputs":[],"stateMutability":"nonpayable"},{"type":"function","name":"setSpender","inputs":[{"name":"_spender","type":"address","internalType":"address"},{"name":"_isAllowed","type":"bool","internalType":"bool"}],"outputs":[],"stateMutability":"nonpayable"},{"type":"function","name":"transferOwnership","inputs":[{"name":"newOwner","type":"address","internalType":"address"}],"outputs":[],"stateMutability":"nonpayable"},{"type":"function","name":"validate","inputs":[{"name":"","type":"address","internalType":"address"},{"name":"data","type":"bytes","internalType":"bytes"},{"name":"","type":"uint256","internalType":"uint256"}],"outputs":[{"name":"","type":"bool","internalType":"bool"}],"stateMutability":"view"},{"type":"function","name":"whitelistedSpenders","inputs":[{"name":"spender","type":"address","internalType":"address"}],"outputs":[{"name":"isAllowed","type":"bool","internalType":"bool"}],"stateMutability":"view"},{"type":"event","name":"OwnershipTransferred","inputs":[{"name":"previousOwner","type":"address","indexed":true,"internalType":"address"},{"name":"newOwner","type":"address","indexed":true,"internalType":"address"}],"anonymous":false},{"type":"error","name":"OwnableInvalidOwner","inputs":[{"name":"owner","type":"address","internalType":"address"}]},{"type":"error","name":"OwnableUnauthorizedAccount","inputs":[{"name":"account","type":"address","internalType":"address"}]}],"bytecode":{"object":"0x60803460b857601f61047e38819003918201601f19168301916001600160401b0383118484101760bc5780849260209460405283398101031260b857516001600160a01b0381169081900360b857801560a5575f80546001600160a01b031981168317825560405192916001600160a01b03909116907f8be0079c531659141344cd1fd0a4f28419497f9722a3daafe3b4186f6b6457e09080a36103ad90816100d18239f35b631e4fbdf760e01b5f525f60045260245ffd5b5f80fd5b634e487b7160e01b5f52604160045260245ffdfe60806040526004361015610011575f80fd5b5f3560e01c80636be3f3e01461026b578063715018a6146102075780638da5cb5b146101e2578063a0865839146101c1578063aa72d9e714610184578063db86c42c146101135763f2fde38b14610066575f80fd5b3461010f57602036600319011261010f576001600160a01b036100876102c0565b61008f610361565b1680156100e3576001600160a01b035f548273ffffffffffffffffffffffffffffffffffffffff198216175f55167f8be0079c531659141344cd1fd0a4f28419497f9722a3daafe3b4186f6b6457e05f80a3005b7f1e4fbdf7000000000000000000000000000000000000000000000000000000005f525f60045260245ffd5b5f80fd5b3461010f57606036600319011261010f5761012c6102c0565b5060243567ffffffffffffffff811161010f573660238201121561010f5780600401359067ffffffffffffffff821161010f57366024838301011161010f57602091602461017a92016102d6565b6040519015158152f35b3461010f57602036600319011261010f576001600160a01b036101a56102c0565b165f526001602052602060ff60405f2054166040519015158152f35b3461010f575f36600319011261010f57602060405163095ea7b360e01b8152f35b3461010f575f36600319011261010f5760206001600160a01b035f5416604051908152f35b3461010f575f36600319011261010f5761021f610361565b5f6001600160a01b03815473ffffffffffffffffffffffffffffffffffffffff1981168355167f8be0079c531659141344cd1fd0a4f28419497f9722a3daafe3b4186f6b6457e08280a3005b3461010f57604036600319011261010f576102846102c0565b6024359081151580920361010f576001600160a01b03906102a3610361565b165f52600160205260405f209060ff801983541691161790555f80f35b600435906001600160a01b038216820361010f57565b5f9163095ea7b360e01b7fffffffff000000000000000000000000000000000000000000000000000000008335818116906004851061034d575b50161461031c57505090565b90915060241161010f57600401356001600160a01b03811680910361010f575f52600160205260ff60405f20541690565b828092508560040360031b1b16165f610310565b6001600160a01b035f5416330361037457565b7f118cdaa7000000000000000000000000000000000000000000000000000000005f523360045260245ffdfea164736f6c634300081c000a","linkReferences":{}},"methodIdentifiers":{"APPROVE_SELECTOR()":"a0865839","owner()":"8da5cb5b","renounceOwnership()":"715018a6","setSpender(address,bool)":"6be3f3e0","transferOwnership(address)":"f2fde38b","validate(address,bytes,uint256)":"db86c42c","whitelistedSpenders(address)":"aa72d9e7"},"storageLayout":{"storage":[{"astId":7408,"contract":"src/guards/base/ApproveGuard.sol:ApproveGuard","label":"_owner","offset":0,"slot":"0","type":"t_address"},{"astId":52704,"contract":"src/guards/base/ApproveGuard.sol:ApproveGuard","label":"whitelistedSpenders","offset":0,"slot":"1","type":"t_mapping(t_address,t_bool)"}],"types":{"t_address":{"encoding":"inplace","label":"address","numberOfBytes":"20"},"t_bool":{"encoding":"inplace","label":"bool","numberOfBytes":"1"},"t_mapping(t_address,t_bool)":{"encoding":"mapping","key":"t_address","label":"mapping(address => bool)","numberOfBytes":"32","value":"t_bool"}}},"id":91}