{"abi":[{"type":"function","name":"someFunction","inputs":[{"name":"_value","type":"uint256","internalType":"uint256"}],"outputs":[],"stateMutability":"payable"},{"type":"function","name":"value","inputs":[],"outputs":[{"name":"","type":"uint256","internalType":"uint256"}],"stateMutability":"view"}],"bytecode":{"object":"0x6080604052348015600e575f5ffd5b50608180601a5f395ff3fe6080604052600436106025575f3560e01c80633fa4f2451460295780637062c09414604d575b5f5ffd5b3480156033575f5ffd5b50603b5f5481565b60405190815260200160405180910390f35b605c6058366004605e565b5f55565b005b5f60208284031215606d575f5ffd5b503591905056fea164736f6c634300081c000a","linkReferences":{}},"methodIdentifiers":{"someFunction(uint256)":"7062c094","value()":"3fa4f245"},"storageLayout":{"storage":[{"astId":52958,"contract":"tests/mocks/MockTarget.sol:MockTarget","label":"value","offset":0,"slot":"0","type":"t_uint256"}],"types":{"t_uint256":{"encoding":"inplace","label":"uint256","numberOfBytes":"32"}}},"id":75}