{"abi":[{"type":"function","name":"someFunction","inputs":[{"name":"_value","type":"uint256","internalType":"uint256"}],"outputs":[],"stateMutability":"payable"},{"type":"function","name":"value","inputs":[],"outputs":[{"name":"","type":"uint256","internalType":"uint256"}],"stateMutability":"view"}],"bytecode":{"object":"0x608080604052346013576069908160188239f35b5f80fdfe60808060405260043610156011575f80fd5b5f3560e01c9081633fa4f2451460455750637062c09414602f575f80fd5b60203660031901126041576004355f55005b5f80fd5b346041575f3660031901126041576020905f548152f3fea164736f6c634300081c000a","linkReferences":{}},"methodIdentifiers":{"someFunction(uint256)":"7062c094","value()":"3fa4f245"},"storageLayout":{"storage":[{"astId":54425,"contract":"tests/mocks/MockTarget.sol:MockTarget","label":"value","offset":0,"slot":"0","type":"t_uint256"}],"types":{"t_uint256":{"encoding":"inplace","label":"uint256","numberOfBytes":"32"}}},"id":84}