{"abi":[{"type":"function","name":"arithmeticError","inputs":[],"outputs":[{"name":"","type":"bytes","internalType":"bytes"}],"stateMutability":"view"},{"type":"function","name":"assertionError","inputs":[],"outputs":[{"name":"","type":"bytes","internalType":"bytes"}],"stateMutability":"view"},{"type":"function","name":"divisionError","inputs":[],"outputs":[{"name":"","type":"bytes","internalType":"bytes"}],"stateMutability":"view"},{"type":"function","name":"encodeStorageError","inputs":[],"outputs":[{"name":"","type":"bytes","internalType":"bytes"}],"stateMutability":"view"},{"type":"function","name":"enumConversionError","inputs":[],"outputs":[{"name":"","type":"bytes","internalType":"bytes"}],"stateMutability":"view"},{"type":"function","name":"indexOOBError","inputs":[],"outputs":[{"name":"","type":"bytes","internalType":"bytes"}],"stateMutability":"view"},{"type":"function","name":"memOverflowError","inputs":[],"outputs":[{"name":"","type":"bytes","internalType":"bytes"}],"stateMutability":"view"},{"type":"function","name":"popError","inputs":[],"outputs":[{"name":"","type":"bytes","internalType":"bytes"}],"stateMutability":"view"},{"type":"function","name":"zeroVarError","inputs":[],"outputs":[{"name":"","type":"bytes","internalType":"bytes"}],"stateMutability":"view"}],"bytecode":{"object":"0x608080604052346019576102eb908161001e823930815050f35b5f80fdfe6080806040526004361015610012575f80fd5b5f3560e01c90816305ee8612146102335750806310332977146101ff5780631de45560146101cb5780638995290f14610197578063986c5f6814610163578063b22dc54d1461012f578063b67689da146100fb578063d160e4de146100c75763fa784a441461007f575f80fd5b5f3660031901126100c3576100bf604051634e487b7160e01b602082015260126024820152602481526100b3604482610261565b60405191829182610297565b0390f35b5f80fd5b5f3660031901126100c3576100bf604051634e487b7160e01b602082015260226024820152602481526100b3604482610261565b5f3660031901126100c3576100bf604051634e487b7160e01b602082015260516024820152602481526100b3604482610261565b5f3660031901126100c3576100bf604051634e487b7160e01b602082015260316024820152602481526100b3604482610261565b5f3660031901126100c3576100bf604051634e487b7160e01b602082015260416024820152602481526100b3604482610261565b5f3660031901126100c3576100bf604051634e487b7160e01b602082015260116024820152602481526100b3604482610261565b5f3660031901126100c3576100bf604051634e487b7160e01b602082015260216024820152602481526100b3604482610261565b5f3660031901126100c3576100bf604051634e487b7160e01b602082015260016024820152602481526100b3604482610261565b5f3660031901126100c35780634e487b7160e01b60206100bf93015260326024820152602481526100b36044825b90601f8019910116810190811067ffffffffffffffff82111761028357604052565b634e487b7160e01b5f52604160045260245ffd5b9190916020815282518060208301525f5b8181106102c8575060409293505f838284010152601f8019910116010190565b80602080928701015160408286010152016102a856fea164736f6c634300081c000a","linkReferences":{}},"methodIdentifiers":{"arithmeticError()":"8995290f","assertionError()":"10332977","divisionError()":"fa784a44","encodeStorageError()":"d160e4de","enumConversionError()":"1de45560","indexOOBError()":"05ee8612","memOverflowError()":"986c5f68","popError()":"b22dc54d","zeroVarError()":"b67689da"},"storageLayout":{"storage":[],"types":{}},"id":62}