{"abi":[{"type":"constructor","inputs":[{"name":"_endpoint","type":"address","internalType":"address"}],"stateMutability":"nonpayable"},{"type":"receive","stateMutability":"payable"},{"type":"function","name":"DEFAULT_ADMIN_ROLE","inputs":[],"outputs":[{"name":"","type":"bytes32","internalType":"bytes32"}],"stateMutability":"view"},{"type":"function","name":"OPERATOR_ROLE","inputs":[],"outputs":[{"name":"","type":"bytes32","internalType":"bytes32"}],"stateMutability":"view"},{"type":"function","name":"UPGRADE_INTERFACE_VERSION","inputs":[],"outputs":[{"name":"","type":"string","internalType":"string"}],"stateMutability":"view"},{"type":"function","name":"allowInitializePath","inputs":[{"name":"origin","type":"tuple","internalType":"struct Origin","components":[{"name":"srcEid","type":"uint32","internalType":"uint32"},{"name":"sender","type":"bytes32","internalType":"bytes32"},{"name":"nonce","type":"uint64","internalType":"uint64"}]}],"outputs":[{"name":"","type":"bool","internalType":"bool"}],"stateMutability":"view"},{"type":"function","name":"batchManualRefund","inputs":[{"name":"depositIds","type":"uint256[]","internalType":"uint256[]"}],"outputs":[],"stateMutability":"nonpayable"},{"type":"function","name":"combineOptions","inputs":[{"name":"_eid","type":"uint32","internalType":"uint32"},{"name":"_msgType","type":"uint16","internalType":"uint16"},{"name":"_extraOptions","type":"bytes","internalType":"bytes"}],"outputs":[{"name":"","type":"bytes","internalType":"bytes"}],"stateMutability":"view"},{"type":"function","name":"depositRecords","inputs":[{"name":"","type":"uint256","internalType":"uint256"}],"outputs":[{"name":"user","type":"address","internalType":"address"},{"name":"srcEid","type":"uint32","internalType":"uint32"},{"name":"tokenIn","type":"address","internalType":"address"},{"name":"amountIn","type":"uint256","internalType":"uint256"},{"name":"vault","type":"address","internalType":"address"},{"name":"sharesReceived","type":"uint256","internalType":"uint256"},{"name":"timestamp","type":"uint256","internalType":"uint256"},{"name":"status","type":"uint8","internalType":"enum IMultichainDepositAdapter.DepositStatus"},{"name":"guid","type":"bytes32","internalType":"bytes32"},{"name":"failureReason","type":"bytes","internalType":"bytes"}],"stateMutability":"view"},{"type":"function","name":"depositRefundGas","inputs":[],"outputs":[],"stateMutability":"payable"},{"type":"function","name":"depositToVault","inputs":[{"name":"vault","type":"address","internalType":"address"},{"name":"receiver","type":"address","internalType":"address"},{"name":"amount","type":"uint256","internalType":"uint256"}],"outputs":[{"name":"shares","type":"uint256","internalType":"uint256"}],"stateMutability":"nonpayable"},{"type":"function","name":"emergencyRecover","inputs":[{"name":"token","type":"address","internalType":"address"},{"name":"to","type":"address","internalType":"address"},{"name":"amount","type":"uint256","internalType":"uint256"}],"outputs":[],"stateMutability":"nonpayable"},{"type":"function","name":"endpoint","inputs":[],"outputs":[{"name":"","type":"address","internalType":"contract ILayerZeroEndpointV2"}],"stateMutability":"view"},{"type":"function","name":"enforcedOptions","inputs":[{"name":"_eid","type":"uint32","internalType":"uint32"},{"name":"_msgType","type":"uint16","internalType":"uint16"}],"outputs":[{"name":"","type":"bytes","internalType":"bytes"}],"stateMutability":"view"},{"type":"function","name":"getDepositRecord","inputs":[{"name":"depositId","type":"uint256","internalType":"uint256"}],"outputs":[{"name":"","type":"tuple","internalType":"struct IMultichainDepositAdapter.DepositRecord","components":[{"name":"user","type":"address","internalType":"address"},{"name":"srcEid","type":"uint32","internalType":"uint32"},{"name":"tokenIn","type":"address","internalType":"address"},{"name":"amountIn","type":"uint256","internalType":"uint256"},{"name":"vault","type":"address","internalType":"address"},{"name":"sharesReceived","type":"uint256","internalType":"uint256"},{"name":"timestamp","type":"uint256","internalType":"uint256"},{"name":"status","type":"uint8","internalType":"enum IMultichainDepositAdapter.DepositStatus"},{"name":"guid","type":"bytes32","internalType":"bytes32"},{"name":"failureReason","type":"bytes","internalType":"bytes"}]}],"stateMutability":"view"},{"type":"function","name":"getFailedDeposits","inputs":[{"name":"startId","type":"uint256","internalType":"uint256"},{"name":"limit","type":"uint256","internalType":"uint256"}],"outputs":[{"name":"depositIds","type":"uint256[]","internalType":"uint256[]"}],"stateMutability":"view"},{"type":"function","name":"getRoleAdmin","inputs":[{"name":"role","type":"bytes32","internalType":"bytes32"}],"outputs":[{"name":"","type":"bytes32","internalType":"bytes32"}],"stateMutability":"view"},{"type":"function","name":"getUserDepositIds","inputs":[{"name":"user","type":"address","internalType":"address"}],"outputs":[{"name":"","type":"uint256[]","internalType":"uint256[]"}],"stateMutability":"view"},{"type":"function","name":"grantRole","inputs":[{"name":"role","type":"bytes32","internalType":"bytes32"},{"name":"account","type":"address","internalType":"address"}],"outputs":[],"stateMutability":"nonpayable"},{"type":"function","name":"hasRole","inputs":[{"name":"role","type":"bytes32","internalType":"bytes32"},{"name":"account","type":"address","internalType":"address"}],"outputs":[{"name":"","type":"bool","internalType":"bool"}],"stateMutability":"view"},{"type":"function","name":"initialize","inputs":[{"name":"_owner","type":"address","internalType":"address"}],"outputs":[],"stateMutability":"nonpayable"},{"type":"function","name":"isComposeMsgSender","inputs":[{"name":"","type":"tuple","internalType":"struct Origin","components":[{"name":"srcEid","type":"uint32","internalType":"uint32"},{"name":"sender","type":"bytes32","internalType":"bytes32"},{"name":"nonce","type":"uint64","internalType":"uint64"}]},{"name":"","type":"bytes","internalType":"bytes"},{"name":"_sender","type":"address","internalType":"address"}],"outputs":[{"name":"","type":"bool","internalType":"bool"}],"stateMutability":"view"},{"type":"function","name":"isVaultSupported","inputs":[{"name":"vault","type":"address","internalType":"address"}],"outputs":[{"name":"","type":"bool","internalType":"bool"}],"stateMutability":"view"},{"type":"function","name":"lzCompose","inputs":[{"name":"_from","type":"address","internalType":"address"},{"name":"_guid","type":"bytes32","internalType":"bytes32"},{"name":"_message","type":"bytes","internalType":"bytes"},{"name":"","type":"address","internalType":"address"},{"name":"","type":"bytes","internalType":"bytes"}],"outputs":[],"stateMutability":"payable"},{"type":"function","name":"lzReceive","inputs":[{"name":"_origin","type":"tuple","internalType":"struct Origin","components":[{"name":"srcEid","type":"uint32","internalType":"uint32"},{"name":"sender","type":"bytes32","internalType":"bytes32"},{"name":"nonce","type":"uint64","internalType":"uint64"}]},{"name":"_guid","type":"bytes32","internalType":"bytes32"},{"name":"_message","type":"bytes","internalType":"bytes"},{"name":"_executor","type":"address","internalType":"address"},{"name":"_extraData","type":"bytes","internalType":"bytes"}],"outputs":[],"stateMutability":"payable"},{"type":"function","name":"manageBatch","inputs":[{"name":"targets","type":"address[]","internalType":"address[]"},{"name":"data","type":"bytes[]","internalType":"bytes[]"},{"name":"values","type":"uint256[]","internalType":"uint256[]"}],"outputs":[],"stateMutability":"nonpayable"},{"type":"function","name":"manualRefund","inputs":[{"name":"depositId","type":"uint256","internalType":"uint256"}],"outputs":[],"stateMutability":"nonpayable"},{"type":"function","name":"nextNonce","inputs":[{"name":"","type":"uint32","internalType":"uint32"},{"name":"","type":"bytes32","internalType":"bytes32"}],"outputs":[{"name":"nonce","type":"uint64","internalType":"uint64"}],"stateMutability":"view"},{"type":"function","name":"oAppVersion","inputs":[],"outputs":[{"name":"senderVersion","type":"uint64","internalType":"uint64"},{"name":"receiverVersion","type":"uint64","internalType":"uint64"}],"stateMutability":"pure"},{"type":"function","name":"owner","inputs":[],"outputs":[{"name":"","type":"address","internalType":"address"}],"stateMutability":"view"},{"type":"function","name":"pause","inputs":[],"outputs":[],"stateMutability":"nonpayable"},{"type":"function","name":"paused","inputs":[],"outputs":[{"name":"","type":"bool","internalType":"bool"}],"stateMutability":"view"},{"type":"function","name":"peers","inputs":[{"name":"_eid","type":"uint32","internalType":"uint32"}],"outputs":[{"name":"","type":"bytes32","internalType":"bytes32"}],"stateMutability":"view"},{"type":"function","name":"processDeposit","inputs":[{"name":"depositId","type":"uint256","internalType":"uint256"},{"name":"vault","type":"address","internalType":"address"},{"name":"receiver","type":"address","internalType":"address"},{"name":"token","type":"address","internalType":"address"},{"name":"amount","type":"uint256","internalType":"uint256"},{"name":"zapCalls","type":"tuple[]","internalType":"struct IMultichainDepositAdapter.Call[]","components":[{"name":"target","type":"address","internalType":"address"},{"name":"value","type":"uint256","internalType":"uint256"},{"name":"data","type":"bytes","internalType":"bytes"}]}],"outputs":[{"name":"shares","type":"uint256","internalType":"uint256"}],"stateMutability":"nonpayable"},{"type":"function","name":"proxiableUUID","inputs":[],"outputs":[{"name":"","type":"bytes32","internalType":"bytes32"}],"stateMutability":"view"},{"type":"function","name":"quoteRefundFee","inputs":[{"name":"depositId","type":"uint256","internalType":"uint256"}],"outputs":[{"name":"nativeFee","type":"uint256","internalType":"uint256"}],"stateMutability":"view"},{"type":"function","name":"removeOperator","inputs":[{"name":"operator","type":"address","internalType":"address"}],"outputs":[],"stateMutability":"nonpayable"},{"type":"function","name":"renounceOwnership","inputs":[],"outputs":[],"stateMutability":"nonpayable"},{"type":"function","name":"renounceRole","inputs":[{"name":"role","type":"bytes32","internalType":"bytes32"},{"name":"callerConfirmation","type":"address","internalType":"address"}],"outputs":[],"stateMutability":"nonpayable"},{"type":"function","name":"revokeRole","inputs":[{"name":"role","type":"bytes32","internalType":"bytes32"},{"name":"account","type":"address","internalType":"address"}],"outputs":[],"stateMutability":"nonpayable"},{"type":"function","name":"safeAttemptRefund","inputs":[{"name":"depositId","type":"uint256","internalType":"uint256"}],"outputs":[],"stateMutability":"nonpayable"},{"type":"function","name":"setDelegate","inputs":[{"name":"_delegate","type":"address","internalType":"address"}],"outputs":[],"stateMutability":"nonpayable"},{"type":"function","name":"setEnforcedOptions","inputs":[{"name":"_enforcedOptions","type":"tuple[]","internalType":"struct EnforcedOptionParam[]","components":[{"name":"eid","type":"uint32","internalType":"uint32"},{"name":"msgType","type":"uint16","internalType":"uint16"},{"name":"options","type":"bytes","internalType":"bytes"}]}],"outputs":[],"stateMutability":"nonpayable"},{"type":"function","name":"setOperator","inputs":[{"name":"operator","type":"address","internalType":"address"}],"outputs":[],"stateMutability":"nonpayable"},{"type":"function","name":"setPeer","inputs":[{"name":"_eid","type":"uint32","internalType":"uint32"},{"name":"_peer","type":"bytes32","internalType":"bytes32"}],"outputs":[],"stateMutability":"nonpayable"},{"type":"function","name":"setSupportedOFT","inputs":[{"name":"token","type":"address","internalType":"address"},{"name":"oft","type":"address","internalType":"address"},{"name":"isActive","type":"bool","internalType":"bool"}],"outputs":[],"stateMutability":"nonpayable"},{"type":"function","name":"setSupportedVault","inputs":[{"name":"vault","type":"address","internalType":"address"},{"name":"isActive","type":"bool","internalType":"bool"}],"outputs":[],"stateMutability":"nonpayable"},{"type":"function","name":"supportedOFTs","inputs":[{"name":"","type":"address","internalType":"address"}],"outputs":[{"name":"","type":"bool","internalType":"bool"}],"stateMutability":"view"},{"type":"function","name":"supportedVaults","inputs":[{"name":"","type":"address","internalType":"address"}],"outputs":[{"name":"","type":"bool","internalType":"bool"}],"stateMutability":"view"},{"type":"function","name":"supportsInterface","inputs":[{"name":"interfaceId","type":"bytes4","internalType":"bytes4"}],"outputs":[{"name":"","type":"bool","internalType":"bool"}],"stateMutability":"view"},{"type":"function","name":"tokenToOFT","inputs":[{"name":"","type":"address","internalType":"address"}],"outputs":[{"name":"","type":"address","internalType":"address"}],"stateMutability":"view"},{"type":"function","name":"totalDeposits","inputs":[],"outputs":[{"name":"","type":"uint256","internalType":"uint256"}],"stateMutability":"view"},{"type":"function","name":"transferOwnership","inputs":[{"name":"newOwner","type":"address","internalType":"address"}],"outputs":[],"stateMutability":"nonpayable"},{"type":"function","name":"unpause","inputs":[],"outputs":[],"stateMutability":"nonpayable"},{"type":"function","name":"upgradeToAndCall","inputs":[{"name":"newImplementation","type":"address","internalType":"address"},{"name":"data","type":"bytes","internalType":"bytes"}],"outputs":[],"stateMutability":"payable"},{"type":"function","name":"userDepositIds","inputs":[{"name":"","type":"address","internalType":"address"},{"name":"","type":"uint256","internalType":"uint256"}],"outputs":[{"name":"","type":"uint256","internalType":"uint256"}],"stateMutability":"view"},{"type":"event","name":"DepositFailed","inputs":[{"name":"depositId","type":"uint256","indexed":true,"internalType":"uint256"},{"name":"user","type":"address","indexed":true,"internalType":"address"},{"name":"reason","type":"bytes","indexed":false,"internalType":"bytes"}],"anonymous":false},{"type":"event","name":"DepositRecorded","inputs":[{"name":"depositId","type":"uint256","indexed":true,"internalType":"uint256"},{"name":"user","type":"address","indexed":true,"internalType":"address"},{"name":"vault","type":"address","indexed":true,"internalType":"address"},{"name":"amountIn","type":"uint256","indexed":false,"internalType":"uint256"},{"name":"srcEid","type":"uint32","indexed":false,"internalType":"uint32"}],"anonymous":false},{"type":"event","name":"DepositStatusUpdated","inputs":[{"name":"depositId","type":"uint256","indexed":true,"internalType":"uint256"},{"name":"oldStatus","type":"uint8","indexed":false,"internalType":"enum IMultichainDepositAdapter.DepositStatus"},{"name":"newStatus","type":"uint8","indexed":false,"internalType":"enum IMultichainDepositAdapter.DepositStatus"}],"anonymous":false},{"type":"event","name":"DepositSuccess","inputs":[{"name":"depositId","type":"uint256","indexed":true,"internalType":"uint256"},{"name":"user","type":"address","indexed":true,"internalType":"address"},{"name":"vault","type":"address","indexed":true,"internalType":"address"},{"name":"sharesReceived","type":"uint256","indexed":false,"internalType":"uint256"}],"anonymous":false},{"type":"event","name":"EmergencyRecovery","inputs":[{"name":"token","type":"address","indexed":true,"internalType":"address"},{"name":"to","type":"address","indexed":true,"internalType":"address"},{"name":"amount","type":"uint256","indexed":false,"internalType":"uint256"}],"anonymous":false},{"type":"event","name":"EnforcedOptionSet","inputs":[{"name":"_enforcedOptions","type":"tuple[]","indexed":false,"internalType":"struct EnforcedOptionParam[]","components":[{"name":"eid","type":"uint32","internalType":"uint32"},{"name":"msgType","type":"uint16","internalType":"uint16"},{"name":"options","type":"bytes","internalType":"bytes"}]}],"anonymous":false},{"type":"event","name":"Initialized","inputs":[{"name":"version","type":"uint64","indexed":false,"internalType":"uint64"}],"anonymous":false},{"type":"event","name":"OwnershipTransferred","inputs":[{"name":"previousOwner","type":"address","indexed":true,"internalType":"address"},{"name":"newOwner","type":"address","indexed":true,"internalType":"address"}],"anonymous":false},{"type":"event","name":"Paused","inputs":[{"name":"account","type":"address","indexed":false,"internalType":"address"}],"anonymous":false},{"type":"event","name":"PeerSet","inputs":[{"name":"eid","type":"uint32","indexed":false,"internalType":"uint32"},{"name":"peer","type":"bytes32","indexed":false,"internalType":"bytes32"}],"anonymous":false},{"type":"event","name":"RefundSent","inputs":[{"name":"depositId","type":"uint256","indexed":true,"internalType":"uint256"},{"name":"user","type":"address","indexed":true,"internalType":"address"},{"name":"amount","type":"uint256","indexed":false,"internalType":"uint256"},{"name":"dstEid","type":"uint32","indexed":false,"internalType":"uint32"}],"anonymous":false},{"type":"event","name":"RoleAdminChanged","inputs":[{"name":"role","type":"bytes32","indexed":true,"internalType":"bytes32"},{"name":"previousAdminRole","type":"bytes32","indexed":true,"internalType":"bytes32"},{"name":"newAdminRole","type":"bytes32","indexed":true,"internalType":"bytes32"}],"anonymous":false},{"type":"event","name":"RoleGranted","inputs":[{"name":"role","type":"bytes32","indexed":true,"internalType":"bytes32"},{"name":"account","type":"address","indexed":true,"internalType":"address"},{"name":"sender","type":"address","indexed":true,"internalType":"address"}],"anonymous":false},{"type":"event","name":"RoleRevoked","inputs":[{"name":"role","type":"bytes32","indexed":true,"internalType":"bytes32"},{"name":"account","type":"address","indexed":true,"internalType":"address"},{"name":"sender","type":"address","indexed":true,"internalType":"address"}],"anonymous":false},{"type":"event","name":"Unpaused","inputs":[{"name":"account","type":"address","indexed":false,"internalType":"address"}],"anonymous":false},{"type":"event","name":"Upgraded","inputs":[{"name":"implementation","type":"address","indexed":true,"internalType":"address"}],"anonymous":false},{"type":"event","name":"ZapExecuted","inputs":[{"name":"depositId","type":"uint256","indexed":true,"internalType":"uint256"},{"name":"numCalls","type":"uint256","indexed":false,"internalType":"uint256"},{"name":"amountOut","type":"uint256","indexed":false,"internalType":"uint256"}],"anonymous":false},{"type":"error","name":"AccessControlBadConfirmation","inputs":[]},{"type":"error","name":"AccessControlUnauthorizedAccount","inputs":[{"name":"account","type":"address","internalType":"address"},{"name":"neededRole","type":"bytes32","internalType":"bytes32"}]},{"type":"error","name":"AddressEmptyCode","inputs":[{"name":"target","type":"address","internalType":"address"}]},{"type":"error","name":"ERC1967InvalidImplementation","inputs":[{"name":"implementation","type":"address","internalType":"address"}]},{"type":"error","name":"ERC1967NonPayable","inputs":[]},{"type":"error","name":"EnforcedPause","inputs":[]},{"type":"error","name":"ExpectedPause","inputs":[]},{"type":"error","name":"FailedCall","inputs":[]},{"type":"error","name":"InsufficientBalance","inputs":[{"name":"balance","type":"uint256","internalType":"uint256"},{"name":"needed","type":"uint256","internalType":"uint256"}]},{"type":"error","name":"InvalidDelegate","inputs":[]},{"type":"error","name":"InvalidEndpointCall","inputs":[]},{"type":"error","name":"InvalidInitialization","inputs":[]},{"type":"error","name":"InvalidOptions","inputs":[{"name":"options","type":"bytes","internalType":"bytes"}]},{"type":"error","name":"LzTokenUnavailable","inputs":[]},{"type":"error","name":"NoPeer","inputs":[{"name":"eid","type":"uint32","internalType":"uint32"}]},{"type":"error","name":"NotEnoughNative","inputs":[{"name":"msgValue","type":"uint256","internalType":"uint256"}]},{"type":"error","name":"NotInitializing","inputs":[]},{"type":"error","name":"OnlyEndpoint","inputs":[{"name":"addr","type":"address","internalType":"address"}]},{"type":"error","name":"OnlyPeer","inputs":[{"name":"eid","type":"uint32","internalType":"uint32"},{"name":"sender","type":"bytes32","internalType":"bytes32"}]},{"type":"error","name":"OwnableInvalidOwner","inputs":[{"name":"owner","type":"address","internalType":"address"}]},{"type":"error","name":"OwnableUnauthorizedAccount","inputs":[{"name":"account","type":"address","internalType":"address"}]},{"type":"error","name":"ReentrancyGuardReentrantCall","inputs":[]},{"type":"error","name":"SafeERC20FailedOperation","inputs":[{"name":"token","type":"address","internalType":"address"}]},{"type":"error","name":"UUPSUnauthorizedCallContext","inputs":[]},{"type":"error","name":"UUPSUnsupportedProxiableUUID","inputs":[{"name":"slot","type":"bytes32","internalType":"bytes32"}]}],"bytecode":{"object":"0x60c03461013457601f6149f638819003918201601f19168301916001600160401b038311848410176101385780849260209460405283398101031261013457516001600160a01b03811690819003610134576080523060a0525f5160206149d65f395f51905f525460ff8160401c16610125576002600160401b03196001600160401b038216016100cf575b604051614889908161014d823960805181818161089501528181610ef6015281816110410152818161232d0152612a63015260a05181818161241701526124cd0152f35b6001600160401b0319166001600160401b039081175f5160206149d65f395f51905f52556040519081527fc7f505b2f371ae2175ee4913f4499e1f2633a7b5936321eed1cdaeb6115181d290602090a15f61008b565b63f92ee8a960e01b5f5260045ffd5b5f80fd5b634e487b7160e01b5f52604160045260245ffdfe608080604052600436101561001c575b50361561001a575f80fd5b005b5f3560e01c90816301ffc9a714612d6c5750806302d19adb14612bd157806313137d65146129f757806317442b70146129d657806317536c06146129b2578063240825cb146117e1578063248a9ca31461297b5780632548af6c1461293e5780632f2ff15d146128f45780633400288b1461286c57806336568abe1461280f5780633f4ba83a146126f95780634f1ef2861461248f57806352d1902d146123fd5780635535d461146123925780635c975abb146123515780635e280f111461230e578063715018a61461229d57806372605228146121d05780637c9e6cfd1461202a5780637d25a05e146120065780637d88209714611fea57806382413eac14611f8e5780638456cb5914611e9e5780638c75b1c714611d585780638d916c2214611d315780638da5cb5b14611cff57806391d1485414611ca95780639b3fa75914611ae7578063a217fddf14611acd578063ac8a584a14611a45578063ad1329d114611946578063ad3cb1cc146118e7578063b297c991146118a6578063b3ab15fb1461181e578063b71b73c3146117e1578063b7ac61921461173e578063b98bd0701461147d578063bb0b6a531461145f578063bc70b354146113fa578063bde0c7ff146112c7578063c4d66de814610f66578063ca5eb5e114610ecb578063cc69bcb014610e74578063d0a102601461081b578063d4e4487d14610795578063d547741f14610746578063d6236628146106f1578063db95e75c14610551578063e5b319a314610465578063f0ed98001461033f578063f2fde38b14610316578063f5b541a6146102dc5763ff7bd03d1461027a575f61000f565b346102d85760603660031901126102d85760206102cc6102986131d4565b63ffffffff165f527f72ab1bc1039b79dc4724ffca13de82c96834302d3c7e0d4252232d4b2dd8f90060205260405f205490565b60405190602435148152f35b5f80fd5b346102d8575f3660031901126102d85760206040517f97667070c54ef182b0f5858b034beac1b6f3089aa2d3188bb1e8929f4fa9b9298152f35b346102d85760203660031901126102d85761001a610332612e7f565b61033a613a6a565b613563565b346102d85760403660031901126102d85760243561035c8161350f565b905f91600435915f54925b8381108061045c575b1561040e57805f52600160205260ff600660405f20015416600681101590816103ed5760028114918215610401575b82156103dc575b50506103bb575b6103b690613541565b610367565b936103d481866103ce6103b6948761354f565b52613541565b9490506103ad565b9091506103ed5760051486806103a6565b634e487b7160e01b5f52602160045260245ffd5b506003811491505f61039f565b82856104198161350f565b915f5b82811061043d576040516020808252819061043990820187613131565b0390f35b8061044a6001928461354f565b51610455828761354f565b520161041c565b50818510610370565b346102d85760603660031901126102d85761047e612e7f565b610486612e95565b906044359081151582036102d8576001600160a01b03906104a5613a6a565b168015158061053f575b156104fb5761001a926001600160a01b03915f52600460205260405f208282166001600160a01b0319825416179055165f52600560205260405f209060ff801983541691151516179055565b606460405162461bcd60e51b815260206004820152600f60248201527f496e76616c6964206164647265737300000000000000000000000000000000006044820152fd5b506001600160a01b03831615156104af565b346102d85760203660031901126102d857606061012060405161057381612f46565b5f81525f60208201525f60408201525f838201525f60808201525f60a08201525f60c08201525f60e08201525f61010082015201526004355f52600160205260405f206040516105c281612f46565b8154916001600160a01b038316825263ffffffff602083019360a01c1683526001600160a01b0360018201541690604083019182526002810154606084019081526001600160a01b0360038301541660808501908152600483015460a0860190815260058401549160c0870192835260ff6006860154169360e088019460068110156103ed578552600786015495610100890196875260080161066490613084565b966101208901978852604051998a9960208b52516001600160a01b031660208b01525163ffffffff1660408a0152516001600160a01b03166060890152516080880152516001600160a01b031660a08701525160c08601525160e08501525161010084016106d191613124565b516101208301525161014082016101409052610160820161043991613027565b346102d85760403660031901126102d85761070a612e7f565b6001600160a01b0360243591165f52600260205260405f2080548210156102d85760209161073791613164565b90549060031b1c604051908152f35b346102d85760403660031901126102d85761001a600435610765612e95565b9061079061078b825f525f51602061485d5f395f51905f52602052600160405f20015490565b6137e2565b613b80565b346102d85760203660031901126102d8576001600160a01b036107b6612e7f565b165f52600260205260405f206040519081602082549182815201915f5260205f20905f5b81811061080557610439856107f181870382612f63565b604051918291602083526020830190613131565b82548452602090930192600192830192016107da565b60a03660031901126102d85761082f612e7f565b60443567ffffffffffffffff81116102d85761084f903690600401612e3b565b91610858612eab565b5060843567ffffffffffffffff81116102d857610879903690600401612e3b565b5050610883614563565b61088b6135f8565b6001600160a01b037f0000000000000000000000000000000000000000000000000000000000000000163303610e305782600c116102d857600882013560e01c916004602c85106102d857600c820191602092359580604c116102d8576108fb913691604b190190604c01612fa1565b9485518601908382016060888403126102d8576109198589016134fb565b9061092660408a016134fb565b9860608101519067ffffffffffffffff82116102d857019080603f830112156102d85786820151610956816134e3565b956109646040519788612f63565b81875288808089019360051b86010101938385116102d85760408101925b858410610d79575050505050506001600160a01b0316966001600160a01b0316955f54809686604051916109b583612f46565b8a83528183019085825260408401906001600160a01b03168152606084018781528d6080860190815260a08601915f835260c087019342855260e08801955f875261010089019760243589526040519a610a0f828d612f63565b5f8c526101208b019b8c525f526001905260405f2098516001600160a01b03166001600160a01b031689546001600160a01b0319161789555188549060a01b77ffffffff000000000000000000000000000000000000000016907fffffffffffffffff00000000ffffffffffffffffffffffffffffffffffffffff16178855516001600160a01b031660018801906001600160a01b031681546001600160a01b031916179055516002870155516001600160a01b031660038601906001600160a01b031681546001600160a01b0319161790555189850155516005840155516006811015610d665790610b0883926006600895016145b6565b51600782015501905180519067ffffffffffffffff8211610d5357610b3782610b31855461304c565b85613378565b8790601f8311600114610cf057610b6592915f9183610ce5575b50508160011b915f199060031b1c19161790565b90555b865f526002855260405f2080549068010000000000000000821015610cd257877f05788213ec0b692616593828e39171c9debbfbfb5c606963b3750a14fd27cb6e610c02610c0d979695610bc5868f97968f976001018155613164565b81549060031b9086821b915f19901b1916179055610be35f54613541565b5f556040805188815263ffffffff909216602083015290918291820190565b0390a48688876140b9565b90835f5260018352818160405f200155835f526001835260ff600660405f2001541690845f5260018452610c486001600660405f20016145b6565b610c556040518093613124565b5090837f9d93915ed14aa5ee42cdad6a94e043c46a0272ca711f0dd244ffdb742aec166e6040846001877fca0cb2912e0c2e0af51b3ace43d0aace130290bb58b2a7d55f2894acdaf127a798970152a2604051908152a460017f9b779b17422d0df92223018b32b4d1fa46e071723d6817e2486d003becc55f0055005b604186634e487b7160e01b5f525260245ffd5b015190508c80610b51565b90601f19831691845f52895f20925f5b8b828210610d3d575050908460019594939210610d25575b505050811b019055610b68565b01515f1960f88460031b161c191690558b8080610d18565b6001859682939686015181550195019301610d00565b604187634e487b7160e01b5f525260245ffd5b602188634e487b7160e01b5f525260245ffd5b835167ffffffffffffffff81116102d85782018b0160608185038d01601f1901126102d85760405190610dab82612f2a565b610db68d82016134fb565b825260408101518d830152606081015167ffffffffffffffff81116102d8578d9101019186601f840112156102d8578251918d88610df385612f85565b91610e016040519384612f63565b85835285870101116102d857610e208f95948695868085019101613006565b6040820152815201930192610982565b606460405162461bcd60e51b815260206004820152600d60248201527f4f6e6c7920656e64706f696e74000000000000000000000000000000000000006044820152fd5b5f3660031901126102d8573415610e8757005b606460405162461bcd60e51b815260206004820152600d60248201527f4d7573742073656e6420455448000000000000000000000000000000000000006044820152fd5b346102d85760203660031901126102d857610ee4612e7f565b610eec613a6a565b6001600160a01b037f00000000000000000000000000000000000000000000000000000000000000001690813b156102d8576001600160a01b0360245f9283604051958694859363ca5eb5e160e01b85521660048401525af18015610f5b57610f5157005b5f61001a91612f63565b6040513d5f823e3d90fd5b346102d85760203660031901126102d857610f7f612e7f565b7ff0c57e16840df040f15088dc2f81fe391c3923bec73e23a9662efc9c229c6a00549060ff8260401c16159167ffffffffffffffff8116801590816112bf575b60011490816112b5575b1590816112ac575b506112845767ffffffffffffffff1981166001177ff0c57e16840df040f15088dc2f81fe391c3923bec73e23a9662efc9c229c6a005582611245575b506001600160a01b038116908115611201576110276147e5565b61102f6147e5565b6110376147e5565b6001600160a01b037f00000000000000000000000000000000000000000000000000000000000000001691823b156102d8575f9260248492604051958693849263ca5eb5e160e01b845260048401525af1918215610f5b5761116d926111f1575b506110a16147e5565b6110a96147e5565b6110b16147e5565b6110b96147e5565b6110c281613563565b6110ca6147e5565b6110d26147e5565b60017f9b779b17422d0df92223018b32b4d1fa46e071723d6817e2486d003becc55f00556110fe6147e5565b6111066147e5565b60ff197fcd5ed15c6e187e77e9aee88184c21f4f2182ab5827cb3b7e07fbedcd63f0330054167fcd5ed15c6e187e77e9aee88184c21f4f2182ab5827cb3b7e07fbedcd63f03300556111566147e5565b61115e6147e5565b61116781613919565b50613848565b5061117457005b68ff0000000000000000197ff0c57e16840df040f15088dc2f81fe391c3923bec73e23a9662efc9c229c6a0054167ff0c57e16840df040f15088dc2f81fe391c3923bec73e23a9662efc9c229c6a00557fc7f505b2f371ae2175ee4913f4499e1f2633a7b5936321eed1cdaeb6115181d2602060405160018152a1005b5f6111fb91612f63565b83611098565b606460405162461bcd60e51b815260206004820152600d60248201527f496e76616c6964206f776e6572000000000000000000000000000000000000006044820152fd5b68ffffffffffffffffff191668010000000000000001177ff0c57e16840df040f15088dc2f81fe391c3923bec73e23a9662efc9c229c6a00558261100d565b7ff92ee8a9000000000000000000000000000000000000000000000000000000005f5260045ffd5b90501584610fd1565b303b159150610fc9565b849150610fbf565b346102d85760c03660031901126102d8576112e0612e95565b604435906001600160a01b03821682036102d8576112fc612eab565b5060a43567ffffffffffffffff81116102d85761131d903690600401612e0a565b61132b9391933033146131e7565b611334816134e3565b936113426040519586612f63565b818552602085019160051b8101903682116102d85780925b82841061137c57602061137488608435888a6004356140b9565b604051908152f35b833567ffffffffffffffff81116102d85782016060813603126102d857604051916113a683612f2a565b81356001600160a01b03811681036102d85783526020820135602084015260408201359267ffffffffffffffff84116102d8576113ea602094938594369101612fd7565b604082015281520193019261135a565b346102d85760603660031901126102d857611413612efb565b61141b612ff5565b6044359067ffffffffffffffff82116102d8576104399261144361144b933690600401612e3b565b9290916133e7565b604051918291602083526020830190613027565b346102d85760203660031901126102d8576020611374610298612efb565b346102d85760203660031901126102d85760043567ffffffffffffffff81116102d8576114ae903690600401612e0a565b906114b7613a6a565b5f5b8281106115b657506040519082602083016020845252604082019260408160051b84010193825f90605e19813603015b848310611518577fbe4864a8e820971c0247f5992e2da559595f7bf076a21cb5928d443d2a13b67487890388a1005b909192939496603f198782030185528735828112156102d8578301803563ffffffff81168091036102d8578252602081013561ffff81168091036102d85760208301526040810135601e19823603018112156102d857016020813591019067ffffffffffffffff81116102d85780360382136102d8576115a86020928392606086816040600199015201916133c7565b9901969501930191906114e9565b916115d86115d26115c8858486613356565b6040810190613232565b9061407c565b6115e66115c8848385613356565b6115f4858486979497613356565b3563ffffffff8116908181036102d857505f527f8d2bda5d9f6ffb5796910376005392955773acee5548d0fcdb10e7c264ea000060205260405f20602061163c848688613356565b013561ffff811681036102d85761ffff165f5260205260405f209067ffffffffffffffff811161172a5761167a81611674845461304c565b84613378565b5f95601f82116001146116c357908060019596976116ac935f926116b85750508160011b915f199060031b1c19161790565b90555b019190916114b9565b013590508880610b51565b601f19821696835f5260205f20975f5b81811061171257509160019697989184889594106116f9575b505050811b0190556116af565b01355f19600384901b60f8161c191690558780806116ec565b91986020600181928c8701358155019a0192016116d3565b634e487b7160e01b5f52604160045260245ffd5b346102d85760403660031901126102d857611757612e7f565b6024359081151582036102d8576001600160a01b0390611775613a6a565b1690811561179d5761001a915f52600360205260405f209060ff801983541691151516179055565b606460405162461bcd60e51b815260206004820152600d60248201527f496e76616c6964207661756c74000000000000000000000000000000000000006044820152fd5b346102d85760203660031901126102d8576001600160a01b03611802612e7f565b165f526003602052602060ff60405f2054166040519015158152f35b346102d85760203660031901126102d85761001a61183a612e7f565b611842613a6a565b7f97667070c54ef182b0f5858b034beac1b6f3089aa2d3188bb1e8929f4fa9b9295f525f51602061485d5f395f51905f526020527f448256db8f8fb95ee3eaaf89c1051414494e85cebb6057fcf996cc3d0ccfb457546118a1906137e2565b613848565b346102d85760203660031901126102d8576001600160a01b036118c7612e7f565b165f52600460205260206001600160a01b0360405f205416604051908152f35b346102d8575f3660031901126102d857610439604051611908604082612f63565b600581527f352e302e300000000000000000000000000000000000000000000000000000006020820152604051918291602083526020830190613027565b346102d85761195436612ec1565b61195c613a6a565b6001600160a01b038216928315611a01576001600160a01b031691826119cd57505f818481156119c3575b5f92839283928392f115610f5b5760207f1ac506e936e7f02f4036dbe44708f5e8d72af9ace8745a29fd391481a8fbcb87915b604051908152a3005b6108fc9250611987565b816119fc7f1ac506e936e7f02f4036dbe44708f5e8d72af9ace8745a29fd391481a8fbcb879360209386614022565b6119ba565b606460405162461bcd60e51b815260206004820152601160248201527f496e76616c696420726563697069656e740000000000000000000000000000006044820152fd5b346102d85760203660031901126102d85761001a611a61612e7f565b611a69613a6a565b7f97667070c54ef182b0f5858b034beac1b6f3089aa2d3188bb1e8929f4fa9b9295f525f51602061485d5f395f51905f526020527f448256db8f8fb95ee3eaaf89c1051414494e85cebb6057fcf996cc3d0ccfb45754611ac8906137e2565b613ab6565b346102d8575f3660031901126102d85760206040515f8152f35b346102d85760203660031901126102d8576004355f52600160205260405f2080549063ffffffff8260a01c168015611c65576001600160a01b036001830154165f52600460205260026001600160a01b0360405f20541692611b4a841515613265565b0154916126ac8302938385046126ac1484151715611c5157611bf3946040946001600160a01b0361271093875196611b8188612f0e565b8752166020860152858501520460608301528251611ba0602082612f63565b5f815260808301528251611bb5602082612f63565b5f815260a08301528251611bca602082612f63565b5f815260c083015282518080958194633b6f743b60e01b835286600484015260448301906132e9565b5f602483015203915afa8015610f5b575f90611c16575b60209051604051908152f35b5060403d604011611c4a575b611c2c8183612f63565b8101906040818303126102d857602091611c45916132b0565b611c0a565b503d611c22565b634e487b7160e01b5f52601160045260245ffd5b606460405162461bcd60e51b815260206004820152601f60248201527f53616d652d636861696e20726566756e64206e6f20676173206e6565646564006044820152fd5b346102d85760403660031901126102d857611cc2612e95565b6004355f525f51602061485d5f395f51905f526020526001600160a01b0360405f2091165f52602052602060ff60405f2054166040519015158152f35b346102d8575f3660031901126102d85760206001600160a01b035f51602061483d5f395f51905f525416604051908152f35b346102d85760203660031901126102d857611d4d3033146131e7565b61001a600435613c4c565b346102d85760203660031901126102d8576004356001600160a01b035f51602061483d5f395f51905f52541633148015611e67575b611d9690613179565b611d9e6135f8565b805f52600160205260ff600660405f20015416600681101590816103ed5760028114918215611e5a575b8215611e49575b505015611e0557611ddf90613c4c565b60017f9b779b17422d0df92223018b32b4d1fa46e071723d6817e2486d003becc55f0055005b606460405162461bcd60e51b815260206004820152601760248201527f4e6f7420656c696769626c6520666f7220726566756e640000000000000000006044820152fd5b9091506103ed576005148280611dcf565b506003811491505f611dc8565b50335f9081527f448256db8f8fb95ee3eaaf89c1051414494e85cebb6057fcf996cc3d0ccfb456602052604090205460ff16611d8d565b346102d8575f3660031901126102d8576001600160a01b035f51602061483d5f395f51905f52541633148015611f57575b611ed890613179565b611ee0614563565b600160ff197fcd5ed15c6e187e77e9aee88184c21f4f2182ab5827cb3b7e07fbedcd63f033005416177fcd5ed15c6e187e77e9aee88184c21f4f2182ab5827cb3b7e07fbedcd63f03300557f62e78cea01bee320cd4e420270b5ea74000d11b0c9f74754ebdbfc544b05a2586020604051338152a1005b50335f9081527f448256db8f8fb95ee3eaaf89c1051414494e85cebb6057fcf996cc3d0ccfb456602052604090205460ff16611ecf565b346102d857366003190160a081126102d8576060136102d85760643567ffffffffffffffff81116102d857611fc7903690600401612e3b565b50506084356001600160a01b0381168091036102d8576020906040519030148152f35b346102d8575f3660031901126102d85760205f54604051908152f35b346102d85760403660031901126102d85761201f612efb565b5060206040515f8152f35b346102d85760603660031901126102d85760043567ffffffffffffffff81116102d85761205b903690600401612e0a565b9060243567ffffffffffffffff81116102d85761207c903690600401612e0a565b9060443567ffffffffffffffff81116102d85761209d903690600401612e0a565b946120a93033146131e7565b838114806121c7575b15612183575f5b8181106120c257005b6120cd8183886131c4565b356001600160a01b03811681036102d8578582101561216f5761210e6120f88360051b870187613232565b9190612105858c896131c4565b35923691612fa1565b9080471061214057915f80836001969560206121399651920190855af1612133613c1d565b916146ec565b50016120b9565b477fcf479181000000000000000000000000000000000000000000000000000000005f5260045260245260445ffd5b634e487b7160e01b5f52603260045260245ffd5b606460405162461bcd60e51b815260206004820152601560248201527f4172726179206c656e677468206d69736d6174636800000000000000000000006044820152fd5b508584146120b2565b346102d85760203660031901126102d8576004355f52600160205263ffffffff60405f206104398154916001600160a01b036001820154169061228360028201546001600160a01b03600384015416600484015460058501549160ff60068701541693612244600860078901549801613084565b976040519b8b6001600160a01b038e9d168d5260a01c1660208c015260408b015260608a0152608089015260a088015260c087015260e0860190613124565b610100840152610140610120840152610140830190613027565b346102d8575f3660031901126102d8576122b5613a6a565b5f6001600160a01b035f51602061483d5f395f51905f52546001600160a01b031981165f51602061483d5f395f51905f5255167f8be0079c531659141344cd1fd0a4f28419497f9722a3daafe3b4186f6b6457e08280a3005b346102d8575f3660031901126102d85760206040516001600160a01b037f0000000000000000000000000000000000000000000000000000000000000000168152f35b346102d8575f3660031901126102d857602060ff7fcd5ed15c6e187e77e9aee88184c21f4f2182ab5827cb3b7e07fbedcd63f0330054166040519015158152f35b346102d85760403660031901126102d8576123ab612efb565b63ffffffff6123b8612ff5565b91165f527f8d2bda5d9f6ffb5796910376005392955773acee5548d0fcdb10e7c264ea000060205261ffff60405f2091165f5260205261043961144b60405f20613084565b346102d8575f3660031901126102d8576001600160a01b037f00000000000000000000000000000000000000000000000000000000000000001630036124675760206040517f360894a13ba1a3210667c828492db98dca3e2076cc3735a920a3ca505d382bbc8152f35b7fe07c8dba000000000000000000000000000000000000000000000000000000005f5260045ffd5b60403660031901126102d8576124a3612e7f565b60243567ffffffffffffffff81116102d8576124c3903690600401612fd7565b6001600160a01b037f0000000000000000000000000000000000000000000000000000000000000000168030149081156126c4575b5061246757612505613a6a565b6001600160a01b038216916040517f52d1902d000000000000000000000000000000000000000000000000000000008152602081600481875afa5f9181612690575b5061255f5783634c9c8ce360e01b5f5260045260245ffd5b807f360894a13ba1a3210667c828492db98dca3e2076cc3735a920a3ca505d382bbc8592036126655750813b1561265357806001600160a01b03197f360894a13ba1a3210667c828492db98dca3e2076cc3735a920a3ca505d382bbc5416177f360894a13ba1a3210667c828492db98dca3e2076cc3735a920a3ca505d382bbc557fbc7cd75a20ee27fd9adebab32041f755214dbc6bffa90cc0225b39da2e5c2d3b5f80a2815115612622575f8083602061001a95519101845af4612133613c1d565b50503461262b57005b7fb398979f000000000000000000000000000000000000000000000000000000005f5260045ffd5b634c9c8ce360e01b5f5260045260245ffd5b7faa1d49a4000000000000000000000000000000000000000000000000000000005f5260045260245ffd5b9091506020813d6020116126bc575b816126ac60209383612f63565b810103126102d857519085612547565b3d915061269f565b90506001600160a01b037f360894a13ba1a3210667c828492db98dca3e2076cc3735a920a3ca505d382bbc54161415836124f8565b346102d8575f3660031901126102d8576001600160a01b035f51602061483d5f395f51905f525416331480156127d8575b61273390613179565b7fcd5ed15c6e187e77e9aee88184c21f4f2182ab5827cb3b7e07fbedcd63f033005460ff8116156127b05760ff19167fcd5ed15c6e187e77e9aee88184c21f4f2182ab5827cb3b7e07fbedcd63f03300557f5db9ee0a495bf2e6ff9c91a7834c1ba4fdd244a5e8aa4e537bd38aeae4b073aa6020604051338152a1005b7f8dfc202b000000000000000000000000000000000000000000000000000000005f5260045ffd5b50335f9081527f448256db8f8fb95ee3eaaf89c1051414494e85cebb6057fcf996cc3d0ccfb456602052604090205460ff1661272a565b346102d85760403660031901126102d857612828612e95565b336001600160a01b038216036128445761001a90600435613b80565b7f6697b232000000000000000000000000000000000000000000000000000000005f5260045ffd5b346102d85760403660031901126102d8577f238399d427b947898edb290f5ff0f9109849b1c3ba196a42e35f00c50a54b98b60406128a8612efb565b63ffffffff602435916128b9613a6a565b1690815f527f72ab1bc1039b79dc4724ffca13de82c96834302d3c7e0d4252232d4b2dd8f90060205280835f205582519182526020820152a1005b346102d85760403660031901126102d85761001a600435612913612e95565b9061293961078b825f525f51602061485d5f395f51905f52602052600160405f20015490565b6139c3565b346102d85760203660031901126102d8576001600160a01b0361295f612e7f565b165f526005602052602060ff60405f2054166040519015158152f35b346102d85760203660031901126102d85760206113746004355f525f51602061485d5f395f51905f52602052600160405f20015490565b346102d85760206113746129c536612ec1565b916129d13033146131e7565b61366f565b346102d8575f3660031901126102d857604080516001815260026020820152f35b366003190160e081126102d8576060136102d85760843567ffffffffffffffff81116102d857612a2b903690600401612e3b565b5050612a35612e69565b5060c43567ffffffffffffffff81116102d857612a56903690600401612e3b565b5050336001600160a01b037f00000000000000000000000000000000000000000000000000000000000000001603612ba55763ffffffff612a956131d4565b16805f527f72ab1bc1039b79dc4724ffca13de82c96834302d3c7e0d4252232d4b2dd8f90060205260405f2054908115612b7a5750602435809103612b3e57608460405162461bcd60e51b815260206004820152602260248201527f446f6573206e6f742072656365697665207374616e64617264206d657373616760448201527f65730000000000000000000000000000000000000000000000000000000000006064820152fd5b63ffffffff612b4b6131d4565b7fc26bebcc000000000000000000000000000000000000000000000000000000005f521660045260245260445ffd5b7ff6ff4fb7000000000000000000000000000000000000000000000000000000005f5260045260245ffd5b7f91ac5e4f000000000000000000000000000000000000000000000000000000005f523360045260245ffd5b346102d85760203660031901126102d85760043567ffffffffffffffff81116102d857612c02903690600401612e0a565b6001600160a01b035f51602061483d5f395f51905f52541633148015612d35575b612c2c90613179565b612c346135f8565b5f5b818110612c635760017f9b779b17422d0df92223018b32b4d1fa46e071723d6817e2486d003becc55f0055005b612c6e8183856131c4565b355f52600160205260ff600660405f20015416600681101590816103ed5760028114918215612d28575b8215612d17575b5050612cae575b600101612c36565b612cb98183856131c4565b3590303b156102d857600191604051907f8d916c2200000000000000000000000000000000000000000000000000000000825260048201525f8160248183305af1612d07575b509050612ca6565b5f612d1191612f63565b84612cff565b9091506103ed576005148480612c9f565b506003811491505f612c98565b50335f9081527f448256db8f8fb95ee3eaaf89c1051414494e85cebb6057fcf996cc3d0ccfb456602052604090205460ff16612c23565b346102d85760203660031901126102d857600435907fffffffff0000000000000000000000000000000000000000000000000000000082168092036102d857817f7965db0b0000000000000000000000000000000000000000000000000000000060209314908115612de0575b5015158152f35b7f01ffc9a70000000000000000000000000000000000000000000000000000000091501483612dd9565b9181601f840112156102d85782359167ffffffffffffffff83116102d8576020808501948460051b0101116102d857565b9181601f840112156102d85782359167ffffffffffffffff83116102d857602083818601950101116102d857565b60a435906001600160a01b03821682036102d857565b600435906001600160a01b03821682036102d857565b602435906001600160a01b03821682036102d857565b606435906001600160a01b03821682036102d857565b60609060031901126102d8576004356001600160a01b03811681036102d857906024356001600160a01b03811681036102d8579060443590565b6004359063ffffffff821682036102d857565b60e0810190811067ffffffffffffffff82111761172a57604052565b6060810190811067ffffffffffffffff82111761172a57604052565b610140810190811067ffffffffffffffff82111761172a57604052565b90601f8019910116810190811067ffffffffffffffff82111761172a57604052565b67ffffffffffffffff811161172a57601f01601f191660200190565b929192612fad82612f85565b91612fbb6040519384612f63565b8294818452818301116102d8578281602093845f960137010152565b9080601f830112156102d857816020612ff293359101612fa1565b90565b6024359061ffff821682036102d857565b5f5b8381106130175750505f910152565b8181015183820152602001613008565b9060209161304081518092818552858086019101613006565b601f01601f1916010190565b90600182811c9216801561307a575b602083101461306657565b634e487b7160e01b5f52602260045260245ffd5b91607f169161305b565b9060405191825f8254926130978461304c565b808452936001811690811561310257506001146130be575b506130bc92500383612f63565b565b90505f9291925260205f20905f915b8183106130e65750509060206130bc928201015f6130af565b60209193508060019154838589010152019101909184926130cd565b9050602092506130bc94915060ff191682840152151560051b8201015f6130af565b9060068210156103ed5752565b90602080835192838152019201905f5b81811061314e5750505090565b8251845260209384019390920191600101613141565b805482101561216f575f5260205f2001905f90565b1561318057565b606460405162461bcd60e51b815260206004820152601560248201527f4e6f74206f776e6572206f72206f70657261746f7200000000000000000000006044820152fd5b919081101561216f5760051b0190565b60043563ffffffff811681036102d85790565b156131ee57565b606460405162461bcd60e51b815260206004820152600960248201527f4f6e6c792073656c6600000000000000000000000000000000000000000000006044820152fd5b903590601e19813603018212156102d8570180359067ffffffffffffffff82116102d8576020019181360383136102d857565b1561326c57565b606460405162461bcd60e51b815260206004820152600d60248201527f4f4654206e6f7420666f756e64000000000000000000000000000000000000006044820152fd5b91908260409103126102d8576040516040810181811067ffffffffffffffff82111761172a576040526020808294805184520151910152565b612ff29163ffffffff825116815260208201516020820152604082015160408201526060820151606082015260c0613345613333608085015160e0608086015260e0850190613027565b60a085015184820360a0860152613027565b9201519060c0818403910152613027565b919081101561216f5760051b81013590605e19813603018212156102d8570190565b601f821161338557505050565b5f5260205f20906020601f840160051c830193106133bd575b601f0160051c01905b8181106133b2575050565b5f81556001016133a7565b909150819061339e565b908060209392818452848401375f828201840152601f01601f1916010190565b63ffffffff90949294165f527f8d2bda5d9f6ffb5796910376005392955773acee5548d0fcdb10e7c264ea000060205261ffff60405f2091165f5260205261343160405f20613084565b8051156134d65782156134d057600283101561347157505061346d604051928392639a6d49cd60e01b84526020600485015260248401916133c7565b0390fd5b91909261347e828261407c565b816002116102d857612ff291602091604051946134a38151809286808a019101613006565b8501906001198301906002018483013701015f60011982015282600119910301601f198101835282612f63565b92509050565b5091612ff2913691612fa1565b67ffffffffffffffff811161172a5760051b60200190565b51906001600160a01b03821682036102d857565b90613519826134e3565b6135266040519182612f63565b8281528092613537601f19916134e3565b0190602036910137565b5f198114611c515760010190565b805182101561216f5760209160051b010190565b6001600160a01b031680156135cc576001600160a01b035f51602061483d5f395f51905f5254826001600160a01b03198216175f51602061483d5f395f51905f5255167f8be0079c531659141344cd1fd0a4f28419497f9722a3daafe3b4186f6b6457e05f80a3565b7f1e4fbdf7000000000000000000000000000000000000000000000000000000005f525f60045260245ffd5b60027f9b779b17422d0df92223018b32b4d1fa46e071723d6817e2486d003becc55f0054146136475760027f9b779b17422d0df92223018b32b4d1fa46e071723d6817e2486d003becc55f0055565b7f3ee5aeb5000000000000000000000000000000000000000000000000000000005f5260045ffd5b929190926001600160a01b038116906040516338d52e0f60e01b8152602081600481865afa908115610f5b575f91613787575b50925f6001600160a01b0396936136c0836044958a6020991661462b565b60405197889586947f6e553f6500000000000000000000000000000000000000000000000000000000865260048601521660248401525af1918215610f5b575f92613753575b50811561370f57565b606460405162461bcd60e51b815260206004820152601960248201527f4465706f736974206661696c65643a206e6f20736861726573000000000000006044820152fd5b9091506020813d60201161377f575b8161376f60209383612f63565b810103126102d85751905f613706565b3d9150613762565b95929390506020863d6020116137da575b816137a560209383612f63565b810103126102d8575f6020946136c0836044956001600160a01b036137ca819c6134fb565b96505095509650509396506136a2565b3d9150613798565b805f525f51602061485d5f395f51905f5260205260405f206001600160a01b0333165f5260205260ff60405f205416156138195750565b7fe2517d3f000000000000000000000000000000000000000000000000000000005f523360045260245260445ffd5b6001600160a01b0381165f9081527f448256db8f8fb95ee3eaaf89c1051414494e85cebb6057fcf996cc3d0ccfb456602052604090205460ff16613914576001600160a01b03165f8181527f448256db8f8fb95ee3eaaf89c1051414494e85cebb6057fcf996cc3d0ccfb45660205260408120805460ff191660011790553391907f97667070c54ef182b0f5858b034beac1b6f3089aa2d3188bb1e8929f4fa9b929907f2f8788117e7eff1d82e926ec794901d17c78024a50270940304540a733656f0d9080a4600190565b505f90565b6001600160a01b0381165f9081527fb7db2dd08fcb62d0c9e08c51941cae53c267786a0b75803fb7960902fc8ef97d602052604090205460ff16613914576001600160a01b03165f8181527fb7db2dd08fcb62d0c9e08c51941cae53c267786a0b75803fb7960902fc8ef97d60205260408120805460ff191660011790553391907f2f8788117e7eff1d82e926ec794901d17c78024a50270940304540a733656f0d8180a4600190565b805f525f51602061485d5f395f51905f5260205260405f206001600160a01b0383165f5260205260ff60405f205416155f14613a6457805f525f51602061485d5f395f51905f5260205260405f206001600160a01b0383165f5260205260405f20600160ff198254161790556001600160a01b03339216907f2f8788117e7eff1d82e926ec794901d17c78024a50270940304540a733656f0d5f80a4600190565b50505f90565b6001600160a01b035f51602061483d5f395f51905f5254163303613a8a57565b7f118cdaa7000000000000000000000000000000000000000000000000000000005f523360045260245ffd5b6001600160a01b0381165f9081527f448256db8f8fb95ee3eaaf89c1051414494e85cebb6057fcf996cc3d0ccfb456602052604090205460ff1615613914576001600160a01b03165f8181527f448256db8f8fb95ee3eaaf89c1051414494e85cebb6057fcf996cc3d0ccfb45660205260408120805460ff191690553391907f97667070c54ef182b0f5858b034beac1b6f3089aa2d3188bb1e8929f4fa9b929907ff6391f5c32d9c69d2a47ea670b442974b53935d1edc7fd64eb21e047a839171b9080a4600190565b805f525f51602061485d5f395f51905f5260205260405f206001600160a01b0383165f5260205260ff60405f2054165f14613a6457805f525f51602061485d5f395f51905f5260205260405f206001600160a01b0383165f5260205260405f2060ff1981541690556001600160a01b03339216907ff6391f5c32d9c69d2a47ea670b442974b53935d1edc7fd64eb21e047a839171b5f80a4600190565b3d15613c47573d90613c2e82612f85565b91613c3c6040519384612f63565b82523d5f602084013e565b606090565b805f52600160205260405f2063ffffffff815460a01c1615613fbe576001600160a01b0360018201541690815f5260046020526001600160a01b0360405f20541690613c99821515613265565b80549260028201928354946126ac86028681046126ac1487151715611c5157612710906001600160a01b0360405193613cd185612f0e565b63ffffffff8160a01c168552166020840152876040840152046060820152602095604051613cff8882612f63565b5f81526080830152604051613d148882612f63565b5f815260a0830152604051613d298882612f63565b5f815260c083015260405193633b6f743b60e01b85526040600486015260408580613d5760448201876132e9565b5f60248301520381875afa948515610f5b575f95613f83575b5047855111613f3f578792613d8c859360c096613dcd9461462b565b855190604051968795869485937fc7c7f5b30000000000000000000000000000000000000000000000000000000085526080600486015260848501906132e9565b91805160248501520151604483015230606483015203925af19081613ebf575b50613e59575050815f526001815260ff600660405f2001541690825f5260018152613e1f6005600660405f20016145b6565b613e2c6040518093613124565b8160056040927f9d93915ed14aa5ee42cdad6a94e043c46a0272ca711f0dd244ffdb742aec166e940152a2565b839250613eba90613e8b7f1106cc1287edd0e75f58cce467245b502d6d32a6d3c75965a7e9b89a889fad0593956145ce565b5493546040805191825260a086901c63ffffffff1660208301526001600160a01b039095169490918291820190565b0390a3565b60c03d60c011613f38575b613ed48183612f63565b810181810360c081126102d8576080136102d85760405191613ef583612f2a565b80518352868101519067ffffffffffffffff821682036102d8578360809289613f319601526040613f28858285016132b0565b910152016132b0565b505f613ded565b503d613eca565b6064886040519062461bcd60e51b82526004820152601b60248201527f496e73756666696369656e742045544820666f7220726566756e6400000000006044820152fd5b90945060403d604011613fb7575b613f9b8183612f63565b81016040828203126102d857613fb0916132b0565b935f613d70565b503d613f91565b90613fc8816145ce565b7f1106cc1287edd0e75f58cce467245b502d6d32a6d3c75965a7e9b89a889fad0560406001600160a01b03806001860154169461401082825416966002830197885491614022565b5416935481519081525f6020820152a3565b6040517fa9059cbb0000000000000000000000000000000000000000000000000000000060208201526001600160a01b039290921660248301526044808301939093529181526130bc91614077606483612f63565b614778565b90806002116102d8576003823560f01c03614095575050565b61346d604051928392639a6d49cd60e01b84526020600485015260248401916133c7565b9391949290945f91835115155f1461455357506001600160a01b03861693604051926338d52e0f60e01b8452602084600481895afa938415610f5b575f9461450e575b5060206001600160a01b03946024604051809781936370a0823160e01b8352306004840152165afa938415610f5b575f946144da575b50845192614158614142856134e3565b946141506040519687612f63565b8086526134e3565b602085019890601f1901368a37865195614171876134e3565b9661417f6040519889612f63565b80885261418e601f19916134e3565b015f5b8181106144c95750506141a4885161350f565b985f5b895181101561421d57808b61421682602061420d8f968f978f8260019a614207926141e7836001600160a01b036141de828961354f565b5151169261354f565b5260406141f4838661354f565b510151614201838361354f565b5261354f565b5061354f565b5101519261354f565b52016141a7565b50939890949a969195929799303b156102d8576040517f7c9e6cfd0000000000000000000000000000000000000000000000000000000081526060600482015293516064850181905291928492909160848401915f5b8181106144a757505050600319838203016024840152815180825260208201916020808360051b8301019401925f915b8383106144745750505050506142c782915f94600319848303016044850152613131565b038183305af18015610f5b5761445e575b506020600491604051928380926338d52e0f60e01b82525afa90811561440a578691614415575b5060206001600160a01b03916024604051809481936370a0823160e01b8352306004840152165afa90811561440a5786916143d8575b50818103958187116143c4575014614380577fba4c6c9488e6d90701664a57f312029534dbfb8d5a53b93cbd44a8d957bad3166040612ff296518151908152866020820152a261366f565b606460405162461bcd60e51b815260206004820152601660248201527f5a61702070726f6475636564206e6f206f7574707574000000000000000000006044820152fd5b80634e487b7160e01b602492526011600452fd5b90506020813d602011614402575b816143f360209383612f63565b810103126102d857515f614335565b3d91506143e6565b6040513d88823e3d90fd5b90506020813d602011614456575b8161443060209383612f63565b8101031261445257602061444b6001600160a01b03926134fb565b91506142ff565b8580fd5b3d9150614423565b61446b9196505f90612f63565b5f9460206142d8565b91939695509193602080614494600193601f198682030187528a51613027565b98019301930190928795969492936142a3565b82516001600160a01b0316845287955060209384019390920191600101614273565b806060602080938c01015201614191565b9093506020813d602011614506575b816144f660209383612f63565b810103126102d85751925f614132565b3d91506144e9565b93506020843d60201161454b575b8161452960209383612f63565b810103126102d85760206145446001600160a01b03956134fb565b94506140fc565b3d915061451c565b939591509150612ff2935061366f565b60ff7fcd5ed15c6e187e77e9aee88184c21f4f2182ab5827cb3b7e07fbedcd63f03300541661458e57565b7fd93c0665000000000000000000000000000000000000000000000000000000005f5260045ffd5b9060068110156103ed5760ff80198354169116179055565b5f818152600160205260409020600601805460ff16906145f0906004906145b6565b6145fd6040518092613124565b604081600460207f9d93915ed14aa5ee42cdad6a94e043c46a0272ca711f0dd244ffdb742aec166e940152a2565b60405163095ea7b360e01b60208083019182526001600160a01b0385166024840152604480840196909652948252929390925f9061466a606486612f63565b84519082855af15f513d826146c7575b50501561468657505050565b6140776130bc936001600160a01b036040519163095ea7b360e01b60208401521660248201525f6044820152604481526146c1606482612f63565b82614778565b9091506146e457506001600160a01b0381163b15155b5f8061467a565b6001146146dd565b90614729575080511561470157805190602001fd5b7fd6bda275000000000000000000000000000000000000000000000000000000005f5260045ffd5b8151158061476f575b61473a575090565b6001600160a01b03907f9996b315000000000000000000000000000000000000000000000000000000005f521660045260245ffd5b50803b15614732565b905f602091828151910182855af115610f5b575f513d6147dc57506001600160a01b0381163b155b6147a75750565b6001600160a01b03907f5274afe7000000000000000000000000000000000000000000000000000000005f521660045260245ffd5b600114156147a0565b60ff7ff0c57e16840df040f15088dc2f81fe391c3923bec73e23a9662efc9c229c6a005460401c161561481457565b7fd7e6bcf8000000000000000000000000000000000000000000000000000000005f5260045ffdfe9016d09d72d40fdae2fd8ceac6b6234c7706214fd39c1cd1e609a0528c19930002dd7bc7dec4dceedda775e58dd541e08a116c6c53815c0bd028192f7b626800a164736f6c634300081c000af0c57e16840df040f15088dc2f81fe391c3923bec73e23a9662efc9c229c6a00","linkReferences":{}},"methodIdentifiers":{"DEFAULT_ADMIN_ROLE()":"a217fddf","OPERATOR_ROLE()":"f5b541a6","UPGRADE_INTERFACE_VERSION()":"ad3cb1cc","allowInitializePath((uint32,bytes32,uint64))":"ff7bd03d","batchManualRefund(uint256[])":"02d19adb","combineOptions(uint32,uint16,bytes)":"bc70b354","depositRecords(uint256)":"72605228","depositRefundGas()":"cc69bcb0","depositToVault(address,address,uint256)":"17536c06","emergencyRecover(address,address,uint256)":"ad1329d1","endpoint()":"5e280f11","enforcedOptions(uint32,uint16)":"5535d461","getDepositRecord(uint256)":"db95e75c","getFailedDeposits(uint256,uint256)":"f0ed9800","getRoleAdmin(bytes32)":"248a9ca3","getUserDepositIds(address)":"d4e4487d","grantRole(bytes32,address)":"2f2ff15d","hasRole(bytes32,address)":"91d14854","initialize(address)":"c4d66de8","isComposeMsgSender((uint32,bytes32,uint64),bytes,address)":"82413eac","isVaultSupported(address)":"240825cb","lzCompose(address,bytes32,bytes,address,bytes)":"d0a10260","lzReceive((uint32,bytes32,uint64),bytes32,bytes,address,bytes)":"13137d65","manageBatch(address[],bytes[],uint256[])":"7c9e6cfd","manualRefund(uint256)":"8c75b1c7","nextNonce(uint32,bytes32)":"7d25a05e","oAppVersion()":"17442b70","owner()":"8da5cb5b","pause()":"8456cb59","paused()":"5c975abb","peers(uint32)":"bb0b6a53","processDeposit(uint256,address,address,address,uint256,(address,uint256,bytes)[])":"bde0c7ff","proxiableUUID()":"52d1902d","quoteRefundFee(uint256)":"9b3fa759","removeOperator(address)":"ac8a584a","renounceOwnership()":"715018a6","renounceRole(bytes32,address)":"36568abe","revokeRole(bytes32,address)":"d547741f","safeAttemptRefund(uint256)":"8d916c22","setDelegate(address)":"ca5eb5e1","setEnforcedOptions((uint32,uint16,bytes)[])":"b98bd070","setOperator(address)":"b3ab15fb","setPeer(uint32,bytes32)":"3400288b","setSupportedOFT(address,address,bool)":"e5b319a3","setSupportedVault(address,bool)":"b7ac6192","supportedOFTs(address)":"2548af6c","supportedVaults(address)":"b71b73c3","supportsInterface(bytes4)":"01ffc9a7","tokenToOFT(address)":"b297c991","totalDeposits()":"7d882097","transferOwnership(address)":"f2fde38b","unpause()":"3f4ba83a","upgradeToAndCall(address,bytes)":"4f1ef286","userDepositIds(address,uint256)":"d6236628"},"storageLayout":{"storage":[{"astId":48989,"contract":"src/MultichainDepositAdapter.sol:MultichainDepositAdapter","label":"totalDeposits","offset":0,"slot":"0","type":"t_uint256"},{"astId":48994,"contract":"src/MultichainDepositAdapter.sol:MultichainDepositAdapter","label":"depositRecords","offset":0,"slot":"1","type":"t_mapping(t_uint256,t_struct(DepositRecord)51363_storage)"},{"astId":48999,"contract":"src/MultichainDepositAdapter.sol:MultichainDepositAdapter","label":"userDepositIds","offset":0,"slot":"2","type":"t_mapping(t_address,t_array(t_uint256)dyn_storage)"},{"astId":49003,"contract":"src/MultichainDepositAdapter.sol:MultichainDepositAdapter","label":"supportedVaults","offset":0,"slot":"3","type":"t_mapping(t_address,t_bool)"},{"astId":49007,"contract":"src/MultichainDepositAdapter.sol:MultichainDepositAdapter","label":"tokenToOFT","offset":0,"slot":"4","type":"t_mapping(t_address,t_address)"},{"astId":49011,"contract":"src/MultichainDepositAdapter.sol:MultichainDepositAdapter","label":"supportedOFTs","offset":0,"slot":"5","type":"t_mapping(t_address,t_bool)"},{"astId":50458,"contract":"src/MultichainDepositAdapter.sol:MultichainDepositAdapter","label":"__gap","offset":0,"slot":"6","type":"t_array(t_uint256)50_storage"}],"types":{"t_address":{"encoding":"inplace","label":"address","numberOfBytes":"20"},"t_array(t_uint256)50_storage":{"encoding":"inplace","label":"uint256[50]","numberOfBytes":"1600","base":"t_uint256"},"t_array(t_uint256)dyn_storage":{"encoding":"dynamic_array","label":"uint256[]","numberOfBytes":"32","base":"t_uint256"},"t_bool":{"encoding":"inplace","label":"bool","numberOfBytes":"1"},"t_bytes32":{"encoding":"inplace","label":"bytes32","numberOfBytes":"32"},"t_bytes_storage":{"encoding":"bytes","label":"bytes","numberOfBytes":"32"},"t_enum(DepositStatus)51340":{"encoding":"inplace","label":"enum IMultichainDepositAdapter.DepositStatus","numberOfBytes":"1"},"t_mapping(t_address,t_address)":{"encoding":"mapping","key":"t_address","label":"mapping(address => address)","numberOfBytes":"32","value":"t_address"},"t_mapping(t_address,t_array(t_uint256)dyn_storage)":{"encoding":"mapping","key":"t_address","label":"mapping(address => uint256[])","numberOfBytes":"32","value":"t_array(t_uint256)dyn_storage"},"t_mapping(t_address,t_bool)":{"encoding":"mapping","key":"t_address","label":"mapping(address => bool)","numberOfBytes":"32","value":"t_bool"},"t_mapping(t_uint256,t_struct(DepositRecord)51363_storage)":{"encoding":"mapping","key":"t_uint256","label":"mapping(uint256 => struct IMultichainDepositAdapter.DepositRecord)","numberOfBytes":"32","value":"t_struct(DepositRecord)51363_storage"},"t_struct(DepositRecord)51363_storage":{"encoding":"inplace","label":"struct IMultichainDepositAdapter.DepositRecord","numberOfBytes":"288","members":[{"astId":51343,"contract":"src/MultichainDepositAdapter.sol:MultichainDepositAdapter","label":"user","offset":0,"slot":"0","type":"t_address"},{"astId":51345,"contract":"src/MultichainDepositAdapter.sol:MultichainDepositAdapter","label":"srcEid","offset":20,"slot":"0","type":"t_uint32"},{"astId":51347,"contract":"src/MultichainDepositAdapter.sol:MultichainDepositAdapter","label":"tokenIn","offset":0,"slot":"1","type":"t_address"},{"astId":51349,"contract":"src/MultichainDepositAdapter.sol:MultichainDepositAdapter","label":"amountIn","offset":0,"slot":"2","type":"t_uint256"},{"astId":51351,"contract":"src/MultichainDepositAdapter.sol:MultichainDepositAdapter","label":"vault","offset":0,"slot":"3","type":"t_address"},{"astId":51353,"contract":"src/MultichainDepositAdapter.sol:MultichainDepositAdapter","label":"sharesReceived","offset":0,"slot":"4","type":"t_uint256"},{"astId":51355,"contract":"src/MultichainDepositAdapter.sol:MultichainDepositAdapter","label":"timestamp","offset":0,"slot":"5","type":"t_uint256"},{"astId":51358,"contract":"src/MultichainDepositAdapter.sol:MultichainDepositAdapter","label":"status","offset":0,"slot":"6","type":"t_enum(DepositStatus)51340"},{"astId":51360,"contract":"src/MultichainDepositAdapter.sol:MultichainDepositAdapter","label":"guid","offset":0,"slot":"7","type":"t_bytes32"},{"astId":51362,"contract":"src/MultichainDepositAdapter.sol:MultichainDepositAdapter","label":"failureReason","offset":0,"slot":"8","type":"t_bytes_storage"}]},"t_uint256":{"encoding":"inplace","label":"uint256","numberOfBytes":"32"},"t_uint32":{"encoding":"inplace","label":"uint32","numberOfBytes":"4"}}},"id":75}