{"abi":[{"type":"constructor","inputs":[{"name":"initialOwner","type":"address","internalType":"address"}],"stateMutability":"nonpayable"},{"type":"function","name":"UPGRADE_INTERFACE_VERSION","inputs":[],"outputs":[{"name":"","type":"string","internalType":"string"}],"stateMutability":"view"},{"type":"function","name":"owner","inputs":[],"outputs":[{"name":"","type":"address","internalType":"address"}],"stateMutability":"view"},{"type":"function","name":"renounceOwnership","inputs":[],"outputs":[],"stateMutability":"nonpayable"},{"type":"function","name":"transferOwnership","inputs":[{"name":"newOwner","type":"address","internalType":"address"}],"outputs":[],"stateMutability":"nonpayable"},{"type":"function","name":"upgradeAndCall","inputs":[{"name":"proxy","type":"address","internalType":"contract ITransparentUpgradeableProxy"},{"name":"implementation","type":"address","internalType":"address"},{"name":"data","type":"bytes","internalType":"bytes"}],"outputs":[],"stateMutability":"payable"},{"type":"event","name":"OwnershipTransferred","inputs":[{"name":"previousOwner","type":"address","indexed":true,"internalType":"address"},{"name":"newOwner","type":"address","indexed":true,"internalType":"address"}],"anonymous":false},{"type":"error","name":"OwnableInvalidOwner","inputs":[{"name":"owner","type":"address","internalType":"address"}]},{"type":"error","name":"OwnableUnauthorizedAccount","inputs":[{"name":"account","type":"address","internalType":"address"}]}],"bytecode":{"object":"0x6080604052348015600e575f5ffd5b50604051610573380380610573833981016040819052602b9160b4565b806001600160a01b038116605857604051631e4fbdf760e01b81525f600482015260240160405180910390fd5b605f816065565b505060df565b5f80546001600160a01b038381166001600160a01b0319831681178455604051919092169283917f8be0079c531659141344cd1fd0a4f28419497f9722a3daafe3b4186f6b6457e09190a35050565b5f6020828403121560c3575f5ffd5b81516001600160a01b038116811460d8575f5ffd5b9392505050565b610487806100ec5f395ff3fe608060405260043610610058575f3560e01c80639623609d116100415780639623609d1461009d578063ad3cb1cc146100b0578063f2fde38b14610105575f5ffd5b8063715018a61461005c5780638da5cb5b14610072575b5f5ffd5b348015610067575f5ffd5b50610070610124565b005b34801561007d575f5ffd5b505f546040516001600160a01b0390911681526020015b60405180910390f35b6100706100ab366004610303565b610137565b3480156100bb575f5ffd5b506100f86040518060400160405280600581526020017f352e302e3000000000000000000000000000000000000000000000000000000081525081565b604051610094919061041d565b348015610110575f5ffd5b5061007061011f366004610436565b6101bb565b61012c610216565b6101355f61025b565b565b61013f610216565b6040517f4f1ef2860000000000000000000000000000000000000000000000000000000081526001600160a01b03841690634f1ef2869034906101889086908690600401610451565b5f604051808303818588803b15801561019f575f5ffd5b505af11580156101b1573d5f5f3e3d5ffd5b5050505050505050565b6101c3610216565b6001600160a01b03811661020a576040517f1e4fbdf70000000000000000000000000000000000000000000000000000000081525f60048201526024015b60405180910390fd5b6102138161025b565b50565b5f546001600160a01b03163314610135576040517f118cdaa7000000000000000000000000000000000000000000000000000000008152336004820152602401610201565b5f80546001600160a01b038381167fffffffffffffffffffffffff0000000000000000000000000000000000000000831681178455604051919092169283917f8be0079c531659141344cd1fd0a4f28419497f9722a3daafe3b4186f6b6457e09190a35050565b6001600160a01b0381168114610213575f5ffd5b7f4e487b71000000000000000000000000000000000000000000000000000000005f52604160045260245ffd5b5f5f5f60608486031215610315575f5ffd5b8335610320816102c2565b92506020840135610330816102c2565b9150604084013567ffffffffffffffff81111561034b575f5ffd5b8401601f8101861361035b575f5ffd5b803567ffffffffffffffff811115610375576103756102d6565b604051601f8201601f19908116603f0116810167ffffffffffffffff811182821017156103a4576103a46102d6565b6040528181528282016020018810156103bb575f5ffd5b816020840160208301375f602083830101528093505050509250925092565b5f81518084525f5b818110156103fe576020818501810151868301820152016103e2565b505f602082860101526020601f19601f83011685010191505092915050565b602081525f61042f60208301846103da565b9392505050565b5f60208284031215610446575f5ffd5b813561042f816102c2565b6001600160a01b0383168152604060208201525f61047260408301846103da565b94935050505056fea164736f6c634300081c000a","linkReferences":{}},"methodIdentifiers":{"UPGRADE_INTERFACE_VERSION()":"ad3cb1cc","owner()":"8da5cb5b","renounceOwnership()":"715018a6","transferOwnership(address)":"f2fde38b","upgradeAndCall(address,address,bytes)":"9623609d"},"storageLayout":{"storage":[{"astId":1865,"contract":"node_modules/@openzeppelin/contracts/proxy/transparent/ProxyAdmin.sol:ProxyAdmin","label":"_owner","offset":0,"slot":"0","type":"t_address"}],"types":{"t_address":{"encoding":"inplace","label":"address","numberOfBytes":"20"}}},"id":16}