{"abi":[{"type":"constructor","inputs":[{"name":"initialOwner","type":"address","internalType":"address"}],"stateMutability":"nonpayable"},{"type":"function","name":"UPGRADE_INTERFACE_VERSION","inputs":[],"outputs":[{"name":"","type":"string","internalType":"string"}],"stateMutability":"view"},{"type":"function","name":"owner","inputs":[],"outputs":[{"name":"","type":"address","internalType":"address"}],"stateMutability":"view"},{"type":"function","name":"renounceOwnership","inputs":[],"outputs":[],"stateMutability":"nonpayable"},{"type":"function","name":"transferOwnership","inputs":[{"name":"newOwner","type":"address","internalType":"address"}],"outputs":[],"stateMutability":"nonpayable"},{"type":"function","name":"upgradeAndCall","inputs":[{"name":"proxy","type":"address","internalType":"contract ITransparentUpgradeableProxy"},{"name":"implementation","type":"address","internalType":"address"},{"name":"data","type":"bytes","internalType":"bytes"}],"outputs":[],"stateMutability":"payable"},{"type":"event","name":"OwnershipTransferred","inputs":[{"name":"previousOwner","type":"address","indexed":true,"internalType":"address"},{"name":"newOwner","type":"address","indexed":true,"internalType":"address"}],"anonymous":false},{"type":"error","name":"OwnableInvalidOwner","inputs":[{"name":"owner","type":"address","internalType":"address"}]},{"type":"error","name":"OwnableUnauthorizedAccount","inputs":[{"name":"account","type":"address","internalType":"address"}]}],"bytecode":{"object":"0x60803460b857601f6104c238819003918201601f19168301916001600160401b0383118484101760bc5780849260209460405283398101031260b857516001600160a01b0381169081900360b857801560a5575f80546001600160a01b031981168317825560405192916001600160a01b03909116907f8be0079c531659141344cd1fd0a4f28419497f9722a3daafe3b4186f6b6457e09080a36103f190816100d18239f35b631e4fbdf760e01b5f525f60045260245ffd5b5f80fd5b634e487b7160e01b5f52604160045260245ffdfe60806040526004361015610011575f80fd5b5f5f3560e01c8063715018a6146102e05780638da5cb5b146102bb5780639623609d14610168578063ad3cb1cc146101035763f2fde38b14610051575f80fd5b34610100576020366003190112610100576004356001600160a01b0381168091036100fe5761007e6103a5565b80156100d2576001600160a01b0382548273ffffffffffffffffffffffffffffffffffffffff198216178455167f8be0079c531659141344cd1fd0a4f28419497f9722a3daafe3b4186f6b6457e08380a380f35b6024827f1e4fbdf700000000000000000000000000000000000000000000000000000000815280600452fd5b505b80fd5b503461010057806003193601126101005750610164604051610126604082610344565b600581527f352e302e300000000000000000000000000000000000000000000000000000006020820152604051918291602083526020830190610366565b0390f35b50606036600319011261028a576004356001600160a01b03811680910361028a576024356001600160a01b03811680910361028a5760443567ffffffffffffffff811161028a573660238201121561028a57806004013567ffffffffffffffff811161028e57604051916101e6601f8301601f191660200184610344565b818352366024838301011161028a57815f92602460209301838601378301015261020e6103a5565b823b1561028a5761025d925f926040518095819482937f4f1ef2860000000000000000000000000000000000000000000000000000000084526004840152604060248401526044830190610366565b039134905af1801561027f57610271575080f35b61027d91505f90610344565b005b6040513d5f823e3d90fd5b5f80fd5b7f4e487b71000000000000000000000000000000000000000000000000000000005f52604160045260245ffd5b3461028a575f36600319011261028a5760206001600160a01b035f5416604051908152f35b3461028a575f36600319011261028a576102f86103a5565b5f6001600160a01b03815473ffffffffffffffffffffffffffffffffffffffff1981168355167f8be0079c531659141344cd1fd0a4f28419497f9722a3daafe3b4186f6b6457e08280a3005b90601f8019910116810190811067ffffffffffffffff82111761028e57604052565b91908251928382525f5b848110610390575050825f602080949584010152601f8019910116010190565b80602080928401015182828601015201610370565b6001600160a01b035f541633036103b857565b7f118cdaa7000000000000000000000000000000000000000000000000000000005f523360045260245ffdfea164736f6c634300081c000a","linkReferences":{}},"methodIdentifiers":{"UPGRADE_INTERFACE_VERSION()":"ad3cb1cc","owner()":"8da5cb5b","renounceOwnership()":"715018a6","transferOwnership(address)":"f2fde38b","upgradeAndCall(address,address,bytes)":"9623609d"},"storageLayout":{"storage":[{"astId":7408,"contract":"node_modules/@openzeppelin/contracts/proxy/transparent/ProxyAdmin.sol:ProxyAdmin","label":"_owner","offset":0,"slot":"0","type":"t_address"}],"types":{"t_address":{"encoding":"inplace","label":"address","numberOfBytes":"20"}}},"id":57}