{"abi":[{"type":"constructor","inputs":[{"name":"_owner","type":"address","internalType":"address"},{"name":"_authority","type":"address","internalType":"contract Authority"}],"stateMutability":"nonpayable"},{"type":"function","name":"authority","inputs":[],"outputs":[{"name":"","type":"address","internalType":"contract Authority"}],"stateMutability":"view"},{"type":"function","name":"canCall","inputs":[{"name":"user","type":"address","internalType":"address"},{"name":"target","type":"address","internalType":"address"},{"name":"functionSig","type":"bytes4","internalType":"bytes4"}],"outputs":[{"name":"","type":"bool","internalType":"bool"}],"stateMutability":"view"},{"type":"function","name":"doesRoleHaveCapability","inputs":[{"name":"role","type":"uint8","internalType":"uint8"},{"name":"target","type":"address","internalType":"address"},{"name":"functionSig","type":"bytes4","internalType":"bytes4"}],"outputs":[{"name":"","type":"bool","internalType":"bool"}],"stateMutability":"view"},{"type":"function","name":"doesUserHaveRole","inputs":[{"name":"user","type":"address","internalType":"address"},{"name":"role","type":"uint8","internalType":"uint8"}],"outputs":[{"name":"","type":"bool","internalType":"bool"}],"stateMutability":"view"},{"type":"function","name":"getRolesWithCapability","inputs":[{"name":"","type":"address","internalType":"address"},{"name":"","type":"bytes4","internalType":"bytes4"}],"outputs":[{"name":"","type":"bytes32","internalType":"bytes32"}],"stateMutability":"view"},{"type":"function","name":"getUserRoles","inputs":[{"name":"","type":"address","internalType":"address"}],"outputs":[{"name":"","type":"bytes32","internalType":"bytes32"}],"stateMutability":"view"},{"type":"function","name":"isCapabilityPublic","inputs":[{"name":"","type":"address","internalType":"address"},{"name":"","type":"bytes4","internalType":"bytes4"}],"outputs":[{"name":"","type":"bool","internalType":"bool"}],"stateMutability":"view"},{"type":"function","name":"owner","inputs":[],"outputs":[{"name":"","type":"address","internalType":"address"}],"stateMutability":"view"},{"type":"function","name":"setAuthority","inputs":[{"name":"newAuthority","type":"address","internalType":"contract Authority"}],"outputs":[],"stateMutability":"nonpayable"},{"type":"function","name":"setPublicCapability","inputs":[{"name":"target","type":"address","internalType":"address"},{"name":"functionSig","type":"bytes4","internalType":"bytes4"},{"name":"enabled","type":"bool","internalType":"bool"}],"outputs":[],"stateMutability":"nonpayable"},{"type":"function","name":"setRoleCapability","inputs":[{"name":"role","type":"uint8","internalType":"uint8"},{"name":"target","type":"address","internalType":"address"},{"name":"functionSig","type":"bytes4","internalType":"bytes4"},{"name":"enabled","type":"bool","internalType":"bool"}],"outputs":[],"stateMutability":"nonpayable"},{"type":"function","name":"setUserRole","inputs":[{"name":"user","type":"address","internalType":"address"},{"name":"role","type":"uint8","internalType":"uint8"},{"name":"enabled","type":"bool","internalType":"bool"}],"outputs":[],"stateMutability":"nonpayable"},{"type":"function","name":"transferOwnership","inputs":[{"name":"newOwner","type":"address","internalType":"address"}],"outputs":[],"stateMutability":"nonpayable"},{"type":"event","name":"AuthorityUpdated","inputs":[{"name":"user","type":"address","indexed":true,"internalType":"address"},{"name":"newAuthority","type":"address","indexed":true,"internalType":"contract Authority"}],"anonymous":false},{"type":"event","name":"OwnershipTransferred","inputs":[{"name":"user","type":"address","indexed":true,"internalType":"address"},{"name":"newOwner","type":"address","indexed":true,"internalType":"address"}],"anonymous":false},{"type":"event","name":"PublicCapabilityUpdated","inputs":[{"name":"target","type":"address","indexed":true,"internalType":"address"},{"name":"functionSig","type":"bytes4","indexed":true,"internalType":"bytes4"},{"name":"enabled","type":"bool","indexed":false,"internalType":"bool"}],"anonymous":false},{"type":"event","name":"RoleCapabilityUpdated","inputs":[{"name":"role","type":"uint8","indexed":true,"internalType":"uint8"},{"name":"target","type":"address","indexed":true,"internalType":"address"},{"name":"functionSig","type":"bytes4","indexed":true,"internalType":"bytes4"},{"name":"enabled","type":"bool","indexed":false,"internalType":"bool"}],"anonymous":false},{"type":"event","name":"UserRoleUpdated","inputs":[{"name":"user","type":"address","indexed":true,"internalType":"address"},{"name":"role","type":"uint8","indexed":true,"internalType":"uint8"},{"name":"enabled","type":"bool","indexed":false,"internalType":"bool"}],"anonymous":false}],"bytecode":{"object":"0x60803460dd57601f610a2638819003918201601f19168301916001600160401b0383118484101760e157808492604094855283398101031260dd5780516001600160a01b038116919082900360dd57602001516001600160a01b0381169081900360dd575f80546001600160a01b0319908116841782556001805490911683179055604051929033907f8be0079c531659141344cd1fd0a4f28419497f9722a3daafe3b4186f6b6457e09080a3337fa3396fd7f6e0a21b50e5089d2da70d5ac0a3bbbd1f617a93f134b763899801985f80a361093090816100f68239f35b5f80fd5b634e487b7160e01b5f52604160045260245ffdfe6080806040526004361015610012575f80fd5b5f35908160e01c90816306a36aee146106e9575080632f47571f1461068f57806367aff484146105d45780637917b7941461057f5780637a9e5e4b146104625780637d40583d1461037f5780638da5cb5b1461035a578063b4bad06a146102f5578063b70096131461024e578063bf7e214f14610228578063c6b0263e1461017e578063ea7ca276146101345763f2fde38b146100ad575f80fd5b34610130576020366003190112610130576001600160a01b03906100eb6100e66001600160e01b03196100de61071d565b931633610872565b6107a6565b168073ffffffffffffffffffffffffffffffffffffffff195f5416175f55337f8be0079c531659141344cd1fd0a4f28419497f9722a3daafe3b4186f6b6457e05f80a3005b5f80fd5b34610130576040366003190112610130576020600161015161071d565b6001600160a01b03610161610777565b91165f526002835260ff60405f205491161c161515604051908152f35b50346101305760603660031901126101305761019861071d565b907f950a343f5d10445e82a71036d3f4fb3016180a25805141932543b83e2078a93e60206001600160a01b036101cc610749565b946101ec6100e66001600160e01b03196101e4610797565b971633610872565b1692835f52600382526001600160e01b031960405f20951694855f52825260405f209015159060ff1981541660ff8316179055604051908152a3005b34610130575f3660031901126101305760206001600160a01b0360015416604051908152f35b3461013057606036600319011261013057602061026961071d565b610271610733565b6001600160a01b03610281610760565b911690815f52600384526001600160e01b031960405f20911690815f52845260ff60405f2054169283156102bd575b5050506040519015158152f35b6001600160a01b0391929350165f526002835260405f2054915f526004835260405f20905f52825260405f20541615158280806102b0565b346101305760603660031901126101305760206001610312610787565b61031a610733565b6001600160a01b0361032a610760565b91165f52600484526001600160e01b031960405f2091165f52835260ff60405f205491161c161515604051908152f35b34610130575f3660031901126101305760206001600160a01b035f5416604051908152f35b503461013057608036600319011261013057610399610787565b6103a1610733565b916103aa610760565b906064359081151592838303610130576001600160a01b036001600160e01b031960ff927fa52ea92e6e955aa8ac66420b86350f7139959adfcc7e6a14eee1bd116d09860e956104016100e6846020981633610872565b15610439578289165f526004855260405f208282165f52855260405f206001858a161b81541790555b604051968752169616941692a4005b8289165f526004855260405f208282165f52855260405f206001858a161b19815416905561042a565b503461013057602036600319011261013057600435906001600160a01b038216809203610130576001600160a01b035f541633149081156104ea575b5015610130578073ffffffffffffffffffffffffffffffffffffffff196001541617600155337fa3396fd7f6e0a21b50e5089d2da70d5ac0a3bbbd1f617a93f134b763899801985f80a3005b60015460405163b700961360e01b81523360048201523060248201526001600160e01b0319929092166044830152909150602090829060649082906001600160a01b03165afa908115610574575f91610545575b505f61049e565b610567915060203d60201161056d575b61055f818361080b565b81019061085a565b5f61053e565b503d610555565b6040513d5f823e3d90fd5b346101305760403660031901126101305761059861071d565b6001600160a01b036105a8610749565b91165f5260046020526001600160e01b031960405f2091165f52602052602060405f2054604051908152f35b5034610130576060366003190112610130576105ee61071d565b907f4c9bdd0c8e073eb5eda2250b18d8e5121ff27b62064fbeeeed4869bb99bc5bf260206001600160a01b0360ff610624610777565b6106436100e66001600160e01b031961063b610797565b981633610872565b8515610671578287165f526002845260405f2060018383161b81541790555b604051951515865216941692a3005b8287165f526002845260405f2060018383161b198154169055610662565b34610130576040366003190112610130576106a861071d565b6001600160a01b036106b8610749565b91165f5260036020526001600160e01b031960405f2091165f52602052602060ff60405f2054166040519015158152f35b34610130576020366003190112610130576020906001600160a01b0361070d61071d565b165f526002825260405f20548152f35b600435906001600160a01b038216820361013057565b602435906001600160a01b038216820361013057565b602435906001600160e01b03198216820361013057565b604435906001600160e01b03198216820361013057565b6024359060ff8216820361013057565b6004359060ff8216820361013057565b60443590811515820361013057565b156107ad57565b60646040517f08c379a000000000000000000000000000000000000000000000000000000000815260206004820152600c60248201527f554e415554484f52495a454400000000000000000000000000000000000000006044820152fd5b90601f8019910116810190811067ffffffffffffffff82111761082d57604052565b7f4e487b71000000000000000000000000000000000000000000000000000000005f52604160045260245ffd5b90816020910312610130575180151581036101305790565b6001600160a01b03600154169182151592836108a9575b50508115610895575090565b90506001600160a01b03805f541691161490565b60405163b700961360e01b81526001600160a01b03841660048201523060248201526001600160e01b031992909216604483015291925090602090829060649082905afa908115610574575f91610904575b50905f80610889565b61091d915060203d60201161056d5761055f818361080b565b5f6108fb56fea164736f6c634300081c000a","linkReferences":{}},"methodIdentifiers":{"authority()":"bf7e214f","canCall(address,address,bytes4)":"b7009613","doesRoleHaveCapability(uint8,address,bytes4)":"b4bad06a","doesUserHaveRole(address,uint8)":"ea7ca276","getRolesWithCapability(address,bytes4)":"7917b794","getUserRoles(address)":"06a36aee","isCapabilityPublic(address,bytes4)":"2f47571f","owner()":"8da5cb5b","setAuthority(address)":"7a9e5e4b","setPublicCapability(address,bytes4,bool)":"c6b0263e","setRoleCapability(uint8,address,bytes4,bool)":"7d40583d","setUserRole(address,uint8,bool)":"67aff484","transferOwnership(address)":"f2fde38b"},"storageLayout":{"storage":[{"astId":51713,"contract":"tests/mocks/MockAuthority.sol:MockAuthority","label":"owner","offset":0,"slot":"0","type":"t_address"},{"astId":51716,"contract":"tests/mocks/MockAuthority.sol:MockAuthority","label":"authority","offset":0,"slot":"1","type":"t_contract(Authority)51867"},{"astId":51920,"contract":"tests/mocks/MockAuthority.sol:MockAuthority","label":"getUserRoles","offset":0,"slot":"2","type":"t_mapping(t_address,t_bytes32)"},{"astId":51926,"contract":"tests/mocks/MockAuthority.sol:MockAuthority","label":"isCapabilityPublic","offset":0,"slot":"3","type":"t_mapping(t_address,t_mapping(t_bytes4,t_bool))"},{"astId":51932,"contract":"tests/mocks/MockAuthority.sol:MockAuthority","label":"getRolesWithCapability","offset":0,"slot":"4","type":"t_mapping(t_address,t_mapping(t_bytes4,t_bytes32))"}],"types":{"t_address":{"encoding":"inplace","label":"address","numberOfBytes":"20"},"t_bool":{"encoding":"inplace","label":"bool","numberOfBytes":"1"},"t_bytes32":{"encoding":"inplace","label":"bytes32","numberOfBytes":"32"},"t_bytes4":{"encoding":"inplace","label":"bytes4","numberOfBytes":"4"},"t_contract(Authority)51867":{"encoding":"inplace","label":"contract Authority","numberOfBytes":"20"},"t_mapping(t_address,t_bytes32)":{"encoding":"mapping","key":"t_address","label":"mapping(address => bytes32)","numberOfBytes":"32","value":"t_bytes32"},"t_mapping(t_address,t_mapping(t_bytes4,t_bool))":{"encoding":"mapping","key":"t_address","label":"mapping(address => mapping(bytes4 => bool))","numberOfBytes":"32","value":"t_mapping(t_bytes4,t_bool)"},"t_mapping(t_address,t_mapping(t_bytes4,t_bytes32))":{"encoding":"mapping","key":"t_address","label":"mapping(address => mapping(bytes4 => bytes32))","numberOfBytes":"32","value":"t_mapping(t_bytes4,t_bytes32)"},"t_mapping(t_bytes4,t_bool)":{"encoding":"mapping","key":"t_bytes4","label":"mapping(bytes4 => bool)","numberOfBytes":"32","value":"t_bool"},"t_mapping(t_bytes4,t_bytes32)":{"encoding":"mapping","key":"t_bytes4","label":"mapping(bytes4 => bytes32)","numberOfBytes":"32","value":"t_bytes32"}}},"id":107}