{"abi":[{"type":"constructor","inputs":[{"name":"_owner","type":"address","internalType":"address"},{"name":"_authority","type":"address","internalType":"contract Authority"}],"stateMutability":"nonpayable"},{"type":"function","name":"authority","inputs":[],"outputs":[{"name":"","type":"address","internalType":"contract Authority"}],"stateMutability":"view"},{"type":"function","name":"canCall","inputs":[{"name":"user","type":"address","internalType":"address"},{"name":"target","type":"address","internalType":"address"},{"name":"functionSig","type":"bytes4","internalType":"bytes4"}],"outputs":[{"name":"","type":"bool","internalType":"bool"}],"stateMutability":"view"},{"type":"function","name":"doesRoleHaveCapability","inputs":[{"name":"role","type":"uint8","internalType":"uint8"},{"name":"target","type":"address","internalType":"address"},{"name":"functionSig","type":"bytes4","internalType":"bytes4"}],"outputs":[{"name":"","type":"bool","internalType":"bool"}],"stateMutability":"view"},{"type":"function","name":"doesUserHaveRole","inputs":[{"name":"user","type":"address","internalType":"address"},{"name":"role","type":"uint8","internalType":"uint8"}],"outputs":[{"name":"","type":"bool","internalType":"bool"}],"stateMutability":"view"},{"type":"function","name":"getRolesWithCapability","inputs":[{"name":"","type":"address","internalType":"address"},{"name":"","type":"bytes4","internalType":"bytes4"}],"outputs":[{"name":"","type":"bytes32","internalType":"bytes32"}],"stateMutability":"view"},{"type":"function","name":"getUserRoles","inputs":[{"name":"","type":"address","internalType":"address"}],"outputs":[{"name":"","type":"bytes32","internalType":"bytes32"}],"stateMutability":"view"},{"type":"function","name":"isCapabilityPublic","inputs":[{"name":"","type":"address","internalType":"address"},{"name":"","type":"bytes4","internalType":"bytes4"}],"outputs":[{"name":"","type":"bool","internalType":"bool"}],"stateMutability":"view"},{"type":"function","name":"owner","inputs":[],"outputs":[{"name":"","type":"address","internalType":"address"}],"stateMutability":"view"},{"type":"function","name":"setAuthority","inputs":[{"name":"newAuthority","type":"address","internalType":"contract Authority"}],"outputs":[],"stateMutability":"nonpayable"},{"type":"function","name":"setPublicCapability","inputs":[{"name":"target","type":"address","internalType":"address"},{"name":"functionSig","type":"bytes4","internalType":"bytes4"},{"name":"enabled","type":"bool","internalType":"bool"}],"outputs":[],"stateMutability":"nonpayable"},{"type":"function","name":"setRoleCapability","inputs":[{"name":"role","type":"uint8","internalType":"uint8"},{"name":"target","type":"address","internalType":"address"},{"name":"functionSig","type":"bytes4","internalType":"bytes4"},{"name":"enabled","type":"bool","internalType":"bool"}],"outputs":[],"stateMutability":"nonpayable"},{"type":"function","name":"setUserRole","inputs":[{"name":"user","type":"address","internalType":"address"},{"name":"role","type":"uint8","internalType":"uint8"},{"name":"enabled","type":"bool","internalType":"bool"}],"outputs":[],"stateMutability":"nonpayable"},{"type":"function","name":"transferOwnership","inputs":[{"name":"newOwner","type":"address","internalType":"address"}],"outputs":[],"stateMutability":"nonpayable"},{"type":"event","name":"AuthorityUpdated","inputs":[{"name":"user","type":"address","indexed":true,"internalType":"address"},{"name":"newAuthority","type":"address","indexed":true,"internalType":"contract Authority"}],"anonymous":false},{"type":"event","name":"OwnershipTransferred","inputs":[{"name":"user","type":"address","indexed":true,"internalType":"address"},{"name":"newOwner","type":"address","indexed":true,"internalType":"address"}],"anonymous":false},{"type":"event","name":"PublicCapabilityUpdated","inputs":[{"name":"target","type":"address","indexed":true,"internalType":"address"},{"name":"functionSig","type":"bytes4","indexed":true,"internalType":"bytes4"},{"name":"enabled","type":"bool","indexed":false,"internalType":"bool"}],"anonymous":false},{"type":"event","name":"RoleCapabilityUpdated","inputs":[{"name":"role","type":"uint8","indexed":true,"internalType":"uint8"},{"name":"target","type":"address","indexed":true,"internalType":"address"},{"name":"functionSig","type":"bytes4","indexed":true,"internalType":"bytes4"},{"name":"enabled","type":"bool","indexed":false,"internalType":"bool"}],"anonymous":false},{"type":"event","name":"UserRoleUpdated","inputs":[{"name":"user","type":"address","indexed":true,"internalType":"address"},{"name":"role","type":"uint8","indexed":true,"internalType":"uint8"},{"name":"enabled","type":"bool","indexed":false,"internalType":"bool"}],"anonymous":false}],"bytecode":{"object":"0x608060405234801561000f575f5ffd5b50604051610baa380380610baa83398101604081905261002e916100e3565b5f80546001600160a01b03199081166001600160a01b0385811691821784556001805490931690851617909155604051849284928492849233917f8be0079c531659141344cd1fd0a4f28419497f9722a3daafe3b4186f6b6457e09190a36040516001600160a01b0382169033907fa3396fd7f6e0a21b50e5089d2da70d5ac0a3bbbd1f617a93f134b76389980198905f90a350505050505061011b565b6001600160a01b03811681146100e0575f5ffd5b50565b5f5f604083850312156100f4575f5ffd5b82516100ff816100cc565b6020840151909250610110816100cc565b809150509250929050565b610a82806101285f395ff3fe608060405234801561000f575f5ffd5b50600436106100da575f3560e01c80638da5cb5b11610088578063bf7e214f11610063578063bf7e214f1461023b578063c6b0263e1461024e578063ea7ca27614610261578063f2fde38b14610297575f5ffd5b80638da5cb5b146101b2578063b4bad06a146101dc578063b700961314610228575f5ffd5b80637917b794116100b85780637917b794146101625780637a9e5e4b1461018c5780637d40583d1461019f575f5ffd5b806306a36aee146100de5780632f47571f1461011057806367aff4841461014d575b5f5ffd5b6100fd6100ec36600461087d565b60026020525f908152604090205481565b6040519081526020015b60405180910390f35b61013d61011e3660046108bb565b600360209081525f928352604080842090915290825290205460ff1681565b6040519015158152602001610107565b61016061015b36600461090b565b6102aa565b005b6100fd6101703660046108bb565b600460209081525f928352604080842090915290825290205481565b61016061019a36600461087d565b6103a0565b6101606101ad366004610951565b610494565b5f546101c4906001600160a01b031681565b6040516001600160a01b039091168152602001610107565b61013d6101ea3660046109a6565b6001600160a01b03919091165f9081526004602090815260408083206001600160e01b031990941683529290522054600160ff929092161c16151590565b61013d6102363660046109e8565b6105d0565b6001546101c4906001600160a01b031681565b61016061025c366004610a05565b61064d565b61013d61026f366004610a30565b6001600160a01b03919091165f90815260026020526040902054600160ff9092161c16151590565b6101606102a536600461087d565b61070b565b6102bf335f356001600160e01b0319166107b2565b6102ff5760405162461bcd60e51b815260206004820152600c60248201526b15539055551213d49256915160a21b60448201526064015b60405180910390fd5b801561032d576001600160a01b0383165f9081526002602052604090208054600160ff85161b179055610352565b6001600160a01b0383165f9081526002602052604090208054600160ff85161b191690555b8160ff16836001600160a01b03167f4c9bdd0c8e073eb5eda2250b18d8e5121ff27b62064fbeeeed4869bb99bc5bf283604051610393911515815260200190565b60405180910390a3505050565b5f546001600160a01b0316331480610434575060015460405163b700961360e01b81523360048201523060248201525f356001600160e01b03191660448201526001600160a01b039091169063b700961390606401602060405180830381865afa158015610410573d5f5f3e3d5ffd5b505050506040513d601f19601f820116820180604052508101906104349190610a5a565b61043c575f5ffd5b6001805473ffffffffffffffffffffffffffffffffffffffff19166001600160a01b03831690811790915560405133907fa3396fd7f6e0a21b50e5089d2da70d5ac0a3bbbd1f617a93f134b76389980198905f90a350565b6104a9335f356001600160e01b0319166107b2565b6104e45760405162461bcd60e51b815260206004820152600c60248201526b15539055551213d49256915160a21b60448201526064016102f6565b8015610527576001600160a01b0383165f9081526004602090815260408083206001600160e01b03198616845290915290208054600160ff87161b179055610561565b6001600160a01b0383165f9081526004602090815260408083206001600160e01b03198616845290915290208054600160ff87161b191690555b817bffffffffffffffffffffffffffffffffffffffffffffffffffffffff1916836001600160a01b03168560ff167fa52ea92e6e955aa8ac66420b86350f7139959adfcc7e6a14eee1bd116d09860e846040516105c2911515815260200190565b60405180910390a450505050565b6001600160a01b0382165f9081526003602090815260408083206001600160e01b03198516845290915281205460ff168061064557506001600160a01b038084165f9081526004602090815260408083206001600160e01b031987168452825280832054938816835260029091529020541615155b949350505050565b610662335f356001600160e01b0319166107b2565b61069d5760405162461bcd60e51b815260206004820152600c60248201526b15539055551213d49256915160a21b60448201526064016102f6565b6001600160a01b0383165f8181526003602090815260408083206001600160e01b0319871680855290835292819020805460ff191686151590811790915590519081529192917f950a343f5d10445e82a71036d3f4fb3016180a25805141932543b83e2078a93e9101610393565b610720335f356001600160e01b0319166107b2565b61075b5760405162461bcd60e51b815260206004820152600c60248201526b15539055551213d49256915160a21b60448201526064016102f6565b5f805473ffffffffffffffffffffffffffffffffffffffff19166001600160a01b0383169081178255604051909133917f8be0079c531659141344cd1fd0a4f28419497f9722a3daafe3b4186f6b6457e09190a350565b6001545f906001600160a01b03168015801590610848575060405163b700961360e01b81526001600160a01b0385811660048301523060248301526001600160e01b03198516604483015282169063b700961390606401602060405180830381865afa158015610824573d5f5f3e3d5ffd5b505050506040513d601f19601f820116820180604052508101906108489190610a5a565b8061064557505f546001600160a01b03858116911614949350505050565b6001600160a01b038116811461087a575f5ffd5b50565b5f6020828403121561088d575f5ffd5b813561089881610866565b9392505050565b80356001600160e01b0319811681146108b6575f5ffd5b919050565b5f5f604083850312156108cc575f5ffd5b82356108d781610866565b91506108e56020840161089f565b90509250929050565b803560ff811681146108b6575f5ffd5b801515811461087a575f5ffd5b5f5f5f6060848603121561091d575f5ffd5b833561092881610866565b9250610936602085016108ee565b91506040840135610946816108fe565b809150509250925092565b5f5f5f5f60808587031215610964575f5ffd5b61096d856108ee565b9350602085013561097d81610866565b925061098b6040860161089f565b9150606085013561099b816108fe565b939692955090935050565b5f5f5f606084860312156109b8575f5ffd5b6109c1846108ee565b925060208401356109d181610866565b91506109df6040850161089f565b90509250925092565b5f5f5f606084860312156109fa575f5ffd5b83356109c181610866565b5f5f5f60608486031215610a17575f5ffd5b8335610a2281610866565b92506109366020850161089f565b5f5f60408385031215610a41575f5ffd5b8235610a4c81610866565b91506108e5602084016108ee565b5f60208284031215610a6a575f5ffd5b8151610898816108fe56fea164736f6c634300081c000a","linkReferences":{}},"methodIdentifiers":{"authority()":"bf7e214f","canCall(address,address,bytes4)":"b7009613","doesRoleHaveCapability(uint8,address,bytes4)":"b4bad06a","doesUserHaveRole(address,uint8)":"ea7ca276","getRolesWithCapability(address,bytes4)":"7917b794","getUserRoles(address)":"06a36aee","isCapabilityPublic(address,bytes4)":"2f47571f","owner()":"8da5cb5b","setAuthority(address)":"7a9e5e4b","setPublicCapability(address,bytes4,bool)":"c6b0263e","setRoleCapability(uint8,address,bytes4,bool)":"7d40583d","setUserRole(address,uint8,bool)":"67aff484","transferOwnership(address)":"f2fde38b"},"storageLayout":{"storage":[{"astId":48359,"contract":"tests/mocks/MockAuthority.sol:MockAuthority","label":"owner","offset":0,"slot":"0","type":"t_address"},{"astId":48362,"contract":"tests/mocks/MockAuthority.sol:MockAuthority","label":"authority","offset":0,"slot":"1","type":"t_contract(Authority)48513"},{"astId":48566,"contract":"tests/mocks/MockAuthority.sol:MockAuthority","label":"getUserRoles","offset":0,"slot":"2","type":"t_mapping(t_address,t_bytes32)"},{"astId":48572,"contract":"tests/mocks/MockAuthority.sol:MockAuthority","label":"isCapabilityPublic","offset":0,"slot":"3","type":"t_mapping(t_address,t_mapping(t_bytes4,t_bool))"},{"astId":48578,"contract":"tests/mocks/MockAuthority.sol:MockAuthority","label":"getRolesWithCapability","offset":0,"slot":"4","type":"t_mapping(t_address,t_mapping(t_bytes4,t_bytes32))"}],"types":{"t_address":{"encoding":"inplace","label":"address","numberOfBytes":"20"},"t_bool":{"encoding":"inplace","label":"bool","numberOfBytes":"1"},"t_bytes32":{"encoding":"inplace","label":"bytes32","numberOfBytes":"32"},"t_bytes4":{"encoding":"inplace","label":"bytes4","numberOfBytes":"4"},"t_contract(Authority)48513":{"encoding":"inplace","label":"contract Authority","numberOfBytes":"20"},"t_mapping(t_address,t_bytes32)":{"encoding":"mapping","key":"t_address","label":"mapping(address => bytes32)","numberOfBytes":"32","value":"t_bytes32"},"t_mapping(t_address,t_mapping(t_bytes4,t_bool))":{"encoding":"mapping","key":"t_address","label":"mapping(address => mapping(bytes4 => bool))","numberOfBytes":"32","value":"t_mapping(t_bytes4,t_bool)"},"t_mapping(t_address,t_mapping(t_bytes4,t_bytes32))":{"encoding":"mapping","key":"t_address","label":"mapping(address => mapping(bytes4 => bytes32))","numberOfBytes":"32","value":"t_mapping(t_bytes4,t_bytes32)"},"t_mapping(t_bytes4,t_bool)":{"encoding":"mapping","key":"t_bytes4","label":"mapping(bytes4 => bool)","numberOfBytes":"32","value":"t_bool"},"t_mapping(t_bytes4,t_bytes32)":{"encoding":"mapping","key":"t_bytes4","label":"mapping(bytes4 => bytes32)","numberOfBytes":"32","value":"t_bytes32"}}},"id":74}