{"abi":[{"type":"constructor","inputs":[],"stateMutability":"nonpayable"},{"type":"receive","stateMutability":"payable"},{"type":"function","name":"authority","inputs":[],"outputs":[{"name":"","type":"address","internalType":"contract Authority"}],"stateMutability":"view"},{"type":"function","name":"guards","inputs":[{"name":"target","type":"address","internalType":"address"}],"outputs":[{"name":"guard","type":"address","internalType":"contract ITransactionGuard"}],"stateMutability":"view"},{"type":"function","name":"initialize","inputs":[{"name":"_owner","type":"address","internalType":"address"}],"outputs":[],"stateMutability":"nonpayable"},{"type":"function","name":"isAuthorized","inputs":[{"name":"user","type":"address","internalType":"address"},{"name":"functionSig","type":"bytes4","internalType":"bytes4"}],"outputs":[{"name":"","type":"bool","internalType":"bool"}],"stateMutability":"view"},{"type":"function","name":"manage","inputs":[{"name":"target","type":"address","internalType":"address"},{"name":"data","type":"bytes","internalType":"bytes"},{"name":"value","type":"uint256","internalType":"uint256"}],"outputs":[{"name":"result","type":"bytes","internalType":"bytes"}],"stateMutability":"nonpayable"},{"type":"function","name":"manageBatch","inputs":[{"name":"calls","type":"tuple[]","internalType":"struct Call[]","components":[{"name":"target","type":"address","internalType":"address"},{"name":"data","type":"bytes","internalType":"bytes"},{"name":"value","type":"uint256","internalType":"uint256"}]}],"outputs":[],"stateMutability":"nonpayable"},{"type":"function","name":"onERC1155BatchReceived","inputs":[{"name":"","type":"address","internalType":"address"},{"name":"","type":"address","internalType":"address"},{"name":"","type":"uint256[]","internalType":"uint256[]"},{"name":"","type":"uint256[]","internalType":"uint256[]"},{"name":"","type":"bytes","internalType":"bytes"}],"outputs":[{"name":"","type":"bytes4","internalType":"bytes4"}],"stateMutability":"pure"},{"type":"function","name":"onERC1155Received","inputs":[{"name":"","type":"address","internalType":"address"},{"name":"","type":"address","internalType":"address"},{"name":"","type":"uint256","internalType":"uint256"},{"name":"","type":"uint256","internalType":"uint256"},{"name":"","type":"bytes","internalType":"bytes"}],"outputs":[{"name":"","type":"bytes4","internalType":"bytes4"}],"stateMutability":"pure"},{"type":"function","name":"onERC721Received","inputs":[{"name":"","type":"address","internalType":"address"},{"name":"","type":"address","internalType":"address"},{"name":"","type":"uint256","internalType":"uint256"},{"name":"","type":"bytes","internalType":"bytes"}],"outputs":[{"name":"","type":"bytes4","internalType":"bytes4"}],"stateMutability":"pure"},{"type":"function","name":"owner","inputs":[],"outputs":[{"name":"","type":"address","internalType":"address"}],"stateMutability":"view"},{"type":"function","name":"pause","inputs":[],"outputs":[],"stateMutability":"nonpayable"},{"type":"function","name":"paused","inputs":[],"outputs":[{"name":"","type":"bool","internalType":"bool"}],"stateMutability":"view"},{"type":"function","name":"removeGuard","inputs":[{"name":"target","type":"address","internalType":"address"}],"outputs":[],"stateMutability":"nonpayable"},{"type":"function","name":"setAuthority","inputs":[{"name":"newAuthority","type":"address","internalType":"contract Authority"}],"outputs":[],"stateMutability":"nonpayable"},{"type":"function","name":"setGuard","inputs":[{"name":"target","type":"address","internalType":"address"},{"name":"guard","type":"address","internalType":"address"}],"outputs":[],"stateMutability":"nonpayable"},{"type":"function","name":"transferOwnership","inputs":[{"name":"newOwner","type":"address","internalType":"address"}],"outputs":[],"stateMutability":"nonpayable"},{"type":"function","name":"unpause","inputs":[],"outputs":[],"stateMutability":"nonpayable"},{"type":"event","name":"AuthorityUpdated","inputs":[{"name":"user","type":"address","indexed":true,"internalType":"address"},{"name":"newAuthority","type":"address","indexed":true,"internalType":"contract Authority"}],"anonymous":false},{"type":"event","name":"GuardRemoved","inputs":[{"name":"target","type":"address","indexed":true,"internalType":"address"}],"anonymous":false},{"type":"event","name":"GuardUpdated","inputs":[{"name":"target","type":"address","indexed":true,"internalType":"address"},{"name":"guard","type":"address","indexed":true,"internalType":"address"}],"anonymous":false},{"type":"event","name":"Initialized","inputs":[{"name":"version","type":"uint64","indexed":false,"internalType":"uint64"}],"anonymous":false},{"type":"event","name":"ManageBatchOperation","inputs":[{"name":"index","type":"uint256","indexed":true,"internalType":"uint256"},{"name":"target","type":"address","indexed":true,"internalType":"address"},{"name":"functionSig","type":"bytes4","indexed":false,"internalType":"bytes4"},{"name":"value","type":"uint256","indexed":false,"internalType":"uint256"},{"name":"result","type":"bytes","indexed":false,"internalType":"bytes"}],"anonymous":false},{"type":"event","name":"OwnershipTransferred","inputs":[{"name":"user","type":"address","indexed":true,"internalType":"address"},{"name":"newOwner","type":"address","indexed":true,"internalType":"address"}],"anonymous":false},{"type":"event","name":"Paused","inputs":[{"name":"account","type":"address","indexed":false,"internalType":"address"}],"anonymous":false},{"type":"event","name":"Received","inputs":[{"name":"sender","type":"address","indexed":false,"internalType":"address"},{"name":"amount","type":"uint256","indexed":false,"internalType":"uint256"}],"anonymous":false},{"type":"event","name":"Unpaused","inputs":[{"name":"account","type":"address","indexed":false,"internalType":"address"}],"anonymous":false},{"type":"error","name":"AddressEmptyCode","inputs":[{"name":"target","type":"address","internalType":"address"}]},{"type":"error","name":"EnforcedPause","inputs":[]},{"type":"error","name":"ExpectedPause","inputs":[]},{"type":"error","name":"FailedCall","inputs":[]},{"type":"error","name":"InsufficientBalance","inputs":[{"name":"balance","type":"uint256","internalType":"uint256"},{"name":"needed","type":"uint256","internalType":"uint256"}]},{"type":"error","name":"InvalidInitialization","inputs":[]},{"type":"error","name":"NotInitializing","inputs":[]},{"type":"error","name":"TransactionValidationFailed","inputs":[{"name":"target","type":"address","internalType":"address"}]}],"bytecode":{"object":"0x608060405234602357600e6027565b60146027565b60405161146d90816100bc8239f35b5f80fd5b5f5160206115295f395f51905f525460ff8160401c1660ac576002600160401b03196001600160401b03821601605a5750565b6001600160401b0319166001600160401b039081175f5160206115295f395f51905f52556040519081527fc7f505b2f371ae2175ee4913f4499e1f2633a7b5936321eed1cdaeb6115181d290602090a1565b63f92ee8a960e01b5f5260045ffdfe60806040526004361015610049575b3615610018575f80fd5b7f88a5966d370b9919b20f3e2c13ff65706f196a4e32cc2c12bf57088f8852587460408051338152346020820152a1005b5f358060e01c806312d36fd314610cdb578063150b7a0214610c6c578063227773ee14610bed5780633f4ba83a14610b205780635c975abb14610adf5780636b46215114610a9f5780637a9e5e4b1461092d5780638456cb591461085d5780638da5cb5b14610818578063b6235016146107a6578063bc197c81146106f3578063bf7e214f146106ae578063c4d66de8146103a7578063d9972b9614610363578063f23a6e61146102f4578063f2fde38b146102425763f6e715d01461010f575061000e565b3461023e57606036600319011261023e57610128610f8e565b60243567ffffffffffffffff811161023e57610148903690600401610fba565b92909161016a6101656001600160e01b0319604435941633611208565b611027565b6001600160a01b0381165f525f6020526001600160a01b0360405f205416610194828215156110bc565b602060405180926336e1b10b60e21b825281806101b7888b8b336004860161117a565b03915afa93841561023357610200956101df846101ec976101e6955f91610204575b506110bc565b36916111d2565b906112f8565b604051918291602083526020830190610fe8565b0390f35b610226915060203d60201161022c575b61021e818361112c565b810190611162565b5f6101d9565b503d610214565b6040513d5f823e3d90fd5b5f80fd5b503461023e57602036600319011261023e576001600160a01b039061027c6101656001600160e01b0319610274610f8e565b931633611208565b16806001600160a01b03197fdd3fd67aef415aded9493b31ad20a02d2991d4bb2760431cc729821271eaea005416177fdd3fd67aef415aded9493b31ad20a02d2991d4bb2760431cc729821271eaea0055337f8be0079c531659141344cd1fd0a4f28419497f9722a3daafe3b4186f6b6457e05f80a3005b3461023e5760a036600319011261023e5761030d610f8e565b50610316610fa4565b5060843567ffffffffffffffff811161023e57610337903690600401610fba565b505060206040517ff23a6e61000000000000000000000000000000000000000000000000000000008152f35b3461023e57604036600319011261023e5761037c610f8e565b602435906001600160e01b03198216820361023e5760209161039d91611208565b6040519015158152f35b3461023e57602036600319011261023e576103c0610f8e565b7ff0c57e16840df040f15088dc2f81fe391c3923bec73e23a9662efc9c229c6a005460ff8160401c16159167ffffffffffffffff8216801590816106a6575b600114908161069c575b159081610693575b5061066b5767ffffffffffffffff1982166001177ff0c57e16840df040f15088dc2f81fe391c3923bec73e23a9662efc9c229c6a00556001600160a01b03918361062c575b5061045f611409565b610467611409565b16806001600160a01b03197fdd3fd67aef415aded9493b31ad20a02d2991d4bb2760431cc729821271eaea005416177fdd3fd67aef415aded9493b31ad20a02d2991d4bb2760431cc729821271eaea00556001600160a01b03197fdd3fd67aef415aded9493b31ad20a02d2991d4bb2760431cc729821271eaea0154167fdd3fd67aef415aded9493b31ad20a02d2991d4bb2760431cc729821271eaea0155337f8be0079c531659141344cd1fd0a4f28419497f9722a3daafe3b4186f6b6457e05f80a35f337fa3396fd7f6e0a21b50e5089d2da70d5ac0a3bbbd1f617a93f134b763899801988280a3610559611409565b610561611409565b60ff197fcd5ed15c6e187e77e9aee88184c21f4f2182ab5827cb3b7e07fbedcd63f0330054167fcd5ed15c6e187e77e9aee88184c21f4f2182ab5827cb3b7e07fbedcd63f03300556105af57005b68ff0000000000000000197ff0c57e16840df040f15088dc2f81fe391c3923bec73e23a9662efc9c229c6a0054167ff0c57e16840df040f15088dc2f81fe391c3923bec73e23a9662efc9c229c6a00557fc7f505b2f371ae2175ee4913f4499e1f2633a7b5936321eed1cdaeb6115181d2602060405160018152a1005b68ffffffffffffffffff191668010000000000000001177ff0c57e16840df040f15088dc2f81fe391c3923bec73e23a9662efc9c229c6a005583610456565b7ff92ee8a9000000000000000000000000000000000000000000000000000000005f5260045ffd5b90501584610411565b303b159150610409565b8491506103ff565b3461023e575f36600319011261023e5760206001600160a01b037fdd3fd67aef415aded9493b31ad20a02d2991d4bb2760431cc729821271eaea015416604051908152f35b3461023e5760a036600319011261023e5761070c610f8e565b50610715610fa4565b5060443567ffffffffffffffff811161023e57610736903690600401610f5d565b505060643567ffffffffffffffff811161023e57610758903690600401610f5d565b505060843567ffffffffffffffff811161023e5761077a903690600401610fba565b505060206040517fbc197c81000000000000000000000000000000000000000000000000000000008152f35b503461023e57602036600319011261023e576001600160a01b03906107d86101656001600160e01b0319610274610f8e565b16805f525f60205260405f206001600160a01b031981541690557f59926e0a78d12238b668b31c8e3f6ece235a59a00ede111d883e255b68c4d0485f80a2005b3461023e575f36600319011261023e5760206001600160a01b037fdd3fd67aef415aded9493b31ad20a02d2991d4bb2760431cc729821271eaea005416604051908152f35b503461023e575f36600319011261023e576101656001600160e01b0319610885921633611208565b7fcd5ed15c6e187e77e9aee88184c21f4f2182ab5827cb3b7e07fbedcd63f033005460ff81166109055760019060ff1916177fcd5ed15c6e187e77e9aee88184c21f4f2182ab5827cb3b7e07fbedcd63f03300557f62e78cea01bee320cd4e420270b5ea74000d11b0c9f74754ebdbfc544b05a2586020604051338152a1005b7fd93c0665000000000000000000000000000000000000000000000000000000005f5260045ffd5b503461023e57602036600319011261023e57600435906001600160a01b03821680920361023e576001600160a01b037fdd3fd67aef415aded9493b31ad20a02d2991d4bb2760431cc729821271eaea0054163314908115610a06575b501561023e57806001600160a01b03197fdd3fd67aef415aded9493b31ad20a02d2991d4bb2760431cc729821271eaea015416177fdd3fd67aef415aded9493b31ad20a02d2991d4bb2760431cc729821271eaea0155337fa3396fd7f6e0a21b50e5089d2da70d5ac0a3bbbd1f617a93f134b763899801985f80a3005b7fdd3fd67aef415aded9493b31ad20a02d2991d4bb2760431cc729821271eaea015460405163b700961360e01b81523360048201523060248201526001600160e01b0319929092166044830152909150602090829060649082906001600160a01b03165afa908115610233575f91610a80575b505f610989565b610a99915060203d60201161022c5761021e818361112c565b5f610a79565b3461023e57602036600319011261023e576001600160a01b03610ac0610f8e565b165f525f60205260206001600160a01b0360405f205416604051908152f35b3461023e575f36600319011261023e57602060ff7fcd5ed15c6e187e77e9aee88184c21f4f2182ab5827cb3b7e07fbedcd63f0330054166040519015158152f35b503461023e575f36600319011261023e576101656001600160e01b0319610b48921633611208565b7fcd5ed15c6e187e77e9aee88184c21f4f2182ab5827cb3b7e07fbedcd63f033005460ff811615610bc55760ff19167fcd5ed15c6e187e77e9aee88184c21f4f2182ab5827cb3b7e07fbedcd63f03300557f5db9ee0a495bf2e6ff9c91a7834c1ba4fdd244a5e8aa4e537bd38aeae4b073aa6020604051338152a1005b7f8dfc202b000000000000000000000000000000000000000000000000000000005f5260045ffd5b503461023e57604036600319011261023e576001600160a01b0380610c10610f8e565b92610c286101656001600160e01b0319610274610fa4565b169116805f525f60205260405f20826001600160a01b03198254161790557f3cda29cdb79816ebd803e7c42da9b0bd76d5e7874a94abb4fae13ff444e353fb5f80a3005b3461023e57608036600319011261023e57610c85610f8e565b50610c8e610fa4565b5060643567ffffffffffffffff811161023e57610caf903690600401610fba565b505060206040517f150b7a02000000000000000000000000000000000000000000000000000000008152f35b503461023e57602036600319011261023e576004359067ffffffffffffffff821161023e57610d27610165610d1d6001600160e01b0319943690600401610f5d565b9490931633611208565b8115610f19575f5b828110610d3857005b806001600160a01b03610d57610d52610dcf948787611072565b6110a8565b165f525f60205260206001600160a01b0360405f205416610d87610d7f610d52858989611072565b8215156110bc565b610d9e610d95848888611072565b838101906110f9565b6040610dae868a8a969596611072565b013592604051968794859384936336e1b10b60e21b8552336004860161117a565b03915afa91821561023357600192610dfd915f91610efb575b50610df7610d52848888611072565b906110bc565b610e426101e6610e11610d52848888611072565b610e29610e1f858989611072565b60208101906110f9565b92906040610e38878b8b611072565b01359336916111d2565b817f2f13a569f6d2fba5618730b89cb049a8d430f6bd0aa6eea26e948d8d663d7c766001600160e01b0319878784610e7e610e1f828585611072565b9390358581169460048110610ee3575b5050916040610eb78385610eb1610d526001600160a01b0397610eda9988611072565b94611072565b013560405195869516855260208501526060604085015216956060830190610fe8565b0390a301610d2f565b60040360031b86901b16851693506040610eb7610e8e565b610f13915060203d811161022c5761021e818361112c565b5f610de8565b606460405162461bcd60e51b815260206004820152601160248201527f4e6f2063616c6c732070726f76696465640000000000000000000000000000006044820152fd5b9181601f8401121561023e5782359167ffffffffffffffff831161023e576020808501948460051b01011161023e57565b600435906001600160a01b038216820361023e57565b602435906001600160a01b038216820361023e57565b9181601f8401121561023e5782359167ffffffffffffffff831161023e576020838186019501011161023e57565b91908251928382525f5b848110611012575050825f602080949584010152601f8019910116010190565b80602080928401015182828601015201610ff2565b1561102e57565b606460405162461bcd60e51b815260206004820152600c60248201527f554e415554484f52495a454400000000000000000000000000000000000000006044820152fd5b91908110156110945760051b81013590605e198136030182121561023e570190565b634e487b7160e01b5f52603260045260245ffd5b356001600160a01b038116810361023e5790565b156110c45750565b6001600160a01b03907fe2b9c0ef000000000000000000000000000000000000000000000000000000005f521660045260245ffd5b903590601e198136030182121561023e570180359067ffffffffffffffff821161023e5760200191813603831361023e57565b90601f8019910116810190811067ffffffffffffffff82111761114e57604052565b634e487b7160e01b5f52604160045260245ffd5b9081602091031261023e5751801515810361023e5790565b949392806040936001600160a01b0360809416885260606020890152816060890152838801375f828288010152601f8019910116850101930152565b67ffffffffffffffff811161114e57601f01601f191660200190565b9291926111de826111b6565b916111ec604051938461112c565b82948184528183011161023e578281602093845f960137010152565b6001600160a01b037fdd3fd67aef415aded9493b31ad20a02d2991d4bb2760431cc729821271eaea01541691821515928361127e575b5050811561124a575090565b90506001600160a01b03807fdd3fd67aef415aded9493b31ad20a02d2991d4bb2760431cc729821271eaea00541691161490565b60405163b700961360e01b81526001600160a01b03841660048201523060248201526001600160e01b031992909216604483015291925090602090829060649082905afa908115610233575f916112d9575b50905f8061123e565b6112f2915060203d60201161022c5761021e818361112c565b5f6112d0565b9092919283471061134d575f8161134294956020839451920190855af13d15611345573d91611326836111b6565b92611334604051948561112c565b83523d5f602085013e61137d565b90565b60609161137d565b83477fcf479181000000000000000000000000000000000000000000000000000000005f5260045260245260445ffd5b906113ba575080511561139257805190602001fd5b7fd6bda275000000000000000000000000000000000000000000000000000000005f5260045ffd5b81511580611400575b6113cb575090565b6001600160a01b03907f9996b315000000000000000000000000000000000000000000000000000000005f521660045260245ffd5b50803b156113c3565b60ff7ff0c57e16840df040f15088dc2f81fe391c3923bec73e23a9662efc9c229c6a005460401c161561143857565b7fd7e6bcf8000000000000000000000000000000000000000000000000000000005f5260045ffdfea164736f6c634300081c000af0c57e16840df040f15088dc2f81fe391c3923bec73e23a9662efc9c229c6a00","linkReferences":{}},"methodIdentifiers":{"authority()":"bf7e214f","guards(address)":"6b462151","initialize(address)":"c4d66de8","isAuthorized(address,bytes4)":"d9972b96","manage(address,bytes,uint256)":"f6e715d0","manageBatch((address,bytes,uint256)[])":"12d36fd3","onERC1155BatchReceived(address,address,uint256[],uint256[],bytes)":"bc197c81","onERC1155Received(address,address,uint256,uint256,bytes)":"f23a6e61","onERC721Received(address,address,uint256,bytes)":"150b7a02","owner()":"8da5cb5b","pause()":"8456cb59","paused()":"5c975abb","removeGuard(address)":"b6235016","setAuthority(address)":"7a9e5e4b","setGuard(address,address)":"227773ee","transferOwnership(address)":"f2fde38b","unpause()":"3f4ba83a"},"storageLayout":{"storage":[{"astId":52424,"contract":"src/crosschain/SubVault.sol:SubVault","label":"guards","offset":0,"slot":"0","type":"t_mapping(t_address,t_contract(ITransactionGuard)53578)"}],"types":{"t_address":{"encoding":"inplace","label":"address","numberOfBytes":"20"},"t_contract(ITransactionGuard)53578":{"encoding":"inplace","label":"contract ITransactionGuard","numberOfBytes":"20"},"t_mapping(t_address,t_contract(ITransactionGuard)53578)":{"encoding":"mapping","key":"t_address","label":"mapping(address => contract ITransactionGuard)","numberOfBytes":"32","value":"t_contract(ITransactionGuard)53578"}}},"id":66}