{"abi":[{"type":"constructor","inputs":[],"stateMutability":"nonpayable"},{"type":"receive","stateMutability":"payable"},{"type":"function","name":"authority","inputs":[],"outputs":[{"name":"","type":"address","internalType":"contract Authority"}],"stateMutability":"view"},{"type":"function","name":"guards","inputs":[{"name":"target","type":"address","internalType":"address"}],"outputs":[{"name":"","type":"address","internalType":"contract ITransactionGuard"}],"stateMutability":"view"},{"type":"function","name":"initialize","inputs":[{"name":"_owner","type":"address","internalType":"address"}],"outputs":[],"stateMutability":"nonpayable"},{"type":"function","name":"isAuthorized","inputs":[{"name":"user","type":"address","internalType":"address"},{"name":"functionSig","type":"bytes4","internalType":"bytes4"}],"outputs":[{"name":"","type":"bool","internalType":"bool"}],"stateMutability":"view"},{"type":"function","name":"isTrustedTarget","inputs":[{"name":"target","type":"address","internalType":"address"}],"outputs":[{"name":"","type":"bool","internalType":"bool"}],"stateMutability":"view"},{"type":"function","name":"manageBatch","inputs":[{"name":"calls","type":"tuple[]","internalType":"struct Call[]","components":[{"name":"target","type":"address","internalType":"address"},{"name":"data","type":"bytes","internalType":"bytes"},{"name":"value","type":"uint256","internalType":"uint256"}]}],"outputs":[],"stateMutability":"payable"},{"type":"function","name":"onERC1155BatchReceived","inputs":[{"name":"","type":"address","internalType":"address"},{"name":"","type":"address","internalType":"address"},{"name":"","type":"uint256[]","internalType":"uint256[]"},{"name":"","type":"uint256[]","internalType":"uint256[]"},{"name":"","type":"bytes","internalType":"bytes"}],"outputs":[{"name":"","type":"bytes4","internalType":"bytes4"}],"stateMutability":"pure"},{"type":"function","name":"onERC1155Received","inputs":[{"name":"","type":"address","internalType":"address"},{"name":"","type":"address","internalType":"address"},{"name":"","type":"uint256","internalType":"uint256"},{"name":"","type":"uint256","internalType":"uint256"},{"name":"","type":"bytes","internalType":"bytes"}],"outputs":[{"name":"","type":"bytes4","internalType":"bytes4"}],"stateMutability":"pure"},{"type":"function","name":"onERC721Received","inputs":[{"name":"","type":"address","internalType":"address"},{"name":"","type":"address","internalType":"address"},{"name":"","type":"uint256","internalType":"uint256"},{"name":"","type":"bytes","internalType":"bytes"}],"outputs":[{"name":"","type":"bytes4","internalType":"bytes4"}],"stateMutability":"pure"},{"type":"function","name":"owner","inputs":[],"outputs":[{"name":"","type":"address","internalType":"address"}],"stateMutability":"view"},{"type":"function","name":"pause","inputs":[],"outputs":[],"stateMutability":"nonpayable"},{"type":"function","name":"paused","inputs":[],"outputs":[{"name":"","type":"bool","internalType":"bool"}],"stateMutability":"view"},{"type":"function","name":"removeGuard","inputs":[{"name":"target","type":"address","internalType":"address"}],"outputs":[],"stateMutability":"nonpayable"},{"type":"function","name":"setAuthority","inputs":[{"name":"newAuthority","type":"address","internalType":"contract Authority"}],"outputs":[],"stateMutability":"nonpayable"},{"type":"function","name":"setGuard","inputs":[{"name":"target","type":"address","internalType":"address"},{"name":"guard","type":"address","internalType":"address"}],"outputs":[],"stateMutability":"nonpayable"},{"type":"function","name":"setTrustedTarget","inputs":[{"name":"target","type":"address","internalType":"address"},{"name":"isTrusted","type":"bool","internalType":"bool"}],"outputs":[],"stateMutability":"nonpayable"},{"type":"function","name":"transferOwnership","inputs":[{"name":"newOwner","type":"address","internalType":"address"}],"outputs":[],"stateMutability":"nonpayable"},{"type":"function","name":"unpause","inputs":[],"outputs":[],"stateMutability":"nonpayable"},{"type":"event","name":"AuthorityUpdated","inputs":[{"name":"user","type":"address","indexed":true,"internalType":"address"},{"name":"newAuthority","type":"address","indexed":true,"internalType":"contract Authority"}],"anonymous":false},{"type":"event","name":"GuardRemoved","inputs":[{"name":"target","type":"address","indexed":true,"internalType":"address"}],"anonymous":false},{"type":"event","name":"GuardUpdated","inputs":[{"name":"target","type":"address","indexed":true,"internalType":"address"},{"name":"guard","type":"address","indexed":true,"internalType":"address"}],"anonymous":false},{"type":"event","name":"Initialized","inputs":[{"name":"version","type":"uint64","indexed":false,"internalType":"uint64"}],"anonymous":false},{"type":"event","name":"ManageBatchOperation","inputs":[{"name":"index","type":"uint256","indexed":true,"internalType":"uint256"},{"name":"target","type":"address","indexed":true,"internalType":"address"},{"name":"functionSig","type":"bytes4","indexed":false,"internalType":"bytes4"},{"name":"value","type":"uint256","indexed":false,"internalType":"uint256"},{"name":"result","type":"bytes","indexed":false,"internalType":"bytes"}],"anonymous":false},{"type":"event","name":"OwnershipTransferred","inputs":[{"name":"user","type":"address","indexed":true,"internalType":"address"},{"name":"newOwner","type":"address","indexed":true,"internalType":"address"}],"anonymous":false},{"type":"event","name":"Paused","inputs":[{"name":"account","type":"address","indexed":false,"internalType":"address"}],"anonymous":false},{"type":"event","name":"Received","inputs":[{"name":"sender","type":"address","indexed":false,"internalType":"address"},{"name":"amount","type":"uint256","indexed":false,"internalType":"uint256"}],"anonymous":false},{"type":"event","name":"TrustedTargetUpdated","inputs":[{"name":"target","type":"address","indexed":true,"internalType":"address"},{"name":"isTrusted","type":"bool","indexed":false,"internalType":"bool"}],"anonymous":false},{"type":"event","name":"Unpaused","inputs":[{"name":"account","type":"address","indexed":false,"internalType":"address"}],"anonymous":false},{"type":"error","name":"AddressEmptyCode","inputs":[{"name":"target","type":"address","internalType":"address"}]},{"type":"error","name":"EnforcedPause","inputs":[]},{"type":"error","name":"ExpectedPause","inputs":[]},{"type":"error","name":"FailedCall","inputs":[]},{"type":"error","name":"InsufficientBalance","inputs":[{"name":"balance","type":"uint256","internalType":"uint256"},{"name":"needed","type":"uint256","internalType":"uint256"}]},{"type":"error","name":"InvalidInitialization","inputs":[]},{"type":"error","name":"NotInitializing","inputs":[]},{"type":"error","name":"TransactionValidationFailed","inputs":[{"name":"target","type":"address","internalType":"address"}]}],"bytecode":{"object":"0x608060405234602357600e6027565b60146027565b6040516114ad90816100bc8239f35b5f80fd5b5f5160206115695f395f51905f525460ff8160401c1660ac576002600160401b03196001600160401b03821601605a5750565b6001600160401b0319166001600160401b039081175f5160206115695f395f51905f52556040519081527fc7f505b2f371ae2175ee4913f4499e1f2633a7b5936321eed1cdaeb6115181d290602090a1565b63f92ee8a960e01b5f5260045ffdfe60806040526004361015610049575b3615610018575f80fd5b7f88a5966d370b9919b20f3e2c13ff65706f196a4e32cc2c12bf57088f8852587460408051338152346020820152a1005b5f358060e01c80630136cb021461105257806312d36fd314610c98578063150b7a0214610c29578063227773ee14610b8a5780633f4ba83a14610abd5780635c975abb14610a7c5780636b46215114610a1c5780637a9e5e4b1461088f5780638456cb59146107bf5780638da5cb5b1461077a578063b6235016146106e8578063bc197c8114610635578063bf7e214f146105f0578063c4d66de8146102e9578063d6f5da9b14610287578063d9972b9614610243578063f23a6e61146101d45763f2fde38b1461011a575061000e565b346101d05760203660031901126101d0576001600160a01b03906101586101536001600160e01b031961014b611110565b9316336112b1565b61119b565b16806001600160a01b03197fdd3fd67aef415aded9493b31ad20a02d2991d4bb2760431cc729821271eaea005416177fdd3fd67aef415aded9493b31ad20a02d2991d4bb2760431cc729821271eaea0055337f8be0079c531659141344cd1fd0a4f28419497f9722a3daafe3b4186f6b6457e05f80a3005b5f80fd5b346101d05760a03660031901126101d0576101ed611110565b506101f6611126565b5060843567ffffffffffffffff81116101d05761021790369060040161116d565b505060206040517ff23a6e61000000000000000000000000000000000000000000000000000000008152f35b346101d05760403660031901126101d05761025c611110565b602435906001600160e01b0319821682036101d05760209161027d916112b1565b6040519015158152f35b346101d05760203660031901126101d057602060ff6102dd6102a7611110565b6001600160a01b03165f527f28c4b052a520676d101ba86c6252692dd22c3eb0f745f659491e2b37c29b810160205260405f2090565b54166040519015158152f35b346101d05760203660031901126101d057610302611110565b7ff0c57e16840df040f15088dc2f81fe391c3923bec73e23a9662efc9c229c6a005460ff8160401c16159167ffffffffffffffff8216801590816105e8575b60011490816105de575b1590816105d5575b506105ad5767ffffffffffffffff1982166001177ff0c57e16840df040f15088dc2f81fe391c3923bec73e23a9662efc9c229c6a00556001600160a01b03918361056e575b506103a16113bd565b6103a96113bd565b16806001600160a01b03197fdd3fd67aef415aded9493b31ad20a02d2991d4bb2760431cc729821271eaea005416177fdd3fd67aef415aded9493b31ad20a02d2991d4bb2760431cc729821271eaea00556001600160a01b03197fdd3fd67aef415aded9493b31ad20a02d2991d4bb2760431cc729821271eaea0154167fdd3fd67aef415aded9493b31ad20a02d2991d4bb2760431cc729821271eaea0155337f8be0079c531659141344cd1fd0a4f28419497f9722a3daafe3b4186f6b6457e05f80a35f337fa3396fd7f6e0a21b50e5089d2da70d5ac0a3bbbd1f617a93f134b763899801988280a361049b6113bd565b6104a36113bd565b60ff197fcd5ed15c6e187e77e9aee88184c21f4f2182ab5827cb3b7e07fbedcd63f0330054167fcd5ed15c6e187e77e9aee88184c21f4f2182ab5827cb3b7e07fbedcd63f03300556104f157005b68ff0000000000000000197ff0c57e16840df040f15088dc2f81fe391c3923bec73e23a9662efc9c229c6a0054167ff0c57e16840df040f15088dc2f81fe391c3923bec73e23a9662efc9c229c6a00557fc7f505b2f371ae2175ee4913f4499e1f2633a7b5936321eed1cdaeb6115181d2602060405160018152a1005b68ffffffffffffffffff191668010000000000000001177ff0c57e16840df040f15088dc2f81fe391c3923bec73e23a9662efc9c229c6a005583610398565b7ff92ee8a9000000000000000000000000000000000000000000000000000000005f5260045ffd5b90501584610353565b303b15915061034b565b849150610341565b346101d0575f3660031901126101d05760206001600160a01b037fdd3fd67aef415aded9493b31ad20a02d2991d4bb2760431cc729821271eaea015416604051908152f35b346101d05760a03660031901126101d05761064e611110565b50610657611126565b5060443567ffffffffffffffff81116101d05761067890369060040161113c565b505060643567ffffffffffffffff81116101d05761069a90369060040161113c565b505060843567ffffffffffffffff81116101d0576106bc90369060040161116d565b505060206040517fbc197c81000000000000000000000000000000000000000000000000000000008152f35b50346101d05760203660031901126101d0576001600160a01b039061071a6101536001600160e01b031961014b611110565b16805f527f28c4b052a520676d101ba86c6252692dd22c3eb0f745f659491e2b37c29b810060205260405f206001600160a01b031981541690557f59926e0a78d12238b668b31c8e3f6ece235a59a00ede111d883e255b68c4d0485f80a2005b346101d0575f3660031901126101d05760206001600160a01b037fdd3fd67aef415aded9493b31ad20a02d2991d4bb2760431cc729821271eaea005416604051908152f35b50346101d0575f3660031901126101d0576101536001600160e01b03196107e79216336112b1565b7fcd5ed15c6e187e77e9aee88184c21f4f2182ab5827cb3b7e07fbedcd63f033005460ff81166108675760019060ff1916177fcd5ed15c6e187e77e9aee88184c21f4f2182ab5827cb3b7e07fbedcd63f03300557f62e78cea01bee320cd4e420270b5ea74000d11b0c9f74754ebdbfc544b05a2586020604051338152a1005b7fd93c0665000000000000000000000000000000000000000000000000000000005f5260045ffd5b50346101d05760203660031901126101d057600435906001600160a01b0382168092036101d0576001600160a01b037fdd3fd67aef415aded9493b31ad20a02d2991d4bb2760431cc729821271eaea0054163314908115610968575b50156101d057806001600160a01b03197fdd3fd67aef415aded9493b31ad20a02d2991d4bb2760431cc729821271eaea015416177fdd3fd67aef415aded9493b31ad20a02d2991d4bb2760431cc729821271eaea0155337fa3396fd7f6e0a21b50e5089d2da70d5ac0a3bbbd1f617a93f134b763899801985f80a3005b7fdd3fd67aef415aded9493b31ad20a02d2991d4bb2760431cc729821271eaea015460405163b700961360e01b81523360048201523060248201526001600160e01b0319929092166044830152909150602090829060649082906001600160a01b03165afa908115610a11575f916109e2575b505f6108eb565b610a04915060203d602011610a0a575b6109fc8183611263565b810190611299565b5f6109db565b503d6109f2565b6040513d5f823e3d90fd5b346101d05760203660031901126101d0576001600160a01b03610a3d611110565b165f527f28c4b052a520676d101ba86c6252692dd22c3eb0f745f659491e2b37c29b810060205260206001600160a01b0360405f205416604051908152f35b346101d0575f3660031901126101d057602060ff7fcd5ed15c6e187e77e9aee88184c21f4f2182ab5827cb3b7e07fbedcd63f0330054166040519015158152f35b50346101d0575f3660031901126101d0576101536001600160e01b0319610ae59216336112b1565b7fcd5ed15c6e187e77e9aee88184c21f4f2182ab5827cb3b7e07fbedcd63f033005460ff811615610b625760ff19167fcd5ed15c6e187e77e9aee88184c21f4f2182ab5827cb3b7e07fbedcd63f03300557f5db9ee0a495bf2e6ff9c91a7834c1ba4fdd244a5e8aa4e537bd38aeae4b073aa6020604051338152a1005b7f8dfc202b000000000000000000000000000000000000000000000000000000005f5260045ffd5b50346101d05760403660031901126101d0576001600160a01b0380610bad611110565b92610bc56101536001600160e01b031961014b611126565b169116805f527f28c4b052a520676d101ba86c6252692dd22c3eb0f745f659491e2b37c29b810060205260405f20826001600160a01b03198254161790557f3cda29cdb79816ebd803e7c42da9b0bd76d5e7874a94abb4fae13ff444e353fb5f80a3005b346101d05760803660031901126101d057610c42611110565b50610c4b611126565b5060643567ffffffffffffffff81116101d057610c6c90369060040161116d565b505060206040517f150b7a02000000000000000000000000000000000000000000000000000000008152f35b5060203660031901126101d05760043567ffffffffffffffff81116101d057610cce6001600160e01b031991369060040161113c565b9190921691610ce061015384336112b1565b811561100e575f5b828110610cf157005b610d04610cff8285856111e6565b61121c565b610d1c610d128386866111e6565b6020810190611230565b906040610d2a8588886111e6565b013591610d3a61015389336112b1565b60ff610d76856001600160a01b03165f527f28c4b052a520676d101ba86c6252692dd22c3eb0f745f659491e2b37c29b810160205260405f2090565b541615610f07575b610d87816113a1565b90610d956040519283611263565b808252602082019236828201116101d057815f92602092863783010152824710610ed7576001600160e01b031960808789610e2789985f8060209a60019d9a7f2f13a569f6d2fba5618730b89cb049a8d430f6bd0aa6eea26e948d8d663d7c769a5191855af13d15610ecf573d91610e0c836113a1565b92610e1a6040519485611263565b83523d5f8c85013e611414565b610e35610cff8884866111e6565b9087610e4e610e458286886111e6565b8b810190611230565b9490358881169560048110610eb8575b5050604091610e76916001600160a01b0396976111e6565b013560405196879516855289850152606060408501528051988991826060870152018585015e5f8389018501521695601f01601f19168101030190a301610ce8565b60040360031b89901b168816945081610e76610e5e565b606091611414565b82477fcf479181000000000000000000000000000000000000000000000000000000005f5260045260245260445ffd5b6001600160a01b038416805f527f28c4b052a520676d101ba86c6252692dd22c3eb0f745f659491e2b37c29b81006020526001600160a01b0360405f2054168015610ffb57602060405180927fdb86c42c00000000000000000000000000000000000000000000000000000000825233600483015260606024830152856064830152858760848401375f6084878401015287604483015281608481601f19601f8a011681010301915afa908115610a11575f91610fdd575b5015610fcb5750610d7e565b63e2b9c0ef60e01b5f5260045260245ffd5b610ff5915060203d8111610a0a576109fc8183611263565b5f610fbf565b5063e2b9c0ef60e01b5f5260045260245ffd5b606460405162461bcd60e51b815260206004820152601160248201527f4e6f2063616c6c732070726f76696465640000000000000000000000000000006044820152fd5b50346101d05760403660031901126101d05761106c611110565b90602435918215158093036101d0576001600160a01b036020916110be6101536001600160e01b03197fc10734ade2f9c2928d1f3598b9127932f89d29c8a894fd383cb0c6016e1b320a9616336112b1565b6110f8816001600160a01b03165f527f28c4b052a520676d101ba86c6252692dd22c3eb0f745f659491e2b37c29b810160205260405f2090565b60ff1981541660ff87161790556040519485521692a2005b600435906001600160a01b03821682036101d057565b602435906001600160a01b03821682036101d057565b9181601f840112156101d05782359167ffffffffffffffff83116101d0576020808501948460051b0101116101d057565b9181601f840112156101d05782359167ffffffffffffffff83116101d057602083818601950101116101d057565b156111a257565b606460405162461bcd60e51b815260206004820152600c60248201527f554e415554484f52495a454400000000000000000000000000000000000000006044820152fd5b91908110156112085760051b81013590605e19813603018212156101d0570190565b634e487b7160e01b5f52603260045260245ffd5b356001600160a01b03811681036101d05790565b903590601e19813603018212156101d0570180359067ffffffffffffffff82116101d0576020019181360383136101d057565b90601f8019910116810190811067ffffffffffffffff82111761128557604052565b634e487b7160e01b5f52604160045260245ffd5b908160209103126101d0575180151581036101d05790565b6001600160a01b037fdd3fd67aef415aded9493b31ad20a02d2991d4bb2760431cc729821271eaea015416918215159283611327575b505081156112f3575090565b90506001600160a01b03807fdd3fd67aef415aded9493b31ad20a02d2991d4bb2760431cc729821271eaea00541691161490565b60405163b700961360e01b81526001600160a01b03841660048201523060248201526001600160e01b031992909216604483015291925090602090829060649082905afa908115610a11575f91611382575b50905f806112e7565b61139b915060203d602011610a0a576109fc8183611263565b5f611379565b67ffffffffffffffff811161128557601f01601f191660200190565b60ff7ff0c57e16840df040f15088dc2f81fe391c3923bec73e23a9662efc9c229c6a005460401c16156113ec57565b7fd7e6bcf8000000000000000000000000000000000000000000000000000000005f5260045ffd5b90611451575080511561142957805190602001fd5b7fd6bda275000000000000000000000000000000000000000000000000000000005f5260045ffd5b81511580611497575b611462575090565b6001600160a01b03907f9996b315000000000000000000000000000000000000000000000000000000005f521660045260245ffd5b50803b1561145a56fea164736f6c634300081c000af0c57e16840df040f15088dc2f81fe391c3923bec73e23a9662efc9c229c6a00","linkReferences":{}},"methodIdentifiers":{"authority()":"bf7e214f","guards(address)":"6b462151","initialize(address)":"c4d66de8","isAuthorized(address,bytes4)":"d9972b96","isTrustedTarget(address)":"d6f5da9b","manageBatch((address,bytes,uint256)[])":"12d36fd3","onERC1155BatchReceived(address,address,uint256[],uint256[],bytes)":"bc197c81","onERC1155Received(address,address,uint256,uint256,bytes)":"f23a6e61","onERC721Received(address,address,uint256,bytes)":"150b7a02","owner()":"8da5cb5b","pause()":"8456cb59","paused()":"5c975abb","removeGuard(address)":"b6235016","setAuthority(address)":"7a9e5e4b","setGuard(address,address)":"227773ee","setTrustedTarget(address,bool)":"0136cb02","transferOwnership(address)":"f2fde38b","unpause()":"3f4ba83a"},"storageLayout":{"storage":[],"types":{}},"id":105}