{"abi":[{"type":"constructor","inputs":[],"stateMutability":"nonpayable"},{"type":"receive","stateMutability":"payable"},{"type":"function","name":"authority","inputs":[],"outputs":[{"name":"","type":"address","internalType":"contract Authority"}],"stateMutability":"view"},{"type":"function","name":"guards","inputs":[{"name":"target","type":"address","internalType":"address"}],"outputs":[{"name":"guard","type":"address","internalType":"contract ITransactionGuard"}],"stateMutability":"view"},{"type":"function","name":"initialize","inputs":[{"name":"_owner","type":"address","internalType":"address"}],"outputs":[],"stateMutability":"nonpayable"},{"type":"function","name":"isAuthorized","inputs":[{"name":"user","type":"address","internalType":"address"},{"name":"functionSig","type":"bytes4","internalType":"bytes4"}],"outputs":[{"name":"","type":"bool","internalType":"bool"}],"stateMutability":"view"},{"type":"function","name":"manageBatch","inputs":[{"name":"calls","type":"tuple[]","internalType":"struct Call[]","components":[{"name":"target","type":"address","internalType":"address"},{"name":"data","type":"bytes","internalType":"bytes"},{"name":"value","type":"uint256","internalType":"uint256"}]}],"outputs":[],"stateMutability":"nonpayable"},{"type":"function","name":"onERC1155BatchReceived","inputs":[{"name":"","type":"address","internalType":"address"},{"name":"","type":"address","internalType":"address"},{"name":"","type":"uint256[]","internalType":"uint256[]"},{"name":"","type":"uint256[]","internalType":"uint256[]"},{"name":"","type":"bytes","internalType":"bytes"}],"outputs":[{"name":"","type":"bytes4","internalType":"bytes4"}],"stateMutability":"pure"},{"type":"function","name":"onERC1155Received","inputs":[{"name":"","type":"address","internalType":"address"},{"name":"","type":"address","internalType":"address"},{"name":"","type":"uint256","internalType":"uint256"},{"name":"","type":"uint256","internalType":"uint256"},{"name":"","type":"bytes","internalType":"bytes"}],"outputs":[{"name":"","type":"bytes4","internalType":"bytes4"}],"stateMutability":"pure"},{"type":"function","name":"onERC721Received","inputs":[{"name":"","type":"address","internalType":"address"},{"name":"","type":"address","internalType":"address"},{"name":"","type":"uint256","internalType":"uint256"},{"name":"","type":"bytes","internalType":"bytes"}],"outputs":[{"name":"","type":"bytes4","internalType":"bytes4"}],"stateMutability":"pure"},{"type":"function","name":"owner","inputs":[],"outputs":[{"name":"","type":"address","internalType":"address"}],"stateMutability":"view"},{"type":"function","name":"pause","inputs":[],"outputs":[],"stateMutability":"nonpayable"},{"type":"function","name":"paused","inputs":[],"outputs":[{"name":"","type":"bool","internalType":"bool"}],"stateMutability":"view"},{"type":"function","name":"removeGuard","inputs":[{"name":"target","type":"address","internalType":"address"}],"outputs":[],"stateMutability":"nonpayable"},{"type":"function","name":"setAuthority","inputs":[{"name":"newAuthority","type":"address","internalType":"contract Authority"}],"outputs":[],"stateMutability":"nonpayable"},{"type":"function","name":"setGuard","inputs":[{"name":"target","type":"address","internalType":"address"},{"name":"guard","type":"address","internalType":"address"}],"outputs":[],"stateMutability":"nonpayable"},{"type":"function","name":"transferOwnership","inputs":[{"name":"newOwner","type":"address","internalType":"address"}],"outputs":[],"stateMutability":"nonpayable"},{"type":"function","name":"unpause","inputs":[],"outputs":[],"stateMutability":"nonpayable"},{"type":"event","name":"AuthorityUpdated","inputs":[{"name":"user","type":"address","indexed":true,"internalType":"address"},{"name":"newAuthority","type":"address","indexed":true,"internalType":"contract Authority"}],"anonymous":false},{"type":"event","name":"GuardRemoved","inputs":[{"name":"target","type":"address","indexed":true,"internalType":"address"}],"anonymous":false},{"type":"event","name":"GuardUpdated","inputs":[{"name":"target","type":"address","indexed":true,"internalType":"address"},{"name":"guard","type":"address","indexed":true,"internalType":"address"}],"anonymous":false},{"type":"event","name":"Initialized","inputs":[{"name":"version","type":"uint64","indexed":false,"internalType":"uint64"}],"anonymous":false},{"type":"event","name":"ManageBatchOperation","inputs":[{"name":"index","type":"uint256","indexed":true,"internalType":"uint256"},{"name":"target","type":"address","indexed":true,"internalType":"address"},{"name":"functionSig","type":"bytes4","indexed":false,"internalType":"bytes4"},{"name":"value","type":"uint256","indexed":false,"internalType":"uint256"},{"name":"result","type":"bytes","indexed":false,"internalType":"bytes"}],"anonymous":false},{"type":"event","name":"OwnershipTransferred","inputs":[{"name":"user","type":"address","indexed":true,"internalType":"address"},{"name":"newOwner","type":"address","indexed":true,"internalType":"address"}],"anonymous":false},{"type":"event","name":"Paused","inputs":[{"name":"account","type":"address","indexed":false,"internalType":"address"}],"anonymous":false},{"type":"event","name":"Received","inputs":[{"name":"sender","type":"address","indexed":false,"internalType":"address"},{"name":"amount","type":"uint256","indexed":false,"internalType":"uint256"}],"anonymous":false},{"type":"event","name":"Unpaused","inputs":[{"name":"account","type":"address","indexed":false,"internalType":"address"}],"anonymous":false},{"type":"error","name":"AddressEmptyCode","inputs":[{"name":"target","type":"address","internalType":"address"}]},{"type":"error","name":"EnforcedPause","inputs":[]},{"type":"error","name":"ExpectedPause","inputs":[]},{"type":"error","name":"FailedCall","inputs":[]},{"type":"error","name":"InsufficientBalance","inputs":[{"name":"balance","type":"uint256","internalType":"uint256"},{"name":"needed","type":"uint256","internalType":"uint256"}]},{"type":"error","name":"InvalidInitialization","inputs":[]},{"type":"error","name":"NotInitializing","inputs":[]},{"type":"error","name":"TransactionValidationFailed","inputs":[{"name":"target","type":"address","internalType":"address"}]}],"bytecode":{"object":"0x608060405234602357600e6027565b60146027565b6040516112f390816100bc8239f35b5f80fd5b5f5160206113af5f395f51905f525460ff8160401c1660ac576002600160401b03196001600160401b03821601605a5750565b6001600160401b0319166001600160401b039081175f5160206113af5f395f51905f52556040519081527fc7f505b2f371ae2175ee4913f4499e1f2633a7b5936321eed1cdaeb6115181d290602090a1565b63f92ee8a960e01b5f5260045ffdfe60806040526004361015610049575b3615610018575f80fd5b7f88a5966d370b9919b20f3e2c13ff65706f196a4e32cc2c12bf57088f8852587460408051338152346020820152a1005b5f358060e01c806312d36fd314610bc0578063150b7a0214610b51578063227773ee14610ad25780633f4ba83a14610a055780635c975abb146109c45780636b462151146109845780637a9e5e4b146107f75780638456cb59146107275780638da5cb5b146106e2578063b623501614610670578063bc197c81146105bd578063bf7e214f14610578578063c4d66de814610271578063d9972b961461022d578063f23a6e61146101be5763f2fde38b14610104575061000e565b346101ba5760203660031901126101ba576001600160a01b039061014261013d6001600160e01b0319610135610f4a565b9316336110ba565b610fa4565b16806001600160a01b03197fdd3fd67aef415aded9493b31ad20a02d2991d4bb2760431cc729821271eaea005416177fdd3fd67aef415aded9493b31ad20a02d2991d4bb2760431cc729821271eaea0055337f8be0079c531659141344cd1fd0a4f28419497f9722a3daafe3b4186f6b6457e05f80a3005b5f80fd5b346101ba5760a03660031901126101ba576101d7610f4a565b506101e0610f60565b5060843567ffffffffffffffff81116101ba57610201903690600401610f76565b505060206040517ff23a6e61000000000000000000000000000000000000000000000000000000008152f35b346101ba5760403660031901126101ba57610246610f4a565b602435906001600160e01b0319821682036101ba57602091610267916110ba565b6040519015158152f35b346101ba5760203660031901126101ba5761028a610f4a565b7ff0c57e16840df040f15088dc2f81fe391c3923bec73e23a9662efc9c229c6a005460ff8160401c16159167ffffffffffffffff821680159081610570575b6001149081610566575b15908161055d575b506105355767ffffffffffffffff1982166001177ff0c57e16840df040f15088dc2f81fe391c3923bec73e23a9662efc9c229c6a00556001600160a01b0391836104f6575b50610329611203565b610331611203565b16806001600160a01b03197fdd3fd67aef415aded9493b31ad20a02d2991d4bb2760431cc729821271eaea005416177fdd3fd67aef415aded9493b31ad20a02d2991d4bb2760431cc729821271eaea00556001600160a01b03197fdd3fd67aef415aded9493b31ad20a02d2991d4bb2760431cc729821271eaea0154167fdd3fd67aef415aded9493b31ad20a02d2991d4bb2760431cc729821271eaea0155337f8be0079c531659141344cd1fd0a4f28419497f9722a3daafe3b4186f6b6457e05f80a35f337fa3396fd7f6e0a21b50e5089d2da70d5ac0a3bbbd1f617a93f134b763899801988280a3610423611203565b61042b611203565b60ff197fcd5ed15c6e187e77e9aee88184c21f4f2182ab5827cb3b7e07fbedcd63f0330054167fcd5ed15c6e187e77e9aee88184c21f4f2182ab5827cb3b7e07fbedcd63f033005561047957005b68ff0000000000000000197ff0c57e16840df040f15088dc2f81fe391c3923bec73e23a9662efc9c229c6a0054167ff0c57e16840df040f15088dc2f81fe391c3923bec73e23a9662efc9c229c6a00557fc7f505b2f371ae2175ee4913f4499e1f2633a7b5936321eed1cdaeb6115181d2602060405160018152a1005b68ffffffffffffffffff191668010000000000000001177ff0c57e16840df040f15088dc2f81fe391c3923bec73e23a9662efc9c229c6a005583610320565b7ff92ee8a9000000000000000000000000000000000000000000000000000000005f5260045ffd5b905015846102db565b303b1591506102d3565b8491506102c9565b346101ba575f3660031901126101ba5760206001600160a01b037fdd3fd67aef415aded9493b31ad20a02d2991d4bb2760431cc729821271eaea015416604051908152f35b346101ba5760a03660031901126101ba576105d6610f4a565b506105df610f60565b5060443567ffffffffffffffff81116101ba57610600903690600401610f19565b505060643567ffffffffffffffff81116101ba57610622903690600401610f19565b505060843567ffffffffffffffff81116101ba57610644903690600401610f76565b505060206040517fbc197c81000000000000000000000000000000000000000000000000000000008152f35b50346101ba5760203660031901126101ba576001600160a01b03906106a261013d6001600160e01b0319610135610f4a565b16805f525f60205260405f206001600160a01b031981541690557f59926e0a78d12238b668b31c8e3f6ece235a59a00ede111d883e255b68c4d0485f80a2005b346101ba575f3660031901126101ba5760206001600160a01b037fdd3fd67aef415aded9493b31ad20a02d2991d4bb2760431cc729821271eaea005416604051908152f35b50346101ba575f3660031901126101ba5761013d6001600160e01b031961074f9216336110ba565b7fcd5ed15c6e187e77e9aee88184c21f4f2182ab5827cb3b7e07fbedcd63f033005460ff81166107cf5760019060ff1916177fcd5ed15c6e187e77e9aee88184c21f4f2182ab5827cb3b7e07fbedcd63f03300557f62e78cea01bee320cd4e420270b5ea74000d11b0c9f74754ebdbfc544b05a2586020604051338152a1005b7fd93c0665000000000000000000000000000000000000000000000000000000005f5260045ffd5b50346101ba5760203660031901126101ba57600435906001600160a01b0382168092036101ba576001600160a01b037fdd3fd67aef415aded9493b31ad20a02d2991d4bb2760431cc729821271eaea00541633149081156108d0575b50156101ba57806001600160a01b03197fdd3fd67aef415aded9493b31ad20a02d2991d4bb2760431cc729821271eaea015416177fdd3fd67aef415aded9493b31ad20a02d2991d4bb2760431cc729821271eaea0155337fa3396fd7f6e0a21b50e5089d2da70d5ac0a3bbbd1f617a93f134b763899801985f80a3005b7fdd3fd67aef415aded9493b31ad20a02d2991d4bb2760431cc729821271eaea015460405163b700961360e01b81523360048201523060248201526001600160e01b0319929092166044830152909150602090829060649082906001600160a01b03165afa908115610979575f9161094a575b505f610853565b61096c915060203d602011610972575b610964818361106c565b8101906110a2565b5f610943565b503d61095a565b6040513d5f823e3d90fd5b346101ba5760203660031901126101ba576001600160a01b036109a5610f4a565b165f525f60205260206001600160a01b0360405f205416604051908152f35b346101ba575f3660031901126101ba57602060ff7fcd5ed15c6e187e77e9aee88184c21f4f2182ab5827cb3b7e07fbedcd63f0330054166040519015158152f35b50346101ba575f3660031901126101ba5761013d6001600160e01b0319610a2d9216336110ba565b7fcd5ed15c6e187e77e9aee88184c21f4f2182ab5827cb3b7e07fbedcd63f033005460ff811615610aaa5760ff19167fcd5ed15c6e187e77e9aee88184c21f4f2182ab5827cb3b7e07fbedcd63f03300557f5db9ee0a495bf2e6ff9c91a7834c1ba4fdd244a5e8aa4e537bd38aeae4b073aa6020604051338152a1005b7f8dfc202b000000000000000000000000000000000000000000000000000000005f5260045ffd5b50346101ba5760403660031901126101ba576001600160a01b0380610af5610f4a565b92610b0d61013d6001600160e01b0319610135610f60565b169116805f525f60205260405f20826001600160a01b03198254161790557f3cda29cdb79816ebd803e7c42da9b0bd76d5e7874a94abb4fae13ff444e353fb5f80a3005b346101ba5760803660031901126101ba57610b6a610f4a565b50610b73610f60565b5060643567ffffffffffffffff81116101ba57610b94903690600401610f76565b505060206040517f150b7a02000000000000000000000000000000000000000000000000000000008152f35b50346101ba5760203660031901126101ba5760043567ffffffffffffffff81116101ba57610bfb6001600160e01b0319913690600401610f19565b9190921690610c0d61013d83336110ba565b8015610ed5575f5b818110610c1e57005b610c31610c2c828487610fef565b611025565b610c49610c3f838588610fef565b6020810190611039565b906040610c5785878a610fef565b013591610c6761013d88336110ba565b6001600160a01b0384165f525f6020526001600160a01b0360405f205416610c91858215156111aa565b602060405180927fdb86c42c00000000000000000000000000000000000000000000000000000000825233600483015260606024830152846064830152848660848401375f6084868401015286604483015281608481601f19601f89011681010301915afa90811561097957610d109186915f91610eb7575b506111aa565b610d19816111e7565b90610d27604051928361106c565b808252602082019236828201116101ba57815f92602092863783010152824710610e8757610d8693925f9283925191855af13d15610e7f573d91610d6a836111e7565b92610d78604051948561106c565b83523d5f602085013e61125a565b610d94610c2c838588610fef565b610da2610c3f848689610fef565b9190356001600160e01b031981169260048110610e60575b50506040610dc985878a610fef565b01356001600160e01b0319604051931683526020830152606060408301528251928360608401525f5b848110610e4a575050927f2f13a569f6d2fba5618730b89cb049a8d430f6bd0aa6eea26e948d8d663d7c76826080816001600160a01b036001985f848a899b9a0101521695601f80199101168101030190a301610c15565b8060208092840101516080828701015201610df2565b6001600160e01b0319929350829060040360031b1b1616905f80610dba565b60609161125a565b82477fcf479181000000000000000000000000000000000000000000000000000000005f5260045260245260445ffd5b610ecf915060203d811161097257610964818361106c565b5f610d0a565b606460405162461bcd60e51b815260206004820152601160248201527f4e6f2063616c6c732070726f76696465640000000000000000000000000000006044820152fd5b9181601f840112156101ba5782359167ffffffffffffffff83116101ba576020808501948460051b0101116101ba57565b600435906001600160a01b03821682036101ba57565b602435906001600160a01b03821682036101ba57565b9181601f840112156101ba5782359167ffffffffffffffff83116101ba57602083818601950101116101ba57565b15610fab57565b606460405162461bcd60e51b815260206004820152600c60248201527f554e415554484f52495a454400000000000000000000000000000000000000006044820152fd5b91908110156110115760051b81013590605e19813603018212156101ba570190565b634e487b7160e01b5f52603260045260245ffd5b356001600160a01b03811681036101ba5790565b903590601e19813603018212156101ba570180359067ffffffffffffffff82116101ba576020019181360383136101ba57565b90601f8019910116810190811067ffffffffffffffff82111761108e57604052565b634e487b7160e01b5f52604160045260245ffd5b908160209103126101ba575180151581036101ba5790565b6001600160a01b037fdd3fd67aef415aded9493b31ad20a02d2991d4bb2760431cc729821271eaea015416918215159283611130575b505081156110fc575090565b90506001600160a01b03807fdd3fd67aef415aded9493b31ad20a02d2991d4bb2760431cc729821271eaea00541691161490565b60405163b700961360e01b81526001600160a01b03841660048201523060248201526001600160e01b031992909216604483015291925090602090829060649082905afa908115610979575f9161118b575b50905f806110f0565b6111a4915060203d60201161097257610964818361106c565b5f611182565b156111b25750565b6001600160a01b03907fe2b9c0ef000000000000000000000000000000000000000000000000000000005f521660045260245ffd5b67ffffffffffffffff811161108e57601f01601f191660200190565b60ff7ff0c57e16840df040f15088dc2f81fe391c3923bec73e23a9662efc9c229c6a005460401c161561123257565b7fd7e6bcf8000000000000000000000000000000000000000000000000000000005f5260045ffd5b90611297575080511561126f57805190602001fd5b7fd6bda275000000000000000000000000000000000000000000000000000000005f5260045ffd5b815115806112dd575b6112a8575090565b6001600160a01b03907f9996b315000000000000000000000000000000000000000000000000000000005f521660045260245ffd5b50803b156112a056fea164736f6c634300081c000af0c57e16840df040f15088dc2f81fe391c3923bec73e23a9662efc9c229c6a00","linkReferences":{}},"methodIdentifiers":{"authority()":"bf7e214f","guards(address)":"6b462151","initialize(address)":"c4d66de8","isAuthorized(address,bytes4)":"d9972b96","manageBatch((address,bytes,uint256)[])":"12d36fd3","onERC1155BatchReceived(address,address,uint256[],uint256[],bytes)":"bc197c81","onERC1155Received(address,address,uint256,uint256,bytes)":"f23a6e61","onERC721Received(address,address,uint256,bytes)":"150b7a02","owner()":"8da5cb5b","pause()":"8456cb59","paused()":"5c975abb","removeGuard(address)":"b6235016","setAuthority(address)":"7a9e5e4b","setGuard(address,address)":"227773ee","transferOwnership(address)":"f2fde38b","unpause()":"3f4ba83a"},"storageLayout":{"storage":[{"astId":58502,"contract":"src/vault/SubVault.sol:SubVault","label":"guards","offset":0,"slot":"0","type":"t_mapping(t_address,t_contract(ITransactionGuard)57985)"}],"types":{"t_address":{"encoding":"inplace","label":"address","numberOfBytes":"20"},"t_contract(ITransactionGuard)57985":{"encoding":"inplace","label":"contract ITransactionGuard","numberOfBytes":"20"},"t_mapping(t_address,t_contract(ITransactionGuard)57985)":{"encoding":"mapping","key":"t_address","label":"mapping(address => contract ITransactionGuard)","numberOfBytes":"32","value":"t_contract(ITransactionGuard)57985"}}},"id":104}