{"abi":[{"type":"constructor","inputs":[],"stateMutability":"nonpayable"},{"type":"receive","stateMutability":"payable"},{"type":"function","name":"authority","inputs":[],"outputs":[{"name":"","type":"address","internalType":"contract Authority"}],"stateMutability":"view"},{"type":"function","name":"initialize","inputs":[{"name":"_owner","type":"address","internalType":"address"}],"outputs":[],"stateMutability":"nonpayable"},{"type":"function","name":"isAuthorized","inputs":[{"name":"user","type":"address","internalType":"address"},{"name":"functionSig","type":"bytes4","internalType":"bytes4"}],"outputs":[{"name":"","type":"bool","internalType":"bool"}],"stateMutability":"view"},{"type":"function","name":"manage","inputs":[{"name":"target","type":"address","internalType":"address"},{"name":"data","type":"bytes","internalType":"bytes"},{"name":"value","type":"uint256","internalType":"uint256"}],"outputs":[{"name":"result","type":"bytes","internalType":"bytes"}],"stateMutability":"nonpayable"},{"type":"function","name":"manageBatch","inputs":[{"name":"calls","type":"tuple[]","internalType":"struct Call[]","components":[{"name":"target","type":"address","internalType":"address"},{"name":"data","type":"bytes","internalType":"bytes"},{"name":"value","type":"uint256","internalType":"uint256"}]}],"outputs":[],"stateMutability":"nonpayable"},{"type":"function","name":"onERC1155BatchReceived","inputs":[{"name":"","type":"address","internalType":"address"},{"name":"","type":"address","internalType":"address"},{"name":"","type":"uint256[]","internalType":"uint256[]"},{"name":"","type":"uint256[]","internalType":"uint256[]"},{"name":"","type":"bytes","internalType":"bytes"}],"outputs":[{"name":"","type":"bytes4","internalType":"bytes4"}],"stateMutability":"pure"},{"type":"function","name":"onERC1155Received","inputs":[{"name":"","type":"address","internalType":"address"},{"name":"","type":"address","internalType":"address"},{"name":"","type":"uint256","internalType":"uint256"},{"name":"","type":"uint256","internalType":"uint256"},{"name":"","type":"bytes","internalType":"bytes"}],"outputs":[{"name":"","type":"bytes4","internalType":"bytes4"}],"stateMutability":"pure"},{"type":"function","name":"onERC721Received","inputs":[{"name":"","type":"address","internalType":"address"},{"name":"","type":"address","internalType":"address"},{"name":"","type":"uint256","internalType":"uint256"},{"name":"","type":"bytes","internalType":"bytes"}],"outputs":[{"name":"","type":"bytes4","internalType":"bytes4"}],"stateMutability":"pure"},{"type":"function","name":"owner","inputs":[],"outputs":[{"name":"","type":"address","internalType":"address"}],"stateMutability":"view"},{"type":"function","name":"pause","inputs":[],"outputs":[],"stateMutability":"nonpayable"},{"type":"function","name":"paused","inputs":[],"outputs":[{"name":"","type":"bool","internalType":"bool"}],"stateMutability":"view"},{"type":"function","name":"setAuthority","inputs":[{"name":"newAuthority","type":"address","internalType":"contract Authority"}],"outputs":[],"stateMutability":"nonpayable"},{"type":"function","name":"setValidator","inputs":[{"name":"target","type":"address","internalType":"address"},{"name":"validator","type":"address","internalType":"address"}],"outputs":[],"stateMutability":"nonpayable"},{"type":"function","name":"transferOwnership","inputs":[{"name":"newOwner","type":"address","internalType":"address"}],"outputs":[],"stateMutability":"nonpayable"},{"type":"function","name":"unpause","inputs":[],"outputs":[],"stateMutability":"nonpayable"},{"type":"function","name":"validators","inputs":[{"name":"target","type":"address","internalType":"address"}],"outputs":[{"name":"validator","type":"address","internalType":"contract ICallValidator"}],"stateMutability":"view"},{"type":"event","name":"AuthorityUpdated","inputs":[{"name":"user","type":"address","indexed":true,"internalType":"address"},{"name":"newAuthority","type":"address","indexed":true,"internalType":"contract Authority"}],"anonymous":false},{"type":"event","name":"Initialized","inputs":[{"name":"version","type":"uint64","indexed":false,"internalType":"uint64"}],"anonymous":false},{"type":"event","name":"ManageBatchOperation","inputs":[{"name":"index","type":"uint256","indexed":true,"internalType":"uint256"},{"name":"target","type":"address","indexed":true,"internalType":"address"},{"name":"functionSig","type":"bytes4","indexed":false,"internalType":"bytes4"},{"name":"value","type":"uint256","indexed":false,"internalType":"uint256"},{"name":"result","type":"bytes","indexed":false,"internalType":"bytes"}],"anonymous":false},{"type":"event","name":"OwnershipTransferred","inputs":[{"name":"user","type":"address","indexed":true,"internalType":"address"},{"name":"newOwner","type":"address","indexed":true,"internalType":"address"}],"anonymous":false},{"type":"event","name":"Paused","inputs":[{"name":"account","type":"address","indexed":false,"internalType":"address"}],"anonymous":false},{"type":"event","name":"Received","inputs":[{"name":"sender","type":"address","indexed":false,"internalType":"address"},{"name":"amount","type":"uint256","indexed":false,"internalType":"uint256"}],"anonymous":false},{"type":"event","name":"Unpaused","inputs":[{"name":"account","type":"address","indexed":false,"internalType":"address"}],"anonymous":false},{"type":"event","name":"ValidatorUpdated","inputs":[{"name":"target","type":"address","indexed":true,"internalType":"address"},{"name":"validator","type":"address","indexed":true,"internalType":"address"}],"anonymous":false},{"type":"error","name":"AddressEmptyCode","inputs":[{"name":"target","type":"address","internalType":"address"}]},{"type":"error","name":"EnforcedPause","inputs":[]},{"type":"error","name":"ExpectedPause","inputs":[]},{"type":"error","name":"FailedCall","inputs":[]},{"type":"error","name":"InsufficientBalance","inputs":[{"name":"balance","type":"uint256","internalType":"uint256"},{"name":"needed","type":"uint256","internalType":"uint256"}]},{"type":"error","name":"InvalidInitialization","inputs":[]},{"type":"error","name":"NotInitializing","inputs":[]},{"type":"error","name":"TransactionValidationFailed","inputs":[{"name":"target","type":"address","internalType":"address"}]}],"bytecode":{"object":"0x608060405234602357600e6027565b60146027565b6040516113e690816100bc8239f35b5f80fd5b5f5160206114a25f395f51905f525460ff8160401c1660ac576002600160401b03196001600160401b03821601605a5750565b6001600160401b0319166001600160401b039081175f5160206114a25f395f51905f52556040519081527fc7f505b2f371ae2175ee4913f4499e1f2633a7b5936321eed1cdaeb6115181d290602090a1565b63f92ee8a960e01b5f5260045ffdfe60806040526004361015610049575b3615610018575f80fd5b7f88a5966d370b9919b20f3e2c13ff65706f196a4e32cc2c12bf57088f8852587460408051338152346020820152a1005b5f358060e01c90816312d36fd314610c55578163150b7a0214610be65781633f4ba83a14610b1a5781635c975abb14610ad95781637a9e5e4b146109685781638456cb59146108995781638da5cb5b14610854578163bc197c81146107a1578163bee83f3914610723578163bf7e214f146106de578163c4d66de8146103d7578163d9972b9614610393578163f23a6e6114610324578163f2fde38b14610273578163f6e715d014610144575063fa52c7d80361000e5734610140576020366003190112610140576001600160a01b03610121610f07565b165f525f60205260206001600160a01b0360405f205416604051908152f35b5f80fd5b346101405760603660031901126101405761015d610f07565b60243567ffffffffffffffff81116101405761017d903690600401610f33565b92909161019f61019a6001600160e01b0319604435941633611181565b610fa0565b6001600160a01b0381165f525f6020526001600160a01b0360405f2054166101c982821515611035565b602060405180926336e1b10b60e21b825281806101ec888b8b33600486016110f3565b03915afa9384156102685761023595610214846102219761021b955f91610239575b50611035565b369161114b565b90611271565b604051918291602083526020830190610f61565b0390f35b61025b915060203d602011610261575b61025381836110a5565b8101906110db565b8a61020e565b503d610249565b6040513d5f823e3d90fd5b34610140576020366003190112610140576001600160a01b03906102ac61019a6001600160e01b03196102a4610f07565b931633611181565b16806001600160a01b03197fdd3fd67aef415aded9493b31ad20a02d2991d4bb2760431cc729821271eaea005416177fdd3fd67aef415aded9493b31ad20a02d2991d4bb2760431cc729821271eaea0055337f8be0079c531659141344cd1fd0a4f28419497f9722a3daafe3b4186f6b6457e05f80a3005b346101405760a03660031901126101405761033d610f07565b50610346610f1d565b5060843567ffffffffffffffff811161014057610367903690600401610f33565b505060206040517ff23a6e61000000000000000000000000000000000000000000000000000000008152f35b34610140576040366003190112610140576103ac610f07565b602435906001600160e01b031982168203610140576020916103cd91611181565b6040519015158152f35b34610140576020366003190112610140576103f0610f07565b7ff0c57e16840df040f15088dc2f81fe391c3923bec73e23a9662efc9c229c6a005460ff8160401c16159167ffffffffffffffff8216801590816106d6575b60011490816106cc575b1590816106c3575b5061069b5767ffffffffffffffff1982166001177ff0c57e16840df040f15088dc2f81fe391c3923bec73e23a9662efc9c229c6a00556001600160a01b03918361065c575b5061048f611382565b610497611382565b16806001600160a01b03197fdd3fd67aef415aded9493b31ad20a02d2991d4bb2760431cc729821271eaea005416177fdd3fd67aef415aded9493b31ad20a02d2991d4bb2760431cc729821271eaea00556001600160a01b03197fdd3fd67aef415aded9493b31ad20a02d2991d4bb2760431cc729821271eaea0154167fdd3fd67aef415aded9493b31ad20a02d2991d4bb2760431cc729821271eaea0155337f8be0079c531659141344cd1fd0a4f28419497f9722a3daafe3b4186f6b6457e05f80a35f337fa3396fd7f6e0a21b50e5089d2da70d5ac0a3bbbd1f617a93f134b763899801988280a3610589611382565b610591611382565b60ff197fcd5ed15c6e187e77e9aee88184c21f4f2182ab5827cb3b7e07fbedcd63f0330054167fcd5ed15c6e187e77e9aee88184c21f4f2182ab5827cb3b7e07fbedcd63f03300556105df57005b68ff0000000000000000197ff0c57e16840df040f15088dc2f81fe391c3923bec73e23a9662efc9c229c6a0054167ff0c57e16840df040f15088dc2f81fe391c3923bec73e23a9662efc9c229c6a00557fc7f505b2f371ae2175ee4913f4499e1f2633a7b5936321eed1cdaeb6115181d2602060405160018152a1005b68ffffffffffffffffff191668010000000000000001177ff0c57e16840df040f15088dc2f81fe391c3923bec73e23a9662efc9c229c6a005583610486565b7ff92ee8a9000000000000000000000000000000000000000000000000000000005f5260045ffd5b90501584610441565b303b159150610439565b84915061042f565b34610140575f3660031901126101405760206001600160a01b037fdd3fd67aef415aded9493b31ad20a02d2991d4bb2760431cc729821271eaea015416604051908152f35b34610140576040366003190112610140576001600160a01b0380610745610f07565b9261075d61019a6001600160e01b03196102a4610f1d565b169116805f525f60205260405f20826001600160a01b03198254161790557fcfac5dc75b8d9a7e074162f59d9adcd33da59f0fe8dfb21580db298fc0fdad0d5f80a3005b346101405760a0366003190112610140576107ba610f07565b506107c3610f1d565b5060443567ffffffffffffffff8111610140576107e4903690600401610ed6565b505060643567ffffffffffffffff811161014057610806903690600401610ed6565b505060843567ffffffffffffffff811161014057610828903690600401610f33565b505060206040517fbc197c81000000000000000000000000000000000000000000000000000000008152f35b34610140575f3660031901126101405760206001600160a01b037fdd3fd67aef415aded9493b31ad20a02d2991d4bb2760431cc729821271eaea005416604051908152f35b34610140575f3660031901126101405761019a6001600160e01b03196108c0921633611181565b7fcd5ed15c6e187e77e9aee88184c21f4f2182ab5827cb3b7e07fbedcd63f033005460ff81166109405760019060ff1916177fcd5ed15c6e187e77e9aee88184c21f4f2182ab5827cb3b7e07fbedcd63f03300557f62e78cea01bee320cd4e420270b5ea74000d11b0c9f74754ebdbfc544b05a2586020604051338152a1005b7fd93c0665000000000000000000000000000000000000000000000000000000005f5260045ffd5b3461014057602036600319011261014057600435906001600160a01b038216809203610140576001600160a01b037fdd3fd67aef415aded9493b31ad20a02d2991d4bb2760431cc729821271eaea0054163314908115610a40575b501561014057806001600160a01b03197fdd3fd67aef415aded9493b31ad20a02d2991d4bb2760431cc729821271eaea015416177fdd3fd67aef415aded9493b31ad20a02d2991d4bb2760431cc729821271eaea0155337fa3396fd7f6e0a21b50e5089d2da70d5ac0a3bbbd1f617a93f134b763899801985f80a3005b7fdd3fd67aef415aded9493b31ad20a02d2991d4bb2760431cc729821271eaea015460405163b700961360e01b81523360048201523060248201526001600160e01b0319929092166044830152909150602090829060649082906001600160a01b03165afa908115610268575f91610aba575b50826109c3565b610ad3915060203d6020116102615761025381836110a5565b82610ab3565b34610140575f36600319011261014057602060ff7fcd5ed15c6e187e77e9aee88184c21f4f2182ab5827cb3b7e07fbedcd63f0330054166040519015158152f35b34610140575f3660031901126101405761019a6001600160e01b0319610b41921633611181565b7fcd5ed15c6e187e77e9aee88184c21f4f2182ab5827cb3b7e07fbedcd63f033005460ff811615610bbe5760ff19167fcd5ed15c6e187e77e9aee88184c21f4f2182ab5827cb3b7e07fbedcd63f03300557f5db9ee0a495bf2e6ff9c91a7834c1ba4fdd244a5e8aa4e537bd38aeae4b073aa6020604051338152a1005b7f8dfc202b000000000000000000000000000000000000000000000000000000005f5260045ffd5b3461014057608036600319011261014057610bff610f07565b50610c08610f1d565b5060643567ffffffffffffffff811161014057610c29903690600401610f33565b505060206040517f150b7a02000000000000000000000000000000000000000000000000000000008152f35b34610140576020366003190112610140576004359067ffffffffffffffff821161014057610ca061019a610c966001600160e01b0319943690600401610ed6565b9490931633611181565b8115610e92575f5b828110610cb157005b806001600160a01b03610cd0610ccb610d48948787610feb565b611021565b165f525f60205260206001600160a01b0360405f205416610d00610cf8610ccb858989610feb565b821515611035565b610d17610d0e848888610feb565b83810190611072565b6040610d27868a8a969596610feb565b013592604051968794859384936336e1b10b60e21b855233600486016110f3565b03915afa91821561026857600192610d76915f91610e74575b50610d70610ccb848888610feb565b90611035565b610dbb61021b610d8a610ccb848888610feb565b610da2610d98858989610feb565b6020810190611072565b92906040610db1878b8b610feb565b013593369161114b565b817f2f13a569f6d2fba5618730b89cb049a8d430f6bd0aa6eea26e948d8d663d7c766001600160e01b0319878784610df7610d98828585610feb565b9390358581169460048110610e5c575b5050916040610e308385610e2a610ccb6001600160a01b0397610e539988610feb565b94610feb565b013560405195869516855260208501526060604085015216956060830190610f61565b0390a301610ca8565b60040360031b86901b16851693506040610e30610e07565b610e8c915060203d81116102615761025381836110a5565b86610d61565b606460405162461bcd60e51b815260206004820152601160248201527f4e6f2063616c6c732070726f76696465640000000000000000000000000000006044820152fd5b9181601f840112156101405782359167ffffffffffffffff8311610140576020808501948460051b01011161014057565b600435906001600160a01b038216820361014057565b602435906001600160a01b038216820361014057565b9181601f840112156101405782359167ffffffffffffffff8311610140576020838186019501011161014057565b91908251928382525f5b848110610f8b575050825f602080949584010152601f8019910116010190565b80602080928401015182828601015201610f6b565b15610fa757565b606460405162461bcd60e51b815260206004820152600c60248201527f554e415554484f52495a454400000000000000000000000000000000000000006044820152fd5b919081101561100d5760051b81013590605e1981360301821215610140570190565b634e487b7160e01b5f52603260045260245ffd5b356001600160a01b03811681036101405790565b1561103d5750565b6001600160a01b03907fe2b9c0ef000000000000000000000000000000000000000000000000000000005f521660045260245ffd5b903590601e1981360301821215610140570180359067ffffffffffffffff82116101405760200191813603831361014057565b90601f8019910116810190811067ffffffffffffffff8211176110c757604052565b634e487b7160e01b5f52604160045260245ffd5b90816020910312610140575180151581036101405790565b949392806040936001600160a01b0360809416885260606020890152816060890152838801375f828288010152601f8019910116850101930152565b67ffffffffffffffff81116110c757601f01601f191660200190565b9291926111578261112f565b9161116560405193846110a5565b829481845281830111610140578281602093845f960137010152565b6001600160a01b037fdd3fd67aef415aded9493b31ad20a02d2991d4bb2760431cc729821271eaea0154169182151592836111f7575b505081156111c3575090565b90506001600160a01b03807fdd3fd67aef415aded9493b31ad20a02d2991d4bb2760431cc729821271eaea00541691161490565b60405163b700961360e01b81526001600160a01b03841660048201523060248201526001600160e01b031992909216604483015291925090602090829060649082905afa908115610268575f91611252575b50905f806111b7565b61126b915060203d6020116102615761025381836110a5565b5f611249565b909291928347106112c6575f816112bb94956020839451920190855af13d156112be573d9161129f8361112f565b926112ad60405194856110a5565b83523d5f602085013e6112f6565b90565b6060916112f6565b83477fcf479181000000000000000000000000000000000000000000000000000000005f5260045260245260445ffd5b90611333575080511561130b57805190602001fd5b7fd6bda275000000000000000000000000000000000000000000000000000000005f5260045ffd5b81511580611379575b611344575090565b6001600160a01b03907f9996b315000000000000000000000000000000000000000000000000000000005f521660045260245ffd5b50803b1561133c565b60ff7ff0c57e16840df040f15088dc2f81fe391c3923bec73e23a9662efc9c229c6a005460401c16156113b157565b7fd7e6bcf8000000000000000000000000000000000000000000000000000000005f5260045ffdfea164736f6c634300081c000af0c57e16840df040f15088dc2f81fe391c3923bec73e23a9662efc9c229c6a00","linkReferences":{}},"methodIdentifiers":{"authority()":"bf7e214f","initialize(address)":"c4d66de8","isAuthorized(address,bytes4)":"d9972b96","manage(address,bytes,uint256)":"f6e715d0","manageBatch((address,bytes,uint256)[])":"12d36fd3","onERC1155BatchReceived(address,address,uint256[],uint256[],bytes)":"bc197c81","onERC1155Received(address,address,uint256,uint256,bytes)":"f23a6e61","onERC721Received(address,address,uint256,bytes)":"150b7a02","owner()":"8da5cb5b","pause()":"8456cb59","paused()":"5c975abb","setAuthority(address)":"7a9e5e4b","setValidator(address,address)":"bee83f39","transferOwnership(address)":"f2fde38b","unpause()":"3f4ba83a","validators(address)":"fa52c7d8"},"storageLayout":{"storage":[{"astId":52424,"contract":"src/crosschain/SubVault.sol:SubVault","label":"validators","offset":0,"slot":"0","type":"t_mapping(t_address,t_contract(ICallValidator)53504)"}],"types":{"t_address":{"encoding":"inplace","label":"address","numberOfBytes":"20"},"t_contract(ICallValidator)53504":{"encoding":"inplace","label":"contract ICallValidator","numberOfBytes":"20"},"t_mapping(t_address,t_contract(ICallValidator)53504)":{"encoding":"mapping","key":"t_address","label":"mapping(address => contract ICallValidator)","numberOfBytes":"32","value":"t_contract(ICallValidator)53504"}}},"id":66}