{"abi":[{"type":"constructor","inputs":[],"stateMutability":"nonpayable"},{"type":"receive","stateMutability":"payable"},{"type":"function","name":"authority","inputs":[],"outputs":[{"name":"","type":"address","internalType":"contract Authority"}],"stateMutability":"view"},{"type":"function","name":"guards","inputs":[{"name":"target","type":"address","internalType":"address"}],"outputs":[{"name":"guard","type":"address","internalType":"contract ITransactionGuard"}],"stateMutability":"view"},{"type":"function","name":"initialize","inputs":[{"name":"_owner","type":"address","internalType":"address"}],"outputs":[],"stateMutability":"nonpayable"},{"type":"function","name":"isAuthorized","inputs":[{"name":"user","type":"address","internalType":"address"},{"name":"functionSig","type":"bytes4","internalType":"bytes4"}],"outputs":[{"name":"","type":"bool","internalType":"bool"}],"stateMutability":"view"},{"type":"function","name":"manage","inputs":[{"name":"target","type":"address","internalType":"address"},{"name":"data","type":"bytes","internalType":"bytes"},{"name":"value","type":"uint256","internalType":"uint256"}],"outputs":[{"name":"result","type":"bytes","internalType":"bytes"}],"stateMutability":"nonpayable"},{"type":"function","name":"manageBatch","inputs":[{"name":"calls","type":"tuple[]","internalType":"struct Call[]","components":[{"name":"target","type":"address","internalType":"address"},{"name":"data","type":"bytes","internalType":"bytes"},{"name":"value","type":"uint256","internalType":"uint256"}]}],"outputs":[],"stateMutability":"nonpayable"},{"type":"function","name":"onERC1155BatchReceived","inputs":[{"name":"","type":"address","internalType":"address"},{"name":"","type":"address","internalType":"address"},{"name":"","type":"uint256[]","internalType":"uint256[]"},{"name":"","type":"uint256[]","internalType":"uint256[]"},{"name":"","type":"bytes","internalType":"bytes"}],"outputs":[{"name":"","type":"bytes4","internalType":"bytes4"}],"stateMutability":"pure"},{"type":"function","name":"onERC1155Received","inputs":[{"name":"","type":"address","internalType":"address"},{"name":"","type":"address","internalType":"address"},{"name":"","type":"uint256","internalType":"uint256"},{"name":"","type":"uint256","internalType":"uint256"},{"name":"","type":"bytes","internalType":"bytes"}],"outputs":[{"name":"","type":"bytes4","internalType":"bytes4"}],"stateMutability":"pure"},{"type":"function","name":"onERC721Received","inputs":[{"name":"","type":"address","internalType":"address"},{"name":"","type":"address","internalType":"address"},{"name":"","type":"uint256","internalType":"uint256"},{"name":"","type":"bytes","internalType":"bytes"}],"outputs":[{"name":"","type":"bytes4","internalType":"bytes4"}],"stateMutability":"pure"},{"type":"function","name":"owner","inputs":[],"outputs":[{"name":"","type":"address","internalType":"address"}],"stateMutability":"view"},{"type":"function","name":"pause","inputs":[],"outputs":[],"stateMutability":"nonpayable"},{"type":"function","name":"paused","inputs":[],"outputs":[{"name":"","type":"bool","internalType":"bool"}],"stateMutability":"view"},{"type":"function","name":"setAuthority","inputs":[{"name":"newAuthority","type":"address","internalType":"contract Authority"}],"outputs":[],"stateMutability":"nonpayable"},{"type":"function","name":"setGuard","inputs":[{"name":"target","type":"address","internalType":"address"},{"name":"guard","type":"address","internalType":"address"}],"outputs":[],"stateMutability":"nonpayable"},{"type":"function","name":"transferOwnership","inputs":[{"name":"newOwner","type":"address","internalType":"address"}],"outputs":[],"stateMutability":"nonpayable"},{"type":"function","name":"unpause","inputs":[],"outputs":[],"stateMutability":"nonpayable"},{"type":"event","name":"AuthorityUpdated","inputs":[{"name":"user","type":"address","indexed":true,"internalType":"address"},{"name":"newAuthority","type":"address","indexed":true,"internalType":"contract Authority"}],"anonymous":false},{"type":"event","name":"GuardUpdated","inputs":[{"name":"target","type":"address","indexed":true,"internalType":"address"},{"name":"guard","type":"address","indexed":true,"internalType":"address"}],"anonymous":false},{"type":"event","name":"Initialized","inputs":[{"name":"version","type":"uint64","indexed":false,"internalType":"uint64"}],"anonymous":false},{"type":"event","name":"ManageBatchOperation","inputs":[{"name":"index","type":"uint256","indexed":true,"internalType":"uint256"},{"name":"target","type":"address","indexed":true,"internalType":"address"},{"name":"functionSig","type":"bytes4","indexed":false,"internalType":"bytes4"},{"name":"value","type":"uint256","indexed":false,"internalType":"uint256"},{"name":"result","type":"bytes","indexed":false,"internalType":"bytes"}],"anonymous":false},{"type":"event","name":"OwnershipTransferred","inputs":[{"name":"user","type":"address","indexed":true,"internalType":"address"},{"name":"newOwner","type":"address","indexed":true,"internalType":"address"}],"anonymous":false},{"type":"event","name":"Paused","inputs":[{"name":"account","type":"address","indexed":false,"internalType":"address"}],"anonymous":false},{"type":"event","name":"Received","inputs":[{"name":"sender","type":"address","indexed":false,"internalType":"address"},{"name":"amount","type":"uint256","indexed":false,"internalType":"uint256"}],"anonymous":false},{"type":"event","name":"Unpaused","inputs":[{"name":"account","type":"address","indexed":false,"internalType":"address"}],"anonymous":false},{"type":"error","name":"AddressEmptyCode","inputs":[{"name":"target","type":"address","internalType":"address"}]},{"type":"error","name":"EnforcedPause","inputs":[]},{"type":"error","name":"ExpectedPause","inputs":[]},{"type":"error","name":"FailedCall","inputs":[]},{"type":"error","name":"InsufficientBalance","inputs":[{"name":"balance","type":"uint256","internalType":"uint256"},{"name":"needed","type":"uint256","internalType":"uint256"}]},{"type":"error","name":"InvalidInitialization","inputs":[]},{"type":"error","name":"NotInitializing","inputs":[]},{"type":"error","name":"TransactionValidationFailed","inputs":[{"name":"target","type":"address","internalType":"address"}]}],"bytecode":{"object":"0x608060405234602357600e6027565b60146027565b6040516113f090816100bc8239f35b5f80fd5b5f5160206114ac5f395f51905f525460ff8160401c1660ac576002600160401b03196001600160401b03821601605a5750565b6001600160401b0319166001600160401b039081175f5160206114ac5f395f51905f52556040519081527fc7f505b2f371ae2175ee4913f4499e1f2633a7b5936321eed1cdaeb6115181d290602090a1565b63f92ee8a960e01b5f5260045ffdfe60806040526004361015610049575b3615610018575f80fd5b7f88a5966d370b9919b20f3e2c13ff65706f196a4e32cc2c12bf57088f8852587460408051338152346020820152a1005b5f358060e01c806312d36fd314610c5e578063150b7a0214610bef578063227773ee14610b705780633f4ba83a14610aa35780635c975abb14610a625780636b46215114610a225780637a9e5e4b146108b05780638456cb59146107e05780638da5cb5b1461079b578063bc197c81146106e8578063bf7e214f146106a3578063c4d66de81461039c578063d9972b9614610358578063f23a6e61146102e9578063f2fde38b146102375763f6e715d014610104575061000e565b346102335760603660031901126102335761011d610f11565b60243567ffffffffffffffff81116102335761013d903690600401610f3d565b92909161015f61015a6001600160e01b031960443594163361118b565b610faa565b6001600160a01b0381165f525f6020526001600160a01b0360405f2054166101898282151561103f565b602060405180926336e1b10b60e21b825281806101ac888b8b33600486016110fd565b03915afa938415610228576101f5956101d4846101e1976101db955f916101f9575b5061103f565b3691611155565b9061127b565b604051918291602083526020830190610f6b565b0390f35b61021b915060203d602011610221575b61021381836110af565b8101906110e5565b5f6101ce565b503d610209565b6040513d5f823e3d90fd5b5f80fd5b5034610233576020366003190112610233576001600160a01b039061027161015a6001600160e01b0319610269610f11565b93163361118b565b16806001600160a01b03197fdd3fd67aef415aded9493b31ad20a02d2991d4bb2760431cc729821271eaea005416177fdd3fd67aef415aded9493b31ad20a02d2991d4bb2760431cc729821271eaea0055337f8be0079c531659141344cd1fd0a4f28419497f9722a3daafe3b4186f6b6457e05f80a3005b346102335760a036600319011261023357610302610f11565b5061030b610f27565b5060843567ffffffffffffffff81116102335761032c903690600401610f3d565b505060206040517ff23a6e61000000000000000000000000000000000000000000000000000000008152f35b3461023357604036600319011261023357610371610f11565b602435906001600160e01b031982168203610233576020916103929161118b565b6040519015158152f35b34610233576020366003190112610233576103b5610f11565b7ff0c57e16840df040f15088dc2f81fe391c3923bec73e23a9662efc9c229c6a005460ff8160401c16159167ffffffffffffffff82168015908161069b575b6001149081610691575b159081610688575b506106605767ffffffffffffffff1982166001177ff0c57e16840df040f15088dc2f81fe391c3923bec73e23a9662efc9c229c6a00556001600160a01b039183610621575b5061045461138c565b61045c61138c565b16806001600160a01b03197fdd3fd67aef415aded9493b31ad20a02d2991d4bb2760431cc729821271eaea005416177fdd3fd67aef415aded9493b31ad20a02d2991d4bb2760431cc729821271eaea00556001600160a01b03197fdd3fd67aef415aded9493b31ad20a02d2991d4bb2760431cc729821271eaea0154167fdd3fd67aef415aded9493b31ad20a02d2991d4bb2760431cc729821271eaea0155337f8be0079c531659141344cd1fd0a4f28419497f9722a3daafe3b4186f6b6457e05f80a35f337fa3396fd7f6e0a21b50e5089d2da70d5ac0a3bbbd1f617a93f134b763899801988280a361054e61138c565b61055661138c565b60ff197fcd5ed15c6e187e77e9aee88184c21f4f2182ab5827cb3b7e07fbedcd63f0330054167fcd5ed15c6e187e77e9aee88184c21f4f2182ab5827cb3b7e07fbedcd63f03300556105a457005b68ff0000000000000000197ff0c57e16840df040f15088dc2f81fe391c3923bec73e23a9662efc9c229c6a0054167ff0c57e16840df040f15088dc2f81fe391c3923bec73e23a9662efc9c229c6a00557fc7f505b2f371ae2175ee4913f4499e1f2633a7b5936321eed1cdaeb6115181d2602060405160018152a1005b68ffffffffffffffffff191668010000000000000001177ff0c57e16840df040f15088dc2f81fe391c3923bec73e23a9662efc9c229c6a00558361044b565b7ff92ee8a9000000000000000000000000000000000000000000000000000000005f5260045ffd5b90501584610406565b303b1591506103fe565b8491506103f4565b34610233575f3660031901126102335760206001600160a01b037fdd3fd67aef415aded9493b31ad20a02d2991d4bb2760431cc729821271eaea015416604051908152f35b346102335760a036600319011261023357610701610f11565b5061070a610f27565b5060443567ffffffffffffffff81116102335761072b903690600401610ee0565b505060643567ffffffffffffffff81116102335761074d903690600401610ee0565b505060843567ffffffffffffffff81116102335761076f903690600401610f3d565b505060206040517fbc197c81000000000000000000000000000000000000000000000000000000008152f35b34610233575f3660031901126102335760206001600160a01b037fdd3fd67aef415aded9493b31ad20a02d2991d4bb2760431cc729821271eaea005416604051908152f35b5034610233575f3660031901126102335761015a6001600160e01b031961080892163361118b565b7fcd5ed15c6e187e77e9aee88184c21f4f2182ab5827cb3b7e07fbedcd63f033005460ff81166108885760019060ff1916177fcd5ed15c6e187e77e9aee88184c21f4f2182ab5827cb3b7e07fbedcd63f03300557f62e78cea01bee320cd4e420270b5ea74000d11b0c9f74754ebdbfc544b05a2586020604051338152a1005b7fd93c0665000000000000000000000000000000000000000000000000000000005f5260045ffd5b503461023357602036600319011261023357600435906001600160a01b038216809203610233576001600160a01b037fdd3fd67aef415aded9493b31ad20a02d2991d4bb2760431cc729821271eaea0054163314908115610989575b501561023357806001600160a01b03197fdd3fd67aef415aded9493b31ad20a02d2991d4bb2760431cc729821271eaea015416177fdd3fd67aef415aded9493b31ad20a02d2991d4bb2760431cc729821271eaea0155337fa3396fd7f6e0a21b50e5089d2da70d5ac0a3bbbd1f617a93f134b763899801985f80a3005b7fdd3fd67aef415aded9493b31ad20a02d2991d4bb2760431cc729821271eaea015460405163b700961360e01b81523360048201523060248201526001600160e01b0319929092166044830152909150602090829060649082906001600160a01b03165afa908115610228575f91610a03575b505f61090c565b610a1c915060203d6020116102215761021381836110af565b5f6109fc565b34610233576020366003190112610233576001600160a01b03610a43610f11565b165f525f60205260206001600160a01b0360405f205416604051908152f35b34610233575f36600319011261023357602060ff7fcd5ed15c6e187e77e9aee88184c21f4f2182ab5827cb3b7e07fbedcd63f0330054166040519015158152f35b5034610233575f3660031901126102335761015a6001600160e01b0319610acb92163361118b565b7fcd5ed15c6e187e77e9aee88184c21f4f2182ab5827cb3b7e07fbedcd63f033005460ff811615610b485760ff19167fcd5ed15c6e187e77e9aee88184c21f4f2182ab5827cb3b7e07fbedcd63f03300557f5db9ee0a495bf2e6ff9c91a7834c1ba4fdd244a5e8aa4e537bd38aeae4b073aa6020604051338152a1005b7f8dfc202b000000000000000000000000000000000000000000000000000000005f5260045ffd5b5034610233576040366003190112610233576001600160a01b0380610b93610f11565b92610bab61015a6001600160e01b0319610269610f27565b169116805f525f60205260405f20826001600160a01b03198254161790557f3cda29cdb79816ebd803e7c42da9b0bd76d5e7874a94abb4fae13ff444e353fb5f80a3005b3461023357608036600319011261023357610c08610f11565b50610c11610f27565b5060643567ffffffffffffffff811161023357610c32903690600401610f3d565b505060206040517f150b7a02000000000000000000000000000000000000000000000000000000008152f35b5034610233576020366003190112610233576004359067ffffffffffffffff821161023357610caa61015a610ca06001600160e01b0319943690600401610ee0565b949093163361118b565b8115610e9c575f5b828110610cbb57005b806001600160a01b03610cda610cd5610d52948787610ff5565b61102b565b165f525f60205260206001600160a01b0360405f205416610d0a610d02610cd5858989610ff5565b82151561103f565b610d21610d18848888610ff5565b8381019061107c565b6040610d31868a8a969596610ff5565b013592604051968794859384936336e1b10b60e21b855233600486016110fd565b03915afa91821561022857600192610d80915f91610e7e575b50610d7a610cd5848888610ff5565b9061103f565b610dc56101db610d94610cd5848888610ff5565b610dac610da2858989610ff5565b602081019061107c565b92906040610dbb878b8b610ff5565b0135933691611155565b817f2f13a569f6d2fba5618730b89cb049a8d430f6bd0aa6eea26e948d8d663d7c766001600160e01b0319878784610e01610da2828585610ff5565b9390358581169460048110610e66575b5050916040610e3a8385610e34610cd56001600160a01b0397610e5d9988610ff5565b94610ff5565b013560405195869516855260208501526060604085015216956060830190610f6b565b0390a301610cb2565b60040360031b86901b16851693506040610e3a610e11565b610e96915060203d81116102215761021381836110af565b5f610d6b565b606460405162461bcd60e51b815260206004820152601160248201527f4e6f2063616c6c732070726f76696465640000000000000000000000000000006044820152fd5b9181601f840112156102335782359167ffffffffffffffff8311610233576020808501948460051b01011161023357565b600435906001600160a01b038216820361023357565b602435906001600160a01b038216820361023357565b9181601f840112156102335782359167ffffffffffffffff8311610233576020838186019501011161023357565b91908251928382525f5b848110610f95575050825f602080949584010152601f8019910116010190565b80602080928401015182828601015201610f75565b15610fb157565b606460405162461bcd60e51b815260206004820152600c60248201527f554e415554484f52495a454400000000000000000000000000000000000000006044820152fd5b91908110156110175760051b81013590605e1981360301821215610233570190565b634e487b7160e01b5f52603260045260245ffd5b356001600160a01b03811681036102335790565b156110475750565b6001600160a01b03907fe2b9c0ef000000000000000000000000000000000000000000000000000000005f521660045260245ffd5b903590601e1981360301821215610233570180359067ffffffffffffffff82116102335760200191813603831361023357565b90601f8019910116810190811067ffffffffffffffff8211176110d157604052565b634e487b7160e01b5f52604160045260245ffd5b90816020910312610233575180151581036102335790565b949392806040936001600160a01b0360809416885260606020890152816060890152838801375f828288010152601f8019910116850101930152565b67ffffffffffffffff81116110d157601f01601f191660200190565b92919261116182611139565b9161116f60405193846110af565b829481845281830111610233578281602093845f960137010152565b6001600160a01b037fdd3fd67aef415aded9493b31ad20a02d2991d4bb2760431cc729821271eaea015416918215159283611201575b505081156111cd575090565b90506001600160a01b03807fdd3fd67aef415aded9493b31ad20a02d2991d4bb2760431cc729821271eaea00541691161490565b60405163b700961360e01b81526001600160a01b03841660048201523060248201526001600160e01b031992909216604483015291925090602090829060649082905afa908115610228575f9161125c575b50905f806111c1565b611275915060203d6020116102215761021381836110af565b5f611253565b909291928347106112d0575f816112c594956020839451920190855af13d156112c8573d916112a983611139565b926112b760405194856110af565b83523d5f602085013e611300565b90565b606091611300565b83477fcf479181000000000000000000000000000000000000000000000000000000005f5260045260245260445ffd5b9061133d575080511561131557805190602001fd5b7fd6bda275000000000000000000000000000000000000000000000000000000005f5260045ffd5b81511580611383575b61134e575090565b6001600160a01b03907f9996b315000000000000000000000000000000000000000000000000000000005f521660045260245ffd5b50803b15611346565b60ff7ff0c57e16840df040f15088dc2f81fe391c3923bec73e23a9662efc9c229c6a005460401c16156113bb57565b7fd7e6bcf8000000000000000000000000000000000000000000000000000000005f5260045ffdfea164736f6c634300081c000af0c57e16840df040f15088dc2f81fe391c3923bec73e23a9662efc9c229c6a00","linkReferences":{}},"methodIdentifiers":{"authority()":"bf7e214f","guards(address)":"6b462151","initialize(address)":"c4d66de8","isAuthorized(address,bytes4)":"d9972b96","manage(address,bytes,uint256)":"f6e715d0","manageBatch((address,bytes,uint256)[])":"12d36fd3","onERC1155BatchReceived(address,address,uint256[],uint256[],bytes)":"bc197c81","onERC1155Received(address,address,uint256,uint256,bytes)":"f23a6e61","onERC721Received(address,address,uint256,bytes)":"150b7a02","owner()":"8da5cb5b","pause()":"8456cb59","paused()":"5c975abb","setAuthority(address)":"7a9e5e4b","setGuard(address,address)":"227773ee","transferOwnership(address)":"f2fde38b","unpause()":"3f4ba83a"},"storageLayout":{"storage":[{"astId":52424,"contract":"src/crosschain/SubVault.sol:SubVault","label":"guards","offset":0,"slot":"0","type":"t_mapping(t_address,t_contract(ITransactionGuard)53555)"}],"types":{"t_address":{"encoding":"inplace","label":"address","numberOfBytes":"20"},"t_contract(ITransactionGuard)53555":{"encoding":"inplace","label":"contract ITransactionGuard","numberOfBytes":"20"},"t_mapping(t_address,t_contract(ITransactionGuard)53555)":{"encoding":"mapping","key":"t_address","label":"mapping(address => contract ITransactionGuard)","numberOfBytes":"32","value":"t_contract(ITransactionGuard)53555"}}},"id":66}