{"abi":[{"type":"function","name":"DEPOSIT_SELECTOR","inputs":[],"outputs":[{"name":"","type":"bytes4","internalType":"bytes4"}],"stateMutability":"view"},{"type":"function","name":"WITHDRAW_SELECTOR","inputs":[],"outputs":[{"name":"","type":"bytes4","internalType":"bytes4"}],"stateMutability":"view"},{"type":"function","name":"validate","inputs":[{"name":"","type":"address","internalType":"address"},{"name":"data","type":"bytes","internalType":"bytes"},{"name":"","type":"uint256","internalType":"uint256"}],"outputs":[{"name":"","type":"bool","internalType":"bool"}],"stateMutability":"pure"}],"bytecode":{"object":"0x60808060405234601557610188908161001a8239f35b5f80fdfe6080806040526004361015610012575f80fd5b5f3560e01c9081630c1c0026146100e95750806312e9f563146100c85763db86c42c1461003d575f80fd5b346100c45760603660031901126100c45760043573ffffffffffffffffffffffffffffffffffffffff8116036100c45760243567ffffffffffffffff81116100c457366023820112156100c45780600401359067ffffffffffffffff82116100c45736602483830101116100c45760209160246100ba9201610108565b6040519015158152f35b5f80fd5b346100c4575f3660031901126100c4576020604051630d0e30db60e41b8152f35b346100c4575f3660031901126100c45780632e1a7d4d60e01b60209252f35b907fffffffff0000000000000000000000000000000000000000000000000000000091358281169160048110610166575b505016630d0e30db60e41b811461016057632e1a7d4d60e01b1461015b575f90565b600190565b50600190565b839250829060040360031b1b16165f8061013956fea164736f6c634300081c000a","linkReferences":{}},"methodIdentifiers":{"DEPOSIT_SELECTOR()":"12e9f563","WITHDRAW_SELECTOR()":"0c1c0026","validate(address,bytes,uint256)":"db86c42c"},"storageLayout":{"storage":[],"types":{}},"id":77}