{"abi":[{"type":"constructor","inputs":[{"name":"_owner","type":"address","internalType":"address"},{"name":"_vault","type":"address","internalType":"address"}],"stateMutability":"nonpayable"},{"type":"receive","stateMutability":"payable"},{"type":"function","name":"dstEidToVault","inputs":[{"name":"dstEid","type":"uint32","internalType":"uint32"}],"outputs":[{"name":"remoteVault","type":"address","internalType":"address"}],"stateMutability":"view"},{"type":"function","name":"emergencyRecover","inputs":[{"name":"_token","type":"address","internalType":"address"},{"name":"_to","type":"address","internalType":"address"},{"name":"_amount","type":"uint256","internalType":"uint256"}],"outputs":[],"stateMutability":"nonpayable"},{"type":"function","name":"owner","inputs":[],"outputs":[{"name":"","type":"address","internalType":"address"}],"stateMutability":"view"},{"type":"function","name":"quoteSendToVault","inputs":[{"name":"_dstEid","type":"uint32","internalType":"uint32"},{"name":"_recipient","type":"address","internalType":"address"},{"name":"_token","type":"address","internalType":"address"},{"name":"_amount","type":"uint256","internalType":"uint256"},{"name":"_options","type":"bytes","internalType":"bytes"},{"name":"_payInLzToken","type":"bool","internalType":"bool"}],"outputs":[{"name":"fee","type":"tuple","internalType":"struct MessagingFee","components":[{"name":"nativeFee","type":"uint256","internalType":"uint256"},{"name":"lzTokenFee","type":"uint256","internalType":"uint256"}]}],"stateMutability":"view"},{"type":"function","name":"renounceOwnership","inputs":[],"outputs":[],"stateMutability":"nonpayable"},{"type":"function","name":"sendToVault","inputs":[{"name":"_dstEid","type":"uint32","internalType":"uint32"},{"name":"_recipient","type":"address","internalType":"address"},{"name":"_token","type":"address","internalType":"address"},{"name":"_amount","type":"uint256","internalType":"uint256"},{"name":"_options","type":"bytes","internalType":"bytes"}],"outputs":[{"name":"receipt","type":"tuple","internalType":"struct MessagingReceipt","components":[{"name":"guid","type":"bytes32","internalType":"bytes32"},{"name":"nonce","type":"uint64","internalType":"uint64"},{"name":"fee","type":"tuple","internalType":"struct MessagingFee","components":[{"name":"nativeFee","type":"uint256","internalType":"uint256"},{"name":"lzTokenFee","type":"uint256","internalType":"uint256"}]}]},{"name":"oftReceipt","type":"tuple","internalType":"struct OFTReceipt","components":[{"name":"amountSentLD","type":"uint256","internalType":"uint256"},{"name":"amountReceivedLD","type":"uint256","internalType":"uint256"}]}],"stateMutability":"payable"},{"type":"function","name":"setRemoteVault","inputs":[{"name":"_dstEid","type":"uint32","internalType":"uint32"},{"name":"_remoteVault","type":"address","internalType":"address"}],"outputs":[],"stateMutability":"nonpayable"},{"type":"function","name":"setTokenConfig","inputs":[{"name":"_token","type":"address","internalType":"address"},{"name":"_oft","type":"address","internalType":"address"}],"outputs":[],"stateMutability":"nonpayable"},{"type":"function","name":"setVault","inputs":[{"name":"_newVault","type":"address","internalType":"address"}],"outputs":[],"stateMutability":"nonpayable"},{"type":"function","name":"tokenToOft","inputs":[{"name":"token","type":"address","internalType":"address"}],"outputs":[{"name":"oft","type":"address","internalType":"address"}],"stateMutability":"view"},{"type":"function","name":"transferOwnership","inputs":[{"name":"newOwner","type":"address","internalType":"address"}],"outputs":[],"stateMutability":"nonpayable"},{"type":"function","name":"vault","inputs":[],"outputs":[{"name":"","type":"address","internalType":"address"}],"stateMutability":"view"},{"type":"event","name":"EmergencyRecovery","inputs":[{"name":"token","type":"address","indexed":true,"internalType":"address"},{"name":"to","type":"address","indexed":true,"internalType":"address"},{"name":"amount","type":"uint256","indexed":false,"internalType":"uint256"}],"anonymous":false},{"type":"event","name":"MessageSent","inputs":[{"name":"dstEid","type":"uint32","indexed":true,"internalType":"uint32"},{"name":"recipient","type":"address","indexed":true,"internalType":"address"},{"name":"token","type":"address","indexed":true,"internalType":"address"},{"name":"amount","type":"uint256","indexed":false,"internalType":"uint256"}],"anonymous":false},{"type":"event","name":"OwnershipTransferred","inputs":[{"name":"previousOwner","type":"address","indexed":true,"internalType":"address"},{"name":"newOwner","type":"address","indexed":true,"internalType":"address"}],"anonymous":false},{"type":"event","name":"RemoteVaultSet","inputs":[{"name":"dstEid","type":"uint32","indexed":true,"internalType":"uint32"},{"name":"remoteVault","type":"address","indexed":true,"internalType":"address"}],"anonymous":false},{"type":"event","name":"TokenConfigSet","inputs":[{"name":"token","type":"address","indexed":true,"internalType":"address"},{"name":"oft","type":"address","indexed":true,"internalType":"address"}],"anonymous":false},{"type":"event","name":"VaultUpdated","inputs":[{"name":"oldVault","type":"address","indexed":true,"internalType":"address"},{"name":"newVault","type":"address","indexed":true,"internalType":"address"}],"anonymous":false},{"type":"error","name":"InvalidAddress","inputs":[]},{"type":"error","name":"InvalidFee","inputs":[]},{"type":"error","name":"InvalidRecipient","inputs":[]},{"type":"error","name":"InvalidVault","inputs":[]},{"type":"error","name":"OnlyVault","inputs":[]},{"type":"error","name":"OwnableInvalidOwner","inputs":[{"name":"owner","type":"address","internalType":"address"}]},{"type":"error","name":"OwnableUnauthorizedAccount","inputs":[{"name":"account","type":"address","internalType":"address"}]},{"type":"error","name":"SafeERC20FailedDecreaseAllowance","inputs":[{"name":"spender","type":"address","internalType":"address"},{"name":"currentAllowance","type":"uint256","internalType":"uint256"},{"name":"requestedDecrease","type":"uint256","internalType":"uint256"}]},{"type":"error","name":"SafeERC20FailedOperation","inputs":[{"name":"token","type":"address","internalType":"address"}]},{"type":"error","name":"TokenNotSupported","inputs":[]},{"type":"error","name":"VaultNotAllowed","inputs":[]}],"bytecode":{"object":"0x6080346100fc57601f61123938819003918201601f19168301916001600160401b038311848410176101005780849260409485528339810103126100fc57610052602061004b83610114565b9201610114565b6001600160a01b039091169081156100e9575f80546001600160a01b031981168417825560405193916001600160a01b03909116907f8be0079c531659141344cd1fd0a4f28419497f9722a3daafe3b4186f6b6457e09080a36001600160a01b031680156100da57600180546001600160a01b03191691909117905561111090816101298239f35b630681d31960e51b5f5260045ffd5b631e4fbdf760e01b5f525f60045260245ffd5b5f80fd5b634e487b7160e01b5f52604160045260245ffd5b51906001600160a01b03821682036100fc5756fe608080604052600436101561001c575b50361561001a575f80fd5b005b5f3560e01c9081631b3a2bff1461077d57508063343e2874146106b4578063381550bf14610633578063495fdfcb1461045c5780635e520ec01461041e5780636817031b14610384578063715018a61461032d5780638da5cb5b14610308578063ad1329d1146101b3578063f2fde38b14610117578063f86245af146100d65763fbfa77cf146100ac575f61000f565b346100d2575f3660031901126100d25760206001600160a01b0360015416604051908152f35b5f80fd5b346100d25760203660031901126100d2576001600160a01b036100f7610d8c565b165f52600260205260206001600160a01b0360405f205416604051908152f35b346100d25760203660031901126100d2576001600160a01b03610138610d8c565b610140610f8f565b168015610187576001600160a01b035f54826001600160a01b03198216175f55167f8be0079c531659141344cd1fd0a4f28419497f9722a3daafe3b4186f6b6457e05f80a3005b7f1e4fbdf7000000000000000000000000000000000000000000000000000000005f525f60045260245ffd5b346100d25760603660031901126100d2576101cc610d8c565b6101d4610d60565b6044356101df610f8f565b6001600160a01b0382169283156102e0576001600160a01b0316918261025b57505f81848115610251575b5f92839283928392f1156102465760207f1ac506e936e7f02f4036dbe44708f5e8d72af9ace8745a29fd391481a8fbcb87915b604051908152a3005b6040513d5f823e3d90fd5b6108fc925061020a565b6040517fa9059cbb000000000000000000000000000000000000000000000000000000006020808301919091526001600160a01b03929092166024820152604480820184905281527f1ac506e936e7f02f4036dbe44708f5e8d72af9ace8745a29fd391481a8fbcb8792906102db906102d5606482610e38565b85610fce565b61023d565b7f9c8d2cd2000000000000000000000000000000000000000000000000000000005f5260045ffd5b346100d2575f3660031901126100d25760206001600160a01b035f5416604051908152f35b346100d2575f3660031901126100d257610345610f8f565b5f6001600160a01b0381546001600160a01b031981168355167f8be0079c531659141344cd1fd0a4f28419497f9722a3daafe3b4186f6b6457e08280a3005b346100d25760203660031901126100d2576001600160a01b036103a5610d8c565b6103ad610f8f565b1680156103f6576001600160a01b03600154826001600160a01b0319821617600155167f483bdedaaf23706a9800ac1af0d852b34927780d79f9d6ba60a80c7cad75ea395f80a3005b7fd03a6320000000000000000000000000000000000000000000000000000000005f5260045ffd5b346100d25760203660031901126100d25763ffffffff61043c610d4d565b165f52600360205260206001600160a01b0360405f205416604051908152f35b346100d25760c03660031901126100d257610475610d4d565b61047d610d60565b610485610d76565b9160643560843567ffffffffffffffff81116100d2576104a9903690600401610da2565b92909160a435958615158097036100d2576001600160a01b03906104cb610e5a565b50165f5260026020526001600160a01b0360405f20541692831561060b576126ac8202948286046126ac14831517156105f7576127106105909661053f946001600160a01b0360409a63ffffffff8c51996105258b610e00565b168952166020880152898701520460608501523691610e72565b60808201528351610551602082610e38565b5f815260a08201528351610566602082610e38565b5f815260c08201528351809581948293633b6f743b60e01b84528760048501526044840190610f1f565b90602483015203915afa8015610246575f906105bc575b60409060208251918051835201516020820152f35b5060403d6040116105f0575b6105d28183610e38565b8101906040818303126100d2576040916105eb91610eb8565b6105a7565b503d6105c8565b634e487b7160e01b5f52601160045260245ffd5b7f3dd1b305000000000000000000000000000000000000000000000000000000005f5260045ffd5b346100d25760403660031901126100d25761064c610d4d565b6001600160a01b0361065c610d60565b610664610f8f565b169081156103f65763ffffffff16805f52600360205260405f20826001600160a01b03198254161790557fce2cc9e1a8cbda11c7be0d5ad19382d36e0a5c2412ad6413a60c7ee2b89944025f80a3005b346100d25760403660031901126100d2576106cd610d8c565b6001600160a01b036106dd610d60565b916106e6610f8f565b16908115801561076c575b610744576001600160a01b0390825f52600260205260405f208282166001600160a01b031982541617905516907ffdeaf08f9292008d1a3009a8b1cf284396d53ea9ec986628bf3e8c63001315e65f80a3005b7fe6c4247b000000000000000000000000000000000000000000000000000000005f5260045ffd5b506001600160a01b038116156106f1565b60a03660031901126100d257610791610d4d565b9061079a610d60565b6107a2610d76565b926064359060843567ffffffffffffffff81116100d2576107c7903690600401610da2565b9590946107d381610dd0565b5f81525f602082015260408051916107ea83610e1c565b5f83525f602084015201526107fd610e5a565b506001600160a01b036001541691823303610d25576108756001600160a01b0363ffffffff931693604051907f23b872dd00000000000000000000000000000000000000000000000000000000602083015260248201523060448201528560648201526064815261086f608482610e38565b84610fce565b1692835f5260036020526001600160a01b038060405f2054169116809103610cfd57815f5260026020526001600160a01b0360405f20541695861561060b576126ac8402958487046126ac14851517156105f7576108f991612710604051986108dd8a610e00565b888a528560208b01528760408b01520460608901523691610e72565b608086015260209360405161090e8682610e38565b5f815260a08701526040516109238682610e38565b5f815260c087015260405195633b6f743b60e01b875260406004880152604087806109516044820185610f1f565b5f602483015203818b5afa968715610246575f97610cc2575b5086513410610c9a57604051636eb1769f60e11b81523060048201526001600160a01b03891660248201528681604481885afa908115610246575f91610c6d575b508581018091116105f75760c0916109c588928b8861103b565b610a098951916040519a8b94859384937fc7c7f5b3000000000000000000000000000000000000000000000000000000008552608060048601526084850190610f1f565b91805160248501520151604483015233606483015203918b5af1938415610246575f965f95610be8575b50604051636eb1769f60e11b81523060048201526001600160a01b0389166024820152978689604481885afa988915610246575f99610bb9575b5088610adf575b5060c09750857fab099e43511572614679de459c0af7ab8af28383254c31f309436bc371f79d3d91604051908152a48160408051948051865267ffffffffffffffff8382015116838701520151805160408601520151606084015280516080840152015160a0820152f35b604051636eb1769f60e11b81523060048201526001600160a01b03821660248201528781604481895afa908115610246575f91610b8c575b50898110610b595791610b52889260c09b7fab099e43511572614679de459c0af7ab8af28383254c31f309436bc371f79d3d9503908861103b565b9150610a74565b89917fe570110f000000000000000000000000000000000000000000000000000000005f5260045260245260445260645ffd5b90508781813d8311610bb2575b610ba38183610e38565b810103126100d257518a610b17565b503d610b99565b9098508681813d8311610be1575b610bd18183610e38565b810103126100d257519789610a6d565b503d610bc7565b9650935060c03d60c011610c66575b610c018188610e38565b86019580870360c081126100d2576080136100d25760405196610c2388610dd0565b815188528682015167ffffffffffffffff811681036100d257610c5f92608091898b0152610c548360408301610eb8565b60408b015201610eb8565b9388610a33565b503d610bf7565b90508681813d8311610c93575b610c848183610e38565b810103126100d25751896109ab565b503d610c7a565b7f58d620b3000000000000000000000000000000000000000000000000000000005f5260045ffd5b90965060403d604011610cf6575b610cda8183610e38565b81016040828203126100d257610cef91610eb8565b958861096a565b503d610cd0565b7f5040aaa3000000000000000000000000000000000000000000000000000000005f5260045ffd5b7f8d1af8bd000000000000000000000000000000000000000000000000000000005f5260045ffd5b6004359063ffffffff821682036100d257565b602435906001600160a01b03821682036100d257565b604435906001600160a01b03821682036100d257565b600435906001600160a01b03821682036100d257565b9181601f840112156100d25782359167ffffffffffffffff83116100d257602083818601950101116100d257565b6060810190811067ffffffffffffffff821117610dec57604052565b634e487b7160e01b5f52604160045260245ffd5b60e0810190811067ffffffffffffffff821117610dec57604052565b6040810190811067ffffffffffffffff821117610dec57604052565b90601f8019910116810190811067ffffffffffffffff821117610dec57604052565b60405190610e6782610e1c565b5f6020838281520152565b92919267ffffffffffffffff8211610dec5760405191610e9c601f8201601f191660200184610e38565b8294818452818301116100d2578281602093845f960137010152565b91908260409103126100d257604051610ed081610e1c565b6020808294805184520151910152565b91908251928382525f5b848110610f0a575050825f602080949584010152601f8019910116010190565b80602080928401015182828601015201610eea565b610f8c9163ffffffff825116815260208201516020820152604082015160408201526060820151606082015260c0610f7b610f69608085015160e0608086015260e0850190610ee0565b60a085015184820360a0860152610ee0565b9201519060c0818403910152610ee0565b90565b6001600160a01b035f54163303610fa257565b7f118cdaa7000000000000000000000000000000000000000000000000000000005f523360045260245ffd5b905f602091828151910182855af115610246575f513d61103257506001600160a01b0381163b155b610ffd5750565b6001600160a01b03907f5274afe7000000000000000000000000000000000000000000000000000000005f521660045260245ffd5b60011415610ff6565b60405163095ea7b360e01b60208083019182526001600160a01b0385166024840152604480840196909652948252929390925f9061107a606486610e38565b84519082855af15f513d826110de575b50501561109657505050565b6110d76110dc936001600160a01b036040519163095ea7b360e01b60208401521660248201525f6044820152604481526110d1606482610e38565b82610fce565b610fce565b565b9091506110fb57506001600160a01b0381163b15155b5f8061108a565b6001146110f456fea164736f6c634300081c000a","linkReferences":{}},"methodIdentifiers":{"dstEidToVault(uint32)":"5e520ec0","emergencyRecover(address,address,uint256)":"ad1329d1","owner()":"8da5cb5b","quoteSendToVault(uint32,address,address,uint256,bytes,bool)":"495fdfcb","renounceOwnership()":"715018a6","sendToVault(uint32,address,address,uint256,bytes)":"1b3a2bff","setRemoteVault(uint32,address)":"381550bf","setTokenConfig(address,address)":"343e2874","setVault(address)":"6817031b","tokenToOft(address)":"f86245af","transferOwnership(address)":"f2fde38b","vault()":"fbfa77cf"},"storageLayout":{"storage":[{"astId":7408,"contract":"src/adapters/layerzero/CrosschainStrategyAdapter.sol:CrosschainStrategyAdapter","label":"_owner","offset":0,"slot":"0","type":"t_address"},{"astId":60564,"contract":"src/adapters/layerzero/CrosschainStrategyAdapter.sol:CrosschainStrategyAdapter","label":"vault","offset":0,"slot":"1","type":"t_address"},{"astId":60569,"contract":"src/adapters/layerzero/CrosschainStrategyAdapter.sol:CrosschainStrategyAdapter","label":"tokenToOft","offset":0,"slot":"2","type":"t_mapping(t_address,t_address)"},{"astId":60574,"contract":"src/adapters/layerzero/CrosschainStrategyAdapter.sol:CrosschainStrategyAdapter","label":"dstEidToVault","offset":0,"slot":"3","type":"t_mapping(t_uint32,t_address)"}],"types":{"t_address":{"encoding":"inplace","label":"address","numberOfBytes":"20"},"t_mapping(t_address,t_address)":{"encoding":"mapping","key":"t_address","label":"mapping(address => address)","numberOfBytes":"32","value":"t_address"},"t_mapping(t_uint32,t_address)":{"encoding":"mapping","key":"t_uint32","label":"mapping(uint32 => address)","numberOfBytes":"32","value":"t_address"},"t_uint32":{"encoding":"inplace","label":"uint32","numberOfBytes":"4"}}},"id":113}