{"abi":[{"type":"constructor","inputs":[{"name":"_owner","type":"address","internalType":"address"},{"name":"_vault","type":"address","internalType":"address"},{"name":"_wrappedNative","type":"address","internalType":"address"}],"stateMutability":"nonpayable"},{"type":"receive","stateMutability":"payable"},{"type":"function","name":"dstEidToVault","inputs":[{"name":"dstEid","type":"uint32","internalType":"uint32"}],"outputs":[{"name":"remoteVault","type":"address","internalType":"address"}],"stateMutability":"view"},{"type":"function","name":"emergencyRecover","inputs":[{"name":"_token","type":"address","internalType":"address"},{"name":"_to","type":"address","internalType":"address"},{"name":"_amount","type":"uint256","internalType":"uint256"}],"outputs":[],"stateMutability":"nonpayable"},{"type":"function","name":"owner","inputs":[],"outputs":[{"name":"","type":"address","internalType":"address"}],"stateMutability":"view"},{"type":"function","name":"quoteSendToVault","inputs":[{"name":"_dstEid","type":"uint32","internalType":"uint32"},{"name":"_recipient","type":"address","internalType":"address"},{"name":"_token","type":"address","internalType":"address"},{"name":"_amount","type":"uint256","internalType":"uint256"},{"name":"_options","type":"bytes","internalType":"bytes"},{"name":"_payInLzToken","type":"bool","internalType":"bool"}],"outputs":[{"name":"fee","type":"tuple","internalType":"struct MessagingFee","components":[{"name":"nativeFee","type":"uint256","internalType":"uint256"},{"name":"lzTokenFee","type":"uint256","internalType":"uint256"}]}],"stateMutability":"view"},{"type":"function","name":"renounceOwnership","inputs":[],"outputs":[],"stateMutability":"nonpayable"},{"type":"function","name":"sendToVault","inputs":[{"name":"_dstEid","type":"uint32","internalType":"uint32"},{"name":"_recipient","type":"address","internalType":"address"},{"name":"_token","type":"address","internalType":"address"},{"name":"_amount","type":"uint256","internalType":"uint256"},{"name":"_options","type":"bytes","internalType":"bytes"}],"outputs":[{"name":"receipt","type":"tuple","internalType":"struct MessagingReceipt","components":[{"name":"guid","type":"bytes32","internalType":"bytes32"},{"name":"nonce","type":"uint64","internalType":"uint64"},{"name":"fee","type":"tuple","internalType":"struct MessagingFee","components":[{"name":"nativeFee","type":"uint256","internalType":"uint256"},{"name":"lzTokenFee","type":"uint256","internalType":"uint256"}]}]},{"name":"oftReceipt","type":"tuple","internalType":"struct OFTReceipt","components":[{"name":"amountSentLD","type":"uint256","internalType":"uint256"},{"name":"amountReceivedLD","type":"uint256","internalType":"uint256"}]}],"stateMutability":"payable"},{"type":"function","name":"setRemoteVault","inputs":[{"name":"_dstEid","type":"uint32","internalType":"uint32"},{"name":"_remoteVault","type":"address","internalType":"address"}],"outputs":[],"stateMutability":"nonpayable"},{"type":"function","name":"setTokenConfig","inputs":[{"name":"_token","type":"address","internalType":"address"},{"name":"_oft","type":"address","internalType":"address"}],"outputs":[],"stateMutability":"nonpayable"},{"type":"function","name":"setVault","inputs":[{"name":"_newVault","type":"address","internalType":"address"}],"outputs":[],"stateMutability":"nonpayable"},{"type":"function","name":"tokenToOft","inputs":[{"name":"token","type":"address","internalType":"address"}],"outputs":[{"name":"oft","type":"address","internalType":"address"}],"stateMutability":"view"},{"type":"function","name":"transferOwnership","inputs":[{"name":"newOwner","type":"address","internalType":"address"}],"outputs":[],"stateMutability":"nonpayable"},{"type":"function","name":"vault","inputs":[],"outputs":[{"name":"","type":"address","internalType":"address"}],"stateMutability":"view"},{"type":"function","name":"wrappedNative","inputs":[],"outputs":[{"name":"","type":"address","internalType":"address"}],"stateMutability":"view"},{"type":"event","name":"EmergencyRecovery","inputs":[{"name":"token","type":"address","indexed":true,"internalType":"address"},{"name":"to","type":"address","indexed":true,"internalType":"address"},{"name":"amount","type":"uint256","indexed":false,"internalType":"uint256"}],"anonymous":false},{"type":"event","name":"MessageSent","inputs":[{"name":"dstEid","type":"uint32","indexed":true,"internalType":"uint32"},{"name":"recipient","type":"address","indexed":true,"internalType":"address"},{"name":"token","type":"address","indexed":true,"internalType":"address"},{"name":"amount","type":"uint256","indexed":false,"internalType":"uint256"}],"anonymous":false},{"type":"event","name":"OwnershipTransferred","inputs":[{"name":"previousOwner","type":"address","indexed":true,"internalType":"address"},{"name":"newOwner","type":"address","indexed":true,"internalType":"address"}],"anonymous":false},{"type":"event","name":"RemoteVaultSet","inputs":[{"name":"dstEid","type":"uint32","indexed":true,"internalType":"uint32"},{"name":"remoteVault","type":"address","indexed":true,"internalType":"address"}],"anonymous":false},{"type":"event","name":"TokenConfigSet","inputs":[{"name":"token","type":"address","indexed":true,"internalType":"address"},{"name":"oft","type":"address","indexed":true,"internalType":"address"}],"anonymous":false},{"type":"event","name":"VaultUpdated","inputs":[{"name":"oldVault","type":"address","indexed":true,"internalType":"address"},{"name":"newVault","type":"address","indexed":true,"internalType":"address"}],"anonymous":false},{"type":"error","name":"InvalidAddress","inputs":[]},{"type":"error","name":"InvalidFee","inputs":[]},{"type":"error","name":"InvalidRecipient","inputs":[]},{"type":"error","name":"InvalidVault","inputs":[]},{"type":"error","name":"OnlyVault","inputs":[]},{"type":"error","name":"OwnableInvalidOwner","inputs":[{"name":"owner","type":"address","internalType":"address"}]},{"type":"error","name":"OwnableUnauthorizedAccount","inputs":[{"name":"account","type":"address","internalType":"address"}]},{"type":"error","name":"SafeERC20FailedDecreaseAllowance","inputs":[{"name":"spender","type":"address","internalType":"address"},{"name":"currentAllowance","type":"uint256","internalType":"uint256"},{"name":"requestedDecrease","type":"uint256","internalType":"uint256"}]},{"type":"error","name":"SafeERC20FailedOperation","inputs":[{"name":"token","type":"address","internalType":"address"}]},{"type":"error","name":"TokenNotSupported","inputs":[]},{"type":"error","name":"VaultNotAllowed","inputs":[]}],"bytecode":{"object":"0x60a03461011c57601f61143238819003918201601f19168301916001600160401b038311848410176101205780849260609460405283398101031261011c5761004781610134565b61005f604061005860208501610134565b9301610134565b6001600160a01b03909116918215610109575f80546001600160a01b031981168517825560405194916001600160a01b03909116907f8be0079c531659141344cd1fd0a4f28419497f9722a3daafe3b4186f6b6457e09080a36001600160a01b031680156100fa57600180546001600160a01b0319169190911790556080526112e9908161014982396080518181816101d401526109ad0152f35b630681d31960e51b5f5260045ffd5b631e4fbdf760e01b5f525f60045260245ffd5b5f80fd5b634e487b7160e01b5f52604160045260245ffd5b51906001600160a01b038216820361011c5756fe608080604052600436101561001c575b50361561001a575f80fd5b005b5f905f3560e01c9081631b3a2bff146107c457508063343e2874146106f9578063381550bf14610667578063495fdfcb1461048d5780635e520ec01461044f5780636817031b146103cc578063715018a6146103735780638da5cb5b1461034d578063ad1329d1146101f8578063eb6d3a11146101b4578063f2fde38b14610116578063f86245af146100dc5763fbfa77cf0361000f57346100d957806003193601126100d95760206001600160a01b0360015416604051908152f35b80fd5b50346100d95760203660031901126100d9576001600160a01b03604060209282610104610edd565b16815260028452205416604051908152f35b50346100d95760203660031901126100d9576001600160a01b03610138610edd565b610140611168565b168015610188576001600160a01b038254826001600160a01b03198216178455167f8be0079c531659141344cd1fd0a4f28419497f9722a3daafe3b4186f6b6457e08380a380f35b6024827f1e4fbdf700000000000000000000000000000000000000000000000000000000815280600452fd5b50346100d957806003193601126100d95760206040516001600160a01b037f0000000000000000000000000000000000000000000000000000000000000000168152f35b50346100d95760603660031901126100d957610212610edd565b61021a610eb1565b604435610225611168565b6001600160a01b038216928315610325576001600160a01b031691826102a05750838184828215610297575b839283928392f11561028c5760207f1ac506e936e7f02f4036dbe44708f5e8d72af9ace8745a29fd391481a8fbcb87915b604051908152a380f35b6040513d85823e3d90fd5b506108fc610251565b6040517fa9059cbb000000000000000000000000000000000000000000000000000000006020808301919091526001600160a01b03929092166024820152604480820184905281527f1ac506e936e7f02f4036dbe44708f5e8d72af9ace8745a29fd391481a8fbcb8792906103209061031a606482610f89565b856111a7565b610282565b6004857f9c8d2cd2000000000000000000000000000000000000000000000000000000008152fd5b50346100d957806003193601126100d9576001600160a01b036020915416604051908152f35b50346100d957806003193601126100d95761038c611168565b806001600160a01b0381546001600160a01b031981168355167f8be0079c531659141344cd1fd0a4f28419497f9722a3daafe3b4186f6b6457e08280a380f35b50346100d95760203660031901126100d9576001600160a01b036103ee610edd565b6103f6611168565b168015610440576001600160a01b03600154826001600160a01b0319821617600155167f483bdedaaf23706a9800ac1af0d852b34927780d79f9d6ba60a80c7cad75ea398380a380f35b600482630681d31960e51b8152fd5b50346100d95760203660031901126100d9576001600160a01b03604060209263ffffffff61047b610e9e565b16815260038452205416604051908152f35b50346100d95760c03660031901126100d9576104a7610e9e565b6104af610eb1565b6104b7610ec7565b916064359160843567ffffffffffffffff8111610663576104dc903690600401610ef3565b909160a4359586151580970361065f576001600160a01b03906104fd610fab565b5016875260026020526001600160a01b03604088205416948515610650576126ac8102918183046126ac148215171561063c57926127106105759360409896936001600160a01b036105c6999763ffffffff8c519961055b8b610f51565b168952166020880152898701520460608501523691610fc3565b60808201528351610587602082610f89565b86815260a0820152835161059c602082610f89565b86815260c08201528351809581948293633b6f743b60e01b84528760048501526044840190611055565b90602483015203915afa9081156106315782916105f3575b60408260208251918051835201516020820152f35b905060403d60401161062a575b61060a8183610f89565b8101916040828403126100d9575060409161062491611009565b5f6105de565b503d610600565b6040513d84823e3d90fd5b602489634e487b7160e01b81526011600452fd5b600488633dd1b30560e01b8152fd5b8780fd5b8580fd5b50346100d95760403660031901126100d957610681610e9e565b6001600160a01b03610691610eb1565b610699611168565b169081156106ea5763ffffffff16808352600360205260408320826001600160a01b03198254161790557fce2cc9e1a8cbda11c7be0d5ad19382d36e0a5c2412ad6413a60c7ee2b89944028380a380f35b600483630681d31960e51b8152fd5b50346100d95760403660031901126100d957610713610edd565b6001600160a01b03610723610eb1565b9161072c611168565b1690811580156107b3575b61078b576001600160a01b03908284526002602052604084208282166001600160a01b031982541617905516907ffdeaf08f9292008d1a3009a8b1cf284396d53ea9ec986628bf3e8c63001315e68380a380f35b6004837fe6c4247b000000000000000000000000000000000000000000000000000000008152fd5b506001600160a01b03811615610737565b8260a0366003190112610b73576107d9610e9e565b6107e1610eb1565b916107ea610ec7565b916064359360843567ffffffffffffffff8111610b735761080f903690600401610ef3565b94909661081b81610f21565b5f81525f6020820152604080519161083283610f6d565b5f83525f60208401520152610845610fab565b506001600160a01b036001541692833303610e76576108b76001600160a01b0363ffffffff931694604051907f23b872dd00000000000000000000000000000000000000000000000000000000602083015260248201523060448201528860648201526064815261031a608482610f89565b16805f5260036020526001600160a01b038060405f2054169216809203610e4e57825f5260026020526001600160a01b0360405f205416948515610e3f576126ac8702978789046126ac1488151715610e2b5761093a916127106040519a61091e8c610f51565b858c528660208d01528a60408d01520460608b01523691610fc3565b608088015260209460405161094f8782610f89565b5f815260a08901526040516109648782610f89565b5f815260c0890152604051633b6f743b60e01b81526040600482015260408180610991604482018d611055565b5f60248301520381855afa908115610b68575f91610df2575b507f00000000000000000000000000000000000000000000000000000000000000006001600160a01b03168503610b7757843b15610b73576040517f2e1a7d4d0000000000000000000000000000000000000000000000000000000081528860048201525f81602481838a5af18015610b6857610b53575b5047610a2f89835161115b565b11610b44579760c09189610a478a610a659c5161115b565b604051809c8195829463c7c7f5b360e01b8452339160048501611125565b03925af1968715610b395760c09786918691610ae6575b50907fab099e43511572614679de459c0af7ab8af28383254c31f309436bc371f79d3d9195975b604051908152a48160408051948051865267ffffffffffffffff8382015116838701520151805160408601520151606084015280516080840152015160a0820152f35b7fab099e43511572614679de459c0af7ab8af28383254c31f309436bc371f79d3d929650610b2a9150893d8b11610b32575b610b228183610f89565b8101906110c5565b909591610a7c565b503d610b18565b6040513d86823e3d90fd5b6004866358d620b360e01b8152fd5b610b609196505f90610f89565b5f9489610a22565b6040513d5f823e3d90fd5b5f80fd5b809550979097513410610de357604051636eb1769f60e11b81523060048201526001600160a01b03891660248201528681604481885afa8015610b685788915f91610dae575b5095610bd9610bd260c09493610bfa9961115b565b8b88611214565b80519060405180988194829363c7c7f5b360e01b8452339160048501611125565b03918b5af18015610b68575f945f91610d89575b50604051636eb1769f60e11b81523060048201526001600160a01b038916602482015297949690948689604481885afa988915610b68575f99610d5a575b5088610c80575b5060c09750857fab099e43511572614679de459c0af7ab8af28383254c31f309436bc371f79d3d91610aa3565b604051636eb1769f60e11b81523060048201526001600160a01b03821660248201528781604481895afa908115610b68575f91610d2d575b50898110610cfa5791610cf3889260c09b7fab099e43511572614679de459c0af7ab8af28383254c31f309436bc371f79d3d95039088611214565b9150610c53565b89917fe570110f000000000000000000000000000000000000000000000000000000005f5260045260245260445260645ffd5b90508781813d8311610d53575b610d448183610f89565b81010312610b7357518a610cb8565b503d610d3a565b9098508681813d8311610d82575b610d728183610f89565b81010312610b7357519789610c4c565b503d610d68565b9050610da591945060c03d60c011610b3257610b228183610f89565b93909388610c0e565b80939250888092503d8311610ddc575b610dc88183610f89565b81010312610b735790518790610bd9610bbd565b503d610dbe565b6358d620b360e01b5f5260045ffd5b905060403d604011610e24575b610e098183610f89565b8101604082820312610b7357610e1e91611009565b896109aa565b503d610dff565b634e487b7160e01b5f52601160045260245ffd5b633dd1b30560e01b5f5260045ffd5b7f5040aaa3000000000000000000000000000000000000000000000000000000005f5260045ffd5b7f8d1af8bd000000000000000000000000000000000000000000000000000000005f5260045ffd5b6004359063ffffffff82168203610b7357565b602435906001600160a01b0382168203610b7357565b604435906001600160a01b0382168203610b7357565b600435906001600160a01b0382168203610b7357565b9181601f84011215610b735782359167ffffffffffffffff8311610b735760208381860195010111610b7357565b6060810190811067ffffffffffffffff821117610f3d57604052565b634e487b7160e01b5f52604160045260245ffd5b60e0810190811067ffffffffffffffff821117610f3d57604052565b6040810190811067ffffffffffffffff821117610f3d57604052565b90601f8019910116810190811067ffffffffffffffff821117610f3d57604052565b60405190610fb882610f6d565b5f6020838281520152565b92919267ffffffffffffffff8211610f3d5760405191610fed601f8201601f191660200184610f89565b829481845281830111610b73578281602093845f960137010152565b9190826040910312610b735760405161102181610f6d565b6020808294805184520151910152565b805180835260209291819084018484015e5f828201840152601f01601f1916010190565b6110c29163ffffffff825116815260208201516020820152604082015160408201526060820151606082015260c06110b161109f608085015160e0608086015260e0850190611031565b60a085015184820360a0860152611031565b9201519060c0818403910152611031565b90565b919082810360c08112610b7357608013610b7357604051906110e682610f21565b83518252602084015167ffffffffffffffff81168103610b73578260809160206110c29501526111198360408801611009565b60408201529401611009565b9193926001600160a01b03906020611147606094608087526080870190611055565b968051828701520151604085015216910152565b91908201809211610e2b57565b6001600160a01b035f5416330361117b57565b7f118cdaa7000000000000000000000000000000000000000000000000000000005f523360045260245ffd5b905f602091828151910182855af115610b68575f513d61120b57506001600160a01b0381163b155b6111d65750565b6001600160a01b03907f5274afe7000000000000000000000000000000000000000000000000000000005f521660045260245ffd5b600114156111cf565b60405163095ea7b360e01b60208083019182526001600160a01b0385166024840152604480840196909652948252929390925f90611253606486610f89565b84519082855af15f513d826112b7575b50501561126f57505050565b6112b06112b5936001600160a01b036040519163095ea7b360e01b60208401521660248201525f6044820152604481526112aa606482610f89565b826111a7565b6111a7565b565b9091506112d457506001600160a01b0381163b15155b5f80611263565b6001146112cd56fea164736f6c634300081c000a","linkReferences":{}},"methodIdentifiers":{"dstEidToVault(uint32)":"5e520ec0","emergencyRecover(address,address,uint256)":"ad1329d1","owner()":"8da5cb5b","quoteSendToVault(uint32,address,address,uint256,bytes,bool)":"495fdfcb","renounceOwnership()":"715018a6","sendToVault(uint32,address,address,uint256,bytes)":"1b3a2bff","setRemoteVault(uint32,address)":"381550bf","setTokenConfig(address,address)":"343e2874","setVault(address)":"6817031b","tokenToOft(address)":"f86245af","transferOwnership(address)":"f2fde38b","vault()":"fbfa77cf","wrappedNative()":"eb6d3a11"},"storageLayout":{"storage":[{"astId":7408,"contract":"src/adapters/layerzero/CrosschainStrategyAdapter.sol:CrosschainStrategyAdapter","label":"_owner","offset":0,"slot":"0","type":"t_address"},{"astId":52169,"contract":"src/adapters/layerzero/CrosschainStrategyAdapter.sol:CrosschainStrategyAdapter","label":"vault","offset":0,"slot":"1","type":"t_address"},{"astId":52177,"contract":"src/adapters/layerzero/CrosschainStrategyAdapter.sol:CrosschainStrategyAdapter","label":"tokenToOft","offset":0,"slot":"2","type":"t_mapping(t_address,t_address)"},{"astId":52182,"contract":"src/adapters/layerzero/CrosschainStrategyAdapter.sol:CrosschainStrategyAdapter","label":"dstEidToVault","offset":0,"slot":"3","type":"t_mapping(t_uint32,t_address)"}],"types":{"t_address":{"encoding":"inplace","label":"address","numberOfBytes":"20"},"t_mapping(t_address,t_address)":{"encoding":"mapping","key":"t_address","label":"mapping(address => address)","numberOfBytes":"32","value":"t_address"},"t_mapping(t_uint32,t_address)":{"encoding":"mapping","key":"t_uint32","label":"mapping(uint32 => address)","numberOfBytes":"32","value":"t_address"},"t_uint32":{"encoding":"inplace","label":"uint32","numberOfBytes":"4"}}},"id":89}