{"abi":[{"type":"constructor","inputs":[{"name":"_endpoint","type":"address","internalType":"address"}],"stateMutability":"nonpayable"},{"type":"receive","stateMutability":"payable"},{"type":"function","name":"DEFAULT_ADMIN_ROLE","inputs":[],"outputs":[{"name":"","type":"bytes32","internalType":"bytes32"}],"stateMutability":"view"},{"type":"function","name":"OPERATOR_ROLE","inputs":[],"outputs":[{"name":"","type":"bytes32","internalType":"bytes32"}],"stateMutability":"view"},{"type":"function","name":"UPGRADE_INTERFACE_VERSION","inputs":[],"outputs":[{"name":"","type":"string","internalType":"string"}],"stateMutability":"view"},{"type":"function","name":"allowInitializePath","inputs":[{"name":"origin","type":"tuple","internalType":"struct Origin","components":[{"name":"srcEid","type":"uint32","internalType":"uint32"},{"name":"sender","type":"bytes32","internalType":"bytes32"},{"name":"nonce","type":"uint64","internalType":"uint64"}]}],"outputs":[{"name":"","type":"bool","internalType":"bool"}],"stateMutability":"view"},{"type":"function","name":"emergencyRecover","inputs":[{"name":"token","type":"address","internalType":"address"},{"name":"to","type":"address","internalType":"address"},{"name":"amount","type":"uint256","internalType":"uint256"}],"outputs":[],"stateMutability":"nonpayable"},{"type":"function","name":"endpoint","inputs":[],"outputs":[{"name":"","type":"address","internalType":"contract ILayerZeroEndpointV2"}],"stateMutability":"view"},{"type":"function","name":"getRoleAdmin","inputs":[{"name":"role","type":"bytes32","internalType":"bytes32"}],"outputs":[{"name":"","type":"bytes32","internalType":"bytes32"}],"stateMutability":"view"},{"type":"function","name":"grantRole","inputs":[{"name":"role","type":"bytes32","internalType":"bytes32"},{"name":"account","type":"address","internalType":"address"}],"outputs":[],"stateMutability":"nonpayable"},{"type":"function","name":"hasRole","inputs":[{"name":"role","type":"bytes32","internalType":"bytes32"},{"name":"account","type":"address","internalType":"address"}],"outputs":[{"name":"","type":"bool","internalType":"bool"}],"stateMutability":"view"},{"type":"function","name":"initialize","inputs":[{"name":"_owner","type":"address","internalType":"address"}],"outputs":[],"stateMutability":"nonpayable"},{"type":"function","name":"isComposeMsgSender","inputs":[{"name":"","type":"tuple","internalType":"struct Origin","components":[{"name":"srcEid","type":"uint32","internalType":"uint32"},{"name":"sender","type":"bytes32","internalType":"bytes32"},{"name":"nonce","type":"uint64","internalType":"uint64"}]},{"name":"","type":"bytes","internalType":"bytes"},{"name":"_sender","type":"address","internalType":"address"}],"outputs":[{"name":"","type":"bool","internalType":"bool"}],"stateMutability":"view"},{"type":"function","name":"lzReceive","inputs":[{"name":"_origin","type":"tuple","internalType":"struct Origin","components":[{"name":"srcEid","type":"uint32","internalType":"uint32"},{"name":"sender","type":"bytes32","internalType":"bytes32"},{"name":"nonce","type":"uint64","internalType":"uint64"}]},{"name":"_guid","type":"bytes32","internalType":"bytes32"},{"name":"_message","type":"bytes","internalType":"bytes"},{"name":"_executor","type":"address","internalType":"address"},{"name":"_extraData","type":"bytes","internalType":"bytes"}],"outputs":[],"stateMutability":"payable"},{"type":"function","name":"nextNonce","inputs":[{"name":"","type":"uint32","internalType":"uint32"},{"name":"","type":"bytes32","internalType":"bytes32"}],"outputs":[{"name":"nonce","type":"uint64","internalType":"uint64"}],"stateMutability":"view"},{"type":"function","name":"oAppVersion","inputs":[],"outputs":[{"name":"senderVersion","type":"uint64","internalType":"uint64"},{"name":"receiverVersion","type":"uint64","internalType":"uint64"}],"stateMutability":"pure"},{"type":"function","name":"owner","inputs":[],"outputs":[{"name":"","type":"address","internalType":"address"}],"stateMutability":"view"},{"type":"function","name":"pause","inputs":[],"outputs":[],"stateMutability":"nonpayable"},{"type":"function","name":"paused","inputs":[],"outputs":[{"name":"","type":"bool","internalType":"bool"}],"stateMutability":"view"},{"type":"function","name":"peers","inputs":[{"name":"_eid","type":"uint32","internalType":"uint32"}],"outputs":[{"name":"","type":"bytes32","internalType":"bytes32"}],"stateMutability":"view"},{"type":"function","name":"proxiableUUID","inputs":[],"outputs":[{"name":"","type":"bytes32","internalType":"bytes32"}],"stateMutability":"view"},{"type":"function","name":"quoteStrategy","inputs":[{"name":"_dstEid","type":"uint32","internalType":"uint32"},{"name":"_subVault","type":"address","internalType":"address"},{"name":"_calls","type":"tuple[]","internalType":"struct Call[]","components":[{"name":"target","type":"address","internalType":"address"},{"name":"data","type":"bytes","internalType":"bytes"},{"name":"value","type":"uint256","internalType":"uint256"}]},{"name":"_options","type":"bytes","internalType":"bytes"},{"name":"_payInLzToken","type":"bool","internalType":"bool"}],"outputs":[{"name":"fee","type":"tuple","internalType":"struct MessagingFee","components":[{"name":"nativeFee","type":"uint256","internalType":"uint256"},{"name":"lzTokenFee","type":"uint256","internalType":"uint256"}]}],"stateMutability":"view"},{"type":"function","name":"renounceOwnership","inputs":[],"outputs":[],"stateMutability":"nonpayable"},{"type":"function","name":"renounceRole","inputs":[{"name":"role","type":"bytes32","internalType":"bytes32"},{"name":"callerConfirmation","type":"address","internalType":"address"}],"outputs":[],"stateMutability":"nonpayable"},{"type":"function","name":"revokeRole","inputs":[{"name":"role","type":"bytes32","internalType":"bytes32"},{"name":"account","type":"address","internalType":"address"}],"outputs":[],"stateMutability":"nonpayable"},{"type":"function","name":"sendStrategy","inputs":[{"name":"_dstEid","type":"uint32","internalType":"uint32"},{"name":"_subVault","type":"address","internalType":"address"},{"name":"_calls","type":"tuple[]","internalType":"struct Call[]","components":[{"name":"target","type":"address","internalType":"address"},{"name":"data","type":"bytes","internalType":"bytes"},{"name":"value","type":"uint256","internalType":"uint256"}]},{"name":"_options","type":"bytes","internalType":"bytes"}],"outputs":[{"name":"receipt","type":"tuple","internalType":"struct MessagingReceipt","components":[{"name":"guid","type":"bytes32","internalType":"bytes32"},{"name":"nonce","type":"uint64","internalType":"uint64"},{"name":"fee","type":"tuple","internalType":"struct MessagingFee","components":[{"name":"nativeFee","type":"uint256","internalType":"uint256"},{"name":"lzTokenFee","type":"uint256","internalType":"uint256"}]}]}],"stateMutability":"payable"},{"type":"function","name":"setDelegate","inputs":[{"name":"_delegate","type":"address","internalType":"address"}],"outputs":[],"stateMutability":"nonpayable"},{"type":"function","name":"setPeer","inputs":[{"name":"_eid","type":"uint32","internalType":"uint32"},{"name":"_peer","type":"bytes32","internalType":"bytes32"}],"outputs":[],"stateMutability":"nonpayable"},{"type":"function","name":"supportsInterface","inputs":[{"name":"interfaceId","type":"bytes4","internalType":"bytes4"}],"outputs":[{"name":"","type":"bool","internalType":"bool"}],"stateMutability":"view"},{"type":"function","name":"transferOwnership","inputs":[{"name":"newOwner","type":"address","internalType":"address"}],"outputs":[],"stateMutability":"nonpayable"},{"type":"function","name":"unpause","inputs":[],"outputs":[],"stateMutability":"nonpayable"},{"type":"function","name":"upgradeToAndCall","inputs":[{"name":"newImplementation","type":"address","internalType":"address"},{"name":"data","type":"bytes","internalType":"bytes"}],"outputs":[],"stateMutability":"payable"},{"type":"event","name":"EmergencyRecovery","inputs":[{"name":"token","type":"address","indexed":true,"internalType":"address"},{"name":"to","type":"address","indexed":true,"internalType":"address"},{"name":"amount","type":"uint256","indexed":false,"internalType":"uint256"}],"anonymous":false},{"type":"event","name":"Initialized","inputs":[{"name":"version","type":"uint64","indexed":false,"internalType":"uint64"}],"anonymous":false},{"type":"event","name":"OwnershipTransferred","inputs":[{"name":"previousOwner","type":"address","indexed":true,"internalType":"address"},{"name":"newOwner","type":"address","indexed":true,"internalType":"address"}],"anonymous":false},{"type":"event","name":"Paused","inputs":[{"name":"account","type":"address","indexed":false,"internalType":"address"}],"anonymous":false},{"type":"event","name":"PeerSet","inputs":[{"name":"eid","type":"uint32","indexed":false,"internalType":"uint32"},{"name":"peer","type":"bytes32","indexed":false,"internalType":"bytes32"}],"anonymous":false},{"type":"event","name":"RoleAdminChanged","inputs":[{"name":"role","type":"bytes32","indexed":true,"internalType":"bytes32"},{"name":"previousAdminRole","type":"bytes32","indexed":true,"internalType":"bytes32"},{"name":"newAdminRole","type":"bytes32","indexed":true,"internalType":"bytes32"}],"anonymous":false},{"type":"event","name":"RoleGranted","inputs":[{"name":"role","type":"bytes32","indexed":true,"internalType":"bytes32"},{"name":"account","type":"address","indexed":true,"internalType":"address"},{"name":"sender","type":"address","indexed":true,"internalType":"address"}],"anonymous":false},{"type":"event","name":"RoleRevoked","inputs":[{"name":"role","type":"bytes32","indexed":true,"internalType":"bytes32"},{"name":"account","type":"address","indexed":true,"internalType":"address"},{"name":"sender","type":"address","indexed":true,"internalType":"address"}],"anonymous":false},{"type":"event","name":"StrategyExecuted","inputs":[{"name":"subVault","type":"address","indexed":true,"internalType":"address"},{"name":"callsCount","type":"uint256","indexed":false,"internalType":"uint256"}],"anonymous":false},{"type":"event","name":"StrategySent","inputs":[{"name":"dstEid","type":"uint32","indexed":true,"internalType":"uint32"},{"name":"subVault","type":"address","indexed":true,"internalType":"address"},{"name":"callsCount","type":"uint256","indexed":false,"internalType":"uint256"}],"anonymous":false},{"type":"event","name":"Unpaused","inputs":[{"name":"account","type":"address","indexed":false,"internalType":"address"}],"anonymous":false},{"type":"event","name":"Upgraded","inputs":[{"name":"implementation","type":"address","indexed":true,"internalType":"address"}],"anonymous":false},{"type":"error","name":"AccessControlBadConfirmation","inputs":[]},{"type":"error","name":"AccessControlUnauthorizedAccount","inputs":[{"name":"account","type":"address","internalType":"address"},{"name":"neededRole","type":"bytes32","internalType":"bytes32"}]},{"type":"error","name":"AddressEmptyCode","inputs":[{"name":"target","type":"address","internalType":"address"}]},{"type":"error","name":"ERC1967InvalidImplementation","inputs":[{"name":"implementation","type":"address","internalType":"address"}]},{"type":"error","name":"ERC1967NonPayable","inputs":[]},{"type":"error","name":"EnforcedPause","inputs":[]},{"type":"error","name":"ExpectedPause","inputs":[]},{"type":"error","name":"FailedCall","inputs":[]},{"type":"error","name":"InvalidAddress","inputs":[]},{"type":"error","name":"InvalidDelegate","inputs":[]},{"type":"error","name":"InvalidEndpointCall","inputs":[]},{"type":"error","name":"InvalidFee","inputs":[]},{"type":"error","name":"InvalidInitialization","inputs":[]},{"type":"error","name":"InvalidOwner","inputs":[]},{"type":"error","name":"InvalidRecipient","inputs":[]},{"type":"error","name":"InvalidSubVault","inputs":[]},{"type":"error","name":"LzTokenUnavailable","inputs":[]},{"type":"error","name":"NoPeer","inputs":[{"name":"eid","type":"uint32","internalType":"uint32"}]},{"type":"error","name":"NotEnoughNative","inputs":[{"name":"msgValue","type":"uint256","internalType":"uint256"}]},{"type":"error","name":"NotInitializing","inputs":[]},{"type":"error","name":"OnlyEndpoint","inputs":[{"name":"addr","type":"address","internalType":"address"}]},{"type":"error","name":"OnlyPeer","inputs":[{"name":"eid","type":"uint32","internalType":"uint32"},{"name":"sender","type":"bytes32","internalType":"bytes32"}]},{"type":"error","name":"OwnableInvalidOwner","inputs":[{"name":"owner","type":"address","internalType":"address"}]},{"type":"error","name":"OwnableUnauthorizedAccount","inputs":[{"name":"account","type":"address","internalType":"address"}]},{"type":"error","name":"ReentrancyGuardReentrantCall","inputs":[]},{"type":"error","name":"SafeERC20FailedOperation","inputs":[{"name":"token","type":"address","internalType":"address"}]},{"type":"error","name":"UUPSUnauthorizedCallContext","inputs":[]},{"type":"error","name":"UUPSUnsupportedProxiableUUID","inputs":[{"name":"slot","type":"bytes32","internalType":"bytes32"}]}],"bytecode":{"object":"0x60c03461013b57601f61267f38819003918201601f19168301916001600160401b0383118484101761013f5780849260209460405283398101031261013b57516001600160a01b0381169081900361013b576080523060a0525f51602061265f5f395f51905f525460ff8160401c1661012c576002600160401b03196001600160401b038216016100d6575b60405161250b908161015482396080518181816102cc01528181610423015281816107b801528181610d8d015281816111fb015261187d015260a05181818161127a01526113410152f35b6001600160401b0319166001600160401b039081175f51602061265f5f395f51905f52556040519081527fc7f505b2f371ae2175ee4913f4499e1f2633a7b5936321eed1cdaeb6115181d290602090a15f61008b565b63f92ee8a960e01b5f5260045ffd5b5f80fd5b634e487b7160e01b5f52604160045260245ffdfe608080604052600436101561001c575b50361561001a575f80fd5b005b5f905f3560e01c90816301ffc9a71461198a5750806313137d651461181157806317442b70146117f0578063248a9ca3146117a65780632f2ff15d146117495780633400288b146116c157806336568abe146116645780633f4ba83a146115a75780634f1ef286146112f257806352d1902d146112605780635c975abb1461121f5780635e280f11146111dc5780636d4cba1314610c7e578063715018a614610bda5780637d25a05e14610bb657806382413eac14610b5a5780638456cb5914610ac35780638da5cb5b14610a7e57806391d1485414610a15578063a217fddf146109fb578063ad1329d1146108c2578063ad3cb1cc1461085f578063bb0b6a5314610839578063c2c5d36e146106a4578063c4d66de814610348578063ca5eb5e11461029f578063d547741f14610238578063f2fde38b1461020b578063f5b541a6146101d05763ff7bd03d0361000f57346101cd5760603660031901126101cd575060206101c161018d611c10565b63ffffffff165f527f72ab1bc1039b79dc4724ffca13de82c96834302d3c7e0d4252232d4b2dd8f90060205260405f205490565b60405190602435148152f35b80fd5b50346101cd57806003193601126101cd5760206040517f97667070c54ef182b0f5858b034beac1b6f3089aa2d3188bb1e8929f4fa9b9298152f35b50346101cd5760203660031901126101cd57610235610228611a82565b6102306121a4565b611d5d565b80f35b50346101cd5760403660031901126101cd5761029b600435610258611a6c565b90610296610291825f527f02dd7bc7dec4dceedda775e58dd541e08a116c6c53815c0bd028192f7b626800602052600160405f20015490565b611efc565b612203565b5080f35b50346101cd5760203660031901126101cd57806102ba611a82565b6102c26121a4565b6001600160a01b037f00000000000000000000000000000000000000000000000000000000000000001690813b15610344576001600160a01b036024849283604051958694859363ca5eb5e160e01b85521660048401525af18015610339576103285750f35b8161033291611b2c565b6101cd5780f35b6040513d84823e3d90fd5b5050fd5b50346105f65760203660031901126105f657610362611a82565b7ff0c57e16840df040f15088dc2f81fe391c3923bec73e23a9662efc9c229c6a00549060ff8260401c16159167ffffffffffffffff81168015908161069c575b6001149081610692575b159081610689575b506106615767ffffffffffffffff1981166001177ff0c57e16840df040f15088dc2f81fe391c3923bec73e23a9662efc9c229c6a005582610622575b506001600160a01b03811680156105fa5761040961241b565b61041161241b565b61041961241b565b6001600160a01b037f00000000000000000000000000000000000000000000000000000000000000001690813b156105f6575f9160248392604051948593849263ca5eb5e160e01b845260048401525af180156105eb576105d4575b5061054e9061048261241b565b61048a61241b565b61049261241b565b61049a61241b565b6104a381611d5d565b6104ab61241b565b6104b361241b565b60017f9b779b17422d0df92223018b32b4d1fa46e071723d6817e2486d003becc55f00556104df61241b565b6104e761241b565b60ff197fcd5ed15c6e187e77e9aee88184c21f4f2182ab5827cb3b7e07fbedcd63f0330054167fcd5ed15c6e187e77e9aee88184c21f4f2182ab5827cb3b7e07fbedcd63f033005561053761241b565b61053f61241b565b61054881611f5c565b5061200b565b506105565780f35b68ff0000000000000000197ff0c57e16840df040f15088dc2f81fe391c3923bec73e23a9662efc9c229c6a0054167ff0c57e16840df040f15088dc2f81fe391c3923bec73e23a9662efc9c229c6a00557fc7f505b2f371ae2175ee4913f4499e1f2633a7b5936321eed1cdaeb6115181d2602060405160018152a180f35b6105e19193505f90611b2c565b5f9161054e610475565b6040513d5f823e3d90fd5b5f80fd5b7f49e27cff000000000000000000000000000000000000000000000000000000005f5260045ffd5b68ffffffffffffffffff191668010000000000000001177ff0c57e16840df040f15088dc2f81fe391c3923bec73e23a9662efc9c229c6a00555f6103f0565b7ff92ee8a9000000000000000000000000000000000000000000000000000000005f5260045ffd5b9050155f6103b4565b303b1591506103ac565b8491506103a2565b346105f65760a03660031901126105f6576106bd611a98565b6106c5611a6c565b9060443567ffffffffffffffff81116105f6576106e6903690600401611ba0565b91909260643567ffffffffffffffff81116105f657610709903690600401611a28565b949091608435928315158094036105f6576107ac9661075061075793610742604099610733611c23565b508a5197889360208501611c6d565b03601f198101865285611b2c565b3691611b6a565b90610760611c23565b5061076a84611e25565b63ffffffff86519561077b87611aab565b16855260208501528484015260608301526080820152815180938192631bb8518b60e31b8352309060048401612341565b03816001600160a01b037f0000000000000000000000000000000000000000000000000000000000000000165afa80156105eb575f906107fe575b806040915060208251918051835201516020820152f35b5060403d604011610832575b6108148183611b2c565b8101906040818303126105f65760409161082d91612319565b6107e7565b503d61080a565b346105f65760203660031901126105f657602061085761018d611a98565b604051908152f35b346105f6575f3660031901126105f6576108be604051610880604082611b2c565b600581527f352e302e300000000000000000000000000000000000000000000000000000006020820152604051918291602083526020830190611bd1565b0390f35b346105f65760603660031901126105f6576108db611a82565b6108e3611a6c565b6001600160a01b03604435916108f76121a4565b169182156109d3576001600160a01b0316908161095e575f81848115610954575b5f92839283928392f1156105eb5760207f1ac506e936e7f02f4036dbe44708f5e8d72af9ace8745a29fd391481a8fbcb87915b604051908152a3005b6108fc9250610918565b60207f1ac506e936e7f02f4036dbe44708f5e8d72af9ace8745a29fd391481a8fbcb87916109ce6040517fa9059cbb0000000000000000000000000000000000000000000000000000000084820152866024820152826044820152604481526109c8606482611b2c565b856123ae565b61094b565b7f9c8d2cd2000000000000000000000000000000000000000000000000000000005f5260045ffd5b346105f6575f3660031901126105f65760206040515f8152f35b346105f65760403660031901126105f657610a2e611a6c565b6004355f527f02dd7bc7dec4dceedda775e58dd541e08a116c6c53815c0bd028192f7b6268006020526001600160a01b0360405f2091165f52602052602060ff60405f2054166040519015158152f35b346105f6575f3660031901126105f65760206001600160a01b037f9016d09d72d40fdae2fd8ceac6b6234c7706214fd39c1cd1e609a0528c1993005416604051908152f35b346105f6575f3660031901126105f657610adb611e8d565b610ae36122c6565b600160ff197fcd5ed15c6e187e77e9aee88184c21f4f2182ab5827cb3b7e07fbedcd63f033005416177fcd5ed15c6e187e77e9aee88184c21f4f2182ab5827cb3b7e07fbedcd63f03300557f62e78cea01bee320cd4e420270b5ea74000d11b0c9f74754ebdbfc544b05a2586020604051338152a1005b346105f657366003190160a081126105f6576060136105f65760643567ffffffffffffffff81116105f657610b93903690600401611a28565b50506084356001600160a01b0381168091036105f6576020906040519030148152f35b346105f65760403660031901126105f657610bcf611a98565b5060206040515f8152f35b346105f6575f3660031901126105f657610bf26121a4565b5f6001600160a01b037f9016d09d72d40fdae2fd8ceac6b6234c7706214fd39c1cd1e609a0528c1993005473ffffffffffffffffffffffffffffffffffffffff1981167f9016d09d72d40fdae2fd8ceac6b6234c7706214fd39c1cd1e609a0528c19930055167f8be0079c531659141344cd1fd0a4f28419497f9722a3daafe3b4186f6b6457e08280a3005b60803660031901126105f657610c92611a98565b610c9a611a6c565b9060443567ffffffffffffffff81116105f657610cbb903690600401611ba0565b909160643567ffffffffffffffff81116105f657610cdd903690600401611a28565b9190610ce7611c3b565b50610cf0611e8d565b610cf86122c6565b60027f9b779b17422d0df92223018b32b4d1fa46e071723d6817e2486d003becc55f0054146111b45783610d6e610e019660027f9b779b17422d0df92223018b32b4d1fa46e071723d6817e2486d003becc55f0055610d606040519384928b60208501611c6d565b03601f198101835282611b2c565b610d79368584611b6a565b93610d82611c23565b506001600160a01b037f000000000000000000000000000000000000000000000000000000000000000016926040610db986611e25565b96815190610dc682611aab565b63ffffffff8816988983526020830152858383015260608201525f60808201528151809a8192631bb8518b60e31b8352309060048401612341565b0381875afa9788156105eb575f98611179575b508751341061115157610e28913691611b6a565b90610e31611c3b565b508651968734036111255760200191825180610ff9575b5090610eba939291610e5b608096611e25565b925115159160405193610e6d85611aab565b888552602085015260408401526060830152848201526040519687809481937f2637a450000000000000000000000000000000000000000000000000000000008352339060048401612341565b03925af19283156105eb575f93610f57575b507fc7e53fcb73efb72b2b5244e275fb9eb92c3fb59e61ceb9668bbab98c4133389760206001600160a01b036080966040519586521693a360017f9b779b17422d0df92223018b32b4d1fa46e071723d6817e2486d003becc55f0055602060408051928051845267ffffffffffffffff83820151168385015201518051604084015201516060820152f35b93925060803d608011610ff2575b610f6f8186611b2c565b8401936080818603126105f65760405194610f8986611af4565b81518652602082015167ffffffffffffffff811681036105f65786610fe360209360407fc7e53fcb73efb72b2b5244e275fb9eb92c3fb59e61ceb9668bbab98c41333897966001600160a01b03958760809d015201612319565b60408201529596505050610ecc565b503d610f65565b939291906040517fe4fe1d94000000000000000000000000000000000000000000000000000000008152602081600481885afa80156105eb575f906110dc575b6001600160a01b039150169485156110b4576080966110a8610e5b92610eba98604051917f23b872dd0000000000000000000000000000000000000000000000000000000060208401523360248401528960448401526064830152606482526110a3608483611b2c565b6123ae565b96505090919293610e48565b7f5373352a000000000000000000000000000000000000000000000000000000005f5260045ffd5b506020813d60201161111d575b816110f660209383611b2c565b810103126105f657516001600160a01b03811681036105f6576001600160a01b0390611039565b3d91506110e9565b7f9f704120000000000000000000000000000000000000000000000000000000005f523460045260245ffd5b7f58d620b3000000000000000000000000000000000000000000000000000000005f5260045ffd5b90975060403d6040116111ad575b6111918183611b2c565b81016040828203126105f6576111a691612319565b9689610e14565b503d611187565b7f3ee5aeb5000000000000000000000000000000000000000000000000000000005f5260045ffd5b346105f6575f3660031901126105f65760206040516001600160a01b037f0000000000000000000000000000000000000000000000000000000000000000168152f35b346105f6575f3660031901126105f657602060ff7fcd5ed15c6e187e77e9aee88184c21f4f2182ab5827cb3b7e07fbedcd63f0330054166040519015158152f35b346105f6575f3660031901126105f6576001600160a01b037f00000000000000000000000000000000000000000000000000000000000000001630036112ca5760206040517f360894a13ba1a3210667c828492db98dca3e2076cc3735a920a3ca505d382bbc8152f35b7fe07c8dba000000000000000000000000000000000000000000000000000000005f5260045ffd5b60403660031901126105f657611306611a82565b60243567ffffffffffffffff81116105f657366023820112156105f657611337903690602481600401359101611b6a565b6001600160a01b037f000000000000000000000000000000000000000000000000000000000000000016803014908115611572575b506112ca576113796121a4565b6001600160a01b038216916040517f52d1902d000000000000000000000000000000000000000000000000000000008152602081600481875afa5f918161153e575b506113d35783634c9c8ce360e01b5f5260045260245ffd5b807f360894a13ba1a3210667c828492db98dca3e2076cc3735a920a3ca505d382bbc8592036115135750813b15611501578073ffffffffffffffffffffffffffffffffffffffff197f360894a13ba1a3210667c828492db98dca3e2076cc3735a920a3ca505d382bbc5416177f360894a13ba1a3210667c828492db98dca3e2076cc3735a920a3ca505d382bbc557fbc7cd75a20ee27fd9adebab32041f755214dbc6bffa90cc0225b39da2e5c2d3b5f80a28151156114d0575f8083602061001a95519101845af43d156114c8573d916114ac83611b4e565b926114ba6040519485611b2c565b83523d5f602085013e612472565b606091612472565b5050346114d957005b7fb398979f000000000000000000000000000000000000000000000000000000005f5260045ffd5b634c9c8ce360e01b5f5260045260245ffd5b7faa1d49a4000000000000000000000000000000000000000000000000000000005f5260045260245ffd5b9091506020813d60201161156a575b8161155a60209383611b2c565b810103126105f6575190856113bb565b3d915061154d565b90506001600160a01b037f360894a13ba1a3210667c828492db98dca3e2076cc3735a920a3ca505d382bbc541614158361136c565b346105f6575f3660031901126105f6576115bf611e8d565b7fcd5ed15c6e187e77e9aee88184c21f4f2182ab5827cb3b7e07fbedcd63f033005460ff81161561163c5760ff19167fcd5ed15c6e187e77e9aee88184c21f4f2182ab5827cb3b7e07fbedcd63f03300557f5db9ee0a495bf2e6ff9c91a7834c1ba4fdd244a5e8aa4e537bd38aeae4b073aa6020604051338152a1005b7f8dfc202b000000000000000000000000000000000000000000000000000000005f5260045ffd5b346105f65760403660031901126105f65761167d611a6c565b336001600160a01b038216036116995761001a90600435612203565b7f6697b232000000000000000000000000000000000000000000000000000000005f5260045ffd5b346105f65760403660031901126105f6577f238399d427b947898edb290f5ff0f9109849b1c3ba196a42e35f00c50a54b98b60406116fd611a98565b63ffffffff6024359161170e6121a4565b1690815f527f72ab1bc1039b79dc4724ffca13de82c96834302d3c7e0d4252232d4b2dd8f90060205280835f205582519182526020820152a1005b346105f65760403660031901126105f65761001a600435611768611a6c565b906117a1610291825f527f02dd7bc7dec4dceedda775e58dd541e08a116c6c53815c0bd028192f7b626800602052600160405f20015490565b6120d7565b346105f65760203660031901126105f65760206108576004355f527f02dd7bc7dec4dceedda775e58dd541e08a116c6c53815c0bd028192f7b626800602052600160405f20015490565b346105f6575f3660031901126105f657604080516001815260026020820152f35b366003190160e081126105f6576060136105f65760843567ffffffffffffffff81116105f657611845903690600401611a28565b505061184f611a56565b5060c43567ffffffffffffffff81116105f657611870903690600401611a28565b5050336001600160a01b037f0000000000000000000000000000000000000000000000000000000000000000160361195e576118b26118ad611c10565b611e25565b602435809103611922576118c46122c6565b60646040517f08c379a000000000000000000000000000000000000000000000000000000000815260206004820152600b60248201527f53656e646572204f6e6c790000000000000000000000000000000000000000006044820152fd5b63ffffffff61192f611c10565b7fc26bebcc000000000000000000000000000000000000000000000000000000005f521660045260245260445ffd5b7f91ac5e4f000000000000000000000000000000000000000000000000000000005f523360045260245ffd5b346105f65760203660031901126105f657600435907fffffffff0000000000000000000000000000000000000000000000000000000082168092036105f657817f7965db0b00000000000000000000000000000000000000000000000000000000602093149081156119fe575b5015158152f35b7f01ffc9a700000000000000000000000000000000000000000000000000000000915014836119f7565b9181601f840112156105f65782359167ffffffffffffffff83116105f657602083818601950101116105f657565b60a435906001600160a01b03821682036105f657565b602435906001600160a01b03821682036105f657565b600435906001600160a01b03821682036105f657565b6004359063ffffffff821682036105f657565b60a0810190811067ffffffffffffffff821117611ac757604052565b7f4e487b71000000000000000000000000000000000000000000000000000000005f52604160045260245ffd5b6060810190811067ffffffffffffffff821117611ac757604052565b6040810190811067ffffffffffffffff821117611ac757604052565b90601f8019910116810190811067ffffffffffffffff821117611ac757604052565b67ffffffffffffffff8111611ac757601f01601f191660200190565b929192611b7682611b4e565b91611b846040519384611b2c565b8294818452818301116105f6578281602093845f960137010152565b9181601f840112156105f65782359167ffffffffffffffff83116105f6576020808501948460051b0101116105f657565b91908251928382525f5b848110611bfb575050825f602080949584010152601f8019910116010190565b80602080928401015182828601015201611bdb565b60043563ffffffff811681036105f65790565b60405190611c3082611b10565b5f6020838281520152565b60405190611c4882611af4565b815f81525f60208201526040805191611c6083611b10565b5f83525f60208401520152565b9280916001600160a01b03604086019116855260406020860152526060830160608260051b85010193835f91605e1982360301905b858410611cb3575050505050505090565b90919293949596605f198282030186528735838112156105f657840180356001600160a01b0381168091036105f65782526020810135601e19823603018112156105f6578101906020823592019067ffffffffffffffff83116105f65782360382136105f65783836040608093602096879660608860019b0152816060870152868601375f84840186015201356040830152601f01601f1916010199019796019401929190611ca2565b6001600160a01b03168015611df9576001600160a01b037f9016d09d72d40fdae2fd8ceac6b6234c7706214fd39c1cd1e609a0528c199300548273ffffffffffffffffffffffffffffffffffffffff198216177f9016d09d72d40fdae2fd8ceac6b6234c7706214fd39c1cd1e609a0528c19930055167f8be0079c531659141344cd1fd0a4f28419497f9722a3daafe3b4186f6b6457e05f80a3565b7f1e4fbdf7000000000000000000000000000000000000000000000000000000005f525f60045260245ffd5b63ffffffff16805f527f72ab1bc1039b79dc4724ffca13de82c96834302d3c7e0d4252232d4b2dd8f90060205260405f2054908115611e62575090565b7ff6ff4fb7000000000000000000000000000000000000000000000000000000005f5260045260245ffd5b335f9081527f448256db8f8fb95ee3eaaf89c1051414494e85cebb6057fcf996cc3d0ccfb456602052604090205460ff1615611ec557565b63e2517d3f60e01b5f52336004527f97667070c54ef182b0f5858b034beac1b6f3089aa2d3188bb1e8929f4fa9b92960245260445ffd5b805f527f02dd7bc7dec4dceedda775e58dd541e08a116c6c53815c0bd028192f7b62680060205260405f206001600160a01b0333165f5260205260ff60405f20541615611f465750565b63e2517d3f60e01b5f523360045260245260445ffd5b6001600160a01b0381165f9081527fb7db2dd08fcb62d0c9e08c51941cae53c267786a0b75803fb7960902fc8ef97d602052604090205460ff16612006576001600160a01b03165f8181527fb7db2dd08fcb62d0c9e08c51941cae53c267786a0b75803fb7960902fc8ef97d60205260408120805460ff191660011790553391907f2f8788117e7eff1d82e926ec794901d17c78024a50270940304540a733656f0d8180a4600190565b505f90565b6001600160a01b0381165f9081527f448256db8f8fb95ee3eaaf89c1051414494e85cebb6057fcf996cc3d0ccfb456602052604090205460ff16612006576001600160a01b03165f8181527f448256db8f8fb95ee3eaaf89c1051414494e85cebb6057fcf996cc3d0ccfb45660205260408120805460ff191660011790553391907f97667070c54ef182b0f5858b034beac1b6f3089aa2d3188bb1e8929f4fa9b929907f2f8788117e7eff1d82e926ec794901d17c78024a50270940304540a733656f0d9080a4600190565b805f527f02dd7bc7dec4dceedda775e58dd541e08a116c6c53815c0bd028192f7b62680060205260405f206001600160a01b0383165f5260205260ff60405f205416155f1461219e57805f527f02dd7bc7dec4dceedda775e58dd541e08a116c6c53815c0bd028192f7b62680060205260405f206001600160a01b0383165f5260205260405f20600160ff198254161790556001600160a01b03339216907f2f8788117e7eff1d82e926ec794901d17c78024a50270940304540a733656f0d5f80a4600190565b50505f90565b6001600160a01b037f9016d09d72d40fdae2fd8ceac6b6234c7706214fd39c1cd1e609a0528c199300541633036121d757565b7f118cdaa7000000000000000000000000000000000000000000000000000000005f523360045260245ffd5b805f527f02dd7bc7dec4dceedda775e58dd541e08a116c6c53815c0bd028192f7b62680060205260405f206001600160a01b0383165f5260205260ff60405f2054165f1461219e57805f527f02dd7bc7dec4dceedda775e58dd541e08a116c6c53815c0bd028192f7b62680060205260405f206001600160a01b0383165f5260205260405f2060ff1981541690556001600160a01b03339216907ff6391f5c32d9c69d2a47ea670b442974b53935d1edc7fd64eb21e047a839171b5f80a4600190565b60ff7fcd5ed15c6e187e77e9aee88184c21f4f2182ab5827cb3b7e07fbedcd63f0330054166122f157565b7fd93c0665000000000000000000000000000000000000000000000000000000005f5260045ffd5b91908260409103126105f65760405161233181611b10565b6020808294805184520151910152565b906001600160a01b036020919493946040845263ffffffff8151166040850152828101516060850152608061239d612387604084015160a08489015260e0880190611bd1565b6060840151878203603f190160a0890152611bd1565b910151151560c08501529416910152565b905f602091828151910182855af1156105eb575f513d61241257506001600160a01b0381163b155b6123dd5750565b6001600160a01b03907f5274afe7000000000000000000000000000000000000000000000000000000005f521660045260245ffd5b600114156123d6565b60ff7ff0c57e16840df040f15088dc2f81fe391c3923bec73e23a9662efc9c229c6a005460401c161561244a57565b7fd7e6bcf8000000000000000000000000000000000000000000000000000000005f5260045ffd5b906124af575080511561248757805190602001fd5b7fd6bda275000000000000000000000000000000000000000000000000000000005f5260045ffd5b815115806124f5575b6124c0575090565b6001600160a01b03907f9996b315000000000000000000000000000000000000000000000000000000005f521660045260245ffd5b50803b156124b856fea164736f6c634300081c000af0c57e16840df040f15088dc2f81fe391c3923bec73e23a9662efc9c229c6a00","linkReferences":{}},"methodIdentifiers":{"DEFAULT_ADMIN_ROLE()":"a217fddf","OPERATOR_ROLE()":"f5b541a6","UPGRADE_INTERFACE_VERSION()":"ad3cb1cc","allowInitializePath((uint32,bytes32,uint64))":"ff7bd03d","emergencyRecover(address,address,uint256)":"ad1329d1","endpoint()":"5e280f11","getRoleAdmin(bytes32)":"248a9ca3","grantRole(bytes32,address)":"2f2ff15d","hasRole(bytes32,address)":"91d14854","initialize(address)":"c4d66de8","isComposeMsgSender((uint32,bytes32,uint64),bytes,address)":"82413eac","lzReceive((uint32,bytes32,uint64),bytes32,bytes,address,bytes)":"13137d65","nextNonce(uint32,bytes32)":"7d25a05e","oAppVersion()":"17442b70","owner()":"8da5cb5b","pause()":"8456cb59","paused()":"5c975abb","peers(uint32)":"bb0b6a53","proxiableUUID()":"52d1902d","quoteStrategy(uint32,address,(address,bytes,uint256)[],bytes,bool)":"c2c5d36e","renounceOwnership()":"715018a6","renounceRole(bytes32,address)":"36568abe","revokeRole(bytes32,address)":"d547741f","sendStrategy(uint32,address,(address,bytes,uint256)[],bytes)":"6d4cba13","setDelegate(address)":"ca5eb5e1","setPeer(uint32,bytes32)":"3400288b","supportsInterface(bytes4)":"01ffc9a7","transferOwnership(address)":"f2fde38b","unpause()":"3f4ba83a","upgradeToAndCall(address,bytes)":"4f1ef286"},"storageLayout":{"storage":[],"types":{}},"id":34}