{"abi":[{"type":"constructor","inputs":[{"name":"_endpoint","type":"address","internalType":"address"}],"stateMutability":"nonpayable"},{"type":"receive","stateMutability":"payable"},{"type":"function","name":"DEFAULT_ADMIN_ROLE","inputs":[],"outputs":[{"name":"","type":"bytes32","internalType":"bytes32"}],"stateMutability":"view"},{"type":"function","name":"OPERATOR_ROLE","inputs":[],"outputs":[{"name":"","type":"bytes32","internalType":"bytes32"}],"stateMutability":"view"},{"type":"function","name":"UPGRADE_INTERFACE_VERSION","inputs":[],"outputs":[{"name":"","type":"string","internalType":"string"}],"stateMutability":"view"},{"type":"function","name":"allowInitializePath","inputs":[{"name":"origin","type":"tuple","internalType":"struct Origin","components":[{"name":"srcEid","type":"uint32","internalType":"uint32"},{"name":"sender","type":"bytes32","internalType":"bytes32"},{"name":"nonce","type":"uint64","internalType":"uint64"}]}],"outputs":[{"name":"","type":"bool","internalType":"bool"}],"stateMutability":"view"},{"type":"function","name":"emergencyRecover","inputs":[{"name":"token","type":"address","internalType":"address"},{"name":"to","type":"address","internalType":"address"},{"name":"amount","type":"uint256","internalType":"uint256"}],"outputs":[],"stateMutability":"nonpayable"},{"type":"function","name":"endpoint","inputs":[],"outputs":[{"name":"","type":"address","internalType":"contract ILayerZeroEndpointV2"}],"stateMutability":"view"},{"type":"function","name":"getRoleAdmin","inputs":[{"name":"role","type":"bytes32","internalType":"bytes32"}],"outputs":[{"name":"","type":"bytes32","internalType":"bytes32"}],"stateMutability":"view"},{"type":"function","name":"grantRole","inputs":[{"name":"role","type":"bytes32","internalType":"bytes32"},{"name":"account","type":"address","internalType":"address"}],"outputs":[],"stateMutability":"nonpayable"},{"type":"function","name":"hasRole","inputs":[{"name":"role","type":"bytes32","internalType":"bytes32"},{"name":"account","type":"address","internalType":"address"}],"outputs":[{"name":"","type":"bool","internalType":"bool"}],"stateMutability":"view"},{"type":"function","name":"initialize","inputs":[{"name":"_owner","type":"address","internalType":"address"}],"outputs":[],"stateMutability":"nonpayable"},{"type":"function","name":"isComposeMsgSender","inputs":[{"name":"","type":"tuple","internalType":"struct Origin","components":[{"name":"srcEid","type":"uint32","internalType":"uint32"},{"name":"sender","type":"bytes32","internalType":"bytes32"},{"name":"nonce","type":"uint64","internalType":"uint64"}]},{"name":"","type":"bytes","internalType":"bytes"},{"name":"_sender","type":"address","internalType":"address"}],"outputs":[{"name":"","type":"bool","internalType":"bool"}],"stateMutability":"view"},{"type":"function","name":"lzCompose","inputs":[{"name":"_from","type":"address","internalType":"address"},{"name":"","type":"bytes32","internalType":"bytes32"},{"name":"_message","type":"bytes","internalType":"bytes"},{"name":"","type":"address","internalType":"address"},{"name":"","type":"bytes","internalType":"bytes"}],"outputs":[],"stateMutability":"payable"},{"type":"function","name":"lzReceive","inputs":[{"name":"_origin","type":"tuple","internalType":"struct Origin","components":[{"name":"srcEid","type":"uint32","internalType":"uint32"},{"name":"sender","type":"bytes32","internalType":"bytes32"},{"name":"nonce","type":"uint64","internalType":"uint64"}]},{"name":"_guid","type":"bytes32","internalType":"bytes32"},{"name":"_message","type":"bytes","internalType":"bytes"},{"name":"_executor","type":"address","internalType":"address"},{"name":"_extraData","type":"bytes","internalType":"bytes"}],"outputs":[],"stateMutability":"payable"},{"type":"function","name":"nextNonce","inputs":[{"name":"","type":"uint32","internalType":"uint32"},{"name":"","type":"bytes32","internalType":"bytes32"}],"outputs":[{"name":"nonce","type":"uint64","internalType":"uint64"}],"stateMutability":"view"},{"type":"function","name":"oAppVersion","inputs":[],"outputs":[{"name":"senderVersion","type":"uint64","internalType":"uint64"},{"name":"receiverVersion","type":"uint64","internalType":"uint64"}],"stateMutability":"pure"},{"type":"function","name":"owner","inputs":[],"outputs":[{"name":"","type":"address","internalType":"address"}],"stateMutability":"view"},{"type":"function","name":"pause","inputs":[],"outputs":[],"stateMutability":"nonpayable"},{"type":"function","name":"paused","inputs":[],"outputs":[{"name":"","type":"bool","internalType":"bool"}],"stateMutability":"view"},{"type":"function","name":"peers","inputs":[{"name":"_eid","type":"uint32","internalType":"uint32"}],"outputs":[{"name":"","type":"bytes32","internalType":"bytes32"}],"stateMutability":"view"},{"type":"function","name":"proxiableUUID","inputs":[],"outputs":[{"name":"","type":"bytes32","internalType":"bytes32"}],"stateMutability":"view"},{"type":"function","name":"renounceOwnership","inputs":[],"outputs":[],"stateMutability":"nonpayable"},{"type":"function","name":"renounceRole","inputs":[{"name":"role","type":"bytes32","internalType":"bytes32"},{"name":"callerConfirmation","type":"address","internalType":"address"}],"outputs":[],"stateMutability":"nonpayable"},{"type":"function","name":"revokeRole","inputs":[{"name":"role","type":"bytes32","internalType":"bytes32"},{"name":"account","type":"address","internalType":"address"}],"outputs":[],"stateMutability":"nonpayable"},{"type":"function","name":"setDelegate","inputs":[{"name":"_delegate","type":"address","internalType":"address"}],"outputs":[],"stateMutability":"nonpayable"},{"type":"function","name":"setPeer","inputs":[{"name":"_eid","type":"uint32","internalType":"uint32"},{"name":"_peer","type":"bytes32","internalType":"bytes32"}],"outputs":[],"stateMutability":"nonpayable"},{"type":"function","name":"setSupportedOFT","inputs":[{"name":"token","type":"address","internalType":"address"},{"name":"oft","type":"address","internalType":"address"},{"name":"isActive","type":"bool","internalType":"bool"}],"outputs":[],"stateMutability":"nonpayable"},{"type":"function","name":"supportedOFTs","inputs":[{"name":"oft","type":"address","internalType":"address"}],"outputs":[{"name":"supported","type":"bool","internalType":"bool"}],"stateMutability":"view"},{"type":"function","name":"supportsInterface","inputs":[{"name":"interfaceId","type":"bytes4","internalType":"bytes4"}],"outputs":[{"name":"","type":"bool","internalType":"bool"}],"stateMutability":"view"},{"type":"function","name":"tokenToOFT","inputs":[{"name":"token","type":"address","internalType":"address"}],"outputs":[{"name":"oft","type":"address","internalType":"address"}],"stateMutability":"view"},{"type":"function","name":"transferOwnership","inputs":[{"name":"newOwner","type":"address","internalType":"address"}],"outputs":[],"stateMutability":"nonpayable"},{"type":"function","name":"unpause","inputs":[],"outputs":[],"stateMutability":"nonpayable"},{"type":"function","name":"upgradeToAndCall","inputs":[{"name":"newImplementation","type":"address","internalType":"address"},{"name":"data","type":"bytes","internalType":"bytes"}],"outputs":[],"stateMutability":"payable"},{"type":"event","name":"EmergencyRecovery","inputs":[{"name":"token","type":"address","indexed":true,"internalType":"address"},{"name":"to","type":"address","indexed":true,"internalType":"address"},{"name":"amount","type":"uint256","indexed":false,"internalType":"uint256"}],"anonymous":false},{"type":"event","name":"Initialized","inputs":[{"name":"version","type":"uint64","indexed":false,"internalType":"uint64"}],"anonymous":false},{"type":"event","name":"OwnershipTransferred","inputs":[{"name":"previousOwner","type":"address","indexed":true,"internalType":"address"},{"name":"newOwner","type":"address","indexed":true,"internalType":"address"}],"anonymous":false},{"type":"event","name":"Paused","inputs":[{"name":"account","type":"address","indexed":false,"internalType":"address"}],"anonymous":false},{"type":"event","name":"PeerSet","inputs":[{"name":"eid","type":"uint32","indexed":false,"internalType":"uint32"},{"name":"peer","type":"bytes32","indexed":false,"internalType":"bytes32"}],"anonymous":false},{"type":"event","name":"RoleAdminChanged","inputs":[{"name":"role","type":"bytes32","indexed":true,"internalType":"bytes32"},{"name":"previousAdminRole","type":"bytes32","indexed":true,"internalType":"bytes32"},{"name":"newAdminRole","type":"bytes32","indexed":true,"internalType":"bytes32"}],"anonymous":false},{"type":"event","name":"RoleGranted","inputs":[{"name":"role","type":"bytes32","indexed":true,"internalType":"bytes32"},{"name":"account","type":"address","indexed":true,"internalType":"address"},{"name":"sender","type":"address","indexed":true,"internalType":"address"}],"anonymous":false},{"type":"event","name":"RoleRevoked","inputs":[{"name":"role","type":"bytes32","indexed":true,"internalType":"bytes32"},{"name":"account","type":"address","indexed":true,"internalType":"address"},{"name":"sender","type":"address","indexed":true,"internalType":"address"}],"anonymous":false},{"type":"event","name":"StrategyExecuted","inputs":[{"name":"subVault","type":"address","indexed":true,"internalType":"address"},{"name":"token","type":"address","indexed":true,"internalType":"address"},{"name":"amount","type":"uint256","indexed":false,"internalType":"uint256"}],"anonymous":false},{"type":"event","name":"Unpaused","inputs":[{"name":"account","type":"address","indexed":false,"internalType":"address"}],"anonymous":false},{"type":"event","name":"Upgraded","inputs":[{"name":"implementation","type":"address","indexed":true,"internalType":"address"}],"anonymous":false},{"type":"error","name":"AccessControlBadConfirmation","inputs":[]},{"type":"error","name":"AccessControlUnauthorizedAccount","inputs":[{"name":"account","type":"address","internalType":"address"},{"name":"neededRole","type":"bytes32","internalType":"bytes32"}]},{"type":"error","name":"AddressEmptyCode","inputs":[{"name":"target","type":"address","internalType":"address"}]},{"type":"error","name":"ERC1967InvalidImplementation","inputs":[{"name":"implementation","type":"address","internalType":"address"}]},{"type":"error","name":"ERC1967NonPayable","inputs":[]},{"type":"error","name":"EnforcedPause","inputs":[]},{"type":"error","name":"ExpectedPause","inputs":[]},{"type":"error","name":"FailedCall","inputs":[]},{"type":"error","name":"InvalidAddress","inputs":[]},{"type":"error","name":"InvalidDelegate","inputs":[]},{"type":"error","name":"InvalidEndpointCall","inputs":[]},{"type":"error","name":"InvalidInitialization","inputs":[]},{"type":"error","name":"InvalidOwner","inputs":[]},{"type":"error","name":"InvalidRecipient","inputs":[]},{"type":"error","name":"InvalidSubVault","inputs":[]},{"type":"error","name":"LzTokenUnavailable","inputs":[]},{"type":"error","name":"NoPeer","inputs":[{"name":"eid","type":"uint32","internalType":"uint32"}]},{"type":"error","name":"NotEnoughNative","inputs":[{"name":"msgValue","type":"uint256","internalType":"uint256"}]},{"type":"error","name":"NotInitializing","inputs":[]},{"type":"error","name":"OnlyEndpoint","inputs":[{"name":"addr","type":"address","internalType":"address"}]},{"type":"error","name":"OnlyPeer","inputs":[{"name":"eid","type":"uint32","internalType":"uint32"},{"name":"sender","type":"bytes32","internalType":"bytes32"}]},{"type":"error","name":"OwnableInvalidOwner","inputs":[{"name":"owner","type":"address","internalType":"address"}]},{"type":"error","name":"OwnableUnauthorizedAccount","inputs":[{"name":"account","type":"address","internalType":"address"}]},{"type":"error","name":"ReentrancyGuardReentrantCall","inputs":[]},{"type":"error","name":"SafeERC20FailedOperation","inputs":[{"name":"token","type":"address","internalType":"address"}]},{"type":"error","name":"UUPSUnauthorizedCallContext","inputs":[]},{"type":"error","name":"UUPSUnsupportedProxiableUUID","inputs":[{"name":"slot","type":"bytes32","internalType":"bytes32"}]}],"bytecode":{"object":"0x60c03461013457601f61232e38819003918201601f19168301916001600160401b038311848410176101385780849260209460405283398101031261013457516001600160a01b03811690819003610134576080523060a0525f51602061230e5f395f51905f525460ff8160401c16610125576002600160401b03196001600160401b038216016100cf575b6040516121c1908161014d823960805181818161044d0152818161084e0152818161099a0152818161107f015261173e015260a0518181816110fe01526111c50152f35b6001600160401b0319166001600160401b039081175f51602061230e5f395f51905f52556040519081527fc7f505b2f371ae2175ee4913f4499e1f2633a7b5936321eed1cdaeb6115181d290602090a15f61008b565b63f92ee8a960e01b5f5260045ffd5b5f80fd5b634e487b7160e01b5f52604160045260245ffdfe608080604052600436101561001c575b50361561001a575f80fd5b005b5f905f3560e01c90816301ffc9a7146118ad5750806313137d65146116d257806317442b70146116b1578063248a9ca3146116675780632548af6c1461162a5780632f2ff15d146115cd5780633400288b1461154557806336568abe146114e85780633f4ba83a1461142b5780634f1ef2861461117657806352d1902d146110e45780635c975abb146110a35780635e280f1114611060578063715018a614610fbc5780637d25a05e14610f9857806382413eac14610f3c5780638456cb5914610ea55780638da5cb5b14610e6057806391d1485414610df7578063a217fddf14610ddd578063ad1329d114610ce4578063ad3cb1cc14610c81578063b297c99114610c41578063bb0b6a5314610c1b578063c4d66de8146108bf578063ca5eb5e114610821578063d0a102601461038e578063d547741f14610327578063e5b319a31461024e578063f2fde38b14610221578063f5b541a6146101e65763ff7bd03d0361000f57346101e35760603660031901126101e3575060206101d76101a3611ab2565b63ffffffff165f527f72ab1bc1039b79dc4724ffca13de82c96834302d3c7e0d4252232d4b2dd8f90060205260405f205490565b60405190602435148152f35b80fd5b50346101e357806003193601126101e35760206040517f97667070c54ef182b0f5858b034beac1b6f3089aa2d3188bb1e8929f4fa9b9298152f35b50346101e35760203660031901126101e35761024b61023e61198f565b610246611ea4565b611ac5565b80f35b50346101e35760603660031901126101e35761026861198f565b6102706119a5565b60443591821515809303610323576001600160a01b039061028f611ea4565b1680158015610312575b6102ea578352826020526001600160a01b03604084209116908173ffffffffffffffffffffffffffffffffffffffff1982541617905582526001602052604082209060ff8019835416911617905580f35b6004847fe6c4247b000000000000000000000000000000000000000000000000000000008152fd5b506001600160a01b03821615610299565b8380fd5b50346101e35760403660031901126101e35761038a6004356103476119a5565b90610385610380825f527f02dd7bc7dec4dceedda775e58dd541e08a116c6c53815c0bd028192f7b626800602052600160405f20015490565b611bfc565b611f03565b5080f35b5060a03660031901126101e3576103a361198f565b60443567ffffffffffffffff811161081d576103c390369060040161194b565b6103cb6119bb565b5060843567ffffffffffffffff811161063b576103ec90369060040161194b565b50506103f661207e565b60027f9b779b17422d0df92223018b32b4d1fa46e071723d6817e2486d003becc55f0054146107f55760027f9b779b17422d0df92223018b32b4d1fa46e071723d6817e2486d003becc55f00556001600160a01b037f00000000000000000000000000000000000000000000000000000000000000001633036107e25780602c1161032357600c820191602092359180604c116107de576104a0913691604b190190604c01611a36565b9182518301938185019060408587031261069f5782850151946001600160a01b0386168096036107d65760408101519067ffffffffffffffff82116107da570182603f820112156107d657838101519267ffffffffffffffff84116107c2578360051b9760405194610514878b01876119e4565b8552858501918680849b86010101938185116107be5760408101935b8585106106cb5750505050505084156106a3576001600160a01b031694610558848688611fc6565b81516105b1575b50507f261adf9a852b85e3c97abb4455d53175fa84f5651ceb5675941a1c24fa3879df91604051908152a360017f9b779b17422d0df92223018b32b4d1fa46e071723d6817e2486d003becc55f005580f35b843b1561069f57908691604051917f12d36fd3000000000000000000000000000000000000000000000000000000008352602483019085600485015251809152604483019060448160051b850101929185905b8783831061064a57505050505081808492038183895af1801561063f571561055f5781610630916119e4565b61063b57845f61055f565b8480fd5b6040513d84823e3d90fd5b60019294969750809193956043198982030185528751906001600160a01b038251168152604080610688858501516060878601526060850190611a8d565b9301519101529601920192018a9594939192610604565b8680fd5b6004877fee14e068000000000000000000000000000000000000000000000000000000008152fd5b845167ffffffffffffffff81116107ba57820189019060608286038b01601f1901126107ba57604051906060820182811067ffffffffffffffff8211176107a5576040528a8301516001600160a01b03811681036107a1578252604083015167ffffffffffffffff81116107a1578b908401019185601f840112156107a15782518c948761075883611a1a565b9661076660405198896119e4565b838852838701011161079e57856107888f979388978880606097019101611a6c565b8584015201516040820152815201940193610530565b50505b8f80fd5b5060248f634e487b7160e01b81526041600452fd5b8d80fd5b8b80fd5b602489634e487b7160e01b81526041600452fd5b8780fd5b8880fd5b8580fd5b6024846391ac5e4f60e01b815233600452fd5b6004847f3ee5aeb5000000000000000000000000000000000000000000000000000000008152fd5b8280fd5b50346101e35760203660031901126101e3578061083c61198f565b610844611ea4565b6001600160a01b037f00000000000000000000000000000000000000000000000000000000000000001690813b156108bb576001600160a01b036024849283604051958694859363ca5eb5e160e01b85521660048401525af1801561063f576108aa5750f35b816108b4916119e4565b6101e35780f35b5050fd5b5034610b6d576020366003190112610b6d576108d961198f565b7ff0c57e16840df040f15088dc2f81fe391c3923bec73e23a9662efc9c229c6a00549060ff8260401c16159167ffffffffffffffff811680159081610c13575b6001149081610c09575b159081610c00575b50610bd85767ffffffffffffffff1981166001177ff0c57e16840df040f15088dc2f81fe391c3923bec73e23a9662efc9c229c6a005582610b99575b506001600160a01b0381168015610b71576109806120d1565b6109886120d1565b6109906120d1565b6001600160a01b037f00000000000000000000000000000000000000000000000000000000000000001690813b15610b6d575f9160248392604051948593849263ca5eb5e160e01b845260048401525af18015610b6257610b4b575b50610ac5906109f96120d1565b610a016120d1565b610a096120d1565b610a116120d1565b610a1a81611ac5565b610a226120d1565b610a2a6120d1565b60017f9b779b17422d0df92223018b32b4d1fa46e071723d6817e2486d003becc55f0055610a566120d1565b610a5e6120d1565b60ff197fcd5ed15c6e187e77e9aee88184c21f4f2182ab5827cb3b7e07fbedcd63f0330054167fcd5ed15c6e187e77e9aee88184c21f4f2182ab5827cb3b7e07fbedcd63f0330055610aae6120d1565b610ab66120d1565b610abf81611c5c565b50611d0b565b50610acd5780f35b68ff0000000000000000197ff0c57e16840df040f15088dc2f81fe391c3923bec73e23a9662efc9c229c6a0054167ff0c57e16840df040f15088dc2f81fe391c3923bec73e23a9662efc9c229c6a00557fc7f505b2f371ae2175ee4913f4499e1f2633a7b5936321eed1cdaeb6115181d2602060405160018152a180f35b610b589193505f906119e4565b5f91610ac56109ec565b6040513d5f823e3d90fd5b5f80fd5b7f49e27cff000000000000000000000000000000000000000000000000000000005f5260045ffd5b68ffffffffffffffffff191668010000000000000001177ff0c57e16840df040f15088dc2f81fe391c3923bec73e23a9662efc9c229c6a00555f610967565b7ff92ee8a9000000000000000000000000000000000000000000000000000000005f5260045ffd5b9050155f61092b565b303b159150610923565b849150610919565b34610b6d576020366003190112610b6d576020610c396101a36119d1565b604051908152f35b34610b6d576020366003190112610b6d576001600160a01b03610c6261198f565b165f525f60205260206001600160a01b0360405f205416604051908152f35b34610b6d575f366003190112610b6d57610ce0604051610ca26040826119e4565b600581527f352e302e300000000000000000000000000000000000000000000000000000006020820152604051918291602083526020830190611a8d565b0390f35b34610b6d576060366003190112610b6d57610cfd61198f565b610d056119a5565b604435610d10611ea4565b6001600160a01b038216928315610db5576001600160a01b03169182610d8157505f81848115610d77575b5f92839283928392f115610b625760207f1ac506e936e7f02f4036dbe44708f5e8d72af9ace8745a29fd391481a8fbcb87915b604051908152a3005b6108fc9250610d3b565b81610db07f1ac506e936e7f02f4036dbe44708f5e8d72af9ace8745a29fd391481a8fbcb879360209386611fc6565b610d6e565b7f9c8d2cd2000000000000000000000000000000000000000000000000000000005f5260045ffd5b34610b6d575f366003190112610b6d5760206040515f8152f35b34610b6d576040366003190112610b6d57610e106119a5565b6004355f527f02dd7bc7dec4dceedda775e58dd541e08a116c6c53815c0bd028192f7b6268006020526001600160a01b0360405f2091165f52602052602060ff60405f2054166040519015158152f35b34610b6d575f366003190112610b6d5760206001600160a01b037f9016d09d72d40fdae2fd8ceac6b6234c7706214fd39c1cd1e609a0528c1993005416604051908152f35b34610b6d575f366003190112610b6d57610ebd611b8d565b610ec561207e565b600160ff197fcd5ed15c6e187e77e9aee88184c21f4f2182ab5827cb3b7e07fbedcd63f033005416177fcd5ed15c6e187e77e9aee88184c21f4f2182ab5827cb3b7e07fbedcd63f03300557f62e78cea01bee320cd4e420270b5ea74000d11b0c9f74754ebdbfc544b05a2586020604051338152a1005b34610b6d57366003190160a08112610b6d57606013610b6d5760643567ffffffffffffffff8111610b6d57610f7590369060040161194b565b50506084356001600160a01b038116809103610b6d576020906040519030148152f35b34610b6d576040366003190112610b6d57610fb16119d1565b5060206040515f8152f35b34610b6d575f366003190112610b6d57610fd4611ea4565b5f6001600160a01b037f9016d09d72d40fdae2fd8ceac6b6234c7706214fd39c1cd1e609a0528c1993005473ffffffffffffffffffffffffffffffffffffffff1981167f9016d09d72d40fdae2fd8ceac6b6234c7706214fd39c1cd1e609a0528c19930055167f8be0079c531659141344cd1fd0a4f28419497f9722a3daafe3b4186f6b6457e08280a3005b34610b6d575f366003190112610b6d5760206040516001600160a01b037f0000000000000000000000000000000000000000000000000000000000000000168152f35b34610b6d575f366003190112610b6d57602060ff7fcd5ed15c6e187e77e9aee88184c21f4f2182ab5827cb3b7e07fbedcd63f0330054166040519015158152f35b34610b6d575f366003190112610b6d576001600160a01b037f000000000000000000000000000000000000000000000000000000000000000016300361114e5760206040517f360894a13ba1a3210667c828492db98dca3e2076cc3735a920a3ca505d382bbc8152f35b7fe07c8dba000000000000000000000000000000000000000000000000000000005f5260045ffd5b6040366003190112610b6d5761118a61198f565b60243567ffffffffffffffff8111610b6d5736602382011215610b6d576111bb903690602481600401359101611a36565b6001600160a01b037f0000000000000000000000000000000000000000000000000000000000000000168030149081156113f6575b5061114e576111fd611ea4565b6001600160a01b038216916040517f52d1902d000000000000000000000000000000000000000000000000000000008152602081600481875afa5f91816113c2575b506112575783634c9c8ce360e01b5f5260045260245ffd5b807f360894a13ba1a3210667c828492db98dca3e2076cc3735a920a3ca505d382bbc8592036113975750813b15611385578073ffffffffffffffffffffffffffffffffffffffff197f360894a13ba1a3210667c828492db98dca3e2076cc3735a920a3ca505d382bbc5416177f360894a13ba1a3210667c828492db98dca3e2076cc3735a920a3ca505d382bbc557fbc7cd75a20ee27fd9adebab32041f755214dbc6bffa90cc0225b39da2e5c2d3b5f80a2815115611354575f8083602061001a95519101845af43d1561134c573d9161133083611a1a565b9261133e60405194856119e4565b83523d5f602085013e612128565b606091612128565b50503461135d57005b7fb398979f000000000000000000000000000000000000000000000000000000005f5260045ffd5b634c9c8ce360e01b5f5260045260245ffd5b7faa1d49a4000000000000000000000000000000000000000000000000000000005f5260045260245ffd5b9091506020813d6020116113ee575b816113de602093836119e4565b81010312610b6d5751908561123f565b3d91506113d1565b90506001600160a01b037f360894a13ba1a3210667c828492db98dca3e2076cc3735a920a3ca505d382bbc54161415836111f0565b34610b6d575f366003190112610b6d57611443611b8d565b7fcd5ed15c6e187e77e9aee88184c21f4f2182ab5827cb3b7e07fbedcd63f033005460ff8116156114c05760ff19167fcd5ed15c6e187e77e9aee88184c21f4f2182ab5827cb3b7e07fbedcd63f03300557f5db9ee0a495bf2e6ff9c91a7834c1ba4fdd244a5e8aa4e537bd38aeae4b073aa6020604051338152a1005b7f8dfc202b000000000000000000000000000000000000000000000000000000005f5260045ffd5b34610b6d576040366003190112610b6d576115016119a5565b336001600160a01b0382160361151d5761001a90600435611f03565b7f6697b232000000000000000000000000000000000000000000000000000000005f5260045ffd5b34610b6d576040366003190112610b6d577f238399d427b947898edb290f5ff0f9109849b1c3ba196a42e35f00c50a54b98b60406115816119d1565b63ffffffff60243591611592611ea4565b1690815f527f72ab1bc1039b79dc4724ffca13de82c96834302d3c7e0d4252232d4b2dd8f90060205280835f205582519182526020820152a1005b34610b6d576040366003190112610b6d5761001a6004356115ec6119a5565b90611625610380825f527f02dd7bc7dec4dceedda775e58dd541e08a116c6c53815c0bd028192f7b626800602052600160405f20015490565b611dd7565b34610b6d576020366003190112610b6d576001600160a01b0361164b61198f565b165f526001602052602060ff60405f2054166040519015158152f35b34610b6d576020366003190112610b6d576020610c396004355f527f02dd7bc7dec4dceedda775e58dd541e08a116c6c53815c0bd028192f7b626800602052600160405f20015490565b34610b6d575f366003190112610b6d57604080516001815260026020820152f35b366003190160e08112610b6d57606013610b6d5760843567ffffffffffffffff8111610b6d5761170690369060040161194b565b5050611710611979565b5060c43567ffffffffffffffff8111610b6d5761173190369060040161194b565b5050336001600160a01b037f0000000000000000000000000000000000000000000000000000000000000000160361189a5763ffffffff611770611ab2565b16805f527f72ab1bc1039b79dc4724ffca13de82c96834302d3c7e0d4252232d4b2dd8f90060205260405f205490811561186f57506024358091036118335760846040517f08c379a000000000000000000000000000000000000000000000000000000000815260206004820152602260248201527f446f6573206e6f742072656365697665207374616e64617264206d657373616760448201527f65730000000000000000000000000000000000000000000000000000000000006064820152fd5b63ffffffff611840611ab2565b7fc26bebcc000000000000000000000000000000000000000000000000000000005f521660045260245260445ffd5b7ff6ff4fb7000000000000000000000000000000000000000000000000000000005f5260045260245ffd5b6391ac5e4f60e01b5f523360045260245ffd5b34610b6d576020366003190112610b6d57600435907fffffffff000000000000000000000000000000000000000000000000000000008216809203610b6d57817f7965db0b0000000000000000000000000000000000000000000000000000000060209314908115611921575b5015158152f35b7f01ffc9a7000000000000000000000000000000000000000000000000000000009150148361191a565b9181601f84011215610b6d5782359167ffffffffffffffff8311610b6d5760208381860195010111610b6d57565b60a435906001600160a01b0382168203610b6d57565b600435906001600160a01b0382168203610b6d57565b602435906001600160a01b0382168203610b6d57565b606435906001600160a01b0382168203610b6d57565b6004359063ffffffff82168203610b6d57565b90601f8019910116810190811067ffffffffffffffff821117611a0657604052565b634e487b7160e01b5f52604160045260245ffd5b67ffffffffffffffff8111611a0657601f01601f191660200190565b929192611a4282611a1a565b91611a5060405193846119e4565b829481845281830111610b6d578281602093845f960137010152565b5f5b838110611a7d5750505f910152565b8181015183820152602001611a6e565b90602091611aa681518092818552858086019101611a6c565b601f01601f1916010190565b60043563ffffffff81168103610b6d5790565b6001600160a01b03168015611b61576001600160a01b037f9016d09d72d40fdae2fd8ceac6b6234c7706214fd39c1cd1e609a0528c199300548273ffffffffffffffffffffffffffffffffffffffff198216177f9016d09d72d40fdae2fd8ceac6b6234c7706214fd39c1cd1e609a0528c19930055167f8be0079c531659141344cd1fd0a4f28419497f9722a3daafe3b4186f6b6457e05f80a3565b7f1e4fbdf7000000000000000000000000000000000000000000000000000000005f525f60045260245ffd5b335f9081527f448256db8f8fb95ee3eaaf89c1051414494e85cebb6057fcf996cc3d0ccfb456602052604090205460ff1615611bc557565b63e2517d3f60e01b5f52336004527f97667070c54ef182b0f5858b034beac1b6f3089aa2d3188bb1e8929f4fa9b92960245260445ffd5b805f527f02dd7bc7dec4dceedda775e58dd541e08a116c6c53815c0bd028192f7b62680060205260405f206001600160a01b0333165f5260205260ff60405f20541615611c465750565b63e2517d3f60e01b5f523360045260245260445ffd5b6001600160a01b0381165f9081527fb7db2dd08fcb62d0c9e08c51941cae53c267786a0b75803fb7960902fc8ef97d602052604090205460ff16611d06576001600160a01b03165f8181527fb7db2dd08fcb62d0c9e08c51941cae53c267786a0b75803fb7960902fc8ef97d60205260408120805460ff191660011790553391907f2f8788117e7eff1d82e926ec794901d17c78024a50270940304540a733656f0d8180a4600190565b505f90565b6001600160a01b0381165f9081527f448256db8f8fb95ee3eaaf89c1051414494e85cebb6057fcf996cc3d0ccfb456602052604090205460ff16611d06576001600160a01b03165f8181527f448256db8f8fb95ee3eaaf89c1051414494e85cebb6057fcf996cc3d0ccfb45660205260408120805460ff191660011790553391907f97667070c54ef182b0f5858b034beac1b6f3089aa2d3188bb1e8929f4fa9b929907f2f8788117e7eff1d82e926ec794901d17c78024a50270940304540a733656f0d9080a4600190565b805f527f02dd7bc7dec4dceedda775e58dd541e08a116c6c53815c0bd028192f7b62680060205260405f206001600160a01b0383165f5260205260ff60405f205416155f14611e9e57805f527f02dd7bc7dec4dceedda775e58dd541e08a116c6c53815c0bd028192f7b62680060205260405f206001600160a01b0383165f5260205260405f20600160ff198254161790556001600160a01b03339216907f2f8788117e7eff1d82e926ec794901d17c78024a50270940304540a733656f0d5f80a4600190565b50505f90565b6001600160a01b037f9016d09d72d40fdae2fd8ceac6b6234c7706214fd39c1cd1e609a0528c19930054163303611ed757565b7f118cdaa7000000000000000000000000000000000000000000000000000000005f523360045260245ffd5b805f527f02dd7bc7dec4dceedda775e58dd541e08a116c6c53815c0bd028192f7b62680060205260405f206001600160a01b0383165f5260205260ff60405f2054165f14611e9e57805f527f02dd7bc7dec4dceedda775e58dd541e08a116c6c53815c0bd028192f7b62680060205260405f206001600160a01b0383165f5260205260405f2060ff1981541690556001600160a01b03339216907ff6391f5c32d9c69d2a47ea670b442974b53935d1edc7fd64eb21e047a839171b5f80a4600190565b916020915f91604051906001600160a01b03858301937fa9059cbb0000000000000000000000000000000000000000000000000000000085521660248301526044820152604481526120196064826119e4565b519082855af115610b62575f513d61207557506001600160a01b0381163b155b6120405750565b6001600160a01b03907f5274afe7000000000000000000000000000000000000000000000000000000005f521660045260245ffd5b60011415612039565b60ff7fcd5ed15c6e187e77e9aee88184c21f4f2182ab5827cb3b7e07fbedcd63f0330054166120a957565b7fd93c0665000000000000000000000000000000000000000000000000000000005f5260045ffd5b60ff7ff0c57e16840df040f15088dc2f81fe391c3923bec73e23a9662efc9c229c6a005460401c161561210057565b7fd7e6bcf8000000000000000000000000000000000000000000000000000000005f5260045ffd5b90612165575080511561213d57805190602001fd5b7fd6bda275000000000000000000000000000000000000000000000000000000005f5260045ffd5b815115806121ab575b612176575090565b6001600160a01b03907f9996b315000000000000000000000000000000000000000000000000000000005f521660045260245ffd5b50803b1561216e56fea164736f6c634300081c000af0c57e16840df040f15088dc2f81fe391c3923bec73e23a9662efc9c229c6a00","linkReferences":{}},"methodIdentifiers":{"DEFAULT_ADMIN_ROLE()":"a217fddf","OPERATOR_ROLE()":"f5b541a6","UPGRADE_INTERFACE_VERSION()":"ad3cb1cc","allowInitializePath((uint32,bytes32,uint64))":"ff7bd03d","emergencyRecover(address,address,uint256)":"ad1329d1","endpoint()":"5e280f11","getRoleAdmin(bytes32)":"248a9ca3","grantRole(bytes32,address)":"2f2ff15d","hasRole(bytes32,address)":"91d14854","initialize(address)":"c4d66de8","isComposeMsgSender((uint32,bytes32,uint64),bytes,address)":"82413eac","lzCompose(address,bytes32,bytes,address,bytes)":"d0a10260","lzReceive((uint32,bytes32,uint64),bytes32,bytes,address,bytes)":"13137d65","nextNonce(uint32,bytes32)":"7d25a05e","oAppVersion()":"17442b70","owner()":"8da5cb5b","pause()":"8456cb59","paused()":"5c975abb","peers(uint32)":"bb0b6a53","proxiableUUID()":"52d1902d","renounceOwnership()":"715018a6","renounceRole(bytes32,address)":"36568abe","revokeRole(bytes32,address)":"d547741f","setDelegate(address)":"ca5eb5e1","setPeer(uint32,bytes32)":"3400288b","setSupportedOFT(address,address,bool)":"e5b319a3","supportedOFTs(address)":"2548af6c","supportsInterface(bytes4)":"01ffc9a7","tokenToOFT(address)":"b297c991","transferOwnership(address)":"f2fde38b","unpause()":"3f4ba83a","upgradeToAndCall(address,bytes)":"4f1ef286"},"storageLayout":{"storage":[{"astId":56810,"contract":"src/adapters/layerzero/CrosschainStrategyAdapter.sol:StrategyAdapter","label":"tokenToOFT","offset":0,"slot":"0","type":"t_mapping(t_address,t_address)"},{"astId":56815,"contract":"src/adapters/layerzero/CrosschainStrategyAdapter.sol:StrategyAdapter","label":"supportedOFTs","offset":0,"slot":"1","type":"t_mapping(t_address,t_bool)"}],"types":{"t_address":{"encoding":"inplace","label":"address","numberOfBytes":"20"},"t_bool":{"encoding":"inplace","label":"bool","numberOfBytes":"1"},"t_mapping(t_address,t_address)":{"encoding":"mapping","key":"t_address","label":"mapping(address => address)","numberOfBytes":"32","value":"t_address"},"t_mapping(t_address,t_bool)":{"encoding":"mapping","key":"t_address","label":"mapping(address => bool)","numberOfBytes":"32","value":"t_bool"}}},"id":91}